{
  "_format": "hh-sol-artifact-1",
  "contractName": "MintRedeem",
  "sourceName": "contracts/MintRedeem.sol",
  "abi": [
    {
      "inputs": [
        {
          "internalType": "address",
          "name": "_usdc",
          "type": "address"
        },
        {
          "internalType": "address",
          "name": "_bvix",
          "type": "address"
        },
        {
          "internalType": "address",
          "name": "_oracle",
          "type": "address"
        },
        {
          "internalType": "address",
          "name": "initialOwner",
          "type": "address"
        }
      ],
      "stateMutability": "nonpayable",
      "type": "constructor"
    },
    {
      "inputs": [
        {
          "internalType": "address",
          "name": "owner",
          "type": "address"
        }
      ],
      "name": "OwnableInvalidOwner",
      "type": "error"
    },
    {
      "inputs": [
        {
          "internalType": "address",
          "name": "account",
          "type": "address"
        }
      ],
      "name": "OwnableUnauthorizedAccount",
      "type": "error"
    },
    {
      "anonymous": false,
      "inputs": [
        {
          "indexed": true,
          "internalType": "address",
          "name": "previousOwner",
          "type": "address"
        },
        {
          "indexed": true,
          "internalType": "address",
          "name": "newOwner",
          "type": "address"
        }
      ],
      "name": "OwnershipTransferred",
      "type": "event"
    },
    {
      "inputs": [],
      "name": "bvix",
      "outputs": [
        {
          "internalType": "contract BVIXToken",
          "name": "",
          "type": "address"
        }
      ],
      "stateMutability": "view",
      "type": "function"
    },
    {
      "inputs": [
        {
          "internalType": "uint256",
          "name": "amount",
          "type": "uint256"
        }
      ],
      "name": "mint",
      "outputs": [],
      "stateMutability": "nonpayable",
      "type": "function"
    },
    {
      "inputs": [],
      "name": "mintFee",
      "outputs": [
        {
          "internalType": "uint256",
          "name": "",
          "type": "uint256"
        }
      ],
      "stateMutability": "view",
      "type": "function"
    },
    {
      "inputs": [],
      "name": "oracle",
      "outputs": [
        {
          "internalType": "contract MockOracle",
          "name": "",
          "type": "address"
        }
      ],
      "stateMutability": "view",
      "type": "function"
    },
    {
      "inputs": [],
      "name": "owner",
      "outputs": [
        {
          "internalType": "address",
          "name": "",
          "type": "address"
        }
      ],
      "stateMutability": "view",
      "type": "function"
    },
    {
      "inputs": [
        {
          "internalType": "uint256",
          "name": "bvixAmount",
          "type": "uint256"
        }
      ],
      "name": "redeem",
      "outputs": [],
      "stateMutability": "nonpayable",
      "type": "function"
    },
    {
      "inputs": [],
      "name": "redeemFee",
      "outputs": [
        {
          "internalType": "uint256",
          "name": "",
          "type": "uint256"
        }
      ],
      "stateMutability": "view",
      "type": "function"
    },
    {
      "inputs": [],
      "name": "renounceOwnership",
      "outputs": [],
      "stateMutability": "nonpayable",
      "type": "function"
    },
    {
      "inputs": [
        {
          "internalType": "address",
          "name": "newOwner",
          "type": "address"
        }
      ],
      "name": "transferOwnership",
      "outputs": [],
      "stateMutability": "nonpayable",
      "type": "function"
    },
    {
      "inputs": [],
      "name": "usdc",
      "outputs": [
        {
          "internalType": "contract IERC20",
          "name": "",
          "type": "address"
        }
      ],
      "stateMutability": "view",
      "type": "function"
    }
  ],
  "bytecode": "0x60803461011557601f61091538819003918201601f19168301916001600160401b0383118484101761011a578084926080946040528339810103126101155761004781610130565b90606061005660208301610130565b9161006360408201610130565b6001600160a01b03929091839161007a9101610130565b169283156100fc57600080546001600160a01b03198082168717835560405197909686949385938416907f8be0079c531659141344cd1fd0a4f28419497f9722a3daafe3b4186f6b6457e09080a3601e600455601e6005551685600154161760015516836002541617600255169060035416176003556107d090816101458239f35b604051631e4fbdf760e01b815260006004820152602490fd5b600080fd5b634e487b7160e01b600052604160045260246000fd5b51906001600160a01b03821682036101155756fe608060408181526004908136101561001657600080fd5b600092833560e01c90816313966db51461063c575080633e413bee14610613578063715018a6146105b65780637dc0d1d01461058d5780638da5cb5b14610565578063965fa21e146105465780639f80fb4e1461051d578063a0712d68146102ff578063db006a751461012c5763f2fde38b1461009257600080fd5b34610128576020366003190112610128576001600160a01b03823581811693919290849003610124576100c3610658565b831561010e575050600054826bffffffffffffffffffffffff60a01b821617600055167f8be0079c531659141344cd1fd0a4f28419497f9722a3daafe3b4186f6b6457e0600080a380f35b51631e4fbdf760e01b8152908101849052602490fd5b8480fd5b8280fd5b50903461012857602090816003193601126102fb5780359061014f821515610684565b6002546001600160a01b039086908216803b156102f7578651632770a7eb60e21b815233858201908152602081018790529091839183919082908490829060400103925af180156102ed576102d5575b505081848260035416875194858092634c6afee560e11b82525afa80156102cb5785938891610290575b5064e8d4a51000670de0b6b3a76400006101e96102019361023598610764565b04046127106101fa60055483610764565b049061078d565b600154875163a9059cbb60e01b81523393810193845260208401929092529094859390911691839189918391604090910190565b03925af19182156102835761025393508492610256575b5050610721565b80f35b6102759250803d1061027c575b61026d81836106e7565b810190610709565b388061024c565b503d610263565b50505051903d90823e3d90fd5b84819592503d83116102c4575b6102a781836106e7565b810103126102bf57915184929064e8d4a510006101c9565b600080fd5b503d61029d565b86513d89823e3d90fd5b6102de906106bd565b6102e957853861019f565b8580fd5b87513d84823e3d90fd5b5080fd5b8380fd5b5034610128576020806003193601126102fb57823561031f811515610684565b60015483516323b872dd60e01b81523386820152306024820152604481018390526001600160a01b0392918490829060649082908b9088165af19081156104f657869291610374918991610500575b50610721565b838360035416865193848092634c6afee560e11b82525afa9182156104f65787926104c1575b506103ad906127106101fa885483610764565b64e8d4a51000908181029181830414811517156104ae576c0c9f2c9cd04674edea400000000290808204670de0b6b3a7640000149015171561049b5781156104885704918215610455575090849160025416803b156101285783516340c10f1960e01b8152339581019586526020860192909252909384919082908490829060400103925af190811561044c5750610443575080f35b610253906106bd565b513d84823e3d90fd5b8460649185519162461bcd60e51b8352820152600e60248201526d1b5a5b9d081d1bdbc81cdb585b1b60921b6044820152fd5b634e487b7160e01b875260128652602487fd5b634e487b7160e01b875260118652602487fd5b634e487b7160e01b885260118752602488fd5b9091508381813d83116104ef575b6104d981836106e7565b810103126104eb5751906103ad61039a565b8680fd5b503d6104cf565b85513d89823e3d90fd5b6105179150863d881161027c5761026d81836106e7565b3861036e565b8382346102f757816003193601126102f75760025490516001600160a01b039091168152602090f35b8382346102f757816003193601126102f7576020906005549051908152f35b8382346102f757816003193601126102f757905490516001600160a01b039091168152602090f35b8382346102f757816003193601126102f75760035490516001600160a01b039091168152602090f35b83346106105780600319360112610610576105cf610658565b80546001600160a01b03198116825581906001600160a01b03167f8be0079c531659141344cd1fd0a4f28419497f9722a3daafe3b4186f6b6457e08280a380f35b80fd5b8382346102f757816003193601126102f75760015490516001600160a01b039091168152602090f35b8490843461012857826003193601126101285760209250548152f35b6000546001600160a01b0316330361066c57565b60405163118cdaa760e01b8152336004820152602490fd5b1561068b57565b60405162461bcd60e51b815260206004820152600a6024820152690616d6f756e74203d20360b41b6044820152606490fd5b67ffffffffffffffff81116106d157604052565b634e487b7160e01b600052604160045260246000fd5b90601f8019910116810190811067ffffffffffffffff8211176106d157604052565b908160209103126102bf575180151581036102bf5790565b1561072857565b60405162461bcd60e51b81526020600482015260146024820152731554d110c81d1c985b9cd9995c8819985a5b195960621b6044820152606490fd5b8181029291811591840414171561077757565b634e487b7160e01b600052601160045260246000fd5b919082039182116107775756fea264697066735822122017de70795697336094eaa7cae1b02410a89fe9f245f212ee05c41bd83b5d23b364736f6c63430008150033",
  "linkReferences": {},
  "deployedLinkReferences": {}
}