{
  "_format": "hh-sol-artifact-1",
  "contractName": "MintRedeem",
  "sourceName": "contracts/MintRedeem.sol",
  "abi": [
    {
      "inputs": [
        {
          "internalType": "address",
          "name": "_usdc",
          "type": "address"
        },
        {
          "internalType": "address",
          "name": "_bvix",
          "type": "address"
        },
        {
          "internalType": "address",
          "name": "_oracle",
          "type": "address"
        },
        {
          "internalType": "address",
          "name": "initialOwner",
          "type": "address"
        }
      ],
      "stateMutability": "nonpayable",
      "type": "constructor"
    },
    {
      "inputs": [
        {
          "internalType": "address",
          "name": "owner",
          "type": "address"
        }
      ],
      "name": "OwnableInvalidOwner",
      "type": "error"
    },
    {
      "inputs": [
        {
          "internalType": "address",
          "name": "account",
          "type": "address"
        }
      ],
      "name": "OwnableUnauthorizedAccount",
      "type": "error"
    },
    {
      "anonymous": false,
      "inputs": [
        {
          "indexed": true,
          "internalType": "address",
          "name": "previousOwner",
          "type": "address"
        },
        {
          "indexed": true,
          "internalType": "address",
          "name": "newOwner",
          "type": "address"
        }
      ],
      "name": "OwnershipTransferred",
      "type": "event"
    },
    {
      "inputs": [],
      "name": "bvix",
      "outputs": [
        {
          "internalType": "contract BVIXToken",
          "name": "",
          "type": "address"
        }
      ],
      "stateMutability": "view",
      "type": "function"
    },
    {
      "inputs": [
        {
          "internalType": "uint256",
          "name": "amount",
          "type": "uint256"
        }
      ],
      "name": "mint",
      "outputs": [],
      "stateMutability": "nonpayable",
      "type": "function"
    },
    {
      "inputs": [],
      "name": "mintFee",
      "outputs": [
        {
          "internalType": "uint256",
          "name": "",
          "type": "uint256"
        }
      ],
      "stateMutability": "view",
      "type": "function"
    },
    {
      "inputs": [],
      "name": "oracle",
      "outputs": [
        {
          "internalType": "contract MockOracle",
          "name": "",
          "type": "address"
        }
      ],
      "stateMutability": "view",
      "type": "function"
    },
    {
      "inputs": [],
      "name": "owner",
      "outputs": [
        {
          "internalType": "address",
          "name": "",
          "type": "address"
        }
      ],
      "stateMutability": "view",
      "type": "function"
    },
    {
      "inputs": [
        {
          "internalType": "uint256",
          "name": "bvixAmount",
          "type": "uint256"
        }
      ],
      "name": "redeem",
      "outputs": [],
      "stateMutability": "nonpayable",
      "type": "function"
    },
    {
      "inputs": [],
      "name": "redeemFee",
      "outputs": [
        {
          "internalType": "uint256",
          "name": "",
          "type": "uint256"
        }
      ],
      "stateMutability": "view",
      "type": "function"
    },
    {
      "inputs": [],
      "name": "renounceOwnership",
      "outputs": [],
      "stateMutability": "nonpayable",
      "type": "function"
    },
    {
      "inputs": [
        {
          "internalType": "address",
          "name": "newOwner",
          "type": "address"
        }
      ],
      "name": "transferOwnership",
      "outputs": [],
      "stateMutability": "nonpayable",
      "type": "function"
    },
    {
      "inputs": [],
      "name": "usdc",
      "outputs": [
        {
          "internalType": "contract IERC20",
          "name": "",
          "type": "address"
        }
      ],
      "stateMutability": "view",
      "type": "function"
    }
  ],
  "bytecode": "0x6080604052601e600455601e6005553480156200001b57600080fd5b506040516200133c3803806200133c8339818101604052810190620000419190620002c4565b80600073ffffffffffffffffffffffffffffffffffffffff168173ffffffffffffffffffffffffffffffffffffffff1603620000b75760006040517f1e4fbdf7000000000000000000000000000000000000000000000000000000008152600401620000ae919062000347565b60405180910390fd5b620000c8816200019660201b60201c565b5083600160006101000a81548173ffffffffffffffffffffffffffffffffffffffff021916908373ffffffffffffffffffffffffffffffffffffffff16021790555082600260006101000a81548173ffffffffffffffffffffffffffffffffffffffff021916908373ffffffffffffffffffffffffffffffffffffffff16021790555081600360006101000a81548173ffffffffffffffffffffffffffffffffffffffff021916908373ffffffffffffffffffffffffffffffffffffffff1602179055505050505062000364565b60008060009054906101000a900473ffffffffffffffffffffffffffffffffffffffff169050816000806101000a81548173ffffffffffffffffffffffffffffffffffffffff021916908373ffffffffffffffffffffffffffffffffffffffff1602179055508173ffffffffffffffffffffffffffffffffffffffff168173ffffffffffffffffffffffffffffffffffffffff167f8be0079c531659141344cd1fd0a4f28419497f9722a3daafe3b4186f6b6457e060405160405180910390a35050565b600080fd5b600073ffffffffffffffffffffffffffffffffffffffff82169050919050565b60006200028c826200025f565b9050919050565b6200029e816200027f565b8114620002aa57600080fd5b50565b600081519050620002be8162000293565b92915050565b60008060008060808587031215620002e157620002e06200025a565b5b6000620002f187828801620002ad565b94505060206200030487828801620002ad565b93505060406200031787828801620002ad565b92505060606200032a87828801620002ad565b91505092959194509250565b62000341816200027f565b82525050565b60006020820190506200035e600083018462000336565b92915050565b610fc880620003746000396000f3fe608060405234801561001057600080fd5b506004361061009e5760003560e01c8063965fa21e11610066578063965fa21e146101255780639f80fb4e14610143578063a0712d6814610161578063db006a751461017d578063f2fde38b146101995761009e565b806313966db5146100a35780633e413bee146100c1578063715018a6146100df5780637dc0d1d0146100e95780638da5cb5b14610107575b600080fd5b6100ab6101b5565b6040516100b89190610a11565b60405180910390f35b6100c96101bb565b6040516100d69190610aab565b60405180910390f35b6100e76101e1565b005b6100f16101f5565b6040516100fe9190610ae7565b60405180910390f35b61010f61021b565b60405161011c9190610b23565b60405180910390f35b61012d610244565b60405161013a9190610a11565b60405180910390f35b61014b61024a565b6040516101589190610b5f565b60405180910390f35b61017b60048036038101906101769190610bab565b610270565b005b61019760048036038101906101929190610bab565b61056a565b005b6101b360048036038101906101ae9190610c04565b61081f565b005b60045481565b600160009054906101000a900473ffffffffffffffffffffffffffffffffffffffff1681565b6101e96108a5565b6101f3600061092c565b565b600360009054906101000a900473ffffffffffffffffffffffffffffffffffffffff1681565b60008060009054906101000a900473ffffffffffffffffffffffffffffffffffffffff16905090565b60055481565b600260009054906101000a900473ffffffffffffffffffffffffffffffffffffffff1681565b600081116102b3576040517f08c379a00000000000000000000000000000000000000000000000000000000081526004016102aa90610c8e565b60405180910390fd5b600160009054906101000a900473ffffffffffffffffffffffffffffffffffffffff1673ffffffffffffffffffffffffffffffffffffffff166323b872dd3330846040518463ffffffff1660e01b815260040161031293929190610cae565b6020604051808303816000875af1158015610331573d6000803e3d6000fd5b505050506040513d601f19601f820116820180604052508101906103559190610d1d565b610394576040517f08c379a000000000000000000000000000000000000000000000000000000000815260040161038b90610d96565b60405180910390fd5b6000600360009054906101000a900473ffffffffffffffffffffffffffffffffffffffff1673ffffffffffffffffffffffffffffffffffffffff166398d5fdca6040518163ffffffff1660e01b8152600401602060405180830381865afa158015610403573d6000803e3d6000fd5b505050506040513d601f19601f820116820180604052508101906104279190610dcb565b905060006127106004548461043c9190610e27565b6104469190610e98565b9050600081846104569190610ec9565b9050600064e8d4a510008261046b9190610e27565b9050600084670de0b6b3a7640000836104849190610e27565b61048e9190610e98565b9050600081116104d3576040517f08c379a00000000000000000000000000000000000000000000000000000000081526004016104ca90610f49565b60405180910390fd5b600260009054906101000a900473ffffffffffffffffffffffffffffffffffffffff1673ffffffffffffffffffffffffffffffffffffffff166340c10f1933836040518363ffffffff1660e01b8152600401610530929190610f69565b600060405180830381600087803b15801561054a57600080fd5b505af115801561055e573d6000803e3d6000fd5b50505050505050505050565b600081116105ad576040517f08c379a00000000000000000000000000000000000000000000000000000000081526004016105a490610c8e565b60405180910390fd5b600260009054906101000a900473ffffffffffffffffffffffffffffffffffffffff1673ffffffffffffffffffffffffffffffffffffffff16639dc29fac33836040518363ffffffff1660e01b815260040161060a929190610f69565b600060405180830381600087803b15801561062457600080fd5b505af1158015610638573d6000803e3d6000fd5b505050506000600360009054906101000a900473ffffffffffffffffffffffffffffffffffffffff1673ffffffffffffffffffffffffffffffffffffffff166398d5fdca6040518163ffffffff1660e01b8152600401602060405180830381865afa1580156106ab573d6000803e3d6000fd5b505050506040513d601f19601f820116820180604052508101906106cf9190610dcb565b90506000670de0b6b3a764000082846106e89190610e27565b6106f29190610e98565b9050600064e8d4a51000826107079190610e98565b905060006127106005548361071c9190610e27565b6107269190610e98565b9050600081836107369190610ec9565b9050600160009054906101000a900473ffffffffffffffffffffffffffffffffffffffff1673ffffffffffffffffffffffffffffffffffffffff1663a9059cbb33836040518363ffffffff1660e01b8152600401610795929190610f69565b6020604051808303816000875af11580156107b4573d6000803e3d6000fd5b505050506040513d601f19601f820116820180604052508101906107d89190610d1d565b610817576040517f08c379a000000000000000000000000000000000000000000000000000000000815260040161080e90610d96565b60405180910390fd5b505050505050565b6108276108a5565b600073ffffffffffffffffffffffffffffffffffffffff168173ffffffffffffffffffffffffffffffffffffffff16036108995760006040517f1e4fbdf70000000000000000000000000000000000000000000000000000000081526004016108909190610b23565b60405180910390fd5b6108a28161092c565b50565b6108ad6109f0565b73ffffffffffffffffffffffffffffffffffffffff166108cb61021b565b73ffffffffffffffffffffffffffffffffffffffff161461092a576108ee6109f0565b6040517f118cdaa70000000000000000000000000000000000000000000000000000000081526004016109219190610b23565b60405180910390fd5b565b60008060009054906101000a900473ffffffffffffffffffffffffffffffffffffffff169050816000806101000a81548173ffffffffffffffffffffffffffffffffffffffff021916908373ffffffffffffffffffffffffffffffffffffffff1602179055508173ffffffffffffffffffffffffffffffffffffffff168173ffffffffffffffffffffffffffffffffffffffff167f8be0079c531659141344cd1fd0a4f28419497f9722a3daafe3b4186f6b6457e060405160405180910390a35050565b600033905090565b6000819050919050565b610a0b816109f8565b82525050565b6000602082019050610a266000830184610a02565b92915050565b600073ffffffffffffffffffffffffffffffffffffffff82169050919050565b6000819050919050565b6000610a71610a6c610a6784610a2c565b610a4c565b610a2c565b9050919050565b6000610a8382610a56565b9050919050565b6000610a9582610a78565b9050919050565b610aa581610a8a565b82525050565b6000602082019050610ac06000830184610a9c565b92915050565b6000610ad182610a78565b9050919050565b610ae181610ac6565b82525050565b6000602082019050610afc6000830184610ad8565b92915050565b6000610b0d82610a2c565b9050919050565b610b1d81610b02565b82525050565b6000602082019050610b386000830184610b14565b92915050565b6000610b4982610a78565b9050919050565b610b5981610b3e565b82525050565b6000602082019050610b746000830184610b50565b92915050565b600080fd5b610b88816109f8565b8114610b9357600080fd5b50565b600081359050610ba581610b7f565b92915050565b600060208284031215610bc157610bc0610b7a565b5b6000610bcf84828501610b96565b91505092915050565b610be181610b02565b8114610bec57600080fd5b50565b600081359050610bfe81610bd8565b92915050565b600060208284031215610c1a57610c19610b7a565b5b6000610c2884828501610bef565b91505092915050565b600082825260208201905092915050565b7f616d6f756e74203d203000000000000000000000000000000000000000000000600082015250565b6000610c78600a83610c31565b9150610c8382610c42565b602082019050919050565b60006020820190508181036000830152610ca781610c6b565b9050919050565b6000606082019050610cc36000830186610b14565b610cd06020830185610b14565b610cdd6040830184610a02565b949350505050565b60008115159050919050565b610cfa81610ce5565b8114610d0557600080fd5b50565b600081519050610d1781610cf1565b92915050565b600060208284031215610d3357610d32610b7a565b5b6000610d4184828501610d08565b91505092915050565b7f55534443207472616e73666572206661696c6564000000000000000000000000600082015250565b6000610d80601483610c31565b9150610d8b82610d4a565b602082019050919050565b60006020820190508181036000830152610daf81610d73565b9050919050565b600081519050610dc581610b7f565b92915050565b600060208284031215610de157610de0610b7a565b5b6000610def84828501610db6565b91505092915050565b7f4e487b7100000000000000000000000000000000000000000000000000000000600052601160045260246000fd5b6000610e32826109f8565b9150610e3d836109f8565b9250828202610e4b816109f8565b91508282048414831517610e6257610e61610df8565b5b5092915050565b7f4e487b7100000000000000000000000000000000000000000000000000000000600052601260045260246000fd5b6000610ea3826109f8565b9150610eae836109f8565b925082610ebe57610ebd610e69565b5b828204905092915050565b6000610ed4826109f8565b9150610edf836109f8565b9250828203905081811115610ef757610ef6610df8565b5b92915050565b7f6d696e7420746f6f20736d616c6c000000000000000000000000000000000000600082015250565b6000610f33600e83610c31565b9150610f3e82610efd565b602082019050919050565b60006020820190508181036000830152610f6281610f26565b9050919050565b6000604082019050610f7e6000830185610b14565b610f8b6020830184610a02565b939250505056fea2646970667358221220e76182b41782393610f13dfbaa991985c4c7cafc84c299a52333b8429a6851b564736f6c63430008150033",
  "linkReferences": {},
  "deployedLinkReferences": {}
}