{
  "_format": "hh-sol-artifact-1",
  "contractName": "MockUSDC",
  "sourceName": "contracts/MockUSDC.sol",
  "abi": [
    {
      "inputs": [
        {
          "internalType": "address",
          "name": "initialOwner",
          "type": "address"
        }
      ],
      "stateMutability": "nonpayable",
      "type": "constructor"
    },
    {
      "inputs": [
        {
          "internalType": "address",
          "name": "spender",
          "type": "address"
        },
        {
          "internalType": "uint256",
          "name": "allowance",
          "type": "uint256"
        },
        {
          "internalType": "uint256",
          "name": "needed",
          "type": "uint256"
        }
      ],
      "name": "ERC20InsufficientAllowance",
      "type": "error"
    },
    {
      "inputs": [
        {
          "internalType": "address",
          "name": "sender",
          "type": "address"
        },
        {
          "internalType": "uint256",
          "name": "balance",
          "type": "uint256"
        },
        {
          "internalType": "uint256",
          "name": "needed",
          "type": "uint256"
        }
      ],
      "name": "ERC20InsufficientBalance",
      "type": "error"
    },
    {
      "inputs": [
        {
          "internalType": "address",
          "name": "approver",
          "type": "address"
        }
      ],
      "name": "ERC20InvalidApprover",
      "type": "error"
    },
    {
      "inputs": [
        {
          "internalType": "address",
          "name": "receiver",
          "type": "address"
        }
      ],
      "name": "ERC20InvalidReceiver",
      "type": "error"
    },
    {
      "inputs": [
        {
          "internalType": "address",
          "name": "sender",
          "type": "address"
        }
      ],
      "name": "ERC20InvalidSender",
      "type": "error"
    },
    {
      "inputs": [
        {
          "internalType": "address",
          "name": "spender",
          "type": "address"
        }
      ],
      "name": "ERC20InvalidSpender",
      "type": "error"
    },
    {
      "inputs": [
        {
          "internalType": "address",
          "name": "owner",
          "type": "address"
        }
      ],
      "name": "OwnableInvalidOwner",
      "type": "error"
    },
    {
      "inputs": [
        {
          "internalType": "address",
          "name": "account",
          "type": "address"
        }
      ],
      "name": "OwnableUnauthorizedAccount",
      "type": "error"
    },
    {
      "anonymous": false,
      "inputs": [
        {
          "indexed": true,
          "internalType": "address",
          "name": "owner",
          "type": "address"
        },
        {
          "indexed": true,
          "internalType": "address",
          "name": "spender",
          "type": "address"
        },
        {
          "indexed": false,
          "internalType": "uint256",
          "name": "value",
          "type": "uint256"
        }
      ],
      "name": "Approval",
      "type": "event"
    },
    {
      "anonymous": false,
      "inputs": [
        {
          "indexed": true,
          "internalType": "address",
          "name": "previousOwner",
          "type": "address"
        },
        {
          "indexed": true,
          "internalType": "address",
          "name": "newOwner",
          "type": "address"
        }
      ],
      "name": "OwnershipTransferred",
      "type": "event"
    },
    {
      "anonymous": false,
      "inputs": [
        {
          "indexed": true,
          "internalType": "address",
          "name": "from",
          "type": "address"
        },
        {
          "indexed": true,
          "internalType": "address",
          "name": "to",
          "type": "address"
        },
        {
          "indexed": false,
          "internalType": "uint256",
          "name": "value",
          "type": "uint256"
        }
      ],
      "name": "Transfer",
      "type": "event"
    },
    {
      "inputs": [
        {
          "internalType": "address",
          "name": "owner",
          "type": "address"
        },
        {
          "internalType": "address",
          "name": "spender",
          "type": "address"
        }
      ],
      "name": "allowance",
      "outputs": [
        {
          "internalType": "uint256",
          "name": "",
          "type": "uint256"
        }
      ],
      "stateMutability": "view",
      "type": "function"
    },
    {
      "inputs": [
        {
          "internalType": "address",
          "name": "spender",
          "type": "address"
        },
        {
          "internalType": "uint256",
          "name": "value",
          "type": "uint256"
        }
      ],
      "name": "approve",
      "outputs": [
        {
          "internalType": "bool",
          "name": "",
          "type": "bool"
        }
      ],
      "stateMutability": "nonpayable",
      "type": "function"
    },
    {
      "inputs": [
        {
          "internalType": "address",
          "name": "account",
          "type": "address"
        }
      ],
      "name": "balanceOf",
      "outputs": [
        {
          "internalType": "uint256",
          "name": "",
          "type": "uint256"
        }
      ],
      "stateMutability": "view",
      "type": "function"
    },
    {
      "inputs": [],
      "name": "decimals",
      "outputs": [
        {
          "internalType": "uint8",
          "name": "",
          "type": "uint8"
        }
      ],
      "stateMutability": "pure",
      "type": "function"
    },
    {
      "inputs": [],
      "name": "faucet",
      "outputs": [],
      "stateMutability": "nonpayable",
      "type": "function"
    },
    {
      "inputs": [
        {
          "internalType": "address",
          "name": "to",
          "type": "address"
        },
        {
          "internalType": "uint256",
          "name": "amount",
          "type": "uint256"
        }
      ],
      "name": "mint",
      "outputs": [],
      "stateMutability": "nonpayable",
      "type": "function"
    },
    {
      "inputs": [],
      "name": "name",
      "outputs": [
        {
          "internalType": "string",
          "name": "",
          "type": "string"
        }
      ],
      "stateMutability": "view",
      "type": "function"
    },
    {
      "inputs": [],
      "name": "owner",
      "outputs": [
        {
          "internalType": "address",
          "name": "",
          "type": "address"
        }
      ],
      "stateMutability": "view",
      "type": "function"
    },
    {
      "inputs": [],
      "name": "renounceOwnership",
      "outputs": [],
      "stateMutability": "nonpayable",
      "type": "function"
    },
    {
      "inputs": [],
      "name": "symbol",
      "outputs": [
        {
          "internalType": "string",
          "name": "",
          "type": "string"
        }
      ],
      "stateMutability": "view",
      "type": "function"
    },
    {
      "inputs": [],
      "name": "totalSupply",
      "outputs": [
        {
          "internalType": "uint256",
          "name": "",
          "type": "uint256"
        }
      ],
      "stateMutability": "view",
      "type": "function"
    },
    {
      "inputs": [
        {
          "internalType": "address",
          "name": "to",
          "type": "address"
        },
        {
          "internalType": "uint256",
          "name": "value",
          "type": "uint256"
        }
      ],
      "name": "transfer",
      "outputs": [
        {
          "internalType": "bool",
          "name": "",
          "type": "bool"
        }
      ],
      "stateMutability": "nonpayable",
      "type": "function"
    },
    {
      "inputs": [
        {
          "internalType": "address",
          "name": "from",
          "type": "address"
        },
        {
          "internalType": "address",
          "name": "to",
          "type": "address"
        },
        {
          "internalType": "uint256",
          "name": "value",
          "type": "uint256"
        }
      ],
      "name": "transferFrom",
      "outputs": [
        {
          "internalType": "bool",
          "name": "",
          "type": "bool"
        }
      ],
      "stateMutability": "nonpayable",
      "type": "function"
    },
    {
      "inputs": [
        {
          "internalType": "address",
          "name": "newOwner",
          "type": "address"
        }
      ],
      "name": "transferOwnership",
      "outputs": [],
      "stateMutability": "nonpayable",
      "type": "function"
    }
  ],
  "bytecode": "0x6080346200040b576001600160401b0390601f601f1962000da93881900383810183168501868111868210176200030c578592829160405283396020948591810103126200040b57516001600160a01b0380821695909290918690036200040b576200006a62000410565b9160098352684d6f636b205553444360b81b868401526200008a62000410565b94600593848752646d5553444360d81b888801528051918383116200030c5760039283546001938482811c9216801562000400575b8c831014620003ea578b828585941162000393575b50508b908483116001146200032e5760009262000322575b505060001982861b1c191690831b1783555b87519384116200030c5760049788548381811c9116801562000301575b8b821014620002ec57828111620002a3575b50899185116001146200023a57849550908492916000956200022e575b50501b92600019911b1c19161783555b8415620002165780546001600160a01b0319811686179091558491167f8be0079c531659141344cd1fd0a4f28419497f9722a3daafe3b4186f6b6457e0600080a360025466038d7ea4c68000918282018092116200020157506002556000838152808352604080822080548401905551918252917fddf252ad1be2c89b69c2b068fc378daa952ba7f163c4a11628f55a4df523b3ef91a36040516109789081620004318239f35b601190634e487b7160e01b6000525260246000fd5b604051631e4fbdf760e01b8152600081850152602490fd5b0151935038806200014a565b92919484169288600052848a6000209460005b8c898383106200028b575050501062000270575b50505050811b0183556200015a565b01519060f884600019921b161c191690553880808062000261565b8686015189559097019694850194889350016200024d565b896000528a600020838088018a1c8201928d8910620002e2575b01891c019084905b828110620002d55750506200012d565b60008155018490620002c5565b92508192620002bd565b60228a634e487b7160e01b6000525260246000fd5b90607f16906200011b565b634e487b7160e01b600052604160045260246000fd5b015190503880620000ec565b908c91898795168860005283600020936000905b8282106200037b575050841162000362575b505050811b018355620000fe565b015160001983881b60f8161c1916905538808062000354565b83850151865589979095019493840193018f62000342565b90919250866000528482600020918186018c1c8301938610620003e0575b91879186959493018c1c01915b828110620003d057508d9150620000d4565b60008155859450879101620003be565b92508192620003b1565b634e487b7160e01b600052602260045260246000fd5b91607f1691620000bf565b600080fd5b60408051919082016001600160401b038111838210176200030c5760405256fe6080604081815260048036101561001557600080fd5b600092833560e01c90816306fdde03146106c957508063095ea7b31461062057806318160ddd1461060157806323b872dd1461050e578063313ce567146104f257806340c10f191461044357806370a082311461040c578063715018a6146103ac5780638da5cb5b1461038357806395d89b4114610263578063a9059cbb14610232578063dd62ed3e146101e5578063de5f72fd1461014f5763f2fde38b146100bd57600080fd5b3461014b57602036600319011261014b576100d6610807565b906100df610838565b6001600160a01b03918216928315610135575050600554826bffffffffffffffffffffffff60a01b821617600555167f8be0079c531659141344cd1fd0a4f28419497f9722a3daafe3b4186f6b6457e08380a380f35b51631e4fbdf760e01b8152908101849052602490fd5b8280fd5b50903461014b578260031936011261014b5733156101d0576002546402540be400928382018092116101bd57506002553383528260205280832082815401905551908152817fddf252ad1be2c89b69c2b068fc378daa952ba7f163c4a11628f55a4df523b3ef60203393a380f35b634e487b7160e01b855260119052602484fd5b91602492519163ec442f0560e01b8352820152fd5b50503461022e578060031936011261022e5780602092610203610807565b61020b610822565b6001600160a01b0391821683526001865283832091168252845220549051908152f35b5080fd5b50503461022e578060031936011261022e5760209061025c610252610807565b6024359033610864565b5160018152f35b5091903461022e578160031936011261022e57805190828454600181811c90808316928315610379575b60209384841081146103665783885290811561034a57506001146102f5575b505050829003601f01601f191682019267ffffffffffffffff8411838510176102e257508291826102de9252826107be565b0390f35b634e487b7160e01b815260418552602490fd5b8787529192508591837f8a35acfbc15ff81a39ae7d344fd709f28e8600b4aa8c65c6b64bfe7fe36bd19b5b83851061033657505050508301013880806102ac565b805488860183015293019284908201610320565b60ff1916878501525050151560051b84010190503880806102ac565b634e487b7160e01b895260228a52602489fd5b91607f169161028d565b50503461022e578160031936011261022e5760055490516001600160a01b039091168152602090f35b83346104095780600319360112610409576103c5610838565b600580546001600160a01b0319811690915581906001600160a01b03167f8be0079c531659141344cd1fd0a4f28419497f9722a3daafe3b4186f6b6457e08280a380f35b80fd5b50503461022e57602036600319011261022e5760209181906001600160a01b03610434610807565b16815280845220549051908152f35b50903461014b578060031936011261014b5761045d610807565b906024359161046a610838565b6001600160a01b03169283156104dd57600254908382018092116104ca575084927fddf252ad1be2c89b69c2b068fc378daa952ba7f163c4a11628f55a4df523b3ef9260209260025585855284835280852082815401905551908152a380f35b634e487b7160e01b865260119052602485fd5b84602492519163ec442f0560e01b8352820152fd5b50503461022e578160031936011261022e576020905160068152f35b50823461040957606036600319011261040957610529610807565b610531610822565b916044359360018060a01b03831680835260016020528683203384526020528683205491600019831061056d575b60208861025c898989610864565b8683106105d55781156105be5733156105a75750825260016020908152868320338452815291869020908590039055829061025c8761055f565b8751634a1406b160e11b8152908101849052602490fd5b875163e602df0560e01b8152908101849052602490fd5b8751637dc7a0d960e11b8152339181019182526020820193909352604081018790528291506060010390fd5b50503461022e578160031936011261022e576020906002549051908152f35b503461014b578160031936011261014b57610639610807565b6024359033156106b2576001600160a01b031691821561069b57508083602095338152600187528181208582528752205582519081527f8c5be1e5ebec7d5bd14f71427d1e84f3dd0314c0f7b2291e5b200ac8c7c3b925843392a35160018152f35b8351634a1406b160e11b8152908101859052602490fd5b835163e602df0560e01b8152808401869052602490fd5b849150833461014b578260031936011261014b5782600354600181811c908083169283156107b4575b602093848410811461036657838852908115610798575060011461074257505050829003601f01601f191682019267ffffffffffffffff8411838510176102e257508291826102de9252826107be565b600387529192508591837fc2575a0e9e593c00f959f8c92f12db2869c3395a3b0502d05e2516446f71f85b5b83851061078457505050508301018580806102ac565b80548886018301529301928490820161076e565b60ff1916878501525050151560051b84010190508580806102ac565b91607f16916106f2565b6020808252825181830181905290939260005b8281106107f357505060409293506000838284010152601f8019910116010190565b8181018601518482016040015285016107d1565b600435906001600160a01b038216820361081d57565b600080fd5b602435906001600160a01b038216820361081d57565b6005546001600160a01b0316330361084c57565b60405163118cdaa760e01b8152336004820152602490fd5b916001600160a01b03808416928315610929571692831561091057600090838252816020526040822054908382106108de575091604082827fddf252ad1be2c89b69c2b068fc378daa952ba7f163c4a11628f55a4df523b3ef958760209652828652038282205586815220818154019055604051908152a3565b60405163391434e360e21b81526001600160a01b03919091166004820152602481019190915260448101839052606490fd5b60405163ec442f0560e01b815260006004820152602490fd5b604051634b637e8f60e11b815260006004820152602490fdfea264697066735822122082cdb0033f826037f17a6f3b76b12dcf66ed245d45802faa1bddd5b0e8d1a36164736f6c63430008150033",
  "linkReferences": {},
  "deployedLinkReferences": {}
}