{
  "_format": "hh-sol-artifact-1",
  "contractName": "EVIXOracle",
  "sourceName": "contracts/EVIXOracle.sol",
  "abi": [
    {
      "inputs": [
        {
          "internalType": "int256",
          "name": "_initialPrice",
          "type": "int256"
        },
        {
          "internalType": "address",
          "name": "initialOwner",
          "type": "address"
        }
      ],
      "stateMutability": "nonpayable",
      "type": "constructor"
    },
    {
      "inputs": [
        {
          "internalType": "address",
          "name": "owner",
          "type": "address"
        }
      ],
      "name": "OwnableInvalidOwner",
      "type": "error"
    },
    {
      "inputs": [
        {
          "internalType": "address",
          "name": "account",
          "type": "address"
        }
      ],
      "name": "OwnableUnauthorizedAccount",
      "type": "error"
    },
    {
      "anonymous": false,
      "inputs": [
        {
          "indexed": true,
          "internalType": "address",
          "name": "previousOwner",
          "type": "address"
        },
        {
          "indexed": true,
          "internalType": "address",
          "name": "newOwner",
          "type": "address"
        }
      ],
      "name": "OwnershipTransferred",
      "type": "event"
    },
    {
      "anonymous": false,
      "inputs": [
        {
          "indexed": false,
          "internalType": "int256",
          "name": "newPrice",
          "type": "int256"
        },
        {
          "indexed": false,
          "internalType": "uint256",
          "name": "timestamp",
          "type": "uint256"
        }
      ],
      "name": "PriceUpdated",
      "type": "event"
    },
    {
      "inputs": [],
      "name": "getLastUpdated",
      "outputs": [
        {
          "internalType": "uint256",
          "name": "",
          "type": "uint256"
        }
      ],
      "stateMutability": "view",
      "type": "function"
    },
    {
      "inputs": [],
      "name": "getPrice",
      "outputs": [
        {
          "internalType": "int256",
          "name": "",
          "type": "int256"
        }
      ],
      "stateMutability": "view",
      "type": "function"
    },
    {
      "inputs": [],
      "name": "owner",
      "outputs": [
        {
          "internalType": "address",
          "name": "",
          "type": "address"
        }
      ],
      "stateMutability": "view",
      "type": "function"
    },
    {
      "inputs": [],
      "name": "renounceOwnership",
      "outputs": [],
      "stateMutability": "nonpayable",
      "type": "function"
    },
    {
      "inputs": [
        {
          "internalType": "address",
          "name": "newOwner",
          "type": "address"
        }
      ],
      "name": "transferOwnership",
      "outputs": [],
      "stateMutability": "nonpayable",
      "type": "function"
    },
    {
      "inputs": [
        {
          "internalType": "int256",
          "name": "_newPrice",
          "type": "int256"
        }
      ],
      "name": "updatePrice",
      "outputs": [],
      "stateMutability": "nonpayable",
      "type": "function"
    }
  ],
  "bytecode": "0x6080346100fa5761037e90601f38839003908101601f19168201906001600160401b038211838310176100ff57808391604095869485528339810103126100fa5780516020909101516001600160a01b039190828116908190036100fa5780156100e2579183917fdb6fb3cf4cc5fb760bcd63b958a53b2396776dff32c063188e864296541e76bd93600054928160018060a01b0319851617600055845193167f8be0079c531659141344cd1fd0a4f28419497f9722a3daafe3b4186f6b6457e0600080a380600155426002558152426020820152a15161026890816101168239f35b8351631e4fbdf760e01b815260006004820152602490fd5b600080fd5b634e487b7160e01b600052604160045260246000fdfe604060808152600436101561001357600080fd5b600090813560e01c8063715018a6146101a957806378121dd41461018b5780638da5cb5b1461016457806398d5fdca14610146578063d4c19bda146100f05763f2fde38b1461006157600080fd5b346100ec5760203660031901126100ec576001600160a01b0360043581811692908390036100e857610091610206565b82156100d1575082546001600160a01b0319811683178455167f8be0079c531659141344cd1fd0a4f28419497f9722a3daafe3b4186f6b6457e08380a380f35b51631e4fbdf760e01b815260048101849052602490fd5b8380fd5b5080fd5b50346100ec5760203660031901126100ec577fdb6fb3cf4cc5fb760bcd63b958a53b2396776dff32c063188e864296541e76bd9060043561012f610206565b80600155426002558151908152426020820152a180f35b50346100ec57816003193601126100ec576020906001549051908152f35b50346100ec57816003193601126100ec57905490516001600160a01b039091168152602090f35b50346100ec57816003193601126100ec576020906002549051908152f35b82346102035780600319360112610203576101c2610206565b80546001600160a01b03198116825581906001600160a01b03167f8be0079c531659141344cd1fd0a4f28419497f9722a3daafe3b4186f6b6457e08280a380f35b80fd5b6000546001600160a01b0316330361021a57565b60405163118cdaa760e01b8152336004820152602490fdfea26469706673582212207ef5a9c464715cff16e894ee8e869c20482d3a663a0bd6639d7fe5eb66ea319864736f6c63430008150033",
  "linkReferences": {},
  "deployedLinkReferences": {}
}