{"contracts/MockOracle.sol":{"MockOracle":{"abi":[{"inputs":[{"internalType":"uint256","name":"_initialPrice","type":"uint256"}],"stateMutability":"nonpayable","type":"constructor"},{"inputs":[],"name":"getPrice","outputs":[{"internalType":"uint256","name":"","type":"uint256"}],"stateMutability":"view","type":"function"},{"inputs":[],"name":"price","outputs":[{"internalType":"uint256","name":"","type":"uint256"}],"stateMutability":"view","type":"function"},{"inputs":[{"internalType":"uint256","name":"_newPrice","type":"uint256"}],"name":"updatePrice","outputs":[],"stateMutability":"nonpayable","type":"function"}],"evm":{"bytecode":{"linkReferences":{},"object":"60803461005057601f61013138819003918201601f19168301916001600160401b0383118484101761005557808492602094604052833981010312610050575160005560405160c5908161006c8239f35b600080fd5b634e487b7160e01b600052604160045260246000fdfe6080806040526004361015601257600080fd5b600090813560e01c9081638d6cc56d14607757816398d5fdca14605b575063a035b1fe14603e57600080fd5b346058578060031936011260585760209054604051908152f35b80fd5b90503460735781600319360112607357602091548152f35b5080fd5b82346058576020366003190112605857600435815580f3fea26469706673582212208658865faf2261b9fea0ced19b75b841a82e7344e33ae88c05dfe520b4e152fa64736f6c63430008150033","opcodes":"PUSH1 0x80 CALLVALUE PUSH2 0x50 JUMPI PUSH1 0x1F PUSH2 0x131 CODESIZE DUP2 SWAP1 SUB SWAP2 DUP3 ADD PUSH1 0x1F NOT AND DUP4 ADD SWAP2 PUSH1 0x1 PUSH1 0x1 PUSH1 0x40 SHL SUB DUP4 GT DUP5 DUP5 LT OR PUSH2 0x55 JUMPI DUP1 DUP5 SWAP3 PUSH1 0x20 SWAP5 PUSH1 0x40 MSTORE DUP4 CODECOPY DUP2 ADD SUB SLT PUSH2 0x50 JUMPI MLOAD PUSH1 0x0 SSTORE PUSH1 0x40 MLOAD PUSH1 0xC5 SWAP1 DUP2 PUSH2 0x6C DUP3 CODECOPY RETURN JUMPDEST PUSH1 0x0 DUP1 REVERT JUMPDEST PUSH4 0x4E487B71 PUSH1 0xE0 SHL PUSH1 0x0 MSTORE PUSH1 0x41 PUSH1 0x4 MSTORE PUSH1 0x24 PUSH1 0x0 REVERT INVALID PUSH1 0x80 DUP1 PUSH1 0x40 MSTORE PUSH1 0x4 CALLDATASIZE LT ISZERO PUSH1 0x12 JUMPI PUSH1 0x0 DUP1 REVERT JUMPDEST PUSH1 0x0 SWAP1 DUP2 CALLDATALOAD PUSH1 0xE0 SHR SWAP1 DUP2 PUSH4 0x8D6CC56D EQ PUSH1 0x77 JUMPI DUP2 PUSH4 0x98D5FDCA EQ PUSH1 0x5B JUMPI POP PUSH4 0xA035B1FE EQ PUSH1 0x3E JUMPI PUSH1 0x0 DUP1 REVERT JUMPDEST CALLVALUE PUSH1 0x58 JUMPI DUP1 PUSH1 0x3 NOT CALLDATASIZE ADD SLT PUSH1 0x58 JUMPI PUSH1 0x20 SWAP1 SLOAD PUSH1 0x40 MLOAD SWAP1 DUP2 MSTORE RETURN JUMPDEST DUP1 REVERT JUMPDEST SWAP1 POP CALLVALUE PUSH1 0x73 JUMPI DUP2 PUSH1 0x3 NOT CALLDATASIZE ADD SLT PUSH1 0x73 JUMPI PUSH1 0x20 SWAP2 SLOAD DUP2 MSTORE RETURN JUMPDEST POP DUP1 REVERT JUMPDEST DUP3 CALLVALUE PUSH1 0x58 JUMPI PUSH1 0x20 CALLDATASIZE PUSH1 0x3 NOT ADD SLT PUSH1 0x58 JUMPI PUSH1 0x4 CALLDATALOAD DUP2 SSTORE DUP1 RETURN INVALID LOG2 PUSH5 0x6970667358 0x22 SLT KECCAK256 DUP7 PC DUP7 PUSH0 0xAF 0x22 PUSH2 0xB9FE LOG0 0xCE 0xD1 SWAP12 PUSH22 0xB841A82E7344E33AE88C05DFE520B4E152FA64736F6C PUSH4 0x43000815 STOP CALLER "},"methodIdentifiers":{"getPrice()":"98d5fdca","price()":"a035b1fe","updatePrice(uint256)":"8d6cc56d"}}}}}