{"contracts/OracleSimulator.sol":{"OracleSimulator":{"abi":[{"inputs":[{"internalType":"address","name":"_bvixOracle","type":"address"},{"internalType":"address","name":"_evixOracle","type":"address"},{"internalType":"address","name":"initialOwner","type":"address"}],"stateMutability":"nonpayable","type":"constructor"},{"inputs":[{"internalType":"address","name":"owner","type":"address"}],"name":"OwnableInvalidOwner","type":"error"},{"inputs":[{"internalType":"address","name":"account","type":"address"}],"name":"OwnableUnauthorizedAccount","type":"error"},{"anonymous":false,"inputs":[{"indexed":true,"internalType":"string","name":"token","type":"string"},{"indexed":false,"internalType":"uint256","name":"newMeanPrice","type":"uint256"}],"name":"MeanPriceUpdated","type":"event"},{"anonymous":false,"inputs":[{"indexed":true,"internalType":"address","name":"previousOwner","type":"address"},{"indexed":true,"internalType":"address","name":"newOwner","type":"address"}],"name":"OwnershipTransferred","type":"event"},{"anonymous":false,"inputs":[{"indexed":true,"internalType":"string","name":"token","type":"string"},{"indexed":false,"internalType":"uint256","name":"oldPrice","type":"uint256"},{"indexed":false,"internalType":"uint256","name":"newPrice","type":"uint256"},{"indexed":false,"internalType":"uint256","name":"timestamp","type":"uint256"}],"name":"PriceUpdated","type":"event"},{"anonymous":false,"inputs":[{"indexed":false,"internalType":"bool","name":"active","type":"bool"}],"name":"SimulationToggled","type":"event"},{"inputs":[],"name":"BVIX_MAX_PRICE","outputs":[{"internalType":"uint256","name":"","type":"uint256"}],"stateMutability":"view","type":"function"},{"inputs":[],"name":"BVIX_MIN_PRICE","outputs":[{"internalType":"uint256","name":"","type":"uint256"}],"stateMutability":"view","type":"function"},{"inputs":[],"name":"EVIX_MAX_PRICE","outputs":[{"internalType":"uint256","name":"","type":"uint256"}],"stateMutability":"view","type":"function"},{"inputs":[],"name":"EVIX_MIN_PRICE","outputs":[{"internalType":"uint256","name":"","type":"uint256"}],"stateMutability":"view","type":"function"},{"inputs":[],"name":"MAX_MOVEMENT_BPS","outputs":[{"internalType":"uint256","name":"","type":"uint256"}],"stateMutability":"view","type":"function"},{"inputs":[],"name":"bvixMeanPrice","outputs":[{"internalType":"uint256","name":"","type":"uint256"}],"stateMutability":"view","type":"function"},{"inputs":[],"name":"bvixOracle","outputs":[{"internalType":"contract IOracle","name":"","type":"address"}],"stateMutability":"view","type":"function"},{"inputs":[],"name":"bvixVolatility","outputs":[{"internalType":"uint256","name":"","type":"uint256"}],"stateMutability":"view","type":"function"},{"inputs":[{"internalType":"uint256","name":"_bvixPrice","type":"uint256"},{"internalType":"uint256","name":"_evixPrice","type":"uint256"}],"name":"emergencyUpdatePrices","outputs":[],"stateMutability":"nonpayable","type":"function"},{"inputs":[],"name":"evixMeanPrice","outputs":[{"internalType":"uint256","name":"","type":"uint256"}],"stateMutability":"view","type":"function"},{"inputs":[],"name":"evixOracle","outputs":[{"internalType":"contract IEVIXOracle","name":"","type":"address"}],"stateMutability":"view","type":"function"},{"inputs":[],"name":"evixVolatility","outputs":[{"internalType":"uint256","name":"","type":"uint256"}],"stateMutability":"view","type":"function"},{"inputs":[],"name":"getSimulationStatus","outputs":[{"internalType":"bool","name":"active","type":"bool"},{"internalType":"uint256","name":"bvixPrice","type":"uint256"},{"internalType":"uint256","name":"evixPrice","type":"uint256"},{"internalType":"uint256","name":"lastUpdate","type":"uint256"},{"internalType":"uint256","name":"nextUpdateTime","type":"uint256"}],"stateMutability":"view","type":"function"},{"inputs":[],"name":"lastUpdateTime","outputs":[{"internalType":"uint256","name":"","type":"uint256"}],"stateMutability":"view","type":"function"},{"inputs":[],"name":"meanReversionStrength","outputs":[{"internalType":"uint256","name":"","type":"uint256"}],"stateMutability":"view","type":"function"},{"inputs":[],"name":"owner","outputs":[{"internalType":"address","name":"","type":"address"}],"stateMutability":"view","type":"function"},{"inputs":[],"name":"renounceOwnership","outputs":[],"stateMutability":"nonpayable","type":"function"},{"inputs":[{"internalType":"uint256","name":"_meanPrice","type":"uint256"}],"name":"setBvixMeanPrice","outputs":[],"stateMutability":"nonpayable","type":"function"},{"inputs":[{"internalType":"uint256","name":"_meanPrice","type":"uint256"}],"name":"setEvixMeanPrice","outputs":[],"stateMutability":"nonpayable","type":"function"},{"inputs":[{"internalType":"uint256","name":"_bvixVolatility","type":"uint256"},{"internalType":"uint256","name":"_evixVolatility","type":"uint256"},{"internalType":"uint256","name":"_meanReversionStrength","type":"uint256"}],"name":"setVolatilityParams","outputs":[],"stateMutability":"nonpayable","type":"function"},{"inputs":[],"name":"simulationActive","outputs":[{"internalType":"bool","name":"","type":"bool"}],"stateMutability":"view","type":"function"},{"inputs":[],"name":"startSimulation","outputs":[],"stateMutability":"nonpayable","type":"function"},{"inputs":[],"name":"stopSimulation","outputs":[],"stateMutability":"nonpayable","type":"function"},{"inputs":[{"internalType":"address","name":"newOwner","type":"address"}],"name":"transferOwnership","outputs":[],"stateMutability":"nonpayable","type":"function"},{"inputs":[],"name":"updatePrices","outputs":[],"stateMutability":"nonpayable","type":"function"}],"evm":{"bytecode":{"linkReferences":{},"object":"60803461011b57601f61141738819003918201601f19168301916001600160401b038311848410176101205780849260609460405283398101031261011b5761004781610136565b90604061005660208301610136565b916001600160a01b0391829161006c9101610136565b1691821561010257816000549460018060a01b03199480868816176000558260405197167f8be0079c531659141344cd1fd0a4f28419497f9722a3daafe3b4186f6b6457e0600080a363fa56ea0060035563e27f66006004556032600555603c600655601460075516836001541617600155169060025416176002554260085560ff19600954166009556112cc908161014b8239f35b604051631e4fbdf760e01b815260006004820152602490fd5b600080fd5b634e487b7160e01b600052604160045260246000fd5b51906001600160a01b038216820361011b5756fe608060408181526004908136101561001657600080fd5b600092833560e01c90816302a68f931461109e575080631baaab841461107f578063284a5d23146110565780633ae2b2f71461103757806349dd126214610aac5780634b9fdeac1461079f5780634c96366a14610776578063715018a61461071c5780637d3b9ab9146105ee5780638af8b8d51461059e5780638da5cb5b146105765780639683ba78146105575780639ef64d07146104ff578063a53b7fa814610472578063a58b6a0e14610453578063b540f3db14610433578063c10a09cf1461040f578063c8f33c91146103f0578063d057717414610363578063d432af4d14610344578063e242341114610230578063e3cfcdd014610214578063e4faac22146101f5578063f2d18ce5146101d15763f2fde38b1461013757600080fd5b346101cd5760203660031901126101cd576001600160a01b038235818116939192908490036101c9576101686110ba565b83156101b3575050600054826bffffffffffffffffffffffff60a01b821617600055167f8be0079c531659141344cd1fd0a4f28419497f9722a3daafe3b4186f6b6457e0600080a380f35b51631e4fbdf760e01b8152908101849052602490fd5b8480fd5b8280fd5b8382346101f157816003193601126101f1576020905164037e11d6008152f35b5080fd5b8382346101f157816003193601126101f1576020905163773594008152f35b8382346101f157816003193601126101f1576020905160648152f35b5090346101cd5760603660031901126101cd57803560243591604435936102556110ba565b60c883116103015760c884116102be576064851161027b57505060055560065560075580f35b906020606492519162461bcd60e51b8352820152601960248201527f4d65616e20726576657273696f6e20746f6f207374726f6e67000000000000006044820152fd5b906020606492519162461bcd60e51b8352820152601860248201527f4556495820766f6c6174696c69747920746f6f206869676800000000000000006044820152fd5b906020606492519162461bcd60e51b8352820152601860248201527f4256495820766f6c6174696c69747920746f6f206869676800000000000000006044820152fd5b8382346101f157816003193601126101f1576020906003549051908152f35b50346101cd5760203660031901126101cd5760207f16a73e7b23761a2084db728a9e4fc9b67e5e2438dec2f29e9121bfbd7e8e08b7916000805160206112578339815191529335906103b36110ba565b6359682f00821015806103e1575b6103ca90611215565b8160035563084ac92b60e31b81515251908152a280f35b5064037e11d6008211156103c1565b8382346101f157816003193601126101f1576020906008549051908152f35b8382346101f157816003193601126101f15760209060ff6009541690519015158152f35b8382346101f157816003193601126101f15760209051640430e234008152f35b8382346101f157816003193601126101f1576020906006549051908152f35b5090346101cd5760203660031901126101cd57602081600080516020611277833981519152937f16a73e7b23761a2084db728a9e4fc9b67e5e2438dec2f29e9121bfbd7e8e08b7933580926104c56110ba565b6377359400821015806104f0575b6104dc90611215565b556308aac92b60e31b81515251908152a280f35b50640430e234008211156104d3565b8382346101f157816003193601126101f15760207f48ddfa7495202a0165f1855a9be7cf1577342166c920f162d3a3d90aa9a2d5aa9161053d6110ba565b600160ff196009541617600955426008555160018152a180f35b8382346101f157816003193601126101f1576020906007549051908152f35b8382346101f157816003193601126101f157905490516001600160a01b039091168152602090f35b8382346101f157816003193601126101f15760207f48ddfa7495202a0165f1855a9be7cf1577342166c920f162d3a3d90aa9a2d5aa916105dc6110ba565b60ff196009541660095551838152a180f35b50823461071957806003193601126107195760ff600954169160018060a01b039081600154169080518093634c6afee560e11b93848352828960209788935afa91821561070f5790859187936106de575b5060025416938884518096819382525afa9283156106d45785936106a0575b5060085493603c85019586861161068d575060a097508251961515875286015284015260608301526080820152f35b634e487b7160e01b815260118952602490fd5b9092508381813d83116106cd575b6106b8818361112c565b810103126106c85751918761065e565b600080fd5b503d6106ae565b82513d87823e3d90fd5b8281939294503d8311610708575b6106f6818361112c565b810103126106c857849051918961063f565b503d6106ec565b83513d88823e3d90fd5b80fd5b83346107195780600319360112610719576107356110ba565b600080546001600160a01b0319811682556001600160a01b03167f8be0079c531659141344cd1fd0a4f28419497f9722a3daafe3b4186f6b6457e08280a380f35b8382346101f157816003193601126101f15760025490516001600160a01b039091168152602090f35b5090346101cd57816003193601126101cd5780356024356107be6110ba565b6359682f0082101580610a9d575b15610a5a57637735940081101580610a4b575b15610a08576001546001600160a01b03939086908516803b156101f1578180916024895180948193638d6cc56d60e01b83528a898401525af180156109ea576109f4575b508460025416803b156101f1578180916024895180948193636a60cded60e11b835289898401525af180156109ea576109d2575b505083600154168551948594634c6afee560e11b92838752868560209889935afa9687156109c8578997610985575b50875163084ac92b60e31b9052875196875260208701524260408701527fb9eff63454e8f3e7e3a0591926665ec3da6f4d9d4072630ddac1bb0b9836d5069585929190600080516020611257833981519152908890606090a2600254169287518094819382525afa92831561097b578693610939575b505083516308aac92b60e31b9052925190815260208101929092524260408301526000805160206112778339815191529180606081015b0390a280f35b9080959350813d8311610974575b610951818361112c565b810103126106c857610933600080516020611277833981519152945192946108fc565b503d610947565b85513d88823e3d90fd5b92919096508583813d83116109c1575b61099f818361112c565b810103126106c857915195909190600080516020611257833981519152610886565b503d610995565b88513d8b823e3d90fd5b6109db906110e6565b6109e6578538610857565b8580fd5b87513d84823e3d90fd5b6109fd906110e6565b6109e6578538610823565b835162461bcd60e51b8152602081850152601860248201527f45564958207072696365206f7574206f6620626f756e647300000000000000006044820152606490fd5b50640430e234008111156107df565b835162461bcd60e51b8152602081850152601860248201527f42564958207072696365206f7574206f6620626f756e647300000000000000006044820152606490fd5b5064037e11d6008211156107cc565b5090346101cd57826003193601126101cd5760ff6009541615610ffd57600854603c8101809111610fea574210610fb1576001548251634c6afee560e11b808252909290916001600160a01b039081169160209182868381875afa958615610f78578896610f82575b50828160025416958389518098819382525afa948515610f78578895610f45575b50600354600554600a5494600019929190838714610e9b5760018701928b51928284014281528d44908601528560608601523360601b9485608082015260748152610b8081611110565b5190208160011b9082820460021483151715610f31578115610f1d578f9293610bb38f9395610c0596610be99406611177565b90848482811115610eef57620186a09150610bd4610be393610bdd92611177565b6007549061114e565b04611184565b90611195565b918212610ed15761271091610bfd9161114e565b045b8b611195565b966359682f00808910610ec9575b5064037e11d600808911610ec1575b508654946006549414610eae576002019182600a558b5191820192428452448d8401526060830152608082015260748152610c5c81611110565b5190208160011b9082820460021483151715610e9b578115610e885792610c8c610cc993610cad938e9606611177565b90848a82811115610e5957620186a09150610bd4610be393610bdd92611177565b828112610e3c57610cc1612710918961114e565b045b87611195565b936377359400808610610e34575b50640430e23400808611610e2a575b50610cf4610cfb91896111b1565b94876111b1565b94803b156101f157819060248a5180948193638d6cc56d60e01b835289898401525af180156109c857610e15575b509087916002541690813b156101cd578460248492838b519586948593636a60cded60e11b85528401525af180156109ea57610e01575b505060008051602061127783398151915294600080516020611257833981519152610933924260085563084ac92b60e31b835152825180610dd77fb9eff63454e8f3e7e3a0591926665ec3da6f4d9d4072630ddac1bb0b9836d506998a944291846040919493926060820195825260208201520152565b0390a280516308aac92b60e31b905251928352602083019190915242604083015281906060820190565b610e0a906110e6565b6109e6578538610d60565b610e2290989192986110e6565b969038610d29565b9450610cf4610ce6565b945038610cd7565b612710610bdd610e4e610e5493611184565b8a61114e565b610cc3565b909291808210610e6b575b5050611195565b620186a0929350610e7f91610bd491611177565b04908938610e64565b634e487b7160e01b8c526012865260248cfd5b634e487b7160e01b8c526011865260248cfd5b634e487b7160e01b8d526011875260248dfd5b975038610c22565b975038610c13565b610bdd61271091610ee4610eea94611184565b9061114e565b610bff565b909291808210610f00575050611195565b620186a0929350610f1491610bd491611177565b04908338610e64565b50634e487b7160e01b8f526012895260248ffd5b50634e487b7160e01b8f526011895260248ffd5b9094508281813d8311610f71575b610f5d818361112c565b81010312610f6d57519338610b36565b8780fd5b503d610f53565b87513d8a823e3d90fd5b9095508281813d8311610faa575b610f9a818361112c565b81010312610f6d57519438610b15565b503d610f90565b6020606492519162461bcd60e51b83528201526014602482015273546f6f206672657175656e74207570646174657360601b6044820152fd5b634e487b7160e01b845260118252602484fd5b6020606492519162461bcd60e51b8352820152601560248201527453696d756c6174696f6e206e6f742061637469766560581b6044820152fd5b8382346101f157816003193601126101f157602090516359682f008152f35b8382346101f157816003193601126101f15760015490516001600160a01b039091168152602090f35b8382346101f157816003193601126101f1576020906005549051908152f35b849084346101cd57826003193601126101cd5760209250548152f35b6000546001600160a01b031633036110ce57565b60405163118cdaa760e01b8152336004820152602490fd5b67ffffffffffffffff81116110fa57604052565b634e487b7160e01b600052604160045260246000fd5b60a0810190811067ffffffffffffffff8211176110fa57604052565b90601f8019910116810190811067ffffffffffffffff8211176110fa57604052565b8181029291811591840414171561116157565b634e487b7160e01b600052601160045260246000fd5b9190820391821161116157565b600160ff1b81146111615760000390565b9190916000838201938412911290801582169115161761116157565b6064810281810460641482151715611161576127109004818311156111f257806111db8385611177565b116111e557505090565b8101915081106111615790565b90816111fe8483611177565b1161120857505090565b6112129250611177565b90565b1561121c57565b60405162461bcd60e51b8152602060048201526012602482015271496e76616c6964206d65616e20707269636560701b6044820152606490fdfed31dc401cc20f9f788514c4d2fad46889824c21ff3e679c43c9770b3b4b3bd52f852f64739c79113305c1f1dbb665a0196b646c6784356e2f282e6074357ec16a2646970667358221220948c300632aec4c0a3e93e4c02458db8c19639722083aee9f258209679fa77bd64736f6c63430008150033","opcodes":"PUSH1 0x80 CALLVALUE PUSH2 0x11B JUMPI PUSH1 0x1F PUSH2 0x1417 CODESIZE DUP2 SWAP1 SUB SWAP2 DUP3 ADD PUSH1 0x1F NOT AND DUP4 ADD SWAP2 PUSH1 0x1 PUSH1 0x1 PUSH1 0x40 SHL SUB DUP4 GT DUP5 DUP5 LT OR PUSH2 0x120 JUMPI DUP1 DUP5 SWAP3 PUSH1 0x60 SWAP5 PUSH1 0x40 MSTORE DUP4 CODECOPY DUP2 ADD SUB SLT PUSH2 0x11B JUMPI PUSH2 0x47 DUP2 PUSH2 0x136 JUMP JUMPDEST SWAP1 PUSH1 0x40 PUSH2 0x56 PUSH1 0x20 DUP4 ADD PUSH2 0x136 JUMP JUMPDEST SWAP2 PUSH1 0x1 PUSH1 0x1 PUSH1 0xA0 SHL SUB SWAP2 DUP3 SWAP2 PUSH2 0x6C SWAP2 ADD PUSH2 0x136 JUMP JUMPDEST AND SWAP2 DUP3 ISZERO PUSH2 0x102 JUMPI DUP2 PUSH1 0x0 SLOAD SWAP5 PUSH1 0x1 DUP1 PUSH1 0xA0 SHL SUB NOT SWAP5 DUP1 DUP7 DUP9 AND OR PUSH1 0x0 SSTORE DUP3 PUSH1 0x40 MLOAD SWAP8 AND PUSH32 0x8BE0079C531659141344CD1FD0A4F28419497F9722A3DAAFE3B4186F6B6457E0 PUSH1 0x0 DUP1 LOG3 PUSH4 0xFA56EA00 PUSH1 0x3 SSTORE PUSH4 0xE27F6600 PUSH1 0x4 SSTORE PUSH1 0x32 PUSH1 0x5 SSTORE PUSH1 0x3C PUSH1 0x6 SSTORE PUSH1 0x14 PUSH1 0x7 SSTORE AND DUP4 PUSH1 0x1 SLOAD AND OR PUSH1 0x1 SSTORE AND SWAP1 PUSH1 0x2 SLOAD AND OR PUSH1 0x2 SSTORE TIMESTAMP PUSH1 0x8 SSTORE PUSH1 0xFF NOT PUSH1 0x9 SLOAD AND PUSH1 0x9 SSTORE PUSH2 0x12CC SWAP1 DUP2 PUSH2 0x14B DUP3 CODECOPY RETURN JUMPDEST PUSH1 0x40 MLOAD PUSH4 0x1E4FBDF7 PUSH1 0xE0 SHL DUP2 MSTORE PUSH1 0x0 PUSH1 0x4 DUP3 ADD MSTORE PUSH1 0x24 SWAP1 REVERT JUMPDEST PUSH1 0x0 DUP1 REVERT JUMPDEST PUSH4 0x4E487B71 PUSH1 0xE0 SHL PUSH1 0x0 MSTORE PUSH1 0x41 PUSH1 0x4 MSTORE PUSH1 0x24 PUSH1 0x0 REVERT JUMPDEST MLOAD SWAP1 PUSH1 0x1 PUSH1 0x1 PUSH1 0xA0 SHL SUB DUP3 AND DUP3 SUB PUSH2 0x11B JUMPI JUMP INVALID PUSH1 0x80 PUSH1 0x40 DUP2 DUP2 MSTORE PUSH1 0x4 SWAP1 DUP2 CALLDATASIZE LT ISZERO PUSH2 0x16 JUMPI PUSH1 0x0 DUP1 REVERT JUMPDEST PUSH1 0x0 SWAP3 DUP4 CALLDATALOAD PUSH1 0xE0 SHR SWAP1 DUP2 PUSH4 0x2A68F93 EQ PUSH2 0x109E JUMPI POP DUP1 PUSH4 0x1BAAAB84 EQ PUSH2 0x107F JUMPI DUP1 PUSH4 0x284A5D23 EQ PUSH2 0x1056 JUMPI DUP1 PUSH4 0x3AE2B2F7 EQ PUSH2 0x1037 JUMPI DUP1 PUSH4 0x49DD1262 EQ PUSH2 0xAAC JUMPI DUP1 PUSH4 0x4B9FDEAC EQ PUSH2 0x79F JUMPI DUP1 PUSH4 0x4C96366A EQ PUSH2 0x776 JUMPI DUP1 PUSH4 0x715018A6 EQ PUSH2 0x71C JUMPI DUP1 PUSH4 0x7D3B9AB9 EQ PUSH2 0x5EE JUMPI DUP1 PUSH4 0x8AF8B8D5 EQ PUSH2 0x59E JUMPI DUP1 PUSH4 0x8DA5CB5B EQ PUSH2 0x576 JUMPI DUP1 PUSH4 0x9683BA78 EQ PUSH2 0x557 JUMPI DUP1 PUSH4 0x9EF64D07 EQ PUSH2 0x4FF JUMPI DUP1 PUSH4 0xA53B7FA8 EQ PUSH2 0x472 JUMPI DUP1 PUSH4 0xA58B6A0E EQ PUSH2 0x453 JUMPI DUP1 PUSH4 0xB540F3DB EQ PUSH2 0x433 JUMPI DUP1 PUSH4 0xC10A09CF EQ PUSH2 0x40F JUMPI DUP1 PUSH4 0xC8F33C91 EQ PUSH2 0x3F0 JUMPI DUP1 PUSH4 0xD0577174 EQ PUSH2 0x363 JUMPI DUP1 PUSH4 0xD432AF4D EQ PUSH2 0x344 JUMPI DUP1 PUSH4 0xE2423411 EQ PUSH2 0x230 JUMPI DUP1 PUSH4 0xE3CFCDD0 EQ PUSH2 0x214 JUMPI DUP1 PUSH4 0xE4FAAC22 EQ PUSH2 0x1F5 JUMPI DUP1 PUSH4 0xF2D18CE5 EQ PUSH2 0x1D1 JUMPI PUSH4 0xF2FDE38B EQ PUSH2 0x137 JUMPI PUSH1 0x0 DUP1 REVERT JUMPDEST CALLVALUE PUSH2 0x1CD JUMPI PUSH1 0x20 CALLDATASIZE PUSH1 0x3 NOT ADD SLT PUSH2 0x1CD JUMPI PUSH1 0x1 PUSH1 0x1 PUSH1 0xA0 SHL SUB DUP3 CALLDATALOAD DUP2 DUP2 AND SWAP4 SWAP2 SWAP3 SWAP1 DUP5 SWAP1 SUB PUSH2 0x1C9 JUMPI PUSH2 0x168 PUSH2 0x10BA JUMP JUMPDEST DUP4 ISZERO PUSH2 0x1B3 JUMPI POP POP PUSH1 0x0 SLOAD DUP3 PUSH12 0xFFFFFFFFFFFFFFFFFFFFFFFF PUSH1 0xA0 SHL DUP3 AND OR PUSH1 0x0 SSTORE AND PUSH32 0x8BE0079C531659141344CD1FD0A4F28419497F9722A3DAAFE3B4186F6B6457E0 PUSH1 0x0 DUP1 LOG3 DUP1 RETURN JUMPDEST MLOAD PUSH4 0x1E4FBDF7 PUSH1 0xE0 SHL DUP2 MSTORE SWAP1 DUP2 ADD DUP5 SWAP1 MSTORE PUSH1 0x24 SWAP1 REVERT JUMPDEST DUP5 DUP1 REVERT JUMPDEST DUP3 DUP1 REVERT JUMPDEST DUP4 DUP3 CALLVALUE PUSH2 0x1F1 JUMPI DUP2 PUSH1 0x3 NOT CALLDATASIZE ADD SLT PUSH2 0x1F1 JUMPI PUSH1 0x20 SWAP1 MLOAD PUSH5 0x37E11D600 DUP2 MSTORE RETURN JUMPDEST POP DUP1 REVERT JUMPDEST DUP4 DUP3 CALLVALUE PUSH2 0x1F1 JUMPI DUP2 PUSH1 0x3 NOT CALLDATASIZE ADD SLT PUSH2 0x1F1 JUMPI PUSH1 0x20 SWAP1 MLOAD PUSH4 0x77359400 DUP2 MSTORE RETURN JUMPDEST DUP4 DUP3 CALLVALUE PUSH2 0x1F1 JUMPI DUP2 PUSH1 0x3 NOT CALLDATASIZE ADD SLT PUSH2 0x1F1 JUMPI PUSH1 0x20 SWAP1 MLOAD PUSH1 0x64 DUP2 MSTORE RETURN JUMPDEST POP SWAP1 CALLVALUE PUSH2 0x1CD JUMPI PUSH1 0x60 CALLDATASIZE PUSH1 0x3 NOT ADD SLT PUSH2 0x1CD JUMPI DUP1 CALLDATALOAD PUSH1 0x24 CALLDATALOAD SWAP2 PUSH1 0x44 CALLDATALOAD SWAP4 PUSH2 0x255 PUSH2 0x10BA JUMP JUMPDEST PUSH1 0xC8 DUP4 GT PUSH2 0x301 JUMPI PUSH1 0xC8 DUP5 GT PUSH2 0x2BE JUMPI PUSH1 0x64 DUP6 GT PUSH2 0x27B JUMPI POP POP PUSH1 0x5 SSTORE PUSH1 0x6 SSTORE PUSH1 0x7 SSTORE DUP1 RETURN JUMPDEST SWAP1 PUSH1 0x20 PUSH1 0x64 SWAP3 MLOAD SWAP2 PUSH3 0x461BCD PUSH1 0xE5 SHL DUP4 MSTORE DUP3 ADD MSTORE PUSH1 0x19 PUSH1 0x24 DUP3 ADD MSTORE PUSH32 0x4D65616E20726576657273696F6E20746F6F207374726F6E6700000000000000 PUSH1 0x44 DUP3 ADD MSTORE REVERT JUMPDEST SWAP1 PUSH1 0x20 PUSH1 0x64 SWAP3 MLOAD SWAP2 PUSH3 0x461BCD PUSH1 0xE5 SHL DUP4 MSTORE DUP3 ADD MSTORE PUSH1 0x18 PUSH1 0x24 DUP3 ADD MSTORE PUSH32 0x4556495820766F6C6174696C69747920746F6F20686967680000000000000000 PUSH1 0x44 DUP3 ADD MSTORE REVERT JUMPDEST SWAP1 PUSH1 0x20 PUSH1 0x64 SWAP3 MLOAD SWAP2 PUSH3 0x461BCD PUSH1 0xE5 SHL DUP4 MSTORE DUP3 ADD MSTORE PUSH1 0x18 PUSH1 0x24 DUP3 ADD MSTORE PUSH32 0x4256495820766F6C6174696C69747920746F6F20686967680000000000000000 PUSH1 0x44 DUP3 ADD MSTORE REVERT JUMPDEST DUP4 DUP3 CALLVALUE PUSH2 0x1F1 JUMPI DUP2 PUSH1 0x3 NOT CALLDATASIZE ADD SLT PUSH2 0x1F1 JUMPI PUSH1 0x20 SWAP1 PUSH1 0x3 SLOAD SWAP1 MLOAD SWAP1 DUP2 MSTORE RETURN JUMPDEST POP CALLVALUE PUSH2 0x1CD JUMPI PUSH1 0x20 CALLDATASIZE PUSH1 0x3 NOT ADD SLT PUSH2 0x1CD JUMPI PUSH1 0x20 PUSH32 0x16A73E7B23761A2084DB728A9E4FC9B67E5E2438DEC2F29E9121BFBD7E8E08B7 SWAP2 PUSH1 0x0 DUP1 MLOAD PUSH1 0x20 PUSH2 0x1257 DUP4 CODECOPY DUP2 MLOAD SWAP2 MSTORE SWAP4 CALLDATALOAD SWAP1 PUSH2 0x3B3 PUSH2 0x10BA JUMP JUMPDEST PUSH4 0x59682F00 DUP3 LT ISZERO DUP1 PUSH2 0x3E1 JUMPI JUMPDEST PUSH2 0x3CA SWAP1 PUSH2 0x1215 JUMP JUMPDEST DUP2 PUSH1 0x3 SSTORE PUSH4 0x84AC92B PUSH1 0xE3 SHL DUP2 MLOAD MSTORE MLOAD SWAP1 DUP2 MSTORE LOG2 DUP1 RETURN JUMPDEST POP PUSH5 0x37E11D600 DUP3 GT ISZERO PUSH2 0x3C1 JUMP JUMPDEST DUP4 DUP3 CALLVALUE PUSH2 0x1F1 JUMPI DUP2 PUSH1 0x3 NOT CALLDATASIZE ADD SLT PUSH2 0x1F1 JUMPI PUSH1 0x20 SWAP1 PUSH1 0x8 SLOAD SWAP1 MLOAD SWAP1 DUP2 MSTORE RETURN JUMPDEST DUP4 DUP3 CALLVALUE PUSH2 0x1F1 JUMPI DUP2 PUSH1 0x3 NOT CALLDATASIZE ADD SLT PUSH2 0x1F1 JUMPI PUSH1 0x20 SWAP1 PUSH1 0xFF PUSH1 0x9 SLOAD AND SWAP1 MLOAD SWAP1 ISZERO ISZERO DUP2 MSTORE RETURN JUMPDEST DUP4 DUP3 CALLVALUE PUSH2 0x1F1 JUMPI DUP2 PUSH1 0x3 NOT CALLDATASIZE ADD SLT PUSH2 0x1F1 JUMPI PUSH1 0x20 SWAP1 MLOAD PUSH5 0x430E23400 DUP2 MSTORE RETURN JUMPDEST DUP4 DUP3 CALLVALUE PUSH2 0x1F1 JUMPI DUP2 PUSH1 0x3 NOT CALLDATASIZE ADD SLT PUSH2 0x1F1 JUMPI PUSH1 0x20 SWAP1 PUSH1 0x6 SLOAD SWAP1 MLOAD SWAP1 DUP2 MSTORE RETURN JUMPDEST POP SWAP1 CALLVALUE PUSH2 0x1CD JUMPI PUSH1 0x20 CALLDATASIZE PUSH1 0x3 NOT ADD SLT PUSH2 0x1CD JUMPI PUSH1 0x20 DUP2 PUSH1 0x0 DUP1 MLOAD PUSH1 0x20 PUSH2 0x1277 DUP4 CODECOPY DUP2 MLOAD SWAP2 MSTORE SWAP4 PUSH32 0x16A73E7B23761A2084DB728A9E4FC9B67E5E2438DEC2F29E9121BFBD7E8E08B7 SWAP4 CALLDATALOAD DUP1 SWAP3 PUSH2 0x4C5 PUSH2 0x10BA JUMP JUMPDEST PUSH4 0x77359400 DUP3 LT ISZERO DUP1 PUSH2 0x4F0 JUMPI JUMPDEST PUSH2 0x4DC SWAP1 PUSH2 0x1215 JUMP JUMPDEST SSTORE PUSH4 0x8AAC92B PUSH1 0xE3 SHL DUP2 MLOAD MSTORE MLOAD SWAP1 DUP2 MSTORE LOG2 DUP1 RETURN JUMPDEST POP PUSH5 0x430E23400 DUP3 GT ISZERO PUSH2 0x4D3 JUMP JUMPDEST DUP4 DUP3 CALLVALUE PUSH2 0x1F1 JUMPI DUP2 PUSH1 0x3 NOT CALLDATASIZE ADD SLT PUSH2 0x1F1 JUMPI PUSH1 0x20 PUSH32 0x48DDFA7495202A0165F1855A9BE7CF1577342166C920F162D3A3D90AA9A2D5AA SWAP2 PUSH2 0x53D PUSH2 0x10BA JUMP JUMPDEST PUSH1 0x1 PUSH1 0xFF NOT PUSH1 0x9 SLOAD AND OR PUSH1 0x9 SSTORE TIMESTAMP PUSH1 0x8 SSTORE MLOAD PUSH1 0x1 DUP2 MSTORE LOG1 DUP1 RETURN JUMPDEST DUP4 DUP3 CALLVALUE PUSH2 0x1F1 JUMPI DUP2 PUSH1 0x3 NOT CALLDATASIZE ADD SLT PUSH2 0x1F1 JUMPI PUSH1 0x20 SWAP1 PUSH1 0x7 SLOAD SWAP1 MLOAD SWAP1 DUP2 MSTORE RETURN JUMPDEST DUP4 DUP3 CALLVALUE PUSH2 0x1F1 JUMPI DUP2 PUSH1 0x3 NOT CALLDATASIZE ADD SLT PUSH2 0x1F1 JUMPI SWAP1 SLOAD SWAP1 MLOAD PUSH1 0x1 PUSH1 0x1 PUSH1 0xA0 SHL SUB SWAP1 SWAP2 AND DUP2 MSTORE PUSH1 0x20 SWAP1 RETURN JUMPDEST DUP4 DUP3 CALLVALUE PUSH2 0x1F1 JUMPI DUP2 PUSH1 0x3 NOT CALLDATASIZE ADD SLT PUSH2 0x1F1 JUMPI PUSH1 0x20 PUSH32 0x48DDFA7495202A0165F1855A9BE7CF1577342166C920F162D3A3D90AA9A2D5AA SWAP2 PUSH2 0x5DC PUSH2 0x10BA JUMP JUMPDEST PUSH1 0xFF NOT PUSH1 0x9 SLOAD AND PUSH1 0x9 SSTORE MLOAD DUP4 DUP2 MSTORE LOG1 DUP1 RETURN JUMPDEST POP DUP3 CALLVALUE PUSH2 0x719 JUMPI DUP1 PUSH1 0x3 NOT CALLDATASIZE ADD SLT PUSH2 0x719 JUMPI PUSH1 0xFF PUSH1 0x9 SLOAD AND SWAP2 PUSH1 0x1 DUP1 PUSH1 0xA0 SHL SUB SWAP1 DUP2 PUSH1 0x1 SLOAD AND SWAP1 DUP1 MLOAD DUP1 SWAP4 PUSH4 0x4C6AFEE5 PUSH1 0xE1 SHL SWAP4 DUP5 DUP4 MSTORE DUP3 DUP10 PUSH1 0x20 SWAP8 DUP9 SWAP4 GAS STATICCALL SWAP2 DUP3 ISZERO PUSH2 0x70F JUMPI SWAP1 DUP6 SWAP2 DUP8 SWAP4 PUSH2 0x6DE JUMPI JUMPDEST POP PUSH1 0x2 SLOAD AND SWAP4 DUP9 DUP5 MLOAD DUP1 SWAP7 DUP2 SWAP4 DUP3 MSTORE GAS STATICCALL SWAP3 DUP4 ISZERO PUSH2 0x6D4 JUMPI DUP6 SWAP4 PUSH2 0x6A0 JUMPI JUMPDEST POP PUSH1 0x8 SLOAD SWAP4 PUSH1 0x3C DUP6 ADD SWAP6 DUP7 DUP7 GT PUSH2 0x68D JUMPI POP PUSH1 0xA0 SWAP8 POP DUP3 MLOAD SWAP7 ISZERO ISZERO DUP8 MSTORE DUP7 ADD MSTORE DUP5 ADD MSTORE PUSH1 0x60 DUP4 ADD MSTORE PUSH1 0x80 DUP3 ADD MSTORE RETURN JUMPDEST PUSH4 0x4E487B71 PUSH1 0xE0 SHL DUP2 MSTORE PUSH1 0x11 DUP10 MSTORE PUSH1 0x24 SWAP1 REVERT JUMPDEST SWAP1 SWAP3 POP DUP4 DUP2 DUP2 RETURNDATASIZE DUP4 GT PUSH2 0x6CD JUMPI JUMPDEST PUSH2 0x6B8 DUP2 DUP4 PUSH2 0x112C JUMP JUMPDEST DUP2 ADD SUB SLT PUSH2 0x6C8 JUMPI MLOAD SWAP2 DUP8 PUSH2 0x65E JUMP JUMPDEST PUSH1 0x0 DUP1 REVERT JUMPDEST POP RETURNDATASIZE PUSH2 0x6AE JUMP JUMPDEST DUP3 MLOAD RETURNDATASIZE DUP8 DUP3 RETURNDATACOPY RETURNDATASIZE SWAP1 REVERT JUMPDEST DUP3 DUP2 SWAP4 SWAP3 SWAP5 POP RETURNDATASIZE DUP4 GT PUSH2 0x708 JUMPI JUMPDEST PUSH2 0x6F6 DUP2 DUP4 PUSH2 0x112C JUMP JUMPDEST DUP2 ADD SUB SLT PUSH2 0x6C8 JUMPI DUP5 SWAP1 MLOAD SWAP2 DUP10 PUSH2 0x63F JUMP JUMPDEST POP RETURNDATASIZE PUSH2 0x6EC JUMP JUMPDEST DUP4 MLOAD RETURNDATASIZE DUP9 DUP3 RETURNDATACOPY RETURNDATASIZE SWAP1 REVERT JUMPDEST DUP1 REVERT JUMPDEST DUP4 CALLVALUE PUSH2 0x719 JUMPI DUP1 PUSH1 0x3 NOT CALLDATASIZE ADD SLT PUSH2 0x719 JUMPI PUSH2 0x735 PUSH2 0x10BA JUMP JUMPDEST PUSH1 0x0 DUP1 SLOAD PUSH1 0x1 PUSH1 0x1 PUSH1 0xA0 SHL SUB NOT DUP2 AND DUP3 SSTORE PUSH1 0x1 PUSH1 0x1 PUSH1 0xA0 SHL SUB AND PUSH32 0x8BE0079C531659141344CD1FD0A4F28419497F9722A3DAAFE3B4186F6B6457E0 DUP3 DUP1 LOG3 DUP1 RETURN JUMPDEST DUP4 DUP3 CALLVALUE PUSH2 0x1F1 JUMPI DUP2 PUSH1 0x3 NOT CALLDATASIZE ADD SLT PUSH2 0x1F1 JUMPI PUSH1 0x2 SLOAD SWAP1 MLOAD PUSH1 0x1 PUSH1 0x1 PUSH1 0xA0 SHL SUB SWAP1 SWAP2 AND DUP2 MSTORE PUSH1 0x20 SWAP1 RETURN JUMPDEST POP SWAP1 CALLVALUE PUSH2 0x1CD JUMPI DUP2 PUSH1 0x3 NOT CALLDATASIZE ADD SLT PUSH2 0x1CD JUMPI DUP1 CALLDATALOAD PUSH1 0x24 CALLDATALOAD PUSH2 0x7BE PUSH2 0x10BA JUMP JUMPDEST PUSH4 0x59682F00 DUP3 LT ISZERO DUP1 PUSH2 0xA9D JUMPI JUMPDEST ISZERO PUSH2 0xA5A JUMPI PUSH4 0x77359400 DUP2 LT ISZERO DUP1 PUSH2 0xA4B JUMPI JUMPDEST ISZERO PUSH2 0xA08 JUMPI PUSH1 0x1 SLOAD PUSH1 0x1 PUSH1 0x1 PUSH1 0xA0 SHL SUB SWAP4 SWAP1 DUP7 SWAP1 DUP6 AND DUP1 EXTCODESIZE ISZERO PUSH2 0x1F1 JUMPI DUP2 DUP1 SWAP2 PUSH1 0x24 DUP10 MLOAD DUP1 SWAP5 DUP2 SWAP4 PUSH4 0x8D6CC56D PUSH1 0xE0 SHL DUP4 MSTORE DUP11 DUP10 DUP5 ADD MSTORE GAS CALL DUP1 ISZERO PUSH2 0x9EA JUMPI PUSH2 0x9F4 JUMPI JUMPDEST POP DUP5 PUSH1 0x2 SLOAD AND DUP1 EXTCODESIZE ISZERO PUSH2 0x1F1 JUMPI DUP2 DUP1 SWAP2 PUSH1 0x24 DUP10 MLOAD DUP1 SWAP5 DUP2 SWAP4 PUSH4 0x6A60CDED PUSH1 0xE1 SHL DUP4 MSTORE DUP10 DUP10 DUP5 ADD MSTORE GAS CALL DUP1 ISZERO PUSH2 0x9EA JUMPI PUSH2 0x9D2 JUMPI JUMPDEST POP POP DUP4 PUSH1 0x1 SLOAD AND DUP6 MLOAD SWAP5 DUP6 SWAP5 PUSH4 0x4C6AFEE5 PUSH1 0xE1 SHL SWAP3 DUP4 DUP8 MSTORE DUP7 DUP6 PUSH1 0x20 SWAP9 DUP10 SWAP4 GAS STATICCALL SWAP7 DUP8 ISZERO PUSH2 0x9C8 JUMPI DUP10 SWAP8 PUSH2 0x985 JUMPI JUMPDEST POP DUP8 MLOAD PUSH4 0x84AC92B PUSH1 0xE3 SHL SWAP1 MSTORE DUP8 MLOAD SWAP7 DUP8 MSTORE PUSH1 0x20 DUP8 ADD MSTORE TIMESTAMP PUSH1 0x40 DUP8 ADD MSTORE PUSH32 0xB9EFF63454E8F3E7E3A0591926665EC3DA6F4D9D4072630DDAC1BB0B9836D506 SWAP6 DUP6 SWAP3 SWAP2 SWAP1 PUSH1 0x0 DUP1 MLOAD PUSH1 0x20 PUSH2 0x1257 DUP4 CODECOPY DUP2 MLOAD SWAP2 MSTORE SWAP1 DUP9 SWAP1 PUSH1 0x60 SWAP1 LOG2 PUSH1 0x2 SLOAD AND SWAP3 DUP8 MLOAD DUP1 SWAP5 DUP2 SWAP4 DUP3 MSTORE GAS STATICCALL SWAP3 DUP4 ISZERO PUSH2 0x97B JUMPI DUP7 SWAP4 PUSH2 0x939 JUMPI JUMPDEST POP POP DUP4 MLOAD PUSH4 0x8AAC92B PUSH1 0xE3 SHL SWAP1 MSTORE SWAP3 MLOAD SWAP1 DUP2 MSTORE PUSH1 0x20 DUP2 ADD SWAP3 SWAP1 SWAP3 MSTORE TIMESTAMP PUSH1 0x40 DUP4 ADD MSTORE PUSH1 0x0 DUP1 MLOAD PUSH1 0x20 PUSH2 0x1277 DUP4 CODECOPY DUP2 MLOAD SWAP2 MSTORE SWAP2 DUP1 PUSH1 0x60 DUP2 ADD JUMPDEST SUB SWAP1 LOG2 DUP1 RETURN JUMPDEST SWAP1 DUP1 SWAP6 SWAP4 POP DUP2 RETURNDATASIZE DUP4 GT PUSH2 0x974 JUMPI JUMPDEST PUSH2 0x951 DUP2 DUP4 PUSH2 0x112C JUMP JUMPDEST DUP2 ADD SUB SLT PUSH2 0x6C8 JUMPI PUSH2 0x933 PUSH1 0x0 DUP1 MLOAD PUSH1 0x20 PUSH2 0x1277 DUP4 CODECOPY DUP2 MLOAD SWAP2 MSTORE SWAP5 MLOAD SWAP3 SWAP5 PUSH2 0x8FC JUMP JUMPDEST POP RETURNDATASIZE PUSH2 0x947 JUMP JUMPDEST DUP6 MLOAD RETURNDATASIZE DUP9 DUP3 RETURNDATACOPY RETURNDATASIZE SWAP1 REVERT JUMPDEST SWAP3 SWAP2 SWAP1 SWAP7 POP DUP6 DUP4 DUP2 RETURNDATASIZE DUP4 GT PUSH2 0x9C1 JUMPI JUMPDEST PUSH2 0x99F DUP2 DUP4 PUSH2 0x112C JUMP JUMPDEST DUP2 ADD SUB SLT PUSH2 0x6C8 JUMPI SWAP2 MLOAD SWAP6 SWAP1 SWAP2 SWAP1 PUSH1 0x0 DUP1 MLOAD PUSH1 0x20 PUSH2 0x1257 DUP4 CODECOPY DUP2 MLOAD SWAP2 MSTORE PUSH2 0x886 JUMP JUMPDEST POP RETURNDATASIZE PUSH2 0x995 JUMP JUMPDEST DUP9 MLOAD RETURNDATASIZE DUP12 DUP3 RETURNDATACOPY RETURNDATASIZE SWAP1 REVERT JUMPDEST PUSH2 0x9DB SWAP1 PUSH2 0x10E6 JUMP JUMPDEST PUSH2 0x9E6 JUMPI DUP6 CODESIZE PUSH2 0x857 JUMP JUMPDEST DUP6 DUP1 REVERT JUMPDEST DUP8 MLOAD RETURNDATASIZE DUP5 DUP3 RETURNDATACOPY RETURNDATASIZE SWAP1 REVERT JUMPDEST PUSH2 0x9FD SWAP1 PUSH2 0x10E6 JUMP JUMPDEST PUSH2 0x9E6 JUMPI DUP6 CODESIZE PUSH2 0x823 JUMP JUMPDEST DUP4 MLOAD PUSH3 0x461BCD PUSH1 0xE5 SHL DUP2 MSTORE PUSH1 0x20 DUP2 DUP6 ADD MSTORE PUSH1 0x18 PUSH1 0x24 DUP3 ADD MSTORE PUSH32 0x45564958207072696365206F7574206F6620626F756E64730000000000000000 PUSH1 0x44 DUP3 ADD MSTORE PUSH1 0x64 SWAP1 REVERT JUMPDEST POP PUSH5 0x430E23400 DUP2 GT ISZERO PUSH2 0x7DF JUMP JUMPDEST DUP4 MLOAD PUSH3 0x461BCD PUSH1 0xE5 SHL DUP2 MSTORE PUSH1 0x20 DUP2 DUP6 ADD MSTORE PUSH1 0x18 PUSH1 0x24 DUP3 ADD MSTORE PUSH32 0x42564958207072696365206F7574206F6620626F756E64730000000000000000 PUSH1 0x44 DUP3 ADD MSTORE PUSH1 0x64 SWAP1 REVERT JUMPDEST POP PUSH5 0x37E11D600 DUP3 GT ISZERO PUSH2 0x7CC JUMP JUMPDEST POP SWAP1 CALLVALUE PUSH2 0x1CD JUMPI DUP3 PUSH1 0x3 NOT CALLDATASIZE ADD SLT PUSH2 0x1CD JUMPI PUSH1 0xFF PUSH1 0x9 SLOAD AND ISZERO PUSH2 0xFFD JUMPI PUSH1 0x8 SLOAD PUSH1 0x3C DUP2 ADD DUP1 SWAP2 GT PUSH2 0xFEA JUMPI TIMESTAMP LT PUSH2 0xFB1 JUMPI PUSH1 0x1 SLOAD DUP3 MLOAD PUSH4 0x4C6AFEE5 PUSH1 0xE1 SHL DUP1 DUP3 MSTORE SWAP1 SWAP3 SWAP1 SWAP2 PUSH1 0x1 PUSH1 0x1 PUSH1 0xA0 SHL SUB SWAP1 DUP2 AND SWAP2 PUSH1 0x20 SWAP2 DUP3 DUP7 DUP4 DUP2 DUP8 GAS STATICCALL SWAP6 DUP7 ISZERO PUSH2 0xF78 JUMPI DUP9 SWAP7 PUSH2 0xF82 JUMPI JUMPDEST POP DUP3 DUP2 PUSH1 0x2 SLOAD AND SWAP6 DUP4 DUP10 MLOAD DUP1 SWAP9 DUP2 SWAP4 DUP3 MSTORE GAS STATICCALL SWAP5 DUP6 ISZERO PUSH2 0xF78 JUMPI DUP9 SWAP6 PUSH2 0xF45 JUMPI JUMPDEST POP PUSH1 0x3 SLOAD PUSH1 0x5 SLOAD PUSH1 0xA SLOAD SWAP5 PUSH1 0x0 NOT SWAP3 SWAP2 SWAP1 DUP4 DUP8 EQ PUSH2 0xE9B JUMPI PUSH1 0x1 DUP8 ADD SWAP3 DUP12 MLOAD SWAP3 DUP3 DUP5 ADD TIMESTAMP DUP2 MSTORE DUP14 PREVRANDAO SWAP1 DUP7 ADD MSTORE DUP6 PUSH1 0x60 DUP7 ADD MSTORE CALLER PUSH1 0x60 SHL SWAP5 DUP6 PUSH1 0x80 DUP3 ADD MSTORE PUSH1 0x74 DUP2 MSTORE PUSH2 0xB80 DUP2 PUSH2 0x1110 JUMP JUMPDEST MLOAD SWAP1 KECCAK256 DUP2 PUSH1 0x1 SHL SWAP1 DUP3 DUP3 DIV PUSH1 0x2 EQ DUP4 ISZERO OR ISZERO PUSH2 0xF31 JUMPI DUP2 ISZERO PUSH2 0xF1D JUMPI DUP16 SWAP3 SWAP4 PUSH2 0xBB3 DUP16 SWAP4 SWAP6 PUSH2 0xC05 SWAP7 PUSH2 0xBE9 SWAP5 MOD PUSH2 0x1177 JUMP JUMPDEST SWAP1 DUP5 DUP5 DUP3 DUP2 GT ISZERO PUSH2 0xEEF JUMPI PUSH3 0x186A0 SWAP2 POP PUSH2 0xBD4 PUSH2 0xBE3 SWAP4 PUSH2 0xBDD SWAP3 PUSH2 0x1177 JUMP JUMPDEST PUSH1 0x7 SLOAD SWAP1 PUSH2 0x114E JUMP JUMPDEST DIV PUSH2 0x1184 JUMP JUMPDEST SWAP1 PUSH2 0x1195 JUMP JUMPDEST SWAP2 DUP3 SLT PUSH2 0xED1 JUMPI PUSH2 0x2710 SWAP2 PUSH2 0xBFD SWAP2 PUSH2 0x114E JUMP JUMPDEST DIV JUMPDEST DUP12 PUSH2 0x1195 JUMP JUMPDEST SWAP7 PUSH4 0x59682F00 DUP1 DUP10 LT PUSH2 0xEC9 JUMPI JUMPDEST POP PUSH5 0x37E11D600 DUP1 DUP10 GT PUSH2 0xEC1 JUMPI JUMPDEST POP DUP7 SLOAD SWAP5 PUSH1 0x6 SLOAD SWAP5 EQ PUSH2 0xEAE JUMPI PUSH1 0x2 ADD SWAP2 DUP3 PUSH1 0xA SSTORE DUP12 MLOAD SWAP2 DUP3 ADD SWAP3 TIMESTAMP DUP5 MSTORE PREVRANDAO DUP14 DUP5 ADD MSTORE PUSH1 0x60 DUP4 ADD MSTORE PUSH1 0x80 DUP3 ADD MSTORE PUSH1 0x74 DUP2 MSTORE PUSH2 0xC5C DUP2 PUSH2 0x1110 JUMP JUMPDEST MLOAD SWAP1 KECCAK256 DUP2 PUSH1 0x1 SHL SWAP1 DUP3 DUP3 DIV PUSH1 0x2 EQ DUP4 ISZERO OR ISZERO PUSH2 0xE9B JUMPI DUP2 ISZERO PUSH2 0xE88 JUMPI SWAP3 PUSH2 0xC8C PUSH2 0xCC9 SWAP4 PUSH2 0xCAD SWAP4 DUP15 SWAP7 MOD PUSH2 0x1177 JUMP JUMPDEST SWAP1 DUP5 DUP11 DUP3 DUP2 GT ISZERO PUSH2 0xE59 JUMPI PUSH3 0x186A0 SWAP2 POP PUSH2 0xBD4 PUSH2 0xBE3 SWAP4 PUSH2 0xBDD SWAP3 PUSH2 0x1177 JUMP JUMPDEST DUP3 DUP2 SLT PUSH2 0xE3C JUMPI PUSH2 0xCC1 PUSH2 0x2710 SWAP2 DUP10 PUSH2 0x114E JUMP JUMPDEST DIV JUMPDEST DUP8 PUSH2 0x1195 JUMP JUMPDEST SWAP4 PUSH4 0x77359400 DUP1 DUP7 LT PUSH2 0xE34 JUMPI JUMPDEST POP PUSH5 0x430E23400 DUP1 DUP7 GT PUSH2 0xE2A JUMPI JUMPDEST POP PUSH2 0xCF4 PUSH2 0xCFB SWAP2 DUP10 PUSH2 0x11B1 JUMP JUMPDEST SWAP5 DUP8 PUSH2 0x11B1 JUMP JUMPDEST SWAP5 DUP1 EXTCODESIZE ISZERO PUSH2 0x1F1 JUMPI DUP2 SWAP1 PUSH1 0x24 DUP11 MLOAD DUP1 SWAP5 DUP2 SWAP4 PUSH4 0x8D6CC56D PUSH1 0xE0 SHL DUP4 MSTORE DUP10 DUP10 DUP5 ADD MSTORE GAS CALL DUP1 ISZERO PUSH2 0x9C8 JUMPI PUSH2 0xE15 JUMPI JUMPDEST POP SWAP1 DUP8 SWAP2 PUSH1 0x2 SLOAD AND SWAP1 DUP2 EXTCODESIZE ISZERO PUSH2 0x1CD JUMPI DUP5 PUSH1 0x24 DUP5 SWAP3 DUP4 DUP12 MLOAD SWAP6 DUP7 SWAP5 DUP6 SWAP4 PUSH4 0x6A60CDED PUSH1 0xE1 SHL DUP6 MSTORE DUP5 ADD MSTORE GAS CALL DUP1 ISZERO PUSH2 0x9EA JUMPI PUSH2 0xE01 JUMPI JUMPDEST POP POP PUSH1 0x0 DUP1 MLOAD PUSH1 0x20 PUSH2 0x1277 DUP4 CODECOPY DUP2 MLOAD SWAP2 MSTORE SWAP5 PUSH1 0x0 DUP1 MLOAD PUSH1 0x20 PUSH2 0x1257 DUP4 CODECOPY DUP2 MLOAD SWAP2 MSTORE PUSH2 0x933 SWAP3 TIMESTAMP PUSH1 0x8 SSTORE PUSH4 0x84AC92B PUSH1 0xE3 SHL DUP4 MLOAD MSTORE DUP3 MLOAD DUP1 PUSH2 0xDD7 PUSH32 0xB9EFF63454E8F3E7E3A0591926665EC3DA6F4D9D4072630DDAC1BB0B9836D506 SWAP10 DUP11 SWAP5 TIMESTAMP SWAP2 DUP5 PUSH1 0x40 SWAP2 SWAP5 SWAP4 SWAP3 PUSH1 0x60 DUP3 ADD SWAP6 DUP3 MSTORE PUSH1 0x20 DUP3 ADD MSTORE ADD MSTORE JUMP JUMPDEST SUB SWAP1 LOG2 DUP1 MLOAD PUSH4 0x8AAC92B PUSH1 0xE3 SHL SWAP1 MSTORE MLOAD SWAP3 DUP4 MSTORE PUSH1 0x20 DUP4 ADD SWAP2 SWAP1 SWAP2 MSTORE TIMESTAMP PUSH1 0x40 DUP4 ADD MSTORE DUP2 SWAP1 PUSH1 0x60 DUP3 ADD SWAP1 JUMP JUMPDEST PUSH2 0xE0A SWAP1 PUSH2 0x10E6 JUMP JUMPDEST PUSH2 0x9E6 JUMPI DUP6 CODESIZE PUSH2 0xD60 JUMP JUMPDEST PUSH2 0xE22 SWAP1 SWAP9 SWAP2 SWAP3 SWAP9 PUSH2 0x10E6 JUMP JUMPDEST SWAP7 SWAP1 CODESIZE PUSH2 0xD29 JUMP JUMPDEST SWAP5 POP PUSH2 0xCF4 PUSH2 0xCE6 JUMP JUMPDEST SWAP5 POP CODESIZE PUSH2 0xCD7 JUMP JUMPDEST PUSH2 0x2710 PUSH2 0xBDD PUSH2 0xE4E PUSH2 0xE54 SWAP4 PUSH2 0x1184 JUMP JUMPDEST DUP11 PUSH2 0x114E JUMP JUMPDEST PUSH2 0xCC3 JUMP JUMPDEST SWAP1 SWAP3 SWAP2 DUP1 DUP3 LT PUSH2 0xE6B JUMPI JUMPDEST POP POP PUSH2 0x1195 JUMP JUMPDEST PUSH3 0x186A0 SWAP3 SWAP4 POP PUSH2 0xE7F SWAP2 PUSH2 0xBD4 SWAP2 PUSH2 0x1177 JUMP JUMPDEST DIV SWAP1 DUP10 CODESIZE PUSH2 0xE64 JUMP JUMPDEST PUSH4 0x4E487B71 PUSH1 0xE0 SHL DUP13 MSTORE PUSH1 0x12 DUP7 MSTORE PUSH1 0x24 DUP13 REVERT JUMPDEST PUSH4 0x4E487B71 PUSH1 0xE0 SHL DUP13 MSTORE PUSH1 0x11 DUP7 MSTORE PUSH1 0x24 DUP13 REVERT JUMPDEST PUSH4 0x4E487B71 PUSH1 0xE0 SHL DUP14 MSTORE PUSH1 0x11 DUP8 MSTORE PUSH1 0x24 DUP14 REVERT JUMPDEST SWAP8 POP CODESIZE PUSH2 0xC22 JUMP JUMPDEST SWAP8 POP CODESIZE PUSH2 0xC13 JUMP JUMPDEST PUSH2 0xBDD PUSH2 0x2710 SWAP2 PUSH2 0xEE4 PUSH2 0xEEA SWAP5 PUSH2 0x1184 JUMP JUMPDEST SWAP1 PUSH2 0x114E JUMP JUMPDEST PUSH2 0xBFF JUMP JUMPDEST SWAP1 SWAP3 SWAP2 DUP1 DUP3 LT PUSH2 0xF00 JUMPI POP POP PUSH2 0x1195 JUMP JUMPDEST PUSH3 0x186A0 SWAP3 SWAP4 POP PUSH2 0xF14 SWAP2 PUSH2 0xBD4 SWAP2 PUSH2 0x1177 JUMP JUMPDEST DIV SWAP1 DUP4 CODESIZE PUSH2 0xE64 JUMP JUMPDEST POP PUSH4 0x4E487B71 PUSH1 0xE0 SHL DUP16 MSTORE PUSH1 0x12 DUP10 MSTORE PUSH1 0x24 DUP16 REVERT JUMPDEST POP PUSH4 0x4E487B71 PUSH1 0xE0 SHL DUP16 MSTORE PUSH1 0x11 DUP10 MSTORE PUSH1 0x24 DUP16 REVERT JUMPDEST SWAP1 SWAP5 POP DUP3 DUP2 DUP2 RETURNDATASIZE DUP4 GT PUSH2 0xF71 JUMPI JUMPDEST PUSH2 0xF5D DUP2 DUP4 PUSH2 0x112C JUMP JUMPDEST DUP2 ADD SUB SLT PUSH2 0xF6D JUMPI MLOAD SWAP4 CODESIZE PUSH2 0xB36 JUMP JUMPDEST DUP8 DUP1 REVERT JUMPDEST POP RETURNDATASIZE PUSH2 0xF53 JUMP JUMPDEST DUP8 MLOAD RETURNDATASIZE DUP11 DUP3 RETURNDATACOPY RETURNDATASIZE SWAP1 REVERT JUMPDEST SWAP1 SWAP6 POP DUP3 DUP2 DUP2 RETURNDATASIZE DUP4 GT PUSH2 0xFAA JUMPI JUMPDEST PUSH2 0xF9A DUP2 DUP4 PUSH2 0x112C JUMP JUMPDEST DUP2 ADD SUB SLT PUSH2 0xF6D JUMPI MLOAD SWAP5 CODESIZE PUSH2 0xB15 JUMP JUMPDEST POP RETURNDATASIZE PUSH2 0xF90 JUMP JUMPDEST PUSH1 0x20 PUSH1 0x64 SWAP3 MLOAD SWAP2 PUSH3 0x461BCD PUSH1 0xE5 SHL DUP4 MSTORE DUP3 ADD MSTORE PUSH1 0x14 PUSH1 0x24 DUP3 ADD MSTORE PUSH20 0x546F6F206672657175656E742075706461746573 PUSH1 0x60 SHL PUSH1 0x44 DUP3 ADD MSTORE REVERT JUMPDEST PUSH4 0x4E487B71 PUSH1 0xE0 SHL DUP5 MSTORE PUSH1 0x11 DUP3 MSTORE PUSH1 0x24 DUP5 REVERT JUMPDEST PUSH1 0x20 PUSH1 0x64 SWAP3 MLOAD SWAP2 PUSH3 0x461BCD PUSH1 0xE5 SHL DUP4 MSTORE DUP3 ADD MSTORE PUSH1 0x15 PUSH1 0x24 DUP3 ADD MSTORE PUSH21 0x53696D756C6174696F6E206E6F7420616374697665 PUSH1 0x58 SHL PUSH1 0x44 DUP3 ADD MSTORE REVERT JUMPDEST DUP4 DUP3 CALLVALUE PUSH2 0x1F1 JUMPI DUP2 PUSH1 0x3 NOT CALLDATASIZE ADD SLT PUSH2 0x1F1 JUMPI PUSH1 0x20 SWAP1 MLOAD PUSH4 0x59682F00 DUP2 MSTORE RETURN JUMPDEST DUP4 DUP3 CALLVALUE PUSH2 0x1F1 JUMPI DUP2 PUSH1 0x3 NOT CALLDATASIZE ADD SLT PUSH2 0x1F1 JUMPI PUSH1 0x1 SLOAD SWAP1 MLOAD PUSH1 0x1 PUSH1 0x1 PUSH1 0xA0 SHL SUB SWAP1 SWAP2 AND DUP2 MSTORE PUSH1 0x20 SWAP1 RETURN JUMPDEST DUP4 DUP3 CALLVALUE PUSH2 0x1F1 JUMPI DUP2 PUSH1 0x3 NOT CALLDATASIZE ADD SLT PUSH2 0x1F1 JUMPI PUSH1 0x20 SWAP1 PUSH1 0x5 SLOAD SWAP1 MLOAD SWAP1 DUP2 MSTORE RETURN JUMPDEST DUP5 SWAP1 DUP5 CALLVALUE PUSH2 0x1CD JUMPI DUP3 PUSH1 0x3 NOT CALLDATASIZE ADD SLT PUSH2 0x1CD JUMPI PUSH1 0x20 SWAP3 POP SLOAD DUP2 MSTORE RETURN JUMPDEST PUSH1 0x0 SLOAD PUSH1 0x1 PUSH1 0x1 PUSH1 0xA0 SHL SUB AND CALLER SUB PUSH2 0x10CE JUMPI JUMP JUMPDEST PUSH1 0x40 MLOAD PUSH4 0x118CDAA7 PUSH1 0xE0 SHL DUP2 MSTORE CALLER PUSH1 0x4 DUP3 ADD MSTORE PUSH1 0x24 SWAP1 REVERT JUMPDEST PUSH8 0xFFFFFFFFFFFFFFFF DUP2 GT PUSH2 0x10FA JUMPI PUSH1 0x40 MSTORE JUMP JUMPDEST PUSH4 0x4E487B71 PUSH1 0xE0 SHL PUSH1 0x0 MSTORE PUSH1 0x41 PUSH1 0x4 MSTORE PUSH1 0x24 PUSH1 0x0 REVERT JUMPDEST PUSH1 0xA0 DUP2 ADD SWAP1 DUP2 LT PUSH8 0xFFFFFFFFFFFFFFFF DUP3 GT OR PUSH2 0x10FA JUMPI PUSH1 0x40 MSTORE JUMP JUMPDEST SWAP1 PUSH1 0x1F DUP1 NOT SWAP2 ADD AND DUP2 ADD SWAP1 DUP2 LT PUSH8 0xFFFFFFFFFFFFFFFF DUP3 GT OR PUSH2 0x10FA JUMPI PUSH1 0x40 MSTORE JUMP JUMPDEST DUP2 DUP2 MUL SWAP3 SWAP2 DUP2 ISZERO SWAP2 DUP5 DIV EQ OR ISZERO PUSH2 0x1161 JUMPI JUMP JUMPDEST PUSH4 0x4E487B71 PUSH1 0xE0 SHL PUSH1 0x0 MSTORE PUSH1 0x11 PUSH1 0x4 MSTORE PUSH1 0x24 PUSH1 0x0 REVERT JUMPDEST SWAP2 SWAP1 DUP3 SUB SWAP2 DUP3 GT PUSH2 0x1161 JUMPI JUMP JUMPDEST PUSH1 0x1 PUSH1 0xFF SHL DUP2 EQ PUSH2 0x1161 JUMPI PUSH1 0x0 SUB SWAP1 JUMP JUMPDEST SWAP2 SWAP1 SWAP2 PUSH1 0x0 DUP4 DUP3 ADD SWAP4 DUP5 SLT SWAP2 SLT SWAP1 DUP1 ISZERO DUP3 AND SWAP2 ISZERO AND OR PUSH2 0x1161 JUMPI JUMP JUMPDEST PUSH1 0x64 DUP2 MUL DUP2 DUP2 DIV PUSH1 0x64 EQ DUP3 ISZERO OR ISZERO PUSH2 0x1161 JUMPI PUSH2 0x2710 SWAP1 DIV DUP2 DUP4 GT ISZERO PUSH2 0x11F2 JUMPI DUP1 PUSH2 0x11DB DUP4 DUP6 PUSH2 0x1177 JUMP JUMPDEST GT PUSH2 0x11E5 JUMPI POP POP SWAP1 JUMP JUMPDEST DUP2 ADD SWAP2 POP DUP2 LT PUSH2 0x1161 JUMPI SWAP1 JUMP JUMPDEST SWAP1 DUP2 PUSH2 0x11FE DUP5 DUP4 PUSH2 0x1177 JUMP JUMPDEST GT PUSH2 0x1208 JUMPI POP POP SWAP1 JUMP JUMPDEST PUSH2 0x1212 SWAP3 POP PUSH2 0x1177 JUMP JUMPDEST SWAP1 JUMP JUMPDEST ISZERO PUSH2 0x121C JUMPI JUMP JUMPDEST PUSH1 0x40 MLOAD PUSH3 0x461BCD PUSH1 0xE5 SHL DUP2 MSTORE PUSH1 0x20 PUSH1 0x4 DUP3 ADD MSTORE PUSH1 0x12 PUSH1 0x24 DUP3 ADD MSTORE PUSH18 0x496E76616C6964206D65616E207072696365 PUSH1 0x70 SHL PUSH1 0x44 DUP3 ADD MSTORE PUSH1 0x64 SWAP1 REVERT INVALID 0xD3 SAR 0xC4 ADD 0xCC KECCAK256 0xF9 0xF7 DUP9 MLOAD 0x4C 0x4D 0x2F 0xAD CHAINID DUP9 SWAP9 0x24 0xC2 0x1F RETURN 0xE6 PUSH26 0xC43C9770B3B4B3BD52F852F64739C79113305C1F1DBB665A0196 0xB6 CHAINID 0xC6 PUSH25 0x4356E2F282E6074357EC16A2646970667358221220948C3006 ORIGIN 0xAE 0xC4 0xC0 LOG3 0xE9 RETURNDATACOPY 0x4C MUL GASLIMIT DUP14 0xB8 0xC1 SWAP7 CODECOPY PUSH19 0x2083AEE9F258209679FA77BD64736F6C634300 ADDMOD ISZERO STOP CALLER "},"methodIdentifiers":{"BVIX_MAX_PRICE()":"f2d18ce5","BVIX_MIN_PRICE()":"3ae2b2f7","EVIX_MAX_PRICE()":"b540f3db","EVIX_MIN_PRICE()":"e4faac22","MAX_MOVEMENT_BPS()":"e3cfcdd0","bvixMeanPrice()":"d432af4d","bvixOracle()":"284a5d23","bvixVolatility()":"1baaab84","emergencyUpdatePrices(uint256,uint256)":"4b9fdeac","evixMeanPrice()":"02a68f93","evixOracle()":"4c96366a","evixVolatility()":"a58b6a0e","getSimulationStatus()":"7d3b9ab9","lastUpdateTime()":"c8f33c91","meanReversionStrength()":"9683ba78","owner()":"8da5cb5b","renounceOwnership()":"715018a6","setBvixMeanPrice(uint256)":"d0577174","setEvixMeanPrice(uint256)":"a53b7fa8","setVolatilityParams(uint256,uint256,uint256)":"e2423411","simulationActive()":"c10a09cf","startSimulation()":"9ef64d07","stopSimulation()":"8af8b8d5","transferOwnership(address)":"f2fde38b","updatePrices()":"49dd1262"}}}}}