{"contracts/ChainlinkOracle.sol":{"ChainlinkOracle":{"abi":[{"inputs":[{"internalType":"address","name":"_priceFeed","type":"address"},{"internalType":"uint256","name":"_fallbackPrice","type":"uint256"},{"internalType":"address","name":"_governor","type":"address"}],"stateMutability":"nonpayable","type":"constructor"},{"inputs":[],"name":"AccessControlBadConfirmation","type":"error"},{"inputs":[{"internalType":"address","name":"account","type":"address"},{"internalType":"bytes32","name":"neededRole","type":"bytes32"}],"name":"AccessControlUnauthorizedAccount","type":"error"},{"inputs":[],"name":"EnforcedPause","type":"error"},{"inputs":[],"name":"ExpectedPause","type":"error"},{"inputs":[],"name":"InvalidPrice","type":"error"},{"inputs":[],"name":"PriceFeedNotAvailable","type":"error"},{"inputs":[],"name":"StalePrice","type":"error"},{"anonymous":false,"inputs":[{"indexed":false,"internalType":"bool","name":"useFallback","type":"bool"}],"name":"FallbackModeToggled","type":"event"},{"anonymous":false,"inputs":[{"indexed":false,"internalType":"uint256","name":"oldPrice","type":"uint256"},{"indexed":false,"internalType":"uint256","name":"newPrice","type":"uint256"}],"name":"FallbackPriceUpdated","type":"event"},{"anonymous":false,"inputs":[{"indexed":false,"internalType":"address","name":"account","type":"address"}],"name":"Paused","type":"event"},{"anonymous":false,"inputs":[{"indexed":true,"internalType":"bytes32","name":"role","type":"bytes32"},{"indexed":true,"internalType":"bytes32","name":"previousAdminRole","type":"bytes32"},{"indexed":true,"internalType":"bytes32","name":"newAdminRole","type":"bytes32"}],"name":"RoleAdminChanged","type":"event"},{"anonymous":false,"inputs":[{"indexed":true,"internalType":"bytes32","name":"role","type":"bytes32"},{"indexed":true,"internalType":"address","name":"account","type":"address"},{"indexed":true,"internalType":"address","name":"sender","type":"address"}],"name":"RoleGranted","type":"event"},{"anonymous":false,"inputs":[{"indexed":true,"internalType":"bytes32","name":"role","type":"bytes32"},{"indexed":true,"internalType":"address","name":"account","type":"address"},{"indexed":true,"internalType":"address","name":"sender","type":"address"}],"name":"RoleRevoked","type":"event"},{"anonymous":false,"inputs":[{"indexed":false,"internalType":"uint256","name":"oldThreshold","type":"uint256"},{"indexed":false,"internalType":"uint256","name":"newThreshold","type":"uint256"}],"name":"StalenessThresholdUpdated","type":"event"},{"anonymous":false,"inputs":[{"indexed":false,"internalType":"address","name":"account","type":"address"}],"name":"Unpaused","type":"event"},{"inputs":[],"name":"DEFAULT_ADMIN_ROLE","outputs":[{"internalType":"bytes32","name":"","type":"bytes32"}],"stateMutability":"view","type":"function"},{"inputs":[],"name":"GOVERNOR_ROLE","outputs":[{"internalType":"bytes32","name":"","type":"bytes32"}],"stateMutability":"view","type":"function"},{"inputs":[],"name":"PAUSER_ROLE","outputs":[{"internalType":"bytes32","name":"","type":"bytes32"}],"stateMutability":"view","type":"function"},{"inputs":[],"name":"fallbackPrice","outputs":[{"internalType":"uint256","name":"","type":"uint256"}],"stateMutability":"view","type":"function"},{"inputs":[],"name":"getPrice","outputs":[{"internalType":"uint256","name":"","type":"uint256"}],"stateMutability":"view","type":"function"},{"inputs":[],"name":"getPriceFeedMetadata","outputs":[{"internalType":"uint8","name":"","type":"uint8"},{"internalType":"string","name":"","type":"string"},{"internalType":"uint256","name":"","type":"uint256"}],"stateMutability":"view","type":"function"},{"inputs":[],"name":"getPriceWithStaleness","outputs":[{"internalType":"uint256","name":"","type":"uint256"},{"internalType":"bool","name":"","type":"bool"}],"stateMutability":"view","type":"function"},{"inputs":[{"internalType":"bytes32","name":"role","type":"bytes32"}],"name":"getRoleAdmin","outputs":[{"internalType":"bytes32","name":"","type":"bytes32"}],"stateMutability":"view","type":"function"},{"inputs":[{"internalType":"bytes32","name":"role","type":"bytes32"},{"internalType":"address","name":"account","type":"address"}],"name":"grantRole","outputs":[],"stateMutability":"nonpayable","type":"function"},{"inputs":[{"internalType":"bytes32","name":"role","type":"bytes32"},{"internalType":"address","name":"account","type":"address"}],"name":"hasRole","outputs":[{"internalType":"bool","name":"","type":"bool"}],"stateMutability":"view","type":"function"},{"inputs":[],"name":"pause","outputs":[],"stateMutability":"nonpayable","type":"function"},{"inputs":[],"name":"paused","outputs":[{"internalType":"bool","name":"","type":"bool"}],"stateMutability":"view","type":"function"},{"inputs":[],"name":"priceFeed","outputs":[{"internalType":"contract AggregatorV3Interface","name":"","type":"address"}],"stateMutability":"view","type":"function"},{"inputs":[{"internalType":"bytes32","name":"role","type":"bytes32"},{"internalType":"address","name":"callerConfirmation","type":"address"}],"name":"renounceRole","outputs":[],"stateMutability":"nonpayable","type":"function"},{"inputs":[{"internalType":"bytes32","name":"role","type":"bytes32"},{"internalType":"address","name":"account","type":"address"}],"name":"revokeRole","outputs":[],"stateMutability":"nonpayable","type":"function"},{"inputs":[{"internalType":"bool","name":"_useFallback","type":"bool"}],"name":"setFallbackMode","outputs":[],"stateMutability":"nonpayable","type":"function"},{"inputs":[{"internalType":"uint256","name":"_newPrice","type":"uint256"}],"name":"setFallbackPrice","outputs":[],"stateMutability":"nonpayable","type":"function"},{"inputs":[{"internalType":"address","name":"_newPriceFeed","type":"address"}],"name":"setPriceFeed","outputs":[],"stateMutability":"nonpayable","type":"function"},{"inputs":[{"internalType":"uint256","name":"_newThreshold","type":"uint256"}],"name":"setStalenessThreshold","outputs":[],"stateMutability":"nonpayable","type":"function"},{"inputs":[],"name":"stalenessThreshold","outputs":[{"internalType":"uint256","name":"","type":"uint256"}],"stateMutability":"view","type":"function"},{"inputs":[{"internalType":"bytes4","name":"interfaceId","type":"bytes4"}],"name":"supportsInterface","outputs":[{"internalType":"bool","name":"","type":"bool"}],"stateMutability":"view","type":"function"},{"inputs":[],"name":"unpause","outputs":[],"stateMutability":"nonpayable","type":"function"},{"inputs":[],"name":"useFallback","outputs":[{"internalType":"bool","name":"","type":"bool"}],"stateMutability":"view","type":"function"}],"evm":{"bytecode":{"linkReferences":{},"object":"608034620000f257601f6200113738819003918201601f19168301916001600160401b03831184841017620000f757808492606094604052833981010312620000f2578062000052620000a9926200010d565b90620000666040602083015192016200010d565b610e106003556004805460ff19169055916001600160a01b038116620000c6575b50600255620000968162000122565b50620000a28162000191565b5062000233565b50620000b533620002d0565b50604051610dac90816200034b8239f35b60018054610100600160a81b03191660089290921b610100600160a81b03169190911790553862000087565b600080fd5b634e487b7160e01b600052604160045260246000fd5b51906001600160a01b0382168203620000f257565b6001600160a01b0316600081815260008051602062001117833981519152602052604081205490919060ff166200018d57818052816020526040822081835260205260408220600160ff198254161790553391600080516020620010f78339815191528180a4600190565b5090565b6001600160a01b031660008181527f6f3b488caa0dc03e5f3d9fd6a25fa8755afcfd62ccffb6e436c696bfa6b866de60205260408120549091907f7935bd0ae54bc31f548c14dba4d37c5c64b3f8ca900cb468fb8abd54d5894f559060ff166200022e57808352826020526040832082845260205260408320600160ff19825416179055600080516020620010f7833981519152339380a4600190565b505090565b6001600160a01b031660008181527ff7c9542c591017a21c74b6f3fab6263c7952fc0aaf9db4c22a2a04ddc7f8674f60205260408120549091907f65d7a28e3265b37a6474929f336521b332c1681b933f6cb9f3376673440d862a9060ff166200022e57808352826020526040832082845260205260408320600160ff19825416179055600080516020620010f7833981519152339380a4600190565b6001600160a01b0316600081815260008051602062001117833981519152602052604081205490919060ff16156200018d5781805281602052604082208183526020526040822060ff19815416905533917ff6391f5c32d9c69d2a47ea670b442974b53935d1edc7fd64eb21e047a839171b8180a460019056fe6080604081815260048036101561001557600080fd5b600092833560e01c90816301ffc9a71461066557508063248a9ca31461063c5780632f2ff15d1461061357806336568abe146105cc5780633f4ba83a146105635780635c975abb1461053f578063724e78da146104eb578063741bef1a146104be5780638456cb591461045357806391d148541461040e57806398d5fdca146103ea578063a217fddf146103cf578063a84f6ebb146103b0578063ccc5749014610375578063ce4391df14610321578063d3a4eb14146102fe578063d547741f146102c0578063e28a1b86146102a1578063e4f53e8514610278578063e63ab1e914610239578063ebfe2593146101db578063fb01e7f2146101875763ff882fbb1461012057600080fd5b3461018357602036600319011261018357803580151580910361017f577f3c6e1d5853de5b39bf9747963b05b9460e59a375d4cd59b3c3daffc201cf7f229260209261016a610771565b60ff1981541660ff841617905551908152a180f35b8380fd5b8280fd5b509034610183576020366003190112610183577f2cfed7ac4be4a0009ef1af32ea2de149e0122938cb9aa4b3f7df3be6da1055e991356101c5610771565b600354908060035582519182526020820152a180f35b82843461023657806003193601126102365760ff6080836101fa610b51565b90919280519586941684526060602085015261022583518094816060880152602088880191016106d4565b830152601f01601f19168101030190f35b80fd5b505034610274578160031936011261027457602090517f65d7a28e3265b37a6474929f336521b332c1681b933f6cb9f3376673440d862a8152f35b5080fd5b82843461023657806003193601126102365750610293610a9e565b825191825215156020820152f35b5050346102745781600319360112610274576020906002549051908152f35b5090346101835780600319360112610183576102fa91356102f560016102e46106b9565b9383875286602052862001546107cd565b610871565b5080f35b5091346102365780600319360112610236575060ff602092541690519015158152f35b509034610183576020366003190112610183577f1c1ae796fc41a2f7b042d5b4b9f7a0f7eee2169bc11e7ba0b3672cfa44f3d0c1913561035f610771565b600254908060025582519182526020820152a180f35b505034610274578160031936011261027457602090517f7935bd0ae54bc31f548c14dba4d37c5c64b3f8ca900cb468fb8abd54d5894f558152f35b5050346102745781600319360112610274576020906003549051908152f35b50503461027457816003193601126102745751908152602090f35b5050346102745781600319360112610274576020906104076109a9565b9051908152f35b50346101835781600319360112610183578160209360ff9261042e6106b9565b903582528186528282206001600160a01b039091168252855220549151911615158152f35b503461018357826003193601126101835761046c6106f7565b6001549060ff82166104b057507f62e78cea01bee320cd4e420270b5ea74000d11b0c9f74754ebdbfc544b05a25891600160209260ff19161760015551338152a180f35b825163d93c066560e01b8152fd5b505034610274578160031936011261027457600154905160089190911c6001600160a01b03168152602090f35b83823461027457602036600319011261027457356001600160a01b038116810361027457610517610771565b60018054610100600160a81b03191660089290921b610100600160a81b031691909117905580f35b50503461027457816003193601126102745760209060ff6001541690519015158152f35b503461018357826003193601126101835761057c6106f7565b6001549060ff8216156105be575060ff1916600155513381527f5db9ee0a495bf2e6ff9c91a7834c1ba4fdd244a5e8aa4e537bd38aeae4b073aa90602090a180f35b8251638dfc202b60e01b8152fd5b509190346102745780600319360112610274576105e76106b9565b90336001600160a01b0383160361060457506102fa919235610871565b5163334bd91960e11b81528390fd5b5090346101835780600319360112610183576102fa913561063760016102e46106b9565b6107f3565b503461018357602036600319011261018357816020936001923581528085522001549051908152f35b92505034610183576020366003190112610183573563ffffffff60e01b81168091036101835760209250637965db0b60e01b81149081156106a8575b5015158152f35b6301ffc9a760e01b149050386106a1565b602435906001600160a01b03821682036106cf57565b600080fd5b60005b8381106106e75750506000910152565b81810151838201526020016106d7565b3360009081527ff7c9542c591017a21c74b6f3fab6263c7952fc0aaf9db4c22a2a04ddc7f8674f60205260409020547f65d7a28e3265b37a6474929f336521b332c1681b933f6cb9f3376673440d862a9060ff16156107535750565b6044906040519063e2517d3f60e01b82523360048301526024820152fd5b3360009081527f6f3b488caa0dc03e5f3d9fd6a25fa8755afcfd62ccffb6e436c696bfa6b866de60205260409020547f7935bd0ae54bc31f548c14dba4d37c5c64b3f8ca900cb468fb8abd54d5894f559060ff16156107535750565b80600052600060205260406000203360005260205260ff60406000205416156107535750565b9060009180835282602052604083209160018060a01b03169182845260205260ff6040842054161560001461086c57808352826020526040832082845260205260408320600160ff198254161790557f2f8788117e7eff1d82e926ec794901d17c78024a50270940304540a733656f0d339380a4600190565b505090565b9060009180835282602052604083209160018060a01b03169182845260205260ff60408420541660001461086c5780835282602052604083208284526020526040832060ff1981541690557ff6391f5c32d9c69d2a47ea670b442974b53935d1edc7fd64eb21e047a839171b339380a4600190565b6040810190811067ffffffffffffffff82111761090257604052565b634e487b7160e01b600052604160045260246000fd5b90601f8019910116810190811067ffffffffffffffff82111761090257604052565b519069ffffffffffffffffffff821682036106cf57565b908160a09103126106cf576109658161093a565b9160208201519160408101519161098360806060840151930161093a565b90565b9190820391821161099357565b634e487b7160e01b600052601160045260246000fd5b60ff600454168015610a88575b610a8257600154604051633fabe5a360e21b81529060a0908290600490829060081c6001600160a01b03165afa806000928392610a4a575b50610a0557604051634d57188360e01b8152600490fd5b610a0f9042610986565b60035410610a38576000811315610a27576064900490565b60405162bfc92160e01b8152600490fd5b604051630cd5fa0760e11b8152600490fd5b909250610a6e915060a03d8111610a7b575b610a668183610918565b810190610951565b50939250509190386109ee565b503d610a5c565b60025490565b5060015460081c6001600160a01b0316156109b6565b60ff600454168015610b3b575b610b3257600154604051633fabe5a360e21b8152919060a0908390600490829060081c6001600160a01b03165afa806000938492610b0a575b50610af457506002549150600190565b610b0060649142610986565b6003541092049190565b909350610b25915060a03d8111610a7b57610a668183610918565b5094925050929038610ae4565b60025490600090565b5060015460081c6001600160a01b031615610aab565b60015460081c6001600160a01b0316908115610d4657604091825163313ce56760e01b81526020918282600481845afa60009281610d0b575b50610bc257505071125b9d985b1a59081c1c9a58d9481999595960721b6000935191610bb5836108e6565b6012835282015290600090565b8451633942720b60e11b815290600082600481845afa60009281610c75575b50610c0d575050662ab735b737bbb760c91b90935191610c00836108e6565b6007835282015290600090565b9260049293819296519384809263054fd4d560e41b82525afa918291600093610c44575b5050610c3f57509190600090565b909291565b8181949293943d8311610c6e575b610c5c8183610918565b81010312610236575051903880610c31565b503d610c52565b9290923d8083833e610c878183610918565b810191868284031261023657815167ffffffffffffffff9283821161018357019083601f83011215610236578151928311610cf757895193610cd2601f8501601f19168a0186610918565b838552888484010111610236575090610cf0918780850191016106d4565b9138610be1565b634e487b7160e01b81526041600452602490fd5b8481819593953d8311610d3f575b610d238183610918565b8101031261027457519060ff8216820361023657509138610b8a565b503d610d19565b60405160009250610d56816108e6565b600d81526c139bc81c1c9a58d94819995959609a1b60208201529060009056fea2646970667358221220179ce7e39aff885e2619929555b3f5972600de798301f64273d77f98f9f33e5e64736f6c634300081500332f8788117e7eff1d82e926ec794901d17c78024a50270940304540a733656f0dad3228b676f7d3cd4284a5443f17f1962b36e491b30a40b2405849e597ba5fb5","opcodes":"PUSH1 0x80 CALLVALUE PUSH3 0xF2 JUMPI PUSH1 0x1F PUSH3 0x1137 CODESIZE DUP2 SWAP1 SUB SWAP2 DUP3 ADD PUSH1 0x1F NOT AND DUP4 ADD SWAP2 PUSH1 0x1 PUSH1 0x1 PUSH1 0x40 SHL SUB DUP4 GT DUP5 DUP5 LT OR PUSH3 0xF7 JUMPI DUP1 DUP5 SWAP3 PUSH1 0x60 SWAP5 PUSH1 0x40 MSTORE DUP4 CODECOPY DUP2 ADD SUB SLT PUSH3 0xF2 JUMPI DUP1 PUSH3 0x52 PUSH3 0xA9 SWAP3 PUSH3 0x10D JUMP JUMPDEST SWAP1 PUSH3 0x66 PUSH1 0x40 PUSH1 0x20 DUP4 ADD MLOAD SWAP3 ADD PUSH3 0x10D JUMP JUMPDEST PUSH2 0xE10 PUSH1 0x3 SSTORE PUSH1 0x4 DUP1 SLOAD PUSH1 0xFF NOT AND SWAP1 SSTORE SWAP2 PUSH1 0x1 PUSH1 0x1 PUSH1 0xA0 SHL SUB DUP2 AND PUSH3 0xC6 JUMPI JUMPDEST POP PUSH1 0x2 SSTORE PUSH3 0x96 DUP2 PUSH3 0x122 JUMP JUMPDEST POP PUSH3 0xA2 DUP2 PUSH3 0x191 JUMP JUMPDEST POP PUSH3 0x233 JUMP JUMPDEST POP PUSH3 0xB5 CALLER PUSH3 0x2D0 JUMP JUMPDEST POP PUSH1 0x40 MLOAD PUSH2 0xDAC SWAP1 DUP2 PUSH3 0x34B DUP3 CODECOPY RETURN JUMPDEST PUSH1 0x1 DUP1 SLOAD PUSH2 0x100 PUSH1 0x1 PUSH1 0xA8 SHL SUB NOT AND PUSH1 0x8 SWAP3 SWAP1 SWAP3 SHL PUSH2 0x100 PUSH1 0x1 PUSH1 0xA8 SHL SUB AND SWAP2 SWAP1 SWAP2 OR SWAP1 SSTORE CODESIZE PUSH3 0x87 JUMP JUMPDEST PUSH1 0x0 DUP1 REVERT JUMPDEST PUSH4 0x4E487B71 PUSH1 0xE0 SHL PUSH1 0x0 MSTORE PUSH1 0x41 PUSH1 0x4 MSTORE PUSH1 0x24 PUSH1 0x0 REVERT JUMPDEST MLOAD SWAP1 PUSH1 0x1 PUSH1 0x1 PUSH1 0xA0 SHL SUB DUP3 AND DUP3 SUB PUSH3 0xF2 JUMPI JUMP JUMPDEST PUSH1 0x1 PUSH1 0x1 PUSH1 0xA0 SHL SUB AND PUSH1 0x0 DUP2 DUP2 MSTORE PUSH1 0x0 DUP1 MLOAD PUSH1 0x20 PUSH3 0x1117 DUP4 CODECOPY DUP2 MLOAD SWAP2 MSTORE PUSH1 0x20 MSTORE PUSH1 0x40 DUP2 KECCAK256 SLOAD SWAP1 SWAP2 SWAP1 PUSH1 0xFF AND PUSH3 0x18D JUMPI DUP2 DUP1 MSTORE DUP2 PUSH1 0x20 MSTORE PUSH1 0x40 DUP3 KECCAK256 DUP2 DUP4 MSTORE PUSH1 0x20 MSTORE PUSH1 0x40 DUP3 KECCAK256 PUSH1 0x1 PUSH1 0xFF NOT DUP3 SLOAD AND OR SWAP1 SSTORE CALLER SWAP2 PUSH1 0x0 DUP1 MLOAD PUSH1 0x20 PUSH3 0x10F7 DUP4 CODECOPY DUP2 MLOAD SWAP2 MSTORE DUP2 DUP1 LOG4 PUSH1 0x1 SWAP1 JUMP JUMPDEST POP SWAP1 JUMP JUMPDEST PUSH1 0x1 PUSH1 0x1 PUSH1 0xA0 SHL SUB AND PUSH1 0x0 DUP2 DUP2 MSTORE PUSH32 0x6F3B488CAA0DC03E5F3D9FD6A25FA8755AFCFD62CCFFB6E436C696BFA6B866DE PUSH1 0x20 MSTORE PUSH1 0x40 DUP2 KECCAK256 SLOAD SWAP1 SWAP2 SWAP1 PUSH32 0x7935BD0AE54BC31F548C14DBA4D37C5C64B3F8CA900CB468FB8ABD54D5894F55 SWAP1 PUSH1 0xFF AND PUSH3 0x22E JUMPI DUP1 DUP4 MSTORE DUP3 PUSH1 0x20 MSTORE PUSH1 0x40 DUP4 KECCAK256 DUP3 DUP5 MSTORE PUSH1 0x20 MSTORE PUSH1 0x40 DUP4 KECCAK256 PUSH1 0x1 PUSH1 0xFF NOT DUP3 SLOAD AND OR SWAP1 SSTORE PUSH1 0x0 DUP1 MLOAD PUSH1 0x20 PUSH3 0x10F7 DUP4 CODECOPY DUP2 MLOAD SWAP2 MSTORE CALLER SWAP4 DUP1 LOG4 PUSH1 0x1 SWAP1 JUMP JUMPDEST POP POP SWAP1 JUMP JUMPDEST PUSH1 0x1 PUSH1 0x1 PUSH1 0xA0 SHL SUB AND PUSH1 0x0 DUP2 DUP2 MSTORE PUSH32 0xF7C9542C591017A21C74B6F3FAB6263C7952FC0AAF9DB4C22A2A04DDC7F8674F PUSH1 0x20 MSTORE PUSH1 0x40 DUP2 KECCAK256 SLOAD SWAP1 SWAP2 SWAP1 PUSH32 0x65D7A28E3265B37A6474929F336521B332C1681B933F6CB9F3376673440D862A SWAP1 PUSH1 0xFF AND PUSH3 0x22E JUMPI DUP1 DUP4 MSTORE DUP3 PUSH1 0x20 MSTORE PUSH1 0x40 DUP4 KECCAK256 DUP3 DUP5 MSTORE PUSH1 0x20 MSTORE PUSH1 0x40 DUP4 KECCAK256 PUSH1 0x1 PUSH1 0xFF NOT DUP3 SLOAD AND OR SWAP1 SSTORE PUSH1 0x0 DUP1 MLOAD PUSH1 0x20 PUSH3 0x10F7 DUP4 CODECOPY DUP2 MLOAD SWAP2 MSTORE CALLER SWAP4 DUP1 LOG4 PUSH1 0x1 SWAP1 JUMP JUMPDEST PUSH1 0x1 PUSH1 0x1 PUSH1 0xA0 SHL SUB AND PUSH1 0x0 DUP2 DUP2 MSTORE PUSH1 0x0 DUP1 MLOAD PUSH1 0x20 PUSH3 0x1117 DUP4 CODECOPY DUP2 MLOAD SWAP2 MSTORE PUSH1 0x20 MSTORE PUSH1 0x40 DUP2 KECCAK256 SLOAD SWAP1 SWAP2 SWAP1 PUSH1 0xFF AND ISZERO PUSH3 0x18D JUMPI DUP2 DUP1 MSTORE DUP2 PUSH1 0x20 MSTORE PUSH1 0x40 DUP3 KECCAK256 DUP2 DUP4 MSTORE PUSH1 0x20 MSTORE PUSH1 0x40 DUP3 KECCAK256 PUSH1 0xFF NOT DUP2 SLOAD AND SWAP1 SSTORE CALLER SWAP2 PUSH32 0xF6391F5C32D9C69D2A47EA670B442974B53935D1EDC7FD64EB21E047A839171B DUP2 DUP1 LOG4 PUSH1 0x1 SWAP1 JUMP INVALID PUSH1 0x80 PUSH1 0x40 DUP2 DUP2 MSTORE PUSH1 0x4 DUP1 CALLDATASIZE LT ISZERO PUSH2 0x15 JUMPI PUSH1 0x0 DUP1 REVERT JUMPDEST PUSH1 0x0 SWAP3 DUP4 CALLDATALOAD PUSH1 0xE0 SHR SWAP1 DUP2 PUSH4 0x1FFC9A7 EQ PUSH2 0x665 JUMPI POP DUP1 PUSH4 0x248A9CA3 EQ PUSH2 0x63C JUMPI DUP1 PUSH4 0x2F2FF15D EQ PUSH2 0x613 JUMPI DUP1 PUSH4 0x36568ABE EQ PUSH2 0x5CC JUMPI DUP1 PUSH4 0x3F4BA83A EQ PUSH2 0x563 JUMPI DUP1 PUSH4 0x5C975ABB EQ PUSH2 0x53F JUMPI DUP1 PUSH4 0x724E78DA EQ PUSH2 0x4EB JUMPI DUP1 PUSH4 0x741BEF1A EQ PUSH2 0x4BE JUMPI DUP1 PUSH4 0x8456CB59 EQ PUSH2 0x453 JUMPI DUP1 PUSH4 0x91D14854 EQ PUSH2 0x40E JUMPI DUP1 PUSH4 0x98D5FDCA EQ PUSH2 0x3EA JUMPI DUP1 PUSH4 0xA217FDDF EQ PUSH2 0x3CF JUMPI DUP1 PUSH4 0xA84F6EBB EQ PUSH2 0x3B0 JUMPI DUP1 PUSH4 0xCCC57490 EQ PUSH2 0x375 JUMPI DUP1 PUSH4 0xCE4391DF EQ PUSH2 0x321 JUMPI DUP1 PUSH4 0xD3A4EB14 EQ PUSH2 0x2FE JUMPI DUP1 PUSH4 0xD547741F EQ PUSH2 0x2C0 JUMPI DUP1 PUSH4 0xE28A1B86 EQ PUSH2 0x2A1 JUMPI DUP1 PUSH4 0xE4F53E85 EQ PUSH2 0x278 JUMPI DUP1 PUSH4 0xE63AB1E9 EQ PUSH2 0x239 JUMPI DUP1 PUSH4 0xEBFE2593 EQ PUSH2 0x1DB JUMPI DUP1 PUSH4 0xFB01E7F2 EQ PUSH2 0x187 JUMPI PUSH4 0xFF882FBB EQ PUSH2 0x120 JUMPI PUSH1 0x0 DUP1 REVERT JUMPDEST CALLVALUE PUSH2 0x183 JUMPI PUSH1 0x20 CALLDATASIZE PUSH1 0x3 NOT ADD SLT PUSH2 0x183 JUMPI DUP1 CALLDATALOAD DUP1 ISZERO ISZERO DUP1 SWAP2 SUB PUSH2 0x17F JUMPI PUSH32 0x3C6E1D5853DE5B39BF9747963B05B9460E59A375D4CD59B3C3DAFFC201CF7F22 SWAP3 PUSH1 0x20 SWAP3 PUSH2 0x16A PUSH2 0x771 JUMP JUMPDEST PUSH1 0xFF NOT DUP2 SLOAD AND PUSH1 0xFF DUP5 AND OR SWAP1 SSTORE MLOAD SWAP1 DUP2 MSTORE LOG1 DUP1 RETURN JUMPDEST DUP4 DUP1 REVERT JUMPDEST DUP3 DUP1 REVERT JUMPDEST POP SWAP1 CALLVALUE PUSH2 0x183 JUMPI PUSH1 0x20 CALLDATASIZE PUSH1 0x3 NOT ADD SLT PUSH2 0x183 JUMPI PUSH32 0x2CFED7AC4BE4A0009EF1AF32EA2DE149E0122938CB9AA4B3F7DF3BE6DA1055E9 SWAP2 CALLDATALOAD PUSH2 0x1C5 PUSH2 0x771 JUMP JUMPDEST PUSH1 0x3 SLOAD SWAP1 DUP1 PUSH1 0x3 SSTORE DUP3 MLOAD SWAP2 DUP3 MSTORE PUSH1 0x20 DUP3 ADD MSTORE LOG1 DUP1 RETURN JUMPDEST DUP3 DUP5 CALLVALUE PUSH2 0x236 JUMPI DUP1 PUSH1 0x3 NOT CALLDATASIZE ADD SLT PUSH2 0x236 JUMPI PUSH1 0xFF PUSH1 0x80 DUP4 PUSH2 0x1FA PUSH2 0xB51 JUMP JUMPDEST SWAP1 SWAP2 SWAP3 DUP1 MLOAD SWAP6 DUP7 SWAP5 AND DUP5 MSTORE PUSH1 0x60 PUSH1 0x20 DUP6 ADD MSTORE PUSH2 0x225 DUP4 MLOAD DUP1 SWAP5 DUP2 PUSH1 0x60 DUP9 ADD MSTORE PUSH1 0x20 DUP9 DUP9 ADD SWAP2 ADD PUSH2 0x6D4 JUMP JUMPDEST DUP4 ADD MSTORE PUSH1 0x1F ADD PUSH1 0x1F NOT AND DUP2 ADD SUB ADD SWAP1 RETURN JUMPDEST DUP1 REVERT JUMPDEST POP POP CALLVALUE PUSH2 0x274 JUMPI DUP2 PUSH1 0x3 NOT CALLDATASIZE ADD SLT PUSH2 0x274 JUMPI PUSH1 0x20 SWAP1 MLOAD PUSH32 0x65D7A28E3265B37A6474929F336521B332C1681B933F6CB9F3376673440D862A DUP2 MSTORE RETURN JUMPDEST POP DUP1 REVERT JUMPDEST DUP3 DUP5 CALLVALUE PUSH2 0x236 JUMPI DUP1 PUSH1 0x3 NOT CALLDATASIZE ADD SLT PUSH2 0x236 JUMPI POP PUSH2 0x293 PUSH2 0xA9E JUMP JUMPDEST DUP3 MLOAD SWAP2 DUP3 MSTORE ISZERO ISZERO PUSH1 0x20 DUP3 ADD MSTORE RETURN JUMPDEST POP POP CALLVALUE PUSH2 0x274 JUMPI DUP2 PUSH1 0x3 NOT CALLDATASIZE ADD SLT PUSH2 0x274 JUMPI PUSH1 0x20 SWAP1 PUSH1 0x2 SLOAD SWAP1 MLOAD SWAP1 DUP2 MSTORE RETURN JUMPDEST POP SWAP1 CALLVALUE PUSH2 0x183 JUMPI DUP1 PUSH1 0x3 NOT CALLDATASIZE ADD SLT PUSH2 0x183 JUMPI PUSH2 0x2FA SWAP2 CALLDATALOAD PUSH2 0x2F5 PUSH1 0x1 PUSH2 0x2E4 PUSH2 0x6B9 JUMP JUMPDEST SWAP4 DUP4 DUP8 MSTORE DUP7 PUSH1 0x20 MSTORE DUP7 KECCAK256 ADD SLOAD PUSH2 0x7CD JUMP JUMPDEST PUSH2 0x871 JUMP JUMPDEST POP DUP1 RETURN JUMPDEST POP SWAP2 CALLVALUE PUSH2 0x236 JUMPI DUP1 PUSH1 0x3 NOT CALLDATASIZE ADD SLT PUSH2 0x236 JUMPI POP PUSH1 0xFF PUSH1 0x20 SWAP3 SLOAD AND SWAP1 MLOAD SWAP1 ISZERO ISZERO DUP2 MSTORE RETURN JUMPDEST POP SWAP1 CALLVALUE PUSH2 0x183 JUMPI PUSH1 0x20 CALLDATASIZE PUSH1 0x3 NOT ADD SLT PUSH2 0x183 JUMPI PUSH32 0x1C1AE796FC41A2F7B042D5B4B9F7A0F7EEE2169BC11E7BA0B3672CFA44F3D0C1 SWAP2 CALLDATALOAD PUSH2 0x35F PUSH2 0x771 JUMP JUMPDEST PUSH1 0x2 SLOAD SWAP1 DUP1 PUSH1 0x2 SSTORE DUP3 MLOAD SWAP2 DUP3 MSTORE PUSH1 0x20 DUP3 ADD MSTORE LOG1 DUP1 RETURN JUMPDEST POP POP CALLVALUE PUSH2 0x274 JUMPI DUP2 PUSH1 0x3 NOT CALLDATASIZE ADD SLT PUSH2 0x274 JUMPI PUSH1 0x20 SWAP1 MLOAD PUSH32 0x7935BD0AE54BC31F548C14DBA4D37C5C64B3F8CA900CB468FB8ABD54D5894F55 DUP2 MSTORE RETURN JUMPDEST POP POP CALLVALUE PUSH2 0x274 JUMPI DUP2 PUSH1 0x3 NOT CALLDATASIZE ADD SLT PUSH2 0x274 JUMPI PUSH1 0x20 SWAP1 PUSH1 0x3 SLOAD SWAP1 MLOAD SWAP1 DUP2 MSTORE RETURN JUMPDEST POP POP CALLVALUE PUSH2 0x274 JUMPI DUP2 PUSH1 0x3 NOT CALLDATASIZE ADD SLT PUSH2 0x274 JUMPI MLOAD SWAP1 DUP2 MSTORE PUSH1 0x20 SWAP1 RETURN JUMPDEST POP POP CALLVALUE PUSH2 0x274 JUMPI DUP2 PUSH1 0x3 NOT CALLDATASIZE ADD SLT PUSH2 0x274 JUMPI PUSH1 0x20 SWAP1 PUSH2 0x407 PUSH2 0x9A9 JUMP JUMPDEST SWAP1 MLOAD SWAP1 DUP2 MSTORE RETURN JUMPDEST POP CALLVALUE PUSH2 0x183 JUMPI DUP2 PUSH1 0x3 NOT CALLDATASIZE ADD SLT PUSH2 0x183 JUMPI DUP2 PUSH1 0x20 SWAP4 PUSH1 0xFF SWAP3 PUSH2 0x42E PUSH2 0x6B9 JUMP JUMPDEST SWAP1 CALLDATALOAD DUP3 MSTORE DUP2 DUP7 MSTORE DUP3 DUP3 KECCAK256 PUSH1 0x1 PUSH1 0x1 PUSH1 0xA0 SHL SUB SWAP1 SWAP2 AND DUP3 MSTORE DUP6 MSTORE KECCAK256 SLOAD SWAP2 MLOAD SWAP2 AND ISZERO ISZERO DUP2 MSTORE RETURN JUMPDEST POP CALLVALUE PUSH2 0x183 JUMPI DUP3 PUSH1 0x3 NOT CALLDATASIZE ADD SLT PUSH2 0x183 JUMPI PUSH2 0x46C PUSH2 0x6F7 JUMP JUMPDEST PUSH1 0x1 SLOAD SWAP1 PUSH1 0xFF DUP3 AND PUSH2 0x4B0 JUMPI POP PUSH32 0x62E78CEA01BEE320CD4E420270B5EA74000D11B0C9F74754EBDBFC544B05A258 SWAP2 PUSH1 0x1 PUSH1 0x20 SWAP3 PUSH1 0xFF NOT AND OR PUSH1 0x1 SSTORE MLOAD CALLER DUP2 MSTORE LOG1 DUP1 RETURN JUMPDEST DUP3 MLOAD PUSH4 0xD93C0665 PUSH1 0xE0 SHL DUP2 MSTORE REVERT JUMPDEST POP POP CALLVALUE PUSH2 0x274 JUMPI DUP2 PUSH1 0x3 NOT CALLDATASIZE ADD SLT PUSH2 0x274 JUMPI PUSH1 0x1 SLOAD SWAP1 MLOAD PUSH1 0x8 SWAP2 SWAP1 SWAP2 SHR PUSH1 0x1 PUSH1 0x1 PUSH1 0xA0 SHL SUB AND DUP2 MSTORE PUSH1 0x20 SWAP1 RETURN JUMPDEST DUP4 DUP3 CALLVALUE PUSH2 0x274 JUMPI PUSH1 0x20 CALLDATASIZE PUSH1 0x3 NOT ADD SLT PUSH2 0x274 JUMPI CALLDATALOAD PUSH1 0x1 PUSH1 0x1 PUSH1 0xA0 SHL SUB DUP2 AND DUP2 SUB PUSH2 0x274 JUMPI PUSH2 0x517 PUSH2 0x771 JUMP JUMPDEST PUSH1 0x1 DUP1 SLOAD PUSH2 0x100 PUSH1 0x1 PUSH1 0xA8 SHL SUB NOT AND PUSH1 0x8 SWAP3 SWAP1 SWAP3 SHL PUSH2 0x100 PUSH1 0x1 PUSH1 0xA8 SHL SUB AND SWAP2 SWAP1 SWAP2 OR SWAP1 SSTORE DUP1 RETURN JUMPDEST POP POP CALLVALUE PUSH2 0x274 JUMPI DUP2 PUSH1 0x3 NOT CALLDATASIZE ADD SLT PUSH2 0x274 JUMPI PUSH1 0x20 SWAP1 PUSH1 0xFF PUSH1 0x1 SLOAD AND SWAP1 MLOAD SWAP1 ISZERO ISZERO DUP2 MSTORE RETURN JUMPDEST POP CALLVALUE PUSH2 0x183 JUMPI DUP3 PUSH1 0x3 NOT CALLDATASIZE ADD SLT PUSH2 0x183 JUMPI PUSH2 0x57C PUSH2 0x6F7 JUMP JUMPDEST PUSH1 0x1 SLOAD SWAP1 PUSH1 0xFF DUP3 AND ISZERO PUSH2 0x5BE JUMPI POP PUSH1 0xFF NOT AND PUSH1 0x1 SSTORE MLOAD CALLER DUP2 MSTORE PUSH32 0x5DB9EE0A495BF2E6FF9C91A7834C1BA4FDD244A5E8AA4E537BD38AEAE4B073AA SWAP1 PUSH1 0x20 SWAP1 LOG1 DUP1 RETURN JUMPDEST DUP3 MLOAD PUSH4 0x8DFC202B PUSH1 0xE0 SHL DUP2 MSTORE REVERT JUMPDEST POP SWAP2 SWAP1 CALLVALUE PUSH2 0x274 JUMPI DUP1 PUSH1 0x3 NOT CALLDATASIZE ADD SLT PUSH2 0x274 JUMPI PUSH2 0x5E7 PUSH2 0x6B9 JUMP JUMPDEST SWAP1 CALLER PUSH1 0x1 PUSH1 0x1 PUSH1 0xA0 SHL SUB DUP4 AND SUB PUSH2 0x604 JUMPI POP PUSH2 0x2FA SWAP2 SWAP3 CALLDATALOAD PUSH2 0x871 JUMP JUMPDEST MLOAD PUSH4 0x334BD919 PUSH1 0xE1 SHL DUP2 MSTORE DUP4 SWAP1 REVERT JUMPDEST POP SWAP1 CALLVALUE PUSH2 0x183 JUMPI DUP1 PUSH1 0x3 NOT CALLDATASIZE ADD SLT PUSH2 0x183 JUMPI PUSH2 0x2FA SWAP2 CALLDATALOAD PUSH2 0x637 PUSH1 0x1 PUSH2 0x2E4 PUSH2 0x6B9 JUMP JUMPDEST PUSH2 0x7F3 JUMP JUMPDEST POP CALLVALUE PUSH2 0x183 JUMPI PUSH1 0x20 CALLDATASIZE PUSH1 0x3 NOT ADD SLT PUSH2 0x183 JUMPI DUP2 PUSH1 0x20 SWAP4 PUSH1 0x1 SWAP3 CALLDATALOAD DUP2 MSTORE DUP1 DUP6 MSTORE KECCAK256 ADD SLOAD SWAP1 MLOAD SWAP1 DUP2 MSTORE RETURN JUMPDEST SWAP3 POP POP CALLVALUE PUSH2 0x183 JUMPI PUSH1 0x20 CALLDATASIZE PUSH1 0x3 NOT ADD SLT PUSH2 0x183 JUMPI CALLDATALOAD PUSH4 0xFFFFFFFF PUSH1 0xE0 SHL DUP2 AND DUP1 SWAP2 SUB PUSH2 0x183 JUMPI PUSH1 0x20 SWAP3 POP PUSH4 0x7965DB0B PUSH1 0xE0 SHL DUP2 EQ SWAP1 DUP2 ISZERO PUSH2 0x6A8 JUMPI JUMPDEST POP ISZERO ISZERO DUP2 MSTORE RETURN JUMPDEST PUSH4 0x1FFC9A7 PUSH1 0xE0 SHL EQ SWAP1 POP CODESIZE PUSH2 0x6A1 JUMP JUMPDEST PUSH1 0x24 CALLDATALOAD SWAP1 PUSH1 0x1 PUSH1 0x1 PUSH1 0xA0 SHL SUB DUP3 AND DUP3 SUB PUSH2 0x6CF JUMPI JUMP JUMPDEST PUSH1 0x0 DUP1 REVERT JUMPDEST PUSH1 0x0 JUMPDEST DUP4 DUP2 LT PUSH2 0x6E7 JUMPI POP POP PUSH1 0x0 SWAP2 ADD MSTORE JUMP JUMPDEST DUP2 DUP2 ADD MLOAD DUP4 DUP3 ADD MSTORE PUSH1 0x20 ADD PUSH2 0x6D7 JUMP JUMPDEST CALLER PUSH1 0x0 SWAP1 DUP2 MSTORE PUSH32 0xF7C9542C591017A21C74B6F3FAB6263C7952FC0AAF9DB4C22A2A04DDC7F8674F PUSH1 0x20 MSTORE PUSH1 0x40 SWAP1 KECCAK256 SLOAD PUSH32 0x65D7A28E3265B37A6474929F336521B332C1681B933F6CB9F3376673440D862A SWAP1 PUSH1 0xFF AND ISZERO PUSH2 0x753 JUMPI POP JUMP JUMPDEST PUSH1 0x44 SWAP1 PUSH1 0x40 MLOAD SWAP1 PUSH4 0xE2517D3F PUSH1 0xE0 SHL DUP3 MSTORE CALLER PUSH1 0x4 DUP4 ADD MSTORE PUSH1 0x24 DUP3 ADD MSTORE REVERT JUMPDEST CALLER PUSH1 0x0 SWAP1 DUP2 MSTORE PUSH32 0x6F3B488CAA0DC03E5F3D9FD6A25FA8755AFCFD62CCFFB6E436C696BFA6B866DE PUSH1 0x20 MSTORE PUSH1 0x40 SWAP1 KECCAK256 SLOAD PUSH32 0x7935BD0AE54BC31F548C14DBA4D37C5C64B3F8CA900CB468FB8ABD54D5894F55 SWAP1 PUSH1 0xFF AND ISZERO PUSH2 0x753 JUMPI POP JUMP JUMPDEST DUP1 PUSH1 0x0 MSTORE PUSH1 0x0 PUSH1 0x20 MSTORE PUSH1 0x40 PUSH1 0x0 KECCAK256 CALLER PUSH1 0x0 MSTORE PUSH1 0x20 MSTORE PUSH1 0xFF PUSH1 0x40 PUSH1 0x0 KECCAK256 SLOAD AND ISZERO PUSH2 0x753 JUMPI POP JUMP JUMPDEST SWAP1 PUSH1 0x0 SWAP2 DUP1 DUP4 MSTORE DUP3 PUSH1 0x20 MSTORE PUSH1 0x40 DUP4 KECCAK256 SWAP2 PUSH1 0x1 DUP1 PUSH1 0xA0 SHL SUB AND SWAP2 DUP3 DUP5 MSTORE PUSH1 0x20 MSTORE PUSH1 0xFF PUSH1 0x40 DUP5 KECCAK256 SLOAD AND ISZERO PUSH1 0x0 EQ PUSH2 0x86C JUMPI DUP1 DUP4 MSTORE DUP3 PUSH1 0x20 MSTORE PUSH1 0x40 DUP4 KECCAK256 DUP3 DUP5 MSTORE PUSH1 0x20 MSTORE PUSH1 0x40 DUP4 KECCAK256 PUSH1 0x1 PUSH1 0xFF NOT DUP3 SLOAD AND OR SWAP1 SSTORE PUSH32 0x2F8788117E7EFF1D82E926EC794901D17C78024A50270940304540A733656F0D CALLER SWAP4 DUP1 LOG4 PUSH1 0x1 SWAP1 JUMP JUMPDEST POP POP SWAP1 JUMP JUMPDEST SWAP1 PUSH1 0x0 SWAP2 DUP1 DUP4 MSTORE DUP3 PUSH1 0x20 MSTORE PUSH1 0x40 DUP4 KECCAK256 SWAP2 PUSH1 0x1 DUP1 PUSH1 0xA0 SHL SUB AND SWAP2 DUP3 DUP5 MSTORE PUSH1 0x20 MSTORE PUSH1 0xFF PUSH1 0x40 DUP5 KECCAK256 SLOAD AND PUSH1 0x0 EQ PUSH2 0x86C JUMPI DUP1 DUP4 MSTORE DUP3 PUSH1 0x20 MSTORE PUSH1 0x40 DUP4 KECCAK256 DUP3 DUP5 MSTORE PUSH1 0x20 MSTORE PUSH1 0x40 DUP4 KECCAK256 PUSH1 0xFF NOT DUP2 SLOAD AND SWAP1 SSTORE PUSH32 0xF6391F5C32D9C69D2A47EA670B442974B53935D1EDC7FD64EB21E047A839171B CALLER SWAP4 DUP1 LOG4 PUSH1 0x1 SWAP1 JUMP JUMPDEST PUSH1 0x40 DUP2 ADD SWAP1 DUP2 LT PUSH8 0xFFFFFFFFFFFFFFFF DUP3 GT OR PUSH2 0x902 JUMPI PUSH1 0x40 MSTORE JUMP JUMPDEST PUSH4 0x4E487B71 PUSH1 0xE0 SHL PUSH1 0x0 MSTORE PUSH1 0x41 PUSH1 0x4 MSTORE PUSH1 0x24 PUSH1 0x0 REVERT JUMPDEST SWAP1 PUSH1 0x1F DUP1 NOT SWAP2 ADD AND DUP2 ADD SWAP1 DUP2 LT PUSH8 0xFFFFFFFFFFFFFFFF DUP3 GT OR PUSH2 0x902 JUMPI PUSH1 0x40 MSTORE JUMP JUMPDEST MLOAD SWAP1 PUSH10 0xFFFFFFFFFFFFFFFFFFFF DUP3 AND DUP3 SUB PUSH2 0x6CF JUMPI JUMP JUMPDEST SWAP1 DUP2 PUSH1 0xA0 SWAP2 SUB SLT PUSH2 0x6CF JUMPI PUSH2 0x965 DUP2 PUSH2 0x93A JUMP JUMPDEST SWAP2 PUSH1 0x20 DUP3 ADD MLOAD SWAP2 PUSH1 0x40 DUP2 ADD MLOAD SWAP2 PUSH2 0x983 PUSH1 0x80 PUSH1 0x60 DUP5 ADD MLOAD SWAP4 ADD PUSH2 0x93A JUMP JUMPDEST SWAP1 JUMP JUMPDEST SWAP2 SWAP1 DUP3 SUB SWAP2 DUP3 GT PUSH2 0x993 JUMPI JUMP JUMPDEST PUSH4 0x4E487B71 PUSH1 0xE0 SHL PUSH1 0x0 MSTORE PUSH1 0x11 PUSH1 0x4 MSTORE PUSH1 0x24 PUSH1 0x0 REVERT JUMPDEST PUSH1 0xFF PUSH1 0x4 SLOAD AND DUP1 ISZERO PUSH2 0xA88 JUMPI JUMPDEST PUSH2 0xA82 JUMPI PUSH1 0x1 SLOAD PUSH1 0x40 MLOAD PUSH4 0x3FABE5A3 PUSH1 0xE2 SHL DUP2 MSTORE SWAP1 PUSH1 0xA0 SWAP1 DUP3 SWAP1 PUSH1 0x4 SWAP1 DUP3 SWAP1 PUSH1 0x8 SHR PUSH1 0x1 PUSH1 0x1 PUSH1 0xA0 SHL SUB AND GAS STATICCALL DUP1 PUSH1 0x0 SWAP3 DUP4 SWAP3 PUSH2 0xA4A JUMPI JUMPDEST POP PUSH2 0xA05 JUMPI PUSH1 0x40 MLOAD PUSH4 0x4D571883 PUSH1 0xE0 SHL DUP2 MSTORE PUSH1 0x4 SWAP1 REVERT JUMPDEST PUSH2 0xA0F SWAP1 TIMESTAMP PUSH2 0x986 JUMP JUMPDEST PUSH1 0x3 SLOAD LT PUSH2 0xA38 JUMPI PUSH1 0x0 DUP2 SGT ISZERO PUSH2 0xA27 JUMPI PUSH1 0x64 SWAP1 DIV SWAP1 JUMP JUMPDEST PUSH1 0x40 MLOAD PUSH3 0xBFC921 PUSH1 0xE0 SHL DUP2 MSTORE PUSH1 0x4 SWAP1 REVERT JUMPDEST PUSH1 0x40 MLOAD PUSH4 0xCD5FA07 PUSH1 0xE1 SHL DUP2 MSTORE PUSH1 0x4 SWAP1 REVERT JUMPDEST SWAP1 SWAP3 POP PUSH2 0xA6E SWAP2 POP PUSH1 0xA0 RETURNDATASIZE DUP2 GT PUSH2 0xA7B JUMPI JUMPDEST PUSH2 0xA66 DUP2 DUP4 PUSH2 0x918 JUMP JUMPDEST DUP2 ADD SWAP1 PUSH2 0x951 JUMP JUMPDEST POP SWAP4 SWAP3 POP POP SWAP2 SWAP1 CODESIZE PUSH2 0x9EE JUMP JUMPDEST POP RETURNDATASIZE PUSH2 0xA5C JUMP JUMPDEST PUSH1 0x2 SLOAD SWAP1 JUMP JUMPDEST POP PUSH1 0x1 SLOAD PUSH1 0x8 SHR PUSH1 0x1 PUSH1 0x1 PUSH1 0xA0 SHL SUB AND ISZERO PUSH2 0x9B6 JUMP JUMPDEST PUSH1 0xFF PUSH1 0x4 SLOAD AND DUP1 ISZERO PUSH2 0xB3B JUMPI JUMPDEST PUSH2 0xB32 JUMPI PUSH1 0x1 SLOAD PUSH1 0x40 MLOAD PUSH4 0x3FABE5A3 PUSH1 0xE2 SHL DUP2 MSTORE SWAP2 SWAP1 PUSH1 0xA0 SWAP1 DUP4 SWAP1 PUSH1 0x4 SWAP1 DUP3 SWAP1 PUSH1 0x8 SHR PUSH1 0x1 PUSH1 0x1 PUSH1 0xA0 SHL SUB AND GAS STATICCALL DUP1 PUSH1 0x0 SWAP4 DUP5 SWAP3 PUSH2 0xB0A JUMPI JUMPDEST POP PUSH2 0xAF4 JUMPI POP PUSH1 0x2 SLOAD SWAP2 POP PUSH1 0x1 SWAP1 JUMP JUMPDEST PUSH2 0xB00 PUSH1 0x64 SWAP2 TIMESTAMP PUSH2 0x986 JUMP JUMPDEST PUSH1 0x3 SLOAD LT SWAP3 DIV SWAP2 SWAP1 JUMP JUMPDEST SWAP1 SWAP4 POP PUSH2 0xB25 SWAP2 POP PUSH1 0xA0 RETURNDATASIZE DUP2 GT PUSH2 0xA7B JUMPI PUSH2 0xA66 DUP2 DUP4 PUSH2 0x918 JUMP JUMPDEST POP SWAP5 SWAP3 POP POP SWAP3 SWAP1 CODESIZE PUSH2 0xAE4 JUMP JUMPDEST PUSH1 0x2 SLOAD SWAP1 PUSH1 0x0 SWAP1 JUMP JUMPDEST POP PUSH1 0x1 SLOAD PUSH1 0x8 SHR PUSH1 0x1 PUSH1 0x1 PUSH1 0xA0 SHL SUB AND ISZERO PUSH2 0xAAB JUMP JUMPDEST PUSH1 0x1 SLOAD PUSH1 0x8 SHR PUSH1 0x1 PUSH1 0x1 PUSH1 0xA0 SHL SUB AND SWAP1 DUP2 ISZERO PUSH2 0xD46 JUMPI PUSH1 0x40 SWAP2 DUP3 MLOAD PUSH4 0x313CE567 PUSH1 0xE0 SHL DUP2 MSTORE PUSH1 0x20 SWAP2 DUP3 DUP3 PUSH1 0x4 DUP2 DUP5 GAS STATICCALL PUSH1 0x0 SWAP3 DUP2 PUSH2 0xD0B JUMPI JUMPDEST POP PUSH2 0xBC2 JUMPI POP POP PUSH18 0x125B9D985B1A59081C1C9A58D94819995959 PUSH1 0x72 SHL PUSH1 0x0 SWAP4 MLOAD SWAP2 PUSH2 0xBB5 DUP4 PUSH2 0x8E6 JUMP JUMPDEST PUSH1 0x12 DUP4 MSTORE DUP3 ADD MSTORE SWAP1 PUSH1 0x0 SWAP1 JUMP JUMPDEST DUP5 MLOAD PUSH4 0x3942720B PUSH1 0xE1 SHL DUP2 MSTORE SWAP1 PUSH1 0x0 DUP3 PUSH1 0x4 DUP2 DUP5 GAS STATICCALL PUSH1 0x0 SWAP3 DUP2 PUSH2 0xC75 JUMPI JUMPDEST POP PUSH2 0xC0D JUMPI POP POP PUSH7 0x2AB735B737BBB7 PUSH1 0xC9 SHL SWAP1 SWAP4 MLOAD SWAP2 PUSH2 0xC00 DUP4 PUSH2 0x8E6 JUMP JUMPDEST PUSH1 0x7 DUP4 MSTORE DUP3 ADD MSTORE SWAP1 PUSH1 0x0 SWAP1 JUMP JUMPDEST SWAP3 PUSH1 0x4 SWAP3 SWAP4 DUP2 SWAP3 SWAP7 MLOAD SWAP4 DUP5 DUP1 SWAP3 PUSH4 0x54FD4D5 PUSH1 0xE4 SHL DUP3 MSTORE GAS STATICCALL SWAP2 DUP3 SWAP2 PUSH1 0x0 SWAP4 PUSH2 0xC44 JUMPI JUMPDEST POP POP PUSH2 0xC3F JUMPI POP SWAP2 SWAP1 PUSH1 0x0 SWAP1 JUMP JUMPDEST SWAP1 SWAP3 SWAP2 JUMP JUMPDEST DUP2 DUP2 SWAP5 SWAP3 SWAP4 SWAP5 RETURNDATASIZE DUP4 GT PUSH2 0xC6E JUMPI JUMPDEST PUSH2 0xC5C DUP2 DUP4 PUSH2 0x918 JUMP JUMPDEST DUP2 ADD SUB SLT PUSH2 0x236 JUMPI POP MLOAD SWAP1 CODESIZE DUP1 PUSH2 0xC31 JUMP JUMPDEST POP RETURNDATASIZE PUSH2 0xC52 JUMP JUMPDEST SWAP3 SWAP1 SWAP3 RETURNDATASIZE DUP1 DUP4 DUP4 RETURNDATACOPY PUSH2 0xC87 DUP2 DUP4 PUSH2 0x918 JUMP JUMPDEST DUP2 ADD SWAP2 DUP7 DUP3 DUP5 SUB SLT PUSH2 0x236 JUMPI DUP2 MLOAD PUSH8 0xFFFFFFFFFFFFFFFF SWAP3 DUP4 DUP3 GT PUSH2 0x183 JUMPI ADD SWAP1 DUP4 PUSH1 0x1F DUP4 ADD SLT ISZERO PUSH2 0x236 JUMPI DUP2 MLOAD SWAP3 DUP4 GT PUSH2 0xCF7 JUMPI DUP10 MLOAD SWAP4 PUSH2 0xCD2 PUSH1 0x1F DUP6 ADD PUSH1 0x1F NOT AND DUP11 ADD DUP7 PUSH2 0x918 JUMP JUMPDEST DUP4 DUP6 MSTORE DUP9 DUP5 DUP5 ADD ADD GT PUSH2 0x236 JUMPI POP SWAP1 PUSH2 0xCF0 SWAP2 DUP8 DUP1 DUP6 ADD SWAP2 ADD PUSH2 0x6D4 JUMP JUMPDEST SWAP2 CODESIZE PUSH2 0xBE1 JUMP JUMPDEST PUSH4 0x4E487B71 PUSH1 0xE0 SHL DUP2 MSTORE PUSH1 0x41 PUSH1 0x4 MSTORE PUSH1 0x24 SWAP1 REVERT JUMPDEST DUP5 DUP2 DUP2 SWAP6 SWAP4 SWAP6 RETURNDATASIZE DUP4 GT PUSH2 0xD3F JUMPI JUMPDEST PUSH2 0xD23 DUP2 DUP4 PUSH2 0x918 JUMP JUMPDEST DUP2 ADD SUB SLT PUSH2 0x274 JUMPI MLOAD SWAP1 PUSH1 0xFF DUP3 AND DUP3 SUB PUSH2 0x236 JUMPI POP SWAP2 CODESIZE PUSH2 0xB8A JUMP JUMPDEST POP RETURNDATASIZE PUSH2 0xD19 JUMP JUMPDEST PUSH1 0x40 MLOAD PUSH1 0x0 SWAP3 POP PUSH2 0xD56 DUP2 PUSH2 0x8E6 JUMP JUMPDEST PUSH1 0xD DUP2 MSTORE PUSH13 0x139BC81C1C9A58D94819995959 PUSH1 0x9A SHL PUSH1 0x20 DUP3 ADD MSTORE SWAP1 PUSH1 0x0 SWAP1 JUMP INVALID LOG2 PUSH5 0x6970667358 0x22 SLT KECCAK256 OR SWAP13 0xE7 0xE3 SWAP11 SELFDESTRUCT DUP9 0x5E 0x26 NOT SWAP3 SWAP6 SSTORE 0xB3 CREATE2 SWAP8 0x26 STOP 0xDE PUSH26 0x8301F64273D77F98F9F33E5E64736F6C634300081500332F8788 GT PUSH31 0x7EFF1D82E926EC794901D17C78024A50270940304540A733656F0DAD3228B6 PUSH23 0xF7D3CD4284A5443F17F1962B36E491B30A40B2405849E5 SWAP8 0xBA PUSH0 0xB5 "},"methodIdentifiers":{"DEFAULT_ADMIN_ROLE()":"a217fddf","GOVERNOR_ROLE()":"ccc57490","PAUSER_ROLE()":"e63ab1e9","fallbackPrice()":"e28a1b86","getPrice()":"98d5fdca","getPriceFeedMetadata()":"ebfe2593","getPriceWithStaleness()":"e4f53e85","getRoleAdmin(bytes32)":"248a9ca3","grantRole(bytes32,address)":"2f2ff15d","hasRole(bytes32,address)":"91d14854","pause()":"8456cb59","paused()":"5c975abb","priceFeed()":"741bef1a","renounceRole(bytes32,address)":"36568abe","revokeRole(bytes32,address)":"d547741f","setFallbackMode(bool)":"ff882fbb","setFallbackPrice(uint256)":"ce4391df","setPriceFeed(address)":"724e78da","setStalenessThreshold(uint256)":"fb01e7f2","stalenessThreshold()":"a84f6ebb","supportsInterface(bytes4)":"01ffc9a7","unpause()":"3f4ba83a","useFallback()":"d3a4eb14"}}}}}