{"contracts/EVIXMintRedeemSimple.sol":{"EVIXMintRedeemSimple":{"abi":[{"inputs":[{"internalType":"address","name":"_usdc","type":"address"},{"internalType":"address","name":"_evix","type":"address"},{"internalType":"address","name":"_oracle","type":"address"},{"internalType":"address","name":"initialOwner","type":"address"}],"stateMutability":"nonpayable","type":"constructor"},{"inputs":[{"internalType":"address","name":"owner","type":"address"}],"name":"OwnableInvalidOwner","type":"error"},{"inputs":[{"internalType":"address","name":"account","type":"address"}],"name":"OwnableUnauthorizedAccount","type":"error"},{"anonymous":false,"inputs":[{"indexed":true,"internalType":"address","name":"user","type":"address"},{"indexed":false,"internalType":"uint256","name":"usdcAmount","type":"uint256"},{"indexed":false,"internalType":"uint256","name":"evixMinted","type":"uint256"}],"name":"Mint","type":"event"},{"anonymous":false,"inputs":[{"indexed":true,"internalType":"address","name":"previousOwner","type":"address"},{"indexed":true,"internalType":"address","name":"newOwner","type":"address"}],"name":"OwnershipTransferred","type":"event"},{"anonymous":false,"inputs":[{"indexed":true,"internalType":"address","name":"user","type":"address"},{"indexed":false,"internalType":"uint256","name":"evixAmount","type":"uint256"},{"indexed":false,"internalType":"uint256","name":"usdcRedeemed","type":"uint256"}],"name":"Redeem","type":"event"},{"inputs":[],"name":"evix","outputs":[{"internalType":"contract EVIXToken","name":"","type":"address"}],"stateMutability":"view","type":"function"},{"inputs":[{"internalType":"uint256","name":"usdcAmount","type":"uint256"}],"name":"mint","outputs":[{"internalType":"uint256","name":"","type":"uint256"}],"stateMutability":"nonpayable","type":"function"},{"inputs":[],"name":"mintFee","outputs":[{"internalType":"uint256","name":"","type":"uint256"}],"stateMutability":"view","type":"function"},{"inputs":[],"name":"oracle","outputs":[{"internalType":"contract PriceOracle","name":"","type":"address"}],"stateMutability":"view","type":"function"},{"inputs":[],"name":"owner","outputs":[{"internalType":"address","name":"","type":"address"}],"stateMutability":"view","type":"function"},{"inputs":[{"internalType":"uint256","name":"evixAmount","type":"uint256"}],"name":"redeem","outputs":[{"internalType":"uint256","name":"","type":"uint256"}],"stateMutability":"nonpayable","type":"function"},{"inputs":[],"name":"renounceOwnership","outputs":[],"stateMutability":"nonpayable","type":"function"},{"inputs":[{"internalType":"address","name":"newOwner","type":"address"}],"name":"transferOwnership","outputs":[],"stateMutability":"nonpayable","type":"function"},{"inputs":[],"name":"usdc","outputs":[{"internalType":"contract IERC20","name":"","type":"address"}],"stateMutability":"view","type":"function"},{"inputs":[],"name":"withdrawFees","outputs":[],"stateMutability":"nonpayable","type":"function"}],"evm":{"bytecode":{"linkReferences":{},"object":"60803461011057601f610bb538819003918201601f19168301916001600160401b0383118484101761011557808492608094604052833981010312610110576100478161012b565b9060606100566020830161012b565b916100636040820161012b565b6001600160a01b03929091839161007a910161012b565b169283156100f757600080546001600160a01b03198082168717835560405197909686949385938416907f8be0079c531659141344cd1fd0a4f28419497f9722a3daafe3b4186f6b6457e09080a3601e600455168560015416176001551683600254161760025516906003541617600355610a7590816101408239f35b604051631e4fbdf760e01b815260006004820152602490fd5b600080fd5b634e487b7160e01b600052604160045260246000fd5b51906001600160a01b03821682036101105756fe608060408181526004908136101561001657600080fd5b600092833560e01c90816310567b8a146108945750806313966db5146108765780633e413bee1461084d578063476343ee14610736578063715018a6146106dc5780637dc0d1d0146106b35780638da5cb5b14610687578063a0712d6814610462578063db006a751461012c5763f2fde38b1461009257600080fd5b34610128576020366003190112610128576001600160a01b03823581811693919290849003610124576100c36108b9565b831561010e575050600054826bffffffffffffffffffffffff60a01b821617600055167f8be0079c531659141344cd1fd0a4f28419497f9722a3daafe3b4186f6b6457e0600080a380f35b51631e4fbdf760e01b8152908101849052602490fd5b8480fd5b8280fd5b5034610128576020928360031936011261045f5782359061014e8215156108e5565b60025483516370a0823160e01b8082523382880152956001600160a01b0393929091908416908881602481855afa9081156103b557908691859161042e575b50106103f45781888560035416885192838092634c6afee560e11b82525afa9081156103b55784916103bf575b50670de0b6b3a76400006101dc826101d66101f2941515610972565b886109ae565b046127106101eb8554836109ae565b04906109d7565b96888560015416916024895180948193825230888301525afa9081156103b5579088918591610380575b501061033d57803b15610128578551632770a7eb60e21b815233838201908152602081018790529091849183919082908490829060400103925af18015610333579187918993610320575b50600154875163a9059cbb60e01b815233928101928352602083019390935293949193849216908290869082906040015b03925af191821561031557906102b3926102e8575b50610a01565b815190815282848201527fe5b754fb1abb7f01b499791d0b820ae3b6af3424ac1c59768edb53f4ec31a929823392a251908152f35b6103089150863d881161030e575b6103008183610950565b8101906109e4565b386102ad565b503d6102f6565b8451903d90823e3d90fd5b9361032d61029895610926565b93610267565b86513d85823e3d90fd5b855162461bcd60e51b8152808301899052601760248201527f496e73756666696369656e74207661756c7420555344430000000000000000006044820152606490fd5b8092508a8092503d83116103ae575b6103998183610950565b810103126103aa578790513861021c565b8380fd5b503d61038f565b87513d86823e3d90fd5b90508881813d83116103ed575b6103d68183610950565b810103126103aa5751670de0b6b3a76400006101ba565b503d6103cc565b855162461bcd60e51b81528083018990526014602482015273496e73756666696369656e742062616c616e636560601b6044820152606490fd5b8092508a8092503d8311610458575b6104478183610950565b810103126103aa578590513861018d565b503d61043d565b80fd5b5034610128576020928360031936011261045f578235906104848215156108e5565b6003548351634c6afee560e11b81526001600160a01b03959187908290849082908a165afa90811561067d578391610650575b5080156104c48115610972565b6104dc6127106104d58554886109ae565b04866109d7565b90670de0b6b3a76400009182810292818404149015171561063d5761062a57049485156105f4578287826001541660648851809481936323b872dd60e01b835233898401523060248401528a60448401525af19081156105ea57906105479185916105d35750610a01565b6002541690813b156101285784516340c10f1960e01b815233918101918252602082018790529291829184919082908490829060400103925af190811561031557506105c4575b50815190815282848201527f4c209b5fc8ad50758f13e2e1088ba56a560dff690a1c6fef26394f4c03821c4f823392a251908152f35b6105cd90610926565b3861058e565b6103089150893d8b1161030e576103008183610950565b86513d86823e3d90fd5b845162461bcd60e51b8152808301889052601060248201526f105b5bdd5b9d081d1bdbc81cdb585b1b60821b6044820152606490fd5b634e487b7160e01b845260128352602484fd5b634e487b7160e01b855260118452602485fd5b90508681813d8311610676575b6106678183610950565b810103126101285751386104b7565b503d61065d565b85513d85823e3d90fd5b8382346106af57816003193601126106af57905490516001600160a01b039091168152602090f35b5080fd5b8382346106af57816003193601126106af5760035490516001600160a01b039091168152602090f35b833461045f578060031936011261045f576106f56108b9565b80546001600160a01b03198116825581906001600160a01b03167f8be0079c531659141344cd1fd0a4f28419497f9722a3daafe3b4186f6b6457e08280a380f35b5090346101285782600319360112610128576107506108b9565b60015482516370a0823160e01b8152308382015260209285926001600160a01b0391908216908584602481855afa928315610843578694869461080e575b508554885163a9059cbb60e01b815291166001600160a01b031691810191825260208201939093529193849283919082906040015b03925af1918215610801576107e1935084926107e4575b5050610a01565b80f35b6107fa9250803d1061030e576103008183610950565b38806107da565b50505051903d90823e3d90fd5b8581969295503d831161083c575b6108268183610950565b81010312610124579251859390926107c361078e565b503d61081c565b87513d87823e3d90fd5b8382346106af57816003193601126106af5760015490516001600160a01b039091168152602090f35b50903461012857826003193601126101285760209250549051908152f35b8490346106af57816003193601126106af576002546001600160a01b03168152602090f35b6000546001600160a01b031633036108cd57565b60405163118cdaa760e01b8152336004820152602490fd5b156108ec57565b60405162461bcd60e51b81526020600482015260126024820152710416d6f756e74206d757374206265203e20360741b6044820152606490fd5b67ffffffffffffffff811161093a57604052565b634e487b7160e01b600052604160045260246000fd5b90601f8019910116810190811067ffffffffffffffff82111761093a57604052565b1561097957565b60405162461bcd60e51b815260206004820152600d60248201526c496e76616c696420707269636560981b6044820152606490fd5b818102929181159184041417156109c157565b634e487b7160e01b600052601160045260246000fd5b919082039182116109c157565b908160209103126109fc575180151581036109fc5790565b600080fd5b15610a0857565b60405162461bcd60e51b815260206004820152600f60248201526e151c985b9cd9995c8819985a5b1959608a1b6044820152606490fdfea26469706673582212203648c57012df2945459d857116f65ec7c8dcaf8fc805bea4d2e737f06d11c3ff64736f6c63430008150033","opcodes":"PUSH1 0x80 CALLVALUE PUSH2 0x110 JUMPI PUSH1 0x1F PUSH2 0xBB5 CODESIZE DUP2 SWAP1 SUB SWAP2 DUP3 ADD PUSH1 0x1F NOT AND DUP4 ADD SWAP2 PUSH1 0x1 PUSH1 0x1 PUSH1 0x40 SHL SUB DUP4 GT DUP5 DUP5 LT OR PUSH2 0x115 JUMPI DUP1 DUP5 SWAP3 PUSH1 0x80 SWAP5 PUSH1 0x40 MSTORE DUP4 CODECOPY DUP2 ADD SUB SLT PUSH2 0x110 JUMPI PUSH2 0x47 DUP2 PUSH2 0x12B JUMP JUMPDEST SWAP1 PUSH1 0x60 PUSH2 0x56 PUSH1 0x20 DUP4 ADD PUSH2 0x12B JUMP JUMPDEST SWAP2 PUSH2 0x63 PUSH1 0x40 DUP3 ADD PUSH2 0x12B JUMP JUMPDEST PUSH1 0x1 PUSH1 0x1 PUSH1 0xA0 SHL SUB SWAP3 SWAP1 SWAP2 DUP4 SWAP2 PUSH2 0x7A SWAP2 ADD PUSH2 0x12B JUMP JUMPDEST AND SWAP3 DUP4 ISZERO PUSH2 0xF7 JUMPI PUSH1 0x0 DUP1 SLOAD PUSH1 0x1 PUSH1 0x1 PUSH1 0xA0 SHL SUB NOT DUP1 DUP3 AND DUP8 OR DUP4 SSTORE PUSH1 0x40 MLOAD SWAP8 SWAP1 SWAP7 DUP7 SWAP5 SWAP4 DUP6 SWAP4 DUP5 AND SWAP1 PUSH32 0x8BE0079C531659141344CD1FD0A4F28419497F9722A3DAAFE3B4186F6B6457E0 SWAP1 DUP1 LOG3 PUSH1 0x1E PUSH1 0x4 SSTORE AND DUP6 PUSH1 0x1 SLOAD AND OR PUSH1 0x1 SSTORE AND DUP4 PUSH1 0x2 SLOAD AND OR PUSH1 0x2 SSTORE AND SWAP1 PUSH1 0x3 SLOAD AND OR PUSH1 0x3 SSTORE PUSH2 0xA75 SWAP1 DUP2 PUSH2 0x140 DUP3 CODECOPY RETURN JUMPDEST PUSH1 0x40 MLOAD PUSH4 0x1E4FBDF7 PUSH1 0xE0 SHL DUP2 MSTORE PUSH1 0x0 PUSH1 0x4 DUP3 ADD MSTORE PUSH1 0x24 SWAP1 REVERT JUMPDEST PUSH1 0x0 DUP1 REVERT JUMPDEST PUSH4 0x4E487B71 PUSH1 0xE0 SHL PUSH1 0x0 MSTORE PUSH1 0x41 PUSH1 0x4 MSTORE PUSH1 0x24 PUSH1 0x0 REVERT JUMPDEST MLOAD SWAP1 PUSH1 0x1 PUSH1 0x1 PUSH1 0xA0 SHL SUB DUP3 AND DUP3 SUB PUSH2 0x110 JUMPI JUMP INVALID PUSH1 0x80 PUSH1 0x40 DUP2 DUP2 MSTORE PUSH1 0x4 SWAP1 DUP2 CALLDATASIZE LT ISZERO PUSH2 0x16 JUMPI PUSH1 0x0 DUP1 REVERT JUMPDEST PUSH1 0x0 SWAP3 DUP4 CALLDATALOAD PUSH1 0xE0 SHR SWAP1 DUP2 PUSH4 0x10567B8A EQ PUSH2 0x894 JUMPI POP DUP1 PUSH4 0x13966DB5 EQ PUSH2 0x876 JUMPI DUP1 PUSH4 0x3E413BEE EQ PUSH2 0x84D JUMPI DUP1 PUSH4 0x476343EE EQ PUSH2 0x736 JUMPI DUP1 PUSH4 0x715018A6 EQ PUSH2 0x6DC JUMPI DUP1 PUSH4 0x7DC0D1D0 EQ PUSH2 0x6B3 JUMPI DUP1 PUSH4 0x8DA5CB5B EQ PUSH2 0x687 JUMPI DUP1 PUSH4 0xA0712D68 EQ PUSH2 0x462 JUMPI DUP1 PUSH4 0xDB006A75 EQ PUSH2 0x12C JUMPI PUSH4 0xF2FDE38B EQ PUSH2 0x92 JUMPI PUSH1 0x0 DUP1 REVERT JUMPDEST CALLVALUE PUSH2 0x128 JUMPI PUSH1 0x20 CALLDATASIZE PUSH1 0x3 NOT ADD SLT PUSH2 0x128 JUMPI PUSH1 0x1 PUSH1 0x1 PUSH1 0xA0 SHL SUB DUP3 CALLDATALOAD DUP2 DUP2 AND SWAP4 SWAP2 SWAP3 SWAP1 DUP5 SWAP1 SUB PUSH2 0x124 JUMPI PUSH2 0xC3 PUSH2 0x8B9 JUMP JUMPDEST DUP4 ISZERO PUSH2 0x10E JUMPI POP POP PUSH1 0x0 SLOAD DUP3 PUSH12 0xFFFFFFFFFFFFFFFFFFFFFFFF PUSH1 0xA0 SHL DUP3 AND OR PUSH1 0x0 SSTORE AND PUSH32 0x8BE0079C531659141344CD1FD0A4F28419497F9722A3DAAFE3B4186F6B6457E0 PUSH1 0x0 DUP1 LOG3 DUP1 RETURN JUMPDEST MLOAD PUSH4 0x1E4FBDF7 PUSH1 0xE0 SHL DUP2 MSTORE SWAP1 DUP2 ADD DUP5 SWAP1 MSTORE PUSH1 0x24 SWAP1 REVERT JUMPDEST DUP5 DUP1 REVERT JUMPDEST DUP3 DUP1 REVERT JUMPDEST POP CALLVALUE PUSH2 0x128 JUMPI PUSH1 0x20 SWAP3 DUP4 PUSH1 0x3 NOT CALLDATASIZE ADD SLT PUSH2 0x45F JUMPI DUP3 CALLDATALOAD SWAP1 PUSH2 0x14E DUP3 ISZERO ISZERO PUSH2 0x8E5 JUMP JUMPDEST PUSH1 0x2 SLOAD DUP4 MLOAD PUSH4 0x70A08231 PUSH1 0xE0 SHL DUP1 DUP3 MSTORE CALLER DUP3 DUP9 ADD MSTORE SWAP6 PUSH1 0x1 PUSH1 0x1 PUSH1 0xA0 SHL SUB SWAP4 SWAP3 SWAP1 SWAP2 SWAP1 DUP5 AND SWAP1 DUP9 DUP2 PUSH1 0x24 DUP2 DUP6 GAS STATICCALL SWAP1 DUP2 ISZERO PUSH2 0x3B5 JUMPI SWAP1 DUP7 SWAP2 DUP6 SWAP2 PUSH2 0x42E JUMPI JUMPDEST POP LT PUSH2 0x3F4 JUMPI DUP2 DUP9 DUP6 PUSH1 0x3 SLOAD AND DUP9 MLOAD SWAP3 DUP4 DUP1 SWAP3 PUSH4 0x4C6AFEE5 PUSH1 0xE1 SHL DUP3 MSTORE GAS STATICCALL SWAP1 DUP2 ISZERO PUSH2 0x3B5 JUMPI DUP5 SWAP2 PUSH2 0x3BF JUMPI JUMPDEST POP PUSH8 0xDE0B6B3A7640000 PUSH2 0x1DC DUP3 PUSH2 0x1D6 PUSH2 0x1F2 SWAP5 ISZERO ISZERO PUSH2 0x972 JUMP JUMPDEST DUP9 PUSH2 0x9AE JUMP JUMPDEST DIV PUSH2 0x2710 PUSH2 0x1EB DUP6 SLOAD DUP4 PUSH2 0x9AE JUMP JUMPDEST DIV SWAP1 PUSH2 0x9D7 JUMP JUMPDEST SWAP7 DUP9 DUP6 PUSH1 0x1 SLOAD AND SWAP2 PUSH1 0x24 DUP10 MLOAD DUP1 SWAP5 DUP2 SWAP4 DUP3 MSTORE ADDRESS DUP9 DUP4 ADD MSTORE GAS STATICCALL SWAP1 DUP2 ISZERO PUSH2 0x3B5 JUMPI SWAP1 DUP9 SWAP2 DUP6 SWAP2 PUSH2 0x380 JUMPI JUMPDEST POP LT PUSH2 0x33D JUMPI DUP1 EXTCODESIZE ISZERO PUSH2 0x128 JUMPI DUP6 MLOAD PUSH4 0x2770A7EB PUSH1 0xE2 SHL DUP2 MSTORE CALLER DUP4 DUP3 ADD SWAP1 DUP2 MSTORE PUSH1 0x20 DUP2 ADD DUP8 SWAP1 MSTORE SWAP1 SWAP2 DUP5 SWAP2 DUP4 SWAP2 SWAP1 DUP3 SWAP1 DUP5 SWAP1 DUP3 SWAP1 PUSH1 0x40 ADD SUB SWAP3 GAS CALL DUP1 ISZERO PUSH2 0x333 JUMPI SWAP2 DUP8 SWAP2 DUP10 SWAP4 PUSH2 0x320 JUMPI JUMPDEST POP PUSH1 0x1 SLOAD DUP8 MLOAD PUSH4 0xA9059CBB PUSH1 0xE0 SHL DUP2 MSTORE CALLER SWAP3 DUP2 ADD SWAP3 DUP4 MSTORE PUSH1 0x20 DUP4 ADD SWAP4 SWAP1 SWAP4 MSTORE SWAP4 SWAP5 SWAP2 SWAP4 DUP5 SWAP3 AND SWAP1 DUP3 SWAP1 DUP7 SWAP1 DUP3 SWAP1 PUSH1 0x40 ADD JUMPDEST SUB SWAP3 GAS CALL SWAP2 DUP3 ISZERO PUSH2 0x315 JUMPI SWAP1 PUSH2 0x2B3 SWAP3 PUSH2 0x2E8 JUMPI JUMPDEST POP PUSH2 0xA01 JUMP JUMPDEST DUP2 MLOAD SWAP1 DUP2 MSTORE DUP3 DUP5 DUP3 ADD MSTORE PUSH32 0xE5B754FB1ABB7F01B499791D0B820AE3B6AF3424AC1C59768EDB53F4EC31A929 DUP3 CALLER SWAP3 LOG2 MLOAD SWAP1 DUP2 MSTORE RETURN JUMPDEST PUSH2 0x308 SWAP2 POP DUP7 RETURNDATASIZE DUP9 GT PUSH2 0x30E JUMPI JUMPDEST PUSH2 0x300 DUP2 DUP4 PUSH2 0x950 JUMP JUMPDEST DUP2 ADD SWAP1 PUSH2 0x9E4 JUMP JUMPDEST CODESIZE PUSH2 0x2AD JUMP JUMPDEST POP RETURNDATASIZE PUSH2 0x2F6 JUMP JUMPDEST DUP5 MLOAD SWAP1 RETURNDATASIZE SWAP1 DUP3 RETURNDATACOPY RETURNDATASIZE SWAP1 REVERT JUMPDEST SWAP4 PUSH2 0x32D PUSH2 0x298 SWAP6 PUSH2 0x926 JUMP JUMPDEST SWAP4 PUSH2 0x267 JUMP JUMPDEST DUP7 MLOAD RETURNDATASIZE DUP6 DUP3 RETURNDATACOPY RETURNDATASIZE SWAP1 REVERT JUMPDEST DUP6 MLOAD PUSH3 0x461BCD PUSH1 0xE5 SHL DUP2 MSTORE DUP1 DUP4 ADD DUP10 SWAP1 MSTORE PUSH1 0x17 PUSH1 0x24 DUP3 ADD MSTORE PUSH32 0x496E73756666696369656E74207661756C742055534443000000000000000000 PUSH1 0x44 DUP3 ADD MSTORE PUSH1 0x64 SWAP1 REVERT JUMPDEST DUP1 SWAP3 POP DUP11 DUP1 SWAP3 POP RETURNDATASIZE DUP4 GT PUSH2 0x3AE JUMPI JUMPDEST PUSH2 0x399 DUP2 DUP4 PUSH2 0x950 JUMP JUMPDEST DUP2 ADD SUB SLT PUSH2 0x3AA JUMPI DUP8 SWAP1 MLOAD CODESIZE PUSH2 0x21C JUMP JUMPDEST DUP4 DUP1 REVERT JUMPDEST POP RETURNDATASIZE PUSH2 0x38F JUMP JUMPDEST DUP8 MLOAD RETURNDATASIZE DUP7 DUP3 RETURNDATACOPY RETURNDATASIZE SWAP1 REVERT JUMPDEST SWAP1 POP DUP9 DUP2 DUP2 RETURNDATASIZE DUP4 GT PUSH2 0x3ED JUMPI JUMPDEST PUSH2 0x3D6 DUP2 DUP4 PUSH2 0x950 JUMP JUMPDEST DUP2 ADD SUB SLT PUSH2 0x3AA JUMPI MLOAD PUSH8 0xDE0B6B3A7640000 PUSH2 0x1BA JUMP JUMPDEST POP RETURNDATASIZE PUSH2 0x3CC JUMP JUMPDEST DUP6 MLOAD PUSH3 0x461BCD PUSH1 0xE5 SHL DUP2 MSTORE DUP1 DUP4 ADD DUP10 SWAP1 MSTORE PUSH1 0x14 PUSH1 0x24 DUP3 ADD MSTORE PUSH20 0x496E73756666696369656E742062616C616E6365 PUSH1 0x60 SHL PUSH1 0x44 DUP3 ADD MSTORE PUSH1 0x64 SWAP1 REVERT JUMPDEST DUP1 SWAP3 POP DUP11 DUP1 SWAP3 POP RETURNDATASIZE DUP4 GT PUSH2 0x458 JUMPI JUMPDEST PUSH2 0x447 DUP2 DUP4 PUSH2 0x950 JUMP JUMPDEST DUP2 ADD SUB SLT PUSH2 0x3AA JUMPI DUP6 SWAP1 MLOAD CODESIZE PUSH2 0x18D JUMP JUMPDEST POP RETURNDATASIZE PUSH2 0x43D JUMP JUMPDEST DUP1 REVERT JUMPDEST POP CALLVALUE PUSH2 0x128 JUMPI PUSH1 0x20 SWAP3 DUP4 PUSH1 0x3 NOT CALLDATASIZE ADD SLT PUSH2 0x45F JUMPI DUP3 CALLDATALOAD SWAP1 PUSH2 0x484 DUP3 ISZERO ISZERO PUSH2 0x8E5 JUMP JUMPDEST PUSH1 0x3 SLOAD DUP4 MLOAD PUSH4 0x4C6AFEE5 PUSH1 0xE1 SHL DUP2 MSTORE PUSH1 0x1 PUSH1 0x1 PUSH1 0xA0 SHL SUB SWAP6 SWAP2 DUP8 SWAP1 DUP3 SWAP1 DUP5 SWAP1 DUP3 SWAP1 DUP11 AND GAS STATICCALL SWAP1 DUP2 ISZERO PUSH2 0x67D JUMPI DUP4 SWAP2 PUSH2 0x650 JUMPI JUMPDEST POP DUP1 ISZERO PUSH2 0x4C4 DUP2 ISZERO PUSH2 0x972 JUMP JUMPDEST PUSH2 0x4DC PUSH2 0x2710 PUSH2 0x4D5 DUP6 SLOAD DUP9 PUSH2 0x9AE JUMP JUMPDEST DIV DUP7 PUSH2 0x9D7 JUMP JUMPDEST SWAP1 PUSH8 0xDE0B6B3A7640000 SWAP2 DUP3 DUP2 MUL SWAP3 DUP2 DUP5 DIV EQ SWAP1 ISZERO OR ISZERO PUSH2 0x63D JUMPI PUSH2 0x62A JUMPI DIV SWAP5 DUP6 ISZERO PUSH2 0x5F4 JUMPI DUP3 DUP8 DUP3 PUSH1 0x1 SLOAD AND PUSH1 0x64 DUP9 MLOAD DUP1 SWAP5 DUP2 SWAP4 PUSH4 0x23B872DD PUSH1 0xE0 SHL DUP4 MSTORE CALLER DUP10 DUP5 ADD MSTORE ADDRESS PUSH1 0x24 DUP5 ADD MSTORE DUP11 PUSH1 0x44 DUP5 ADD MSTORE GAS CALL SWAP1 DUP2 ISZERO PUSH2 0x5EA JUMPI SWAP1 PUSH2 0x547 SWAP2 DUP6 SWAP2 PUSH2 0x5D3 JUMPI POP PUSH2 0xA01 JUMP JUMPDEST PUSH1 0x2 SLOAD AND SWAP1 DUP2 EXTCODESIZE ISZERO PUSH2 0x128 JUMPI DUP5 MLOAD PUSH4 0x40C10F19 PUSH1 0xE0 SHL DUP2 MSTORE CALLER SWAP2 DUP2 ADD SWAP2 DUP3 MSTORE PUSH1 0x20 DUP3 ADD DUP8 SWAP1 MSTORE SWAP3 SWAP2 DUP3 SWAP2 DUP5 SWAP2 SWAP1 DUP3 SWAP1 DUP5 SWAP1 DUP3 SWAP1 PUSH1 0x40 ADD SUB SWAP3 GAS CALL SWAP1 DUP2 ISZERO PUSH2 0x315 JUMPI POP PUSH2 0x5C4 JUMPI JUMPDEST POP DUP2 MLOAD SWAP1 DUP2 MSTORE DUP3 DUP5 DUP3 ADD MSTORE PUSH32 0x4C209B5FC8AD50758F13E2E1088BA56A560DFF690A1C6FEF26394F4C03821C4F DUP3 CALLER SWAP3 LOG2 MLOAD SWAP1 DUP2 MSTORE RETURN JUMPDEST PUSH2 0x5CD SWAP1 PUSH2 0x926 JUMP JUMPDEST CODESIZE PUSH2 0x58E JUMP JUMPDEST PUSH2 0x308 SWAP2 POP DUP10 RETURNDATASIZE DUP12 GT PUSH2 0x30E JUMPI PUSH2 0x300 DUP2 DUP4 PUSH2 0x950 JUMP JUMPDEST DUP7 MLOAD RETURNDATASIZE DUP7 DUP3 RETURNDATACOPY RETURNDATASIZE SWAP1 REVERT JUMPDEST DUP5 MLOAD PUSH3 0x461BCD PUSH1 0xE5 SHL DUP2 MSTORE DUP1 DUP4 ADD DUP9 SWAP1 MSTORE PUSH1 0x10 PUSH1 0x24 DUP3 ADD MSTORE PUSH16 0x105B5BDD5B9D081D1BDBC81CDB585B1B PUSH1 0x82 SHL PUSH1 0x44 DUP3 ADD MSTORE PUSH1 0x64 SWAP1 REVERT JUMPDEST PUSH4 0x4E487B71 PUSH1 0xE0 SHL DUP5 MSTORE PUSH1 0x12 DUP4 MSTORE PUSH1 0x24 DUP5 REVERT JUMPDEST PUSH4 0x4E487B71 PUSH1 0xE0 SHL DUP6 MSTORE PUSH1 0x11 DUP5 MSTORE PUSH1 0x24 DUP6 REVERT JUMPDEST SWAP1 POP DUP7 DUP2 DUP2 RETURNDATASIZE DUP4 GT PUSH2 0x676 JUMPI JUMPDEST PUSH2 0x667 DUP2 DUP4 PUSH2 0x950 JUMP JUMPDEST DUP2 ADD SUB SLT PUSH2 0x128 JUMPI MLOAD CODESIZE PUSH2 0x4B7 JUMP JUMPDEST POP RETURNDATASIZE PUSH2 0x65D JUMP JUMPDEST DUP6 MLOAD RETURNDATASIZE DUP6 DUP3 RETURNDATACOPY RETURNDATASIZE SWAP1 REVERT JUMPDEST DUP4 DUP3 CALLVALUE PUSH2 0x6AF JUMPI DUP2 PUSH1 0x3 NOT CALLDATASIZE ADD SLT PUSH2 0x6AF JUMPI SWAP1 SLOAD SWAP1 MLOAD PUSH1 0x1 PUSH1 0x1 PUSH1 0xA0 SHL SUB SWAP1 SWAP2 AND DUP2 MSTORE PUSH1 0x20 SWAP1 RETURN JUMPDEST POP DUP1 REVERT JUMPDEST DUP4 DUP3 CALLVALUE PUSH2 0x6AF JUMPI DUP2 PUSH1 0x3 NOT CALLDATASIZE ADD SLT PUSH2 0x6AF JUMPI PUSH1 0x3 SLOAD SWAP1 MLOAD PUSH1 0x1 PUSH1 0x1 PUSH1 0xA0 SHL SUB SWAP1 SWAP2 AND DUP2 MSTORE PUSH1 0x20 SWAP1 RETURN JUMPDEST DUP4 CALLVALUE PUSH2 0x45F JUMPI DUP1 PUSH1 0x3 NOT CALLDATASIZE ADD SLT PUSH2 0x45F JUMPI PUSH2 0x6F5 PUSH2 0x8B9 JUMP JUMPDEST DUP1 SLOAD PUSH1 0x1 PUSH1 0x1 PUSH1 0xA0 SHL SUB NOT DUP2 AND DUP3 SSTORE DUP2 SWAP1 PUSH1 0x1 PUSH1 0x1 PUSH1 0xA0 SHL SUB AND PUSH32 0x8BE0079C531659141344CD1FD0A4F28419497F9722A3DAAFE3B4186F6B6457E0 DUP3 DUP1 LOG3 DUP1 RETURN JUMPDEST POP SWAP1 CALLVALUE PUSH2 0x128 JUMPI DUP3 PUSH1 0x3 NOT CALLDATASIZE ADD SLT PUSH2 0x128 JUMPI PUSH2 0x750 PUSH2 0x8B9 JUMP JUMPDEST PUSH1 0x1 SLOAD DUP3 MLOAD PUSH4 0x70A08231 PUSH1 0xE0 SHL DUP2 MSTORE ADDRESS DUP4 DUP3 ADD MSTORE PUSH1 0x20 SWAP3 DUP6 SWAP3 PUSH1 0x1 PUSH1 0x1 PUSH1 0xA0 SHL SUB SWAP2 SWAP1 DUP3 AND SWAP1 DUP6 DUP5 PUSH1 0x24 DUP2 DUP6 GAS STATICCALL SWAP3 DUP4 ISZERO PUSH2 0x843 JUMPI DUP7 SWAP5 DUP7 SWAP5 PUSH2 0x80E JUMPI JUMPDEST POP DUP6 SLOAD DUP9 MLOAD PUSH4 0xA9059CBB PUSH1 0xE0 SHL DUP2 MSTORE SWAP2 AND PUSH1 0x1 PUSH1 0x1 PUSH1 0xA0 SHL SUB AND SWAP2 DUP2 ADD SWAP2 DUP3 MSTORE PUSH1 0x20 DUP3 ADD SWAP4 SWAP1 SWAP4 MSTORE SWAP2 SWAP4 DUP5 SWAP3 DUP4 SWAP2 SWAP1 DUP3 SWAP1 PUSH1 0x40 ADD JUMPDEST SUB SWAP3 GAS CALL SWAP2 DUP3 ISZERO PUSH2 0x801 JUMPI PUSH2 0x7E1 SWAP4 POP DUP5 SWAP3 PUSH2 0x7E4 JUMPI JUMPDEST POP POP PUSH2 0xA01 JUMP JUMPDEST DUP1 RETURN JUMPDEST PUSH2 0x7FA SWAP3 POP DUP1 RETURNDATASIZE LT PUSH2 0x30E JUMPI PUSH2 0x300 DUP2 DUP4 PUSH2 0x950 JUMP JUMPDEST CODESIZE DUP1 PUSH2 0x7DA JUMP JUMPDEST POP POP POP MLOAD SWAP1 RETURNDATASIZE SWAP1 DUP3 RETURNDATACOPY RETURNDATASIZE SWAP1 REVERT JUMPDEST DUP6 DUP2 SWAP7 SWAP3 SWAP6 POP RETURNDATASIZE DUP4 GT PUSH2 0x83C JUMPI JUMPDEST PUSH2 0x826 DUP2 DUP4 PUSH2 0x950 JUMP JUMPDEST DUP2 ADD SUB SLT PUSH2 0x124 JUMPI SWAP3 MLOAD DUP6 SWAP4 SWAP1 SWAP3 PUSH2 0x7C3 PUSH2 0x78E JUMP JUMPDEST POP RETURNDATASIZE PUSH2 0x81C JUMP JUMPDEST DUP8 MLOAD RETURNDATASIZE DUP8 DUP3 RETURNDATACOPY RETURNDATASIZE SWAP1 REVERT JUMPDEST DUP4 DUP3 CALLVALUE PUSH2 0x6AF JUMPI DUP2 PUSH1 0x3 NOT CALLDATASIZE ADD SLT PUSH2 0x6AF JUMPI PUSH1 0x1 SLOAD SWAP1 MLOAD PUSH1 0x1 PUSH1 0x1 PUSH1 0xA0 SHL SUB SWAP1 SWAP2 AND DUP2 MSTORE PUSH1 0x20 SWAP1 RETURN JUMPDEST POP SWAP1 CALLVALUE PUSH2 0x128 JUMPI DUP3 PUSH1 0x3 NOT CALLDATASIZE ADD SLT PUSH2 0x128 JUMPI PUSH1 0x20 SWAP3 POP SLOAD SWAP1 MLOAD SWAP1 DUP2 MSTORE RETURN JUMPDEST DUP5 SWAP1 CALLVALUE PUSH2 0x6AF JUMPI DUP2 PUSH1 0x3 NOT CALLDATASIZE ADD SLT PUSH2 0x6AF JUMPI PUSH1 0x2 SLOAD PUSH1 0x1 PUSH1 0x1 PUSH1 0xA0 SHL SUB AND DUP2 MSTORE PUSH1 0x20 SWAP1 RETURN JUMPDEST PUSH1 0x0 SLOAD PUSH1 0x1 PUSH1 0x1 PUSH1 0xA0 SHL SUB AND CALLER SUB PUSH2 0x8CD JUMPI JUMP JUMPDEST PUSH1 0x40 MLOAD PUSH4 0x118CDAA7 PUSH1 0xE0 SHL DUP2 MSTORE CALLER PUSH1 0x4 DUP3 ADD MSTORE PUSH1 0x24 SWAP1 REVERT JUMPDEST ISZERO PUSH2 0x8EC JUMPI JUMP JUMPDEST PUSH1 0x40 MLOAD PUSH3 0x461BCD PUSH1 0xE5 SHL DUP2 MSTORE PUSH1 0x20 PUSH1 0x4 DUP3 ADD MSTORE PUSH1 0x12 PUSH1 0x24 DUP3 ADD MSTORE PUSH18 0x416D6F756E74206D757374206265203E203 PUSH1 0x74 SHL PUSH1 0x44 DUP3 ADD MSTORE PUSH1 0x64 SWAP1 REVERT JUMPDEST PUSH8 0xFFFFFFFFFFFFFFFF DUP2 GT PUSH2 0x93A JUMPI PUSH1 0x40 MSTORE JUMP JUMPDEST PUSH4 0x4E487B71 PUSH1 0xE0 SHL PUSH1 0x0 MSTORE PUSH1 0x41 PUSH1 0x4 MSTORE PUSH1 0x24 PUSH1 0x0 REVERT JUMPDEST SWAP1 PUSH1 0x1F DUP1 NOT SWAP2 ADD AND DUP2 ADD SWAP1 DUP2 LT PUSH8 0xFFFFFFFFFFFFFFFF DUP3 GT OR PUSH2 0x93A JUMPI PUSH1 0x40 MSTORE JUMP JUMPDEST ISZERO PUSH2 0x979 JUMPI JUMP JUMPDEST PUSH1 0x40 MLOAD PUSH3 0x461BCD PUSH1 0xE5 SHL DUP2 MSTORE PUSH1 0x20 PUSH1 0x4 DUP3 ADD MSTORE PUSH1 0xD PUSH1 0x24 DUP3 ADD MSTORE PUSH13 0x496E76616C6964207072696365 PUSH1 0x98 SHL PUSH1 0x44 DUP3 ADD MSTORE PUSH1 0x64 SWAP1 REVERT JUMPDEST DUP2 DUP2 MUL SWAP3 SWAP2 DUP2 ISZERO SWAP2 DUP5 DIV EQ OR ISZERO PUSH2 0x9C1 JUMPI JUMP JUMPDEST PUSH4 0x4E487B71 PUSH1 0xE0 SHL PUSH1 0x0 MSTORE PUSH1 0x11 PUSH1 0x4 MSTORE PUSH1 0x24 PUSH1 0x0 REVERT JUMPDEST SWAP2 SWAP1 DUP3 SUB SWAP2 DUP3 GT PUSH2 0x9C1 JUMPI JUMP JUMPDEST SWAP1 DUP2 PUSH1 0x20 SWAP2 SUB SLT PUSH2 0x9FC JUMPI MLOAD DUP1 ISZERO ISZERO DUP2 SUB PUSH2 0x9FC JUMPI SWAP1 JUMP JUMPDEST PUSH1 0x0 DUP1 REVERT JUMPDEST ISZERO PUSH2 0xA08 JUMPI JUMP JUMPDEST PUSH1 0x40 MLOAD PUSH3 0x461BCD PUSH1 0xE5 SHL DUP2 MSTORE PUSH1 0x20 PUSH1 0x4 DUP3 ADD MSTORE PUSH1 0xF PUSH1 0x24 DUP3 ADD MSTORE PUSH15 0x151C985B9CD9995C8819985A5B1959 PUSH1 0x8A SHL PUSH1 0x44 DUP3 ADD MSTORE PUSH1 0x64 SWAP1 REVERT INVALID LOG2 PUSH5 0x6970667358 0x22 SLT KECCAK256 CALLDATASIZE BASEFEE 0xC5 PUSH17 0x12DF2945459D857116F65EC7C8DCAF8FC8 SDIV 0xBE LOG4 0xD2 0xE7 CALLDATACOPY CREATE PUSH14 0x11C3FF64736F6C63430008150033 "},"methodIdentifiers":{"evix()":"10567b8a","mint(uint256)":"a0712d68","mintFee()":"13966db5","oracle()":"7dc0d1d0","owner()":"8da5cb5b","redeem(uint256)":"db006a75","renounceOwnership()":"715018a6","transferOwnership(address)":"f2fde38b","usdc()":"3e413bee","withdrawFees()":"476343ee"}}}}}