{"contracts/MintRedeemV3.sol":{"MintRedeemV3":{"abi":[{"inputs":[{"internalType":"address","name":"_usdc","type":"address"},{"internalType":"address","name":"_bvix","type":"address"},{"internalType":"address","name":"_oracle","type":"address"},{"internalType":"address","name":"initialOwner","type":"address"}],"stateMutability":"nonpayable","type":"constructor"},{"inputs":[{"internalType":"address","name":"owner","type":"address"}],"name":"OwnableInvalidOwner","type":"error"},{"inputs":[{"internalType":"address","name":"account","type":"address"}],"name":"OwnableUnauthorizedAccount","type":"error"},{"anonymous":false,"inputs":[{"indexed":true,"internalType":"address","name":"user","type":"address"},{"indexed":false,"internalType":"uint256","name":"collateral","type":"uint256"},{"indexed":false,"internalType":"uint256","name":"debt","type":"uint256"}],"name":"Mint","type":"event"},{"anonymous":false,"inputs":[{"indexed":true,"internalType":"address","name":"previousOwner","type":"address"},{"indexed":true,"internalType":"address","name":"newOwner","type":"address"}],"name":"OwnershipTransferred","type":"event"},{"anonymous":false,"inputs":[{"indexed":true,"internalType":"address","name":"user","type":"address"},{"indexed":false,"internalType":"uint256","name":"newCollateral","type":"uint256"},{"indexed":false,"internalType":"uint256","name":"newDebt","type":"uint256"}],"name":"PositionUpdated","type":"event"},{"anonymous":false,"inputs":[{"indexed":true,"internalType":"address","name":"user","type":"address"},{"indexed":false,"internalType":"uint256","name":"debt","type":"uint256"},{"indexed":false,"internalType":"uint256","name":"refunded","type":"uint256"}],"name":"Redeem","type":"event"},{"inputs":[],"name":"asset","outputs":[{"internalType":"address","name":"","type":"address"}],"stateMutability":"view","type":"function"},{"inputs":[],"name":"bvix","outputs":[{"internalType":"contract BVIXToken","name":"","type":"address"}],"stateMutability":"view","type":"function"},{"inputs":[{"internalType":"uint256","name":"collateralAmount","type":"uint256"},{"internalType":"uint256","name":"minDebtAmount","type":"uint256"}],"name":"deposit","outputs":[{"internalType":"uint256","name":"debtMinted","type":"uint256"}],"stateMutability":"nonpayable","type":"function"},{"inputs":[{"internalType":"address","name":"user","type":"address"}],"name":"getUserCollateralRatio","outputs":[{"internalType":"uint256","name":"","type":"uint256"}],"stateMutability":"view","type":"function"},{"inputs":[],"name":"minCollateralRatio","outputs":[{"internalType":"uint256","name":"","type":"uint256"}],"stateMutability":"view","type":"function"},{"inputs":[],"name":"mintFee","outputs":[{"internalType":"uint256","name":"","type":"uint256"}],"stateMutability":"view","type":"function"},{"inputs":[],"name":"oracle","outputs":[{"internalType":"contract MockOracle","name":"","type":"address"}],"stateMutability":"view","type":"function"},{"inputs":[],"name":"owner","outputs":[{"internalType":"address","name":"","type":"address"}],"stateMutability":"view","type":"function"},{"inputs":[{"internalType":"address","name":"","type":"address"}],"name":"positions","outputs":[{"internalType":"uint256","name":"collateral","type":"uint256"},{"internalType":"uint256","name":"debt","type":"uint256"}],"stateMutability":"view","type":"function"},{"inputs":[{"internalType":"uint256","name":"debtAmount","type":"uint256"},{"internalType":"uint256","name":"minRefund","type":"uint256"}],"name":"redeem","outputs":[{"internalType":"uint256","name":"refunded","type":"uint256"}],"stateMutability":"nonpayable","type":"function"},{"inputs":[],"name":"redeemFee","outputs":[{"internalType":"uint256","name":"","type":"uint256"}],"stateMutability":"view","type":"function"},{"inputs":[],"name":"renounceOwnership","outputs":[],"stateMutability":"nonpayable","type":"function"},{"inputs":[],"name":"totalAssets","outputs":[{"internalType":"uint256","name":"","type":"uint256"}],"stateMutability":"view","type":"function"},{"inputs":[{"internalType":"address","name":"newOwner","type":"address"}],"name":"transferOwnership","outputs":[],"stateMutability":"nonpayable","type":"function"},{"inputs":[],"name":"usdc","outputs":[{"internalType":"contract IERC20","name":"","type":"address"}],"stateMutability":"view","type":"function"}],"evm":{"bytecode":{"linkReferences":{},"object":"60803461011a57601f610cc138819003918201601f19168301916001600160401b0383118484101761011f5780849260809460405283398101031261011a5761004781610135565b90606061005660208301610135565b9161006360408201610135565b6001600160a01b03929091839161007a9101610135565b1692831561010157600080546001600160a01b03198082168717835560405197909686949385938416907f8be0079c531659141344cd1fd0a4f28419497f9722a3daafe3b4186f6b6457e09080a3601e600455601e6005556078600655168560015416176001551683600254161760025516906003541617600355610b77908161014a8239f35b604051631e4fbdf760e01b815260006004820152602490fd5b600080fd5b634e487b7160e01b600052604160045260246000fd5b51906001600160a01b038216820361011a5756fe608060408181526004908136101561001657600080fd5b600092833560e01c90816301e1d114146107cc5750806310b45de11461079457806313966db51461077657806338d52e0f1461074d5780633e413bee1461074d57806355f5751014610709578063715018a6146106af5780637cbc2373146104eb5780637dc0d1d0146104c257806384da2666146104a35780638da5cb5b1461047b578063965fa21e1461045c5780639f80fb4e14610433578063e2bbb158146101635763f2fde38b146100c957600080fd5b3461015f57602036600319011261015f576001600160a01b0382358181169391929084900361015b576100fa61087c565b8315610145575050600054826bffffffffffffffffffffffff60a01b821617600055167f8be0079c531659141344cd1fd0a4f28419497f9722a3daafe3b4186f6b6457e0600080a380f35b51631e4fbdf760e01b8152908101849052602490fd5b8480fd5b8280fd5b508290346103795761017436610866565b92909384156103fb576003548351634c6afee560e11b81526020969093916001600160a01b039190889086908690829086165afa9485156103aa5783956103c7575b506101cf6127106101c88654846108f4565b0482610a91565b9460648602868104606414871517156103b4576006546101ee9161091d565b6c0c9f2c9cd04674edea40000000908181029181830414901517156103b4579161022661021d8b93879561091d565b998a1015610a9e565b3383526007825287832061023b888254610ade565b9055338352600782526001888420016102558a8254610ade565b90556064846001541691895194859384926323b872dd60e01b8452338b85015230602485015260448401525af19081156103aa579061029b91849161037d575b50610b03565b60025416803b156103795784516340c10f1960e01b815233848201908152602081018890529091839183919082908490829060400103925af1801561036f57610358575b50506102ea3361093d565b600654116103285750815190815282848201527f4c209b5fc8ad50758f13e2e1088ba56a560dff690a1c6fef26394f4c03821c4f823392a251908152f35b825162461bcd60e51b8152908101859052600a602482015269435220746f6f206c6f7760b01b6044820152606490fd5b61036282916108a8565b61036c57806102df565b80fd5b85513d84823e3d90fd5b5080fd5b61039d9150893d8b116103a3575b61039581836108d2565b810190610aeb565b89610295565b503d61038b565b86513d85823e3d90fd5b634e487b7160e01b855260118652602485fd5b9094508781813d83116103f4575b6103df81836108d2565b810103126103ef575193886101b6565b600080fd5b503d6103d5565b606490602084519162461bcd60e51b835282015260126024820152710416d6f756e74206d757374206265203e20360741b6044820152fd5b83823461037957816003193601126103795760025490516001600160a01b039091168152602090f35b8382346103795781600319360112610379576020906005549051908152f35b838234610379578160031936011261037957905490516001600160a01b039091168152602090f35b8382346103795781600319360112610379576020906006549051908152f35b83823461037957816003193601126103795760035490516001600160a01b039091168152602090f35b503461015f576104fa36610866565b923385526020946007865283812060018101908154908582106106785761056791816105608893546105358461053083886108f4565b61091d565b9061055b61055261271061054b600554866108f4565b0484610a91565b9d8e1015610a9e565b610a91565b9055610a91565b90556002546001600160a01b0392908316803b1561015f578551632770a7eb60e21b815233838201908152602081018790529091849183919082908490829060400103925af180156103aa579187918993610665575b50600154875163a9059cbb60e01b815233928101928352602083019390935293949193849216908290869082906040015b03925af191821561065a57906106089261063d5750610b03565b815190815282848201527fe5b754fb1abb7f01b499791d0b820ae3b6af3424ac1c59768edb53f4ec31a929823392a251908152f35b6106549150863d88116103a35761039581836108d2565b38610295565b8451903d90823e3d90fd5b936106726105ee956108a8565b936105bd565b865162461bcd60e51b81528086018a90526011602482015270125b9cdd59999a58da595b9d081919589d607a1b6044820152606490fd5b833461036c578060031936011261036c576106c861087c565b80546001600160a01b03198116825581906001600160a01b03167f8be0079c531659141344cd1fd0a4f28419497f9722a3daafe3b4186f6b6457e08280a380f35b50903461015f57602036600319011261015f57356001600160a01b0381169081900361015f5791819281526007602052206001815491015482519182526020820152f35b83823461037957816003193601126103795760015490516001600160a01b039091168152602090f35b50903461015f578260031936011261015f5760209250549051908152f35b50903461015f57602036600319011261015f5735916001600160a01b038316830361036c57506107c560209261093d565b9051908152f35b929050346108625783600319360112610862576001546370a0823160e01b84523091840191909152602090839060249082906001600160a01b03165afa918215610858578392610821575b6020838351908152f35b9091506020813d8211610850575b8161083c602093836108d2565b8101031261015f5760209250519038610817565b3d915061082f565b81513d85823e3d90fd5b8380fd5b60409060031901126103ef576004359060243590565b6000546001600160a01b0316330361089057565b60405163118cdaa760e01b8152336004820152602490fd5b67ffffffffffffffff81116108bc57604052565b634e487b7160e01b600052604160045260246000fd5b90601f8019910116810190811067ffffffffffffffff8211176108bc57604052565b8181029291811591840414171561090757565b634e487b7160e01b600052601160045260246000fd5b8115610927570490565b634e487b7160e01b600052601260045260246000fd5b6001600160a01b0390811660009081526007602090815260408083208151939594929084830167ffffffffffffffff811186821017610a7d5783528054855260010154818501818152939015610a7157908060049260035416845193848092634c6afee560e11b82525afa928315610a6857508692610a38575b50506109cd90670de0b6b3a764000092516108f4565b0490519064e8d4a510009081830292808404831481151715610a2457655af3107a4000029280840460641490151715610a1057610a0d939450049061091d565b90565b634e487b7160e01b85526011600452602485fd5b634e487b7160e01b86526011600452602486fd5b90809250813d8311610a61575b610a4f81836108d2565b8101031261015b5751816109cd6109b7565b503d610a45565b513d88823e3d90fd5b50600019955050505050565b634e487b7160e01b88526041600452602488fd5b9190820391821161090757565b15610aa557565b60405162461bcd60e51b81526020600482015260116024820152700a6d8d2e0e0c2ceca40e8dede40d0d2ced607b1b6044820152606490fd5b9190820180921161090757565b908160209103126103ef575180151581036103ef5790565b15610b0a57565b60405162461bcd60e51b815260206004820152600f60248201526e151c985b9cd9995c8819985a5b1959608a1b6044820152606490fdfea2646970667358221220a1255891e66d21ee57920ea24c73ba1f23f2dbe26b59442f1b8c2e75b3695c5564736f6c63430008150033","opcodes":"PUSH1 0x80 CALLVALUE PUSH2 0x11A JUMPI PUSH1 0x1F PUSH2 0xCC1 CODESIZE DUP2 SWAP1 SUB SWAP2 DUP3 ADD PUSH1 0x1F NOT AND DUP4 ADD SWAP2 PUSH1 0x1 PUSH1 0x1 PUSH1 0x40 SHL SUB DUP4 GT DUP5 DUP5 LT OR PUSH2 0x11F JUMPI DUP1 DUP5 SWAP3 PUSH1 0x80 SWAP5 PUSH1 0x40 MSTORE DUP4 CODECOPY DUP2 ADD SUB SLT PUSH2 0x11A JUMPI PUSH2 0x47 DUP2 PUSH2 0x135 JUMP JUMPDEST SWAP1 PUSH1 0x60 PUSH2 0x56 PUSH1 0x20 DUP4 ADD PUSH2 0x135 JUMP JUMPDEST SWAP2 PUSH2 0x63 PUSH1 0x40 DUP3 ADD PUSH2 0x135 JUMP JUMPDEST PUSH1 0x1 PUSH1 0x1 PUSH1 0xA0 SHL SUB SWAP3 SWAP1 SWAP2 DUP4 SWAP2 PUSH2 0x7A SWAP2 ADD PUSH2 0x135 JUMP JUMPDEST AND SWAP3 DUP4 ISZERO PUSH2 0x101 JUMPI PUSH1 0x0 DUP1 SLOAD PUSH1 0x1 PUSH1 0x1 PUSH1 0xA0 SHL SUB NOT DUP1 DUP3 AND DUP8 OR DUP4 SSTORE PUSH1 0x40 MLOAD SWAP8 SWAP1 SWAP7 DUP7 SWAP5 SWAP4 DUP6 SWAP4 DUP5 AND SWAP1 PUSH32 0x8BE0079C531659141344CD1FD0A4F28419497F9722A3DAAFE3B4186F6B6457E0 SWAP1 DUP1 LOG3 PUSH1 0x1E PUSH1 0x4 SSTORE PUSH1 0x1E PUSH1 0x5 SSTORE PUSH1 0x78 PUSH1 0x6 SSTORE AND DUP6 PUSH1 0x1 SLOAD AND OR PUSH1 0x1 SSTORE AND DUP4 PUSH1 0x2 SLOAD AND OR PUSH1 0x2 SSTORE AND SWAP1 PUSH1 0x3 SLOAD AND OR PUSH1 0x3 SSTORE PUSH2 0xB77 SWAP1 DUP2 PUSH2 0x14A DUP3 CODECOPY RETURN JUMPDEST PUSH1 0x40 MLOAD PUSH4 0x1E4FBDF7 PUSH1 0xE0 SHL DUP2 MSTORE PUSH1 0x0 PUSH1 0x4 DUP3 ADD MSTORE PUSH1 0x24 SWAP1 REVERT JUMPDEST PUSH1 0x0 DUP1 REVERT JUMPDEST PUSH4 0x4E487B71 PUSH1 0xE0 SHL PUSH1 0x0 MSTORE PUSH1 0x41 PUSH1 0x4 MSTORE PUSH1 0x24 PUSH1 0x0 REVERT JUMPDEST MLOAD SWAP1 PUSH1 0x1 PUSH1 0x1 PUSH1 0xA0 SHL SUB DUP3 AND DUP3 SUB PUSH2 0x11A JUMPI JUMP INVALID PUSH1 0x80 PUSH1 0x40 DUP2 DUP2 MSTORE PUSH1 0x4 SWAP1 DUP2 CALLDATASIZE LT ISZERO PUSH2 0x16 JUMPI PUSH1 0x0 DUP1 REVERT JUMPDEST PUSH1 0x0 SWAP3 DUP4 CALLDATALOAD PUSH1 0xE0 SHR SWAP1 DUP2 PUSH4 0x1E1D114 EQ PUSH2 0x7CC JUMPI POP DUP1 PUSH4 0x10B45DE1 EQ PUSH2 0x794 JUMPI DUP1 PUSH4 0x13966DB5 EQ PUSH2 0x776 JUMPI DUP1 PUSH4 0x38D52E0F EQ PUSH2 0x74D JUMPI DUP1 PUSH4 0x3E413BEE EQ PUSH2 0x74D JUMPI DUP1 PUSH4 0x55F57510 EQ PUSH2 0x709 JUMPI DUP1 PUSH4 0x715018A6 EQ PUSH2 0x6AF JUMPI DUP1 PUSH4 0x7CBC2373 EQ PUSH2 0x4EB JUMPI DUP1 PUSH4 0x7DC0D1D0 EQ PUSH2 0x4C2 JUMPI DUP1 PUSH4 0x84DA2666 EQ PUSH2 0x4A3 JUMPI DUP1 PUSH4 0x8DA5CB5B EQ PUSH2 0x47B JUMPI DUP1 PUSH4 0x965FA21E EQ PUSH2 0x45C JUMPI DUP1 PUSH4 0x9F80FB4E EQ PUSH2 0x433 JUMPI DUP1 PUSH4 0xE2BBB158 EQ PUSH2 0x163 JUMPI PUSH4 0xF2FDE38B EQ PUSH2 0xC9 JUMPI PUSH1 0x0 DUP1 REVERT JUMPDEST CALLVALUE PUSH2 0x15F JUMPI PUSH1 0x20 CALLDATASIZE PUSH1 0x3 NOT ADD SLT PUSH2 0x15F JUMPI PUSH1 0x1 PUSH1 0x1 PUSH1 0xA0 SHL SUB DUP3 CALLDATALOAD DUP2 DUP2 AND SWAP4 SWAP2 SWAP3 SWAP1 DUP5 SWAP1 SUB PUSH2 0x15B JUMPI PUSH2 0xFA PUSH2 0x87C JUMP JUMPDEST DUP4 ISZERO PUSH2 0x145 JUMPI POP POP PUSH1 0x0 SLOAD DUP3 PUSH12 0xFFFFFFFFFFFFFFFFFFFFFFFF PUSH1 0xA0 SHL DUP3 AND OR PUSH1 0x0 SSTORE AND PUSH32 0x8BE0079C531659141344CD1FD0A4F28419497F9722A3DAAFE3B4186F6B6457E0 PUSH1 0x0 DUP1 LOG3 DUP1 RETURN JUMPDEST MLOAD PUSH4 0x1E4FBDF7 PUSH1 0xE0 SHL DUP2 MSTORE SWAP1 DUP2 ADD DUP5 SWAP1 MSTORE PUSH1 0x24 SWAP1 REVERT JUMPDEST DUP5 DUP1 REVERT JUMPDEST DUP3 DUP1 REVERT JUMPDEST POP DUP3 SWAP1 CALLVALUE PUSH2 0x379 JUMPI PUSH2 0x174 CALLDATASIZE PUSH2 0x866 JUMP JUMPDEST SWAP3 SWAP1 SWAP4 DUP5 ISZERO PUSH2 0x3FB JUMPI PUSH1 0x3 SLOAD DUP4 MLOAD PUSH4 0x4C6AFEE5 PUSH1 0xE1 SHL DUP2 MSTORE PUSH1 0x20 SWAP7 SWAP1 SWAP4 SWAP2 PUSH1 0x1 PUSH1 0x1 PUSH1 0xA0 SHL SUB SWAP2 SWAP1 DUP9 SWAP1 DUP7 SWAP1 DUP7 SWAP1 DUP3 SWAP1 DUP7 AND GAS STATICCALL SWAP5 DUP6 ISZERO PUSH2 0x3AA JUMPI DUP4 SWAP6 PUSH2 0x3C7 JUMPI JUMPDEST POP PUSH2 0x1CF PUSH2 0x2710 PUSH2 0x1C8 DUP7 SLOAD DUP5 PUSH2 0x8F4 JUMP JUMPDEST DIV DUP3 PUSH2 0xA91 JUMP JUMPDEST SWAP5 PUSH1 0x64 DUP7 MUL DUP7 DUP2 DIV PUSH1 0x64 EQ DUP8 ISZERO OR ISZERO PUSH2 0x3B4 JUMPI PUSH1 0x6 SLOAD PUSH2 0x1EE SWAP2 PUSH2 0x91D JUMP JUMPDEST PUSH13 0xC9F2C9CD04674EDEA40000000 SWAP1 DUP2 DUP2 MUL SWAP2 DUP2 DUP4 DIV EQ SWAP1 ISZERO OR ISZERO PUSH2 0x3B4 JUMPI SWAP2 PUSH2 0x226 PUSH2 0x21D DUP12 SWAP4 DUP8 SWAP6 PUSH2 0x91D JUMP JUMPDEST SWAP10 DUP11 LT ISZERO PUSH2 0xA9E JUMP JUMPDEST CALLER DUP4 MSTORE PUSH1 0x7 DUP3 MSTORE DUP8 DUP4 KECCAK256 PUSH2 0x23B DUP9 DUP3 SLOAD PUSH2 0xADE JUMP JUMPDEST SWAP1 SSTORE CALLER DUP4 MSTORE PUSH1 0x7 DUP3 MSTORE PUSH1 0x1 DUP9 DUP5 KECCAK256 ADD PUSH2 0x255 DUP11 DUP3 SLOAD PUSH2 0xADE JUMP JUMPDEST SWAP1 SSTORE PUSH1 0x64 DUP5 PUSH1 0x1 SLOAD AND SWAP2 DUP10 MLOAD SWAP5 DUP6 SWAP4 DUP5 SWAP3 PUSH4 0x23B872DD PUSH1 0xE0 SHL DUP5 MSTORE CALLER DUP12 DUP6 ADD MSTORE ADDRESS PUSH1 0x24 DUP6 ADD MSTORE PUSH1 0x44 DUP5 ADD MSTORE GAS CALL SWAP1 DUP2 ISZERO PUSH2 0x3AA JUMPI SWAP1 PUSH2 0x29B SWAP2 DUP5 SWAP2 PUSH2 0x37D JUMPI JUMPDEST POP PUSH2 0xB03 JUMP JUMPDEST PUSH1 0x2 SLOAD AND DUP1 EXTCODESIZE ISZERO PUSH2 0x379 JUMPI DUP5 MLOAD PUSH4 0x40C10F19 PUSH1 0xE0 SHL DUP2 MSTORE CALLER DUP5 DUP3 ADD SWAP1 DUP2 MSTORE PUSH1 0x20 DUP2 ADD DUP9 SWAP1 MSTORE SWAP1 SWAP2 DUP4 SWAP2 DUP4 SWAP2 SWAP1 DUP3 SWAP1 DUP5 SWAP1 DUP3 SWAP1 PUSH1 0x40 ADD SUB SWAP3 GAS CALL DUP1 ISZERO PUSH2 0x36F JUMPI PUSH2 0x358 JUMPI JUMPDEST POP POP PUSH2 0x2EA CALLER PUSH2 0x93D JUMP JUMPDEST PUSH1 0x6 SLOAD GT PUSH2 0x328 JUMPI POP DUP2 MLOAD SWAP1 DUP2 MSTORE DUP3 DUP5 DUP3 ADD MSTORE PUSH32 0x4C209B5FC8AD50758F13E2E1088BA56A560DFF690A1C6FEF26394F4C03821C4F DUP3 CALLER SWAP3 LOG2 MLOAD SWAP1 DUP2 MSTORE RETURN JUMPDEST DUP3 MLOAD PUSH3 0x461BCD PUSH1 0xE5 SHL DUP2 MSTORE SWAP1 DUP2 ADD DUP6 SWAP1 MSTORE PUSH1 0xA PUSH1 0x24 DUP3 ADD MSTORE PUSH10 0x435220746F6F206C6F77 PUSH1 0xB0 SHL PUSH1 0x44 DUP3 ADD MSTORE PUSH1 0x64 SWAP1 REVERT JUMPDEST PUSH2 0x362 DUP3 SWAP2 PUSH2 0x8A8 JUMP JUMPDEST PUSH2 0x36C JUMPI DUP1 PUSH2 0x2DF JUMP JUMPDEST DUP1 REVERT JUMPDEST DUP6 MLOAD RETURNDATASIZE DUP5 DUP3 RETURNDATACOPY RETURNDATASIZE SWAP1 REVERT JUMPDEST POP DUP1 REVERT JUMPDEST PUSH2 0x39D SWAP2 POP DUP10 RETURNDATASIZE DUP12 GT PUSH2 0x3A3 JUMPI JUMPDEST PUSH2 0x395 DUP2 DUP4 PUSH2 0x8D2 JUMP JUMPDEST DUP2 ADD SWAP1 PUSH2 0xAEB JUMP JUMPDEST DUP10 PUSH2 0x295 JUMP JUMPDEST POP RETURNDATASIZE PUSH2 0x38B JUMP JUMPDEST DUP7 MLOAD RETURNDATASIZE DUP6 DUP3 RETURNDATACOPY RETURNDATASIZE SWAP1 REVERT JUMPDEST PUSH4 0x4E487B71 PUSH1 0xE0 SHL DUP6 MSTORE PUSH1 0x11 DUP7 MSTORE PUSH1 0x24 DUP6 REVERT JUMPDEST SWAP1 SWAP5 POP DUP8 DUP2 DUP2 RETURNDATASIZE DUP4 GT PUSH2 0x3F4 JUMPI JUMPDEST PUSH2 0x3DF DUP2 DUP4 PUSH2 0x8D2 JUMP JUMPDEST DUP2 ADD SUB SLT PUSH2 0x3EF JUMPI MLOAD SWAP4 DUP9 PUSH2 0x1B6 JUMP JUMPDEST PUSH1 0x0 DUP1 REVERT JUMPDEST POP RETURNDATASIZE PUSH2 0x3D5 JUMP JUMPDEST PUSH1 0x64 SWAP1 PUSH1 0x20 DUP5 MLOAD SWAP2 PUSH3 0x461BCD PUSH1 0xE5 SHL DUP4 MSTORE DUP3 ADD MSTORE PUSH1 0x12 PUSH1 0x24 DUP3 ADD MSTORE PUSH18 0x416D6F756E74206D757374206265203E203 PUSH1 0x74 SHL PUSH1 0x44 DUP3 ADD MSTORE REVERT JUMPDEST DUP4 DUP3 CALLVALUE PUSH2 0x379 JUMPI DUP2 PUSH1 0x3 NOT CALLDATASIZE ADD SLT PUSH2 0x379 JUMPI PUSH1 0x2 SLOAD SWAP1 MLOAD PUSH1 0x1 PUSH1 0x1 PUSH1 0xA0 SHL SUB SWAP1 SWAP2 AND DUP2 MSTORE PUSH1 0x20 SWAP1 RETURN JUMPDEST DUP4 DUP3 CALLVALUE PUSH2 0x379 JUMPI DUP2 PUSH1 0x3 NOT CALLDATASIZE ADD SLT PUSH2 0x379 JUMPI PUSH1 0x20 SWAP1 PUSH1 0x5 SLOAD SWAP1 MLOAD SWAP1 DUP2 MSTORE RETURN JUMPDEST DUP4 DUP3 CALLVALUE PUSH2 0x379 JUMPI DUP2 PUSH1 0x3 NOT CALLDATASIZE ADD SLT PUSH2 0x379 JUMPI SWAP1 SLOAD SWAP1 MLOAD PUSH1 0x1 PUSH1 0x1 PUSH1 0xA0 SHL SUB SWAP1 SWAP2 AND DUP2 MSTORE PUSH1 0x20 SWAP1 RETURN JUMPDEST DUP4 DUP3 CALLVALUE PUSH2 0x379 JUMPI DUP2 PUSH1 0x3 NOT CALLDATASIZE ADD SLT PUSH2 0x379 JUMPI PUSH1 0x20 SWAP1 PUSH1 0x6 SLOAD SWAP1 MLOAD SWAP1 DUP2 MSTORE RETURN JUMPDEST DUP4 DUP3 CALLVALUE PUSH2 0x379 JUMPI DUP2 PUSH1 0x3 NOT CALLDATASIZE ADD SLT PUSH2 0x379 JUMPI PUSH1 0x3 SLOAD SWAP1 MLOAD PUSH1 0x1 PUSH1 0x1 PUSH1 0xA0 SHL SUB SWAP1 SWAP2 AND DUP2 MSTORE PUSH1 0x20 SWAP1 RETURN JUMPDEST POP CALLVALUE PUSH2 0x15F JUMPI PUSH2 0x4FA CALLDATASIZE PUSH2 0x866 JUMP JUMPDEST SWAP3 CALLER DUP6 MSTORE PUSH1 0x20 SWAP5 PUSH1 0x7 DUP7 MSTORE DUP4 DUP2 KECCAK256 PUSH1 0x1 DUP2 ADD SWAP1 DUP2 SLOAD SWAP1 DUP6 DUP3 LT PUSH2 0x678 JUMPI PUSH2 0x567 SWAP2 DUP2 PUSH2 0x560 DUP9 SWAP4 SLOAD PUSH2 0x535 DUP5 PUSH2 0x530 DUP4 DUP9 PUSH2 0x8F4 JUMP JUMPDEST PUSH2 0x91D JUMP JUMPDEST SWAP1 PUSH2 0x55B PUSH2 0x552 PUSH2 0x2710 PUSH2 0x54B PUSH1 0x5 SLOAD DUP7 PUSH2 0x8F4 JUMP JUMPDEST DIV DUP5 PUSH2 0xA91 JUMP JUMPDEST SWAP14 DUP15 LT ISZERO PUSH2 0xA9E JUMP JUMPDEST PUSH2 0xA91 JUMP JUMPDEST SWAP1 SSTORE PUSH2 0xA91 JUMP JUMPDEST SWAP1 SSTORE PUSH1 0x2 SLOAD PUSH1 0x1 PUSH1 0x1 PUSH1 0xA0 SHL SUB SWAP3 SWAP1 DUP4 AND DUP1 EXTCODESIZE ISZERO PUSH2 0x15F JUMPI DUP6 MLOAD PUSH4 0x2770A7EB PUSH1 0xE2 SHL DUP2 MSTORE CALLER DUP4 DUP3 ADD SWAP1 DUP2 MSTORE PUSH1 0x20 DUP2 ADD DUP8 SWAP1 MSTORE SWAP1 SWAP2 DUP5 SWAP2 DUP4 SWAP2 SWAP1 DUP3 SWAP1 DUP5 SWAP1 DUP3 SWAP1 PUSH1 0x40 ADD SUB SWAP3 GAS CALL DUP1 ISZERO PUSH2 0x3AA JUMPI SWAP2 DUP8 SWAP2 DUP10 SWAP4 PUSH2 0x665 JUMPI JUMPDEST POP PUSH1 0x1 SLOAD DUP8 MLOAD PUSH4 0xA9059CBB PUSH1 0xE0 SHL DUP2 MSTORE CALLER SWAP3 DUP2 ADD SWAP3 DUP4 MSTORE PUSH1 0x20 DUP4 ADD SWAP4 SWAP1 SWAP4 MSTORE SWAP4 SWAP5 SWAP2 SWAP4 DUP5 SWAP3 AND SWAP1 DUP3 SWAP1 DUP7 SWAP1 DUP3 SWAP1 PUSH1 0x40 ADD JUMPDEST SUB SWAP3 GAS CALL SWAP2 DUP3 ISZERO PUSH2 0x65A JUMPI SWAP1 PUSH2 0x608 SWAP3 PUSH2 0x63D JUMPI POP PUSH2 0xB03 JUMP JUMPDEST DUP2 MLOAD SWAP1 DUP2 MSTORE DUP3 DUP5 DUP3 ADD MSTORE PUSH32 0xE5B754FB1ABB7F01B499791D0B820AE3B6AF3424AC1C59768EDB53F4EC31A929 DUP3 CALLER SWAP3 LOG2 MLOAD SWAP1 DUP2 MSTORE RETURN JUMPDEST PUSH2 0x654 SWAP2 POP DUP7 RETURNDATASIZE DUP9 GT PUSH2 0x3A3 JUMPI PUSH2 0x395 DUP2 DUP4 PUSH2 0x8D2 JUMP JUMPDEST CODESIZE PUSH2 0x295 JUMP JUMPDEST DUP5 MLOAD SWAP1 RETURNDATASIZE SWAP1 DUP3 RETURNDATACOPY RETURNDATASIZE SWAP1 REVERT JUMPDEST SWAP4 PUSH2 0x672 PUSH2 0x5EE SWAP6 PUSH2 0x8A8 JUMP JUMPDEST SWAP4 PUSH2 0x5BD JUMP JUMPDEST DUP7 MLOAD PUSH3 0x461BCD PUSH1 0xE5 SHL DUP2 MSTORE DUP1 DUP7 ADD DUP11 SWAP1 MSTORE PUSH1 0x11 PUSH1 0x24 DUP3 ADD MSTORE PUSH17 0x125B9CDD59999A58DA595B9D081919589D PUSH1 0x7A SHL PUSH1 0x44 DUP3 ADD MSTORE PUSH1 0x64 SWAP1 REVERT JUMPDEST DUP4 CALLVALUE PUSH2 0x36C JUMPI DUP1 PUSH1 0x3 NOT CALLDATASIZE ADD SLT PUSH2 0x36C JUMPI PUSH2 0x6C8 PUSH2 0x87C JUMP JUMPDEST DUP1 SLOAD PUSH1 0x1 PUSH1 0x1 PUSH1 0xA0 SHL SUB NOT DUP2 AND DUP3 SSTORE DUP2 SWAP1 PUSH1 0x1 PUSH1 0x1 PUSH1 0xA0 SHL SUB AND PUSH32 0x8BE0079C531659141344CD1FD0A4F28419497F9722A3DAAFE3B4186F6B6457E0 DUP3 DUP1 LOG3 DUP1 RETURN JUMPDEST POP SWAP1 CALLVALUE PUSH2 0x15F JUMPI PUSH1 0x20 CALLDATASIZE PUSH1 0x3 NOT ADD SLT PUSH2 0x15F JUMPI CALLDATALOAD PUSH1 0x1 PUSH1 0x1 PUSH1 0xA0 SHL SUB DUP2 AND SWAP1 DUP2 SWAP1 SUB PUSH2 0x15F JUMPI SWAP2 DUP2 SWAP3 DUP2 MSTORE PUSH1 0x7 PUSH1 0x20 MSTORE KECCAK256 PUSH1 0x1 DUP2 SLOAD SWAP2 ADD SLOAD DUP3 MLOAD SWAP2 DUP3 MSTORE PUSH1 0x20 DUP3 ADD MSTORE RETURN JUMPDEST DUP4 DUP3 CALLVALUE PUSH2 0x379 JUMPI DUP2 PUSH1 0x3 NOT CALLDATASIZE ADD SLT PUSH2 0x379 JUMPI PUSH1 0x1 SLOAD SWAP1 MLOAD PUSH1 0x1 PUSH1 0x1 PUSH1 0xA0 SHL SUB SWAP1 SWAP2 AND DUP2 MSTORE PUSH1 0x20 SWAP1 RETURN JUMPDEST POP SWAP1 CALLVALUE PUSH2 0x15F JUMPI DUP3 PUSH1 0x3 NOT CALLDATASIZE ADD SLT PUSH2 0x15F JUMPI PUSH1 0x20 SWAP3 POP SLOAD SWAP1 MLOAD SWAP1 DUP2 MSTORE RETURN JUMPDEST POP SWAP1 CALLVALUE PUSH2 0x15F JUMPI PUSH1 0x20 CALLDATASIZE PUSH1 0x3 NOT ADD SLT PUSH2 0x15F JUMPI CALLDATALOAD SWAP2 PUSH1 0x1 PUSH1 0x1 PUSH1 0xA0 SHL SUB DUP4 AND DUP4 SUB PUSH2 0x36C JUMPI POP PUSH2 0x7C5 PUSH1 0x20 SWAP3 PUSH2 0x93D JUMP JUMPDEST SWAP1 MLOAD SWAP1 DUP2 MSTORE RETURN JUMPDEST SWAP3 SWAP1 POP CALLVALUE PUSH2 0x862 JUMPI DUP4 PUSH1 0x3 NOT CALLDATASIZE ADD SLT PUSH2 0x862 JUMPI PUSH1 0x1 SLOAD PUSH4 0x70A08231 PUSH1 0xE0 SHL DUP5 MSTORE ADDRESS SWAP2 DUP5 ADD SWAP2 SWAP1 SWAP2 MSTORE PUSH1 0x20 SWAP1 DUP4 SWAP1 PUSH1 0x24 SWAP1 DUP3 SWAP1 PUSH1 0x1 PUSH1 0x1 PUSH1 0xA0 SHL SUB AND GAS STATICCALL SWAP2 DUP3 ISZERO PUSH2 0x858 JUMPI DUP4 SWAP3 PUSH2 0x821 JUMPI JUMPDEST PUSH1 0x20 DUP4 DUP4 MLOAD SWAP1 DUP2 MSTORE RETURN JUMPDEST SWAP1 SWAP2 POP PUSH1 0x20 DUP2 RETURNDATASIZE DUP3 GT PUSH2 0x850 JUMPI JUMPDEST DUP2 PUSH2 0x83C PUSH1 0x20 SWAP4 DUP4 PUSH2 0x8D2 JUMP JUMPDEST DUP2 ADD SUB SLT PUSH2 0x15F JUMPI PUSH1 0x20 SWAP3 POP MLOAD SWAP1 CODESIZE PUSH2 0x817 JUMP JUMPDEST RETURNDATASIZE SWAP2 POP PUSH2 0x82F JUMP JUMPDEST DUP2 MLOAD RETURNDATASIZE DUP6 DUP3 RETURNDATACOPY RETURNDATASIZE SWAP1 REVERT JUMPDEST DUP4 DUP1 REVERT JUMPDEST PUSH1 0x40 SWAP1 PUSH1 0x3 NOT ADD SLT PUSH2 0x3EF JUMPI PUSH1 0x4 CALLDATALOAD SWAP1 PUSH1 0x24 CALLDATALOAD SWAP1 JUMP JUMPDEST PUSH1 0x0 SLOAD PUSH1 0x1 PUSH1 0x1 PUSH1 0xA0 SHL SUB AND CALLER SUB PUSH2 0x890 JUMPI JUMP JUMPDEST PUSH1 0x40 MLOAD PUSH4 0x118CDAA7 PUSH1 0xE0 SHL DUP2 MSTORE CALLER PUSH1 0x4 DUP3 ADD MSTORE PUSH1 0x24 SWAP1 REVERT JUMPDEST PUSH8 0xFFFFFFFFFFFFFFFF DUP2 GT PUSH2 0x8BC JUMPI PUSH1 0x40 MSTORE JUMP JUMPDEST PUSH4 0x4E487B71 PUSH1 0xE0 SHL PUSH1 0x0 MSTORE PUSH1 0x41 PUSH1 0x4 MSTORE PUSH1 0x24 PUSH1 0x0 REVERT JUMPDEST SWAP1 PUSH1 0x1F DUP1 NOT SWAP2 ADD AND DUP2 ADD SWAP1 DUP2 LT PUSH8 0xFFFFFFFFFFFFFFFF DUP3 GT OR PUSH2 0x8BC JUMPI PUSH1 0x40 MSTORE JUMP JUMPDEST DUP2 DUP2 MUL SWAP3 SWAP2 DUP2 ISZERO SWAP2 DUP5 DIV EQ OR ISZERO PUSH2 0x907 JUMPI JUMP JUMPDEST PUSH4 0x4E487B71 PUSH1 0xE0 SHL PUSH1 0x0 MSTORE PUSH1 0x11 PUSH1 0x4 MSTORE PUSH1 0x24 PUSH1 0x0 REVERT JUMPDEST DUP2 ISZERO PUSH2 0x927 JUMPI DIV SWAP1 JUMP JUMPDEST PUSH4 0x4E487B71 PUSH1 0xE0 SHL PUSH1 0x0 MSTORE PUSH1 0x12 PUSH1 0x4 MSTORE PUSH1 0x24 PUSH1 0x0 REVERT JUMPDEST PUSH1 0x1 PUSH1 0x1 PUSH1 0xA0 SHL SUB SWAP1 DUP2 AND PUSH1 0x0 SWAP1 DUP2 MSTORE PUSH1 0x7 PUSH1 0x20 SWAP1 DUP2 MSTORE PUSH1 0x40 DUP1 DUP4 KECCAK256 DUP2 MLOAD SWAP4 SWAP6 SWAP5 SWAP3 SWAP1 DUP5 DUP4 ADD PUSH8 0xFFFFFFFFFFFFFFFF DUP2 GT DUP7 DUP3 LT OR PUSH2 0xA7D JUMPI DUP4 MSTORE DUP1 SLOAD DUP6 MSTORE PUSH1 0x1 ADD SLOAD DUP2 DUP6 ADD DUP2 DUP2 MSTORE SWAP4 SWAP1 ISZERO PUSH2 0xA71 JUMPI SWAP1 DUP1 PUSH1 0x4 SWAP3 PUSH1 0x3 SLOAD AND DUP5 MLOAD SWAP4 DUP5 DUP1 SWAP3 PUSH4 0x4C6AFEE5 PUSH1 0xE1 SHL DUP3 MSTORE GAS STATICCALL SWAP3 DUP4 ISZERO PUSH2 0xA68 JUMPI POP DUP7 SWAP3 PUSH2 0xA38 JUMPI JUMPDEST POP POP PUSH2 0x9CD SWAP1 PUSH8 0xDE0B6B3A7640000 SWAP3 MLOAD PUSH2 0x8F4 JUMP JUMPDEST DIV SWAP1 MLOAD SWAP1 PUSH5 0xE8D4A51000 SWAP1 DUP2 DUP4 MUL SWAP3 DUP1 DUP5 DIV DUP4 EQ DUP2 ISZERO OR ISZERO PUSH2 0xA24 JUMPI PUSH6 0x5AF3107A4000 MUL SWAP3 DUP1 DUP5 DIV PUSH1 0x64 EQ SWAP1 ISZERO OR ISZERO PUSH2 0xA10 JUMPI PUSH2 0xA0D SWAP4 SWAP5 POP DIV SWAP1 PUSH2 0x91D JUMP JUMPDEST SWAP1 JUMP JUMPDEST PUSH4 0x4E487B71 PUSH1 0xE0 SHL DUP6 MSTORE PUSH1 0x11 PUSH1 0x4 MSTORE PUSH1 0x24 DUP6 REVERT JUMPDEST PUSH4 0x4E487B71 PUSH1 0xE0 SHL DUP7 MSTORE PUSH1 0x11 PUSH1 0x4 MSTORE PUSH1 0x24 DUP7 REVERT JUMPDEST SWAP1 DUP1 SWAP3 POP DUP2 RETURNDATASIZE DUP4 GT PUSH2 0xA61 JUMPI JUMPDEST PUSH2 0xA4F DUP2 DUP4 PUSH2 0x8D2 JUMP JUMPDEST DUP2 ADD SUB SLT PUSH2 0x15B JUMPI MLOAD DUP2 PUSH2 0x9CD PUSH2 0x9B7 JUMP JUMPDEST POP RETURNDATASIZE PUSH2 0xA45 JUMP JUMPDEST MLOAD RETURNDATASIZE DUP9 DUP3 RETURNDATACOPY RETURNDATASIZE SWAP1 REVERT JUMPDEST POP PUSH1 0x0 NOT SWAP6 POP POP POP POP POP JUMP JUMPDEST PUSH4 0x4E487B71 PUSH1 0xE0 SHL DUP9 MSTORE PUSH1 0x41 PUSH1 0x4 MSTORE PUSH1 0x24 DUP9 REVERT JUMPDEST SWAP2 SWAP1 DUP3 SUB SWAP2 DUP3 GT PUSH2 0x907 JUMPI JUMP JUMPDEST ISZERO PUSH2 0xAA5 JUMPI JUMP JUMPDEST PUSH1 0x40 MLOAD PUSH3 0x461BCD PUSH1 0xE5 SHL DUP2 MSTORE PUSH1 0x20 PUSH1 0x4 DUP3 ADD MSTORE PUSH1 0x11 PUSH1 0x24 DUP3 ADD MSTORE PUSH17 0xA6D8D2E0E0C2CECA40E8DEDE40D0D2CED PUSH1 0x7B SHL PUSH1 0x44 DUP3 ADD MSTORE PUSH1 0x64 SWAP1 REVERT JUMPDEST SWAP2 SWAP1 DUP3 ADD DUP1 SWAP3 GT PUSH2 0x907 JUMPI JUMP JUMPDEST SWAP1 DUP2 PUSH1 0x20 SWAP2 SUB SLT PUSH2 0x3EF JUMPI MLOAD DUP1 ISZERO ISZERO DUP2 SUB PUSH2 0x3EF JUMPI SWAP1 JUMP JUMPDEST ISZERO PUSH2 0xB0A JUMPI JUMP JUMPDEST PUSH1 0x40 MLOAD PUSH3 0x461BCD PUSH1 0xE5 SHL DUP2 MSTORE PUSH1 0x20 PUSH1 0x4 DUP3 ADD MSTORE PUSH1 0xF PUSH1 0x24 DUP3 ADD MSTORE PUSH15 0x151C985B9CD9995C8819985A5B1959 PUSH1 0x8A SHL PUSH1 0x44 DUP3 ADD MSTORE PUSH1 0x64 SWAP1 REVERT INVALID LOG2 PUSH5 0x6970667358 0x22 SLT KECCAK256 LOG1 0x25 PC SWAP2 0xE6 PUSH14 0x21EE57920EA24C73BA1F23F2DBE2 PUSH12 0x59442F1B8C2E75B3695C5564 PUSH20 0x6F6C634300081500330000000000000000000000 "},"methodIdentifiers":{"asset()":"38d52e0f","bvix()":"9f80fb4e","deposit(uint256,uint256)":"e2bbb158","getUserCollateralRatio(address)":"10b45de1","minCollateralRatio()":"84da2666","mintFee()":"13966db5","oracle()":"7dc0d1d0","owner()":"8da5cb5b","positions(address)":"55f57510","redeem(uint256,uint256)":"7cbc2373","redeemFee()":"965fa21e","renounceOwnership()":"715018a6","totalAssets()":"01e1d114","transferOwnership(address)":"f2fde38b","usdc()":"3e413bee"}}}}}