{"contracts/MintRedeemV5Simple.sol":{"MintRedeemV5Simple":{"abi":[{"inputs":[{"internalType":"address","name":"_usdc","type":"address"},{"internalType":"address","name":"_bvix","type":"address"},{"internalType":"address","name":"_oracle","type":"address"},{"internalType":"address","name":"initialOwner","type":"address"}],"stateMutability":"nonpayable","type":"constructor"},{"inputs":[{"internalType":"address","name":"owner","type":"address"}],"name":"OwnableInvalidOwner","type":"error"},{"inputs":[{"internalType":"address","name":"account","type":"address"}],"name":"OwnableUnauthorizedAccount","type":"error"},{"anonymous":false,"inputs":[{"indexed":true,"internalType":"address","name":"user","type":"address"},{"indexed":false,"internalType":"uint256","name":"usdcAmount","type":"uint256"},{"indexed":false,"internalType":"uint256","name":"bvixMinted","type":"uint256"},{"indexed":false,"internalType":"uint256","name":"targetCR","type":"uint256"}],"name":"Mint","type":"event"},{"anonymous":false,"inputs":[{"indexed":true,"internalType":"address","name":"previousOwner","type":"address"},{"indexed":true,"internalType":"address","name":"newOwner","type":"address"}],"name":"OwnershipTransferred","type":"event"},{"inputs":[],"name":"bvix","outputs":[{"internalType":"contract BVIXToken","name":"","type":"address"}],"stateMutability":"view","type":"function"},{"inputs":[],"name":"getCollateralRatio","outputs":[{"internalType":"uint256","name":"","type":"uint256"}],"stateMutability":"view","type":"function"},{"inputs":[],"name":"minCollateralRatio","outputs":[{"internalType":"uint256","name":"","type":"uint256"}],"stateMutability":"view","type":"function"},{"inputs":[{"internalType":"uint256","name":"amount","type":"uint256"}],"name":"mint","outputs":[{"internalType":"uint256","name":"","type":"uint256"}],"stateMutability":"nonpayable","type":"function"},{"inputs":[],"name":"mintFee","outputs":[{"internalType":"uint256","name":"","type":"uint256"}],"stateMutability":"view","type":"function"},{"inputs":[{"internalType":"uint256","name":"amount","type":"uint256"},{"internalType":"uint256","name":"targetCR","type":"uint256"}],"name":"mintWithCollateralRatio","outputs":[{"internalType":"uint256","name":"","type":"uint256"}],"stateMutability":"nonpayable","type":"function"},{"inputs":[],"name":"oracle","outputs":[{"internalType":"contract MockOracle","name":"","type":"address"}],"stateMutability":"view","type":"function"},{"inputs":[],"name":"owner","outputs":[{"internalType":"address","name":"","type":"address"}],"stateMutability":"view","type":"function"},{"inputs":[{"internalType":"uint256","name":"amount","type":"uint256"}],"name":"redeem","outputs":[{"internalType":"uint256","name":"","type":"uint256"}],"stateMutability":"nonpayable","type":"function"},{"inputs":[],"name":"renounceOwnership","outputs":[],"stateMutability":"nonpayable","type":"function"},{"inputs":[{"internalType":"address","name":"newOwner","type":"address"}],"name":"transferOwnership","outputs":[],"stateMutability":"nonpayable","type":"function"},{"inputs":[],"name":"usdc","outputs":[{"internalType":"contract IERC20","name":"","type":"address"}],"stateMutability":"view","type":"function"}],"evm":{"bytecode":{"linkReferences":{},"object":"60803461011557601f610d6938819003918201601f19168301916001600160401b0383118484101761011a578084926080946040528339810103126101155761004781610130565b90606061005660208301610130565b9161006360408201610130565b6001600160a01b03929091839161007a9101610130565b169283156100fc57600080546001600160a01b03198082168717835560405197909686949385938416907f8be0079c531659141344cd1fd0a4f28419497f9722a3daafe3b4186f6b6457e09080a3601e6004556078600555168560015416176001551683600254161760025516906003541617600355610c2490816101458239f35b604051631e4fbdf760e01b815260006004820152602490fd5b600080fd5b634e487b7160e01b600052604160045260246000fd5b51906001600160a01b03821682036101155756fe608060408181526004908136101561001657600080fd5b600092833560e01c90816313966db5146108b6575080633e413bee1461088d5780636008d28b146105ee578063715018a6146105945780637dc0d1d01461056b57806384da26661461054c5780638da5cb5b146105245780639f80fb4e146104fb578063a0712d681461046c578063cd377c5314610448578063db006a75146101425763f2fde38b146100a857600080fd5b3461013e57602036600319011261013e576001600160a01b0382358181169391929084900361013a576100d96108d2565b8315610124575050600054826bffffffffffffffffffffffff60a01b821617600055167f8be0079c531659141344cd1fd0a4f28419497f9722a3daafe3b4186f6b6457e0600080a380f35b51631e4fbdf760e01b8152908101849052602490fd5b8480fd5b8280fd5b50829034610444576020928360031936011261013e578035926101668415156108fe565b60025483516370a0823160e01b8082523382860152956001600160a01b0394928516918881602481865afa908115610395579082918691610413575b50106103d95782888660035416885192838092634c6afee560e11b82525afa90811561039557859161039f575b506c0c9f2c9cd04674edea400000006101eb610201928461093f565b046127106101fa86548361093f565b0490610988565b96888660015416916024895180948193825230898301525afa908115610395579088918691610364575b501061032157813b1561031d578551632770a7eb60e21b815233848201908152602081019290925291849183919082908490829060400103925af18015610313579186918893610300575b50600154865163a9059cbb60e01b815233928101928352602083019390935293949193849216908290869082906040015b03925af19182156102f557906102c2926102c8575b506109fe565b51908152f35b6102e89150853d87116102ee575b6102e081836109bf565b8101906109e1565b856102bc565b503d6102d6565b8351903d90823e3d90fd5b9361030d6102a795610995565b93610276565b85513d85823e3d90fd5b8380fd5b855162461bcd60e51b8152808401899052601760248201527f496e73756666696369656e74207661756c7420555344430000000000000000006044820152606490fd5b8092508a8092503d831161038e575b61037d81836109bf565b8101031261013a578790518a61022b565b503d610373565b87513d87823e3d90fd5b90508881813d83116103d2575b6103b681836109bf565b8101031261013a57516c0c9f2c9cd04674edea400000006101cf565b503d6103ac565b855162461bcd60e51b81528084018990526014602482015273496e73756666696369656e742062616c616e636560601b6044820152606490fd5b8092508a8092503d831161043d575b61042c81836109bf565b8101031261013a578190518a6101a2565b503d610422565b5080fd5b838234610444578160031936011261044457602090610465610a3c565b9051908152f35b50829034610444576020928360031936011261013e57815190636008d28b60e01b825280359082015260966024820152838160448186305af19283156104f05780936104bb575b505051908152f35b909192508382813d83116104e9575b6104d481836109bf565b810103126104e65750519083806104b3565b80fd5b503d6104ca565b8251903d90823e3d90fd5b83823461044457816003193601126104445760025490516001600160a01b039091168152602090f35b838234610444578160031936011261044457905490516001600160a01b039091168152602090f35b8382346104445781600319360112610444576020906005549051908152f35b83823461044457816003193601126104445760035490516001600160a01b039091168152602090f35b83346104e657806003193601126104e6576105ad6108d2565b80546001600160a01b03198116825581906001600160a01b03167f8be0079c531659141344cd1fd0a4f28419497f9722a3daafe3b4186f6b6457e08280a380f35b508290346104445780600319360112610444578235602492833590821561061581156108fe565b607883101580610881575b156108525760648402908482046064141715610840576106438361065192610968565b6127106101fa89548361093f565b6003548551634c6afee560e11b8152602098926001600160a01b03928a9083908690829087165afa918215610836578592610807575b506c0c9f2c9cd04674edea40000000908181029181830414901517156107f557906106b191610968565b9687156107c15788849160648460015416918a5194859384926323b872dd60e01b8452338a85015230908401528b60448401525af19081156107b757906106fe91859161079a57506109fe565b6002541690813b1561013e5785516340c10f1960e01b815233918101918252602082018890529291829184919082908490829060400103925af190811561078f5750610780575b5082519182528385830152828201527fb4c03061fb5b7fed76389d5af8f2e0ddb09f8c70d1333abbb62582835e10accb60603392a251908152f35b61078990610995565b85610745565b8551903d90823e3d90fd5b6107b191508a3d8c116102ee576102e081836109bf565b8a6102bc565b87513d86823e3d90fd5b8260106064928b8a519362461bcd60e51b85528401528201526f105b5bdd5b9d081d1bdbc81cdb585b1b60821b6044820152fd5b634e487b7160e01b8552601184528885fd5b9091508981813d831161082f575b61081f81836109bf565b8101031261013a5751908a610687565b503d610815565b88513d87823e3d90fd5b634e487b7160e01b8252601187528582fd5b845162461bcd60e51b8152602081890152600a818801526924b73b30b634b21021a960b11b6044820152606490fd5b5061012c831115610620565b83823461044457816003193601126104445760015490516001600160a01b039091168152602090f35b8490843461013e578260031936011261013e5760209250548152f35b6000546001600160a01b031633036108e657565b60405163118cdaa760e01b8152336004820152602490fd5b1561090557565b60405162461bcd60e51b81526020600482015260126024820152710416d6f756e74206d757374206265203e20360741b6044820152606490fd5b8181029291811591840414171561095257565b634e487b7160e01b600052601160045260246000fd5b8115610972570490565b634e487b7160e01b600052601260045260246000fd5b9190820391821161095257565b67ffffffffffffffff81116109a957604052565b634e487b7160e01b600052604160045260246000fd5b90601f8019910116810190811067ffffffffffffffff8211176109a957604052565b908160209103126109f9575180151581036109f95790565b600080fd5b15610a0557565b60405162461bcd60e51b815260206004820152600f60248201526e151c985b9cd9995c8819985a5b1959608a1b6044820152606490fd5b600254604080516318160ddd60e01b8152916001600160a01b03919060209081908590600490829087165afa938415610be357600094610bb4575b508315610bab578281602494600154168451958680926370a0823160e01b82523060048301525afa938415610ba057600094610b71575b5090806004939260035416835194858092634c6afee560e11b82525afa918215610b675750600091610b3b575b50905064e8d4a510009283830293838504148315171561095257670de0b6b3a764000091610b089161093f565b04908115610b3357655af3107a400002918083046064149015171561095257610b3091610968565b90565b505050600090565b82813d8311610b60575b610b4f81836109bf565b810103126104e65750518038610adb565b503d610b45565b513d6000823e3d90fd5b90938282813d8311610b99575b610b8881836109bf565b810103126104e65750519281610aae565b503d610b7e565b83513d6000823e3d90fd5b50505050600090565b90938482813d8311610bdc575b610bcb81836109bf565b810103126104e65750519238610a77565b503d610bc1565b82513d6000823e3d90fdfea26469706673582212201933e750cb9c82f693609c27ac5c34f9323124807d12ae9fed3846f8cdc1b00764736f6c63430008150033","opcodes":"PUSH1 0x80 CALLVALUE PUSH2 0x115 JUMPI PUSH1 0x1F PUSH2 0xD69 CODESIZE DUP2 SWAP1 SUB SWAP2 DUP3 ADD PUSH1 0x1F NOT AND DUP4 ADD SWAP2 PUSH1 0x1 PUSH1 0x1 PUSH1 0x40 SHL SUB DUP4 GT DUP5 DUP5 LT OR PUSH2 0x11A JUMPI DUP1 DUP5 SWAP3 PUSH1 0x80 SWAP5 PUSH1 0x40 MSTORE DUP4 CODECOPY DUP2 ADD SUB SLT PUSH2 0x115 JUMPI PUSH2 0x47 DUP2 PUSH2 0x130 JUMP JUMPDEST SWAP1 PUSH1 0x60 PUSH2 0x56 PUSH1 0x20 DUP4 ADD PUSH2 0x130 JUMP JUMPDEST SWAP2 PUSH2 0x63 PUSH1 0x40 DUP3 ADD PUSH2 0x130 JUMP JUMPDEST PUSH1 0x1 PUSH1 0x1 PUSH1 0xA0 SHL SUB SWAP3 SWAP1 SWAP2 DUP4 SWAP2 PUSH2 0x7A SWAP2 ADD PUSH2 0x130 JUMP JUMPDEST AND SWAP3 DUP4 ISZERO PUSH2 0xFC JUMPI PUSH1 0x0 DUP1 SLOAD PUSH1 0x1 PUSH1 0x1 PUSH1 0xA0 SHL SUB NOT DUP1 DUP3 AND DUP8 OR DUP4 SSTORE PUSH1 0x40 MLOAD SWAP8 SWAP1 SWAP7 DUP7 SWAP5 SWAP4 DUP6 SWAP4 DUP5 AND SWAP1 PUSH32 0x8BE0079C531659141344CD1FD0A4F28419497F9722A3DAAFE3B4186F6B6457E0 SWAP1 DUP1 LOG3 PUSH1 0x1E PUSH1 0x4 SSTORE PUSH1 0x78 PUSH1 0x5 SSTORE AND DUP6 PUSH1 0x1 SLOAD AND OR PUSH1 0x1 SSTORE AND DUP4 PUSH1 0x2 SLOAD AND OR PUSH1 0x2 SSTORE AND SWAP1 PUSH1 0x3 SLOAD AND OR PUSH1 0x3 SSTORE PUSH2 0xC24 SWAP1 DUP2 PUSH2 0x145 DUP3 CODECOPY RETURN JUMPDEST PUSH1 0x40 MLOAD PUSH4 0x1E4FBDF7 PUSH1 0xE0 SHL DUP2 MSTORE PUSH1 0x0 PUSH1 0x4 DUP3 ADD MSTORE PUSH1 0x24 SWAP1 REVERT JUMPDEST PUSH1 0x0 DUP1 REVERT JUMPDEST PUSH4 0x4E487B71 PUSH1 0xE0 SHL PUSH1 0x0 MSTORE PUSH1 0x41 PUSH1 0x4 MSTORE PUSH1 0x24 PUSH1 0x0 REVERT JUMPDEST MLOAD SWAP1 PUSH1 0x1 PUSH1 0x1 PUSH1 0xA0 SHL SUB DUP3 AND DUP3 SUB PUSH2 0x115 JUMPI JUMP INVALID PUSH1 0x80 PUSH1 0x40 DUP2 DUP2 MSTORE PUSH1 0x4 SWAP1 DUP2 CALLDATASIZE LT ISZERO PUSH2 0x16 JUMPI PUSH1 0x0 DUP1 REVERT JUMPDEST PUSH1 0x0 SWAP3 DUP4 CALLDATALOAD PUSH1 0xE0 SHR SWAP1 DUP2 PUSH4 0x13966DB5 EQ PUSH2 0x8B6 JUMPI POP DUP1 PUSH4 0x3E413BEE EQ PUSH2 0x88D JUMPI DUP1 PUSH4 0x6008D28B EQ PUSH2 0x5EE JUMPI DUP1 PUSH4 0x715018A6 EQ PUSH2 0x594 JUMPI DUP1 PUSH4 0x7DC0D1D0 EQ PUSH2 0x56B JUMPI DUP1 PUSH4 0x84DA2666 EQ PUSH2 0x54C JUMPI DUP1 PUSH4 0x8DA5CB5B EQ PUSH2 0x524 JUMPI DUP1 PUSH4 0x9F80FB4E EQ PUSH2 0x4FB JUMPI DUP1 PUSH4 0xA0712D68 EQ PUSH2 0x46C JUMPI DUP1 PUSH4 0xCD377C53 EQ PUSH2 0x448 JUMPI DUP1 PUSH4 0xDB006A75 EQ PUSH2 0x142 JUMPI PUSH4 0xF2FDE38B EQ PUSH2 0xA8 JUMPI PUSH1 0x0 DUP1 REVERT JUMPDEST CALLVALUE PUSH2 0x13E JUMPI PUSH1 0x20 CALLDATASIZE PUSH1 0x3 NOT ADD SLT PUSH2 0x13E JUMPI PUSH1 0x1 PUSH1 0x1 PUSH1 0xA0 SHL SUB DUP3 CALLDATALOAD DUP2 DUP2 AND SWAP4 SWAP2 SWAP3 SWAP1 DUP5 SWAP1 SUB PUSH2 0x13A JUMPI PUSH2 0xD9 PUSH2 0x8D2 JUMP JUMPDEST DUP4 ISZERO PUSH2 0x124 JUMPI POP POP PUSH1 0x0 SLOAD DUP3 PUSH12 0xFFFFFFFFFFFFFFFFFFFFFFFF PUSH1 0xA0 SHL DUP3 AND OR PUSH1 0x0 SSTORE AND PUSH32 0x8BE0079C531659141344CD1FD0A4F28419497F9722A3DAAFE3B4186F6B6457E0 PUSH1 0x0 DUP1 LOG3 DUP1 RETURN JUMPDEST MLOAD PUSH4 0x1E4FBDF7 PUSH1 0xE0 SHL DUP2 MSTORE SWAP1 DUP2 ADD DUP5 SWAP1 MSTORE PUSH1 0x24 SWAP1 REVERT JUMPDEST DUP5 DUP1 REVERT JUMPDEST DUP3 DUP1 REVERT JUMPDEST POP DUP3 SWAP1 CALLVALUE PUSH2 0x444 JUMPI PUSH1 0x20 SWAP3 DUP4 PUSH1 0x3 NOT CALLDATASIZE ADD SLT PUSH2 0x13E JUMPI DUP1 CALLDATALOAD SWAP3 PUSH2 0x166 DUP5 ISZERO ISZERO PUSH2 0x8FE JUMP JUMPDEST PUSH1 0x2 SLOAD DUP4 MLOAD PUSH4 0x70A08231 PUSH1 0xE0 SHL DUP1 DUP3 MSTORE CALLER DUP3 DUP7 ADD MSTORE SWAP6 PUSH1 0x1 PUSH1 0x1 PUSH1 0xA0 SHL SUB SWAP5 SWAP3 DUP6 AND SWAP2 DUP9 DUP2 PUSH1 0x24 DUP2 DUP7 GAS STATICCALL SWAP1 DUP2 ISZERO PUSH2 0x395 JUMPI SWAP1 DUP3 SWAP2 DUP7 SWAP2 PUSH2 0x413 JUMPI JUMPDEST POP LT PUSH2 0x3D9 JUMPI DUP3 DUP9 DUP7 PUSH1 0x3 SLOAD AND DUP9 MLOAD SWAP3 DUP4 DUP1 SWAP3 PUSH4 0x4C6AFEE5 PUSH1 0xE1 SHL DUP3 MSTORE GAS STATICCALL SWAP1 DUP2 ISZERO PUSH2 0x395 JUMPI DUP6 SWAP2 PUSH2 0x39F JUMPI JUMPDEST POP PUSH13 0xC9F2C9CD04674EDEA40000000 PUSH2 0x1EB PUSH2 0x201 SWAP3 DUP5 PUSH2 0x93F JUMP JUMPDEST DIV PUSH2 0x2710 PUSH2 0x1FA DUP7 SLOAD DUP4 PUSH2 0x93F JUMP JUMPDEST DIV SWAP1 PUSH2 0x988 JUMP JUMPDEST SWAP7 DUP9 DUP7 PUSH1 0x1 SLOAD AND SWAP2 PUSH1 0x24 DUP10 MLOAD DUP1 SWAP5 DUP2 SWAP4 DUP3 MSTORE ADDRESS DUP10 DUP4 ADD MSTORE GAS STATICCALL SWAP1 DUP2 ISZERO PUSH2 0x395 JUMPI SWAP1 DUP9 SWAP2 DUP7 SWAP2 PUSH2 0x364 JUMPI JUMPDEST POP LT PUSH2 0x321 JUMPI DUP2 EXTCODESIZE ISZERO PUSH2 0x31D JUMPI DUP6 MLOAD PUSH4 0x2770A7EB PUSH1 0xE2 SHL DUP2 MSTORE CALLER DUP5 DUP3 ADD SWAP1 DUP2 MSTORE PUSH1 0x20 DUP2 ADD SWAP3 SWAP1 SWAP3 MSTORE SWAP2 DUP5 SWAP2 DUP4 SWAP2 SWAP1 DUP3 SWAP1 DUP5 SWAP1 DUP3 SWAP1 PUSH1 0x40 ADD SUB SWAP3 GAS CALL DUP1 ISZERO PUSH2 0x313 JUMPI SWAP2 DUP7 SWAP2 DUP9 SWAP4 PUSH2 0x300 JUMPI JUMPDEST POP PUSH1 0x1 SLOAD DUP7 MLOAD PUSH4 0xA9059CBB PUSH1 0xE0 SHL DUP2 MSTORE CALLER SWAP3 DUP2 ADD SWAP3 DUP4 MSTORE PUSH1 0x20 DUP4 ADD SWAP4 SWAP1 SWAP4 MSTORE SWAP4 SWAP5 SWAP2 SWAP4 DUP5 SWAP3 AND SWAP1 DUP3 SWAP1 DUP7 SWAP1 DUP3 SWAP1 PUSH1 0x40 ADD JUMPDEST SUB SWAP3 GAS CALL SWAP2 DUP3 ISZERO PUSH2 0x2F5 JUMPI SWAP1 PUSH2 0x2C2 SWAP3 PUSH2 0x2C8 JUMPI JUMPDEST POP PUSH2 0x9FE JUMP JUMPDEST MLOAD SWAP1 DUP2 MSTORE RETURN JUMPDEST PUSH2 0x2E8 SWAP2 POP DUP6 RETURNDATASIZE DUP8 GT PUSH2 0x2EE JUMPI JUMPDEST PUSH2 0x2E0 DUP2 DUP4 PUSH2 0x9BF JUMP JUMPDEST DUP2 ADD SWAP1 PUSH2 0x9E1 JUMP JUMPDEST DUP6 PUSH2 0x2BC JUMP JUMPDEST POP RETURNDATASIZE PUSH2 0x2D6 JUMP JUMPDEST DUP4 MLOAD SWAP1 RETURNDATASIZE SWAP1 DUP3 RETURNDATACOPY RETURNDATASIZE SWAP1 REVERT JUMPDEST SWAP4 PUSH2 0x30D PUSH2 0x2A7 SWAP6 PUSH2 0x995 JUMP JUMPDEST SWAP4 PUSH2 0x276 JUMP JUMPDEST DUP6 MLOAD RETURNDATASIZE DUP6 DUP3 RETURNDATACOPY RETURNDATASIZE SWAP1 REVERT JUMPDEST DUP4 DUP1 REVERT JUMPDEST DUP6 MLOAD PUSH3 0x461BCD PUSH1 0xE5 SHL DUP2 MSTORE DUP1 DUP5 ADD DUP10 SWAP1 MSTORE PUSH1 0x17 PUSH1 0x24 DUP3 ADD MSTORE PUSH32 0x496E73756666696369656E74207661756C742055534443000000000000000000 PUSH1 0x44 DUP3 ADD MSTORE PUSH1 0x64 SWAP1 REVERT JUMPDEST DUP1 SWAP3 POP DUP11 DUP1 SWAP3 POP RETURNDATASIZE DUP4 GT PUSH2 0x38E JUMPI JUMPDEST PUSH2 0x37D DUP2 DUP4 PUSH2 0x9BF JUMP JUMPDEST DUP2 ADD SUB SLT PUSH2 0x13A JUMPI DUP8 SWAP1 MLOAD DUP11 PUSH2 0x22B JUMP JUMPDEST POP RETURNDATASIZE PUSH2 0x373 JUMP JUMPDEST DUP8 MLOAD RETURNDATASIZE DUP8 DUP3 RETURNDATACOPY RETURNDATASIZE SWAP1 REVERT JUMPDEST SWAP1 POP DUP9 DUP2 DUP2 RETURNDATASIZE DUP4 GT PUSH2 0x3D2 JUMPI JUMPDEST PUSH2 0x3B6 DUP2 DUP4 PUSH2 0x9BF JUMP JUMPDEST DUP2 ADD SUB SLT PUSH2 0x13A JUMPI MLOAD PUSH13 0xC9F2C9CD04674EDEA40000000 PUSH2 0x1CF JUMP JUMPDEST POP RETURNDATASIZE PUSH2 0x3AC JUMP JUMPDEST DUP6 MLOAD PUSH3 0x461BCD PUSH1 0xE5 SHL DUP2 MSTORE DUP1 DUP5 ADD DUP10 SWAP1 MSTORE PUSH1 0x14 PUSH1 0x24 DUP3 ADD MSTORE PUSH20 0x496E73756666696369656E742062616C616E6365 PUSH1 0x60 SHL PUSH1 0x44 DUP3 ADD MSTORE PUSH1 0x64 SWAP1 REVERT JUMPDEST DUP1 SWAP3 POP DUP11 DUP1 SWAP3 POP RETURNDATASIZE DUP4 GT PUSH2 0x43D JUMPI JUMPDEST PUSH2 0x42C DUP2 DUP4 PUSH2 0x9BF JUMP JUMPDEST DUP2 ADD SUB SLT PUSH2 0x13A JUMPI DUP2 SWAP1 MLOAD DUP11 PUSH2 0x1A2 JUMP JUMPDEST POP RETURNDATASIZE PUSH2 0x422 JUMP JUMPDEST POP DUP1 REVERT JUMPDEST DUP4 DUP3 CALLVALUE PUSH2 0x444 JUMPI DUP2 PUSH1 0x3 NOT CALLDATASIZE ADD SLT PUSH2 0x444 JUMPI PUSH1 0x20 SWAP1 PUSH2 0x465 PUSH2 0xA3C JUMP JUMPDEST SWAP1 MLOAD SWAP1 DUP2 MSTORE RETURN JUMPDEST POP DUP3 SWAP1 CALLVALUE PUSH2 0x444 JUMPI PUSH1 0x20 SWAP3 DUP4 PUSH1 0x3 NOT CALLDATASIZE ADD SLT PUSH2 0x13E JUMPI DUP2 MLOAD SWAP1 PUSH4 0x6008D28B PUSH1 0xE0 SHL DUP3 MSTORE DUP1 CALLDATALOAD SWAP1 DUP3 ADD MSTORE PUSH1 0x96 PUSH1 0x24 DUP3 ADD MSTORE DUP4 DUP2 PUSH1 0x44 DUP2 DUP7 ADDRESS GAS CALL SWAP3 DUP4 ISZERO PUSH2 0x4F0 JUMPI DUP1 SWAP4 PUSH2 0x4BB JUMPI JUMPDEST POP POP MLOAD SWAP1 DUP2 MSTORE RETURN JUMPDEST SWAP1 SWAP2 SWAP3 POP DUP4 DUP3 DUP2 RETURNDATASIZE DUP4 GT PUSH2 0x4E9 JUMPI JUMPDEST PUSH2 0x4D4 DUP2 DUP4 PUSH2 0x9BF JUMP JUMPDEST DUP2 ADD SUB SLT PUSH2 0x4E6 JUMPI POP MLOAD SWAP1 DUP4 DUP1 PUSH2 0x4B3 JUMP JUMPDEST DUP1 REVERT JUMPDEST POP RETURNDATASIZE PUSH2 0x4CA JUMP JUMPDEST DUP3 MLOAD SWAP1 RETURNDATASIZE SWAP1 DUP3 RETURNDATACOPY RETURNDATASIZE SWAP1 REVERT JUMPDEST DUP4 DUP3 CALLVALUE PUSH2 0x444 JUMPI DUP2 PUSH1 0x3 NOT CALLDATASIZE ADD SLT PUSH2 0x444 JUMPI PUSH1 0x2 SLOAD SWAP1 MLOAD PUSH1 0x1 PUSH1 0x1 PUSH1 0xA0 SHL SUB SWAP1 SWAP2 AND DUP2 MSTORE PUSH1 0x20 SWAP1 RETURN JUMPDEST DUP4 DUP3 CALLVALUE PUSH2 0x444 JUMPI DUP2 PUSH1 0x3 NOT CALLDATASIZE ADD SLT PUSH2 0x444 JUMPI SWAP1 SLOAD SWAP1 MLOAD PUSH1 0x1 PUSH1 0x1 PUSH1 0xA0 SHL SUB SWAP1 SWAP2 AND DUP2 MSTORE PUSH1 0x20 SWAP1 RETURN JUMPDEST DUP4 DUP3 CALLVALUE PUSH2 0x444 JUMPI DUP2 PUSH1 0x3 NOT CALLDATASIZE ADD SLT PUSH2 0x444 JUMPI PUSH1 0x20 SWAP1 PUSH1 0x5 SLOAD SWAP1 MLOAD SWAP1 DUP2 MSTORE RETURN JUMPDEST DUP4 DUP3 CALLVALUE PUSH2 0x444 JUMPI DUP2 PUSH1 0x3 NOT CALLDATASIZE ADD SLT PUSH2 0x444 JUMPI PUSH1 0x3 SLOAD SWAP1 MLOAD PUSH1 0x1 PUSH1 0x1 PUSH1 0xA0 SHL SUB SWAP1 SWAP2 AND DUP2 MSTORE PUSH1 0x20 SWAP1 RETURN JUMPDEST DUP4 CALLVALUE PUSH2 0x4E6 JUMPI DUP1 PUSH1 0x3 NOT CALLDATASIZE ADD SLT PUSH2 0x4E6 JUMPI PUSH2 0x5AD PUSH2 0x8D2 JUMP JUMPDEST DUP1 SLOAD PUSH1 0x1 PUSH1 0x1 PUSH1 0xA0 SHL SUB NOT DUP2 AND DUP3 SSTORE DUP2 SWAP1 PUSH1 0x1 PUSH1 0x1 PUSH1 0xA0 SHL SUB AND PUSH32 0x8BE0079C531659141344CD1FD0A4F28419497F9722A3DAAFE3B4186F6B6457E0 DUP3 DUP1 LOG3 DUP1 RETURN JUMPDEST POP DUP3 SWAP1 CALLVALUE PUSH2 0x444 JUMPI DUP1 PUSH1 0x3 NOT CALLDATASIZE ADD SLT PUSH2 0x444 JUMPI DUP3 CALLDATALOAD PUSH1 0x24 SWAP3 DUP4 CALLDATALOAD SWAP1 DUP3 ISZERO PUSH2 0x615 DUP2 ISZERO PUSH2 0x8FE JUMP JUMPDEST PUSH1 0x78 DUP4 LT ISZERO DUP1 PUSH2 0x881 JUMPI JUMPDEST ISZERO PUSH2 0x852 JUMPI PUSH1 0x64 DUP5 MUL SWAP1 DUP5 DUP3 DIV PUSH1 0x64 EQ OR ISZERO PUSH2 0x840 JUMPI PUSH2 0x643 DUP4 PUSH2 0x651 SWAP3 PUSH2 0x968 JUMP JUMPDEST PUSH2 0x2710 PUSH2 0x1FA DUP10 SLOAD DUP4 PUSH2 0x93F JUMP JUMPDEST PUSH1 0x3 SLOAD DUP6 MLOAD PUSH4 0x4C6AFEE5 PUSH1 0xE1 SHL DUP2 MSTORE PUSH1 0x20 SWAP9 SWAP3 PUSH1 0x1 PUSH1 0x1 PUSH1 0xA0 SHL SUB SWAP3 DUP11 SWAP1 DUP4 SWAP1 DUP7 SWAP1 DUP3 SWAP1 DUP8 AND GAS STATICCALL SWAP2 DUP3 ISZERO PUSH2 0x836 JUMPI DUP6 SWAP3 PUSH2 0x807 JUMPI JUMPDEST POP PUSH13 0xC9F2C9CD04674EDEA40000000 SWAP1 DUP2 DUP2 MUL SWAP2 DUP2 DUP4 DIV EQ SWAP1 ISZERO OR ISZERO PUSH2 0x7F5 JUMPI SWAP1 PUSH2 0x6B1 SWAP2 PUSH2 0x968 JUMP JUMPDEST SWAP7 DUP8 ISZERO PUSH2 0x7C1 JUMPI DUP9 DUP5 SWAP2 PUSH1 0x64 DUP5 PUSH1 0x1 SLOAD AND SWAP2 DUP11 MLOAD SWAP5 DUP6 SWAP4 DUP5 SWAP3 PUSH4 0x23B872DD PUSH1 0xE0 SHL DUP5 MSTORE CALLER DUP11 DUP6 ADD MSTORE ADDRESS SWAP1 DUP5 ADD MSTORE DUP12 PUSH1 0x44 DUP5 ADD MSTORE GAS CALL SWAP1 DUP2 ISZERO PUSH2 0x7B7 JUMPI SWAP1 PUSH2 0x6FE SWAP2 DUP6 SWAP2 PUSH2 0x79A JUMPI POP PUSH2 0x9FE JUMP JUMPDEST PUSH1 0x2 SLOAD AND SWAP1 DUP2 EXTCODESIZE ISZERO PUSH2 0x13E JUMPI DUP6 MLOAD PUSH4 0x40C10F19 PUSH1 0xE0 SHL DUP2 MSTORE CALLER SWAP2 DUP2 ADD SWAP2 DUP3 MSTORE PUSH1 0x20 DUP3 ADD DUP9 SWAP1 MSTORE SWAP3 SWAP2 DUP3 SWAP2 DUP5 SWAP2 SWAP1 DUP3 SWAP1 DUP5 SWAP1 DUP3 SWAP1 PUSH1 0x40 ADD SUB SWAP3 GAS CALL SWAP1 DUP2 ISZERO PUSH2 0x78F JUMPI POP PUSH2 0x780 JUMPI JUMPDEST POP DUP3 MLOAD SWAP2 DUP3 MSTORE DUP4 DUP6 DUP4 ADD MSTORE DUP3 DUP3 ADD MSTORE PUSH32 0xB4C03061FB5B7FED76389D5AF8F2E0DDB09F8C70D1333ABBB62582835E10ACCB PUSH1 0x60 CALLER SWAP3 LOG2 MLOAD SWAP1 DUP2 MSTORE RETURN JUMPDEST PUSH2 0x789 SWAP1 PUSH2 0x995 JUMP JUMPDEST DUP6 PUSH2 0x745 JUMP JUMPDEST DUP6 MLOAD SWAP1 RETURNDATASIZE SWAP1 DUP3 RETURNDATACOPY RETURNDATASIZE SWAP1 REVERT JUMPDEST PUSH2 0x7B1 SWAP2 POP DUP11 RETURNDATASIZE DUP13 GT PUSH2 0x2EE JUMPI PUSH2 0x2E0 DUP2 DUP4 PUSH2 0x9BF JUMP JUMPDEST DUP11 PUSH2 0x2BC JUMP JUMPDEST DUP8 MLOAD RETURNDATASIZE DUP7 DUP3 RETURNDATACOPY RETURNDATASIZE SWAP1 REVERT JUMPDEST DUP3 PUSH1 0x10 PUSH1 0x64 SWAP3 DUP12 DUP11 MLOAD SWAP4 PUSH3 0x461BCD PUSH1 0xE5 SHL DUP6 MSTORE DUP5 ADD MSTORE DUP3 ADD MSTORE PUSH16 0x105B5BDD5B9D081D1BDBC81CDB585B1B PUSH1 0x82 SHL PUSH1 0x44 DUP3 ADD MSTORE REVERT JUMPDEST PUSH4 0x4E487B71 PUSH1 0xE0 SHL DUP6 MSTORE PUSH1 0x11 DUP5 MSTORE DUP9 DUP6 REVERT JUMPDEST SWAP1 SWAP2 POP DUP10 DUP2 DUP2 RETURNDATASIZE DUP4 GT PUSH2 0x82F JUMPI JUMPDEST PUSH2 0x81F DUP2 DUP4 PUSH2 0x9BF JUMP JUMPDEST DUP2 ADD SUB SLT PUSH2 0x13A JUMPI MLOAD SWAP1 DUP11 PUSH2 0x687 JUMP JUMPDEST POP RETURNDATASIZE PUSH2 0x815 JUMP JUMPDEST DUP9 MLOAD RETURNDATASIZE DUP8 DUP3 RETURNDATACOPY RETURNDATASIZE SWAP1 REVERT JUMPDEST PUSH4 0x4E487B71 PUSH1 0xE0 SHL DUP3 MSTORE PUSH1 0x11 DUP8 MSTORE DUP6 DUP3 REVERT JUMPDEST DUP5 MLOAD PUSH3 0x461BCD PUSH1 0xE5 SHL DUP2 MSTORE PUSH1 0x20 DUP2 DUP10 ADD MSTORE PUSH1 0xA DUP2 DUP9 ADD MSTORE PUSH10 0x24B73B30B634B21021A9 PUSH1 0xB1 SHL PUSH1 0x44 DUP3 ADD MSTORE PUSH1 0x64 SWAP1 REVERT JUMPDEST POP PUSH2 0x12C DUP4 GT ISZERO PUSH2 0x620 JUMP JUMPDEST DUP4 DUP3 CALLVALUE PUSH2 0x444 JUMPI DUP2 PUSH1 0x3 NOT CALLDATASIZE ADD SLT PUSH2 0x444 JUMPI PUSH1 0x1 SLOAD SWAP1 MLOAD PUSH1 0x1 PUSH1 0x1 PUSH1 0xA0 SHL SUB SWAP1 SWAP2 AND DUP2 MSTORE PUSH1 0x20 SWAP1 RETURN JUMPDEST DUP5 SWAP1 DUP5 CALLVALUE PUSH2 0x13E JUMPI DUP3 PUSH1 0x3 NOT CALLDATASIZE ADD SLT PUSH2 0x13E JUMPI PUSH1 0x20 SWAP3 POP SLOAD DUP2 MSTORE RETURN JUMPDEST PUSH1 0x0 SLOAD PUSH1 0x1 PUSH1 0x1 PUSH1 0xA0 SHL SUB AND CALLER SUB PUSH2 0x8E6 JUMPI JUMP JUMPDEST PUSH1 0x40 MLOAD PUSH4 0x118CDAA7 PUSH1 0xE0 SHL DUP2 MSTORE CALLER PUSH1 0x4 DUP3 ADD MSTORE PUSH1 0x24 SWAP1 REVERT JUMPDEST ISZERO PUSH2 0x905 JUMPI JUMP JUMPDEST PUSH1 0x40 MLOAD PUSH3 0x461BCD PUSH1 0xE5 SHL DUP2 MSTORE PUSH1 0x20 PUSH1 0x4 DUP3 ADD MSTORE PUSH1 0x12 PUSH1 0x24 DUP3 ADD MSTORE PUSH18 0x416D6F756E74206D757374206265203E203 PUSH1 0x74 SHL PUSH1 0x44 DUP3 ADD MSTORE PUSH1 0x64 SWAP1 REVERT JUMPDEST DUP2 DUP2 MUL SWAP3 SWAP2 DUP2 ISZERO SWAP2 DUP5 DIV EQ OR ISZERO PUSH2 0x952 JUMPI JUMP JUMPDEST PUSH4 0x4E487B71 PUSH1 0xE0 SHL PUSH1 0x0 MSTORE PUSH1 0x11 PUSH1 0x4 MSTORE PUSH1 0x24 PUSH1 0x0 REVERT JUMPDEST DUP2 ISZERO PUSH2 0x972 JUMPI DIV SWAP1 JUMP JUMPDEST PUSH4 0x4E487B71 PUSH1 0xE0 SHL PUSH1 0x0 MSTORE PUSH1 0x12 PUSH1 0x4 MSTORE PUSH1 0x24 PUSH1 0x0 REVERT JUMPDEST SWAP2 SWAP1 DUP3 SUB SWAP2 DUP3 GT PUSH2 0x952 JUMPI JUMP JUMPDEST PUSH8 0xFFFFFFFFFFFFFFFF DUP2 GT PUSH2 0x9A9 JUMPI PUSH1 0x40 MSTORE JUMP JUMPDEST PUSH4 0x4E487B71 PUSH1 0xE0 SHL PUSH1 0x0 MSTORE PUSH1 0x41 PUSH1 0x4 MSTORE PUSH1 0x24 PUSH1 0x0 REVERT JUMPDEST SWAP1 PUSH1 0x1F DUP1 NOT SWAP2 ADD AND DUP2 ADD SWAP1 DUP2 LT PUSH8 0xFFFFFFFFFFFFFFFF DUP3 GT OR PUSH2 0x9A9 JUMPI PUSH1 0x40 MSTORE JUMP JUMPDEST SWAP1 DUP2 PUSH1 0x20 SWAP2 SUB SLT PUSH2 0x9F9 JUMPI MLOAD DUP1 ISZERO ISZERO DUP2 SUB PUSH2 0x9F9 JUMPI SWAP1 JUMP JUMPDEST PUSH1 0x0 DUP1 REVERT JUMPDEST ISZERO PUSH2 0xA05 JUMPI JUMP JUMPDEST PUSH1 0x40 MLOAD PUSH3 0x461BCD PUSH1 0xE5 SHL DUP2 MSTORE PUSH1 0x20 PUSH1 0x4 DUP3 ADD MSTORE PUSH1 0xF PUSH1 0x24 DUP3 ADD MSTORE PUSH15 0x151C985B9CD9995C8819985A5B1959 PUSH1 0x8A SHL PUSH1 0x44 DUP3 ADD MSTORE PUSH1 0x64 SWAP1 REVERT JUMPDEST PUSH1 0x2 SLOAD PUSH1 0x40 DUP1 MLOAD PUSH4 0x18160DDD PUSH1 0xE0 SHL DUP2 MSTORE SWAP2 PUSH1 0x1 PUSH1 0x1 PUSH1 0xA0 SHL SUB SWAP2 SWAP1 PUSH1 0x20 SWAP1 DUP2 SWAP1 DUP6 SWAP1 PUSH1 0x4 SWAP1 DUP3 SWAP1 DUP8 AND GAS STATICCALL SWAP4 DUP5 ISZERO PUSH2 0xBE3 JUMPI PUSH1 0x0 SWAP5 PUSH2 0xBB4 JUMPI JUMPDEST POP DUP4 ISZERO PUSH2 0xBAB JUMPI DUP3 DUP2 PUSH1 0x24 SWAP5 PUSH1 0x1 SLOAD AND DUP5 MLOAD SWAP6 DUP7 DUP1 SWAP3 PUSH4 0x70A08231 PUSH1 0xE0 SHL DUP3 MSTORE ADDRESS PUSH1 0x4 DUP4 ADD MSTORE GAS STATICCALL SWAP4 DUP5 ISZERO PUSH2 0xBA0 JUMPI PUSH1 0x0 SWAP5 PUSH2 0xB71 JUMPI JUMPDEST POP SWAP1 DUP1 PUSH1 0x4 SWAP4 SWAP3 PUSH1 0x3 SLOAD AND DUP4 MLOAD SWAP5 DUP6 DUP1 SWAP3 PUSH4 0x4C6AFEE5 PUSH1 0xE1 SHL DUP3 MSTORE GAS STATICCALL SWAP2 DUP3 ISZERO PUSH2 0xB67 JUMPI POP PUSH1 0x0 SWAP2 PUSH2 0xB3B JUMPI JUMPDEST POP SWAP1 POP PUSH5 0xE8D4A51000 SWAP3 DUP4 DUP4 MUL SWAP4 DUP4 DUP6 DIV EQ DUP4 ISZERO OR ISZERO PUSH2 0x952 JUMPI PUSH8 0xDE0B6B3A7640000 SWAP2 PUSH2 0xB08 SWAP2 PUSH2 0x93F JUMP JUMPDEST DIV SWAP1 DUP2 ISZERO PUSH2 0xB33 JUMPI PUSH6 0x5AF3107A4000 MUL SWAP2 DUP1 DUP4 DIV PUSH1 0x64 EQ SWAP1 ISZERO OR ISZERO PUSH2 0x952 JUMPI PUSH2 0xB30 SWAP2 PUSH2 0x968 JUMP JUMPDEST SWAP1 JUMP JUMPDEST POP POP POP PUSH1 0x0 SWAP1 JUMP JUMPDEST DUP3 DUP2 RETURNDATASIZE DUP4 GT PUSH2 0xB60 JUMPI JUMPDEST PUSH2 0xB4F DUP2 DUP4 PUSH2 0x9BF JUMP JUMPDEST DUP2 ADD SUB SLT PUSH2 0x4E6 JUMPI POP MLOAD DUP1 CODESIZE PUSH2 0xADB JUMP JUMPDEST POP RETURNDATASIZE PUSH2 0xB45 JUMP JUMPDEST MLOAD RETURNDATASIZE PUSH1 0x0 DUP3 RETURNDATACOPY RETURNDATASIZE SWAP1 REVERT JUMPDEST SWAP1 SWAP4 DUP3 DUP3 DUP2 RETURNDATASIZE DUP4 GT PUSH2 0xB99 JUMPI JUMPDEST PUSH2 0xB88 DUP2 DUP4 PUSH2 0x9BF JUMP JUMPDEST DUP2 ADD SUB SLT PUSH2 0x4E6 JUMPI POP MLOAD SWAP3 DUP2 PUSH2 0xAAE JUMP JUMPDEST POP RETURNDATASIZE PUSH2 0xB7E JUMP JUMPDEST DUP4 MLOAD RETURNDATASIZE PUSH1 0x0 DUP3 RETURNDATACOPY RETURNDATASIZE SWAP1 REVERT JUMPDEST POP POP POP POP PUSH1 0x0 SWAP1 JUMP JUMPDEST SWAP1 SWAP4 DUP5 DUP3 DUP2 RETURNDATASIZE DUP4 GT PUSH2 0xBDC JUMPI JUMPDEST PUSH2 0xBCB DUP2 DUP4 PUSH2 0x9BF JUMP JUMPDEST DUP2 ADD SUB SLT PUSH2 0x4E6 JUMPI POP MLOAD SWAP3 CODESIZE PUSH2 0xA77 JUMP JUMPDEST POP RETURNDATASIZE PUSH2 0xBC1 JUMP JUMPDEST DUP3 MLOAD RETURNDATASIZE PUSH1 0x0 DUP3 RETURNDATACOPY RETURNDATASIZE SWAP1 REVERT INVALID LOG2 PUSH5 0x6970667358 0x22 SLT KECCAK256 NOT CALLER 0xE7 POP 0xCB SWAP13 DUP3 0xF6 SWAP4 PUSH1 0x9C 0x27 0xAC 0x5C CALLVALUE 0xF9 ORIGIN BALANCE 0x24 DUP1 PUSH30 0x12AE9FED3846F8CDC1B00764736F6C634300081500330000000000000000 "},"methodIdentifiers":{"bvix()":"9f80fb4e","getCollateralRatio()":"cd377c53","minCollateralRatio()":"84da2666","mint(uint256)":"a0712d68","mintFee()":"13966db5","mintWithCollateralRatio(uint256,uint256)":"6008d28b","oracle()":"7dc0d1d0","owner()":"8da5cb5b","redeem(uint256)":"db006a75","renounceOwnership()":"715018a6","transferOwnership(address)":"f2fde38b","usdc()":"3e413bee"}}}}}