{"contracts/MintRedeemV4.sol":{"MintRedeemV4":{"abi":[{"inputs":[{"internalType":"address","name":"_usdc","type":"address"},{"internalType":"address","name":"_bvix","type":"address"},{"internalType":"address","name":"_oracle","type":"address"},{"internalType":"address","name":"initialOwner","type":"address"}],"stateMutability":"nonpayable","type":"constructor"},{"inputs":[{"internalType":"address","name":"owner","type":"address"}],"name":"OwnableInvalidOwner","type":"error"},{"inputs":[{"internalType":"address","name":"account","type":"address"}],"name":"OwnableUnauthorizedAccount","type":"error"},{"anonymous":false,"inputs":[{"indexed":true,"internalType":"address","name":"user","type":"address"},{"indexed":false,"internalType":"uint256","name":"usdcAmount","type":"uint256"},{"indexed":false,"internalType":"uint256","name":"bvixMinted","type":"uint256"}],"name":"Mint","type":"event"},{"anonymous":false,"inputs":[{"indexed":true,"internalType":"address","name":"previousOwner","type":"address"},{"indexed":true,"internalType":"address","name":"newOwner","type":"address"}],"name":"OwnershipTransferred","type":"event"},{"anonymous":false,"inputs":[{"indexed":true,"internalType":"address","name":"user","type":"address"},{"indexed":false,"internalType":"uint256","name":"bvixAmount","type":"uint256"},{"indexed":false,"internalType":"uint256","name":"usdcRedeemed","type":"uint256"}],"name":"Redeem","type":"event"},{"inputs":[],"name":"bvix","outputs":[{"internalType":"contract BVIXToken","name":"","type":"address"}],"stateMutability":"view","type":"function"},{"inputs":[],"name":"getCollateralRatio","outputs":[{"internalType":"uint256","name":"","type":"uint256"}],"stateMutability":"view","type":"function"},{"inputs":[],"name":"minCollateralRatio","outputs":[{"internalType":"uint256","name":"","type":"uint256"}],"stateMutability":"view","type":"function"},{"inputs":[{"internalType":"uint256","name":"amount","type":"uint256"}],"name":"mint","outputs":[{"internalType":"uint256","name":"","type":"uint256"}],"stateMutability":"nonpayable","type":"function"},{"inputs":[],"name":"mintFee","outputs":[{"internalType":"uint256","name":"","type":"uint256"}],"stateMutability":"view","type":"function"},{"inputs":[],"name":"oracle","outputs":[{"internalType":"contract MockOracle","name":"","type":"address"}],"stateMutability":"view","type":"function"},{"inputs":[],"name":"owner","outputs":[{"internalType":"address","name":"","type":"address"}],"stateMutability":"view","type":"function"},{"inputs":[{"internalType":"uint256","name":"bvixAmount","type":"uint256"}],"name":"redeem","outputs":[],"stateMutability":"nonpayable","type":"function"},{"inputs":[],"name":"redeemFee","outputs":[{"internalType":"uint256","name":"","type":"uint256"}],"stateMutability":"view","type":"function"},{"inputs":[],"name":"renounceOwnership","outputs":[],"stateMutability":"nonpayable","type":"function"},{"inputs":[{"internalType":"address","name":"newOwner","type":"address"}],"name":"transferOwnership","outputs":[],"stateMutability":"nonpayable","type":"function"},{"inputs":[],"name":"usdc","outputs":[{"internalType":"contract IERC20","name":"","type":"address"}],"stateMutability":"view","type":"function"}],"evm":{"bytecode":{"linkReferences":{},"object":"60803461011a57601f610c1f38819003918201601f19168301916001600160401b0383118484101761011f5780849260809460405283398101031261011a5761004781610135565b90606061005660208301610135565b9161006360408201610135565b6001600160a01b03929091839161007a9101610135565b1692831561010157600080546001600160a01b03198082168717835560405197909686949385938416907f8be0079c531659141344cd1fd0a4f28419497f9722a3daafe3b4186f6b6457e09080a3601e600455601e6005556078600655168560015416176001551683600254161760025516906003541617600355610ad5908161014a8239f35b604051631e4fbdf760e01b815260006004820152602490fd5b600080fd5b634e487b7160e01b600052604160045260246000fd5b51906001600160a01b038216820361011a5756fe608060408181526004908136101561001657600080fd5b600092833560e01c90816313966db5146104bd575080633e413bee14610494578063715018a61461043a5780637dc0d1d01461041157806384da2666146103f25780638da5cb5b146103ca578063965fa21e146103ab5780639f80fb4e14610382578063a0712d681461035f578063cd377c531461033b578063db006a75146101425763f2fde38b146100a857600080fd5b3461013e57602036600319011261013e576001600160a01b0382358181169391929084900361013a576100d96104d9565b8315610124575050600054826bffffffffffffffffffffffff60a01b821617600055167f8be0079c531659141344cd1fd0a4f28419497f9722a3daafe3b4186f6b6457e0600080a380f35b51631e4fbdf760e01b8152908101849052602490fd5b8480fd5b8280fd5b50919034610337576020928360031936011261013e5781359161016683151561074c565b6003548251634c6afee560e11b81526001600160a01b03969182908290859082908b165afa90811561032d5786916102ef575b506c0c9f2c9cd04674edea400000006101b56101cc9287610551565b046127106101c560055483610551565b049061078d565b918660025416803b156102eb578451632770a7eb60e21b815233838201908152602081018890529091889183919082908490829060400103925af180156102e1576102c8575b50600154845163a9059cbb60e01b815233928101928352602083018590529697839288929091169082908a9082906040015b03925af19485156102be577fe5b754fb1abb7f01b499791d0b820ae3b6af3424ac1c59768edb53f4ec31a9299495610283918891610291575b506107b7565b82519485528401523392a280f35b6102b19150833d85116102b7575b6102a9818361052f565b81019061079a565b3861027d565b503d61029f565b83513d88823e3d90fd5b8291610244976102d88693610505565b97509150610212565b85513d89823e3d90fd5b8680fd5b90508181813d8311610326575b610306818361052f565b8101031261032257516c0c9f2c9cd04674edea40000000610199565b8580fd5b503d6102fc565b84513d88823e3d90fd5b5080fd5b83823461033757816003193601126103375760209061035861059a565b9051908152f35b50823461037f57602036600319011261037f5750610358602092356107f5565b80fd5b83823461033757816003193601126103375760025490516001600160a01b039091168152602090f35b8382346103375781600319360112610337576020906005549051908152f35b838234610337578160031936011261033757905490516001600160a01b039091168152602090f35b8382346103375781600319360112610337576020906006549051908152f35b83823461033757816003193601126103375760035490516001600160a01b039091168152602090f35b833461037f578060031936011261037f576104536104d9565b80546001600160a01b03198116825581906001600160a01b03167f8be0079c531659141344cd1fd0a4f28419497f9722a3daafe3b4186f6b6457e08280a380f35b83823461033757816003193601126103375760015490516001600160a01b039091168152602090f35b8490843461013e578260031936011261013e5760209250548152f35b6000546001600160a01b031633036104ed57565b60405163118cdaa760e01b8152336004820152602490fd5b67ffffffffffffffff811161051957604052565b634e487b7160e01b600052604160045260246000fd5b90601f8019910116810190811067ffffffffffffffff82111761051957604052565b8181029291811591840414171561056457565b634e487b7160e01b600052601160045260246000fd5b8115610584570490565b634e487b7160e01b600052601260045260246000fd5b600254604080516318160ddd60e01b8152916001600160a01b03919060209081908590600490829087165afa93841561074157600094610712575b508315610709578281602494600154168451958680926370a0823160e01b82523060048301525afa9384156106fe576000946106cf575b5090806004939260035416835194858092634c6afee560e11b82525afa9182156106c55750600091610699575b50905064e8d4a510009283830293838504148315171561056457670de0b6b3a76400009161066691610551565b0490811561069157655af3107a40000291808304606414901517156105645761068e9161057a565b90565b505050600090565b82813d83116106be575b6106ad818361052f565b8101031261037f5750518038610639565b503d6106a3565b513d6000823e3d90fd5b90938282813d83116106f7575b6106e6818361052f565b8101031261037f575051928161060c565b503d6106dc565b83513d6000823e3d90fd5b50505050600090565b90938482813d831161073a575b610729818361052f565b8101031261037f57505192386105d5565b503d61071f565b82513d6000823e3d90fd5b1561075357565b60405162461bcd60e51b81526020600482015260126024820152710416d6f756e74206d757374206265203e20360741b6044820152606490fd5b9190820391821161056457565b908160209103126107b2575180151581036107b25790565b600080fd5b156107be57565b60405162461bcd60e51b815260206004820152600f60248201526e151c985b9cd9995c8819985a5b1959608a1b6044820152606490fd5b61080081151561074c565b60035460408051634c6afee560e11b81526001600160a01b03939260209160049183908290849082908a165afa908115610a9457600091610a67575b5061085561271061084e845488610551565b048661078d565b6c0c9f2c9cd04674edea4000000090818102918183041490151715610a52579061087e9161057a565b948515610a1857818382600254168651928380926318160ddd60e01b82525afa9081156109a5576000916109eb575b50156109b05760015484516323b872dd60e01b81523384820190815230602082015260408101889052909185918391851690829060009082906060015b03925af19081156109a557906109079160009161098e57506107b7565b60025416803b156107b25783516340c10f1960e01b8152339281019283526020830187905291600091839182908490829060400103925af180156106fe579185917f4c209b5fc8ad50758f13e2e1088ba56a560dff690a1c6fef26394f4c03821c4f949361097f575b5082519485528401523392a290565b61098890610505565b38610970565b6102b19150853d87116102b7576102a9818361052f565b85513d6000823e3d90fd5b60015484516323b872dd60e01b81523384820190815230602082015260408101889052909185918391851690829060009082906060016108ea565b908482813d8311610a11575b610a01818361052f565b8101031261037f575051386108ad565b503d6109f7565b50915162461bcd60e51b8152918201526015602482015274135a5b9d08185b5bdd5b9d081d1bdbc81cdb585b1b605a1b6044820152606490fd5b601183634e487b7160e01b6000525260246000fd5b908382813d8311610a8d575b610a7d818361052f565b8101031261037f5750513861083c565b503d610a73565b84513d6000823e3d90fdfea2646970667358221220138b86bc5afa63609384ce5a4c250bbb9345c38b71652a21bbe1aaacb1d9206c64736f6c63430008150033","opcodes":"PUSH1 0x80 CALLVALUE PUSH2 0x11A JUMPI PUSH1 0x1F PUSH2 0xC1F CODESIZE DUP2 SWAP1 SUB SWAP2 DUP3 ADD PUSH1 0x1F NOT AND DUP4 ADD SWAP2 PUSH1 0x1 PUSH1 0x1 PUSH1 0x40 SHL SUB DUP4 GT DUP5 DUP5 LT OR PUSH2 0x11F JUMPI DUP1 DUP5 SWAP3 PUSH1 0x80 SWAP5 PUSH1 0x40 MSTORE DUP4 CODECOPY DUP2 ADD SUB SLT PUSH2 0x11A JUMPI PUSH2 0x47 DUP2 PUSH2 0x135 JUMP JUMPDEST SWAP1 PUSH1 0x60 PUSH2 0x56 PUSH1 0x20 DUP4 ADD PUSH2 0x135 JUMP JUMPDEST SWAP2 PUSH2 0x63 PUSH1 0x40 DUP3 ADD PUSH2 0x135 JUMP JUMPDEST PUSH1 0x1 PUSH1 0x1 PUSH1 0xA0 SHL SUB SWAP3 SWAP1 SWAP2 DUP4 SWAP2 PUSH2 0x7A SWAP2 ADD PUSH2 0x135 JUMP JUMPDEST AND SWAP3 DUP4 ISZERO PUSH2 0x101 JUMPI PUSH1 0x0 DUP1 SLOAD PUSH1 0x1 PUSH1 0x1 PUSH1 0xA0 SHL SUB NOT DUP1 DUP3 AND DUP8 OR DUP4 SSTORE PUSH1 0x40 MLOAD SWAP8 SWAP1 SWAP7 DUP7 SWAP5 SWAP4 DUP6 SWAP4 DUP5 AND SWAP1 PUSH32 0x8BE0079C531659141344CD1FD0A4F28419497F9722A3DAAFE3B4186F6B6457E0 SWAP1 DUP1 LOG3 PUSH1 0x1E PUSH1 0x4 SSTORE PUSH1 0x1E PUSH1 0x5 SSTORE PUSH1 0x78 PUSH1 0x6 SSTORE AND DUP6 PUSH1 0x1 SLOAD AND OR PUSH1 0x1 SSTORE AND DUP4 PUSH1 0x2 SLOAD AND OR PUSH1 0x2 SSTORE AND SWAP1 PUSH1 0x3 SLOAD AND OR PUSH1 0x3 SSTORE PUSH2 0xAD5 SWAP1 DUP2 PUSH2 0x14A DUP3 CODECOPY RETURN JUMPDEST PUSH1 0x40 MLOAD PUSH4 0x1E4FBDF7 PUSH1 0xE0 SHL DUP2 MSTORE PUSH1 0x0 PUSH1 0x4 DUP3 ADD MSTORE PUSH1 0x24 SWAP1 REVERT JUMPDEST PUSH1 0x0 DUP1 REVERT JUMPDEST PUSH4 0x4E487B71 PUSH1 0xE0 SHL PUSH1 0x0 MSTORE PUSH1 0x41 PUSH1 0x4 MSTORE PUSH1 0x24 PUSH1 0x0 REVERT JUMPDEST MLOAD SWAP1 PUSH1 0x1 PUSH1 0x1 PUSH1 0xA0 SHL SUB DUP3 AND DUP3 SUB PUSH2 0x11A JUMPI JUMP INVALID PUSH1 0x80 PUSH1 0x40 DUP2 DUP2 MSTORE PUSH1 0x4 SWAP1 DUP2 CALLDATASIZE LT ISZERO PUSH2 0x16 JUMPI PUSH1 0x0 DUP1 REVERT JUMPDEST PUSH1 0x0 SWAP3 DUP4 CALLDATALOAD PUSH1 0xE0 SHR SWAP1 DUP2 PUSH4 0x13966DB5 EQ PUSH2 0x4BD JUMPI POP DUP1 PUSH4 0x3E413BEE EQ PUSH2 0x494 JUMPI DUP1 PUSH4 0x715018A6 EQ PUSH2 0x43A JUMPI DUP1 PUSH4 0x7DC0D1D0 EQ PUSH2 0x411 JUMPI DUP1 PUSH4 0x84DA2666 EQ PUSH2 0x3F2 JUMPI DUP1 PUSH4 0x8DA5CB5B EQ PUSH2 0x3CA JUMPI DUP1 PUSH4 0x965FA21E EQ PUSH2 0x3AB JUMPI DUP1 PUSH4 0x9F80FB4E EQ PUSH2 0x382 JUMPI DUP1 PUSH4 0xA0712D68 EQ PUSH2 0x35F JUMPI DUP1 PUSH4 0xCD377C53 EQ PUSH2 0x33B JUMPI DUP1 PUSH4 0xDB006A75 EQ PUSH2 0x142 JUMPI PUSH4 0xF2FDE38B EQ PUSH2 0xA8 JUMPI PUSH1 0x0 DUP1 REVERT JUMPDEST CALLVALUE PUSH2 0x13E JUMPI PUSH1 0x20 CALLDATASIZE PUSH1 0x3 NOT ADD SLT PUSH2 0x13E JUMPI PUSH1 0x1 PUSH1 0x1 PUSH1 0xA0 SHL SUB DUP3 CALLDATALOAD DUP2 DUP2 AND SWAP4 SWAP2 SWAP3 SWAP1 DUP5 SWAP1 SUB PUSH2 0x13A JUMPI PUSH2 0xD9 PUSH2 0x4D9 JUMP JUMPDEST DUP4 ISZERO PUSH2 0x124 JUMPI POP POP PUSH1 0x0 SLOAD DUP3 PUSH12 0xFFFFFFFFFFFFFFFFFFFFFFFF PUSH1 0xA0 SHL DUP3 AND OR PUSH1 0x0 SSTORE AND PUSH32 0x8BE0079C531659141344CD1FD0A4F28419497F9722A3DAAFE3B4186F6B6457E0 PUSH1 0x0 DUP1 LOG3 DUP1 RETURN JUMPDEST MLOAD PUSH4 0x1E4FBDF7 PUSH1 0xE0 SHL DUP2 MSTORE SWAP1 DUP2 ADD DUP5 SWAP1 MSTORE PUSH1 0x24 SWAP1 REVERT JUMPDEST DUP5 DUP1 REVERT JUMPDEST DUP3 DUP1 REVERT JUMPDEST POP SWAP2 SWAP1 CALLVALUE PUSH2 0x337 JUMPI PUSH1 0x20 SWAP3 DUP4 PUSH1 0x3 NOT CALLDATASIZE ADD SLT PUSH2 0x13E JUMPI DUP2 CALLDATALOAD SWAP2 PUSH2 0x166 DUP4 ISZERO ISZERO PUSH2 0x74C JUMP JUMPDEST PUSH1 0x3 SLOAD DUP3 MLOAD PUSH4 0x4C6AFEE5 PUSH1 0xE1 SHL DUP2 MSTORE PUSH1 0x1 PUSH1 0x1 PUSH1 0xA0 SHL SUB SWAP7 SWAP2 DUP3 SWAP1 DUP3 SWAP1 DUP6 SWAP1 DUP3 SWAP1 DUP12 AND GAS STATICCALL SWAP1 DUP2 ISZERO PUSH2 0x32D JUMPI DUP7 SWAP2 PUSH2 0x2EF JUMPI JUMPDEST POP PUSH13 0xC9F2C9CD04674EDEA40000000 PUSH2 0x1B5 PUSH2 0x1CC SWAP3 DUP8 PUSH2 0x551 JUMP JUMPDEST DIV PUSH2 0x2710 PUSH2 0x1C5 PUSH1 0x5 SLOAD DUP4 PUSH2 0x551 JUMP JUMPDEST DIV SWAP1 PUSH2 0x78D JUMP JUMPDEST SWAP2 DUP7 PUSH1 0x2 SLOAD AND DUP1 EXTCODESIZE ISZERO PUSH2 0x2EB JUMPI DUP5 MLOAD PUSH4 0x2770A7EB PUSH1 0xE2 SHL DUP2 MSTORE CALLER DUP4 DUP3 ADD SWAP1 DUP2 MSTORE PUSH1 0x20 DUP2 ADD DUP9 SWAP1 MSTORE SWAP1 SWAP2 DUP9 SWAP2 DUP4 SWAP2 SWAP1 DUP3 SWAP1 DUP5 SWAP1 DUP3 SWAP1 PUSH1 0x40 ADD SUB SWAP3 GAS CALL DUP1 ISZERO PUSH2 0x2E1 JUMPI PUSH2 0x2C8 JUMPI JUMPDEST POP PUSH1 0x1 SLOAD DUP5 MLOAD PUSH4 0xA9059CBB PUSH1 0xE0 SHL DUP2 MSTORE CALLER SWAP3 DUP2 ADD SWAP3 DUP4 MSTORE PUSH1 0x20 DUP4 ADD DUP6 SWAP1 MSTORE SWAP7 SWAP8 DUP4 SWAP3 DUP9 SWAP3 SWAP1 SWAP2 AND SWAP1 DUP3 SWAP1 DUP11 SWAP1 DUP3 SWAP1 PUSH1 0x40 ADD JUMPDEST SUB SWAP3 GAS CALL SWAP5 DUP6 ISZERO PUSH2 0x2BE JUMPI PUSH32 0xE5B754FB1ABB7F01B499791D0B820AE3B6AF3424AC1C59768EDB53F4EC31A929 SWAP5 SWAP6 PUSH2 0x283 SWAP2 DUP9 SWAP2 PUSH2 0x291 JUMPI JUMPDEST POP PUSH2 0x7B7 JUMP JUMPDEST DUP3 MLOAD SWAP5 DUP6 MSTORE DUP5 ADD MSTORE CALLER SWAP3 LOG2 DUP1 RETURN JUMPDEST PUSH2 0x2B1 SWAP2 POP DUP4 RETURNDATASIZE DUP6 GT PUSH2 0x2B7 JUMPI JUMPDEST PUSH2 0x2A9 DUP2 DUP4 PUSH2 0x52F JUMP JUMPDEST DUP2 ADD SWAP1 PUSH2 0x79A JUMP JUMPDEST CODESIZE PUSH2 0x27D JUMP JUMPDEST POP RETURNDATASIZE PUSH2 0x29F JUMP JUMPDEST DUP4 MLOAD RETURNDATASIZE DUP9 DUP3 RETURNDATACOPY RETURNDATASIZE SWAP1 REVERT JUMPDEST DUP3 SWAP2 PUSH2 0x244 SWAP8 PUSH2 0x2D8 DUP7 SWAP4 PUSH2 0x505 JUMP JUMPDEST SWAP8 POP SWAP2 POP PUSH2 0x212 JUMP JUMPDEST DUP6 MLOAD RETURNDATASIZE DUP10 DUP3 RETURNDATACOPY RETURNDATASIZE SWAP1 REVERT JUMPDEST DUP7 DUP1 REVERT JUMPDEST SWAP1 POP DUP2 DUP2 DUP2 RETURNDATASIZE DUP4 GT PUSH2 0x326 JUMPI JUMPDEST PUSH2 0x306 DUP2 DUP4 PUSH2 0x52F JUMP JUMPDEST DUP2 ADD SUB SLT PUSH2 0x322 JUMPI MLOAD PUSH13 0xC9F2C9CD04674EDEA40000000 PUSH2 0x199 JUMP JUMPDEST DUP6 DUP1 REVERT JUMPDEST POP RETURNDATASIZE PUSH2 0x2FC JUMP JUMPDEST DUP5 MLOAD RETURNDATASIZE DUP9 DUP3 RETURNDATACOPY RETURNDATASIZE SWAP1 REVERT JUMPDEST POP DUP1 REVERT JUMPDEST DUP4 DUP3 CALLVALUE PUSH2 0x337 JUMPI DUP2 PUSH1 0x3 NOT CALLDATASIZE ADD SLT PUSH2 0x337 JUMPI PUSH1 0x20 SWAP1 PUSH2 0x358 PUSH2 0x59A JUMP JUMPDEST SWAP1 MLOAD SWAP1 DUP2 MSTORE RETURN JUMPDEST POP DUP3 CALLVALUE PUSH2 0x37F JUMPI PUSH1 0x20 CALLDATASIZE PUSH1 0x3 NOT ADD SLT PUSH2 0x37F JUMPI POP PUSH2 0x358 PUSH1 0x20 SWAP3 CALLDATALOAD PUSH2 0x7F5 JUMP JUMPDEST DUP1 REVERT JUMPDEST DUP4 DUP3 CALLVALUE PUSH2 0x337 JUMPI DUP2 PUSH1 0x3 NOT CALLDATASIZE ADD SLT PUSH2 0x337 JUMPI PUSH1 0x2 SLOAD SWAP1 MLOAD PUSH1 0x1 PUSH1 0x1 PUSH1 0xA0 SHL SUB SWAP1 SWAP2 AND DUP2 MSTORE PUSH1 0x20 SWAP1 RETURN JUMPDEST DUP4 DUP3 CALLVALUE PUSH2 0x337 JUMPI DUP2 PUSH1 0x3 NOT CALLDATASIZE ADD SLT PUSH2 0x337 JUMPI PUSH1 0x20 SWAP1 PUSH1 0x5 SLOAD SWAP1 MLOAD SWAP1 DUP2 MSTORE RETURN JUMPDEST DUP4 DUP3 CALLVALUE PUSH2 0x337 JUMPI DUP2 PUSH1 0x3 NOT CALLDATASIZE ADD SLT PUSH2 0x337 JUMPI SWAP1 SLOAD SWAP1 MLOAD PUSH1 0x1 PUSH1 0x1 PUSH1 0xA0 SHL SUB SWAP1 SWAP2 AND DUP2 MSTORE PUSH1 0x20 SWAP1 RETURN JUMPDEST DUP4 DUP3 CALLVALUE PUSH2 0x337 JUMPI DUP2 PUSH1 0x3 NOT CALLDATASIZE ADD SLT PUSH2 0x337 JUMPI PUSH1 0x20 SWAP1 PUSH1 0x6 SLOAD SWAP1 MLOAD SWAP1 DUP2 MSTORE RETURN JUMPDEST DUP4 DUP3 CALLVALUE PUSH2 0x337 JUMPI DUP2 PUSH1 0x3 NOT CALLDATASIZE ADD SLT PUSH2 0x337 JUMPI PUSH1 0x3 SLOAD SWAP1 MLOAD PUSH1 0x1 PUSH1 0x1 PUSH1 0xA0 SHL SUB SWAP1 SWAP2 AND DUP2 MSTORE PUSH1 0x20 SWAP1 RETURN JUMPDEST DUP4 CALLVALUE PUSH2 0x37F JUMPI DUP1 PUSH1 0x3 NOT CALLDATASIZE ADD SLT PUSH2 0x37F JUMPI PUSH2 0x453 PUSH2 0x4D9 JUMP JUMPDEST DUP1 SLOAD PUSH1 0x1 PUSH1 0x1 PUSH1 0xA0 SHL SUB NOT DUP2 AND DUP3 SSTORE DUP2 SWAP1 PUSH1 0x1 PUSH1 0x1 PUSH1 0xA0 SHL SUB AND PUSH32 0x8BE0079C531659141344CD1FD0A4F28419497F9722A3DAAFE3B4186F6B6457E0 DUP3 DUP1 LOG3 DUP1 RETURN JUMPDEST DUP4 DUP3 CALLVALUE PUSH2 0x337 JUMPI DUP2 PUSH1 0x3 NOT CALLDATASIZE ADD SLT PUSH2 0x337 JUMPI PUSH1 0x1 SLOAD SWAP1 MLOAD PUSH1 0x1 PUSH1 0x1 PUSH1 0xA0 SHL SUB SWAP1 SWAP2 AND DUP2 MSTORE PUSH1 0x20 SWAP1 RETURN JUMPDEST DUP5 SWAP1 DUP5 CALLVALUE PUSH2 0x13E JUMPI DUP3 PUSH1 0x3 NOT CALLDATASIZE ADD SLT PUSH2 0x13E JUMPI PUSH1 0x20 SWAP3 POP SLOAD DUP2 MSTORE RETURN JUMPDEST PUSH1 0x0 SLOAD PUSH1 0x1 PUSH1 0x1 PUSH1 0xA0 SHL SUB AND CALLER SUB PUSH2 0x4ED JUMPI JUMP JUMPDEST PUSH1 0x40 MLOAD PUSH4 0x118CDAA7 PUSH1 0xE0 SHL DUP2 MSTORE CALLER PUSH1 0x4 DUP3 ADD MSTORE PUSH1 0x24 SWAP1 REVERT JUMPDEST PUSH8 0xFFFFFFFFFFFFFFFF DUP2 GT PUSH2 0x519 JUMPI PUSH1 0x40 MSTORE JUMP JUMPDEST PUSH4 0x4E487B71 PUSH1 0xE0 SHL PUSH1 0x0 MSTORE PUSH1 0x41 PUSH1 0x4 MSTORE PUSH1 0x24 PUSH1 0x0 REVERT JUMPDEST SWAP1 PUSH1 0x1F DUP1 NOT SWAP2 ADD AND DUP2 ADD SWAP1 DUP2 LT PUSH8 0xFFFFFFFFFFFFFFFF DUP3 GT OR PUSH2 0x519 JUMPI PUSH1 0x40 MSTORE JUMP JUMPDEST DUP2 DUP2 MUL SWAP3 SWAP2 DUP2 ISZERO SWAP2 DUP5 DIV EQ OR ISZERO PUSH2 0x564 JUMPI JUMP JUMPDEST PUSH4 0x4E487B71 PUSH1 0xE0 SHL PUSH1 0x0 MSTORE PUSH1 0x11 PUSH1 0x4 MSTORE PUSH1 0x24 PUSH1 0x0 REVERT JUMPDEST DUP2 ISZERO PUSH2 0x584 JUMPI DIV SWAP1 JUMP JUMPDEST PUSH4 0x4E487B71 PUSH1 0xE0 SHL PUSH1 0x0 MSTORE PUSH1 0x12 PUSH1 0x4 MSTORE PUSH1 0x24 PUSH1 0x0 REVERT JUMPDEST PUSH1 0x2 SLOAD PUSH1 0x40 DUP1 MLOAD PUSH4 0x18160DDD PUSH1 0xE0 SHL DUP2 MSTORE SWAP2 PUSH1 0x1 PUSH1 0x1 PUSH1 0xA0 SHL SUB SWAP2 SWAP1 PUSH1 0x20 SWAP1 DUP2 SWAP1 DUP6 SWAP1 PUSH1 0x4 SWAP1 DUP3 SWAP1 DUP8 AND GAS STATICCALL SWAP4 DUP5 ISZERO PUSH2 0x741 JUMPI PUSH1 0x0 SWAP5 PUSH2 0x712 JUMPI JUMPDEST POP DUP4 ISZERO PUSH2 0x709 JUMPI DUP3 DUP2 PUSH1 0x24 SWAP5 PUSH1 0x1 SLOAD AND DUP5 MLOAD SWAP6 DUP7 DUP1 SWAP3 PUSH4 0x70A08231 PUSH1 0xE0 SHL DUP3 MSTORE ADDRESS PUSH1 0x4 DUP4 ADD MSTORE GAS STATICCALL SWAP4 DUP5 ISZERO PUSH2 0x6FE JUMPI PUSH1 0x0 SWAP5 PUSH2 0x6CF JUMPI JUMPDEST POP SWAP1 DUP1 PUSH1 0x4 SWAP4 SWAP3 PUSH1 0x3 SLOAD AND DUP4 MLOAD SWAP5 DUP6 DUP1 SWAP3 PUSH4 0x4C6AFEE5 PUSH1 0xE1 SHL DUP3 MSTORE GAS STATICCALL SWAP2 DUP3 ISZERO PUSH2 0x6C5 JUMPI POP PUSH1 0x0 SWAP2 PUSH2 0x699 JUMPI JUMPDEST POP SWAP1 POP PUSH5 0xE8D4A51000 SWAP3 DUP4 DUP4 MUL SWAP4 DUP4 DUP6 DIV EQ DUP4 ISZERO OR ISZERO PUSH2 0x564 JUMPI PUSH8 0xDE0B6B3A7640000 SWAP2 PUSH2 0x666 SWAP2 PUSH2 0x551 JUMP JUMPDEST DIV SWAP1 DUP2 ISZERO PUSH2 0x691 JUMPI PUSH6 0x5AF3107A4000 MUL SWAP2 DUP1 DUP4 DIV PUSH1 0x64 EQ SWAP1 ISZERO OR ISZERO PUSH2 0x564 JUMPI PUSH2 0x68E SWAP2 PUSH2 0x57A JUMP JUMPDEST SWAP1 JUMP JUMPDEST POP POP POP PUSH1 0x0 SWAP1 JUMP JUMPDEST DUP3 DUP2 RETURNDATASIZE DUP4 GT PUSH2 0x6BE JUMPI JUMPDEST PUSH2 0x6AD DUP2 DUP4 PUSH2 0x52F JUMP JUMPDEST DUP2 ADD SUB SLT PUSH2 0x37F JUMPI POP MLOAD DUP1 CODESIZE PUSH2 0x639 JUMP JUMPDEST POP RETURNDATASIZE PUSH2 0x6A3 JUMP JUMPDEST MLOAD RETURNDATASIZE PUSH1 0x0 DUP3 RETURNDATACOPY RETURNDATASIZE SWAP1 REVERT JUMPDEST SWAP1 SWAP4 DUP3 DUP3 DUP2 RETURNDATASIZE DUP4 GT PUSH2 0x6F7 JUMPI JUMPDEST PUSH2 0x6E6 DUP2 DUP4 PUSH2 0x52F JUMP JUMPDEST DUP2 ADD SUB SLT PUSH2 0x37F JUMPI POP MLOAD SWAP3 DUP2 PUSH2 0x60C JUMP JUMPDEST POP RETURNDATASIZE PUSH2 0x6DC JUMP JUMPDEST DUP4 MLOAD RETURNDATASIZE PUSH1 0x0 DUP3 RETURNDATACOPY RETURNDATASIZE SWAP1 REVERT JUMPDEST POP POP POP POP PUSH1 0x0 SWAP1 JUMP JUMPDEST SWAP1 SWAP4 DUP5 DUP3 DUP2 RETURNDATASIZE DUP4 GT PUSH2 0x73A JUMPI JUMPDEST PUSH2 0x729 DUP2 DUP4 PUSH2 0x52F JUMP JUMPDEST DUP2 ADD SUB SLT PUSH2 0x37F JUMPI POP MLOAD SWAP3 CODESIZE PUSH2 0x5D5 JUMP JUMPDEST POP RETURNDATASIZE PUSH2 0x71F JUMP JUMPDEST DUP3 MLOAD RETURNDATASIZE PUSH1 0x0 DUP3 RETURNDATACOPY RETURNDATASIZE SWAP1 REVERT JUMPDEST ISZERO PUSH2 0x753 JUMPI JUMP JUMPDEST PUSH1 0x40 MLOAD PUSH3 0x461BCD PUSH1 0xE5 SHL DUP2 MSTORE PUSH1 0x20 PUSH1 0x4 DUP3 ADD MSTORE PUSH1 0x12 PUSH1 0x24 DUP3 ADD MSTORE PUSH18 0x416D6F756E74206D757374206265203E203 PUSH1 0x74 SHL PUSH1 0x44 DUP3 ADD MSTORE PUSH1 0x64 SWAP1 REVERT JUMPDEST SWAP2 SWAP1 DUP3 SUB SWAP2 DUP3 GT PUSH2 0x564 JUMPI JUMP JUMPDEST SWAP1 DUP2 PUSH1 0x20 SWAP2 SUB SLT PUSH2 0x7B2 JUMPI MLOAD DUP1 ISZERO ISZERO DUP2 SUB PUSH2 0x7B2 JUMPI SWAP1 JUMP JUMPDEST PUSH1 0x0 DUP1 REVERT JUMPDEST ISZERO PUSH2 0x7BE JUMPI JUMP JUMPDEST PUSH1 0x40 MLOAD PUSH3 0x461BCD PUSH1 0xE5 SHL DUP2 MSTORE PUSH1 0x20 PUSH1 0x4 DUP3 ADD MSTORE PUSH1 0xF PUSH1 0x24 DUP3 ADD MSTORE PUSH15 0x151C985B9CD9995C8819985A5B1959 PUSH1 0x8A SHL PUSH1 0x44 DUP3 ADD MSTORE PUSH1 0x64 SWAP1 REVERT JUMPDEST PUSH2 0x800 DUP2 ISZERO ISZERO PUSH2 0x74C JUMP JUMPDEST PUSH1 0x3 SLOAD PUSH1 0x40 DUP1 MLOAD PUSH4 0x4C6AFEE5 PUSH1 0xE1 SHL DUP2 MSTORE PUSH1 0x1 PUSH1 0x1 PUSH1 0xA0 SHL SUB SWAP4 SWAP3 PUSH1 0x20 SWAP2 PUSH1 0x4 SWAP2 DUP4 SWAP1 DUP3 SWAP1 DUP5 SWAP1 DUP3 SWAP1 DUP11 AND GAS STATICCALL SWAP1 DUP2 ISZERO PUSH2 0xA94 JUMPI PUSH1 0x0 SWAP2 PUSH2 0xA67 JUMPI JUMPDEST POP PUSH2 0x855 PUSH2 0x2710 PUSH2 0x84E DUP5 SLOAD DUP9 PUSH2 0x551 JUMP JUMPDEST DIV DUP7 PUSH2 0x78D JUMP JUMPDEST PUSH13 0xC9F2C9CD04674EDEA40000000 SWAP1 DUP2 DUP2 MUL SWAP2 DUP2 DUP4 DIV EQ SWAP1 ISZERO OR ISZERO PUSH2 0xA52 JUMPI SWAP1 PUSH2 0x87E SWAP2 PUSH2 0x57A JUMP JUMPDEST SWAP5 DUP6 ISZERO PUSH2 0xA18 JUMPI DUP2 DUP4 DUP3 PUSH1 0x2 SLOAD AND DUP7 MLOAD SWAP3 DUP4 DUP1 SWAP3 PUSH4 0x18160DDD PUSH1 0xE0 SHL DUP3 MSTORE GAS STATICCALL SWAP1 DUP2 ISZERO PUSH2 0x9A5 JUMPI PUSH1 0x0 SWAP2 PUSH2 0x9EB JUMPI JUMPDEST POP ISZERO PUSH2 0x9B0 JUMPI PUSH1 0x1 SLOAD DUP5 MLOAD PUSH4 0x23B872DD PUSH1 0xE0 SHL DUP2 MSTORE CALLER DUP5 DUP3 ADD SWAP1 DUP2 MSTORE ADDRESS PUSH1 0x20 DUP3 ADD MSTORE PUSH1 0x40 DUP2 ADD DUP9 SWAP1 MSTORE SWAP1 SWAP2 DUP6 SWAP2 DUP4 SWAP2 DUP6 AND SWAP1 DUP3 SWAP1 PUSH1 0x0 SWAP1 DUP3 SWAP1 PUSH1 0x60 ADD JUMPDEST SUB SWAP3 GAS CALL SWAP1 DUP2 ISZERO PUSH2 0x9A5 JUMPI SWAP1 PUSH2 0x907 SWAP2 PUSH1 0x0 SWAP2 PUSH2 0x98E JUMPI POP PUSH2 0x7B7 JUMP JUMPDEST PUSH1 0x2 SLOAD AND DUP1 EXTCODESIZE ISZERO PUSH2 0x7B2 JUMPI DUP4 MLOAD PUSH4 0x40C10F19 PUSH1 0xE0 SHL DUP2 MSTORE CALLER SWAP3 DUP2 ADD SWAP3 DUP4 MSTORE PUSH1 0x20 DUP4 ADD DUP8 SWAP1 MSTORE SWAP2 PUSH1 0x0 SWAP2 DUP4 SWAP2 DUP3 SWAP1 DUP5 SWAP1 DUP3 SWAP1 PUSH1 0x40 ADD SUB SWAP3 GAS CALL DUP1 ISZERO PUSH2 0x6FE JUMPI SWAP2 DUP6 SWAP2 PUSH32 0x4C209B5FC8AD50758F13E2E1088BA56A560DFF690A1C6FEF26394F4C03821C4F SWAP5 SWAP4 PUSH2 0x97F JUMPI JUMPDEST POP DUP3 MLOAD SWAP5 DUP6 MSTORE DUP5 ADD MSTORE CALLER SWAP3 LOG2 SWAP1 JUMP JUMPDEST PUSH2 0x988 SWAP1 PUSH2 0x505 JUMP JUMPDEST CODESIZE PUSH2 0x970 JUMP JUMPDEST PUSH2 0x2B1 SWAP2 POP DUP6 RETURNDATASIZE DUP8 GT PUSH2 0x2B7 JUMPI PUSH2 0x2A9 DUP2 DUP4 PUSH2 0x52F JUMP JUMPDEST DUP6 MLOAD RETURNDATASIZE PUSH1 0x0 DUP3 RETURNDATACOPY RETURNDATASIZE SWAP1 REVERT JUMPDEST PUSH1 0x1 SLOAD DUP5 MLOAD PUSH4 0x23B872DD PUSH1 0xE0 SHL DUP2 MSTORE CALLER DUP5 DUP3 ADD SWAP1 DUP2 MSTORE ADDRESS PUSH1 0x20 DUP3 ADD MSTORE PUSH1 0x40 DUP2 ADD DUP9 SWAP1 MSTORE SWAP1 SWAP2 DUP6 SWAP2 DUP4 SWAP2 DUP6 AND SWAP1 DUP3 SWAP1 PUSH1 0x0 SWAP1 DUP3 SWAP1 PUSH1 0x60 ADD PUSH2 0x8EA JUMP JUMPDEST SWAP1 DUP5 DUP3 DUP2 RETURNDATASIZE DUP4 GT PUSH2 0xA11 JUMPI JUMPDEST PUSH2 0xA01 DUP2 DUP4 PUSH2 0x52F JUMP JUMPDEST DUP2 ADD SUB SLT PUSH2 0x37F JUMPI POP MLOAD CODESIZE PUSH2 0x8AD JUMP JUMPDEST POP RETURNDATASIZE PUSH2 0x9F7 JUMP JUMPDEST POP SWAP2 MLOAD PUSH3 0x461BCD PUSH1 0xE5 SHL DUP2 MSTORE SWAP2 DUP3 ADD MSTORE PUSH1 0x15 PUSH1 0x24 DUP3 ADD MSTORE PUSH21 0x135A5B9D08185B5BDD5B9D081D1BDBC81CDB585B1B PUSH1 0x5A SHL PUSH1 0x44 DUP3 ADD MSTORE PUSH1 0x64 SWAP1 REVERT JUMPDEST PUSH1 0x11 DUP4 PUSH4 0x4E487B71 PUSH1 0xE0 SHL PUSH1 0x0 MSTORE MSTORE PUSH1 0x24 PUSH1 0x0 REVERT JUMPDEST SWAP1 DUP4 DUP3 DUP2 RETURNDATASIZE DUP4 GT PUSH2 0xA8D JUMPI JUMPDEST PUSH2 0xA7D DUP2 DUP4 PUSH2 0x52F JUMP JUMPDEST DUP2 ADD SUB SLT PUSH2 0x37F JUMPI POP MLOAD CODESIZE PUSH2 0x83C JUMP JUMPDEST POP RETURNDATASIZE PUSH2 0xA73 JUMP JUMPDEST DUP5 MLOAD RETURNDATASIZE PUSH1 0x0 DUP3 RETURNDATACOPY RETURNDATASIZE SWAP1 REVERT INVALID LOG2 PUSH5 0x6970667358 0x22 SLT KECCAK256 SGT DUP12 DUP7 0xBC GAS STATICCALL PUSH4 0x609384CE GAS 0x4C 0x25 SIGNEXTEND 0xBB SWAP4 GASLIMIT 0xC3 DUP12 PUSH18 0x652A21BBE1AAACB1D9206C64736F6C634300 ADDMOD ISZERO STOP CALLER "},"methodIdentifiers":{"bvix()":"9f80fb4e","getCollateralRatio()":"cd377c53","minCollateralRatio()":"84da2666","mint(uint256)":"a0712d68","mintFee()":"13966db5","oracle()":"7dc0d1d0","owner()":"8da5cb5b","redeem(uint256)":"db006a75","redeemFee()":"965fa21e","renounceOwnership()":"715018a6","transferOwnership(address)":"f2fde38b","usdc()":"3e413bee"}}}}}