{"contracts/MintRedeemV6.sol":{"MintRedeemV6":{"abi":[{"inputs":[{"internalType":"address","name":"_usdc","type":"address"},{"internalType":"address","name":"_bvix","type":"address"},{"internalType":"address","name":"_oracle","type":"address"},{"internalType":"address","name":"initialOwner","type":"address"}],"stateMutability":"nonpayable","type":"constructor"},{"inputs":[{"internalType":"address","name":"owner","type":"address"}],"name":"OwnableInvalidOwner","type":"error"},{"inputs":[{"internalType":"address","name":"account","type":"address"}],"name":"OwnableUnauthorizedAccount","type":"error"},{"anonymous":false,"inputs":[{"indexed":true,"internalType":"address","name":"user","type":"address"},{"indexed":false,"internalType":"uint256","name":"usdcAmount","type":"uint256"},{"indexed":false,"internalType":"uint256","name":"bvixMinted","type":"uint256"},{"indexed":false,"internalType":"uint256","name":"targetCR","type":"uint256"}],"name":"Mint","type":"event"},{"anonymous":false,"inputs":[{"indexed":true,"internalType":"address","name":"previousOwner","type":"address"},{"indexed":true,"internalType":"address","name":"newOwner","type":"address"}],"name":"OwnershipTransferred","type":"event"},{"anonymous":false,"inputs":[{"indexed":true,"internalType":"address","name":"user","type":"address"},{"indexed":false,"internalType":"uint256","name":"bvixAmount","type":"uint256"},{"indexed":false,"internalType":"uint256","name":"usdcRedeemed","type":"uint256"}],"name":"Redeem","type":"event"},{"inputs":[],"name":"bvix","outputs":[{"internalType":"contract BVIXToken","name":"","type":"address"}],"stateMutability":"view","type":"function"},{"inputs":[],"name":"getCollateralRatio","outputs":[{"internalType":"uint256","name":"","type":"uint256"}],"stateMutability":"view","type":"function"},{"inputs":[{"internalType":"address","name":"user","type":"address"}],"name":"getUserCollateralRatio","outputs":[{"internalType":"uint256","name":"","type":"uint256"}],"stateMutability":"view","type":"function"},{"inputs":[],"name":"minCollateralRatio","outputs":[{"internalType":"uint256","name":"","type":"uint256"}],"stateMutability":"view","type":"function"},{"inputs":[],"name":"mintFee","outputs":[{"internalType":"uint256","name":"","type":"uint256"}],"stateMutability":"view","type":"function"},{"inputs":[{"internalType":"uint256","name":"amount","type":"uint256"},{"internalType":"uint256","name":"targetCR","type":"uint256"}],"name":"mintWithCollateralRatio","outputs":[{"internalType":"uint256","name":"","type":"uint256"}],"stateMutability":"nonpayable","type":"function"},{"inputs":[],"name":"oracle","outputs":[{"internalType":"contract MockOracle","name":"","type":"address"}],"stateMutability":"view","type":"function"},{"inputs":[],"name":"owner","outputs":[{"internalType":"address","name":"","type":"address"}],"stateMutability":"view","type":"function"},{"inputs":[{"internalType":"address","name":"","type":"address"}],"name":"positions","outputs":[{"internalType":"uint256","name":"collateral","type":"uint256"},{"internalType":"uint256","name":"debt","type":"uint256"}],"stateMutability":"view","type":"function"},{"inputs":[{"internalType":"uint256","name":"amount","type":"uint256"}],"name":"redeem","outputs":[{"internalType":"uint256","name":"","type":"uint256"}],"stateMutability":"nonpayable","type":"function"},{"inputs":[],"name":"redeemFee","outputs":[{"internalType":"uint256","name":"","type":"uint256"}],"stateMutability":"view","type":"function"},{"inputs":[],"name":"renounceOwnership","outputs":[],"stateMutability":"nonpayable","type":"function"},{"inputs":[],"name":"totalCollateral","outputs":[{"internalType":"uint256","name":"","type":"uint256"}],"stateMutability":"view","type":"function"},{"inputs":[],"name":"totalDebt","outputs":[{"internalType":"uint256","name":"","type":"uint256"}],"stateMutability":"view","type":"function"},{"inputs":[{"internalType":"address","name":"newOwner","type":"address"}],"name":"transferOwnership","outputs":[],"stateMutability":"nonpayable","type":"function"},{"inputs":[],"name":"usdc","outputs":[{"internalType":"contract IERC20","name":"","type":"address"}],"stateMutability":"view","type":"function"}],"evm":{"bytecode":{"linkReferences":{},"object":"60803461011a57601f610e6c38819003918201601f19168301916001600160401b0383118484101761011f5780849260809460405283398101031261011a5761004781610135565b90606061005660208301610135565b9161006360408201610135565b6001600160a01b03929091839161007a9101610135565b1692831561010157600080546001600160a01b03198082168717835560405197909686949385938416907f8be0079c531659141344cd1fd0a4f28419497f9722a3daafe3b4186f6b6457e09080a3601e600455601e6005556078600655168560015416176001551683600254161760025516906003541617600355610d22908161014a8239f35b604051631e4fbdf760e01b815260006004820152602490fd5b600080fd5b634e487b7160e01b600052604160045260246000fd5b51906001600160a01b038216820361011a5756fe6040608081526004908136101561001557600080fd5b600091823560e01c90816310b45de11461096457816313966db5146109465781633e413bee1461091d5781634ac8eb5f146108fe57816355f57510146108ba5781636008d28b14610543578163715018a6146104e65781637dc0d1d0146104bd57816384da26661461049e5781638da5cb5b14610476578163965fa21e146104575781639f80fb4e1461042e578163cd377c531461040a578163db006a7514610191578163f2fde38b146100f4575063fc7b9c18146100d357600080fd5b346100f057816003193601126100f0576020906009549051908152f35b5080fd5b9190503461018d57602036600319011261018d576001600160a01b0382358181169391929084900361018957610128610995565b8315610173575050600054826bffffffffffffffffffffffff60a01b821617600055167f8be0079c531659141344cd1fd0a4f28419497f9722a3daafe3b4186f6b6457e0600080a380f35b51631e4fbdf760e01b8152908101849052602490fd5b8480fd5b8280fd5b9190503461018d5760209182600319360112610406578035906101b58215156109c1565b338552600784528285209460018601918254928484106103cf576003548651634c6afee560e11b81526001600160a01b03959189908290869082908a165afa9081156103c5578591610396575b509161025a8761022a9a9b9361021b6102649683610a4e565b5061022f8186549d8e85610a4e565b610a77565b946102538661024d61271061024660055484610a4e565b0482610a97565b9e610a97565b9055610a97565b9055600854610a97565b60085561027384600954610a97565b6009558260025416803b1561018d578551632770a7eb60e21b815233838201908152602081018790529091849183919082908490829060400103925af1801561038c579187918993610379575b50600154875163a9059cbb60e01b815233928101928352602083019390935293949193849216908290869082906040015b03925af191821561036e579061030c92610341575b50610ace565b815190815282848201527fe5b754fb1abb7f01b499791d0b820ae3b6af3424ac1c59768edb53f4ec31a929823392a251908152f35b6103619150863d8811610367575b6103598183610a2c565b810190610ab1565b38610306565b503d61034f565b8451903d90823e3d90fd5b936103866102f195610a02565b936102c0565b86513d85823e3d90fd5b90508881813d83116103be575b6103ad8183610a2c565b81010312610189575161025a610202565b503d6103a3565b88513d87823e3d90fd5b855162461bcd60e51b81528083018890526011602482015270125b9cdd59999a58da595b9d081919589d607a1b6044820152606490fd5b8380fd5b5050346100f057816003193601126100f057602090610427610b0c565b9051908152f35b5050346100f057816003193601126100f05760025490516001600160a01b039091168152602090f35b5050346100f057816003193601126100f0576020906005549051908152f35b5050346100f057816003193601126100f057905490516001600160a01b039091168152602090f35b5050346100f057816003193601126100f0576020906006549051908152f35b5050346100f057816003193601126100f05760035490516001600160a01b039091168152602090f35b83346105405780600319360112610540576104ff610995565b80546001600160a01b03198116825581906001600160a01b03167f8be0079c531659141344cd1fd0a4f28419497f9722a3daafe3b4186f6b6457e08280a380f35b80fd5b9190503461018d578060031936011261018d5781356024938435906105698315156109c1565b6078821015806108ae575b1561087f576003548451634c6afee560e11b81526020979096916001600160a01b039190899089908590829086165afa9788156107b7578498610850575b506105cb6127106105c4855489610a4e565b0487610a97565b60649081810281810483148215171561083e57876105e891610a77565b6c0c9f2c9cd04674edea400000009081810291818304149015171561083e578a61061191610a77565b998a1561080a5764e8d4a51000670de0b6b3a76400006106498d9361064461063b87600854610aa4565b95600954610aa4565b610a4e565b040490838102908082048514901517156107f8579061066791610a77565b600654116107c157918a916106b187948c6106a760018e338a5260078952808a20610693868254610aa4565b9055338a5260078952892001918254610aa4565b9055600854610aa4565b6008556106c08b600954610aa4565b6009558460015416918a5194859384926323b872dd60e01b8452338a85015230908401528b60448401525af19081156107b757906107049185916107a05750610ace565b6002541690813b1561018d5785516340c10f1960e01b815233918101918252602082018890529291829184919082908490829060400103925af19081156107955750610786575b5082519182528385830152828201527fb4c03061fb5b7fed76389d5af8f2e0ddb09f8c70d1333abbb62582835e10accb60603392a251908152f35b61078f90610a02565b3861074b565b8551903d90823e3d90fd5b61036191508a3d8c11610367576103598183610a2c565b87513d86823e3d90fd5b50875162461bcd60e51b81528085018b9052601481840152732bb7bab632103b34b7b630ba329036b4b71021a960611b6044820152fd5b634e487b7160e01b8852601187528488fd5b895162461bcd60e51b81528087018d90526010818601526f105b5bdd5b9d081d1bdbc81cdb585b1b60821b60448201528390fd5b634e487b7160e01b8752601186528387fd5b9097508881813d8311610878575b6108688183610a2c565b81010312610406575196386105b2565b503d61085e565b835162461bcd60e51b8152602081870152600a818801526924b73b30b634b21021a960b11b6044820152606490fd5b5061012c821115610574565b90503461018d57602036600319011261018d57356001600160a01b0381169081900361018d5791819281526007602052206001815491015482519182526020820152f35b5050346100f057816003193601126100f0576020906008549051908152f35b5050346100f057816003193601126100f05760015490516001600160a01b039091168152602090f35b90503461018d578260031936011261018d5760209250549051908152f35b90503461018d57602036600319011261018d5735916001600160a01b03831683036105405750610427602092610bce565b6000546001600160a01b031633036109a957565b60405163118cdaa760e01b8152336004820152602490fd5b156109c857565b60405162461bcd60e51b81526020600482015260126024820152710416d6f756e74206d757374206265203e20360741b6044820152606490fd5b67ffffffffffffffff8111610a1657604052565b634e487b7160e01b600052604160045260246000fd5b90601f8019910116810190811067ffffffffffffffff821117610a1657604052565b81810292918115918404141715610a6157565b634e487b7160e01b600052601160045260246000fd5b8115610a81570490565b634e487b7160e01b600052601260045260246000fd5b91908203918211610a6157565b91908201809211610a6157565b90816020910312610ac957518015158103610ac95790565b600080fd5b15610ad557565b60405162461bcd60e51b815260206004820152600f60248201526e151c985b9cd9995c8819985a5b1959608a1b6044820152606490fd5b6009548015610bc857600354604051634c6afee560e11b815290602090829060049082906001600160a01b03165afa908115610bbc57600091610b89575b50610b64670de0b6b3a76400009164e8d4a5100093610a4e565b040460085490606482029180830460641490151715610a6157610b8691610a77565b90565b906020823d8211610bb4575b81610ba260209383610a2c565b81010312610540575051610b64610b4a565b3d9150610b95565b6040513d6000823e3d90fd5b50600090565b6001600160a01b0390811660009081526007602090815260408083208151939594929084830167ffffffffffffffff811186821017610cd85783528054855260010154818501818152939015610cd157908060049260035416845193848092634c6afee560e11b82525afa928315610cc857508692610c98575b5050610c63906c0c9f2c9cd04674edea400000009251610a4e565b049051606481029080820460641490151715610c8457610b86929350610a77565b634e487b7160e01b84526011600452602484fd5b90809250813d8311610cc1575b610caf8183610a2c565b81010312610189575181610c63610c48565b503d610ca5565b513d88823e3d90fd5b5050505050565b634e487b7160e01b88526041600452602488fdfea26469706673582212203b3a478ca6ae36d1b46716e862a889e04a4d51bf6b23fabb353394656f81ede664736f6c63430008150033","opcodes":"PUSH1 0x80 CALLVALUE PUSH2 0x11A JUMPI PUSH1 0x1F PUSH2 0xE6C CODESIZE DUP2 SWAP1 SUB SWAP2 DUP3 ADD PUSH1 0x1F NOT AND DUP4 ADD SWAP2 PUSH1 0x1 PUSH1 0x1 PUSH1 0x40 SHL SUB DUP4 GT DUP5 DUP5 LT OR PUSH2 0x11F JUMPI DUP1 DUP5 SWAP3 PUSH1 0x80 SWAP5 PUSH1 0x40 MSTORE DUP4 CODECOPY DUP2 ADD SUB SLT PUSH2 0x11A JUMPI PUSH2 0x47 DUP2 PUSH2 0x135 JUMP JUMPDEST SWAP1 PUSH1 0x60 PUSH2 0x56 PUSH1 0x20 DUP4 ADD PUSH2 0x135 JUMP JUMPDEST SWAP2 PUSH2 0x63 PUSH1 0x40 DUP3 ADD PUSH2 0x135 JUMP JUMPDEST PUSH1 0x1 PUSH1 0x1 PUSH1 0xA0 SHL SUB SWAP3 SWAP1 SWAP2 DUP4 SWAP2 PUSH2 0x7A SWAP2 ADD PUSH2 0x135 JUMP JUMPDEST AND SWAP3 DUP4 ISZERO PUSH2 0x101 JUMPI PUSH1 0x0 DUP1 SLOAD PUSH1 0x1 PUSH1 0x1 PUSH1 0xA0 SHL SUB NOT DUP1 DUP3 AND DUP8 OR DUP4 SSTORE PUSH1 0x40 MLOAD SWAP8 SWAP1 SWAP7 DUP7 SWAP5 SWAP4 DUP6 SWAP4 DUP5 AND SWAP1 PUSH32 0x8BE0079C531659141344CD1FD0A4F28419497F9722A3DAAFE3B4186F6B6457E0 SWAP1 DUP1 LOG3 PUSH1 0x1E PUSH1 0x4 SSTORE PUSH1 0x1E PUSH1 0x5 SSTORE PUSH1 0x78 PUSH1 0x6 SSTORE AND DUP6 PUSH1 0x1 SLOAD AND OR PUSH1 0x1 SSTORE AND DUP4 PUSH1 0x2 SLOAD AND OR PUSH1 0x2 SSTORE AND SWAP1 PUSH1 0x3 SLOAD AND OR PUSH1 0x3 SSTORE PUSH2 0xD22 SWAP1 DUP2 PUSH2 0x14A DUP3 CODECOPY RETURN JUMPDEST PUSH1 0x40 MLOAD PUSH4 0x1E4FBDF7 PUSH1 0xE0 SHL DUP2 MSTORE PUSH1 0x0 PUSH1 0x4 DUP3 ADD MSTORE PUSH1 0x24 SWAP1 REVERT JUMPDEST PUSH1 0x0 DUP1 REVERT JUMPDEST PUSH4 0x4E487B71 PUSH1 0xE0 SHL PUSH1 0x0 MSTORE PUSH1 0x41 PUSH1 0x4 MSTORE PUSH1 0x24 PUSH1 0x0 REVERT JUMPDEST MLOAD SWAP1 PUSH1 0x1 PUSH1 0x1 PUSH1 0xA0 SHL SUB DUP3 AND DUP3 SUB PUSH2 0x11A JUMPI JUMP INVALID PUSH1 0x40 PUSH1 0x80 DUP2 MSTORE PUSH1 0x4 SWAP1 DUP2 CALLDATASIZE LT ISZERO PUSH2 0x15 JUMPI PUSH1 0x0 DUP1 REVERT JUMPDEST PUSH1 0x0 SWAP2 DUP3 CALLDATALOAD PUSH1 0xE0 SHR SWAP1 DUP2 PUSH4 0x10B45DE1 EQ PUSH2 0x964 JUMPI DUP2 PUSH4 0x13966DB5 EQ PUSH2 0x946 JUMPI DUP2 PUSH4 0x3E413BEE EQ PUSH2 0x91D JUMPI DUP2 PUSH4 0x4AC8EB5F EQ PUSH2 0x8FE JUMPI DUP2 PUSH4 0x55F57510 EQ PUSH2 0x8BA JUMPI DUP2 PUSH4 0x6008D28B EQ PUSH2 0x543 JUMPI DUP2 PUSH4 0x715018A6 EQ PUSH2 0x4E6 JUMPI DUP2 PUSH4 0x7DC0D1D0 EQ PUSH2 0x4BD JUMPI DUP2 PUSH4 0x84DA2666 EQ PUSH2 0x49E JUMPI DUP2 PUSH4 0x8DA5CB5B EQ PUSH2 0x476 JUMPI DUP2 PUSH4 0x965FA21E EQ PUSH2 0x457 JUMPI DUP2 PUSH4 0x9F80FB4E EQ PUSH2 0x42E JUMPI DUP2 PUSH4 0xCD377C53 EQ PUSH2 0x40A JUMPI DUP2 PUSH4 0xDB006A75 EQ PUSH2 0x191 JUMPI DUP2 PUSH4 0xF2FDE38B EQ PUSH2 0xF4 JUMPI POP PUSH4 0xFC7B9C18 EQ PUSH2 0xD3 JUMPI PUSH1 0x0 DUP1 REVERT JUMPDEST CALLVALUE PUSH2 0xF0 JUMPI DUP2 PUSH1 0x3 NOT CALLDATASIZE ADD SLT PUSH2 0xF0 JUMPI PUSH1 0x20 SWAP1 PUSH1 0x9 SLOAD SWAP1 MLOAD SWAP1 DUP2 MSTORE RETURN JUMPDEST POP DUP1 REVERT JUMPDEST SWAP2 SWAP1 POP CALLVALUE PUSH2 0x18D JUMPI PUSH1 0x20 CALLDATASIZE PUSH1 0x3 NOT ADD SLT PUSH2 0x18D JUMPI PUSH1 0x1 PUSH1 0x1 PUSH1 0xA0 SHL SUB DUP3 CALLDATALOAD DUP2 DUP2 AND SWAP4 SWAP2 SWAP3 SWAP1 DUP5 SWAP1 SUB PUSH2 0x189 JUMPI PUSH2 0x128 PUSH2 0x995 JUMP JUMPDEST DUP4 ISZERO PUSH2 0x173 JUMPI POP POP PUSH1 0x0 SLOAD DUP3 PUSH12 0xFFFFFFFFFFFFFFFFFFFFFFFF PUSH1 0xA0 SHL DUP3 AND OR PUSH1 0x0 SSTORE AND PUSH32 0x8BE0079C531659141344CD1FD0A4F28419497F9722A3DAAFE3B4186F6B6457E0 PUSH1 0x0 DUP1 LOG3 DUP1 RETURN JUMPDEST MLOAD PUSH4 0x1E4FBDF7 PUSH1 0xE0 SHL DUP2 MSTORE SWAP1 DUP2 ADD DUP5 SWAP1 MSTORE PUSH1 0x24 SWAP1 REVERT JUMPDEST DUP5 DUP1 REVERT JUMPDEST DUP3 DUP1 REVERT JUMPDEST SWAP2 SWAP1 POP CALLVALUE PUSH2 0x18D JUMPI PUSH1 0x20 SWAP2 DUP3 PUSH1 0x3 NOT CALLDATASIZE ADD SLT PUSH2 0x406 JUMPI DUP1 CALLDATALOAD SWAP1 PUSH2 0x1B5 DUP3 ISZERO ISZERO PUSH2 0x9C1 JUMP JUMPDEST CALLER DUP6 MSTORE PUSH1 0x7 DUP5 MSTORE DUP3 DUP6 KECCAK256 SWAP5 PUSH1 0x1 DUP7 ADD SWAP2 DUP3 SLOAD SWAP3 DUP5 DUP5 LT PUSH2 0x3CF JUMPI PUSH1 0x3 SLOAD DUP7 MLOAD PUSH4 0x4C6AFEE5 PUSH1 0xE1 SHL DUP2 MSTORE PUSH1 0x1 PUSH1 0x1 PUSH1 0xA0 SHL SUB SWAP6 SWAP2 DUP10 SWAP1 DUP3 SWAP1 DUP7 SWAP1 DUP3 SWAP1 DUP11 AND GAS STATICCALL SWAP1 DUP2 ISZERO PUSH2 0x3C5 JUMPI DUP6 SWAP2 PUSH2 0x396 JUMPI JUMPDEST POP SWAP2 PUSH2 0x25A DUP8 PUSH2 0x22A SWAP11 SWAP12 SWAP4 PUSH2 0x21B PUSH2 0x264 SWAP7 DUP4 PUSH2 0xA4E JUMP JUMPDEST POP PUSH2 0x22F DUP2 DUP7 SLOAD SWAP14 DUP15 DUP6 PUSH2 0xA4E JUMP JUMPDEST PUSH2 0xA77 JUMP JUMPDEST SWAP5 PUSH2 0x253 DUP7 PUSH2 0x24D PUSH2 0x2710 PUSH2 0x246 PUSH1 0x5 SLOAD DUP5 PUSH2 0xA4E JUMP JUMPDEST DIV DUP3 PUSH2 0xA97 JUMP JUMPDEST SWAP15 PUSH2 0xA97 JUMP JUMPDEST SWAP1 SSTORE PUSH2 0xA97 JUMP JUMPDEST SWAP1 SSTORE PUSH1 0x8 SLOAD PUSH2 0xA97 JUMP JUMPDEST PUSH1 0x8 SSTORE PUSH2 0x273 DUP5 PUSH1 0x9 SLOAD PUSH2 0xA97 JUMP JUMPDEST PUSH1 0x9 SSTORE DUP3 PUSH1 0x2 SLOAD AND DUP1 EXTCODESIZE ISZERO PUSH2 0x18D JUMPI DUP6 MLOAD PUSH4 0x2770A7EB PUSH1 0xE2 SHL DUP2 MSTORE CALLER DUP4 DUP3 ADD SWAP1 DUP2 MSTORE PUSH1 0x20 DUP2 ADD DUP8 SWAP1 MSTORE SWAP1 SWAP2 DUP5 SWAP2 DUP4 SWAP2 SWAP1 DUP3 SWAP1 DUP5 SWAP1 DUP3 SWAP1 PUSH1 0x40 ADD SUB SWAP3 GAS CALL DUP1 ISZERO PUSH2 0x38C JUMPI SWAP2 DUP8 SWAP2 DUP10 SWAP4 PUSH2 0x379 JUMPI JUMPDEST POP PUSH1 0x1 SLOAD DUP8 MLOAD PUSH4 0xA9059CBB PUSH1 0xE0 SHL DUP2 MSTORE CALLER SWAP3 DUP2 ADD SWAP3 DUP4 MSTORE PUSH1 0x20 DUP4 ADD SWAP4 SWAP1 SWAP4 MSTORE SWAP4 SWAP5 SWAP2 SWAP4 DUP5 SWAP3 AND SWAP1 DUP3 SWAP1 DUP7 SWAP1 DUP3 SWAP1 PUSH1 0x40 ADD JUMPDEST SUB SWAP3 GAS CALL SWAP2 DUP3 ISZERO PUSH2 0x36E JUMPI SWAP1 PUSH2 0x30C SWAP3 PUSH2 0x341 JUMPI JUMPDEST POP PUSH2 0xACE JUMP JUMPDEST DUP2 MLOAD SWAP1 DUP2 MSTORE DUP3 DUP5 DUP3 ADD MSTORE PUSH32 0xE5B754FB1ABB7F01B499791D0B820AE3B6AF3424AC1C59768EDB53F4EC31A929 DUP3 CALLER SWAP3 LOG2 MLOAD SWAP1 DUP2 MSTORE RETURN JUMPDEST PUSH2 0x361 SWAP2 POP DUP7 RETURNDATASIZE DUP9 GT PUSH2 0x367 JUMPI JUMPDEST PUSH2 0x359 DUP2 DUP4 PUSH2 0xA2C JUMP JUMPDEST DUP2 ADD SWAP1 PUSH2 0xAB1 JUMP JUMPDEST CODESIZE PUSH2 0x306 JUMP JUMPDEST POP RETURNDATASIZE PUSH2 0x34F JUMP JUMPDEST DUP5 MLOAD SWAP1 RETURNDATASIZE SWAP1 DUP3 RETURNDATACOPY RETURNDATASIZE SWAP1 REVERT JUMPDEST SWAP4 PUSH2 0x386 PUSH2 0x2F1 SWAP6 PUSH2 0xA02 JUMP JUMPDEST SWAP4 PUSH2 0x2C0 JUMP JUMPDEST DUP7 MLOAD RETURNDATASIZE DUP6 DUP3 RETURNDATACOPY RETURNDATASIZE SWAP1 REVERT JUMPDEST SWAP1 POP DUP9 DUP2 DUP2 RETURNDATASIZE DUP4 GT PUSH2 0x3BE JUMPI JUMPDEST PUSH2 0x3AD DUP2 DUP4 PUSH2 0xA2C JUMP JUMPDEST DUP2 ADD SUB SLT PUSH2 0x189 JUMPI MLOAD PUSH2 0x25A PUSH2 0x202 JUMP JUMPDEST POP RETURNDATASIZE PUSH2 0x3A3 JUMP JUMPDEST DUP9 MLOAD RETURNDATASIZE DUP8 DUP3 RETURNDATACOPY RETURNDATASIZE SWAP1 REVERT JUMPDEST DUP6 MLOAD PUSH3 0x461BCD PUSH1 0xE5 SHL DUP2 MSTORE DUP1 DUP4 ADD DUP9 SWAP1 MSTORE PUSH1 0x11 PUSH1 0x24 DUP3 ADD MSTORE PUSH17 0x125B9CDD59999A58DA595B9D081919589D PUSH1 0x7A SHL PUSH1 0x44 DUP3 ADD MSTORE PUSH1 0x64 SWAP1 REVERT JUMPDEST DUP4 DUP1 REVERT JUMPDEST POP POP CALLVALUE PUSH2 0xF0 JUMPI DUP2 PUSH1 0x3 NOT CALLDATASIZE ADD SLT PUSH2 0xF0 JUMPI PUSH1 0x20 SWAP1 PUSH2 0x427 PUSH2 0xB0C JUMP JUMPDEST SWAP1 MLOAD SWAP1 DUP2 MSTORE RETURN JUMPDEST POP POP CALLVALUE PUSH2 0xF0 JUMPI DUP2 PUSH1 0x3 NOT CALLDATASIZE ADD SLT PUSH2 0xF0 JUMPI PUSH1 0x2 SLOAD SWAP1 MLOAD PUSH1 0x1 PUSH1 0x1 PUSH1 0xA0 SHL SUB SWAP1 SWAP2 AND DUP2 MSTORE PUSH1 0x20 SWAP1 RETURN JUMPDEST POP POP CALLVALUE PUSH2 0xF0 JUMPI DUP2 PUSH1 0x3 NOT CALLDATASIZE ADD SLT PUSH2 0xF0 JUMPI PUSH1 0x20 SWAP1 PUSH1 0x5 SLOAD SWAP1 MLOAD SWAP1 DUP2 MSTORE RETURN JUMPDEST POP POP CALLVALUE PUSH2 0xF0 JUMPI DUP2 PUSH1 0x3 NOT CALLDATASIZE ADD SLT PUSH2 0xF0 JUMPI SWAP1 SLOAD SWAP1 MLOAD PUSH1 0x1 PUSH1 0x1 PUSH1 0xA0 SHL SUB SWAP1 SWAP2 AND DUP2 MSTORE PUSH1 0x20 SWAP1 RETURN JUMPDEST POP POP CALLVALUE PUSH2 0xF0 JUMPI DUP2 PUSH1 0x3 NOT CALLDATASIZE ADD SLT PUSH2 0xF0 JUMPI PUSH1 0x20 SWAP1 PUSH1 0x6 SLOAD SWAP1 MLOAD SWAP1 DUP2 MSTORE RETURN JUMPDEST POP POP CALLVALUE PUSH2 0xF0 JUMPI DUP2 PUSH1 0x3 NOT CALLDATASIZE ADD SLT PUSH2 0xF0 JUMPI PUSH1 0x3 SLOAD SWAP1 MLOAD PUSH1 0x1 PUSH1 0x1 PUSH1 0xA0 SHL SUB SWAP1 SWAP2 AND DUP2 MSTORE PUSH1 0x20 SWAP1 RETURN JUMPDEST DUP4 CALLVALUE PUSH2 0x540 JUMPI DUP1 PUSH1 0x3 NOT CALLDATASIZE ADD SLT PUSH2 0x540 JUMPI PUSH2 0x4FF PUSH2 0x995 JUMP JUMPDEST DUP1 SLOAD PUSH1 0x1 PUSH1 0x1 PUSH1 0xA0 SHL SUB NOT DUP2 AND DUP3 SSTORE DUP2 SWAP1 PUSH1 0x1 PUSH1 0x1 PUSH1 0xA0 SHL SUB AND PUSH32 0x8BE0079C531659141344CD1FD0A4F28419497F9722A3DAAFE3B4186F6B6457E0 DUP3 DUP1 LOG3 DUP1 RETURN JUMPDEST DUP1 REVERT JUMPDEST SWAP2 SWAP1 POP CALLVALUE PUSH2 0x18D JUMPI DUP1 PUSH1 0x3 NOT CALLDATASIZE ADD SLT PUSH2 0x18D JUMPI DUP2 CALLDATALOAD PUSH1 0x24 SWAP4 DUP5 CALLDATALOAD SWAP1 PUSH2 0x569 DUP4 ISZERO ISZERO PUSH2 0x9C1 JUMP JUMPDEST PUSH1 0x78 DUP3 LT ISZERO DUP1 PUSH2 0x8AE JUMPI JUMPDEST ISZERO PUSH2 0x87F JUMPI PUSH1 0x3 SLOAD DUP5 MLOAD PUSH4 0x4C6AFEE5 PUSH1 0xE1 SHL DUP2 MSTORE PUSH1 0x20 SWAP8 SWAP1 SWAP7 SWAP2 PUSH1 0x1 PUSH1 0x1 PUSH1 0xA0 SHL SUB SWAP2 SWAP1 DUP10 SWAP1 DUP10 SWAP1 DUP6 SWAP1 DUP3 SWAP1 DUP7 AND GAS STATICCALL SWAP8 DUP9 ISZERO PUSH2 0x7B7 JUMPI DUP5 SWAP9 PUSH2 0x850 JUMPI JUMPDEST POP PUSH2 0x5CB PUSH2 0x2710 PUSH2 0x5C4 DUP6 SLOAD DUP10 PUSH2 0xA4E JUMP JUMPDEST DIV DUP8 PUSH2 0xA97 JUMP JUMPDEST PUSH1 0x64 SWAP1 DUP2 DUP2 MUL DUP2 DUP2 DIV DUP4 EQ DUP3 ISZERO OR ISZERO PUSH2 0x83E JUMPI DUP8 PUSH2 0x5E8 SWAP2 PUSH2 0xA77 JUMP JUMPDEST PUSH13 0xC9F2C9CD04674EDEA40000000 SWAP1 DUP2 DUP2 MUL SWAP2 DUP2 DUP4 DIV EQ SWAP1 ISZERO OR ISZERO PUSH2 0x83E JUMPI DUP11 PUSH2 0x611 SWAP2 PUSH2 0xA77 JUMP JUMPDEST SWAP10 DUP11 ISZERO PUSH2 0x80A JUMPI PUSH5 0xE8D4A51000 PUSH8 0xDE0B6B3A7640000 PUSH2 0x649 DUP14 SWAP4 PUSH2 0x644 PUSH2 0x63B DUP8 PUSH1 0x8 SLOAD PUSH2 0xAA4 JUMP JUMPDEST SWAP6 PUSH1 0x9 SLOAD PUSH2 0xAA4 JUMP JUMPDEST PUSH2 0xA4E JUMP JUMPDEST DIV DIV SWAP1 DUP4 DUP2 MUL SWAP1 DUP1 DUP3 DIV DUP6 EQ SWAP1 ISZERO OR ISZERO PUSH2 0x7F8 JUMPI SWAP1 PUSH2 0x667 SWAP2 PUSH2 0xA77 JUMP JUMPDEST PUSH1 0x6 SLOAD GT PUSH2 0x7C1 JUMPI SWAP2 DUP11 SWAP2 PUSH2 0x6B1 DUP8 SWAP5 DUP13 PUSH2 0x6A7 PUSH1 0x1 DUP15 CALLER DUP11 MSTORE PUSH1 0x7 DUP10 MSTORE DUP1 DUP11 KECCAK256 PUSH2 0x693 DUP7 DUP3 SLOAD PUSH2 0xAA4 JUMP JUMPDEST SWAP1 SSTORE CALLER DUP11 MSTORE PUSH1 0x7 DUP10 MSTORE DUP10 KECCAK256 ADD SWAP2 DUP3 SLOAD PUSH2 0xAA4 JUMP JUMPDEST SWAP1 SSTORE PUSH1 0x8 SLOAD PUSH2 0xAA4 JUMP JUMPDEST PUSH1 0x8 SSTORE PUSH2 0x6C0 DUP12 PUSH1 0x9 SLOAD PUSH2 0xAA4 JUMP JUMPDEST PUSH1 0x9 SSTORE DUP5 PUSH1 0x1 SLOAD AND SWAP2 DUP11 MLOAD SWAP5 DUP6 SWAP4 DUP5 SWAP3 PUSH4 0x23B872DD PUSH1 0xE0 SHL DUP5 MSTORE CALLER DUP11 DUP6 ADD MSTORE ADDRESS SWAP1 DUP5 ADD MSTORE DUP12 PUSH1 0x44 DUP5 ADD MSTORE GAS CALL SWAP1 DUP2 ISZERO PUSH2 0x7B7 JUMPI SWAP1 PUSH2 0x704 SWAP2 DUP6 SWAP2 PUSH2 0x7A0 JUMPI POP PUSH2 0xACE JUMP JUMPDEST PUSH1 0x2 SLOAD AND SWAP1 DUP2 EXTCODESIZE ISZERO PUSH2 0x18D JUMPI DUP6 MLOAD PUSH4 0x40C10F19 PUSH1 0xE0 SHL DUP2 MSTORE CALLER SWAP2 DUP2 ADD SWAP2 DUP3 MSTORE PUSH1 0x20 DUP3 ADD DUP9 SWAP1 MSTORE SWAP3 SWAP2 DUP3 SWAP2 DUP5 SWAP2 SWAP1 DUP3 SWAP1 DUP5 SWAP1 DUP3 SWAP1 PUSH1 0x40 ADD SUB SWAP3 GAS CALL SWAP1 DUP2 ISZERO PUSH2 0x795 JUMPI POP PUSH2 0x786 JUMPI JUMPDEST POP DUP3 MLOAD SWAP2 DUP3 MSTORE DUP4 DUP6 DUP4 ADD MSTORE DUP3 DUP3 ADD MSTORE PUSH32 0xB4C03061FB5B7FED76389D5AF8F2E0DDB09F8C70D1333ABBB62582835E10ACCB PUSH1 0x60 CALLER SWAP3 LOG2 MLOAD SWAP1 DUP2 MSTORE RETURN JUMPDEST PUSH2 0x78F SWAP1 PUSH2 0xA02 JUMP JUMPDEST CODESIZE PUSH2 0x74B JUMP JUMPDEST DUP6 MLOAD SWAP1 RETURNDATASIZE SWAP1 DUP3 RETURNDATACOPY RETURNDATASIZE SWAP1 REVERT JUMPDEST PUSH2 0x361 SWAP2 POP DUP11 RETURNDATASIZE DUP13 GT PUSH2 0x367 JUMPI PUSH2 0x359 DUP2 DUP4 PUSH2 0xA2C JUMP JUMPDEST DUP8 MLOAD RETURNDATASIZE DUP7 DUP3 RETURNDATACOPY RETURNDATASIZE SWAP1 REVERT JUMPDEST POP DUP8 MLOAD PUSH3 0x461BCD PUSH1 0xE5 SHL DUP2 MSTORE DUP1 DUP6 ADD DUP12 SWAP1 MSTORE PUSH1 0x14 DUP2 DUP5 ADD MSTORE PUSH20 0x2BB7BAB632103B34B7B630BA329036B4B71021A9 PUSH1 0x61 SHL PUSH1 0x44 DUP3 ADD MSTORE REVERT JUMPDEST PUSH4 0x4E487B71 PUSH1 0xE0 SHL DUP9 MSTORE PUSH1 0x11 DUP8 MSTORE DUP5 DUP9 REVERT JUMPDEST DUP10 MLOAD PUSH3 0x461BCD PUSH1 0xE5 SHL DUP2 MSTORE DUP1 DUP8 ADD DUP14 SWAP1 MSTORE PUSH1 0x10 DUP2 DUP7 ADD MSTORE PUSH16 0x105B5BDD5B9D081D1BDBC81CDB585B1B PUSH1 0x82 SHL PUSH1 0x44 DUP3 ADD MSTORE DUP4 SWAP1 REVERT JUMPDEST PUSH4 0x4E487B71 PUSH1 0xE0 SHL DUP8 MSTORE PUSH1 0x11 DUP7 MSTORE DUP4 DUP8 REVERT JUMPDEST SWAP1 SWAP8 POP DUP9 DUP2 DUP2 RETURNDATASIZE DUP4 GT PUSH2 0x878 JUMPI JUMPDEST PUSH2 0x868 DUP2 DUP4 PUSH2 0xA2C JUMP JUMPDEST DUP2 ADD SUB SLT PUSH2 0x406 JUMPI MLOAD SWAP7 CODESIZE PUSH2 0x5B2 JUMP JUMPDEST POP RETURNDATASIZE PUSH2 0x85E JUMP JUMPDEST DUP4 MLOAD PUSH3 0x461BCD PUSH1 0xE5 SHL DUP2 MSTORE PUSH1 0x20 DUP2 DUP8 ADD MSTORE PUSH1 0xA DUP2 DUP9 ADD MSTORE PUSH10 0x24B73B30B634B21021A9 PUSH1 0xB1 SHL PUSH1 0x44 DUP3 ADD MSTORE PUSH1 0x64 SWAP1 REVERT JUMPDEST POP PUSH2 0x12C DUP3 GT ISZERO PUSH2 0x574 JUMP JUMPDEST SWAP1 POP CALLVALUE PUSH2 0x18D JUMPI PUSH1 0x20 CALLDATASIZE PUSH1 0x3 NOT ADD SLT PUSH2 0x18D JUMPI CALLDATALOAD PUSH1 0x1 PUSH1 0x1 PUSH1 0xA0 SHL SUB DUP2 AND SWAP1 DUP2 SWAP1 SUB PUSH2 0x18D JUMPI SWAP2 DUP2 SWAP3 DUP2 MSTORE PUSH1 0x7 PUSH1 0x20 MSTORE KECCAK256 PUSH1 0x1 DUP2 SLOAD SWAP2 ADD SLOAD DUP3 MLOAD SWAP2 DUP3 MSTORE PUSH1 0x20 DUP3 ADD MSTORE RETURN JUMPDEST POP POP CALLVALUE PUSH2 0xF0 JUMPI DUP2 PUSH1 0x3 NOT CALLDATASIZE ADD SLT PUSH2 0xF0 JUMPI PUSH1 0x20 SWAP1 PUSH1 0x8 SLOAD SWAP1 MLOAD SWAP1 DUP2 MSTORE RETURN JUMPDEST POP POP CALLVALUE PUSH2 0xF0 JUMPI DUP2 PUSH1 0x3 NOT CALLDATASIZE ADD SLT PUSH2 0xF0 JUMPI PUSH1 0x1 SLOAD SWAP1 MLOAD PUSH1 0x1 PUSH1 0x1 PUSH1 0xA0 SHL SUB SWAP1 SWAP2 AND DUP2 MSTORE PUSH1 0x20 SWAP1 RETURN JUMPDEST SWAP1 POP CALLVALUE PUSH2 0x18D JUMPI DUP3 PUSH1 0x3 NOT CALLDATASIZE ADD SLT PUSH2 0x18D JUMPI PUSH1 0x20 SWAP3 POP SLOAD SWAP1 MLOAD SWAP1 DUP2 MSTORE RETURN JUMPDEST SWAP1 POP CALLVALUE PUSH2 0x18D JUMPI PUSH1 0x20 CALLDATASIZE PUSH1 0x3 NOT ADD SLT PUSH2 0x18D JUMPI CALLDATALOAD SWAP2 PUSH1 0x1 PUSH1 0x1 PUSH1 0xA0 SHL SUB DUP4 AND DUP4 SUB PUSH2 0x540 JUMPI POP PUSH2 0x427 PUSH1 0x20 SWAP3 PUSH2 0xBCE JUMP JUMPDEST PUSH1 0x0 SLOAD PUSH1 0x1 PUSH1 0x1 PUSH1 0xA0 SHL SUB AND CALLER SUB PUSH2 0x9A9 JUMPI JUMP JUMPDEST PUSH1 0x40 MLOAD PUSH4 0x118CDAA7 PUSH1 0xE0 SHL DUP2 MSTORE CALLER PUSH1 0x4 DUP3 ADD MSTORE PUSH1 0x24 SWAP1 REVERT JUMPDEST ISZERO PUSH2 0x9C8 JUMPI JUMP JUMPDEST PUSH1 0x40 MLOAD PUSH3 0x461BCD PUSH1 0xE5 SHL DUP2 MSTORE PUSH1 0x20 PUSH1 0x4 DUP3 ADD MSTORE PUSH1 0x12 PUSH1 0x24 DUP3 ADD MSTORE PUSH18 0x416D6F756E74206D757374206265203E203 PUSH1 0x74 SHL PUSH1 0x44 DUP3 ADD MSTORE PUSH1 0x64 SWAP1 REVERT JUMPDEST PUSH8 0xFFFFFFFFFFFFFFFF DUP2 GT PUSH2 0xA16 JUMPI PUSH1 0x40 MSTORE JUMP JUMPDEST PUSH4 0x4E487B71 PUSH1 0xE0 SHL PUSH1 0x0 MSTORE PUSH1 0x41 PUSH1 0x4 MSTORE PUSH1 0x24 PUSH1 0x0 REVERT JUMPDEST SWAP1 PUSH1 0x1F DUP1 NOT SWAP2 ADD AND DUP2 ADD SWAP1 DUP2 LT PUSH8 0xFFFFFFFFFFFFFFFF DUP3 GT OR PUSH2 0xA16 JUMPI PUSH1 0x40 MSTORE JUMP JUMPDEST DUP2 DUP2 MUL SWAP3 SWAP2 DUP2 ISZERO SWAP2 DUP5 DIV EQ OR ISZERO PUSH2 0xA61 JUMPI JUMP JUMPDEST PUSH4 0x4E487B71 PUSH1 0xE0 SHL PUSH1 0x0 MSTORE PUSH1 0x11 PUSH1 0x4 MSTORE PUSH1 0x24 PUSH1 0x0 REVERT JUMPDEST DUP2 ISZERO PUSH2 0xA81 JUMPI DIV SWAP1 JUMP JUMPDEST PUSH4 0x4E487B71 PUSH1 0xE0 SHL PUSH1 0x0 MSTORE PUSH1 0x12 PUSH1 0x4 MSTORE PUSH1 0x24 PUSH1 0x0 REVERT JUMPDEST SWAP2 SWAP1 DUP3 SUB SWAP2 DUP3 GT PUSH2 0xA61 JUMPI JUMP JUMPDEST SWAP2 SWAP1 DUP3 ADD DUP1 SWAP3 GT PUSH2 0xA61 JUMPI JUMP JUMPDEST SWAP1 DUP2 PUSH1 0x20 SWAP2 SUB SLT PUSH2 0xAC9 JUMPI MLOAD DUP1 ISZERO ISZERO DUP2 SUB PUSH2 0xAC9 JUMPI SWAP1 JUMP JUMPDEST PUSH1 0x0 DUP1 REVERT JUMPDEST ISZERO PUSH2 0xAD5 JUMPI JUMP JUMPDEST PUSH1 0x40 MLOAD PUSH3 0x461BCD PUSH1 0xE5 SHL DUP2 MSTORE PUSH1 0x20 PUSH1 0x4 DUP3 ADD MSTORE PUSH1 0xF PUSH1 0x24 DUP3 ADD MSTORE PUSH15 0x151C985B9CD9995C8819985A5B1959 PUSH1 0x8A SHL PUSH1 0x44 DUP3 ADD MSTORE PUSH1 0x64 SWAP1 REVERT JUMPDEST PUSH1 0x9 SLOAD DUP1 ISZERO PUSH2 0xBC8 JUMPI PUSH1 0x3 SLOAD PUSH1 0x40 MLOAD PUSH4 0x4C6AFEE5 PUSH1 0xE1 SHL DUP2 MSTORE SWAP1 PUSH1 0x20 SWAP1 DUP3 SWAP1 PUSH1 0x4 SWAP1 DUP3 SWAP1 PUSH1 0x1 PUSH1 0x1 PUSH1 0xA0 SHL SUB AND GAS STATICCALL SWAP1 DUP2 ISZERO PUSH2 0xBBC JUMPI PUSH1 0x0 SWAP2 PUSH2 0xB89 JUMPI JUMPDEST POP PUSH2 0xB64 PUSH8 0xDE0B6B3A7640000 SWAP2 PUSH5 0xE8D4A51000 SWAP4 PUSH2 0xA4E JUMP JUMPDEST DIV DIV PUSH1 0x8 SLOAD SWAP1 PUSH1 0x64 DUP3 MUL SWAP2 DUP1 DUP4 DIV PUSH1 0x64 EQ SWAP1 ISZERO OR ISZERO PUSH2 0xA61 JUMPI PUSH2 0xB86 SWAP2 PUSH2 0xA77 JUMP JUMPDEST SWAP1 JUMP JUMPDEST SWAP1 PUSH1 0x20 DUP3 RETURNDATASIZE DUP3 GT PUSH2 0xBB4 JUMPI JUMPDEST DUP2 PUSH2 0xBA2 PUSH1 0x20 SWAP4 DUP4 PUSH2 0xA2C JUMP JUMPDEST DUP2 ADD SUB SLT PUSH2 0x540 JUMPI POP MLOAD PUSH2 0xB64 PUSH2 0xB4A JUMP JUMPDEST RETURNDATASIZE SWAP2 POP PUSH2 0xB95 JUMP JUMPDEST PUSH1 0x40 MLOAD RETURNDATASIZE PUSH1 0x0 DUP3 RETURNDATACOPY RETURNDATASIZE SWAP1 REVERT JUMPDEST POP PUSH1 0x0 SWAP1 JUMP JUMPDEST PUSH1 0x1 PUSH1 0x1 PUSH1 0xA0 SHL SUB SWAP1 DUP2 AND PUSH1 0x0 SWAP1 DUP2 MSTORE PUSH1 0x7 PUSH1 0x20 SWAP1 DUP2 MSTORE PUSH1 0x40 DUP1 DUP4 KECCAK256 DUP2 MLOAD SWAP4 SWAP6 SWAP5 SWAP3 SWAP1 DUP5 DUP4 ADD PUSH8 0xFFFFFFFFFFFFFFFF DUP2 GT DUP7 DUP3 LT OR PUSH2 0xCD8 JUMPI DUP4 MSTORE DUP1 SLOAD DUP6 MSTORE PUSH1 0x1 ADD SLOAD DUP2 DUP6 ADD DUP2 DUP2 MSTORE SWAP4 SWAP1 ISZERO PUSH2 0xCD1 JUMPI SWAP1 DUP1 PUSH1 0x4 SWAP3 PUSH1 0x3 SLOAD AND DUP5 MLOAD SWAP4 DUP5 DUP1 SWAP3 PUSH4 0x4C6AFEE5 PUSH1 0xE1 SHL DUP3 MSTORE GAS STATICCALL SWAP3 DUP4 ISZERO PUSH2 0xCC8 JUMPI POP DUP7 SWAP3 PUSH2 0xC98 JUMPI JUMPDEST POP POP PUSH2 0xC63 SWAP1 PUSH13 0xC9F2C9CD04674EDEA40000000 SWAP3 MLOAD PUSH2 0xA4E JUMP JUMPDEST DIV SWAP1 MLOAD PUSH1 0x64 DUP2 MUL SWAP1 DUP1 DUP3 DIV PUSH1 0x64 EQ SWAP1 ISZERO OR ISZERO PUSH2 0xC84 JUMPI PUSH2 0xB86 SWAP3 SWAP4 POP PUSH2 0xA77 JUMP JUMPDEST PUSH4 0x4E487B71 PUSH1 0xE0 SHL DUP5 MSTORE PUSH1 0x11 PUSH1 0x4 MSTORE PUSH1 0x24 DUP5 REVERT JUMPDEST SWAP1 DUP1 SWAP3 POP DUP2 RETURNDATASIZE DUP4 GT PUSH2 0xCC1 JUMPI JUMPDEST PUSH2 0xCAF DUP2 DUP4 PUSH2 0xA2C JUMP JUMPDEST DUP2 ADD SUB SLT PUSH2 0x189 JUMPI MLOAD DUP2 PUSH2 0xC63 PUSH2 0xC48 JUMP JUMPDEST POP RETURNDATASIZE PUSH2 0xCA5 JUMP JUMPDEST MLOAD RETURNDATASIZE DUP9 DUP3 RETURNDATACOPY RETURNDATASIZE SWAP1 REVERT JUMPDEST POP POP POP POP POP JUMP JUMPDEST PUSH4 0x4E487B71 PUSH1 0xE0 SHL DUP9 MSTORE PUSH1 0x41 PUSH1 0x4 MSTORE PUSH1 0x24 DUP9 REVERT INVALID LOG2 PUSH5 0x6970667358 0x22 SLT KECCAK256 EXTCODESIZE GASPRICE SELFBALANCE DUP13 0xA6 0xAE CALLDATASIZE 0xD1 0xB4 PUSH8 0x16E862A889E04A4D MLOAD 0xBF PUSH12 0x23FABB353394656F81EDE664 PUSH20 0x6F6C634300081500330000000000000000000000 "},"methodIdentifiers":{"bvix()":"9f80fb4e","getCollateralRatio()":"cd377c53","getUserCollateralRatio(address)":"10b45de1","minCollateralRatio()":"84da2666","mintFee()":"13966db5","mintWithCollateralRatio(uint256,uint256)":"6008d28b","oracle()":"7dc0d1d0","owner()":"8da5cb5b","positions(address)":"55f57510","redeem(uint256)":"db006a75","redeemFee()":"965fa21e","renounceOwnership()":"715018a6","totalCollateral()":"4ac8eb5f","totalDebt()":"fc7b9c18","transferOwnership(address)":"f2fde38b","usdc()":"3e413bee"}}}}}