{"contracts/MintRedeem.sol":{"MintRedeem":{"abi":[{"inputs":[{"internalType":"address","name":"_usdc","type":"address"},{"internalType":"address","name":"_bvix","type":"address"},{"internalType":"address","name":"_oracle","type":"address"},{"internalType":"address","name":"initialOwner","type":"address"}],"stateMutability":"nonpayable","type":"constructor"},{"inputs":[{"internalType":"address","name":"owner","type":"address"}],"name":"OwnableInvalidOwner","type":"error"},{"inputs":[{"internalType":"address","name":"account","type":"address"}],"name":"OwnableUnauthorizedAccount","type":"error"},{"anonymous":false,"inputs":[{"indexed":true,"internalType":"address","name":"previousOwner","type":"address"},{"indexed":true,"internalType":"address","name":"newOwner","type":"address"}],"name":"OwnershipTransferred","type":"event"},{"inputs":[],"name":"bvix","outputs":[{"internalType":"contract BVIXToken","name":"","type":"address"}],"stateMutability":"view","type":"function"},{"inputs":[{"internalType":"uint256","name":"amount","type":"uint256"}],"name":"mint","outputs":[],"stateMutability":"nonpayable","type":"function"},{"inputs":[],"name":"mintFee","outputs":[{"internalType":"uint256","name":"","type":"uint256"}],"stateMutability":"view","type":"function"},{"inputs":[],"name":"oracle","outputs":[{"internalType":"contract MockOracle","name":"","type":"address"}],"stateMutability":"view","type":"function"},{"inputs":[],"name":"owner","outputs":[{"internalType":"address","name":"","type":"address"}],"stateMutability":"view","type":"function"},{"inputs":[{"internalType":"uint256","name":"bvixAmount","type":"uint256"}],"name":"redeem","outputs":[],"stateMutability":"nonpayable","type":"function"},{"inputs":[],"name":"redeemFee","outputs":[{"internalType":"uint256","name":"","type":"uint256"}],"stateMutability":"view","type":"function"},{"inputs":[],"name":"renounceOwnership","outputs":[],"stateMutability":"nonpayable","type":"function"},{"inputs":[{"internalType":"address","name":"newOwner","type":"address"}],"name":"transferOwnership","outputs":[],"stateMutability":"nonpayable","type":"function"},{"inputs":[],"name":"usdc","outputs":[{"internalType":"contract IERC20","name":"","type":"address"}],"stateMutability":"view","type":"function"}],"evm":{"bytecode":{"linkReferences":{},"object":"60803461011557601f61091538819003918201601f19168301916001600160401b0383118484101761011a578084926080946040528339810103126101155761004781610130565b90606061005660208301610130565b9161006360408201610130565b6001600160a01b03929091839161007a9101610130565b169283156100fc57600080546001600160a01b03198082168717835560405197909686949385938416907f8be0079c531659141344cd1fd0a4f28419497f9722a3daafe3b4186f6b6457e09080a3601e600455601e6005551685600154161760015516836002541617600255169060035416176003556107d090816101458239f35b604051631e4fbdf760e01b815260006004820152602490fd5b600080fd5b634e487b7160e01b600052604160045260246000fd5b51906001600160a01b03821682036101155756fe608060408181526004908136101561001657600080fd5b600092833560e01c90816313966db51461063c575080633e413bee14610613578063715018a6146105b65780637dc0d1d01461058d5780638da5cb5b14610565578063965fa21e146105465780639f80fb4e1461051d578063a0712d68146102ff578063db006a751461012c5763f2fde38b1461009257600080fd5b34610128576020366003190112610128576001600160a01b03823581811693919290849003610124576100c3610658565b831561010e575050600054826bffffffffffffffffffffffff60a01b821617600055167f8be0079c531659141344cd1fd0a4f28419497f9722a3daafe3b4186f6b6457e0600080a380f35b51631e4fbdf760e01b8152908101849052602490fd5b8480fd5b8280fd5b50903461012857602090816003193601126102fb5780359061014f821515610684565b6002546001600160a01b039086908216803b156102f7578651632770a7eb60e21b815233858201908152602081018790529091839183919082908490829060400103925af180156102ed576102d5575b505081848260035416875194858092634c6afee560e11b82525afa80156102cb5785938891610290575b5064e8d4a51000670de0b6b3a76400006101e96102019361023598610764565b04046127106101fa60055483610764565b049061078d565b600154875163a9059cbb60e01b81523393810193845260208401929092529094859390911691839189918391604090910190565b03925af19182156102835761025393508492610256575b5050610721565b80f35b6102759250803d1061027c575b61026d81836106e7565b810190610709565b388061024c565b503d610263565b50505051903d90823e3d90fd5b84819592503d83116102c4575b6102a781836106e7565b810103126102bf57915184929064e8d4a510006101c9565b600080fd5b503d61029d565b86513d89823e3d90fd5b6102de906106bd565b6102e957853861019f565b8580fd5b87513d84823e3d90fd5b5080fd5b8380fd5b5034610128576020806003193601126102fb57823561031f811515610684565b60015483516323b872dd60e01b81523386820152306024820152604481018390526001600160a01b0392918490829060649082908b9088165af19081156104f657869291610374918991610500575b50610721565b838360035416865193848092634c6afee560e11b82525afa9182156104f65787926104c1575b506103ad906127106101fa885483610764565b64e8d4a51000908181029181830414811517156104ae576c0c9f2c9cd04674edea400000000290808204670de0b6b3a7640000149015171561049b5781156104885704918215610455575090849160025416803b156101285783516340c10f1960e01b8152339581019586526020860192909252909384919082908490829060400103925af190811561044c5750610443575080f35b610253906106bd565b513d84823e3d90fd5b8460649185519162461bcd60e51b8352820152600e60248201526d1b5a5b9d081d1bdbc81cdb585b1b60921b6044820152fd5b634e487b7160e01b875260128652602487fd5b634e487b7160e01b875260118652602487fd5b634e487b7160e01b885260118752602488fd5b9091508381813d83116104ef575b6104d981836106e7565b810103126104eb5751906103ad61039a565b8680fd5b503d6104cf565b85513d89823e3d90fd5b6105179150863d881161027c5761026d81836106e7565b3861036e565b8382346102f757816003193601126102f75760025490516001600160a01b039091168152602090f35b8382346102f757816003193601126102f7576020906005549051908152f35b8382346102f757816003193601126102f757905490516001600160a01b039091168152602090f35b8382346102f757816003193601126102f75760035490516001600160a01b039091168152602090f35b83346106105780600319360112610610576105cf610658565b80546001600160a01b03198116825581906001600160a01b03167f8be0079c531659141344cd1fd0a4f28419497f9722a3daafe3b4186f6b6457e08280a380f35b80fd5b8382346102f757816003193601126102f75760015490516001600160a01b039091168152602090f35b8490843461012857826003193601126101285760209250548152f35b6000546001600160a01b0316330361066c57565b60405163118cdaa760e01b8152336004820152602490fd5b1561068b57565b60405162461bcd60e51b815260206004820152600a6024820152690616d6f756e74203d20360b41b6044820152606490fd5b67ffffffffffffffff81116106d157604052565b634e487b7160e01b600052604160045260246000fd5b90601f8019910116810190811067ffffffffffffffff8211176106d157604052565b908160209103126102bf575180151581036102bf5790565b1561072857565b60405162461bcd60e51b81526020600482015260146024820152731554d110c81d1c985b9cd9995c8819985a5b195960621b6044820152606490fd5b8181029291811591840414171561077757565b634e487b7160e01b600052601160045260246000fd5b919082039182116107775756fea264697066735822122017de70795697336094eaa7cae1b02410a89fe9f245f212ee05c41bd83b5d23b364736f6c63430008150033","opcodes":"PUSH1 0x80 CALLVALUE PUSH2 0x115 JUMPI PUSH1 0x1F PUSH2 0x915 CODESIZE DUP2 SWAP1 SUB SWAP2 DUP3 ADD PUSH1 0x1F NOT AND DUP4 ADD SWAP2 PUSH1 0x1 PUSH1 0x1 PUSH1 0x40 SHL SUB DUP4 GT DUP5 DUP5 LT OR PUSH2 0x11A JUMPI DUP1 DUP5 SWAP3 PUSH1 0x80 SWAP5 PUSH1 0x40 MSTORE DUP4 CODECOPY DUP2 ADD SUB SLT PUSH2 0x115 JUMPI PUSH2 0x47 DUP2 PUSH2 0x130 JUMP JUMPDEST SWAP1 PUSH1 0x60 PUSH2 0x56 PUSH1 0x20 DUP4 ADD PUSH2 0x130 JUMP JUMPDEST SWAP2 PUSH2 0x63 PUSH1 0x40 DUP3 ADD PUSH2 0x130 JUMP JUMPDEST PUSH1 0x1 PUSH1 0x1 PUSH1 0xA0 SHL SUB SWAP3 SWAP1 SWAP2 DUP4 SWAP2 PUSH2 0x7A SWAP2 ADD PUSH2 0x130 JUMP JUMPDEST AND SWAP3 DUP4 ISZERO PUSH2 0xFC JUMPI PUSH1 0x0 DUP1 SLOAD PUSH1 0x1 PUSH1 0x1 PUSH1 0xA0 SHL SUB NOT DUP1 DUP3 AND DUP8 OR DUP4 SSTORE PUSH1 0x40 MLOAD SWAP8 SWAP1 SWAP7 DUP7 SWAP5 SWAP4 DUP6 SWAP4 DUP5 AND SWAP1 PUSH32 0x8BE0079C531659141344CD1FD0A4F28419497F9722A3DAAFE3B4186F6B6457E0 SWAP1 DUP1 LOG3 PUSH1 0x1E PUSH1 0x4 SSTORE PUSH1 0x1E PUSH1 0x5 SSTORE AND DUP6 PUSH1 0x1 SLOAD AND OR PUSH1 0x1 SSTORE AND DUP4 PUSH1 0x2 SLOAD AND OR PUSH1 0x2 SSTORE AND SWAP1 PUSH1 0x3 SLOAD AND OR PUSH1 0x3 SSTORE PUSH2 0x7D0 SWAP1 DUP2 PUSH2 0x145 DUP3 CODECOPY RETURN JUMPDEST PUSH1 0x40 MLOAD PUSH4 0x1E4FBDF7 PUSH1 0xE0 SHL DUP2 MSTORE PUSH1 0x0 PUSH1 0x4 DUP3 ADD MSTORE PUSH1 0x24 SWAP1 REVERT JUMPDEST PUSH1 0x0 DUP1 REVERT JUMPDEST PUSH4 0x4E487B71 PUSH1 0xE0 SHL PUSH1 0x0 MSTORE PUSH1 0x41 PUSH1 0x4 MSTORE PUSH1 0x24 PUSH1 0x0 REVERT JUMPDEST MLOAD SWAP1 PUSH1 0x1 PUSH1 0x1 PUSH1 0xA0 SHL SUB DUP3 AND DUP3 SUB PUSH2 0x115 JUMPI JUMP INVALID PUSH1 0x80 PUSH1 0x40 DUP2 DUP2 MSTORE PUSH1 0x4 SWAP1 DUP2 CALLDATASIZE LT ISZERO PUSH2 0x16 JUMPI PUSH1 0x0 DUP1 REVERT JUMPDEST PUSH1 0x0 SWAP3 DUP4 CALLDATALOAD PUSH1 0xE0 SHR SWAP1 DUP2 PUSH4 0x13966DB5 EQ PUSH2 0x63C JUMPI POP DUP1 PUSH4 0x3E413BEE EQ PUSH2 0x613 JUMPI DUP1 PUSH4 0x715018A6 EQ PUSH2 0x5B6 JUMPI DUP1 PUSH4 0x7DC0D1D0 EQ PUSH2 0x58D JUMPI DUP1 PUSH4 0x8DA5CB5B EQ PUSH2 0x565 JUMPI DUP1 PUSH4 0x965FA21E EQ PUSH2 0x546 JUMPI DUP1 PUSH4 0x9F80FB4E EQ PUSH2 0x51D JUMPI DUP1 PUSH4 0xA0712D68 EQ PUSH2 0x2FF JUMPI DUP1 PUSH4 0xDB006A75 EQ PUSH2 0x12C JUMPI PUSH4 0xF2FDE38B EQ PUSH2 0x92 JUMPI PUSH1 0x0 DUP1 REVERT JUMPDEST CALLVALUE PUSH2 0x128 JUMPI PUSH1 0x20 CALLDATASIZE PUSH1 0x3 NOT ADD SLT PUSH2 0x128 JUMPI PUSH1 0x1 PUSH1 0x1 PUSH1 0xA0 SHL SUB DUP3 CALLDATALOAD DUP2 DUP2 AND SWAP4 SWAP2 SWAP3 SWAP1 DUP5 SWAP1 SUB PUSH2 0x124 JUMPI PUSH2 0xC3 PUSH2 0x658 JUMP JUMPDEST DUP4 ISZERO PUSH2 0x10E JUMPI POP POP PUSH1 0x0 SLOAD DUP3 PUSH12 0xFFFFFFFFFFFFFFFFFFFFFFFF PUSH1 0xA0 SHL DUP3 AND OR PUSH1 0x0 SSTORE AND PUSH32 0x8BE0079C531659141344CD1FD0A4F28419497F9722A3DAAFE3B4186F6B6457E0 PUSH1 0x0 DUP1 LOG3 DUP1 RETURN JUMPDEST MLOAD PUSH4 0x1E4FBDF7 PUSH1 0xE0 SHL DUP2 MSTORE SWAP1 DUP2 ADD DUP5 SWAP1 MSTORE PUSH1 0x24 SWAP1 REVERT JUMPDEST DUP5 DUP1 REVERT JUMPDEST DUP3 DUP1 REVERT JUMPDEST POP SWAP1 CALLVALUE PUSH2 0x128 JUMPI PUSH1 0x20 SWAP1 DUP2 PUSH1 0x3 NOT CALLDATASIZE ADD SLT PUSH2 0x2FB JUMPI DUP1 CALLDATALOAD SWAP1 PUSH2 0x14F DUP3 ISZERO ISZERO PUSH2 0x684 JUMP JUMPDEST PUSH1 0x2 SLOAD PUSH1 0x1 PUSH1 0x1 PUSH1 0xA0 SHL SUB SWAP1 DUP7 SWAP1 DUP3 AND DUP1 EXTCODESIZE ISZERO PUSH2 0x2F7 JUMPI DUP7 MLOAD PUSH4 0x2770A7EB PUSH1 0xE2 SHL DUP2 MSTORE CALLER DUP6 DUP3 ADD SWAP1 DUP2 MSTORE PUSH1 0x20 DUP2 ADD DUP8 SWAP1 MSTORE SWAP1 SWAP2 DUP4 SWAP2 DUP4 SWAP2 SWAP1 DUP3 SWAP1 DUP5 SWAP1 DUP3 SWAP1 PUSH1 0x40 ADD SUB SWAP3 GAS CALL DUP1 ISZERO PUSH2 0x2ED JUMPI PUSH2 0x2D5 JUMPI JUMPDEST POP POP DUP2 DUP5 DUP3 PUSH1 0x3 SLOAD AND DUP8 MLOAD SWAP5 DUP6 DUP1 SWAP3 PUSH4 0x4C6AFEE5 PUSH1 0xE1 SHL DUP3 MSTORE GAS STATICCALL DUP1 ISZERO PUSH2 0x2CB JUMPI DUP6 SWAP4 DUP9 SWAP2 PUSH2 0x290 JUMPI JUMPDEST POP PUSH5 0xE8D4A51000 PUSH8 0xDE0B6B3A7640000 PUSH2 0x1E9 PUSH2 0x201 SWAP4 PUSH2 0x235 SWAP9 PUSH2 0x764 JUMP JUMPDEST DIV DIV PUSH2 0x2710 PUSH2 0x1FA PUSH1 0x5 SLOAD DUP4 PUSH2 0x764 JUMP JUMPDEST DIV SWAP1 PUSH2 0x78D JUMP JUMPDEST PUSH1 0x1 SLOAD DUP8 MLOAD PUSH4 0xA9059CBB PUSH1 0xE0 SHL DUP2 MSTORE CALLER SWAP4 DUP2 ADD SWAP4 DUP5 MSTORE PUSH1 0x20 DUP5 ADD SWAP3 SWAP1 SWAP3 MSTORE SWAP1 SWAP5 DUP6 SWAP4 SWAP1 SWAP2 AND SWAP2 DUP4 SWAP2 DUP10 SWAP2 DUP4 SWAP2 PUSH1 0x40 SWAP1 SWAP2 ADD SWAP1 JUMP JUMPDEST SUB SWAP3 GAS CALL SWAP2 DUP3 ISZERO PUSH2 0x283 JUMPI PUSH2 0x253 SWAP4 POP DUP5 SWAP3 PUSH2 0x256 JUMPI JUMPDEST POP POP PUSH2 0x721 JUMP JUMPDEST DUP1 RETURN JUMPDEST PUSH2 0x275 SWAP3 POP DUP1 RETURNDATASIZE LT PUSH2 0x27C JUMPI JUMPDEST PUSH2 0x26D DUP2 DUP4 PUSH2 0x6E7 JUMP JUMPDEST DUP2 ADD SWAP1 PUSH2 0x709 JUMP JUMPDEST CODESIZE DUP1 PUSH2 0x24C JUMP JUMPDEST POP RETURNDATASIZE PUSH2 0x263 JUMP JUMPDEST POP POP POP MLOAD SWAP1 RETURNDATASIZE SWAP1 DUP3 RETURNDATACOPY RETURNDATASIZE SWAP1 REVERT JUMPDEST DUP5 DUP2 SWAP6 SWAP3 POP RETURNDATASIZE DUP4 GT PUSH2 0x2C4 JUMPI JUMPDEST PUSH2 0x2A7 DUP2 DUP4 PUSH2 0x6E7 JUMP JUMPDEST DUP2 ADD SUB SLT PUSH2 0x2BF JUMPI SWAP2 MLOAD DUP5 SWAP3 SWAP1 PUSH5 0xE8D4A51000 PUSH2 0x1C9 JUMP JUMPDEST PUSH1 0x0 DUP1 REVERT JUMPDEST POP RETURNDATASIZE PUSH2 0x29D JUMP JUMPDEST DUP7 MLOAD RETURNDATASIZE DUP10 DUP3 RETURNDATACOPY RETURNDATASIZE SWAP1 REVERT JUMPDEST PUSH2 0x2DE SWAP1 PUSH2 0x6BD JUMP JUMPDEST PUSH2 0x2E9 JUMPI DUP6 CODESIZE PUSH2 0x19F JUMP JUMPDEST DUP6 DUP1 REVERT JUMPDEST DUP8 MLOAD RETURNDATASIZE DUP5 DUP3 RETURNDATACOPY RETURNDATASIZE SWAP1 REVERT JUMPDEST POP DUP1 REVERT JUMPDEST DUP4 DUP1 REVERT JUMPDEST POP CALLVALUE PUSH2 0x128 JUMPI PUSH1 0x20 DUP1 PUSH1 0x3 NOT CALLDATASIZE ADD SLT PUSH2 0x2FB JUMPI DUP3 CALLDATALOAD PUSH2 0x31F DUP2 ISZERO ISZERO PUSH2 0x684 JUMP JUMPDEST PUSH1 0x1 SLOAD DUP4 MLOAD PUSH4 0x23B872DD PUSH1 0xE0 SHL DUP2 MSTORE CALLER DUP7 DUP3 ADD MSTORE ADDRESS PUSH1 0x24 DUP3 ADD MSTORE PUSH1 0x44 DUP2 ADD DUP4 SWAP1 MSTORE PUSH1 0x1 PUSH1 0x1 PUSH1 0xA0 SHL SUB SWAP3 SWAP2 DUP5 SWAP1 DUP3 SWAP1 PUSH1 0x64 SWAP1 DUP3 SWAP1 DUP12 SWAP1 DUP9 AND GAS CALL SWAP1 DUP2 ISZERO PUSH2 0x4F6 JUMPI DUP7 SWAP3 SWAP2 PUSH2 0x374 SWAP2 DUP10 SWAP2 PUSH2 0x500 JUMPI JUMPDEST POP PUSH2 0x721 JUMP JUMPDEST DUP4 DUP4 PUSH1 0x3 SLOAD AND DUP7 MLOAD SWAP4 DUP5 DUP1 SWAP3 PUSH4 0x4C6AFEE5 PUSH1 0xE1 SHL DUP3 MSTORE GAS STATICCALL SWAP2 DUP3 ISZERO PUSH2 0x4F6 JUMPI DUP8 SWAP3 PUSH2 0x4C1 JUMPI JUMPDEST POP PUSH2 0x3AD SWAP1 PUSH2 0x2710 PUSH2 0x1FA DUP9 SLOAD DUP4 PUSH2 0x764 JUMP JUMPDEST PUSH5 0xE8D4A51000 SWAP1 DUP2 DUP2 MUL SWAP2 DUP2 DUP4 DIV EQ DUP2 ISZERO OR ISZERO PUSH2 0x4AE JUMPI PUSH13 0xC9F2C9CD04674EDEA40000000 MUL SWAP1 DUP1 DUP3 DIV PUSH8 0xDE0B6B3A7640000 EQ SWAP1 ISZERO OR ISZERO PUSH2 0x49B JUMPI DUP2 ISZERO PUSH2 0x488 JUMPI DIV SWAP2 DUP3 ISZERO PUSH2 0x455 JUMPI POP SWAP1 DUP5 SWAP2 PUSH1 0x2 SLOAD AND DUP1 EXTCODESIZE ISZERO PUSH2 0x128 JUMPI DUP4 MLOAD PUSH4 0x40C10F19 PUSH1 0xE0 SHL DUP2 MSTORE CALLER SWAP6 DUP2 ADD SWAP6 DUP7 MSTORE PUSH1 0x20 DUP7 ADD SWAP3 SWAP1 SWAP3 MSTORE SWAP1 SWAP4 DUP5 SWAP2 SWAP1 DUP3 SWAP1 DUP5 SWAP1 DUP3 SWAP1 PUSH1 0x40 ADD SUB SWAP3 GAS CALL SWAP1 DUP2 ISZERO PUSH2 0x44C JUMPI POP PUSH2 0x443 JUMPI POP DUP1 RETURN JUMPDEST PUSH2 0x253 SWAP1 PUSH2 0x6BD JUMP JUMPDEST MLOAD RETURNDATASIZE DUP5 DUP3 RETURNDATACOPY RETURNDATASIZE SWAP1 REVERT JUMPDEST DUP5 PUSH1 0x64 SWAP2 DUP6 MLOAD SWAP2 PUSH3 0x461BCD PUSH1 0xE5 SHL DUP4 MSTORE DUP3 ADD MSTORE PUSH1 0xE PUSH1 0x24 DUP3 ADD MSTORE PUSH14 0x1B5A5B9D081D1BDBC81CDB585B1B PUSH1 0x92 SHL PUSH1 0x44 DUP3 ADD MSTORE REVERT JUMPDEST PUSH4 0x4E487B71 PUSH1 0xE0 SHL DUP8 MSTORE PUSH1 0x12 DUP7 MSTORE PUSH1 0x24 DUP8 REVERT JUMPDEST PUSH4 0x4E487B71 PUSH1 0xE0 SHL DUP8 MSTORE PUSH1 0x11 DUP7 MSTORE PUSH1 0x24 DUP8 REVERT JUMPDEST PUSH4 0x4E487B71 PUSH1 0xE0 SHL DUP9 MSTORE PUSH1 0x11 DUP8 MSTORE PUSH1 0x24 DUP9 REVERT JUMPDEST SWAP1 SWAP2 POP DUP4 DUP2 DUP2 RETURNDATASIZE DUP4 GT PUSH2 0x4EF JUMPI JUMPDEST PUSH2 0x4D9 DUP2 DUP4 PUSH2 0x6E7 JUMP JUMPDEST DUP2 ADD SUB SLT PUSH2 0x4EB JUMPI MLOAD SWAP1 PUSH2 0x3AD PUSH2 0x39A JUMP JUMPDEST DUP7 DUP1 REVERT JUMPDEST POP RETURNDATASIZE PUSH2 0x4CF JUMP JUMPDEST DUP6 MLOAD RETURNDATASIZE DUP10 DUP3 RETURNDATACOPY RETURNDATASIZE SWAP1 REVERT JUMPDEST PUSH2 0x517 SWAP2 POP DUP7 RETURNDATASIZE DUP9 GT PUSH2 0x27C JUMPI PUSH2 0x26D DUP2 DUP4 PUSH2 0x6E7 JUMP JUMPDEST CODESIZE PUSH2 0x36E JUMP JUMPDEST DUP4 DUP3 CALLVALUE PUSH2 0x2F7 JUMPI DUP2 PUSH1 0x3 NOT CALLDATASIZE ADD SLT PUSH2 0x2F7 JUMPI PUSH1 0x2 SLOAD SWAP1 MLOAD PUSH1 0x1 PUSH1 0x1 PUSH1 0xA0 SHL SUB SWAP1 SWAP2 AND DUP2 MSTORE PUSH1 0x20 SWAP1 RETURN JUMPDEST DUP4 DUP3 CALLVALUE PUSH2 0x2F7 JUMPI DUP2 PUSH1 0x3 NOT CALLDATASIZE ADD SLT PUSH2 0x2F7 JUMPI PUSH1 0x20 SWAP1 PUSH1 0x5 SLOAD SWAP1 MLOAD SWAP1 DUP2 MSTORE RETURN JUMPDEST DUP4 DUP3 CALLVALUE PUSH2 0x2F7 JUMPI DUP2 PUSH1 0x3 NOT CALLDATASIZE ADD SLT PUSH2 0x2F7 JUMPI SWAP1 SLOAD SWAP1 MLOAD PUSH1 0x1 PUSH1 0x1 PUSH1 0xA0 SHL SUB SWAP1 SWAP2 AND DUP2 MSTORE PUSH1 0x20 SWAP1 RETURN JUMPDEST DUP4 DUP3 CALLVALUE PUSH2 0x2F7 JUMPI DUP2 PUSH1 0x3 NOT CALLDATASIZE ADD SLT PUSH2 0x2F7 JUMPI PUSH1 0x3 SLOAD SWAP1 MLOAD PUSH1 0x1 PUSH1 0x1 PUSH1 0xA0 SHL SUB SWAP1 SWAP2 AND DUP2 MSTORE PUSH1 0x20 SWAP1 RETURN JUMPDEST DUP4 CALLVALUE PUSH2 0x610 JUMPI DUP1 PUSH1 0x3 NOT CALLDATASIZE ADD SLT PUSH2 0x610 JUMPI PUSH2 0x5CF PUSH2 0x658 JUMP JUMPDEST DUP1 SLOAD PUSH1 0x1 PUSH1 0x1 PUSH1 0xA0 SHL SUB NOT DUP2 AND DUP3 SSTORE DUP2 SWAP1 PUSH1 0x1 PUSH1 0x1 PUSH1 0xA0 SHL SUB AND PUSH32 0x8BE0079C531659141344CD1FD0A4F28419497F9722A3DAAFE3B4186F6B6457E0 DUP3 DUP1 LOG3 DUP1 RETURN JUMPDEST DUP1 REVERT JUMPDEST DUP4 DUP3 CALLVALUE PUSH2 0x2F7 JUMPI DUP2 PUSH1 0x3 NOT CALLDATASIZE ADD SLT PUSH2 0x2F7 JUMPI PUSH1 0x1 SLOAD SWAP1 MLOAD PUSH1 0x1 PUSH1 0x1 PUSH1 0xA0 SHL SUB SWAP1 SWAP2 AND DUP2 MSTORE PUSH1 0x20 SWAP1 RETURN JUMPDEST DUP5 SWAP1 DUP5 CALLVALUE PUSH2 0x128 JUMPI DUP3 PUSH1 0x3 NOT CALLDATASIZE ADD SLT PUSH2 0x128 JUMPI PUSH1 0x20 SWAP3 POP SLOAD DUP2 MSTORE RETURN JUMPDEST PUSH1 0x0 SLOAD PUSH1 0x1 PUSH1 0x1 PUSH1 0xA0 SHL SUB AND CALLER SUB PUSH2 0x66C JUMPI JUMP JUMPDEST PUSH1 0x40 MLOAD PUSH4 0x118CDAA7 PUSH1 0xE0 SHL DUP2 MSTORE CALLER PUSH1 0x4 DUP3 ADD MSTORE PUSH1 0x24 SWAP1 REVERT JUMPDEST ISZERO PUSH2 0x68B JUMPI JUMP JUMPDEST PUSH1 0x40 MLOAD PUSH3 0x461BCD PUSH1 0xE5 SHL DUP2 MSTORE PUSH1 0x20 PUSH1 0x4 DUP3 ADD MSTORE PUSH1 0xA PUSH1 0x24 DUP3 ADD MSTORE PUSH10 0x616D6F756E74203D203 PUSH1 0xB4 SHL PUSH1 0x44 DUP3 ADD MSTORE PUSH1 0x64 SWAP1 REVERT JUMPDEST PUSH8 0xFFFFFFFFFFFFFFFF DUP2 GT PUSH2 0x6D1 JUMPI PUSH1 0x40 MSTORE JUMP JUMPDEST PUSH4 0x4E487B71 PUSH1 0xE0 SHL PUSH1 0x0 MSTORE PUSH1 0x41 PUSH1 0x4 MSTORE PUSH1 0x24 PUSH1 0x0 REVERT JUMPDEST SWAP1 PUSH1 0x1F DUP1 NOT SWAP2 ADD AND DUP2 ADD SWAP1 DUP2 LT PUSH8 0xFFFFFFFFFFFFFFFF DUP3 GT OR PUSH2 0x6D1 JUMPI PUSH1 0x40 MSTORE JUMP JUMPDEST SWAP1 DUP2 PUSH1 0x20 SWAP2 SUB SLT PUSH2 0x2BF JUMPI MLOAD DUP1 ISZERO ISZERO DUP2 SUB PUSH2 0x2BF JUMPI SWAP1 JUMP JUMPDEST ISZERO PUSH2 0x728 JUMPI JUMP JUMPDEST PUSH1 0x40 MLOAD PUSH3 0x461BCD PUSH1 0xE5 SHL DUP2 MSTORE PUSH1 0x20 PUSH1 0x4 DUP3 ADD MSTORE PUSH1 0x14 PUSH1 0x24 DUP3 ADD MSTORE PUSH20 0x1554D110C81D1C985B9CD9995C8819985A5B1959 PUSH1 0x62 SHL PUSH1 0x44 DUP3 ADD MSTORE PUSH1 0x64 SWAP1 REVERT JUMPDEST DUP2 DUP2 MUL SWAP3 SWAP2 DUP2 ISZERO SWAP2 DUP5 DIV EQ OR ISZERO PUSH2 0x777 JUMPI JUMP JUMPDEST PUSH4 0x4E487B71 PUSH1 0xE0 SHL PUSH1 0x0 MSTORE PUSH1 0x11 PUSH1 0x4 MSTORE PUSH1 0x24 PUSH1 0x0 REVERT JUMPDEST SWAP2 SWAP1 DUP3 SUB SWAP2 DUP3 GT PUSH2 0x777 JUMPI JUMP INVALID LOG2 PUSH5 0x6970667358 0x22 SLT KECCAK256 OR 0xDE PUSH17 0x795697336094EAA7CAE1B02410A89FE9F2 GASLIMIT CALLCODE SLT 0xEE SDIV 0xC4 SHL 0xD8 EXTCODESIZE 0x5D 0x23 0xB3 PUSH5 0x736F6C6343 STOP ADDMOD ISZERO STOP CALLER "},"methodIdentifiers":{"bvix()":"9f80fb4e","mint(uint256)":"a0712d68","mintFee()":"13966db5","oracle()":"7dc0d1d0","owner()":"8da5cb5b","redeem(uint256)":"db006a75","redeemFee()":"965fa21e","renounceOwnership()":"715018a6","transferOwnership(address)":"f2fde38b","usdc()":"3e413bee"}}}}}