{"contracts/MintRedeemV7.sol":{"MintRedeemV7":{"abi":[{"inputs":[{"internalType":"address","name":"_usdc","type":"address"},{"internalType":"address","name":"_bvix","type":"address"},{"internalType":"address","name":"_oracle","type":"address"},{"internalType":"address","name":"_governor","type":"address"}],"stateMutability":"nonpayable","type":"constructor"},{"inputs":[],"name":"AccessControlBadConfirmation","type":"error"},{"inputs":[{"internalType":"address","name":"account","type":"address"},{"internalType":"bytes32","name":"neededRole","type":"bytes32"}],"name":"AccessControlUnauthorizedAccount","type":"error"},{"inputs":[],"name":"EnforcedPause","type":"error"},{"inputs":[],"name":"ExpectedPause","type":"error"},{"inputs":[],"name":"InsufficientCollateral","type":"error"},{"inputs":[],"name":"InvalidAmount","type":"error"},{"inputs":[],"name":"InvalidCollateralRatio","type":"error"},{"inputs":[],"name":"LiquidationNotAllowed","type":"error"},{"inputs":[],"name":"PositionNotFound","type":"error"},{"inputs":[],"name":"ReentrancyGuardReentrantCall","type":"error"},{"inputs":[],"name":"TransferFailed","type":"error"},{"anonymous":false,"inputs":[{"indexed":false,"internalType":"uint256","name":"oldMinCR","type":"uint256"},{"indexed":false,"internalType":"uint256","name":"newMinCR","type":"uint256"}],"name":"CollateralRatioUpdated","type":"event"},{"anonymous":false,"inputs":[{"indexed":false,"internalType":"uint256","name":"oldMintFee","type":"uint256"},{"indexed":false,"internalType":"uint256","name":"newMintFee","type":"uint256"},{"indexed":false,"internalType":"uint256","name":"oldRedeemFee","type":"uint256"},{"indexed":false,"internalType":"uint256","name":"newRedeemFee","type":"uint256"}],"name":"FeesUpdated","type":"event"},{"anonymous":false,"inputs":[{"indexed":true,"internalType":"address","name":"user","type":"address"},{"indexed":true,"internalType":"address","name":"liquidator","type":"address"},{"indexed":false,"internalType":"uint256","name":"debtRepaid","type":"uint256"},{"indexed":false,"internalType":"uint256","name":"collateralSeized","type":"uint256"}],"name":"Liquidation","type":"event"},{"anonymous":false,"inputs":[{"indexed":false,"internalType":"uint256","name":"oldThreshold","type":"uint256"},{"indexed":false,"internalType":"uint256","name":"newThreshold","type":"uint256"},{"indexed":false,"internalType":"uint256","name":"oldBonus","type":"uint256"},{"indexed":false,"internalType":"uint256","name":"newBonus","type":"uint256"}],"name":"LiquidationParamsUpdated","type":"event"},{"anonymous":false,"inputs":[{"indexed":true,"internalType":"address","name":"user","type":"address"},{"indexed":false,"internalType":"uint256","name":"usdcAmount","type":"uint256"},{"indexed":false,"internalType":"uint256","name":"bvixMinted","type":"uint256"},{"indexed":false,"internalType":"uint256","name":"targetCR","type":"uint256"}],"name":"Mint","type":"event"},{"anonymous":false,"inputs":[{"indexed":false,"internalType":"address","name":"account","type":"address"}],"name":"Paused","type":"event"},{"anonymous":false,"inputs":[{"indexed":true,"internalType":"address","name":"user","type":"address"},{"indexed":false,"internalType":"uint256","name":"bvixAmount","type":"uint256"},{"indexed":false,"internalType":"uint256","name":"usdcRedeemed","type":"uint256"}],"name":"Redeem","type":"event"},{"anonymous":false,"inputs":[{"indexed":true,"internalType":"bytes32","name":"role","type":"bytes32"},{"indexed":true,"internalType":"bytes32","name":"previousAdminRole","type":"bytes32"},{"indexed":true,"internalType":"bytes32","name":"newAdminRole","type":"bytes32"}],"name":"RoleAdminChanged","type":"event"},{"anonymous":false,"inputs":[{"indexed":true,"internalType":"bytes32","name":"role","type":"bytes32"},{"indexed":true,"internalType":"address","name":"account","type":"address"},{"indexed":true,"internalType":"address","name":"sender","type":"address"}],"name":"RoleGranted","type":"event"},{"anonymous":false,"inputs":[{"indexed":true,"internalType":"bytes32","name":"role","type":"bytes32"},{"indexed":true,"internalType":"address","name":"account","type":"address"},{"indexed":true,"internalType":"address","name":"sender","type":"address"}],"name":"RoleRevoked","type":"event"},{"anonymous":false,"inputs":[{"indexed":false,"internalType":"address","name":"account","type":"address"}],"name":"Unpaused","type":"event"},{"inputs":[],"name":"DEFAULT_ADMIN_ROLE","outputs":[{"internalType":"bytes32","name":"","type":"bytes32"}],"stateMutability":"view","type":"function"},{"inputs":[],"name":"GOVERNOR_ROLE","outputs":[{"internalType":"bytes32","name":"","type":"bytes32"}],"stateMutability":"view","type":"function"},{"inputs":[],"name":"LIQUIDATOR_ROLE","outputs":[{"internalType":"bytes32","name":"","type":"bytes32"}],"stateMutability":"view","type":"function"},{"inputs":[],"name":"PAUSER_ROLE","outputs":[{"internalType":"bytes32","name":"","type":"bytes32"}],"stateMutability":"view","type":"function"},{"inputs":[],"name":"bvix","outputs":[{"internalType":"contract BVIXToken","name":"","type":"address"}],"stateMutability":"view","type":"function"},{"inputs":[],"name":"getCollateralRatio","outputs":[{"internalType":"uint256","name":"","type":"uint256"}],"stateMutability":"view","type":"function"},{"inputs":[{"internalType":"address","name":"user","type":"address"}],"name":"getLiquidationPrice","outputs":[{"internalType":"uint256","name":"","type":"uint256"}],"stateMutability":"view","type":"function"},{"inputs":[{"internalType":"bytes32","name":"role","type":"bytes32"}],"name":"getRoleAdmin","outputs":[{"internalType":"bytes32","name":"","type":"bytes32"}],"stateMutability":"view","type":"function"},{"inputs":[{"internalType":"address","name":"user","type":"address"}],"name":"getUserCollateralRatio","outputs":[{"internalType":"uint256","name":"","type":"uint256"}],"stateMutability":"view","type":"function"},{"inputs":[{"internalType":"bytes32","name":"role","type":"bytes32"},{"internalType":"address","name":"account","type":"address"}],"name":"grantRole","outputs":[],"stateMutability":"nonpayable","type":"function"},{"inputs":[{"internalType":"bytes32","name":"role","type":"bytes32"},{"internalType":"address","name":"account","type":"address"}],"name":"hasRole","outputs":[{"internalType":"bool","name":"","type":"bool"}],"stateMutability":"view","type":"function"},{"inputs":[{"internalType":"address","name":"user","type":"address"}],"name":"liquidate","outputs":[],"stateMutability":"nonpayable","type":"function"},{"inputs":[],"name":"liquidationBonus","outputs":[{"internalType":"uint256","name":"","type":"uint256"}],"stateMutability":"view","type":"function"},{"inputs":[],"name":"liquidationThreshold","outputs":[{"internalType":"uint256","name":"","type":"uint256"}],"stateMutability":"view","type":"function"},{"inputs":[],"name":"minCollateralRatio","outputs":[{"internalType":"uint256","name":"","type":"uint256"}],"stateMutability":"view","type":"function"},{"inputs":[],"name":"mintFee","outputs":[{"internalType":"uint256","name":"","type":"uint256"}],"stateMutability":"view","type":"function"},{"inputs":[{"internalType":"uint256","name":"amount","type":"uint256"},{"internalType":"uint256","name":"targetCR","type":"uint256"}],"name":"mintWithCollateralRatio","outputs":[{"internalType":"uint256","name":"","type":"uint256"}],"stateMutability":"nonpayable","type":"function"},{"inputs":[],"name":"oracle","outputs":[{"internalType":"contract PriceOracle","name":"","type":"address"}],"stateMutability":"view","type":"function"},{"inputs":[],"name":"pause","outputs":[],"stateMutability":"nonpayable","type":"function"},{"inputs":[],"name":"paused","outputs":[{"internalType":"bool","name":"","type":"bool"}],"stateMutability":"view","type":"function"},{"inputs":[{"internalType":"address","name":"","type":"address"}],"name":"positions","outputs":[{"internalType":"uint256","name":"collateral","type":"uint256"},{"internalType":"uint256","name":"debt","type":"uint256"}],"stateMutability":"view","type":"function"},{"inputs":[{"internalType":"uint256","name":"amount","type":"uint256"}],"name":"redeem","outputs":[{"internalType":"uint256","name":"","type":"uint256"}],"stateMutability":"nonpayable","type":"function"},{"inputs":[],"name":"redeemFee","outputs":[{"internalType":"uint256","name":"","type":"uint256"}],"stateMutability":"view","type":"function"},{"inputs":[{"internalType":"bytes32","name":"role","type":"bytes32"},{"internalType":"address","name":"callerConfirmation","type":"address"}],"name":"renounceRole","outputs":[],"stateMutability":"nonpayable","type":"function"},{"inputs":[{"internalType":"bytes32","name":"role","type":"bytes32"},{"internalType":"address","name":"account","type":"address"}],"name":"revokeRole","outputs":[],"stateMutability":"nonpayable","type":"function"},{"inputs":[{"internalType":"uint256","name":"_mintFee","type":"uint256"},{"internalType":"uint256","name":"_redeemFee","type":"uint256"}],"name":"setFees","outputs":[],"stateMutability":"nonpayable","type":"function"},{"inputs":[{"internalType":"uint256","name":"_threshold","type":"uint256"},{"internalType":"uint256","name":"_bonus","type":"uint256"}],"name":"setLiquidationParams","outputs":[],"stateMutability":"nonpayable","type":"function"},{"inputs":[{"internalType":"uint256","name":"_minCR","type":"uint256"}],"name":"setMinCollateralRatio","outputs":[],"stateMutability":"nonpayable","type":"function"},{"inputs":[{"internalType":"bytes4","name":"interfaceId","type":"bytes4"}],"name":"supportsInterface","outputs":[{"internalType":"bool","name":"","type":"bool"}],"stateMutability":"view","type":"function"},{"inputs":[{"internalType":"address","name":"token","type":"address"},{"internalType":"address","name":"to","type":"address"},{"internalType":"uint256","name":"amount","type":"uint256"}],"name":"sweepTokens","outputs":[],"stateMutability":"nonpayable","type":"function"},{"inputs":[],"name":"totalCollateral","outputs":[{"internalType":"uint256","name":"","type":"uint256"}],"stateMutability":"view","type":"function"},{"inputs":[],"name":"totalDebt","outputs":[{"internalType":"uint256","name":"","type":"uint256"}],"stateMutability":"view","type":"function"},{"inputs":[],"name":"unpause","outputs":[],"stateMutability":"nonpayable","type":"function"},{"inputs":[],"name":"usdc","outputs":[{"internalType":"contract IERC20","name":"","type":"address"}],"stateMutability":"view","type":"function"}],"evm":{"bytecode":{"linkReferences":{},"object":"60e0346200016257601f62001d8038819003918201601f19168301916001600160401b03831184841017620001675780849260809460405283398101031262000162578062000052620000dd926200017d565b9062000061602082016200017d565b906200007e606062000076604084016200017d565b92016200017d565b9260018055601e600355601e60045560786005556078600655600560075560018060a01b0392838092166080521660a0521660c052620000be8162000192565b50620000ca8162000201565b50620000d681620002a3565b5062000340565b50620000e933620003dd565b506040516118e89081620004588239608051818181610399015281816109e601528181610cd70152610f9f015260a0518181816103060152818161061901528181610a1f0152610f08015260c051818181610258015281816107df0152818161088201528181610e42015281816115a201526116b30152f35b600080fd5b634e487b7160e01b600052604160045260246000fd5b51906001600160a01b03821682036200016257565b6001600160a01b0316600081815260008051602062001d60833981519152602052604081205490919060ff16620001fd57818052816020526040822081835260205260408220600160ff19825416179055339160008051602062001d408339815191528180a4600190565b5090565b6001600160a01b031660008181527f6f3b488caa0dc03e5f3d9fd6a25fa8755afcfd62ccffb6e436c696bfa6b866de60205260408120549091907f7935bd0ae54bc31f548c14dba4d37c5c64b3f8ca900cb468fb8abd54d5894f559060ff166200029e57808352826020526040832082845260205260408320600160ff1982541617905560008051602062001d40833981519152339380a4600190565b505090565b6001600160a01b031660008181527ff7c9542c591017a21c74b6f3fab6263c7952fc0aaf9db4c22a2a04ddc7f8674f60205260408120549091907f65d7a28e3265b37a6474929f336521b332c1681b933f6cb9f3376673440d862a9060ff166200029e57808352826020526040832082845260205260408320600160ff1982541617905560008051602062001d40833981519152339380a4600190565b6001600160a01b031660008181527fbcea842b576603bd7a3cd6bbb61cb6c1908ae113af80c7a38f32f896fbaa454460205260408120549091907f5e17fc5225d4a099df75359ce1f405503ca79498a8dc46a7d583235a0ee45c169060ff166200029e57808352826020526040832082845260205260408320600160ff1982541617905560008051602062001d40833981519152339380a4600190565b6001600160a01b0316600081815260008051602062001d60833981519152602052604081205490919060ff1615620001fd5781805281602052604082208183526020526040822060ff19815416905533917ff6391f5c32d9c69d2a47ea670b442974b53935d1edc7fd64eb21e047a839171b8180a460019056fe608060408181526004918236101561001657600080fd5b600092833560e01c91826301ffc9a714611255575081630b78f9c0146111e857816310b45de1146111c257816313966db5146111a357816316d8887a1461116857816317d8de8214611142578163248a9ca3146111185781632f2ff15d146110ee5781632f86556814610da157816336568abe14610d5b5781633853627514610d065781633e413bee14610cc25781633f4ba83a14610c585781634031234c14610c395781634ac8eb5f14610c1a57816355f5751014610bd85781635c975abb14610bb45781636008d28b1461082d5781637b7c1f4c1461080e5781637dc0d1d0146107ca5781638456cb591461076f57816384da2666146107505781638b6ca32c146106ab57816391d1485414610666578163965fa21e146106485781639f80fb4e14610604578163a217fddf146105e9578163c6e7275d14610572578163ccc5749014610537578163cd377c5314610513578163d547741f146104cc578163db006a75146101f657508063e63ab1e9146101bc5763fc7b9c181461019b57600080fd5b346101b857816003193601126101b857602090600a549051908152f35b5080fd5b50346101b857816003193601126101b857602090517f65d7a28e3265b37a6474929f336521b332c1681b933f6cb9f3376673440d862a8152f35b8383346101b8576020928360031936011261046c57803590610216611465565b61021e611447565b81156104be5733845260088552828420936001850180548481106104ae578551634c6afee560e11b81526001600160a01b039290898187817f000000000000000000000000000000000000000000000000000000000000000088165afa80156104a4578590610470575b6102939150876113cc565b5087549186816102a385836113cc565b906102ad916113f5565b998a9488546102bc90876113cc565b61271090046102cb9087611415565b9b6102d591611415565b90556102e091611415565b9055600954906102ef91611415565b60095583600a549061030091611415565b600a55807f000000000000000000000000000000000000000000000000000000000000000016803b1561046c578551632770a7eb60e21b815233858201908152602081018790529091849183919082908490829060400103925af180156104625790839161044e575b5050845163a9059cbb60e01b815233848201908152602081018890529091889183919082908690829060400103927f0000000000000000000000000000000000000000000000000000000000000000165af19182156104435791610416575b50156104085750815190815282848201527fe5b754fb1abb7f01b499791d0b820ae3b6af3424ac1c59768edb53f4ec31a929823392a26001805551908152f35b82516312171d8360e31b8152fd5b6104369150863d881161043c575b61042e81836113aa565b81019061142f565b866103c8565b503d610424565b8551903d90823e3d90fd5b61045790611364565b6101b8578188610369565b86513d85823e3d90fd5b8280fd5b508981813d831161049d575b61048681836113aa565b81010312610498576102939051610288565b600080fd5b503d61047c565b88513d87823e3d90fd5b8551633a23d82560e01b81528490fd5b825163162908e360e11b8152fd5b9190503461046c578060031936011261046c5761050f913561050a60016104f16112d4565b936104fa611488565b838752866020528620015461155e565b6112ea565b5080f35b5050346101b857816003193601126101b857602090610530611584565b9051908152f35b5050346101b857816003193601126101b857602090517f7935bd0ae54bc31f548c14dba4d37c5c64b3f8ca900cb468fb8abd54d5894f558152f35b5050346101b8576105e37f61c468e821b1662263e339e465b2b8aa3c36b504f804ffac4a19ad8eae3df813916105a7366112a8565b6105b2939193611488565b6006549260075490856006558260075551948594859094939260609260808301968352602083015260408201520152565b0390a180f35b5050346101b857816003193601126101b85751908152602090f35b5050346101b857816003193601126101b857517f00000000000000000000000000000000000000000000000000000000000000006001600160a01b03168152602090f35b90503461046c578260031936011261046c5760209250549051908152f35b90503461046c578160031936011261046c57816020936106846112d4565b92358152808552209060018060a01b0316600052825260ff81600020541690519015158152f35b9190503461046c57606036600319011261046c576020610713926106cd6112be565b6106d56112d4565b6106dd611488565b845163a9059cbb60e01b81526001600160a01b039091169281019283526044356020840152948592839188918391604090910190565b03926001600160a01b03165af19081156107475750610730575080f35b61050f9060203d811161043c5761042e81836113aa565b513d84823e3d90fd5b5050346101b857816003193601126101b8576020906005549051908152f35b5050346101b857816003193601126101b85760207f62e78cea01bee320cd4e420270b5ea74000d11b0c9f74754ebdbfc544b05a258916107ad611502565b6107b5611447565b600160ff19600254161760025551338152a180f35b5050346101b857816003193601126101b857517f00000000000000000000000000000000000000000000000000000000000000006001600160a01b03168152602090f35b5050346101b857816003193601126101b8576020906007549051908152f35b9190503461046c5761083e366112a8565b610846611465565b61084e611447565b8115610ba557607881108015610b9a575b610b8b578251634c6afee560e11b815260209590946001600160a01b03878783817f000000000000000000000000000000000000000000000000000000000000000085165afa968715610462578397610b5c575b506108cd6127106108c6600354886113cc565b0486611415565b6064810281810460641482151715610b4957856108e9916113f5565b6c0c9f2c9cd04674edea4000000090818102918183041490151715610b495788610912916113f5565b978815610b395764e8d4a51000670de0b6b3a764000061094961093785600954611422565b936109448d600a54611422565b6113cc565b040490606481029080820460641490151715610b265790610969916113f5565b60055411610b16576109ae9033855260088a5287852061098a828254611422565b905533855260088a526001888620016109a48a8254611422565b9055600954611422565b6009556109bd87600a54611422565b600a5585516323b872dd60e01b81523383820152306024820152604481018690528881606481877f000000000000000000000000000000000000000000000000000000000000000087165af1908115610b0c578491610aef575b5015610ae0577f00000000000000000000000000000000000000000000000000000000000000001690813b1561046c5785516340c10f1960e01b8152339181019182526020820188905291839183919082908490829060400103925af18015610ad657610abf575b505082519182528385830152828201527fb4c03061fb5b7fed76389d5af8f2e0ddb09f8c70d1333abbb62582835e10accb60603392a26001805551908152f35b610ac98291611364565b610ad35780610a7f565b80fd5b85513d84823e3d90fd5b5084516312171d8360e31b8152fd5b610b069150893d8b1161043c5761042e81836113aa565b38610a17565b87513d86823e3d90fd5b865163a7967db160e01b81528390fd5b634e487b7160e01b865260118552602486fd5b875163162908e360e11b81528490fd5b634e487b7160e01b855260118452602485fd5b9096508781813d8311610b84575b610b7481836113aa565b81010312610498575195386108b3565b503d610b6a565b50505163a7967db160e01b8152fd5b5061012c811161085f565b50505163162908e360e11b8152fd5b5050346101b857816003193601126101b85760209060ff6002541690519015158152f35b5050346101b85760203660031901126101b8579081906001600160a01b03610bfe6112be565b1681526008602052206001815491015482519182526020820152f35b5050346101b857816003193601126101b8576020906009549051908152f35b5050346101b857816003193601126101b8576020906006549051908152f35b90503461046c578260031936011261046c57610c72611502565b6002549060ff821615610cb4575060ff1916600255513381527f5db9ee0a495bf2e6ff9c91a7834c1ba4fdd244a5e8aa4e537bd38aeae4b073aa90602090a180f35b8251638dfc202b60e01b8152fd5b5050346101b857816003193601126101b857517f00000000000000000000000000000000000000000000000000000000000000006001600160a01b03168152602090f35b9190503461046c57602036600319011261046c577fea851fc89ebccda62380b76fc8e8317f0bcd4d75ea908cf501bd2ebc6ac1c8f29135610d45611488565b600554908060055582519182526020820152a180f35b8383346101b857806003193601126101b857610d756112d4565b90336001600160a01b03831603610d92575061050f9192356112ea565b5163334bd91960e11b81528390fd5b90503461046c57602091826003193601126110ea57610dbe6112be565b92610dc7611465565b610dcf611447565b7f5e17fc5225d4a099df75359ce1f405503ca79498a8dc46a7d583235a0ee45c16808652858252828620338752825260ff8387205416156110cc575060018060a01b0390818516938487526008825283872092600184019687549788156110bc578651634c6afee560e11b8152858186817f000000000000000000000000000000000000000000000000000000000000000088165afa9081156110b2578b9161107f575b50610e8c6c0c9f2c9cd04674edea40000000918b6113cc565b04865490606482028281046064148315171561106c5790610eac916113f5565b600654111561105d57908a610ecd8b610ec8610ef295826113cc565b6113f5565b9181610ee76064610ee0600754876113cc565b0485611422565b995555600954611415565b600955610f0188600a54611415565b600a5588827f00000000000000000000000000000000000000000000000000000000000000001691823b156101b8578751632770a7eb60e21b81526001600160a01b03909116858201908152602081018b90529092839182908490829060400103925af1801561105357611040575b50845163a9059cbb60e01b815233838201908152602081018690529091849183919082908c90829060400103927f0000000000000000000000000000000000000000000000000000000000000000165af1908115611036578891611019575b501561100b5750825194855284015233927f4ecae3269f800df64b16cb9f6f8b0b507018888521d1cff0841823e44bc0b00d9190a36001805580f35b83516312171d8360e31b8152fd5b6110309150833d851161043c5761042e81836113aa565b38610fcf565b85513d8a823e3d90fd5b61104c90989198611364565b9638610f70565b86513d8b823e3d90fd5b87516229abe760e51b81528590fd5b634e487b7160e01b8d526011875260248dfd5b90508581813d83116110ab575b61109681836113aa565b810103126110a75751610e8c610e73565b8a80fd5b503d61108c565b88513d8d823e3d90fd5b8651636ec9be1160e01b81528490fd5b825163e2517d3f60e01b815233818601526024810191909152604490fd5b8380fd5b9190503461046c578060031936011261046c5761050f913561111360016104f16112d4565b611839565b90503461046c57602036600319011261046c57816020936001923581528085522001549051908152f35b5050346101b85760203660031901126101b8576020906105306111636112be565b611778565b5050346101b857816003193601126101b857602090517f5e17fc5225d4a099df75359ce1f405503ca79498a8dc46a7d583235a0ee45c168152f35b5050346101b857816003193601126101b8576020906003549051908152f35b5050346101b85760203660031901126101b8576020906105306111e36112be565b61165f565b90503461046c577f16e6f67290546b8dd0e587f4b7f67d4f61932ae17ffd8c60d3509dbc05c175fe916105e361121d366112a8565b9093611227611488565b6003549382825492876003555551948594859094939260609260808301968352602083015260408201520152565b84913461046c57602036600319011261046c573563ffffffff60e01b811680910361046c5760209250637965db0b60e01b8114908115611297575b5015158152f35b6301ffc9a760e01b14905083611290565b6040906003190112610498576004359060243590565b600435906001600160a01b038216820361049857565b602435906001600160a01b038216820361049857565b9060009180835282602052604083209160018060a01b03169182845260205260ff60408420541660001461135f5780835282602052604083208284526020526040832060ff1981541690557ff6391f5c32d9c69d2a47ea670b442974b53935d1edc7fd64eb21e047a839171b339380a4600190565b505090565b67ffffffffffffffff811161137857604052565b634e487b7160e01b600052604160045260246000fd5b6040810190811067ffffffffffffffff82111761137857604052565b90601f8019910116810190811067ffffffffffffffff82111761137857604052565b818102929181159184041417156113df57565b634e487b7160e01b600052601160045260246000fd5b81156113ff570490565b634e487b7160e01b600052601260045260246000fd5b919082039182116113df57565b919082018092116113df57565b90816020910312610498575180151581036104985790565b60ff6002541661145357565b60405163d93c066560e01b8152600490fd5b600260015414611476576002600155565b604051633ee5aeb560e01b8152600490fd5b3360009081527f6f3b488caa0dc03e5f3d9fd6a25fa8755afcfd62ccffb6e436c696bfa6b866de60205260409020547f7935bd0ae54bc31f548c14dba4d37c5c64b3f8ca900cb468fb8abd54d5894f559060ff16156114e45750565b6044906040519063e2517d3f60e01b82523360048301526024820152fd5b3360009081527ff7c9542c591017a21c74b6f3fab6263c7952fc0aaf9db4c22a2a04ddc7f8674f60205260409020547f65d7a28e3265b37a6474929f336521b332c1681b933f6cb9f3376673440d862a9060ff16156114e45750565b80600052600060205260406000203360005260205260ff60406000205416156114e45750565b600a54801561165957604051634c6afee560e11b81526020816004817f00000000000000000000000000000000000000000000000000000000000000006001600160a01b03165afa90811561164d5760009161161a575b506115f5670de0b6b3a76400009164e8d4a51000936113cc565b0404600954906064820291808304606414901517156113df57611617916113f5565b90565b906020823d8211611645575b81611633602093836113aa565b81010312610ad35750516115f56115db565b3d9150611626565b6040513d6000823e3d90fd5b50600090565b9060018060a01b03806000931683526020906008825260408420916001604051936116898561138e565b805485520154918184019280845215611772578160049160405192838092634c6afee560e11b82527f0000000000000000000000000000000000000000000000000000000000000000165afa918215611767578692611733575b50506116fe906c0c9f2c9cd04674edea4000000092516113cc565b04905160648102908082046064149015171561171f576116179293506113f5565b634e487b7160e01b84526011600452602484fd5b90809250813d8311611760575b61174a81836113aa565b8101031261175c5751816116fe6116e3565b8480fd5b503d611740565b6040513d88823e3d90fd5b50505050565b6001600160a01b03166000908152600860205260408082209051909161179d8261138e565b602060018454948585520154920191808352156118335760648302928084046064148115171561181f576d04ee2d6d415b85acef810000000002928084046c0c9f2c9cd04674edea40000000149015171561180b5750906118056116179251600654906113cc565b906113f5565b634e487b7160e01b81526011600452602490fd5b634e487b7160e01b82526011600452602482fd5b91505090565b9060009180835282602052604083209160018060a01b03169182845260205260ff6040842054161560001461135f57808352826020526040832082845260205260408320600160ff198254161790557f2f8788117e7eff1d82e926ec794901d17c78024a50270940304540a733656f0d339380a460019056fea2646970667358221220ea1b9b983e2fd59949f551026c55ae0eaaddaf09c652330f60c7b8e33c1e937364736f6c634300081500332f8788117e7eff1d82e926ec794901d17c78024a50270940304540a733656f0dad3228b676f7d3cd4284a5443f17f1962b36e491b30a40b2405849e597ba5fb5","opcodes":"PUSH1 0xE0 CALLVALUE PUSH3 0x162 JUMPI PUSH1 0x1F PUSH3 0x1D80 CODESIZE DUP2 SWAP1 SUB SWAP2 DUP3 ADD PUSH1 0x1F NOT AND DUP4 ADD SWAP2 PUSH1 0x1 PUSH1 0x1 PUSH1 0x40 SHL SUB DUP4 GT DUP5 DUP5 LT OR PUSH3 0x167 JUMPI DUP1 DUP5 SWAP3 PUSH1 0x80 SWAP5 PUSH1 0x40 MSTORE DUP4 CODECOPY DUP2 ADD SUB SLT PUSH3 0x162 JUMPI DUP1 PUSH3 0x52 PUSH3 0xDD SWAP3 PUSH3 0x17D JUMP JUMPDEST SWAP1 PUSH3 0x61 PUSH1 0x20 DUP3 ADD PUSH3 0x17D JUMP JUMPDEST SWAP1 PUSH3 0x7E PUSH1 0x60 PUSH3 0x76 PUSH1 0x40 DUP5 ADD PUSH3 0x17D JUMP JUMPDEST SWAP3 ADD PUSH3 0x17D JUMP JUMPDEST SWAP3 PUSH1 0x1 DUP1 SSTORE PUSH1 0x1E PUSH1 0x3 SSTORE PUSH1 0x1E PUSH1 0x4 SSTORE PUSH1 0x78 PUSH1 0x5 SSTORE PUSH1 0x78 PUSH1 0x6 SSTORE PUSH1 0x5 PUSH1 0x7 SSTORE PUSH1 0x1 DUP1 PUSH1 0xA0 SHL SUB SWAP3 DUP4 DUP1 SWAP3 AND PUSH1 0x80 MSTORE AND PUSH1 0xA0 MSTORE AND PUSH1 0xC0 MSTORE PUSH3 0xBE DUP2 PUSH3 0x192 JUMP JUMPDEST POP PUSH3 0xCA DUP2 PUSH3 0x201 JUMP JUMPDEST POP PUSH3 0xD6 DUP2 PUSH3 0x2A3 JUMP JUMPDEST POP PUSH3 0x340 JUMP JUMPDEST POP PUSH3 0xE9 CALLER PUSH3 0x3DD JUMP JUMPDEST POP PUSH1 0x40 MLOAD PUSH2 0x18E8 SWAP1 DUP2 PUSH3 0x458 DUP3 CODECOPY PUSH1 0x80 MLOAD DUP2 DUP2 DUP2 PUSH2 0x399 ADD MSTORE DUP2 DUP2 PUSH2 0x9E6 ADD MSTORE DUP2 DUP2 PUSH2 0xCD7 ADD MSTORE PUSH2 0xF9F ADD MSTORE PUSH1 0xA0 MLOAD DUP2 DUP2 DUP2 PUSH2 0x306 ADD MSTORE DUP2 DUP2 PUSH2 0x619 ADD MSTORE DUP2 DUP2 PUSH2 0xA1F ADD MSTORE PUSH2 0xF08 ADD MSTORE PUSH1 0xC0 MLOAD DUP2 DUP2 DUP2 PUSH2 0x258 ADD MSTORE DUP2 DUP2 PUSH2 0x7DF ADD MSTORE DUP2 DUP2 PUSH2 0x882 ADD MSTORE DUP2 DUP2 PUSH2 0xE42 ADD MSTORE DUP2 DUP2 PUSH2 0x15A2 ADD MSTORE PUSH2 0x16B3 ADD MSTORE RETURN JUMPDEST PUSH1 0x0 DUP1 REVERT JUMPDEST PUSH4 0x4E487B71 PUSH1 0xE0 SHL PUSH1 0x0 MSTORE PUSH1 0x41 PUSH1 0x4 MSTORE PUSH1 0x24 PUSH1 0x0 REVERT JUMPDEST MLOAD SWAP1 PUSH1 0x1 PUSH1 0x1 PUSH1 0xA0 SHL SUB DUP3 AND DUP3 SUB PUSH3 0x162 JUMPI JUMP JUMPDEST PUSH1 0x1 PUSH1 0x1 PUSH1 0xA0 SHL SUB AND PUSH1 0x0 DUP2 DUP2 MSTORE PUSH1 0x0 DUP1 MLOAD PUSH1 0x20 PUSH3 0x1D60 DUP4 CODECOPY DUP2 MLOAD SWAP2 MSTORE PUSH1 0x20 MSTORE PUSH1 0x40 DUP2 KECCAK256 SLOAD SWAP1 SWAP2 SWAP1 PUSH1 0xFF AND PUSH3 0x1FD JUMPI DUP2 DUP1 MSTORE DUP2 PUSH1 0x20 MSTORE PUSH1 0x40 DUP3 KECCAK256 DUP2 DUP4 MSTORE PUSH1 0x20 MSTORE PUSH1 0x40 DUP3 KECCAK256 PUSH1 0x1 PUSH1 0xFF NOT DUP3 SLOAD AND OR SWAP1 SSTORE CALLER SWAP2 PUSH1 0x0 DUP1 MLOAD PUSH1 0x20 PUSH3 0x1D40 DUP4 CODECOPY DUP2 MLOAD SWAP2 MSTORE DUP2 DUP1 LOG4 PUSH1 0x1 SWAP1 JUMP JUMPDEST POP SWAP1 JUMP JUMPDEST PUSH1 0x1 PUSH1 0x1 PUSH1 0xA0 SHL SUB AND PUSH1 0x0 DUP2 DUP2 MSTORE PUSH32 0x6F3B488CAA0DC03E5F3D9FD6A25FA8755AFCFD62CCFFB6E436C696BFA6B866DE PUSH1 0x20 MSTORE PUSH1 0x40 DUP2 KECCAK256 SLOAD SWAP1 SWAP2 SWAP1 PUSH32 0x7935BD0AE54BC31F548C14DBA4D37C5C64B3F8CA900CB468FB8ABD54D5894F55 SWAP1 PUSH1 0xFF AND PUSH3 0x29E JUMPI DUP1 DUP4 MSTORE DUP3 PUSH1 0x20 MSTORE PUSH1 0x40 DUP4 KECCAK256 DUP3 DUP5 MSTORE PUSH1 0x20 MSTORE PUSH1 0x40 DUP4 KECCAK256 PUSH1 0x1 PUSH1 0xFF NOT DUP3 SLOAD AND OR SWAP1 SSTORE PUSH1 0x0 DUP1 MLOAD PUSH1 0x20 PUSH3 0x1D40 DUP4 CODECOPY DUP2 MLOAD SWAP2 MSTORE CALLER SWAP4 DUP1 LOG4 PUSH1 0x1 SWAP1 JUMP JUMPDEST POP POP SWAP1 JUMP JUMPDEST PUSH1 0x1 PUSH1 0x1 PUSH1 0xA0 SHL SUB AND PUSH1 0x0 DUP2 DUP2 MSTORE PUSH32 0xF7C9542C591017A21C74B6F3FAB6263C7952FC0AAF9DB4C22A2A04DDC7F8674F PUSH1 0x20 MSTORE PUSH1 0x40 DUP2 KECCAK256 SLOAD SWAP1 SWAP2 SWAP1 PUSH32 0x65D7A28E3265B37A6474929F336521B332C1681B933F6CB9F3376673440D862A SWAP1 PUSH1 0xFF AND PUSH3 0x29E JUMPI DUP1 DUP4 MSTORE DUP3 PUSH1 0x20 MSTORE PUSH1 0x40 DUP4 KECCAK256 DUP3 DUP5 MSTORE PUSH1 0x20 MSTORE PUSH1 0x40 DUP4 KECCAK256 PUSH1 0x1 PUSH1 0xFF NOT DUP3 SLOAD AND OR SWAP1 SSTORE PUSH1 0x0 DUP1 MLOAD PUSH1 0x20 PUSH3 0x1D40 DUP4 CODECOPY DUP2 MLOAD SWAP2 MSTORE CALLER SWAP4 DUP1 LOG4 PUSH1 0x1 SWAP1 JUMP JUMPDEST PUSH1 0x1 PUSH1 0x1 PUSH1 0xA0 SHL SUB AND PUSH1 0x0 DUP2 DUP2 MSTORE PUSH32 0xBCEA842B576603BD7A3CD6BBB61CB6C1908AE113AF80C7A38F32F896FBAA4544 PUSH1 0x20 MSTORE PUSH1 0x40 DUP2 KECCAK256 SLOAD SWAP1 SWAP2 SWAP1 PUSH32 0x5E17FC5225D4A099DF75359CE1F405503CA79498A8DC46A7D583235A0EE45C16 SWAP1 PUSH1 0xFF AND PUSH3 0x29E JUMPI DUP1 DUP4 MSTORE DUP3 PUSH1 0x20 MSTORE PUSH1 0x40 DUP4 KECCAK256 DUP3 DUP5 MSTORE PUSH1 0x20 MSTORE PUSH1 0x40 DUP4 KECCAK256 PUSH1 0x1 PUSH1 0xFF NOT DUP3 SLOAD AND OR SWAP1 SSTORE PUSH1 0x0 DUP1 MLOAD PUSH1 0x20 PUSH3 0x1D40 DUP4 CODECOPY DUP2 MLOAD SWAP2 MSTORE CALLER SWAP4 DUP1 LOG4 PUSH1 0x1 SWAP1 JUMP JUMPDEST PUSH1 0x1 PUSH1 0x1 PUSH1 0xA0 SHL SUB AND PUSH1 0x0 DUP2 DUP2 MSTORE PUSH1 0x0 DUP1 MLOAD PUSH1 0x20 PUSH3 0x1D60 DUP4 CODECOPY DUP2 MLOAD SWAP2 MSTORE PUSH1 0x20 MSTORE PUSH1 0x40 DUP2 KECCAK256 SLOAD SWAP1 SWAP2 SWAP1 PUSH1 0xFF AND ISZERO PUSH3 0x1FD JUMPI DUP2 DUP1 MSTORE DUP2 PUSH1 0x20 MSTORE PUSH1 0x40 DUP3 KECCAK256 DUP2 DUP4 MSTORE PUSH1 0x20 MSTORE PUSH1 0x40 DUP3 KECCAK256 PUSH1 0xFF NOT DUP2 SLOAD AND SWAP1 SSTORE CALLER SWAP2 PUSH32 0xF6391F5C32D9C69D2A47EA670B442974B53935D1EDC7FD64EB21E047A839171B DUP2 DUP1 LOG4 PUSH1 0x1 SWAP1 JUMP INVALID PUSH1 0x80 PUSH1 0x40 DUP2 DUP2 MSTORE PUSH1 0x4 SWAP2 DUP3 CALLDATASIZE LT ISZERO PUSH2 0x16 JUMPI PUSH1 0x0 DUP1 REVERT JUMPDEST PUSH1 0x0 SWAP3 DUP4 CALLDATALOAD PUSH1 0xE0 SHR SWAP2 DUP3 PUSH4 0x1FFC9A7 EQ PUSH2 0x1255 JUMPI POP DUP2 PUSH4 0xB78F9C0 EQ PUSH2 0x11E8 JUMPI DUP2 PUSH4 0x10B45DE1 EQ PUSH2 0x11C2 JUMPI DUP2 PUSH4 0x13966DB5 EQ PUSH2 0x11A3 JUMPI DUP2 PUSH4 0x16D8887A EQ PUSH2 0x1168 JUMPI DUP2 PUSH4 0x17D8DE82 EQ PUSH2 0x1142 JUMPI DUP2 PUSH4 0x248A9CA3 EQ PUSH2 0x1118 JUMPI DUP2 PUSH4 0x2F2FF15D EQ PUSH2 0x10EE JUMPI DUP2 PUSH4 0x2F865568 EQ PUSH2 0xDA1 JUMPI DUP2 PUSH4 0x36568ABE EQ PUSH2 0xD5B JUMPI DUP2 PUSH4 0x38536275 EQ PUSH2 0xD06 JUMPI DUP2 PUSH4 0x3E413BEE EQ PUSH2 0xCC2 JUMPI DUP2 PUSH4 0x3F4BA83A EQ PUSH2 0xC58 JUMPI DUP2 PUSH4 0x4031234C EQ PUSH2 0xC39 JUMPI DUP2 PUSH4 0x4AC8EB5F EQ PUSH2 0xC1A JUMPI DUP2 PUSH4 0x55F57510 EQ PUSH2 0xBD8 JUMPI DUP2 PUSH4 0x5C975ABB EQ PUSH2 0xBB4 JUMPI DUP2 PUSH4 0x6008D28B EQ PUSH2 0x82D JUMPI DUP2 PUSH4 0x7B7C1F4C EQ PUSH2 0x80E JUMPI DUP2 PUSH4 0x7DC0D1D0 EQ PUSH2 0x7CA JUMPI DUP2 PUSH4 0x8456CB59 EQ PUSH2 0x76F JUMPI DUP2 PUSH4 0x84DA2666 EQ PUSH2 0x750 JUMPI DUP2 PUSH4 0x8B6CA32C EQ PUSH2 0x6AB JUMPI DUP2 PUSH4 0x91D14854 EQ PUSH2 0x666 JUMPI DUP2 PUSH4 0x965FA21E EQ PUSH2 0x648 JUMPI DUP2 PUSH4 0x9F80FB4E EQ PUSH2 0x604 JUMPI DUP2 PUSH4 0xA217FDDF EQ PUSH2 0x5E9 JUMPI DUP2 PUSH4 0xC6E7275D EQ PUSH2 0x572 JUMPI DUP2 PUSH4 0xCCC57490 EQ PUSH2 0x537 JUMPI DUP2 PUSH4 0xCD377C53 EQ PUSH2 0x513 JUMPI DUP2 PUSH4 0xD547741F EQ PUSH2 0x4CC JUMPI DUP2 PUSH4 0xDB006A75 EQ PUSH2 0x1F6 JUMPI POP DUP1 PUSH4 0xE63AB1E9 EQ PUSH2 0x1BC JUMPI PUSH4 0xFC7B9C18 EQ PUSH2 0x19B JUMPI PUSH1 0x0 DUP1 REVERT JUMPDEST CALLVALUE PUSH2 0x1B8 JUMPI DUP2 PUSH1 0x3 NOT CALLDATASIZE ADD SLT PUSH2 0x1B8 JUMPI PUSH1 0x20 SWAP1 PUSH1 0xA SLOAD SWAP1 MLOAD SWAP1 DUP2 MSTORE RETURN JUMPDEST POP DUP1 REVERT JUMPDEST POP CALLVALUE PUSH2 0x1B8 JUMPI DUP2 PUSH1 0x3 NOT CALLDATASIZE ADD SLT PUSH2 0x1B8 JUMPI PUSH1 0x20 SWAP1 MLOAD PUSH32 0x65D7A28E3265B37A6474929F336521B332C1681B933F6CB9F3376673440D862A DUP2 MSTORE RETURN JUMPDEST DUP4 DUP4 CALLVALUE PUSH2 0x1B8 JUMPI PUSH1 0x20 SWAP3 DUP4 PUSH1 0x3 NOT CALLDATASIZE ADD SLT PUSH2 0x46C JUMPI DUP1 CALLDATALOAD SWAP1 PUSH2 0x216 PUSH2 0x1465 JUMP JUMPDEST PUSH2 0x21E PUSH2 0x1447 JUMP JUMPDEST DUP2 ISZERO PUSH2 0x4BE JUMPI CALLER DUP5 MSTORE PUSH1 0x8 DUP6 MSTORE DUP3 DUP5 KECCAK256 SWAP4 PUSH1 0x1 DUP6 ADD DUP1 SLOAD DUP5 DUP2 LT PUSH2 0x4AE JUMPI DUP6 MLOAD PUSH4 0x4C6AFEE5 PUSH1 0xE1 SHL DUP2 MSTORE PUSH1 0x1 PUSH1 0x1 PUSH1 0xA0 SHL SUB SWAP3 SWAP1 DUP10 DUP2 DUP8 DUP2 PUSH32 0x0 DUP9 AND GAS STATICCALL DUP1 ISZERO PUSH2 0x4A4 JUMPI DUP6 SWAP1 PUSH2 0x470 JUMPI JUMPDEST PUSH2 0x293 SWAP2 POP DUP8 PUSH2 0x13CC JUMP JUMPDEST POP DUP8 SLOAD SWAP2 DUP7 DUP2 PUSH2 0x2A3 DUP6 DUP4 PUSH2 0x13CC JUMP JUMPDEST SWAP1 PUSH2 0x2AD SWAP2 PUSH2 0x13F5 JUMP JUMPDEST SWAP10 DUP11 SWAP5 DUP9 SLOAD PUSH2 0x2BC SWAP1 DUP8 PUSH2 0x13CC JUMP JUMPDEST PUSH2 0x2710 SWAP1 DIV PUSH2 0x2CB SWAP1 DUP8 PUSH2 0x1415 JUMP JUMPDEST SWAP12 PUSH2 0x2D5 SWAP2 PUSH2 0x1415 JUMP JUMPDEST SWAP1 SSTORE PUSH2 0x2E0 SWAP2 PUSH2 0x1415 JUMP JUMPDEST SWAP1 SSTORE PUSH1 0x9 SLOAD SWAP1 PUSH2 0x2EF SWAP2 PUSH2 0x1415 JUMP JUMPDEST PUSH1 0x9 SSTORE DUP4 PUSH1 0xA SLOAD SWAP1 PUSH2 0x300 SWAP2 PUSH2 0x1415 JUMP JUMPDEST PUSH1 0xA SSTORE DUP1 PUSH32 0x0 AND DUP1 EXTCODESIZE ISZERO PUSH2 0x46C JUMPI DUP6 MLOAD PUSH4 0x2770A7EB PUSH1 0xE2 SHL DUP2 MSTORE CALLER DUP6 DUP3 ADD SWAP1 DUP2 MSTORE PUSH1 0x20 DUP2 ADD DUP8 SWAP1 MSTORE SWAP1 SWAP2 DUP5 SWAP2 DUP4 SWAP2 SWAP1 DUP3 SWAP1 DUP5 SWAP1 DUP3 SWAP1 PUSH1 0x40 ADD SUB SWAP3 GAS CALL DUP1 ISZERO PUSH2 0x462 JUMPI SWAP1 DUP4 SWAP2 PUSH2 0x44E JUMPI JUMPDEST POP POP DUP5 MLOAD PUSH4 0xA9059CBB PUSH1 0xE0 SHL DUP2 MSTORE CALLER DUP5 DUP3 ADD SWAP1 DUP2 MSTORE PUSH1 0x20 DUP2 ADD DUP9 SWAP1 MSTORE SWAP1 SWAP2 DUP9 SWAP2 DUP4 SWAP2 SWAP1 DUP3 SWAP1 DUP7 SWAP1 DUP3 SWAP1 PUSH1 0x40 ADD SUB SWAP3 PUSH32 0x0 AND GAS CALL SWAP2 DUP3 ISZERO PUSH2 0x443 JUMPI SWAP2 PUSH2 0x416 JUMPI JUMPDEST POP ISZERO PUSH2 0x408 JUMPI POP DUP2 MLOAD SWAP1 DUP2 MSTORE DUP3 DUP5 DUP3 ADD MSTORE PUSH32 0xE5B754FB1ABB7F01B499791D0B820AE3B6AF3424AC1C59768EDB53F4EC31A929 DUP3 CALLER SWAP3 LOG2 PUSH1 0x1 DUP1 SSTORE MLOAD SWAP1 DUP2 MSTORE RETURN JUMPDEST DUP3 MLOAD PUSH4 0x12171D83 PUSH1 0xE3 SHL DUP2 MSTORE REVERT JUMPDEST PUSH2 0x436 SWAP2 POP DUP7 RETURNDATASIZE DUP9 GT PUSH2 0x43C JUMPI JUMPDEST PUSH2 0x42E DUP2 DUP4 PUSH2 0x13AA JUMP JUMPDEST DUP2 ADD SWAP1 PUSH2 0x142F JUMP JUMPDEST DUP7 PUSH2 0x3C8 JUMP JUMPDEST POP RETURNDATASIZE PUSH2 0x424 JUMP JUMPDEST DUP6 MLOAD SWAP1 RETURNDATASIZE SWAP1 DUP3 RETURNDATACOPY RETURNDATASIZE SWAP1 REVERT JUMPDEST PUSH2 0x457 SWAP1 PUSH2 0x1364 JUMP JUMPDEST PUSH2 0x1B8 JUMPI DUP2 DUP9 PUSH2 0x369 JUMP JUMPDEST DUP7 MLOAD RETURNDATASIZE DUP6 DUP3 RETURNDATACOPY RETURNDATASIZE SWAP1 REVERT JUMPDEST DUP3 DUP1 REVERT JUMPDEST POP DUP10 DUP2 DUP2 RETURNDATASIZE DUP4 GT PUSH2 0x49D JUMPI JUMPDEST PUSH2 0x486 DUP2 DUP4 PUSH2 0x13AA JUMP JUMPDEST DUP2 ADD SUB SLT PUSH2 0x498 JUMPI PUSH2 0x293 SWAP1 MLOAD PUSH2 0x288 JUMP JUMPDEST PUSH1 0x0 DUP1 REVERT JUMPDEST POP RETURNDATASIZE PUSH2 0x47C JUMP JUMPDEST DUP9 MLOAD RETURNDATASIZE DUP8 DUP3 RETURNDATACOPY RETURNDATASIZE SWAP1 REVERT JUMPDEST DUP6 MLOAD PUSH4 0x3A23D825 PUSH1 0xE0 SHL DUP2 MSTORE DUP5 SWAP1 REVERT JUMPDEST DUP3 MLOAD PUSH4 0x162908E3 PUSH1 0xE1 SHL DUP2 MSTORE REVERT JUMPDEST SWAP2 SWAP1 POP CALLVALUE PUSH2 0x46C JUMPI DUP1 PUSH1 0x3 NOT CALLDATASIZE ADD SLT PUSH2 0x46C JUMPI PUSH2 0x50F SWAP2 CALLDATALOAD PUSH2 0x50A PUSH1 0x1 PUSH2 0x4F1 PUSH2 0x12D4 JUMP JUMPDEST SWAP4 PUSH2 0x4FA PUSH2 0x1488 JUMP JUMPDEST DUP4 DUP8 MSTORE DUP7 PUSH1 0x20 MSTORE DUP7 KECCAK256 ADD SLOAD PUSH2 0x155E JUMP JUMPDEST PUSH2 0x12EA JUMP JUMPDEST POP DUP1 RETURN JUMPDEST POP POP CALLVALUE PUSH2 0x1B8 JUMPI DUP2 PUSH1 0x3 NOT CALLDATASIZE ADD SLT PUSH2 0x1B8 JUMPI PUSH1 0x20 SWAP1 PUSH2 0x530 PUSH2 0x1584 JUMP JUMPDEST SWAP1 MLOAD SWAP1 DUP2 MSTORE RETURN JUMPDEST POP POP CALLVALUE PUSH2 0x1B8 JUMPI DUP2 PUSH1 0x3 NOT CALLDATASIZE ADD SLT PUSH2 0x1B8 JUMPI PUSH1 0x20 SWAP1 MLOAD PUSH32 0x7935BD0AE54BC31F548C14DBA4D37C5C64B3F8CA900CB468FB8ABD54D5894F55 DUP2 MSTORE RETURN JUMPDEST POP POP CALLVALUE PUSH2 0x1B8 JUMPI PUSH2 0x5E3 PUSH32 0x61C468E821B1662263E339E465B2B8AA3C36B504F804FFAC4A19AD8EAE3DF813 SWAP2 PUSH2 0x5A7 CALLDATASIZE PUSH2 0x12A8 JUMP JUMPDEST PUSH2 0x5B2 SWAP4 SWAP2 SWAP4 PUSH2 0x1488 JUMP JUMPDEST PUSH1 0x6 SLOAD SWAP3 PUSH1 0x7 SLOAD SWAP1 DUP6 PUSH1 0x6 SSTORE DUP3 PUSH1 0x7 SSTORE MLOAD SWAP5 DUP6 SWAP5 DUP6 SWAP1 SWAP5 SWAP4 SWAP3 PUSH1 0x60 SWAP3 PUSH1 0x80 DUP4 ADD SWAP7 DUP4 MSTORE PUSH1 0x20 DUP4 ADD MSTORE PUSH1 0x40 DUP3 ADD MSTORE ADD MSTORE JUMP JUMPDEST SUB SWAP1 LOG1 DUP1 RETURN JUMPDEST POP POP CALLVALUE PUSH2 0x1B8 JUMPI DUP2 PUSH1 0x3 NOT CALLDATASIZE ADD SLT PUSH2 0x1B8 JUMPI MLOAD SWAP1 DUP2 MSTORE PUSH1 0x20 SWAP1 RETURN JUMPDEST POP POP CALLVALUE PUSH2 0x1B8 JUMPI DUP2 PUSH1 0x3 NOT CALLDATASIZE ADD SLT PUSH2 0x1B8 JUMPI MLOAD PUSH32 0x0 PUSH1 0x1 PUSH1 0x1 PUSH1 0xA0 SHL SUB AND DUP2 MSTORE PUSH1 0x20 SWAP1 RETURN JUMPDEST SWAP1 POP CALLVALUE PUSH2 0x46C JUMPI DUP3 PUSH1 0x3 NOT CALLDATASIZE ADD SLT PUSH2 0x46C JUMPI PUSH1 0x20 SWAP3 POP SLOAD SWAP1 MLOAD SWAP1 DUP2 MSTORE RETURN JUMPDEST SWAP1 POP CALLVALUE PUSH2 0x46C JUMPI DUP2 PUSH1 0x3 NOT CALLDATASIZE ADD SLT PUSH2 0x46C JUMPI DUP2 PUSH1 0x20 SWAP4 PUSH2 0x684 PUSH2 0x12D4 JUMP JUMPDEST SWAP3 CALLDATALOAD DUP2 MSTORE DUP1 DUP6 MSTORE KECCAK256 SWAP1 PUSH1 0x1 DUP1 PUSH1 0xA0 SHL SUB AND PUSH1 0x0 MSTORE DUP3 MSTORE PUSH1 0xFF DUP2 PUSH1 0x0 KECCAK256 SLOAD AND SWAP1 MLOAD SWAP1 ISZERO ISZERO DUP2 MSTORE RETURN JUMPDEST SWAP2 SWAP1 POP CALLVALUE PUSH2 0x46C JUMPI PUSH1 0x60 CALLDATASIZE PUSH1 0x3 NOT ADD SLT PUSH2 0x46C JUMPI PUSH1 0x20 PUSH2 0x713 SWAP3 PUSH2 0x6CD PUSH2 0x12BE JUMP JUMPDEST PUSH2 0x6D5 PUSH2 0x12D4 JUMP JUMPDEST PUSH2 0x6DD PUSH2 0x1488 JUMP JUMPDEST DUP5 MLOAD PUSH4 0xA9059CBB PUSH1 0xE0 SHL DUP2 MSTORE PUSH1 0x1 PUSH1 0x1 PUSH1 0xA0 SHL SUB SWAP1 SWAP2 AND SWAP3 DUP2 ADD SWAP3 DUP4 MSTORE PUSH1 0x44 CALLDATALOAD PUSH1 0x20 DUP5 ADD MSTORE SWAP5 DUP6 SWAP3 DUP4 SWAP2 DUP9 SWAP2 DUP4 SWAP2 PUSH1 0x40 SWAP1 SWAP2 ADD SWAP1 JUMP JUMPDEST SUB SWAP3 PUSH1 0x1 PUSH1 0x1 PUSH1 0xA0 SHL SUB AND GAS CALL SWAP1 DUP2 ISZERO PUSH2 0x747 JUMPI POP PUSH2 0x730 JUMPI POP DUP1 RETURN JUMPDEST PUSH2 0x50F SWAP1 PUSH1 0x20 RETURNDATASIZE DUP2 GT PUSH2 0x43C JUMPI PUSH2 0x42E DUP2 DUP4 PUSH2 0x13AA JUMP JUMPDEST MLOAD RETURNDATASIZE DUP5 DUP3 RETURNDATACOPY RETURNDATASIZE SWAP1 REVERT JUMPDEST POP POP CALLVALUE PUSH2 0x1B8 JUMPI DUP2 PUSH1 0x3 NOT CALLDATASIZE ADD SLT PUSH2 0x1B8 JUMPI PUSH1 0x20 SWAP1 PUSH1 0x5 SLOAD SWAP1 MLOAD SWAP1 DUP2 MSTORE RETURN JUMPDEST POP POP CALLVALUE PUSH2 0x1B8 JUMPI DUP2 PUSH1 0x3 NOT CALLDATASIZE ADD SLT PUSH2 0x1B8 JUMPI PUSH1 0x20 PUSH32 0x62E78CEA01BEE320CD4E420270B5EA74000D11B0C9F74754EBDBFC544B05A258 SWAP2 PUSH2 0x7AD PUSH2 0x1502 JUMP JUMPDEST PUSH2 0x7B5 PUSH2 0x1447 JUMP JUMPDEST PUSH1 0x1 PUSH1 0xFF NOT PUSH1 0x2 SLOAD AND OR PUSH1 0x2 SSTORE MLOAD CALLER DUP2 MSTORE LOG1 DUP1 RETURN JUMPDEST POP POP CALLVALUE PUSH2 0x1B8 JUMPI DUP2 PUSH1 0x3 NOT CALLDATASIZE ADD SLT PUSH2 0x1B8 JUMPI MLOAD PUSH32 0x0 PUSH1 0x1 PUSH1 0x1 PUSH1 0xA0 SHL SUB AND DUP2 MSTORE PUSH1 0x20 SWAP1 RETURN JUMPDEST POP POP CALLVALUE PUSH2 0x1B8 JUMPI DUP2 PUSH1 0x3 NOT CALLDATASIZE ADD SLT PUSH2 0x1B8 JUMPI PUSH1 0x20 SWAP1 PUSH1 0x7 SLOAD SWAP1 MLOAD SWAP1 DUP2 MSTORE RETURN JUMPDEST SWAP2 SWAP1 POP CALLVALUE PUSH2 0x46C JUMPI PUSH2 0x83E CALLDATASIZE PUSH2 0x12A8 JUMP JUMPDEST PUSH2 0x846 PUSH2 0x1465 JUMP JUMPDEST PUSH2 0x84E PUSH2 0x1447 JUMP JUMPDEST DUP2 ISZERO PUSH2 0xBA5 JUMPI PUSH1 0x78 DUP2 LT DUP1 ISZERO PUSH2 0xB9A JUMPI JUMPDEST PUSH2 0xB8B JUMPI DUP3 MLOAD PUSH4 0x4C6AFEE5 PUSH1 0xE1 SHL DUP2 MSTORE PUSH1 0x20 SWAP6 SWAP1 SWAP5 PUSH1 0x1 PUSH1 0x1 PUSH1 0xA0 SHL SUB DUP8 DUP8 DUP4 DUP2 PUSH32 0x0 DUP6 AND GAS STATICCALL SWAP7 DUP8 ISZERO PUSH2 0x462 JUMPI DUP4 SWAP8 PUSH2 0xB5C JUMPI JUMPDEST POP PUSH2 0x8CD PUSH2 0x2710 PUSH2 0x8C6 PUSH1 0x3 SLOAD DUP9 PUSH2 0x13CC JUMP JUMPDEST DIV DUP7 PUSH2 0x1415 JUMP JUMPDEST PUSH1 0x64 DUP2 MUL DUP2 DUP2 DIV PUSH1 0x64 EQ DUP3 ISZERO OR ISZERO PUSH2 0xB49 JUMPI DUP6 PUSH2 0x8E9 SWAP2 PUSH2 0x13F5 JUMP JUMPDEST PUSH13 0xC9F2C9CD04674EDEA40000000 SWAP1 DUP2 DUP2 MUL SWAP2 DUP2 DUP4 DIV EQ SWAP1 ISZERO OR ISZERO PUSH2 0xB49 JUMPI DUP9 PUSH2 0x912 SWAP2 PUSH2 0x13F5 JUMP JUMPDEST SWAP8 DUP9 ISZERO PUSH2 0xB39 JUMPI PUSH5 0xE8D4A51000 PUSH8 0xDE0B6B3A7640000 PUSH2 0x949 PUSH2 0x937 DUP6 PUSH1 0x9 SLOAD PUSH2 0x1422 JUMP JUMPDEST SWAP4 PUSH2 0x944 DUP14 PUSH1 0xA SLOAD PUSH2 0x1422 JUMP JUMPDEST PUSH2 0x13CC JUMP JUMPDEST DIV DIV SWAP1 PUSH1 0x64 DUP2 MUL SWAP1 DUP1 DUP3 DIV PUSH1 0x64 EQ SWAP1 ISZERO OR ISZERO PUSH2 0xB26 JUMPI SWAP1 PUSH2 0x969 SWAP2 PUSH2 0x13F5 JUMP JUMPDEST PUSH1 0x5 SLOAD GT PUSH2 0xB16 JUMPI PUSH2 0x9AE SWAP1 CALLER DUP6 MSTORE PUSH1 0x8 DUP11 MSTORE DUP8 DUP6 KECCAK256 PUSH2 0x98A DUP3 DUP3 SLOAD PUSH2 0x1422 JUMP JUMPDEST SWAP1 SSTORE CALLER DUP6 MSTORE PUSH1 0x8 DUP11 MSTORE PUSH1 0x1 DUP9 DUP7 KECCAK256 ADD PUSH2 0x9A4 DUP11 DUP3 SLOAD PUSH2 0x1422 JUMP JUMPDEST SWAP1 SSTORE PUSH1 0x9 SLOAD PUSH2 0x1422 JUMP JUMPDEST PUSH1 0x9 SSTORE PUSH2 0x9BD DUP8 PUSH1 0xA SLOAD PUSH2 0x1422 JUMP JUMPDEST PUSH1 0xA SSTORE DUP6 MLOAD PUSH4 0x23B872DD PUSH1 0xE0 SHL DUP2 MSTORE CALLER DUP4 DUP3 ADD MSTORE ADDRESS PUSH1 0x24 DUP3 ADD MSTORE PUSH1 0x44 DUP2 ADD DUP7 SWAP1 MSTORE DUP9 DUP2 PUSH1 0x64 DUP2 DUP8 PUSH32 0x0 DUP8 AND GAS CALL SWAP1 DUP2 ISZERO PUSH2 0xB0C JUMPI DUP5 SWAP2 PUSH2 0xAEF JUMPI JUMPDEST POP ISZERO PUSH2 0xAE0 JUMPI PUSH32 0x0 AND SWAP1 DUP2 EXTCODESIZE ISZERO PUSH2 0x46C JUMPI DUP6 MLOAD PUSH4 0x40C10F19 PUSH1 0xE0 SHL DUP2 MSTORE CALLER SWAP2 DUP2 ADD SWAP2 DUP3 MSTORE PUSH1 0x20 DUP3 ADD DUP9 SWAP1 MSTORE SWAP2 DUP4 SWAP2 DUP4 SWAP2 SWAP1 DUP3 SWAP1 DUP5 SWAP1 DUP3 SWAP1 PUSH1 0x40 ADD SUB SWAP3 GAS CALL DUP1 ISZERO PUSH2 0xAD6 JUMPI PUSH2 0xABF JUMPI JUMPDEST POP POP DUP3 MLOAD SWAP2 DUP3 MSTORE DUP4 DUP6 DUP4 ADD MSTORE DUP3 DUP3 ADD MSTORE PUSH32 0xB4C03061FB5B7FED76389D5AF8F2E0DDB09F8C70D1333ABBB62582835E10ACCB PUSH1 0x60 CALLER SWAP3 LOG2 PUSH1 0x1 DUP1 SSTORE MLOAD SWAP1 DUP2 MSTORE RETURN JUMPDEST PUSH2 0xAC9 DUP3 SWAP2 PUSH2 0x1364 JUMP JUMPDEST PUSH2 0xAD3 JUMPI DUP1 PUSH2 0xA7F JUMP JUMPDEST DUP1 REVERT JUMPDEST DUP6 MLOAD RETURNDATASIZE DUP5 DUP3 RETURNDATACOPY RETURNDATASIZE SWAP1 REVERT JUMPDEST POP DUP5 MLOAD PUSH4 0x12171D83 PUSH1 0xE3 SHL DUP2 MSTORE REVERT JUMPDEST PUSH2 0xB06 SWAP2 POP DUP10 RETURNDATASIZE DUP12 GT PUSH2 0x43C JUMPI PUSH2 0x42E DUP2 DUP4 PUSH2 0x13AA JUMP JUMPDEST CODESIZE PUSH2 0xA17 JUMP JUMPDEST DUP8 MLOAD RETURNDATASIZE DUP7 DUP3 RETURNDATACOPY RETURNDATASIZE SWAP1 REVERT JUMPDEST DUP7 MLOAD PUSH4 0xA7967DB1 PUSH1 0xE0 SHL DUP2 MSTORE DUP4 SWAP1 REVERT JUMPDEST PUSH4 0x4E487B71 PUSH1 0xE0 SHL DUP7 MSTORE PUSH1 0x11 DUP6 MSTORE PUSH1 0x24 DUP7 REVERT JUMPDEST DUP8 MLOAD PUSH4 0x162908E3 PUSH1 0xE1 SHL DUP2 MSTORE DUP5 SWAP1 REVERT JUMPDEST PUSH4 0x4E487B71 PUSH1 0xE0 SHL DUP6 MSTORE PUSH1 0x11 DUP5 MSTORE PUSH1 0x24 DUP6 REVERT JUMPDEST SWAP1 SWAP7 POP DUP8 DUP2 DUP2 RETURNDATASIZE DUP4 GT PUSH2 0xB84 JUMPI JUMPDEST PUSH2 0xB74 DUP2 DUP4 PUSH2 0x13AA JUMP JUMPDEST DUP2 ADD SUB SLT PUSH2 0x498 JUMPI MLOAD SWAP6 CODESIZE PUSH2 0x8B3 JUMP JUMPDEST POP RETURNDATASIZE PUSH2 0xB6A JUMP JUMPDEST POP POP MLOAD PUSH4 0xA7967DB1 PUSH1 0xE0 SHL DUP2 MSTORE REVERT JUMPDEST POP PUSH2 0x12C DUP2 GT PUSH2 0x85F JUMP JUMPDEST POP POP MLOAD PUSH4 0x162908E3 PUSH1 0xE1 SHL DUP2 MSTORE REVERT JUMPDEST POP POP CALLVALUE PUSH2 0x1B8 JUMPI DUP2 PUSH1 0x3 NOT CALLDATASIZE ADD SLT PUSH2 0x1B8 JUMPI PUSH1 0x20 SWAP1 PUSH1 0xFF PUSH1 0x2 SLOAD AND SWAP1 MLOAD SWAP1 ISZERO ISZERO DUP2 MSTORE RETURN JUMPDEST POP POP CALLVALUE PUSH2 0x1B8 JUMPI PUSH1 0x20 CALLDATASIZE PUSH1 0x3 NOT ADD SLT PUSH2 0x1B8 JUMPI SWAP1 DUP2 SWAP1 PUSH1 0x1 PUSH1 0x1 PUSH1 0xA0 SHL SUB PUSH2 0xBFE PUSH2 0x12BE JUMP JUMPDEST AND DUP2 MSTORE PUSH1 0x8 PUSH1 0x20 MSTORE KECCAK256 PUSH1 0x1 DUP2 SLOAD SWAP2 ADD SLOAD DUP3 MLOAD SWAP2 DUP3 MSTORE PUSH1 0x20 DUP3 ADD MSTORE RETURN JUMPDEST POP POP CALLVALUE PUSH2 0x1B8 JUMPI DUP2 PUSH1 0x3 NOT CALLDATASIZE ADD SLT PUSH2 0x1B8 JUMPI PUSH1 0x20 SWAP1 PUSH1 0x9 SLOAD SWAP1 MLOAD SWAP1 DUP2 MSTORE RETURN JUMPDEST POP POP CALLVALUE PUSH2 0x1B8 JUMPI DUP2 PUSH1 0x3 NOT CALLDATASIZE ADD SLT PUSH2 0x1B8 JUMPI PUSH1 0x20 SWAP1 PUSH1 0x6 SLOAD SWAP1 MLOAD SWAP1 DUP2 MSTORE RETURN JUMPDEST SWAP1 POP CALLVALUE PUSH2 0x46C JUMPI DUP3 PUSH1 0x3 NOT CALLDATASIZE ADD SLT PUSH2 0x46C JUMPI PUSH2 0xC72 PUSH2 0x1502 JUMP JUMPDEST PUSH1 0x2 SLOAD SWAP1 PUSH1 0xFF DUP3 AND ISZERO PUSH2 0xCB4 JUMPI POP PUSH1 0xFF NOT AND PUSH1 0x2 SSTORE MLOAD CALLER DUP2 MSTORE PUSH32 0x5DB9EE0A495BF2E6FF9C91A7834C1BA4FDD244A5E8AA4E537BD38AEAE4B073AA SWAP1 PUSH1 0x20 SWAP1 LOG1 DUP1 RETURN JUMPDEST DUP3 MLOAD PUSH4 0x8DFC202B PUSH1 0xE0 SHL DUP2 MSTORE REVERT JUMPDEST POP POP CALLVALUE PUSH2 0x1B8 JUMPI DUP2 PUSH1 0x3 NOT CALLDATASIZE ADD SLT PUSH2 0x1B8 JUMPI MLOAD PUSH32 0x0 PUSH1 0x1 PUSH1 0x1 PUSH1 0xA0 SHL SUB AND DUP2 MSTORE PUSH1 0x20 SWAP1 RETURN JUMPDEST SWAP2 SWAP1 POP CALLVALUE PUSH2 0x46C JUMPI PUSH1 0x20 CALLDATASIZE PUSH1 0x3 NOT ADD SLT PUSH2 0x46C JUMPI PUSH32 0xEA851FC89EBCCDA62380B76FC8E8317F0BCD4D75EA908CF501BD2EBC6AC1C8F2 SWAP2 CALLDATALOAD PUSH2 0xD45 PUSH2 0x1488 JUMP JUMPDEST PUSH1 0x5 SLOAD SWAP1 DUP1 PUSH1 0x5 SSTORE DUP3 MLOAD SWAP2 DUP3 MSTORE PUSH1 0x20 DUP3 ADD MSTORE LOG1 DUP1 RETURN JUMPDEST DUP4 DUP4 CALLVALUE PUSH2 0x1B8 JUMPI DUP1 PUSH1 0x3 NOT CALLDATASIZE ADD SLT PUSH2 0x1B8 JUMPI PUSH2 0xD75 PUSH2 0x12D4 JUMP JUMPDEST SWAP1 CALLER PUSH1 0x1 PUSH1 0x1 PUSH1 0xA0 SHL SUB DUP4 AND SUB PUSH2 0xD92 JUMPI POP PUSH2 0x50F SWAP2 SWAP3 CALLDATALOAD PUSH2 0x12EA JUMP JUMPDEST MLOAD PUSH4 0x334BD919 PUSH1 0xE1 SHL DUP2 MSTORE DUP4 SWAP1 REVERT JUMPDEST SWAP1 POP CALLVALUE PUSH2 0x46C JUMPI PUSH1 0x20 SWAP2 DUP3 PUSH1 0x3 NOT CALLDATASIZE ADD SLT PUSH2 0x10EA JUMPI PUSH2 0xDBE PUSH2 0x12BE JUMP JUMPDEST SWAP3 PUSH2 0xDC7 PUSH2 0x1465 JUMP JUMPDEST PUSH2 0xDCF PUSH2 0x1447 JUMP JUMPDEST PUSH32 0x5E17FC5225D4A099DF75359CE1F405503CA79498A8DC46A7D583235A0EE45C16 DUP1 DUP7 MSTORE DUP6 DUP3 MSTORE DUP3 DUP7 KECCAK256 CALLER DUP8 MSTORE DUP3 MSTORE PUSH1 0xFF DUP4 DUP8 KECCAK256 SLOAD AND ISZERO PUSH2 0x10CC JUMPI POP PUSH1 0x1 DUP1 PUSH1 0xA0 SHL SUB SWAP1 DUP2 DUP6 AND SWAP4 DUP5 DUP8 MSTORE PUSH1 0x8 DUP3 MSTORE DUP4 DUP8 KECCAK256 SWAP3 PUSH1 0x1 DUP5 ADD SWAP7 DUP8 SLOAD SWAP8 DUP9 ISZERO PUSH2 0x10BC JUMPI DUP7 MLOAD PUSH4 0x4C6AFEE5 PUSH1 0xE1 SHL DUP2 MSTORE DUP6 DUP2 DUP7 DUP2 PUSH32 0x0 DUP9 AND GAS STATICCALL SWAP1 DUP2 ISZERO PUSH2 0x10B2 JUMPI DUP12 SWAP2 PUSH2 0x107F JUMPI JUMPDEST POP PUSH2 0xE8C PUSH13 0xC9F2C9CD04674EDEA40000000 SWAP2 DUP12 PUSH2 0x13CC JUMP JUMPDEST DIV DUP7 SLOAD SWAP1 PUSH1 0x64 DUP3 MUL DUP3 DUP2 DIV PUSH1 0x64 EQ DUP4 ISZERO OR ISZERO PUSH2 0x106C JUMPI SWAP1 PUSH2 0xEAC SWAP2 PUSH2 0x13F5 JUMP JUMPDEST PUSH1 0x6 SLOAD GT ISZERO PUSH2 0x105D JUMPI SWAP1 DUP11 PUSH2 0xECD DUP12 PUSH2 0xEC8 PUSH2 0xEF2 SWAP6 DUP3 PUSH2 0x13CC JUMP JUMPDEST PUSH2 0x13F5 JUMP JUMPDEST SWAP2 DUP2 PUSH2 0xEE7 PUSH1 0x64 PUSH2 0xEE0 PUSH1 0x7 SLOAD DUP8 PUSH2 0x13CC JUMP JUMPDEST DIV DUP6 PUSH2 0x1422 JUMP JUMPDEST SWAP10 SSTORE SSTORE PUSH1 0x9 SLOAD PUSH2 0x1415 JUMP JUMPDEST PUSH1 0x9 SSTORE PUSH2 0xF01 DUP9 PUSH1 0xA SLOAD PUSH2 0x1415 JUMP JUMPDEST PUSH1 0xA SSTORE DUP9 DUP3 PUSH32 0x0 AND SWAP2 DUP3 EXTCODESIZE ISZERO PUSH2 0x1B8 JUMPI DUP8 MLOAD PUSH4 0x2770A7EB PUSH1 0xE2 SHL DUP2 MSTORE PUSH1 0x1 PUSH1 0x1 PUSH1 0xA0 SHL SUB SWAP1 SWAP2 AND DUP6 DUP3 ADD SWAP1 DUP2 MSTORE PUSH1 0x20 DUP2 ADD DUP12 SWAP1 MSTORE SWAP1 SWAP3 DUP4 SWAP2 DUP3 SWAP1 DUP5 SWAP1 DUP3 SWAP1 PUSH1 0x40 ADD SUB SWAP3 GAS CALL DUP1 ISZERO PUSH2 0x1053 JUMPI PUSH2 0x1040 JUMPI JUMPDEST POP DUP5 MLOAD PUSH4 0xA9059CBB PUSH1 0xE0 SHL DUP2 MSTORE CALLER DUP4 DUP3 ADD SWAP1 DUP2 MSTORE PUSH1 0x20 DUP2 ADD DUP7 SWAP1 MSTORE SWAP1 SWAP2 DUP5 SWAP2 DUP4 SWAP2 SWAP1 DUP3 SWAP1 DUP13 SWAP1 DUP3 SWAP1 PUSH1 0x40 ADD SUB SWAP3 PUSH32 0x0 AND GAS CALL SWAP1 DUP2 ISZERO PUSH2 0x1036 JUMPI DUP9 SWAP2 PUSH2 0x1019 JUMPI JUMPDEST POP ISZERO PUSH2 0x100B JUMPI POP DUP3 MLOAD SWAP5 DUP6 MSTORE DUP5 ADD MSTORE CALLER SWAP3 PUSH32 0x4ECAE3269F800DF64B16CB9F6F8B0B507018888521D1CFF0841823E44BC0B00D SWAP2 SWAP1 LOG3 PUSH1 0x1 DUP1 SSTORE DUP1 RETURN JUMPDEST DUP4 MLOAD PUSH4 0x12171D83 PUSH1 0xE3 SHL DUP2 MSTORE REVERT JUMPDEST PUSH2 0x1030 SWAP2 POP DUP4 RETURNDATASIZE DUP6 GT PUSH2 0x43C JUMPI PUSH2 0x42E DUP2 DUP4 PUSH2 0x13AA JUMP JUMPDEST CODESIZE PUSH2 0xFCF JUMP JUMPDEST DUP6 MLOAD RETURNDATASIZE DUP11 DUP3 RETURNDATACOPY RETURNDATASIZE SWAP1 REVERT JUMPDEST PUSH2 0x104C SWAP1 SWAP9 SWAP2 SWAP9 PUSH2 0x1364 JUMP JUMPDEST SWAP7 CODESIZE PUSH2 0xF70 JUMP JUMPDEST DUP7 MLOAD RETURNDATASIZE DUP12 DUP3 RETURNDATACOPY RETURNDATASIZE SWAP1 REVERT JUMPDEST DUP8 MLOAD PUSH3 0x29ABE7 PUSH1 0xE5 SHL DUP2 MSTORE DUP6 SWAP1 REVERT JUMPDEST PUSH4 0x4E487B71 PUSH1 0xE0 SHL DUP14 MSTORE PUSH1 0x11 DUP8 MSTORE PUSH1 0x24 DUP14 REVERT JUMPDEST SWAP1 POP DUP6 DUP2 DUP2 RETURNDATASIZE DUP4 GT PUSH2 0x10AB JUMPI JUMPDEST PUSH2 0x1096 DUP2 DUP4 PUSH2 0x13AA JUMP JUMPDEST DUP2 ADD SUB SLT PUSH2 0x10A7 JUMPI MLOAD PUSH2 0xE8C PUSH2 0xE73 JUMP JUMPDEST DUP11 DUP1 REVERT JUMPDEST POP RETURNDATASIZE PUSH2 0x108C JUMP JUMPDEST DUP9 MLOAD RETURNDATASIZE DUP14 DUP3 RETURNDATACOPY RETURNDATASIZE SWAP1 REVERT JUMPDEST DUP7 MLOAD PUSH4 0x6EC9BE11 PUSH1 0xE0 SHL DUP2 MSTORE DUP5 SWAP1 REVERT JUMPDEST DUP3 MLOAD PUSH4 0xE2517D3F PUSH1 0xE0 SHL DUP2 MSTORE CALLER DUP2 DUP7 ADD MSTORE PUSH1 0x24 DUP2 ADD SWAP2 SWAP1 SWAP2 MSTORE PUSH1 0x44 SWAP1 REVERT JUMPDEST DUP4 DUP1 REVERT JUMPDEST SWAP2 SWAP1 POP CALLVALUE PUSH2 0x46C JUMPI DUP1 PUSH1 0x3 NOT CALLDATASIZE ADD SLT PUSH2 0x46C JUMPI PUSH2 0x50F SWAP2 CALLDATALOAD PUSH2 0x1113 PUSH1 0x1 PUSH2 0x4F1 PUSH2 0x12D4 JUMP JUMPDEST PUSH2 0x1839 JUMP JUMPDEST SWAP1 POP CALLVALUE PUSH2 0x46C JUMPI PUSH1 0x20 CALLDATASIZE PUSH1 0x3 NOT ADD SLT PUSH2 0x46C JUMPI DUP2 PUSH1 0x20 SWAP4 PUSH1 0x1 SWAP3 CALLDATALOAD DUP2 MSTORE DUP1 DUP6 MSTORE KECCAK256 ADD SLOAD SWAP1 MLOAD SWAP1 DUP2 MSTORE RETURN JUMPDEST POP POP CALLVALUE PUSH2 0x1B8 JUMPI PUSH1 0x20 CALLDATASIZE PUSH1 0x3 NOT ADD SLT PUSH2 0x1B8 JUMPI PUSH1 0x20 SWAP1 PUSH2 0x530 PUSH2 0x1163 PUSH2 0x12BE JUMP JUMPDEST PUSH2 0x1778 JUMP JUMPDEST POP POP CALLVALUE PUSH2 0x1B8 JUMPI DUP2 PUSH1 0x3 NOT CALLDATASIZE ADD SLT PUSH2 0x1B8 JUMPI PUSH1 0x20 SWAP1 MLOAD PUSH32 0x5E17FC5225D4A099DF75359CE1F405503CA79498A8DC46A7D583235A0EE45C16 DUP2 MSTORE RETURN JUMPDEST POP POP CALLVALUE PUSH2 0x1B8 JUMPI DUP2 PUSH1 0x3 NOT CALLDATASIZE ADD SLT PUSH2 0x1B8 JUMPI PUSH1 0x20 SWAP1 PUSH1 0x3 SLOAD SWAP1 MLOAD SWAP1 DUP2 MSTORE RETURN JUMPDEST POP POP CALLVALUE PUSH2 0x1B8 JUMPI PUSH1 0x20 CALLDATASIZE PUSH1 0x3 NOT ADD SLT PUSH2 0x1B8 JUMPI PUSH1 0x20 SWAP1 PUSH2 0x530 PUSH2 0x11E3 PUSH2 0x12BE JUMP JUMPDEST PUSH2 0x165F JUMP JUMPDEST SWAP1 POP CALLVALUE PUSH2 0x46C JUMPI PUSH32 0x16E6F67290546B8DD0E587F4B7F67D4F61932AE17FFD8C60D3509DBC05C175FE SWAP2 PUSH2 0x5E3 PUSH2 0x121D CALLDATASIZE PUSH2 0x12A8 JUMP JUMPDEST SWAP1 SWAP4 PUSH2 0x1227 PUSH2 0x1488 JUMP JUMPDEST PUSH1 0x3 SLOAD SWAP4 DUP3 DUP3 SLOAD SWAP3 DUP8 PUSH1 0x3 SSTORE SSTORE MLOAD SWAP5 DUP6 SWAP5 DUP6 SWAP1 SWAP5 SWAP4 SWAP3 PUSH1 0x60 SWAP3 PUSH1 0x80 DUP4 ADD SWAP7 DUP4 MSTORE PUSH1 0x20 DUP4 ADD MSTORE PUSH1 0x40 DUP3 ADD MSTORE ADD MSTORE JUMP JUMPDEST DUP5 SWAP2 CALLVALUE PUSH2 0x46C JUMPI PUSH1 0x20 CALLDATASIZE PUSH1 0x3 NOT ADD SLT PUSH2 0x46C JUMPI CALLDATALOAD PUSH4 0xFFFFFFFF PUSH1 0xE0 SHL DUP2 AND DUP1 SWAP2 SUB PUSH2 0x46C JUMPI PUSH1 0x20 SWAP3 POP PUSH4 0x7965DB0B PUSH1 0xE0 SHL DUP2 EQ SWAP1 DUP2 ISZERO PUSH2 0x1297 JUMPI JUMPDEST POP ISZERO ISZERO DUP2 MSTORE RETURN JUMPDEST PUSH4 0x1FFC9A7 PUSH1 0xE0 SHL EQ SWAP1 POP DUP4 PUSH2 0x1290 JUMP JUMPDEST PUSH1 0x40 SWAP1 PUSH1 0x3 NOT ADD SLT PUSH2 0x498 JUMPI PUSH1 0x4 CALLDATALOAD SWAP1 PUSH1 0x24 CALLDATALOAD SWAP1 JUMP JUMPDEST PUSH1 0x4 CALLDATALOAD SWAP1 PUSH1 0x1 PUSH1 0x1 PUSH1 0xA0 SHL SUB DUP3 AND DUP3 SUB PUSH2 0x498 JUMPI JUMP JUMPDEST PUSH1 0x24 CALLDATALOAD SWAP1 PUSH1 0x1 PUSH1 0x1 PUSH1 0xA0 SHL SUB DUP3 AND DUP3 SUB PUSH2 0x498 JUMPI JUMP JUMPDEST SWAP1 PUSH1 0x0 SWAP2 DUP1 DUP4 MSTORE DUP3 PUSH1 0x20 MSTORE PUSH1 0x40 DUP4 KECCAK256 SWAP2 PUSH1 0x1 DUP1 PUSH1 0xA0 SHL SUB AND SWAP2 DUP3 DUP5 MSTORE PUSH1 0x20 MSTORE PUSH1 0xFF PUSH1 0x40 DUP5 KECCAK256 SLOAD AND PUSH1 0x0 EQ PUSH2 0x135F JUMPI DUP1 DUP4 MSTORE DUP3 PUSH1 0x20 MSTORE PUSH1 0x40 DUP4 KECCAK256 DUP3 DUP5 MSTORE PUSH1 0x20 MSTORE PUSH1 0x40 DUP4 KECCAK256 PUSH1 0xFF NOT DUP2 SLOAD AND SWAP1 SSTORE PUSH32 0xF6391F5C32D9C69D2A47EA670B442974B53935D1EDC7FD64EB21E047A839171B CALLER SWAP4 DUP1 LOG4 PUSH1 0x1 SWAP1 JUMP JUMPDEST POP POP SWAP1 JUMP JUMPDEST PUSH8 0xFFFFFFFFFFFFFFFF DUP2 GT PUSH2 0x1378 JUMPI PUSH1 0x40 MSTORE JUMP JUMPDEST PUSH4 0x4E487B71 PUSH1 0xE0 SHL PUSH1 0x0 MSTORE PUSH1 0x41 PUSH1 0x4 MSTORE PUSH1 0x24 PUSH1 0x0 REVERT JUMPDEST PUSH1 0x40 DUP2 ADD SWAP1 DUP2 LT PUSH8 0xFFFFFFFFFFFFFFFF DUP3 GT OR PUSH2 0x1378 JUMPI PUSH1 0x40 MSTORE JUMP JUMPDEST SWAP1 PUSH1 0x1F DUP1 NOT SWAP2 ADD AND DUP2 ADD SWAP1 DUP2 LT PUSH8 0xFFFFFFFFFFFFFFFF DUP3 GT OR PUSH2 0x1378 JUMPI PUSH1 0x40 MSTORE JUMP JUMPDEST DUP2 DUP2 MUL SWAP3 SWAP2 DUP2 ISZERO SWAP2 DUP5 DIV EQ OR ISZERO PUSH2 0x13DF JUMPI JUMP JUMPDEST PUSH4 0x4E487B71 PUSH1 0xE0 SHL PUSH1 0x0 MSTORE PUSH1 0x11 PUSH1 0x4 MSTORE PUSH1 0x24 PUSH1 0x0 REVERT JUMPDEST DUP2 ISZERO PUSH2 0x13FF JUMPI DIV SWAP1 JUMP JUMPDEST PUSH4 0x4E487B71 PUSH1 0xE0 SHL PUSH1 0x0 MSTORE PUSH1 0x12 PUSH1 0x4 MSTORE PUSH1 0x24 PUSH1 0x0 REVERT JUMPDEST SWAP2 SWAP1 DUP3 SUB SWAP2 DUP3 GT PUSH2 0x13DF JUMPI JUMP JUMPDEST SWAP2 SWAP1 DUP3 ADD DUP1 SWAP3 GT PUSH2 0x13DF JUMPI JUMP JUMPDEST SWAP1 DUP2 PUSH1 0x20 SWAP2 SUB SLT PUSH2 0x498 JUMPI MLOAD DUP1 ISZERO ISZERO DUP2 SUB PUSH2 0x498 JUMPI SWAP1 JUMP JUMPDEST PUSH1 0xFF PUSH1 0x2 SLOAD AND PUSH2 0x1453 JUMPI JUMP JUMPDEST PUSH1 0x40 MLOAD PUSH4 0xD93C0665 PUSH1 0xE0 SHL DUP2 MSTORE PUSH1 0x4 SWAP1 REVERT JUMPDEST PUSH1 0x2 PUSH1 0x1 SLOAD EQ PUSH2 0x1476 JUMPI PUSH1 0x2 PUSH1 0x1 SSTORE JUMP JUMPDEST PUSH1 0x40 MLOAD PUSH4 0x3EE5AEB5 PUSH1 0xE0 SHL DUP2 MSTORE PUSH1 0x4 SWAP1 REVERT JUMPDEST CALLER PUSH1 0x0 SWAP1 DUP2 MSTORE PUSH32 0x6F3B488CAA0DC03E5F3D9FD6A25FA8755AFCFD62CCFFB6E436C696BFA6B866DE PUSH1 0x20 MSTORE PUSH1 0x40 SWAP1 KECCAK256 SLOAD PUSH32 0x7935BD0AE54BC31F548C14DBA4D37C5C64B3F8CA900CB468FB8ABD54D5894F55 SWAP1 PUSH1 0xFF AND ISZERO PUSH2 0x14E4 JUMPI POP JUMP JUMPDEST PUSH1 0x44 SWAP1 PUSH1 0x40 MLOAD SWAP1 PUSH4 0xE2517D3F PUSH1 0xE0 SHL DUP3 MSTORE CALLER PUSH1 0x4 DUP4 ADD MSTORE PUSH1 0x24 DUP3 ADD MSTORE REVERT JUMPDEST CALLER PUSH1 0x0 SWAP1 DUP2 MSTORE PUSH32 0xF7C9542C591017A21C74B6F3FAB6263C7952FC0AAF9DB4C22A2A04DDC7F8674F PUSH1 0x20 MSTORE PUSH1 0x40 SWAP1 KECCAK256 SLOAD PUSH32 0x65D7A28E3265B37A6474929F336521B332C1681B933F6CB9F3376673440D862A SWAP1 PUSH1 0xFF AND ISZERO PUSH2 0x14E4 JUMPI POP JUMP JUMPDEST DUP1 PUSH1 0x0 MSTORE PUSH1 0x0 PUSH1 0x20 MSTORE PUSH1 0x40 PUSH1 0x0 KECCAK256 CALLER PUSH1 0x0 MSTORE PUSH1 0x20 MSTORE PUSH1 0xFF PUSH1 0x40 PUSH1 0x0 KECCAK256 SLOAD AND ISZERO PUSH2 0x14E4 JUMPI POP JUMP JUMPDEST PUSH1 0xA SLOAD DUP1 ISZERO PUSH2 0x1659 JUMPI PUSH1 0x40 MLOAD PUSH4 0x4C6AFEE5 PUSH1 0xE1 SHL DUP2 MSTORE PUSH1 0x20 DUP2 PUSH1 0x4 DUP2 PUSH32 0x0 PUSH1 0x1 PUSH1 0x1 PUSH1 0xA0 SHL SUB AND GAS STATICCALL SWAP1 DUP2 ISZERO PUSH2 0x164D JUMPI PUSH1 0x0 SWAP2 PUSH2 0x161A JUMPI JUMPDEST POP PUSH2 0x15F5 PUSH8 0xDE0B6B3A7640000 SWAP2 PUSH5 0xE8D4A51000 SWAP4 PUSH2 0x13CC JUMP JUMPDEST DIV DIV PUSH1 0x9 SLOAD SWAP1 PUSH1 0x64 DUP3 MUL SWAP2 DUP1 DUP4 DIV PUSH1 0x64 EQ SWAP1 ISZERO OR ISZERO PUSH2 0x13DF JUMPI PUSH2 0x1617 SWAP2 PUSH2 0x13F5 JUMP JUMPDEST SWAP1 JUMP JUMPDEST SWAP1 PUSH1 0x20 DUP3 RETURNDATASIZE DUP3 GT PUSH2 0x1645 JUMPI JUMPDEST DUP2 PUSH2 0x1633 PUSH1 0x20 SWAP4 DUP4 PUSH2 0x13AA JUMP JUMPDEST DUP2 ADD SUB SLT PUSH2 0xAD3 JUMPI POP MLOAD PUSH2 0x15F5 PUSH2 0x15DB JUMP JUMPDEST RETURNDATASIZE SWAP2 POP PUSH2 0x1626 JUMP JUMPDEST PUSH1 0x40 MLOAD RETURNDATASIZE PUSH1 0x0 DUP3 RETURNDATACOPY RETURNDATASIZE SWAP1 REVERT JUMPDEST POP PUSH1 0x0 SWAP1 JUMP JUMPDEST SWAP1 PUSH1 0x1 DUP1 PUSH1 0xA0 SHL SUB DUP1 PUSH1 0x0 SWAP4 AND DUP4 MSTORE PUSH1 0x20 SWAP1 PUSH1 0x8 DUP3 MSTORE PUSH1 0x40 DUP5 KECCAK256 SWAP2 PUSH1 0x1 PUSH1 0x40 MLOAD SWAP4 PUSH2 0x1689 DUP6 PUSH2 0x138E JUMP JUMPDEST DUP1 SLOAD DUP6 MSTORE ADD SLOAD SWAP2 DUP2 DUP5 ADD SWAP3 DUP1 DUP5 MSTORE ISZERO PUSH2 0x1772 JUMPI DUP2 PUSH1 0x4 SWAP2 PUSH1 0x40 MLOAD SWAP3 DUP4 DUP1 SWAP3 PUSH4 0x4C6AFEE5 PUSH1 0xE1 SHL DUP3 MSTORE PUSH32 0x0 AND GAS STATICCALL SWAP2 DUP3 ISZERO PUSH2 0x1767 JUMPI DUP7 SWAP3 PUSH2 0x1733 JUMPI JUMPDEST POP POP PUSH2 0x16FE SWAP1 PUSH13 0xC9F2C9CD04674EDEA40000000 SWAP3 MLOAD PUSH2 0x13CC JUMP JUMPDEST DIV SWAP1 MLOAD PUSH1 0x64 DUP2 MUL SWAP1 DUP1 DUP3 DIV PUSH1 0x64 EQ SWAP1 ISZERO OR ISZERO PUSH2 0x171F JUMPI PUSH2 0x1617 SWAP3 SWAP4 POP PUSH2 0x13F5 JUMP JUMPDEST PUSH4 0x4E487B71 PUSH1 0xE0 SHL DUP5 MSTORE PUSH1 0x11 PUSH1 0x4 MSTORE PUSH1 0x24 DUP5 REVERT JUMPDEST SWAP1 DUP1 SWAP3 POP DUP2 RETURNDATASIZE DUP4 GT PUSH2 0x1760 JUMPI JUMPDEST PUSH2 0x174A DUP2 DUP4 PUSH2 0x13AA JUMP JUMPDEST DUP2 ADD SUB SLT PUSH2 0x175C JUMPI MLOAD DUP2 PUSH2 0x16FE PUSH2 0x16E3 JUMP JUMPDEST DUP5 DUP1 REVERT JUMPDEST POP RETURNDATASIZE PUSH2 0x1740 JUMP JUMPDEST PUSH1 0x40 MLOAD RETURNDATASIZE DUP9 DUP3 RETURNDATACOPY RETURNDATASIZE SWAP1 REVERT JUMPDEST POP POP POP POP JUMP JUMPDEST PUSH1 0x1 PUSH1 0x1 PUSH1 0xA0 SHL SUB AND PUSH1 0x0 SWAP1 DUP2 MSTORE PUSH1 0x8 PUSH1 0x20 MSTORE PUSH1 0x40 DUP1 DUP3 KECCAK256 SWAP1 MLOAD SWAP1 SWAP2 PUSH2 0x179D DUP3 PUSH2 0x138E JUMP JUMPDEST PUSH1 0x20 PUSH1 0x1 DUP5 SLOAD SWAP5 DUP6 DUP6 MSTORE ADD SLOAD SWAP3 ADD SWAP2 DUP1 DUP4 MSTORE ISZERO PUSH2 0x1833 JUMPI PUSH1 0x64 DUP4 MUL SWAP3 DUP1 DUP5 DIV PUSH1 0x64 EQ DUP2 ISZERO OR ISZERO PUSH2 0x181F JUMPI PUSH14 0x4EE2D6D415B85ACEF8100000000 MUL SWAP3 DUP1 DUP5 DIV PUSH13 0xC9F2C9CD04674EDEA40000000 EQ SWAP1 ISZERO OR ISZERO PUSH2 0x180B JUMPI POP SWAP1 PUSH2 0x1805 PUSH2 0x1617 SWAP3 MLOAD PUSH1 0x6 SLOAD SWAP1 PUSH2 0x13CC JUMP JUMPDEST SWAP1 PUSH2 0x13F5 JUMP JUMPDEST PUSH4 0x4E487B71 PUSH1 0xE0 SHL DUP2 MSTORE PUSH1 0x11 PUSH1 0x4 MSTORE PUSH1 0x24 SWAP1 REVERT JUMPDEST PUSH4 0x4E487B71 PUSH1 0xE0 SHL DUP3 MSTORE PUSH1 0x11 PUSH1 0x4 MSTORE PUSH1 0x24 DUP3 REVERT JUMPDEST SWAP2 POP POP SWAP1 JUMP JUMPDEST SWAP1 PUSH1 0x0 SWAP2 DUP1 DUP4 MSTORE DUP3 PUSH1 0x20 MSTORE PUSH1 0x40 DUP4 KECCAK256 SWAP2 PUSH1 0x1 DUP1 PUSH1 0xA0 SHL SUB AND SWAP2 DUP3 DUP5 MSTORE PUSH1 0x20 MSTORE PUSH1 0xFF PUSH1 0x40 DUP5 KECCAK256 SLOAD AND ISZERO PUSH1 0x0 EQ PUSH2 0x135F JUMPI DUP1 DUP4 MSTORE DUP3 PUSH1 0x20 MSTORE PUSH1 0x40 DUP4 KECCAK256 DUP3 DUP5 MSTORE PUSH1 0x20 MSTORE PUSH1 0x40 DUP4 KECCAK256 PUSH1 0x1 PUSH1 0xFF NOT DUP3 SLOAD AND OR SWAP1 SSTORE PUSH32 0x2F8788117E7EFF1D82E926EC794901D17C78024A50270940304540A733656F0D CALLER SWAP4 DUP1 LOG4 PUSH1 0x1 SWAP1 JUMP INVALID LOG2 PUSH5 0x6970667358 0x22 SLT KECCAK256 0xEA SHL SWAP12 SWAP9 RETURNDATACOPY 0x2F 0xD5 SWAP10 0x49 CREATE2 MLOAD MUL PUSH13 0x55AE0EAADDAF09C652330F60C7 0xB8 0xE3 EXTCODECOPY 0x1E SWAP4 PUSH20 0x64736F6C634300081500332F8788117E7EFF1D82 0xE9 0x26 0xEC PUSH26 0x4901D17C78024A50270940304540A733656F0DAD3228B676F7D3 0xCD TIMESTAMP DUP5 0xA5 PREVRANDAO EXTCODEHASH OR CALL SWAP7 0x2B CALLDATASIZE 0xE4 SWAP2 0xB3 EXP BLOCKHASH 0xB2 BLOCKHASH PC 0x49 0xE5 SWAP8 0xBA PUSH0 0xB5 "},"methodIdentifiers":{"DEFAULT_ADMIN_ROLE()":"a217fddf","GOVERNOR_ROLE()":"ccc57490","LIQUIDATOR_ROLE()":"16d8887a","PAUSER_ROLE()":"e63ab1e9","bvix()":"9f80fb4e","getCollateralRatio()":"cd377c53","getLiquidationPrice(address)":"17d8de82","getRoleAdmin(bytes32)":"248a9ca3","getUserCollateralRatio(address)":"10b45de1","grantRole(bytes32,address)":"2f2ff15d","hasRole(bytes32,address)":"91d14854","liquidate(address)":"2f865568","liquidationBonus()":"7b7c1f4c","liquidationThreshold()":"4031234c","minCollateralRatio()":"84da2666","mintFee()":"13966db5","mintWithCollateralRatio(uint256,uint256)":"6008d28b","oracle()":"7dc0d1d0","pause()":"8456cb59","paused()":"5c975abb","positions(address)":"55f57510","redeem(uint256)":"db006a75","redeemFee()":"965fa21e","renounceRole(bytes32,address)":"36568abe","revokeRole(bytes32,address)":"d547741f","setFees(uint256,uint256)":"0b78f9c0","setLiquidationParams(uint256,uint256)":"c6e7275d","setMinCollateralRatio(uint256)":"38536275","supportsInterface(bytes4)":"01ffc9a7","sweepTokens(address,address,uint256)":"8b6ca32c","totalCollateral()":"4ac8eb5f","totalDebt()":"fc7b9c18","unpause()":"3f4ba83a","usdc()":"3e413bee"}}}}}