{"contracts/PriceOracle.sol":{"PriceOracle":{"abi":[{"inputs":[{"internalType":"uint256","name":"_initialPrice","type":"uint256"},{"internalType":"uint256","name":"_updateDelay","type":"uint256"},{"internalType":"address","name":"_governor","type":"address"}],"stateMutability":"nonpayable","type":"constructor"},{"inputs":[],"name":"AccessControlBadConfirmation","type":"error"},{"inputs":[{"internalType":"address","name":"account","type":"address"},{"internalType":"bytes32","name":"neededRole","type":"bytes32"}],"name":"AccessControlUnauthorizedAccount","type":"error"},{"inputs":[],"name":"EnforcedPause","type":"error"},{"inputs":[],"name":"ExpectedPause","type":"error"},{"inputs":[],"name":"InvalidPrice","type":"error"},{"inputs":[],"name":"PriceOutOfBounds","type":"error"},{"inputs":[],"name":"ReentrancyGuardReentrantCall","type":"error"},{"inputs":[],"name":"TimelockNotExpired","type":"error"},{"inputs":[],"name":"UpdateTooFrequent","type":"error"},{"anonymous":false,"inputs":[{"indexed":false,"internalType":"uint256","name":"newPrice","type":"uint256"},{"indexed":false,"internalType":"address","name":"updater","type":"address"}],"name":"EmergencyPriceUpdate","type":"event"},{"anonymous":false,"inputs":[{"indexed":false,"internalType":"address","name":"account","type":"address"}],"name":"Paused","type":"event"},{"anonymous":false,"inputs":[{"indexed":false,"internalType":"uint256","name":"oldPrice","type":"uint256"},{"indexed":false,"internalType":"uint256","name":"newPrice","type":"uint256"},{"indexed":false,"internalType":"uint256","name":"timestamp","type":"uint256"}],"name":"PriceUpdated","type":"event"},{"anonymous":false,"inputs":[{"indexed":true,"internalType":"bytes32","name":"role","type":"bytes32"},{"indexed":true,"internalType":"bytes32","name":"previousAdminRole","type":"bytes32"},{"indexed":true,"internalType":"bytes32","name":"newAdminRole","type":"bytes32"}],"name":"RoleAdminChanged","type":"event"},{"anonymous":false,"inputs":[{"indexed":true,"internalType":"bytes32","name":"role","type":"bytes32"},{"indexed":true,"internalType":"address","name":"account","type":"address"},{"indexed":true,"internalType":"address","name":"sender","type":"address"}],"name":"RoleGranted","type":"event"},{"anonymous":false,"inputs":[{"indexed":true,"internalType":"bytes32","name":"role","type":"bytes32"},{"indexed":true,"internalType":"address","name":"account","type":"address"},{"indexed":true,"internalType":"address","name":"sender","type":"address"}],"name":"RoleRevoked","type":"event"},{"anonymous":false,"inputs":[{"indexed":false,"internalType":"address","name":"account","type":"address"}],"name":"Unpaused","type":"event"},{"anonymous":false,"inputs":[{"indexed":false,"internalType":"uint256","name":"oldDelay","type":"uint256"},{"indexed":false,"internalType":"uint256","name":"newDelay","type":"uint256"}],"name":"UpdateDelayChanged","type":"event"},{"inputs":[],"name":"DEFAULT_ADMIN_ROLE","outputs":[{"internalType":"bytes32","name":"","type":"bytes32"}],"stateMutability":"view","type":"function"},{"inputs":[],"name":"GOVERNOR_ROLE","outputs":[{"internalType":"bytes32","name":"","type":"bytes32"}],"stateMutability":"view","type":"function"},{"inputs":[],"name":"MAX_PRICE","outputs":[{"internalType":"uint256","name":"","type":"uint256"}],"stateMutability":"view","type":"function"},{"inputs":[],"name":"MIN_PRICE","outputs":[{"internalType":"uint256","name":"","type":"uint256"}],"stateMutability":"view","type":"function"},{"inputs":[],"name":"PAUSER_ROLE","outputs":[{"internalType":"bytes32","name":"","type":"bytes32"}],"stateMutability":"view","type":"function"},{"inputs":[],"name":"PRICE_UPDATER_ROLE","outputs":[{"internalType":"bytes32","name":"","type":"bytes32"}],"stateMutability":"view","type":"function"},{"inputs":[],"name":"TWAP_BUFFER","outputs":[{"internalType":"uint256","name":"","type":"uint256"}],"stateMutability":"view","type":"function"},{"inputs":[],"name":"canUpdatePrice","outputs":[{"internalType":"bool","name":"","type":"bool"}],"stateMutability":"view","type":"function"},{"inputs":[{"internalType":"uint256","name":"_newPrice","type":"uint256"}],"name":"emergencyUpdatePrice","outputs":[],"stateMutability":"nonpayable","type":"function"},{"inputs":[],"name":"getPrice","outputs":[{"internalType":"uint256","name":"","type":"uint256"}],"stateMutability":"view","type":"function"},{"inputs":[],"name":"getPriceWithStaleness","outputs":[{"internalType":"uint256","name":"","type":"uint256"},{"internalType":"bool","name":"","type":"bool"}],"stateMutability":"view","type":"function"},{"inputs":[{"internalType":"bytes32","name":"role","type":"bytes32"}],"name":"getRoleAdmin","outputs":[{"internalType":"bytes32","name":"","type":"bytes32"}],"stateMutability":"view","type":"function"},{"inputs":[{"internalType":"bytes32","name":"role","type":"bytes32"},{"internalType":"address","name":"account","type":"address"}],"name":"grantRole","outputs":[],"stateMutability":"nonpayable","type":"function"},{"inputs":[{"internalType":"bytes32","name":"role","type":"bytes32"},{"internalType":"address","name":"account","type":"address"}],"name":"hasRole","outputs":[{"internalType":"bool","name":"","type":"bool"}],"stateMutability":"view","type":"function"},{"inputs":[],"name":"lastPriceUpdate","outputs":[{"internalType":"uint256","name":"","type":"uint256"}],"stateMutability":"view","type":"function"},{"inputs":[],"name":"lastUpdateTime","outputs":[{"internalType":"uint256","name":"","type":"uint256"}],"stateMutability":"view","type":"function"},{"inputs":[],"name":"pause","outputs":[],"stateMutability":"nonpayable","type":"function"},{"inputs":[],"name":"paused","outputs":[{"internalType":"bool","name":"","type":"bool"}],"stateMutability":"view","type":"function"},{"inputs":[],"name":"price","outputs":[{"internalType":"uint256","name":"","type":"uint256"}],"stateMutability":"view","type":"function"},{"inputs":[{"internalType":"uint256","name":"_newPrice","type":"uint256"}],"name":"pushPrice","outputs":[],"stateMutability":"nonpayable","type":"function"},{"inputs":[{"internalType":"bytes32","name":"role","type":"bytes32"},{"internalType":"address","name":"callerConfirmation","type":"address"}],"name":"renounceRole","outputs":[],"stateMutability":"nonpayable","type":"function"},{"inputs":[{"internalType":"bytes32","name":"role","type":"bytes32"},{"internalType":"address","name":"account","type":"address"}],"name":"revokeRole","outputs":[],"stateMutability":"nonpayable","type":"function"},{"inputs":[{"internalType":"uint256","name":"_newDelay","type":"uint256"}],"name":"setUpdateDelay","outputs":[],"stateMutability":"nonpayable","type":"function"},{"inputs":[{"internalType":"bytes4","name":"interfaceId","type":"bytes4"}],"name":"supportsInterface","outputs":[{"internalType":"bool","name":"","type":"bool"}],"stateMutability":"view","type":"function"},{"inputs":[],"name":"timeUntilUpdateAllowed","outputs":[{"internalType":"uint256","name":"","type":"uint256"}],"stateMutability":"view","type":"function"},{"inputs":[],"name":"unpause","outputs":[],"stateMutability":"nonpayable","type":"function"},{"inputs":[],"name":"updateDelay","outputs":[{"internalType":"uint256","name":"","type":"uint256"}],"stateMutability":"view","type":"function"}],"evm":{"bytecode":{"linkReferences":{},"object":"608034620000f457601f62000f5438819003918201601f19168301916001600160401b03831184841017620000f957808492606094604052833981010312620000f4578051602082015160409092015190916001600160a01b0382168203620000f45760018055620f424083108015620000e5575b620000d357620000b692600355426004554260065560055562000097816200010f565b50620000a3816200017e565b50620000af8162000220565b50620002bd565b50620000c2336200035a565b50604051610b3f9081620003d58239f35b604051636e4ba61d60e01b8152600490fd5b5064e8d4a51000831162000074565b600080fd5b634e487b7160e01b600052604160045260246000fd5b6001600160a01b0316600081815260008051602062000f34833981519152602052604081205490919060ff166200017a57818052816020526040822081835260205260408220600160ff19825416179055339160008051602062000f148339815191528180a4600190565b5090565b6001600160a01b031660008181527f6f3b488caa0dc03e5f3d9fd6a25fa8755afcfd62ccffb6e436c696bfa6b866de60205260408120549091907f7935bd0ae54bc31f548c14dba4d37c5c64b3f8ca900cb468fb8abd54d5894f559060ff166200021b57808352826020526040832082845260205260408320600160ff1982541617905560008051602062000f14833981519152339380a4600190565b505090565b6001600160a01b031660008181527fa1f9a07a38f9bd607bcb708ae5358a1ce4e79f14575e0c448403e6797e53e60760205260408120549091907fd96ba01d6560c2ab35f2940dd8d70c5f5fe06236c72674237120515918198fb09060ff166200021b57808352826020526040832082845260205260408320600160ff1982541617905560008051602062000f14833981519152339380a4600190565b6001600160a01b031660008181527ff7c9542c591017a21c74b6f3fab6263c7952fc0aaf9db4c22a2a04ddc7f8674f60205260408120549091907f65d7a28e3265b37a6474929f336521b332c1681b933f6cb9f3376673440d862a9060ff166200021b57808352826020526040832082845260205260408320600160ff1982541617905560008051602062000f14833981519152339380a4600190565b6001600160a01b0316600081815260008051602062000f34833981519152602052604081205490919060ff16156200017a5781805281602052604082208183526020526040822060ff19815416905533917ff6391f5c32d9c69d2a47ea670b442974b53935d1edc7fd64eb21e047a839171b8180a460019056fe608060408181526004918236101561001657600080fd5b600092833560e01c91826301c11d96146108235750816301ffc9a7146107cd57816309d3cbda1461077857816317b6c44714610626578163248a9ca3146105fc5781632f2ff15d146105de57816336568abe146105a35781633f4ba83a146105395781634baa17aa146104cf578163554f94db146104b05781635c975abb1461048c57816363ff8b0b146104705781636949faeb146104515781638456cb59146103f65781638f537ca81461036157816391d148541461032757816398d5fdca14610308578163a035b1fe14610308578163a217fddf146102ed578163ad9f20a6146102cf578163c8f33c91146102ad578163ccc5749014610272578163d547741f14610235578163df462f3414610211578163e4f53e85146101c557508063e63ab1e91461018b5763fb8d81011461014e57600080fd5b34610187578160031936011261018757602090517fd96ba01d6560c2ab35f2940dd8d70c5f5fe06236c72674237120515918198fb08152f35b5080fd5b5034610187578160031936011261018757602090517f65d7a28e3265b37a6474929f336521b332c1681b933f6cb9f3376673440d862a8152f35b9050823461020e578060031936011261020e57815491610e1083018093116101fb57505060035490825191825242116020820152f35b634e487b7160e01b825260119052602490fd5b80fd5b50503461018757816003193601126101875760209061022e610ac0565b9051908152f35b50503461018757600161026e9161026961024e36610842565b93909261025961090a565b83875286602052862001546109e0565b61086d565b5080f35b505034610187578160031936011261018757602090517f7935bd0ae54bc31f548c14dba4d37c5c64b3f8ca900cb468fb8abd54d5894f558152f35b9050346102cb57826003193601126102cb5760209250549051908152f35b8280fd5b50503461018757816003193601126101875760209051620f42408152f35b50503461018757816003193601126101875751908152602090f35b5050346101875781600319360112610187576020906003549051908152f35b5050346101875760ff8160209361033d36610842565b9082528186528282206001600160a01b039091168252855220549151911615158152f35b83833461018757602036600319011261018757823561037e61090a565b610386610a24565b620f4240811080156103e8575b6103d8577f8559686ae2cfd580da184cf8256c4af4694534c7f8190e8178716147ba6576c4929381600355429055426006558151908152336020820152a16001805580f35b8151636e4ba61d60e01b81528490fd5b5064e8d4a510008111610393565b50503461018757816003193601126101875760207f62e78cea01bee320cd4e420270b5ea74000d11b0c9f74754ebdbfc544b05a25891610434610984565b61043c610a06565b600160ff19600254161760025551338152a180f35b5050346101875781600319360112610187576020906006549051908152f35b5050346101875781600319360112610187576020905160b48152f35b50503461018757816003193601126101875760209060ff6002541690519015158152f35b5050346101875781600319360112610187576020906005549051908152f35b8383346101875781600319360112610187576104ef8354600554906108e7565b4210159182610505575b60208383519015158152f35b9091506006549060b4820180921161052657506020925042101590836104f9565b634e487b7160e01b815260118452602490fd5b9050346102cb57826003193601126102cb57610553610984565b6002549060ff821615610595575060ff1916600255513381527f5db9ee0a495bf2e6ff9c91a7834c1ba4fdd244a5e8aa4e537bd38aeae4b073aa90602090a180f35b8251638dfc202b60e01b8152fd5b838334610187576105b336610842565b91336001600160a01b038416036105cf57509061026e9161086d565b5163334bd91960e11b81528490fd5b50503461018757600161026e916105f761024e36610842565b610a47565b9050346102cb5760203660031901126102cb57816020936001923581528085522001549051908152f35b919050346102cb5760203660031901126102cb5781357fd96ba01d6560c2ab35f2940dd8d70c5f5fe06236c72674237120515918198fb08085528460205282852033865260205260ff83862054161561075a5750610682610a24565b61068a610a06565b620f42408110801561074c575b61073e576106a98354600554906108e7565b42106107305760065460b4810180911161071d57421061070f57916060917f15819dd2fd9f6418b142e798d08a18d0bf06ea368f4480b7b0d3f75bd966bc4893600354928160035542905542600655815192835260208301524290820152a16001805580f35b50516329fbd37760e11b8152fd5b634e487b7160e01b855260118452602485fd5b505163621e25c360e01b8152fd5b5051636e4ba61d60e01b8152fd5b5064e8d4a510008111610697565b825163e2517d3f60e01b815233818601526024810191909152604490fd5b919050346102cb5760203660031901126102cb577f7089a533e4a49f725982682d482d42c6b83f7a3a48533818b3a63a8bb44f7e1791356107b761090a565b600554908060055582519182526020820152a180f35b9050346102cb5760203660031901126102cb57359063ffffffff60e01b82168092036102cb5760209250637965db0b60e01b8214918215610812575b50519015158152f35b6301ffc9a760e01b14915038610809565b8490346101875781600319360112610187578064e8d4a5100060209252f35b604090600319011261086857600435906024356001600160a01b03811681036108685790565b600080fd5b9060009180835282602052604083209160018060a01b03169182845260205260ff6040842054166000146108e25780835282602052604083208284526020526040832060ff1981541690557ff6391f5c32d9c69d2a47ea670b442974b53935d1edc7fd64eb21e047a839171b339380a4600190565b505090565b919082018092116108f457565b634e487b7160e01b600052601160045260246000fd5b3360009081527f6f3b488caa0dc03e5f3d9fd6a25fa8755afcfd62ccffb6e436c696bfa6b866de60205260409020547f7935bd0ae54bc31f548c14dba4d37c5c64b3f8ca900cb468fb8abd54d5894f559060ff16156109665750565b6044906040519063e2517d3f60e01b82523360048301526024820152fd5b3360009081527ff7c9542c591017a21c74b6f3fab6263c7952fc0aaf9db4c22a2a04ddc7f8674f60205260409020547f65d7a28e3265b37a6474929f336521b332c1681b933f6cb9f3376673440d862a9060ff16156109665750565b80600052600060205260406000203360005260205260ff60406000205416156109665750565b60ff60025416610a1257565b60405163d93c066560e01b8152600490fd5b600260015414610a35576002600155565b604051633ee5aeb560e01b8152600490fd5b9060009180835282602052604083209160018060a01b03169182845260205260ff604084205416156000146108e257808352826020526040832082845260205260408320600160ff198254161790557f2f8788117e7eff1d82e926ec794901d17c78024a50270940304540a733656f0d339380a4600190565b610acf600454600554906108e7565b60065460b481018091116108f45780821115610b0257505b80421015610afc574281039081116108f45790565b50600090565b9050610ae756fea264697066735822122088d6766406920e4b2f1b606ee4bcc4fca3e643c6f337613c8ff90e998e9cb3aa64736f6c634300081500332f8788117e7eff1d82e926ec794901d17c78024a50270940304540a733656f0dad3228b676f7d3cd4284a5443f17f1962b36e491b30a40b2405849e597ba5fb5","opcodes":"PUSH1 0x80 CALLVALUE PUSH3 0xF4 JUMPI PUSH1 0x1F PUSH3 0xF54 CODESIZE DUP2 SWAP1 SUB SWAP2 DUP3 ADD PUSH1 0x1F NOT AND DUP4 ADD SWAP2 PUSH1 0x1 PUSH1 0x1 PUSH1 0x40 SHL SUB DUP4 GT DUP5 DUP5 LT OR PUSH3 0xF9 JUMPI DUP1 DUP5 SWAP3 PUSH1 0x60 SWAP5 PUSH1 0x40 MSTORE DUP4 CODECOPY DUP2 ADD SUB SLT PUSH3 0xF4 JUMPI DUP1 MLOAD PUSH1 0x20 DUP3 ADD MLOAD PUSH1 0x40 SWAP1 SWAP3 ADD MLOAD SWAP1 SWAP2 PUSH1 0x1 PUSH1 0x1 PUSH1 0xA0 SHL SUB DUP3 AND DUP3 SUB PUSH3 0xF4 JUMPI PUSH1 0x1 DUP1 SSTORE PUSH3 0xF4240 DUP4 LT DUP1 ISZERO PUSH3 0xE5 JUMPI JUMPDEST PUSH3 0xD3 JUMPI PUSH3 0xB6 SWAP3 PUSH1 0x3 SSTORE TIMESTAMP PUSH1 0x4 SSTORE TIMESTAMP PUSH1 0x6 SSTORE PUSH1 0x5 SSTORE PUSH3 0x97 DUP2 PUSH3 0x10F JUMP JUMPDEST POP PUSH3 0xA3 DUP2 PUSH3 0x17E JUMP JUMPDEST POP PUSH3 0xAF DUP2 PUSH3 0x220 JUMP JUMPDEST POP PUSH3 0x2BD JUMP JUMPDEST POP PUSH3 0xC2 CALLER PUSH3 0x35A JUMP JUMPDEST POP PUSH1 0x40 MLOAD PUSH2 0xB3F SWAP1 DUP2 PUSH3 0x3D5 DUP3 CODECOPY RETURN JUMPDEST PUSH1 0x40 MLOAD PUSH4 0x6E4BA61D PUSH1 0xE0 SHL DUP2 MSTORE PUSH1 0x4 SWAP1 REVERT JUMPDEST POP PUSH5 0xE8D4A51000 DUP4 GT PUSH3 0x74 JUMP JUMPDEST PUSH1 0x0 DUP1 REVERT JUMPDEST PUSH4 0x4E487B71 PUSH1 0xE0 SHL PUSH1 0x0 MSTORE PUSH1 0x41 PUSH1 0x4 MSTORE PUSH1 0x24 PUSH1 0x0 REVERT JUMPDEST PUSH1 0x1 PUSH1 0x1 PUSH1 0xA0 SHL SUB AND PUSH1 0x0 DUP2 DUP2 MSTORE PUSH1 0x0 DUP1 MLOAD PUSH1 0x20 PUSH3 0xF34 DUP4 CODECOPY DUP2 MLOAD SWAP2 MSTORE PUSH1 0x20 MSTORE PUSH1 0x40 DUP2 KECCAK256 SLOAD SWAP1 SWAP2 SWAP1 PUSH1 0xFF AND PUSH3 0x17A JUMPI DUP2 DUP1 MSTORE DUP2 PUSH1 0x20 MSTORE PUSH1 0x40 DUP3 KECCAK256 DUP2 DUP4 MSTORE PUSH1 0x20 MSTORE PUSH1 0x40 DUP3 KECCAK256 PUSH1 0x1 PUSH1 0xFF NOT DUP3 SLOAD AND OR SWAP1 SSTORE CALLER SWAP2 PUSH1 0x0 DUP1 MLOAD PUSH1 0x20 PUSH3 0xF14 DUP4 CODECOPY DUP2 MLOAD SWAP2 MSTORE DUP2 DUP1 LOG4 PUSH1 0x1 SWAP1 JUMP JUMPDEST POP SWAP1 JUMP JUMPDEST PUSH1 0x1 PUSH1 0x1 PUSH1 0xA0 SHL SUB AND PUSH1 0x0 DUP2 DUP2 MSTORE PUSH32 0x6F3B488CAA0DC03E5F3D9FD6A25FA8755AFCFD62CCFFB6E436C696BFA6B866DE PUSH1 0x20 MSTORE PUSH1 0x40 DUP2 KECCAK256 SLOAD SWAP1 SWAP2 SWAP1 PUSH32 0x7935BD0AE54BC31F548C14DBA4D37C5C64B3F8CA900CB468FB8ABD54D5894F55 SWAP1 PUSH1 0xFF AND PUSH3 0x21B JUMPI DUP1 DUP4 MSTORE DUP3 PUSH1 0x20 MSTORE PUSH1 0x40 DUP4 KECCAK256 DUP3 DUP5 MSTORE PUSH1 0x20 MSTORE PUSH1 0x40 DUP4 KECCAK256 PUSH1 0x1 PUSH1 0xFF NOT DUP3 SLOAD AND OR SWAP1 SSTORE PUSH1 0x0 DUP1 MLOAD PUSH1 0x20 PUSH3 0xF14 DUP4 CODECOPY DUP2 MLOAD SWAP2 MSTORE CALLER SWAP4 DUP1 LOG4 PUSH1 0x1 SWAP1 JUMP JUMPDEST POP POP SWAP1 JUMP JUMPDEST PUSH1 0x1 PUSH1 0x1 PUSH1 0xA0 SHL SUB AND PUSH1 0x0 DUP2 DUP2 MSTORE PUSH32 0xA1F9A07A38F9BD607BCB708AE5358A1CE4E79F14575E0C448403E6797E53E607 PUSH1 0x20 MSTORE PUSH1 0x40 DUP2 KECCAK256 SLOAD SWAP1 SWAP2 SWAP1 PUSH32 0xD96BA01D6560C2AB35F2940DD8D70C5F5FE06236C72674237120515918198FB0 SWAP1 PUSH1 0xFF AND PUSH3 0x21B JUMPI DUP1 DUP4 MSTORE DUP3 PUSH1 0x20 MSTORE PUSH1 0x40 DUP4 KECCAK256 DUP3 DUP5 MSTORE PUSH1 0x20 MSTORE PUSH1 0x40 DUP4 KECCAK256 PUSH1 0x1 PUSH1 0xFF NOT DUP3 SLOAD AND OR SWAP1 SSTORE PUSH1 0x0 DUP1 MLOAD PUSH1 0x20 PUSH3 0xF14 DUP4 CODECOPY DUP2 MLOAD SWAP2 MSTORE CALLER SWAP4 DUP1 LOG4 PUSH1 0x1 SWAP1 JUMP JUMPDEST PUSH1 0x1 PUSH1 0x1 PUSH1 0xA0 SHL SUB AND PUSH1 0x0 DUP2 DUP2 MSTORE PUSH32 0xF7C9542C591017A21C74B6F3FAB6263C7952FC0AAF9DB4C22A2A04DDC7F8674F PUSH1 0x20 MSTORE PUSH1 0x40 DUP2 KECCAK256 SLOAD SWAP1 SWAP2 SWAP1 PUSH32 0x65D7A28E3265B37A6474929F336521B332C1681B933F6CB9F3376673440D862A SWAP1 PUSH1 0xFF AND PUSH3 0x21B JUMPI DUP1 DUP4 MSTORE DUP3 PUSH1 0x20 MSTORE PUSH1 0x40 DUP4 KECCAK256 DUP3 DUP5 MSTORE PUSH1 0x20 MSTORE PUSH1 0x40 DUP4 KECCAK256 PUSH1 0x1 PUSH1 0xFF NOT DUP3 SLOAD AND OR SWAP1 SSTORE PUSH1 0x0 DUP1 MLOAD PUSH1 0x20 PUSH3 0xF14 DUP4 CODECOPY DUP2 MLOAD SWAP2 MSTORE CALLER SWAP4 DUP1 LOG4 PUSH1 0x1 SWAP1 JUMP JUMPDEST PUSH1 0x1 PUSH1 0x1 PUSH1 0xA0 SHL SUB AND PUSH1 0x0 DUP2 DUP2 MSTORE PUSH1 0x0 DUP1 MLOAD PUSH1 0x20 PUSH3 0xF34 DUP4 CODECOPY DUP2 MLOAD SWAP2 MSTORE PUSH1 0x20 MSTORE PUSH1 0x40 DUP2 KECCAK256 SLOAD SWAP1 SWAP2 SWAP1 PUSH1 0xFF AND ISZERO PUSH3 0x17A JUMPI DUP2 DUP1 MSTORE DUP2 PUSH1 0x20 MSTORE PUSH1 0x40 DUP3 KECCAK256 DUP2 DUP4 MSTORE PUSH1 0x20 MSTORE PUSH1 0x40 DUP3 KECCAK256 PUSH1 0xFF NOT DUP2 SLOAD AND SWAP1 SSTORE CALLER SWAP2 PUSH32 0xF6391F5C32D9C69D2A47EA670B442974B53935D1EDC7FD64EB21E047A839171B DUP2 DUP1 LOG4 PUSH1 0x1 SWAP1 JUMP INVALID PUSH1 0x80 PUSH1 0x40 DUP2 DUP2 MSTORE PUSH1 0x4 SWAP2 DUP3 CALLDATASIZE LT ISZERO PUSH2 0x16 JUMPI PUSH1 0x0 DUP1 REVERT JUMPDEST PUSH1 0x0 SWAP3 DUP4 CALLDATALOAD PUSH1 0xE0 SHR SWAP2 DUP3 PUSH4 0x1C11D96 EQ PUSH2 0x823 JUMPI POP DUP2 PUSH4 0x1FFC9A7 EQ PUSH2 0x7CD JUMPI DUP2 PUSH4 0x9D3CBDA EQ PUSH2 0x778 JUMPI DUP2 PUSH4 0x17B6C447 EQ PUSH2 0x626 JUMPI DUP2 PUSH4 0x248A9CA3 EQ PUSH2 0x5FC JUMPI DUP2 PUSH4 0x2F2FF15D EQ PUSH2 0x5DE JUMPI DUP2 PUSH4 0x36568ABE EQ PUSH2 0x5A3 JUMPI DUP2 PUSH4 0x3F4BA83A EQ PUSH2 0x539 JUMPI DUP2 PUSH4 0x4BAA17AA EQ PUSH2 0x4CF JUMPI DUP2 PUSH4 0x554F94DB EQ PUSH2 0x4B0 JUMPI DUP2 PUSH4 0x5C975ABB EQ PUSH2 0x48C JUMPI DUP2 PUSH4 0x63FF8B0B EQ PUSH2 0x470 JUMPI DUP2 PUSH4 0x6949FAEB EQ PUSH2 0x451 JUMPI DUP2 PUSH4 0x8456CB59 EQ PUSH2 0x3F6 JUMPI DUP2 PUSH4 0x8F537CA8 EQ PUSH2 0x361 JUMPI DUP2 PUSH4 0x91D14854 EQ PUSH2 0x327 JUMPI DUP2 PUSH4 0x98D5FDCA EQ PUSH2 0x308 JUMPI DUP2 PUSH4 0xA035B1FE EQ PUSH2 0x308 JUMPI DUP2 PUSH4 0xA217FDDF EQ PUSH2 0x2ED JUMPI DUP2 PUSH4 0xAD9F20A6 EQ PUSH2 0x2CF JUMPI DUP2 PUSH4 0xC8F33C91 EQ PUSH2 0x2AD JUMPI DUP2 PUSH4 0xCCC57490 EQ PUSH2 0x272 JUMPI DUP2 PUSH4 0xD547741F EQ PUSH2 0x235 JUMPI DUP2 PUSH4 0xDF462F34 EQ PUSH2 0x211 JUMPI DUP2 PUSH4 0xE4F53E85 EQ PUSH2 0x1C5 JUMPI POP DUP1 PUSH4 0xE63AB1E9 EQ PUSH2 0x18B JUMPI PUSH4 0xFB8D8101 EQ PUSH2 0x14E JUMPI PUSH1 0x0 DUP1 REVERT JUMPDEST CALLVALUE PUSH2 0x187 JUMPI DUP2 PUSH1 0x3 NOT CALLDATASIZE ADD SLT PUSH2 0x187 JUMPI PUSH1 0x20 SWAP1 MLOAD PUSH32 0xD96BA01D6560C2AB35F2940DD8D70C5F5FE06236C72674237120515918198FB0 DUP2 MSTORE RETURN JUMPDEST POP DUP1 REVERT JUMPDEST POP CALLVALUE PUSH2 0x187 JUMPI DUP2 PUSH1 0x3 NOT CALLDATASIZE ADD SLT PUSH2 0x187 JUMPI PUSH1 0x20 SWAP1 MLOAD PUSH32 0x65D7A28E3265B37A6474929F336521B332C1681B933F6CB9F3376673440D862A DUP2 MSTORE RETURN JUMPDEST SWAP1 POP DUP3 CALLVALUE PUSH2 0x20E JUMPI DUP1 PUSH1 0x3 NOT CALLDATASIZE ADD SLT PUSH2 0x20E JUMPI DUP2 SLOAD SWAP2 PUSH2 0xE10 DUP4 ADD DUP1 SWAP4 GT PUSH2 0x1FB JUMPI POP POP PUSH1 0x3 SLOAD SWAP1 DUP3 MLOAD SWAP2 DUP3 MSTORE TIMESTAMP GT PUSH1 0x20 DUP3 ADD MSTORE RETURN JUMPDEST PUSH4 0x4E487B71 PUSH1 0xE0 SHL DUP3 MSTORE PUSH1 0x11 SWAP1 MSTORE PUSH1 0x24 SWAP1 REVERT JUMPDEST DUP1 REVERT JUMPDEST POP POP CALLVALUE PUSH2 0x187 JUMPI DUP2 PUSH1 0x3 NOT CALLDATASIZE ADD SLT PUSH2 0x187 JUMPI PUSH1 0x20 SWAP1 PUSH2 0x22E PUSH2 0xAC0 JUMP JUMPDEST SWAP1 MLOAD SWAP1 DUP2 MSTORE RETURN JUMPDEST POP POP CALLVALUE PUSH2 0x187 JUMPI PUSH1 0x1 PUSH2 0x26E SWAP2 PUSH2 0x269 PUSH2 0x24E CALLDATASIZE PUSH2 0x842 JUMP JUMPDEST SWAP4 SWAP1 SWAP3 PUSH2 0x259 PUSH2 0x90A JUMP JUMPDEST DUP4 DUP8 MSTORE DUP7 PUSH1 0x20 MSTORE DUP7 KECCAK256 ADD SLOAD PUSH2 0x9E0 JUMP JUMPDEST PUSH2 0x86D JUMP JUMPDEST POP DUP1 RETURN JUMPDEST POP POP CALLVALUE PUSH2 0x187 JUMPI DUP2 PUSH1 0x3 NOT CALLDATASIZE ADD SLT PUSH2 0x187 JUMPI PUSH1 0x20 SWAP1 MLOAD PUSH32 0x7935BD0AE54BC31F548C14DBA4D37C5C64B3F8CA900CB468FB8ABD54D5894F55 DUP2 MSTORE RETURN JUMPDEST SWAP1 POP CALLVALUE PUSH2 0x2CB JUMPI DUP3 PUSH1 0x3 NOT CALLDATASIZE ADD SLT PUSH2 0x2CB JUMPI PUSH1 0x20 SWAP3 POP SLOAD SWAP1 MLOAD SWAP1 DUP2 MSTORE RETURN JUMPDEST DUP3 DUP1 REVERT JUMPDEST POP POP CALLVALUE PUSH2 0x187 JUMPI DUP2 PUSH1 0x3 NOT CALLDATASIZE ADD SLT PUSH2 0x187 JUMPI PUSH1 0x20 SWAP1 MLOAD PUSH3 0xF4240 DUP2 MSTORE RETURN JUMPDEST POP POP CALLVALUE PUSH2 0x187 JUMPI DUP2 PUSH1 0x3 NOT CALLDATASIZE ADD SLT PUSH2 0x187 JUMPI MLOAD SWAP1 DUP2 MSTORE PUSH1 0x20 SWAP1 RETURN JUMPDEST POP POP CALLVALUE PUSH2 0x187 JUMPI DUP2 PUSH1 0x3 NOT CALLDATASIZE ADD SLT PUSH2 0x187 JUMPI PUSH1 0x20 SWAP1 PUSH1 0x3 SLOAD SWAP1 MLOAD SWAP1 DUP2 MSTORE RETURN JUMPDEST POP POP CALLVALUE PUSH2 0x187 JUMPI PUSH1 0xFF DUP2 PUSH1 0x20 SWAP4 PUSH2 0x33D CALLDATASIZE PUSH2 0x842 JUMP JUMPDEST SWAP1 DUP3 MSTORE DUP2 DUP7 MSTORE DUP3 DUP3 KECCAK256 PUSH1 0x1 PUSH1 0x1 PUSH1 0xA0 SHL SUB SWAP1 SWAP2 AND DUP3 MSTORE DUP6 MSTORE KECCAK256 SLOAD SWAP2 MLOAD SWAP2 AND ISZERO ISZERO DUP2 MSTORE RETURN JUMPDEST DUP4 DUP4 CALLVALUE PUSH2 0x187 JUMPI PUSH1 0x20 CALLDATASIZE PUSH1 0x3 NOT ADD SLT PUSH2 0x187 JUMPI DUP3 CALLDATALOAD PUSH2 0x37E PUSH2 0x90A JUMP JUMPDEST PUSH2 0x386 PUSH2 0xA24 JUMP JUMPDEST PUSH3 0xF4240 DUP2 LT DUP1 ISZERO PUSH2 0x3E8 JUMPI JUMPDEST PUSH2 0x3D8 JUMPI PUSH32 0x8559686AE2CFD580DA184CF8256C4AF4694534C7F8190E8178716147BA6576C4 SWAP3 SWAP4 DUP2 PUSH1 0x3 SSTORE TIMESTAMP SWAP1 SSTORE TIMESTAMP PUSH1 0x6 SSTORE DUP2 MLOAD SWAP1 DUP2 MSTORE CALLER PUSH1 0x20 DUP3 ADD MSTORE LOG1 PUSH1 0x1 DUP1 SSTORE DUP1 RETURN JUMPDEST DUP2 MLOAD PUSH4 0x6E4BA61D PUSH1 0xE0 SHL DUP2 MSTORE DUP5 SWAP1 REVERT JUMPDEST POP PUSH5 0xE8D4A51000 DUP2 GT PUSH2 0x393 JUMP JUMPDEST POP POP CALLVALUE PUSH2 0x187 JUMPI DUP2 PUSH1 0x3 NOT CALLDATASIZE ADD SLT PUSH2 0x187 JUMPI PUSH1 0x20 PUSH32 0x62E78CEA01BEE320CD4E420270B5EA74000D11B0C9F74754EBDBFC544B05A258 SWAP2 PUSH2 0x434 PUSH2 0x984 JUMP JUMPDEST PUSH2 0x43C PUSH2 0xA06 JUMP JUMPDEST PUSH1 0x1 PUSH1 0xFF NOT PUSH1 0x2 SLOAD AND OR PUSH1 0x2 SSTORE MLOAD CALLER DUP2 MSTORE LOG1 DUP1 RETURN JUMPDEST POP POP CALLVALUE PUSH2 0x187 JUMPI DUP2 PUSH1 0x3 NOT CALLDATASIZE ADD SLT PUSH2 0x187 JUMPI PUSH1 0x20 SWAP1 PUSH1 0x6 SLOAD SWAP1 MLOAD SWAP1 DUP2 MSTORE RETURN JUMPDEST POP POP CALLVALUE PUSH2 0x187 JUMPI DUP2 PUSH1 0x3 NOT CALLDATASIZE ADD SLT PUSH2 0x187 JUMPI PUSH1 0x20 SWAP1 MLOAD PUSH1 0xB4 DUP2 MSTORE RETURN JUMPDEST POP POP CALLVALUE PUSH2 0x187 JUMPI DUP2 PUSH1 0x3 NOT CALLDATASIZE ADD SLT PUSH2 0x187 JUMPI PUSH1 0x20 SWAP1 PUSH1 0xFF PUSH1 0x2 SLOAD AND SWAP1 MLOAD SWAP1 ISZERO ISZERO DUP2 MSTORE RETURN JUMPDEST POP POP CALLVALUE PUSH2 0x187 JUMPI DUP2 PUSH1 0x3 NOT CALLDATASIZE ADD SLT PUSH2 0x187 JUMPI PUSH1 0x20 SWAP1 PUSH1 0x5 SLOAD SWAP1 MLOAD SWAP1 DUP2 MSTORE RETURN JUMPDEST DUP4 DUP4 CALLVALUE PUSH2 0x187 JUMPI DUP2 PUSH1 0x3 NOT CALLDATASIZE ADD SLT PUSH2 0x187 JUMPI PUSH2 0x4EF DUP4 SLOAD PUSH1 0x5 SLOAD SWAP1 PUSH2 0x8E7 JUMP JUMPDEST TIMESTAMP LT ISZERO SWAP2 DUP3 PUSH2 0x505 JUMPI JUMPDEST PUSH1 0x20 DUP4 DUP4 MLOAD SWAP1 ISZERO ISZERO DUP2 MSTORE RETURN JUMPDEST SWAP1 SWAP2 POP PUSH1 0x6 SLOAD SWAP1 PUSH1 0xB4 DUP3 ADD DUP1 SWAP3 GT PUSH2 0x526 JUMPI POP PUSH1 0x20 SWAP3 POP TIMESTAMP LT ISZERO SWAP1 DUP4 PUSH2 0x4F9 JUMP JUMPDEST PUSH4 0x4E487B71 PUSH1 0xE0 SHL DUP2 MSTORE PUSH1 0x11 DUP5 MSTORE PUSH1 0x24 SWAP1 REVERT JUMPDEST SWAP1 POP CALLVALUE PUSH2 0x2CB JUMPI DUP3 PUSH1 0x3 NOT CALLDATASIZE ADD SLT PUSH2 0x2CB JUMPI PUSH2 0x553 PUSH2 0x984 JUMP JUMPDEST PUSH1 0x2 SLOAD SWAP1 PUSH1 0xFF DUP3 AND ISZERO PUSH2 0x595 JUMPI POP PUSH1 0xFF NOT AND PUSH1 0x2 SSTORE MLOAD CALLER DUP2 MSTORE PUSH32 0x5DB9EE0A495BF2E6FF9C91A7834C1BA4FDD244A5E8AA4E537BD38AEAE4B073AA SWAP1 PUSH1 0x20 SWAP1 LOG1 DUP1 RETURN JUMPDEST DUP3 MLOAD PUSH4 0x8DFC202B PUSH1 0xE0 SHL DUP2 MSTORE REVERT JUMPDEST DUP4 DUP4 CALLVALUE PUSH2 0x187 JUMPI PUSH2 0x5B3 CALLDATASIZE PUSH2 0x842 JUMP JUMPDEST SWAP2 CALLER PUSH1 0x1 PUSH1 0x1 PUSH1 0xA0 SHL SUB DUP5 AND SUB PUSH2 0x5CF JUMPI POP SWAP1 PUSH2 0x26E SWAP2 PUSH2 0x86D JUMP JUMPDEST MLOAD PUSH4 0x334BD919 PUSH1 0xE1 SHL DUP2 MSTORE DUP5 SWAP1 REVERT JUMPDEST POP POP CALLVALUE PUSH2 0x187 JUMPI PUSH1 0x1 PUSH2 0x26E SWAP2 PUSH2 0x5F7 PUSH2 0x24E CALLDATASIZE PUSH2 0x842 JUMP JUMPDEST PUSH2 0xA47 JUMP JUMPDEST SWAP1 POP CALLVALUE PUSH2 0x2CB JUMPI PUSH1 0x20 CALLDATASIZE PUSH1 0x3 NOT ADD SLT PUSH2 0x2CB JUMPI DUP2 PUSH1 0x20 SWAP4 PUSH1 0x1 SWAP3 CALLDATALOAD DUP2 MSTORE DUP1 DUP6 MSTORE KECCAK256 ADD SLOAD SWAP1 MLOAD SWAP1 DUP2 MSTORE RETURN JUMPDEST SWAP2 SWAP1 POP CALLVALUE PUSH2 0x2CB JUMPI PUSH1 0x20 CALLDATASIZE PUSH1 0x3 NOT ADD SLT PUSH2 0x2CB JUMPI DUP2 CALLDATALOAD PUSH32 0xD96BA01D6560C2AB35F2940DD8D70C5F5FE06236C72674237120515918198FB0 DUP1 DUP6 MSTORE DUP5 PUSH1 0x20 MSTORE DUP3 DUP6 KECCAK256 CALLER DUP7 MSTORE PUSH1 0x20 MSTORE PUSH1 0xFF DUP4 DUP7 KECCAK256 SLOAD AND ISZERO PUSH2 0x75A JUMPI POP PUSH2 0x682 PUSH2 0xA24 JUMP JUMPDEST PUSH2 0x68A PUSH2 0xA06 JUMP JUMPDEST PUSH3 0xF4240 DUP2 LT DUP1 ISZERO PUSH2 0x74C JUMPI JUMPDEST PUSH2 0x73E JUMPI PUSH2 0x6A9 DUP4 SLOAD PUSH1 0x5 SLOAD SWAP1 PUSH2 0x8E7 JUMP JUMPDEST TIMESTAMP LT PUSH2 0x730 JUMPI PUSH1 0x6 SLOAD PUSH1 0xB4 DUP2 ADD DUP1 SWAP2 GT PUSH2 0x71D JUMPI TIMESTAMP LT PUSH2 0x70F JUMPI SWAP2 PUSH1 0x60 SWAP2 PUSH32 0x15819DD2FD9F6418B142E798D08A18D0BF06EA368F4480B7B0D3F75BD966BC48 SWAP4 PUSH1 0x3 SLOAD SWAP3 DUP2 PUSH1 0x3 SSTORE TIMESTAMP SWAP1 SSTORE TIMESTAMP PUSH1 0x6 SSTORE DUP2 MLOAD SWAP3 DUP4 MSTORE PUSH1 0x20 DUP4 ADD MSTORE TIMESTAMP SWAP1 DUP3 ADD MSTORE LOG1 PUSH1 0x1 DUP1 SSTORE DUP1 RETURN JUMPDEST POP MLOAD PUSH4 0x29FBD377 PUSH1 0xE1 SHL DUP2 MSTORE REVERT JUMPDEST PUSH4 0x4E487B71 PUSH1 0xE0 SHL DUP6 MSTORE PUSH1 0x11 DUP5 MSTORE PUSH1 0x24 DUP6 REVERT JUMPDEST POP MLOAD PUSH4 0x621E25C3 PUSH1 0xE0 SHL DUP2 MSTORE REVERT JUMPDEST POP MLOAD PUSH4 0x6E4BA61D PUSH1 0xE0 SHL DUP2 MSTORE REVERT JUMPDEST POP PUSH5 0xE8D4A51000 DUP2 GT PUSH2 0x697 JUMP JUMPDEST DUP3 MLOAD PUSH4 0xE2517D3F PUSH1 0xE0 SHL DUP2 MSTORE CALLER DUP2 DUP7 ADD MSTORE PUSH1 0x24 DUP2 ADD SWAP2 SWAP1 SWAP2 MSTORE PUSH1 0x44 SWAP1 REVERT JUMPDEST SWAP2 SWAP1 POP CALLVALUE PUSH2 0x2CB JUMPI PUSH1 0x20 CALLDATASIZE PUSH1 0x3 NOT ADD SLT PUSH2 0x2CB JUMPI PUSH32 0x7089A533E4A49F725982682D482D42C6B83F7A3A48533818B3A63A8BB44F7E17 SWAP2 CALLDATALOAD PUSH2 0x7B7 PUSH2 0x90A JUMP JUMPDEST PUSH1 0x5 SLOAD SWAP1 DUP1 PUSH1 0x5 SSTORE DUP3 MLOAD SWAP2 DUP3 MSTORE PUSH1 0x20 DUP3 ADD MSTORE LOG1 DUP1 RETURN JUMPDEST SWAP1 POP CALLVALUE PUSH2 0x2CB JUMPI PUSH1 0x20 CALLDATASIZE PUSH1 0x3 NOT ADD SLT PUSH2 0x2CB JUMPI CALLDATALOAD SWAP1 PUSH4 0xFFFFFFFF PUSH1 0xE0 SHL DUP3 AND DUP1 SWAP3 SUB PUSH2 0x2CB JUMPI PUSH1 0x20 SWAP3 POP PUSH4 0x7965DB0B PUSH1 0xE0 SHL DUP3 EQ SWAP2 DUP3 ISZERO PUSH2 0x812 JUMPI JUMPDEST POP MLOAD SWAP1 ISZERO ISZERO DUP2 MSTORE RETURN JUMPDEST PUSH4 0x1FFC9A7 PUSH1 0xE0 SHL EQ SWAP2 POP CODESIZE PUSH2 0x809 JUMP JUMPDEST DUP5 SWAP1 CALLVALUE PUSH2 0x187 JUMPI DUP2 PUSH1 0x3 NOT CALLDATASIZE ADD SLT PUSH2 0x187 JUMPI DUP1 PUSH5 0xE8D4A51000 PUSH1 0x20 SWAP3 MSTORE RETURN JUMPDEST PUSH1 0x40 SWAP1 PUSH1 0x3 NOT ADD SLT PUSH2 0x868 JUMPI PUSH1 0x4 CALLDATALOAD SWAP1 PUSH1 0x24 CALLDATALOAD PUSH1 0x1 PUSH1 0x1 PUSH1 0xA0 SHL SUB DUP2 AND DUP2 SUB PUSH2 0x868 JUMPI SWAP1 JUMP JUMPDEST PUSH1 0x0 DUP1 REVERT JUMPDEST SWAP1 PUSH1 0x0 SWAP2 DUP1 DUP4 MSTORE DUP3 PUSH1 0x20 MSTORE PUSH1 0x40 DUP4 KECCAK256 SWAP2 PUSH1 0x1 DUP1 PUSH1 0xA0 SHL SUB AND SWAP2 DUP3 DUP5 MSTORE PUSH1 0x20 MSTORE PUSH1 0xFF PUSH1 0x40 DUP5 KECCAK256 SLOAD AND PUSH1 0x0 EQ PUSH2 0x8E2 JUMPI DUP1 DUP4 MSTORE DUP3 PUSH1 0x20 MSTORE PUSH1 0x40 DUP4 KECCAK256 DUP3 DUP5 MSTORE PUSH1 0x20 MSTORE PUSH1 0x40 DUP4 KECCAK256 PUSH1 0xFF NOT DUP2 SLOAD AND SWAP1 SSTORE PUSH32 0xF6391F5C32D9C69D2A47EA670B442974B53935D1EDC7FD64EB21E047A839171B CALLER SWAP4 DUP1 LOG4 PUSH1 0x1 SWAP1 JUMP JUMPDEST POP POP SWAP1 JUMP JUMPDEST SWAP2 SWAP1 DUP3 ADD DUP1 SWAP3 GT PUSH2 0x8F4 JUMPI JUMP JUMPDEST PUSH4 0x4E487B71 PUSH1 0xE0 SHL PUSH1 0x0 MSTORE PUSH1 0x11 PUSH1 0x4 MSTORE PUSH1 0x24 PUSH1 0x0 REVERT JUMPDEST CALLER PUSH1 0x0 SWAP1 DUP2 MSTORE PUSH32 0x6F3B488CAA0DC03E5F3D9FD6A25FA8755AFCFD62CCFFB6E436C696BFA6B866DE PUSH1 0x20 MSTORE PUSH1 0x40 SWAP1 KECCAK256 SLOAD PUSH32 0x7935BD0AE54BC31F548C14DBA4D37C5C64B3F8CA900CB468FB8ABD54D5894F55 SWAP1 PUSH1 0xFF AND ISZERO PUSH2 0x966 JUMPI POP JUMP JUMPDEST PUSH1 0x44 SWAP1 PUSH1 0x40 MLOAD SWAP1 PUSH4 0xE2517D3F PUSH1 0xE0 SHL DUP3 MSTORE CALLER PUSH1 0x4 DUP4 ADD MSTORE PUSH1 0x24 DUP3 ADD MSTORE REVERT JUMPDEST CALLER PUSH1 0x0 SWAP1 DUP2 MSTORE PUSH32 0xF7C9542C591017A21C74B6F3FAB6263C7952FC0AAF9DB4C22A2A04DDC7F8674F PUSH1 0x20 MSTORE PUSH1 0x40 SWAP1 KECCAK256 SLOAD PUSH32 0x65D7A28E3265B37A6474929F336521B332C1681B933F6CB9F3376673440D862A SWAP1 PUSH1 0xFF AND ISZERO PUSH2 0x966 JUMPI POP JUMP JUMPDEST DUP1 PUSH1 0x0 MSTORE PUSH1 0x0 PUSH1 0x20 MSTORE PUSH1 0x40 PUSH1 0x0 KECCAK256 CALLER PUSH1 0x0 MSTORE PUSH1 0x20 MSTORE PUSH1 0xFF PUSH1 0x40 PUSH1 0x0 KECCAK256 SLOAD AND ISZERO PUSH2 0x966 JUMPI POP JUMP JUMPDEST PUSH1 0xFF PUSH1 0x2 SLOAD AND PUSH2 0xA12 JUMPI JUMP JUMPDEST PUSH1 0x40 MLOAD PUSH4 0xD93C0665 PUSH1 0xE0 SHL DUP2 MSTORE PUSH1 0x4 SWAP1 REVERT JUMPDEST PUSH1 0x2 PUSH1 0x1 SLOAD EQ PUSH2 0xA35 JUMPI PUSH1 0x2 PUSH1 0x1 SSTORE JUMP JUMPDEST PUSH1 0x40 MLOAD PUSH4 0x3EE5AEB5 PUSH1 0xE0 SHL DUP2 MSTORE PUSH1 0x4 SWAP1 REVERT JUMPDEST SWAP1 PUSH1 0x0 SWAP2 DUP1 DUP4 MSTORE DUP3 PUSH1 0x20 MSTORE PUSH1 0x40 DUP4 KECCAK256 SWAP2 PUSH1 0x1 DUP1 PUSH1 0xA0 SHL SUB AND SWAP2 DUP3 DUP5 MSTORE PUSH1 0x20 MSTORE PUSH1 0xFF PUSH1 0x40 DUP5 KECCAK256 SLOAD AND ISZERO PUSH1 0x0 EQ PUSH2 0x8E2 JUMPI DUP1 DUP4 MSTORE DUP3 PUSH1 0x20 MSTORE PUSH1 0x40 DUP4 KECCAK256 DUP3 DUP5 MSTORE PUSH1 0x20 MSTORE PUSH1 0x40 DUP4 KECCAK256 PUSH1 0x1 PUSH1 0xFF NOT DUP3 SLOAD AND OR SWAP1 SSTORE PUSH32 0x2F8788117E7EFF1D82E926EC794901D17C78024A50270940304540A733656F0D CALLER SWAP4 DUP1 LOG4 PUSH1 0x1 SWAP1 JUMP JUMPDEST PUSH2 0xACF PUSH1 0x4 SLOAD PUSH1 0x5 SLOAD SWAP1 PUSH2 0x8E7 JUMP JUMPDEST PUSH1 0x6 SLOAD PUSH1 0xB4 DUP2 ADD DUP1 SWAP2 GT PUSH2 0x8F4 JUMPI DUP1 DUP3 GT ISZERO PUSH2 0xB02 JUMPI POP JUMPDEST DUP1 TIMESTAMP LT ISZERO PUSH2 0xAFC JUMPI TIMESTAMP DUP2 SUB SWAP1 DUP2 GT PUSH2 0x8F4 JUMPI SWAP1 JUMP JUMPDEST POP PUSH1 0x0 SWAP1 JUMP JUMPDEST SWAP1 POP PUSH2 0xAE7 JUMP INVALID LOG2 PUSH5 0x6970667358 0x22 SLT KECCAK256 DUP9 0xD6 PUSH23 0x6406920E4B2F1B606EE4BCC4FCA3E643C6F337613C8FF9 0xE SWAP10 DUP15 SWAP13 0xB3 0xAA PUSH5 0x736F6C6343 STOP ADDMOD ISZERO STOP CALLER 0x2F DUP8 DUP9 GT PUSH31 0x7EFF1D82E926EC794901D17C78024A50270940304540A733656F0DAD3228B6 PUSH23 0xF7D3CD4284A5443F17F1962B36E491B30A40B2405849E5 SWAP8 0xBA PUSH0 0xB5 "},"methodIdentifiers":{"DEFAULT_ADMIN_ROLE()":"a217fddf","GOVERNOR_ROLE()":"ccc57490","MAX_PRICE()":"01c11d96","MIN_PRICE()":"ad9f20a6","PAUSER_ROLE()":"e63ab1e9","PRICE_UPDATER_ROLE()":"fb8d8101","TWAP_BUFFER()":"63ff8b0b","canUpdatePrice()":"4baa17aa","emergencyUpdatePrice(uint256)":"8f537ca8","getPrice()":"98d5fdca","getPriceWithStaleness()":"e4f53e85","getRoleAdmin(bytes32)":"248a9ca3","grantRole(bytes32,address)":"2f2ff15d","hasRole(bytes32,address)":"91d14854","lastPriceUpdate()":"6949faeb","lastUpdateTime()":"c8f33c91","pause()":"8456cb59","paused()":"5c975abb","price()":"a035b1fe","pushPrice(uint256)":"17b6c447","renounceRole(bytes32,address)":"36568abe","revokeRole(bytes32,address)":"d547741f","setUpdateDelay(uint256)":"09d3cbda","supportsInterface(bytes4)":"01ffc9a7","timeUntilUpdateAllowed()":"df462f34","unpause()":"3f4ba83a","updateDelay()":"554f94db"}}}}}