{"contracts/OracleSimulatorV2.sol":{"OracleSimulatorV2":{"abi":[{"inputs":[{"internalType":"address","name":"_bvixOracle","type":"address"},{"internalType":"address","name":"_evixOracle","type":"address"},{"internalType":"address","name":"initialOwner","type":"address"}],"stateMutability":"nonpayable","type":"constructor"},{"inputs":[{"internalType":"address","name":"owner","type":"address"}],"name":"OwnableInvalidOwner","type":"error"},{"inputs":[{"internalType":"address","name":"account","type":"address"}],"name":"OwnableUnauthorizedAccount","type":"error"},{"anonymous":false,"inputs":[{"indexed":true,"internalType":"string","name":"token","type":"string"},{"indexed":false,"internalType":"uint256","name":"newMeanPrice","type":"uint256"}],"name":"MeanPriceUpdated","type":"event"},{"anonymous":false,"inputs":[{"indexed":true,"internalType":"address","name":"previousOwner","type":"address"},{"indexed":true,"internalType":"address","name":"newOwner","type":"address"}],"name":"OwnershipTransferred","type":"event"},{"anonymous":false,"inputs":[{"indexed":true,"internalType":"string","name":"token","type":"string"},{"indexed":false,"internalType":"uint256","name":"oldPrice","type":"uint256"},{"indexed":false,"internalType":"uint256","name":"newPrice","type":"uint256"},{"indexed":false,"internalType":"uint256","name":"timestamp","type":"uint256"}],"name":"PriceUpdated","type":"event"},{"anonymous":false,"inputs":[{"indexed":false,"internalType":"bool","name":"active","type":"bool"}],"name":"SimulationToggled","type":"event"},{"inputs":[],"name":"BVIX_MAX_PRICE","outputs":[{"internalType":"uint256","name":"","type":"uint256"}],"stateMutability":"view","type":"function"},{"inputs":[],"name":"BVIX_MIN_PRICE","outputs":[{"internalType":"uint256","name":"","type":"uint256"}],"stateMutability":"view","type":"function"},{"inputs":[],"name":"EVIX_MAX_PRICE","outputs":[{"internalType":"uint256","name":"","type":"uint256"}],"stateMutability":"view","type":"function"},{"inputs":[],"name":"EVIX_MIN_PRICE","outputs":[{"internalType":"uint256","name":"","type":"uint256"}],"stateMutability":"view","type":"function"},{"inputs":[],"name":"MAX_MOVEMENT_BPS","outputs":[{"internalType":"uint256","name":"","type":"uint256"}],"stateMutability":"view","type":"function"},{"inputs":[],"name":"bvixMeanPrice","outputs":[{"internalType":"uint256","name":"","type":"uint256"}],"stateMutability":"view","type":"function"},{"inputs":[],"name":"bvixOracle","outputs":[{"internalType":"contract IOracle","name":"","type":"address"}],"stateMutability":"view","type":"function"},{"inputs":[],"name":"bvixVolatility","outputs":[{"internalType":"uint256","name":"","type":"uint256"}],"stateMutability":"view","type":"function"},{"inputs":[{"internalType":"uint256","name":"_bvixPrice","type":"uint256"},{"internalType":"uint256","name":"_evixPrice","type":"uint256"}],"name":"emergencyUpdatePrices","outputs":[],"stateMutability":"nonpayable","type":"function"},{"inputs":[],"name":"evixMeanPrice","outputs":[{"internalType":"uint256","name":"","type":"uint256"}],"stateMutability":"view","type":"function"},{"inputs":[],"name":"evixOracle","outputs":[{"internalType":"contract IEVIXOracle","name":"","type":"address"}],"stateMutability":"view","type":"function"},{"inputs":[],"name":"evixVolatility","outputs":[{"internalType":"uint256","name":"","type":"uint256"}],"stateMutability":"view","type":"function"},{"inputs":[],"name":"getSimulationStatus","outputs":[{"internalType":"bool","name":"active","type":"bool"},{"internalType":"uint256","name":"lastUpdate","type":"uint256"},{"internalType":"uint256","name":"nextUpdateTime","type":"uint256"},{"internalType":"uint256","name":"bvixPrice","type":"uint256"},{"internalType":"uint256","name":"evixPrice","type":"uint256"}],"stateMutability":"view","type":"function"},{"inputs":[],"name":"lastUpdateTime","outputs":[{"internalType":"uint256","name":"","type":"uint256"}],"stateMutability":"view","type":"function"},{"inputs":[],"name":"meanReversionStrength","outputs":[{"internalType":"uint256","name":"","type":"uint256"}],"stateMutability":"view","type":"function"},{"inputs":[],"name":"owner","outputs":[{"internalType":"address","name":"","type":"address"}],"stateMutability":"view","type":"function"},{"inputs":[],"name":"renounceOwnership","outputs":[],"stateMutability":"nonpayable","type":"function"},{"inputs":[{"internalType":"uint256","name":"_meanPrice","type":"uint256"}],"name":"setBvixMeanPrice","outputs":[],"stateMutability":"nonpayable","type":"function"},{"inputs":[{"internalType":"uint256","name":"_meanPrice","type":"uint256"}],"name":"setEvixMeanPrice","outputs":[],"stateMutability":"nonpayable","type":"function"},{"inputs":[{"internalType":"uint256","name":"_bvixVolatility","type":"uint256"},{"internalType":"uint256","name":"_evixVolatility","type":"uint256"},{"internalType":"uint256","name":"_meanReversionStrength","type":"uint256"}],"name":"setVolatilityParams","outputs":[],"stateMutability":"nonpayable","type":"function"},{"inputs":[],"name":"simulationActive","outputs":[{"internalType":"bool","name":"","type":"bool"}],"stateMutability":"view","type":"function"},{"inputs":[],"name":"startSimulation","outputs":[],"stateMutability":"nonpayable","type":"function"},{"inputs":[],"name":"stopSimulation","outputs":[],"stateMutability":"nonpayable","type":"function"},{"inputs":[{"internalType":"address","name":"newOwner","type":"address"}],"name":"transferOwnership","outputs":[],"stateMutability":"nonpayable","type":"function"},{"inputs":[],"name":"updatePrices","outputs":[],"stateMutability":"nonpayable","type":"function"}],"evm":{"bytecode":{"linkReferences":{},"object":"60803461011f57601f6200159538819003918201601f19168301916001600160401b038311848410176101245780849260609460405283398101031261011f576100488161013a565b9060406100576020830161013a565b916001600160a01b0391829161006d910161013a565b1691821561010657816000549460018060a01b03199480868816176000558260405197167f8be0079c531659141344cd1fd0a4f28419497f9722a3daafe3b4186f6b6457e0600080a36461c9f36800600355645879c3d8006004556032600555603c600655601460075516836001541617600155169060025416176002554260085560ff196009541660095561144690816200014f8239f35b604051631e4fbdf760e01b815260006004820152602490fd5b600080fd5b634e487b7160e01b600052604160045260246000fd5b51906001600160a01b038216820361011f5756fe608060408181526004908136101561001657600080fd5b600092833560e01c90816302a68f931461121d575080631baaab84146111fe578063284a5d23146111d55780633ae2b2f7146111b557806349dd126214610aba5780634b9fdeac146107a95780634c96366a14610780578063715018a6146107265780637d3b9ab9146105f55780638af8b8d5146105a55780638da5cb5b1461057d5780639683ba781461055e5780639ef64d0714610506578063a53b7fa814610477578063a58b6a0e14610458578063b540f3db14610437578063c10a09cf14610413578063c8f33c91146103f4578063d057717414610365578063d432af4d14610346578063e242341114610232578063e3cfcdd014610216578063e4faac22146101f6578063f2d18ce5146101d15763f2fde38b1461013757600080fd5b346101cd5760203660031901126101cd576001600160a01b038235818116939192908490036101c957610168611239565b83156101b3575050600054826bffffffffffffffffffffffff60a01b821617600055167f8be0079c531659141344cd1fd0a4f28419497f9722a3daafe3b4186f6b6457e0600080a380f35b51631e4fbdf760e01b8152908101849052602490fd5b8480fd5b8280fd5b8382346101f257816003193601126101f2576020905165015d3ef798008152f35b5080fd5b8382346101f257816003193601126101f25760209051642e90edd0008152f35b8382346101f257816003193601126101f2576020905160648152f35b5090346101cd5760603660031901126101cd5780356024359160443593610257611239565b60c883116103035760c884116102c0576064851161027d57505060055560065560075580f35b906020606492519162461bcd60e51b8352820152601960248201527f4d65616e20726576657273696f6e20746f6f207374726f6e67000000000000006044820152fd5b906020606492519162461bcd60e51b8352820152601860248201527f4556495820766f6c6174696c69747920746f6f206869676800000000000000006044820152fd5b906020606492519162461bcd60e51b8352820152601860248201527f4256495820766f6c6174696c69747920746f6f206869676800000000000000006044820152fd5b8382346101f257816003193601126101f2576020906003549051908152f35b50346101cd5760203660031901126101cd5760207f16a73e7b23761a2084db728a9e4fc9b67e5e2438dec2f29e9121bfbd7e8e08b7916000805160206113d18339815191529335906103b5611239565b6422ecb25c00821015806103e4575b6103cd9061138f565b8160035563084ac92b60e31b81515251908152a280f35b5065015d3ef798008211156103c4565b8382346101f257816003193601126101f2576020906008549051908152f35b8382346101f257816003193601126101f25760209060ff6009541690519015158152f35b8382346101f257816003193601126101f257602090516501a3185c50008152f35b8382346101f257816003193601126101f2576020906006549051908152f35b5090346101cd5760203660031901126101cd576020816000805160206113f1833981519152937f16a73e7b23761a2084db728a9e4fc9b67e5e2438dec2f29e9121bfbd7e8e08b7933580926104ca611239565b642e90edd000821015806104f6575b6104e29061138f565b556308aac92b60e31b81515251908152a280f35b506501a3185c50008211156104d9565b8382346101f257816003193601126101f25760207f48ddfa7495202a0165f1855a9be7cf1577342166c920f162d3a3d90aa9a2d5aa91610544611239565b600160ff196009541617600955426008555160018152a180f35b8382346101f257816003193601126101f2576020906007549051908152f35b8382346101f257816003193601126101f257905490516001600160a01b039091168152602090f35b8382346101f257816003193601126101f25760207f48ddfa7495202a0165f1855a9be7cf1577342166c920f162d3a3d90aa9a2d5aa916105e3611239565b60ff196009541660095551838152a180f35b50823461072357806003193601126107235760ff600954169160085490603c820190818311610710576001548151634c6afee560e11b808252909491602091906001600160a01b0390839088908c90829085165afa9687156107065788976106d5575b5090829160025416998551809b819382525afa9586156106ca5795610695575b60a097508251961515875286015284015260608301526080820152f35b80955087813d83116106c3575b6106ac81836112ce565b810103126106be5760a0965194610678565b600080fd5b503d6106a2565b8351903d90823e3d90fd5b919096508282813d83116106ff575b6106ee81836112ce565b810103126106be5790519582610658565b503d6106e4565b85513d8a823e3d90fd5b634e487b7160e01b845260118652602484fd5b80fd5b833461072357806003193601126107235761073f611239565b600080546001600160a01b0319811682556001600160a01b03167f8be0079c531659141344cd1fd0a4f28419497f9722a3daafe3b4186f6b6457e08280a380f35b8382346101f257816003193601126101f25760025490516001600160a01b039091168152602090f35b5090346101cd57816003193601126101cd5780356024356107c8611239565b6422ecb25c0082101580610aaa575b15610a6757642e90edd00081101580610a57575b15610a14576001546001600160a01b03939086908516803b156101f2578180916024895180948193638d6cc56d60e01b83528a898401525af180156109f657610a00575b508460025416803b156101f2578180916024895180948193636a60cded60e11b835289898401525af180156109f6576109de575b505083600154168551948594634c6afee560e11b92838752868560209889935afa9687156109d4578997610991575b50875163084ac92b60e31b9052875196875260208701524260408701527fb9eff63454e8f3e7e3a0591926665ec3da6f4d9d4072630ddac1bb0b9836d50695859291906000805160206113d1833981519152908890606090a2600254169287518094819382525afa928315610987578693610945575b505083516308aac92b60e31b9052925190815260208101929092524260408301526000805160206113f18339815191529180606081015b0390a280f35b9080959350813d8311610980575b61095d81836112ce565b810103126106be5761093f6000805160206113f183398151915294519294610908565b503d610953565b85513d88823e3d90fd5b92919096508583813d83116109cd575b6109ab81836112ce565b810103126106be579151959091906000805160206113d1833981519152610892565b503d6109a1565b88513d8b823e3d90fd5b6109e790611288565b6109f2578538610863565b8580fd5b87513d84823e3d90fd5b610a0990611288565b6109f257853861082f565b835162461bcd60e51b8152602081850152601860248201527f45564958207072696365206f7574206f6620626f756e647300000000000000006044820152606490fd5b506501a3185c50008111156107eb565b835162461bcd60e51b8152602081850152601860248201527f42564958207072696365206f7574206f6620626f756e647300000000000000006044820152606490fd5b5065015d3ef798008211156107d7565b5090346101cd57826003193601126101cd5760ff600954161561117b57600854603c810180911161116857421061112f576001548251634c6afee560e11b8082529290916001600160a01b039081169160209182858381875afa9485156111255788956110f2575b50849583826002541691848a518094819382525afa9081156109d45789916110c1575b50809580159081156110b0575b506110a6575b8015908115611095575b5061108c575b600354600554600a5494600019929190838714610f895760018701928b51926103e88d8486019042825244908701528660608701523360601b9586608082015260748152610bb5816112b2565b519020068160011b9082820460021483151715611078578f9392610bdd8f93610be293611303565b611323565b9282821180611062575b1561101c5750610c0e610c05610c149361271093611323565b600754906112f0565b04611330565b905b8d8282019283129112908015821691151617610f9c578a8d821315610fcd5750610c43612710918c6112f0565b0480198b11610fbf57610c56908b611265565b965b6422ecb25c00808910610fb7575b5065015d3ef79800808911610faf575b508654946006549414610f9c579060026103e89392019182600a558c51918201924284528d44908401526060830152608082015260748152610cb7816112b2565b519020068160011b9082820460021483151715610f8957610cdc9291610bdd91611303565b90898782811180610f73575b15610f2c576127109150610c05610d0293610c0e92611323565b905b898282019283129112908015821691151617610f195788908682821315610eca5750610d3361271091886112f0565b0480198711610ebc57610d469087611265565b935b642e90edd000808610610eb4575b506501a3185c5000808611610eaa575b50610d74610d7b9189611341565b9487611341565b94803b156101f257819060248a5180948193638d6cc56d60e01b835289898401525af180156109d457610e95575b509087916002541690813b156101cd578460248492838b519586948593636a60cded60e11b85528401525af180156109f657610e81575b50506000805160206113f1833981519152946000805160206113d183398151915261093f924260085563084ac92b60e31b835152825180610e577fb9eff63454e8f3e7e3a0591926665ec3da6f4d9d4072630ddac1bb0b9836d506998a944291846040919493926060820195825260208201520152565b0390a280516308aac92b60e31b905251928352602083019190915242604083015281906060820190565b610e8a90611288565b6109f2578538610de0565b610ea29098919298611288565b969038610da9565b9450610d74610d66565b945038610d56565b506501a3185c500093610d48565b9490828112610eda575b50610d48565b612710919550610eec610ef291611330565b886112f0565b04808710610f0c57610f049087611323565b935b38610ed4565b50642e90edd00093610f06565b634e487b7160e01b895260118352602489fd5b90929180821080610f60575b610f44575b5050610d04565b612710929350610f5791610c0591611323565b04908638610f3d565b5081610f6c8183611323565b1115610f38565b50610f7e8382611323565b600a82041015610ce8565b634e487b7160e01b8c526011865260248cfd5b634e487b7160e01b8d526011875260248dfd5b975038610c76565b975038610c66565b5065015d3ef7980096610c58565b97908d8112610fdd575b50610c58565b612710919850610fef610ff591611330565b8c6112f0565b04808b1061100f57611007908b611323565b965b38610fd7565b506422ecb25c0096611009565b92918082108061104f575b611033575b5050610c16565b61271092935061104691610c0591611323565b04908b3861102c565b508161105b8183611323565b1115611027565b5061106d8383611323565b600a83041015610bec565b50634e487b7160e01b8f526011895260248ffd5b81549450610b68565b6001600160ff1b0310905038610b62565b6003549650610b58565b6001600160ff1b0310905038610b52565b90508381813d83116110eb575b6110d881836112ce565b810103126110e7575138610b45565b8880fd5b503d6110ce565b9094508281813d831161111e575b61110a81836112ce565b8101031261111a57519338610b22565b8780fd5b503d611100565b87513d8a823e3d90fd5b6020606492519162461bcd60e51b83528201526014602482015273546f6f206672657175656e74207570646174657360601b6044820152fd5b634e487b7160e01b845260118252602484fd5b6020606492519162461bcd60e51b8352820152601560248201527453696d756c6174696f6e206e6f742061637469766560581b6044820152fd5b8382346101f257816003193601126101f257602090516422ecb25c008152f35b8382346101f257816003193601126101f25760015490516001600160a01b039091168152602090f35b8382346101f257816003193601126101f2576020906005549051908152f35b849084346101cd57826003193601126101cd5760209250548152f35b6000546001600160a01b0316330361124d57565b60405163118cdaa760e01b8152336004820152602490fd5b9190820180921161127257565b634e487b7160e01b600052601160045260246000fd5b67ffffffffffffffff811161129c57604052565b634e487b7160e01b600052604160045260246000fd5b60a0810190811067ffffffffffffffff82111761129c57604052565b90601f8019910116810190811067ffffffffffffffff82111761129c57604052565b8181029291811591840414171561127257565b811561130d570690565b634e487b7160e01b600052601260045260246000fd5b9190820391821161127257565b600160ff1b81146112725760000390565b60648104908083111561137057816113598285611323565b1161136357505090565b61136d9250611265565b90565b8161137b8483611323565b1161138557505090565b61136d9250611323565b1561139657565b60405162461bcd60e51b8152602060048201526012602482015271496e76616c6964206d65616e20707269636560701b6044820152606490fdfed31dc401cc20f9f788514c4d2fad46889824c21ff3e679c43c9770b3b4b3bd52f852f64739c79113305c1f1dbb665a0196b646c6784356e2f282e6074357ec16a2646970667358221220f78ee0a4ec21e2c6e38de7acdbd31ab375b82830e6fb6e9b417986251ddfe14b64736f6c63430008150033","opcodes":"PUSH1 0x80 CALLVALUE PUSH2 0x11F JUMPI PUSH1 0x1F PUSH3 0x1595 CODESIZE DUP2 SWAP1 SUB SWAP2 DUP3 ADD PUSH1 0x1F NOT AND DUP4 ADD SWAP2 PUSH1 0x1 PUSH1 0x1 PUSH1 0x40 SHL SUB DUP4 GT DUP5 DUP5 LT OR PUSH2 0x124 JUMPI DUP1 DUP5 SWAP3 PUSH1 0x60 SWAP5 PUSH1 0x40 MSTORE DUP4 CODECOPY DUP2 ADD SUB SLT PUSH2 0x11F JUMPI PUSH2 0x48 DUP2 PUSH2 0x13A JUMP JUMPDEST SWAP1 PUSH1 0x40 PUSH2 0x57 PUSH1 0x20 DUP4 ADD PUSH2 0x13A JUMP JUMPDEST SWAP2 PUSH1 0x1 PUSH1 0x1 PUSH1 0xA0 SHL SUB SWAP2 DUP3 SWAP2 PUSH2 0x6D SWAP2 ADD PUSH2 0x13A JUMP JUMPDEST AND SWAP2 DUP3 ISZERO PUSH2 0x106 JUMPI DUP2 PUSH1 0x0 SLOAD SWAP5 PUSH1 0x1 DUP1 PUSH1 0xA0 SHL SUB NOT SWAP5 DUP1 DUP7 DUP9 AND OR PUSH1 0x0 SSTORE DUP3 PUSH1 0x40 MLOAD SWAP8 AND PUSH32 0x8BE0079C531659141344CD1FD0A4F28419497F9722A3DAAFE3B4186F6B6457E0 PUSH1 0x0 DUP1 LOG3 PUSH5 0x61C9F36800 PUSH1 0x3 SSTORE PUSH5 0x5879C3D800 PUSH1 0x4 SSTORE PUSH1 0x32 PUSH1 0x5 SSTORE PUSH1 0x3C PUSH1 0x6 SSTORE PUSH1 0x14 PUSH1 0x7 SSTORE AND DUP4 PUSH1 0x1 SLOAD AND OR PUSH1 0x1 SSTORE AND SWAP1 PUSH1 0x2 SLOAD AND OR PUSH1 0x2 SSTORE TIMESTAMP PUSH1 0x8 SSTORE PUSH1 0xFF NOT PUSH1 0x9 SLOAD AND PUSH1 0x9 SSTORE PUSH2 0x1446 SWAP1 DUP2 PUSH3 0x14F DUP3 CODECOPY RETURN JUMPDEST PUSH1 0x40 MLOAD PUSH4 0x1E4FBDF7 PUSH1 0xE0 SHL DUP2 MSTORE PUSH1 0x0 PUSH1 0x4 DUP3 ADD MSTORE PUSH1 0x24 SWAP1 REVERT JUMPDEST PUSH1 0x0 DUP1 REVERT JUMPDEST PUSH4 0x4E487B71 PUSH1 0xE0 SHL PUSH1 0x0 MSTORE PUSH1 0x41 PUSH1 0x4 MSTORE PUSH1 0x24 PUSH1 0x0 REVERT JUMPDEST MLOAD SWAP1 PUSH1 0x1 PUSH1 0x1 PUSH1 0xA0 SHL SUB DUP3 AND DUP3 SUB PUSH2 0x11F JUMPI JUMP INVALID PUSH1 0x80 PUSH1 0x40 DUP2 DUP2 MSTORE PUSH1 0x4 SWAP1 DUP2 CALLDATASIZE LT ISZERO PUSH2 0x16 JUMPI PUSH1 0x0 DUP1 REVERT JUMPDEST PUSH1 0x0 SWAP3 DUP4 CALLDATALOAD PUSH1 0xE0 SHR SWAP1 DUP2 PUSH4 0x2A68F93 EQ PUSH2 0x121D JUMPI POP DUP1 PUSH4 0x1BAAAB84 EQ PUSH2 0x11FE JUMPI DUP1 PUSH4 0x284A5D23 EQ PUSH2 0x11D5 JUMPI DUP1 PUSH4 0x3AE2B2F7 EQ PUSH2 0x11B5 JUMPI DUP1 PUSH4 0x49DD1262 EQ PUSH2 0xABA JUMPI DUP1 PUSH4 0x4B9FDEAC EQ PUSH2 0x7A9 JUMPI DUP1 PUSH4 0x4C96366A EQ PUSH2 0x780 JUMPI DUP1 PUSH4 0x715018A6 EQ PUSH2 0x726 JUMPI DUP1 PUSH4 0x7D3B9AB9 EQ PUSH2 0x5F5 JUMPI DUP1 PUSH4 0x8AF8B8D5 EQ PUSH2 0x5A5 JUMPI DUP1 PUSH4 0x8DA5CB5B EQ PUSH2 0x57D JUMPI DUP1 PUSH4 0x9683BA78 EQ PUSH2 0x55E JUMPI DUP1 PUSH4 0x9EF64D07 EQ PUSH2 0x506 JUMPI DUP1 PUSH4 0xA53B7FA8 EQ PUSH2 0x477 JUMPI DUP1 PUSH4 0xA58B6A0E EQ PUSH2 0x458 JUMPI DUP1 PUSH4 0xB540F3DB EQ PUSH2 0x437 JUMPI DUP1 PUSH4 0xC10A09CF EQ PUSH2 0x413 JUMPI DUP1 PUSH4 0xC8F33C91 EQ PUSH2 0x3F4 JUMPI DUP1 PUSH4 0xD0577174 EQ PUSH2 0x365 JUMPI DUP1 PUSH4 0xD432AF4D EQ PUSH2 0x346 JUMPI DUP1 PUSH4 0xE2423411 EQ PUSH2 0x232 JUMPI DUP1 PUSH4 0xE3CFCDD0 EQ PUSH2 0x216 JUMPI DUP1 PUSH4 0xE4FAAC22 EQ PUSH2 0x1F6 JUMPI DUP1 PUSH4 0xF2D18CE5 EQ PUSH2 0x1D1 JUMPI PUSH4 0xF2FDE38B EQ PUSH2 0x137 JUMPI PUSH1 0x0 DUP1 REVERT JUMPDEST CALLVALUE PUSH2 0x1CD JUMPI PUSH1 0x20 CALLDATASIZE PUSH1 0x3 NOT ADD SLT PUSH2 0x1CD JUMPI PUSH1 0x1 PUSH1 0x1 PUSH1 0xA0 SHL SUB DUP3 CALLDATALOAD DUP2 DUP2 AND SWAP4 SWAP2 SWAP3 SWAP1 DUP5 SWAP1 SUB PUSH2 0x1C9 JUMPI PUSH2 0x168 PUSH2 0x1239 JUMP JUMPDEST DUP4 ISZERO PUSH2 0x1B3 JUMPI POP POP PUSH1 0x0 SLOAD DUP3 PUSH12 0xFFFFFFFFFFFFFFFFFFFFFFFF PUSH1 0xA0 SHL DUP3 AND OR PUSH1 0x0 SSTORE AND PUSH32 0x8BE0079C531659141344CD1FD0A4F28419497F9722A3DAAFE3B4186F6B6457E0 PUSH1 0x0 DUP1 LOG3 DUP1 RETURN JUMPDEST MLOAD PUSH4 0x1E4FBDF7 PUSH1 0xE0 SHL DUP2 MSTORE SWAP1 DUP2 ADD DUP5 SWAP1 MSTORE PUSH1 0x24 SWAP1 REVERT JUMPDEST DUP5 DUP1 REVERT JUMPDEST DUP3 DUP1 REVERT JUMPDEST DUP4 DUP3 CALLVALUE PUSH2 0x1F2 JUMPI DUP2 PUSH1 0x3 NOT CALLDATASIZE ADD SLT PUSH2 0x1F2 JUMPI PUSH1 0x20 SWAP1 MLOAD PUSH6 0x15D3EF79800 DUP2 MSTORE RETURN JUMPDEST POP DUP1 REVERT JUMPDEST DUP4 DUP3 CALLVALUE PUSH2 0x1F2 JUMPI DUP2 PUSH1 0x3 NOT CALLDATASIZE ADD SLT PUSH2 0x1F2 JUMPI PUSH1 0x20 SWAP1 MLOAD PUSH5 0x2E90EDD000 DUP2 MSTORE RETURN JUMPDEST DUP4 DUP3 CALLVALUE PUSH2 0x1F2 JUMPI DUP2 PUSH1 0x3 NOT CALLDATASIZE ADD SLT PUSH2 0x1F2 JUMPI PUSH1 0x20 SWAP1 MLOAD PUSH1 0x64 DUP2 MSTORE RETURN JUMPDEST POP SWAP1 CALLVALUE PUSH2 0x1CD JUMPI PUSH1 0x60 CALLDATASIZE PUSH1 0x3 NOT ADD SLT PUSH2 0x1CD JUMPI DUP1 CALLDATALOAD PUSH1 0x24 CALLDATALOAD SWAP2 PUSH1 0x44 CALLDATALOAD SWAP4 PUSH2 0x257 PUSH2 0x1239 JUMP JUMPDEST PUSH1 0xC8 DUP4 GT PUSH2 0x303 JUMPI PUSH1 0xC8 DUP5 GT PUSH2 0x2C0 JUMPI PUSH1 0x64 DUP6 GT PUSH2 0x27D JUMPI POP POP PUSH1 0x5 SSTORE PUSH1 0x6 SSTORE PUSH1 0x7 SSTORE DUP1 RETURN JUMPDEST SWAP1 PUSH1 0x20 PUSH1 0x64 SWAP3 MLOAD SWAP2 PUSH3 0x461BCD PUSH1 0xE5 SHL DUP4 MSTORE DUP3 ADD MSTORE PUSH1 0x19 PUSH1 0x24 DUP3 ADD MSTORE PUSH32 0x4D65616E20726576657273696F6E20746F6F207374726F6E6700000000000000 PUSH1 0x44 DUP3 ADD MSTORE REVERT JUMPDEST SWAP1 PUSH1 0x20 PUSH1 0x64 SWAP3 MLOAD SWAP2 PUSH3 0x461BCD PUSH1 0xE5 SHL DUP4 MSTORE DUP3 ADD MSTORE PUSH1 0x18 PUSH1 0x24 DUP3 ADD MSTORE PUSH32 0x4556495820766F6C6174696C69747920746F6F20686967680000000000000000 PUSH1 0x44 DUP3 ADD MSTORE REVERT JUMPDEST SWAP1 PUSH1 0x20 PUSH1 0x64 SWAP3 MLOAD SWAP2 PUSH3 0x461BCD PUSH1 0xE5 SHL DUP4 MSTORE DUP3 ADD MSTORE PUSH1 0x18 PUSH1 0x24 DUP3 ADD MSTORE PUSH32 0x4256495820766F6C6174696C69747920746F6F20686967680000000000000000 PUSH1 0x44 DUP3 ADD MSTORE REVERT JUMPDEST DUP4 DUP3 CALLVALUE PUSH2 0x1F2 JUMPI DUP2 PUSH1 0x3 NOT CALLDATASIZE ADD SLT PUSH2 0x1F2 JUMPI PUSH1 0x20 SWAP1 PUSH1 0x3 SLOAD SWAP1 MLOAD SWAP1 DUP2 MSTORE RETURN JUMPDEST POP CALLVALUE PUSH2 0x1CD JUMPI PUSH1 0x20 CALLDATASIZE PUSH1 0x3 NOT ADD SLT PUSH2 0x1CD JUMPI PUSH1 0x20 PUSH32 0x16A73E7B23761A2084DB728A9E4FC9B67E5E2438DEC2F29E9121BFBD7E8E08B7 SWAP2 PUSH1 0x0 DUP1 MLOAD PUSH1 0x20 PUSH2 0x13D1 DUP4 CODECOPY DUP2 MLOAD SWAP2 MSTORE SWAP4 CALLDATALOAD SWAP1 PUSH2 0x3B5 PUSH2 0x1239 JUMP JUMPDEST PUSH5 0x22ECB25C00 DUP3 LT ISZERO DUP1 PUSH2 0x3E4 JUMPI JUMPDEST PUSH2 0x3CD SWAP1 PUSH2 0x138F JUMP JUMPDEST DUP2 PUSH1 0x3 SSTORE PUSH4 0x84AC92B PUSH1 0xE3 SHL DUP2 MLOAD MSTORE MLOAD SWAP1 DUP2 MSTORE LOG2 DUP1 RETURN JUMPDEST POP PUSH6 0x15D3EF79800 DUP3 GT ISZERO PUSH2 0x3C4 JUMP JUMPDEST DUP4 DUP3 CALLVALUE PUSH2 0x1F2 JUMPI DUP2 PUSH1 0x3 NOT CALLDATASIZE ADD SLT PUSH2 0x1F2 JUMPI PUSH1 0x20 SWAP1 PUSH1 0x8 SLOAD SWAP1 MLOAD SWAP1 DUP2 MSTORE RETURN JUMPDEST DUP4 DUP3 CALLVALUE PUSH2 0x1F2 JUMPI DUP2 PUSH1 0x3 NOT CALLDATASIZE ADD SLT PUSH2 0x1F2 JUMPI PUSH1 0x20 SWAP1 PUSH1 0xFF PUSH1 0x9 SLOAD AND SWAP1 MLOAD SWAP1 ISZERO ISZERO DUP2 MSTORE RETURN JUMPDEST DUP4 DUP3 CALLVALUE PUSH2 0x1F2 JUMPI DUP2 PUSH1 0x3 NOT CALLDATASIZE ADD SLT PUSH2 0x1F2 JUMPI PUSH1 0x20 SWAP1 MLOAD PUSH6 0x1A3185C5000 DUP2 MSTORE RETURN JUMPDEST DUP4 DUP3 CALLVALUE PUSH2 0x1F2 JUMPI DUP2 PUSH1 0x3 NOT CALLDATASIZE ADD SLT PUSH2 0x1F2 JUMPI PUSH1 0x20 SWAP1 PUSH1 0x6 SLOAD SWAP1 MLOAD SWAP1 DUP2 MSTORE RETURN JUMPDEST POP SWAP1 CALLVALUE PUSH2 0x1CD JUMPI PUSH1 0x20 CALLDATASIZE PUSH1 0x3 NOT ADD SLT PUSH2 0x1CD JUMPI PUSH1 0x20 DUP2 PUSH1 0x0 DUP1 MLOAD PUSH1 0x20 PUSH2 0x13F1 DUP4 CODECOPY DUP2 MLOAD SWAP2 MSTORE SWAP4 PUSH32 0x16A73E7B23761A2084DB728A9E4FC9B67E5E2438DEC2F29E9121BFBD7E8E08B7 SWAP4 CALLDATALOAD DUP1 SWAP3 PUSH2 0x4CA PUSH2 0x1239 JUMP JUMPDEST PUSH5 0x2E90EDD000 DUP3 LT ISZERO DUP1 PUSH2 0x4F6 JUMPI JUMPDEST PUSH2 0x4E2 SWAP1 PUSH2 0x138F JUMP JUMPDEST SSTORE PUSH4 0x8AAC92B PUSH1 0xE3 SHL DUP2 MLOAD MSTORE MLOAD SWAP1 DUP2 MSTORE LOG2 DUP1 RETURN JUMPDEST POP PUSH6 0x1A3185C5000 DUP3 GT ISZERO PUSH2 0x4D9 JUMP JUMPDEST DUP4 DUP3 CALLVALUE PUSH2 0x1F2 JUMPI DUP2 PUSH1 0x3 NOT CALLDATASIZE ADD SLT PUSH2 0x1F2 JUMPI PUSH1 0x20 PUSH32 0x48DDFA7495202A0165F1855A9BE7CF1577342166C920F162D3A3D90AA9A2D5AA SWAP2 PUSH2 0x544 PUSH2 0x1239 JUMP JUMPDEST PUSH1 0x1 PUSH1 0xFF NOT PUSH1 0x9 SLOAD AND OR PUSH1 0x9 SSTORE TIMESTAMP PUSH1 0x8 SSTORE MLOAD PUSH1 0x1 DUP2 MSTORE LOG1 DUP1 RETURN JUMPDEST DUP4 DUP3 CALLVALUE PUSH2 0x1F2 JUMPI DUP2 PUSH1 0x3 NOT CALLDATASIZE ADD SLT PUSH2 0x1F2 JUMPI PUSH1 0x20 SWAP1 PUSH1 0x7 SLOAD SWAP1 MLOAD SWAP1 DUP2 MSTORE RETURN JUMPDEST DUP4 DUP3 CALLVALUE PUSH2 0x1F2 JUMPI DUP2 PUSH1 0x3 NOT CALLDATASIZE ADD SLT PUSH2 0x1F2 JUMPI SWAP1 SLOAD SWAP1 MLOAD PUSH1 0x1 PUSH1 0x1 PUSH1 0xA0 SHL SUB SWAP1 SWAP2 AND DUP2 MSTORE PUSH1 0x20 SWAP1 RETURN JUMPDEST DUP4 DUP3 CALLVALUE PUSH2 0x1F2 JUMPI DUP2 PUSH1 0x3 NOT CALLDATASIZE ADD SLT PUSH2 0x1F2 JUMPI PUSH1 0x20 PUSH32 0x48DDFA7495202A0165F1855A9BE7CF1577342166C920F162D3A3D90AA9A2D5AA SWAP2 PUSH2 0x5E3 PUSH2 0x1239 JUMP JUMPDEST PUSH1 0xFF NOT PUSH1 0x9 SLOAD AND PUSH1 0x9 SSTORE MLOAD DUP4 DUP2 MSTORE LOG1 DUP1 RETURN JUMPDEST POP DUP3 CALLVALUE PUSH2 0x723 JUMPI DUP1 PUSH1 0x3 NOT CALLDATASIZE ADD SLT PUSH2 0x723 JUMPI PUSH1 0xFF PUSH1 0x9 SLOAD AND SWAP2 PUSH1 0x8 SLOAD SWAP1 PUSH1 0x3C DUP3 ADD SWAP1 DUP2 DUP4 GT PUSH2 0x710 JUMPI PUSH1 0x1 SLOAD DUP2 MLOAD PUSH4 0x4C6AFEE5 PUSH1 0xE1 SHL DUP1 DUP3 MSTORE SWAP1 SWAP5 SWAP2 PUSH1 0x20 SWAP2 SWAP1 PUSH1 0x1 PUSH1 0x1 PUSH1 0xA0 SHL SUB SWAP1 DUP4 SWAP1 DUP9 SWAP1 DUP13 SWAP1 DUP3 SWAP1 DUP6 AND GAS STATICCALL SWAP7 DUP8 ISZERO PUSH2 0x706 JUMPI DUP9 SWAP8 PUSH2 0x6D5 JUMPI JUMPDEST POP SWAP1 DUP3 SWAP2 PUSH1 0x2 SLOAD AND SWAP10 DUP6 MLOAD DUP1 SWAP12 DUP2 SWAP4 DUP3 MSTORE GAS STATICCALL SWAP6 DUP7 ISZERO PUSH2 0x6CA JUMPI SWAP6 PUSH2 0x695 JUMPI JUMPDEST PUSH1 0xA0 SWAP8 POP DUP3 MLOAD SWAP7 ISZERO ISZERO DUP8 MSTORE DUP7 ADD MSTORE DUP5 ADD MSTORE PUSH1 0x60 DUP4 ADD MSTORE PUSH1 0x80 DUP3 ADD MSTORE RETURN JUMPDEST DUP1 SWAP6 POP DUP8 DUP2 RETURNDATASIZE DUP4 GT PUSH2 0x6C3 JUMPI JUMPDEST PUSH2 0x6AC DUP2 DUP4 PUSH2 0x12CE JUMP JUMPDEST DUP2 ADD SUB SLT PUSH2 0x6BE JUMPI PUSH1 0xA0 SWAP7 MLOAD SWAP5 PUSH2 0x678 JUMP JUMPDEST PUSH1 0x0 DUP1 REVERT JUMPDEST POP RETURNDATASIZE PUSH2 0x6A2 JUMP JUMPDEST DUP4 MLOAD SWAP1 RETURNDATASIZE SWAP1 DUP3 RETURNDATACOPY RETURNDATASIZE SWAP1 REVERT JUMPDEST SWAP2 SWAP1 SWAP7 POP DUP3 DUP3 DUP2 RETURNDATASIZE DUP4 GT PUSH2 0x6FF JUMPI JUMPDEST PUSH2 0x6EE DUP2 DUP4 PUSH2 0x12CE JUMP JUMPDEST DUP2 ADD SUB SLT PUSH2 0x6BE JUMPI SWAP1 MLOAD SWAP6 DUP3 PUSH2 0x658 JUMP JUMPDEST POP RETURNDATASIZE PUSH2 0x6E4 JUMP JUMPDEST DUP6 MLOAD RETURNDATASIZE DUP11 DUP3 RETURNDATACOPY RETURNDATASIZE SWAP1 REVERT JUMPDEST PUSH4 0x4E487B71 PUSH1 0xE0 SHL DUP5 MSTORE PUSH1 0x11 DUP7 MSTORE PUSH1 0x24 DUP5 REVERT JUMPDEST DUP1 REVERT JUMPDEST DUP4 CALLVALUE PUSH2 0x723 JUMPI DUP1 PUSH1 0x3 NOT CALLDATASIZE ADD SLT PUSH2 0x723 JUMPI PUSH2 0x73F PUSH2 0x1239 JUMP JUMPDEST PUSH1 0x0 DUP1 SLOAD PUSH1 0x1 PUSH1 0x1 PUSH1 0xA0 SHL SUB NOT DUP2 AND DUP3 SSTORE PUSH1 0x1 PUSH1 0x1 PUSH1 0xA0 SHL SUB AND PUSH32 0x8BE0079C531659141344CD1FD0A4F28419497F9722A3DAAFE3B4186F6B6457E0 DUP3 DUP1 LOG3 DUP1 RETURN JUMPDEST DUP4 DUP3 CALLVALUE PUSH2 0x1F2 JUMPI DUP2 PUSH1 0x3 NOT CALLDATASIZE ADD SLT PUSH2 0x1F2 JUMPI PUSH1 0x2 SLOAD SWAP1 MLOAD PUSH1 0x1 PUSH1 0x1 PUSH1 0xA0 SHL SUB SWAP1 SWAP2 AND DUP2 MSTORE PUSH1 0x20 SWAP1 RETURN JUMPDEST POP SWAP1 CALLVALUE PUSH2 0x1CD JUMPI DUP2 PUSH1 0x3 NOT CALLDATASIZE ADD SLT PUSH2 0x1CD JUMPI DUP1 CALLDATALOAD PUSH1 0x24 CALLDATALOAD PUSH2 0x7C8 PUSH2 0x1239 JUMP JUMPDEST PUSH5 0x22ECB25C00 DUP3 LT ISZERO DUP1 PUSH2 0xAAA JUMPI JUMPDEST ISZERO PUSH2 0xA67 JUMPI PUSH5 0x2E90EDD000 DUP2 LT ISZERO DUP1 PUSH2 0xA57 JUMPI JUMPDEST ISZERO PUSH2 0xA14 JUMPI PUSH1 0x1 SLOAD PUSH1 0x1 PUSH1 0x1 PUSH1 0xA0 SHL SUB SWAP4 SWAP1 DUP7 SWAP1 DUP6 AND DUP1 EXTCODESIZE ISZERO PUSH2 0x1F2 JUMPI DUP2 DUP1 SWAP2 PUSH1 0x24 DUP10 MLOAD DUP1 SWAP5 DUP2 SWAP4 PUSH4 0x8D6CC56D PUSH1 0xE0 SHL DUP4 MSTORE DUP11 DUP10 DUP5 ADD MSTORE GAS CALL DUP1 ISZERO PUSH2 0x9F6 JUMPI PUSH2 0xA00 JUMPI JUMPDEST POP DUP5 PUSH1 0x2 SLOAD AND DUP1 EXTCODESIZE ISZERO PUSH2 0x1F2 JUMPI DUP2 DUP1 SWAP2 PUSH1 0x24 DUP10 MLOAD DUP1 SWAP5 DUP2 SWAP4 PUSH4 0x6A60CDED PUSH1 0xE1 SHL DUP4 MSTORE DUP10 DUP10 DUP5 ADD MSTORE GAS CALL DUP1 ISZERO PUSH2 0x9F6 JUMPI PUSH2 0x9DE JUMPI JUMPDEST POP POP DUP4 PUSH1 0x1 SLOAD AND DUP6 MLOAD SWAP5 DUP6 SWAP5 PUSH4 0x4C6AFEE5 PUSH1 0xE1 SHL SWAP3 DUP4 DUP8 MSTORE DUP7 DUP6 PUSH1 0x20 SWAP9 DUP10 SWAP4 GAS STATICCALL SWAP7 DUP8 ISZERO PUSH2 0x9D4 JUMPI DUP10 SWAP8 PUSH2 0x991 JUMPI JUMPDEST POP DUP8 MLOAD PUSH4 0x84AC92B PUSH1 0xE3 SHL SWAP1 MSTORE DUP8 MLOAD SWAP7 DUP8 MSTORE PUSH1 0x20 DUP8 ADD MSTORE TIMESTAMP PUSH1 0x40 DUP8 ADD MSTORE PUSH32 0xB9EFF63454E8F3E7E3A0591926665EC3DA6F4D9D4072630DDAC1BB0B9836D506 SWAP6 DUP6 SWAP3 SWAP2 SWAP1 PUSH1 0x0 DUP1 MLOAD PUSH1 0x20 PUSH2 0x13D1 DUP4 CODECOPY DUP2 MLOAD SWAP2 MSTORE SWAP1 DUP9 SWAP1 PUSH1 0x60 SWAP1 LOG2 PUSH1 0x2 SLOAD AND SWAP3 DUP8 MLOAD DUP1 SWAP5 DUP2 SWAP4 DUP3 MSTORE GAS STATICCALL SWAP3 DUP4 ISZERO PUSH2 0x987 JUMPI DUP7 SWAP4 PUSH2 0x945 JUMPI JUMPDEST POP POP DUP4 MLOAD PUSH4 0x8AAC92B PUSH1 0xE3 SHL SWAP1 MSTORE SWAP3 MLOAD SWAP1 DUP2 MSTORE PUSH1 0x20 DUP2 ADD SWAP3 SWAP1 SWAP3 MSTORE TIMESTAMP PUSH1 0x40 DUP4 ADD MSTORE PUSH1 0x0 DUP1 MLOAD PUSH1 0x20 PUSH2 0x13F1 DUP4 CODECOPY DUP2 MLOAD SWAP2 MSTORE SWAP2 DUP1 PUSH1 0x60 DUP2 ADD JUMPDEST SUB SWAP1 LOG2 DUP1 RETURN JUMPDEST SWAP1 DUP1 SWAP6 SWAP4 POP DUP2 RETURNDATASIZE DUP4 GT PUSH2 0x980 JUMPI JUMPDEST PUSH2 0x95D DUP2 DUP4 PUSH2 0x12CE JUMP JUMPDEST DUP2 ADD SUB SLT PUSH2 0x6BE JUMPI PUSH2 0x93F PUSH1 0x0 DUP1 MLOAD PUSH1 0x20 PUSH2 0x13F1 DUP4 CODECOPY DUP2 MLOAD SWAP2 MSTORE SWAP5 MLOAD SWAP3 SWAP5 PUSH2 0x908 JUMP JUMPDEST POP RETURNDATASIZE PUSH2 0x953 JUMP JUMPDEST DUP6 MLOAD RETURNDATASIZE DUP9 DUP3 RETURNDATACOPY RETURNDATASIZE SWAP1 REVERT JUMPDEST SWAP3 SWAP2 SWAP1 SWAP7 POP DUP6 DUP4 DUP2 RETURNDATASIZE DUP4 GT PUSH2 0x9CD JUMPI JUMPDEST PUSH2 0x9AB DUP2 DUP4 PUSH2 0x12CE JUMP JUMPDEST DUP2 ADD SUB SLT PUSH2 0x6BE JUMPI SWAP2 MLOAD SWAP6 SWAP1 SWAP2 SWAP1 PUSH1 0x0 DUP1 MLOAD PUSH1 0x20 PUSH2 0x13D1 DUP4 CODECOPY DUP2 MLOAD SWAP2 MSTORE PUSH2 0x892 JUMP JUMPDEST POP RETURNDATASIZE PUSH2 0x9A1 JUMP JUMPDEST DUP9 MLOAD RETURNDATASIZE DUP12 DUP3 RETURNDATACOPY RETURNDATASIZE SWAP1 REVERT JUMPDEST PUSH2 0x9E7 SWAP1 PUSH2 0x1288 JUMP JUMPDEST PUSH2 0x9F2 JUMPI DUP6 CODESIZE PUSH2 0x863 JUMP JUMPDEST DUP6 DUP1 REVERT JUMPDEST DUP8 MLOAD RETURNDATASIZE DUP5 DUP3 RETURNDATACOPY RETURNDATASIZE SWAP1 REVERT JUMPDEST PUSH2 0xA09 SWAP1 PUSH2 0x1288 JUMP JUMPDEST PUSH2 0x9F2 JUMPI DUP6 CODESIZE PUSH2 0x82F JUMP JUMPDEST DUP4 MLOAD PUSH3 0x461BCD PUSH1 0xE5 SHL DUP2 MSTORE PUSH1 0x20 DUP2 DUP6 ADD MSTORE PUSH1 0x18 PUSH1 0x24 DUP3 ADD MSTORE PUSH32 0x45564958207072696365206F7574206F6620626F756E64730000000000000000 PUSH1 0x44 DUP3 ADD MSTORE PUSH1 0x64 SWAP1 REVERT JUMPDEST POP PUSH6 0x1A3185C5000 DUP2 GT ISZERO PUSH2 0x7EB JUMP JUMPDEST DUP4 MLOAD PUSH3 0x461BCD PUSH1 0xE5 SHL DUP2 MSTORE PUSH1 0x20 DUP2 DUP6 ADD MSTORE PUSH1 0x18 PUSH1 0x24 DUP3 ADD MSTORE PUSH32 0x42564958207072696365206F7574206F6620626F756E64730000000000000000 PUSH1 0x44 DUP3 ADD MSTORE PUSH1 0x64 SWAP1 REVERT JUMPDEST POP PUSH6 0x15D3EF79800 DUP3 GT ISZERO PUSH2 0x7D7 JUMP JUMPDEST POP SWAP1 CALLVALUE PUSH2 0x1CD JUMPI DUP3 PUSH1 0x3 NOT CALLDATASIZE ADD SLT PUSH2 0x1CD JUMPI PUSH1 0xFF PUSH1 0x9 SLOAD AND ISZERO PUSH2 0x117B JUMPI PUSH1 0x8 SLOAD PUSH1 0x3C DUP2 ADD DUP1 SWAP2 GT PUSH2 0x1168 JUMPI TIMESTAMP LT PUSH2 0x112F JUMPI PUSH1 0x1 SLOAD DUP3 MLOAD PUSH4 0x4C6AFEE5 PUSH1 0xE1 SHL DUP1 DUP3 MSTORE SWAP3 SWAP1 SWAP2 PUSH1 0x1 PUSH1 0x1 PUSH1 0xA0 SHL SUB SWAP1 DUP2 AND SWAP2 PUSH1 0x20 SWAP2 DUP3 DUP6 DUP4 DUP2 DUP8 GAS STATICCALL SWAP5 DUP6 ISZERO PUSH2 0x1125 JUMPI DUP9 SWAP6 PUSH2 0x10F2 JUMPI JUMPDEST POP DUP5 SWAP6 DUP4 DUP3 PUSH1 0x2 SLOAD AND SWAP2 DUP5 DUP11 MLOAD DUP1 SWAP5 DUP2 SWAP4 DUP3 MSTORE GAS STATICCALL SWAP1 DUP2 ISZERO PUSH2 0x9D4 JUMPI DUP10 SWAP2 PUSH2 0x10C1 JUMPI JUMPDEST POP DUP1 SWAP6 DUP1 ISZERO SWAP1 DUP2 ISZERO PUSH2 0x10B0 JUMPI JUMPDEST POP PUSH2 0x10A6 JUMPI JUMPDEST DUP1 ISZERO SWAP1 DUP2 ISZERO PUSH2 0x1095 JUMPI JUMPDEST POP PUSH2 0x108C JUMPI JUMPDEST PUSH1 0x3 SLOAD PUSH1 0x5 SLOAD PUSH1 0xA SLOAD SWAP5 PUSH1 0x0 NOT SWAP3 SWAP2 SWAP1 DUP4 DUP8 EQ PUSH2 0xF89 JUMPI PUSH1 0x1 DUP8 ADD SWAP3 DUP12 MLOAD SWAP3 PUSH2 0x3E8 DUP14 DUP5 DUP7 ADD SWAP1 TIMESTAMP DUP3 MSTORE PREVRANDAO SWAP1 DUP8 ADD MSTORE DUP7 PUSH1 0x60 DUP8 ADD MSTORE CALLER PUSH1 0x60 SHL SWAP6 DUP7 PUSH1 0x80 DUP3 ADD MSTORE PUSH1 0x74 DUP2 MSTORE PUSH2 0xBB5 DUP2 PUSH2 0x12B2 JUMP JUMPDEST MLOAD SWAP1 KECCAK256 MOD DUP2 PUSH1 0x1 SHL SWAP1 DUP3 DUP3 DIV PUSH1 0x2 EQ DUP4 ISZERO OR ISZERO PUSH2 0x1078 JUMPI DUP16 SWAP4 SWAP3 PUSH2 0xBDD DUP16 SWAP4 PUSH2 0xBE2 SWAP4 PUSH2 0x1303 JUMP JUMPDEST PUSH2 0x1323 JUMP JUMPDEST SWAP3 DUP3 DUP3 GT DUP1 PUSH2 0x1062 JUMPI JUMPDEST ISZERO PUSH2 0x101C JUMPI POP PUSH2 0xC0E PUSH2 0xC05 PUSH2 0xC14 SWAP4 PUSH2 0x2710 SWAP4 PUSH2 0x1323 JUMP JUMPDEST PUSH1 0x7 SLOAD SWAP1 PUSH2 0x12F0 JUMP JUMPDEST DIV PUSH2 0x1330 JUMP JUMPDEST SWAP1 JUMPDEST DUP14 DUP3 DUP3 ADD SWAP3 DUP4 SLT SWAP2 SLT SWAP1 DUP1 ISZERO DUP3 AND SWAP2 ISZERO AND OR PUSH2 0xF9C JUMPI DUP11 DUP14 DUP3 SGT ISZERO PUSH2 0xFCD JUMPI POP PUSH2 0xC43 PUSH2 0x2710 SWAP2 DUP13 PUSH2 0x12F0 JUMP JUMPDEST DIV DUP1 NOT DUP12 GT PUSH2 0xFBF JUMPI PUSH2 0xC56 SWAP1 DUP12 PUSH2 0x1265 JUMP JUMPDEST SWAP7 JUMPDEST PUSH5 0x22ECB25C00 DUP1 DUP10 LT PUSH2 0xFB7 JUMPI JUMPDEST POP PUSH6 0x15D3EF79800 DUP1 DUP10 GT PUSH2 0xFAF JUMPI JUMPDEST POP DUP7 SLOAD SWAP5 PUSH1 0x6 SLOAD SWAP5 EQ PUSH2 0xF9C JUMPI SWAP1 PUSH1 0x2 PUSH2 0x3E8 SWAP4 SWAP3 ADD SWAP2 DUP3 PUSH1 0xA SSTORE DUP13 MLOAD SWAP2 DUP3 ADD SWAP3 TIMESTAMP DUP5 MSTORE DUP14 PREVRANDAO SWAP1 DUP5 ADD MSTORE PUSH1 0x60 DUP4 ADD MSTORE PUSH1 0x80 DUP3 ADD MSTORE PUSH1 0x74 DUP2 MSTORE PUSH2 0xCB7 DUP2 PUSH2 0x12B2 JUMP JUMPDEST MLOAD SWAP1 KECCAK256 MOD DUP2 PUSH1 0x1 SHL SWAP1 DUP3 DUP3 DIV PUSH1 0x2 EQ DUP4 ISZERO OR ISZERO PUSH2 0xF89 JUMPI PUSH2 0xCDC SWAP3 SWAP2 PUSH2 0xBDD SWAP2 PUSH2 0x1303 JUMP JUMPDEST SWAP1 DUP10 DUP8 DUP3 DUP2 GT DUP1 PUSH2 0xF73 JUMPI JUMPDEST ISZERO PUSH2 0xF2C JUMPI PUSH2 0x2710 SWAP2 POP PUSH2 0xC05 PUSH2 0xD02 SWAP4 PUSH2 0xC0E SWAP3 PUSH2 0x1323 JUMP JUMPDEST SWAP1 JUMPDEST DUP10 DUP3 DUP3 ADD SWAP3 DUP4 SLT SWAP2 SLT SWAP1 DUP1 ISZERO DUP3 AND SWAP2 ISZERO AND OR PUSH2 0xF19 JUMPI DUP9 SWAP1 DUP7 DUP3 DUP3 SGT ISZERO PUSH2 0xECA JUMPI POP PUSH2 0xD33 PUSH2 0x2710 SWAP2 DUP9 PUSH2 0x12F0 JUMP JUMPDEST DIV DUP1 NOT DUP8 GT PUSH2 0xEBC JUMPI PUSH2 0xD46 SWAP1 DUP8 PUSH2 0x1265 JUMP JUMPDEST SWAP4 JUMPDEST PUSH5 0x2E90EDD000 DUP1 DUP7 LT PUSH2 0xEB4 JUMPI JUMPDEST POP PUSH6 0x1A3185C5000 DUP1 DUP7 GT PUSH2 0xEAA JUMPI JUMPDEST POP PUSH2 0xD74 PUSH2 0xD7B SWAP2 DUP10 PUSH2 0x1341 JUMP JUMPDEST SWAP5 DUP8 PUSH2 0x1341 JUMP JUMPDEST SWAP5 DUP1 EXTCODESIZE ISZERO PUSH2 0x1F2 JUMPI DUP2 SWAP1 PUSH1 0x24 DUP11 MLOAD DUP1 SWAP5 DUP2 SWAP4 PUSH4 0x8D6CC56D PUSH1 0xE0 SHL DUP4 MSTORE DUP10 DUP10 DUP5 ADD MSTORE GAS CALL DUP1 ISZERO PUSH2 0x9D4 JUMPI PUSH2 0xE95 JUMPI JUMPDEST POP SWAP1 DUP8 SWAP2 PUSH1 0x2 SLOAD AND SWAP1 DUP2 EXTCODESIZE ISZERO PUSH2 0x1CD JUMPI DUP5 PUSH1 0x24 DUP5 SWAP3 DUP4 DUP12 MLOAD SWAP6 DUP7 SWAP5 DUP6 SWAP4 PUSH4 0x6A60CDED PUSH1 0xE1 SHL DUP6 MSTORE DUP5 ADD MSTORE GAS CALL DUP1 ISZERO PUSH2 0x9F6 JUMPI PUSH2 0xE81 JUMPI JUMPDEST POP POP PUSH1 0x0 DUP1 MLOAD PUSH1 0x20 PUSH2 0x13F1 DUP4 CODECOPY DUP2 MLOAD SWAP2 MSTORE SWAP5 PUSH1 0x0 DUP1 MLOAD PUSH1 0x20 PUSH2 0x13D1 DUP4 CODECOPY DUP2 MLOAD SWAP2 MSTORE PUSH2 0x93F SWAP3 TIMESTAMP PUSH1 0x8 SSTORE PUSH4 0x84AC92B PUSH1 0xE3 SHL DUP4 MLOAD MSTORE DUP3 MLOAD DUP1 PUSH2 0xE57 PUSH32 0xB9EFF63454E8F3E7E3A0591926665EC3DA6F4D9D4072630DDAC1BB0B9836D506 SWAP10 DUP11 SWAP5 TIMESTAMP SWAP2 DUP5 PUSH1 0x40 SWAP2 SWAP5 SWAP4 SWAP3 PUSH1 0x60 DUP3 ADD SWAP6 DUP3 MSTORE PUSH1 0x20 DUP3 ADD MSTORE ADD MSTORE JUMP JUMPDEST SUB SWAP1 LOG2 DUP1 MLOAD PUSH4 0x8AAC92B PUSH1 0xE3 SHL SWAP1 MSTORE MLOAD SWAP3 DUP4 MSTORE PUSH1 0x20 DUP4 ADD SWAP2 SWAP1 SWAP2 MSTORE TIMESTAMP PUSH1 0x40 DUP4 ADD MSTORE DUP2 SWAP1 PUSH1 0x60 DUP3 ADD SWAP1 JUMP JUMPDEST PUSH2 0xE8A SWAP1 PUSH2 0x1288 JUMP JUMPDEST PUSH2 0x9F2 JUMPI DUP6 CODESIZE PUSH2 0xDE0 JUMP JUMPDEST PUSH2 0xEA2 SWAP1 SWAP9 SWAP2 SWAP3 SWAP9 PUSH2 0x1288 JUMP JUMPDEST SWAP7 SWAP1 CODESIZE PUSH2 0xDA9 JUMP JUMPDEST SWAP5 POP PUSH2 0xD74 PUSH2 0xD66 JUMP JUMPDEST SWAP5 POP CODESIZE PUSH2 0xD56 JUMP JUMPDEST POP PUSH6 0x1A3185C5000 SWAP4 PUSH2 0xD48 JUMP JUMPDEST SWAP5 SWAP1 DUP3 DUP2 SLT PUSH2 0xEDA JUMPI JUMPDEST POP PUSH2 0xD48 JUMP JUMPDEST PUSH2 0x2710 SWAP2 SWAP6 POP PUSH2 0xEEC PUSH2 0xEF2 SWAP2 PUSH2 0x1330 JUMP JUMPDEST DUP9 PUSH2 0x12F0 JUMP JUMPDEST DIV DUP1 DUP8 LT PUSH2 0xF0C JUMPI PUSH2 0xF04 SWAP1 DUP8 PUSH2 0x1323 JUMP JUMPDEST SWAP4 JUMPDEST CODESIZE PUSH2 0xED4 JUMP JUMPDEST POP PUSH5 0x2E90EDD000 SWAP4 PUSH2 0xF06 JUMP JUMPDEST PUSH4 0x4E487B71 PUSH1 0xE0 SHL DUP10 MSTORE PUSH1 0x11 DUP4 MSTORE PUSH1 0x24 DUP10 REVERT JUMPDEST SWAP1 SWAP3 SWAP2 DUP1 DUP3 LT DUP1 PUSH2 0xF60 JUMPI JUMPDEST PUSH2 0xF44 JUMPI JUMPDEST POP POP PUSH2 0xD04 JUMP JUMPDEST PUSH2 0x2710 SWAP3 SWAP4 POP PUSH2 0xF57 SWAP2 PUSH2 0xC05 SWAP2 PUSH2 0x1323 JUMP JUMPDEST DIV SWAP1 DUP7 CODESIZE PUSH2 0xF3D JUMP JUMPDEST POP DUP2 PUSH2 0xF6C DUP2 DUP4 PUSH2 0x1323 JUMP JUMPDEST GT ISZERO PUSH2 0xF38 JUMP JUMPDEST POP PUSH2 0xF7E DUP4 DUP3 PUSH2 0x1323 JUMP JUMPDEST PUSH1 0xA DUP3 DIV LT ISZERO PUSH2 0xCE8 JUMP JUMPDEST PUSH4 0x4E487B71 PUSH1 0xE0 SHL DUP13 MSTORE PUSH1 0x11 DUP7 MSTORE PUSH1 0x24 DUP13 REVERT JUMPDEST PUSH4 0x4E487B71 PUSH1 0xE0 SHL DUP14 MSTORE PUSH1 0x11 DUP8 MSTORE PUSH1 0x24 DUP14 REVERT JUMPDEST SWAP8 POP CODESIZE PUSH2 0xC76 JUMP JUMPDEST SWAP8 POP CODESIZE PUSH2 0xC66 JUMP JUMPDEST POP PUSH6 0x15D3EF79800 SWAP7 PUSH2 0xC58 JUMP JUMPDEST SWAP8 SWAP1 DUP14 DUP2 SLT PUSH2 0xFDD JUMPI JUMPDEST POP PUSH2 0xC58 JUMP JUMPDEST PUSH2 0x2710 SWAP2 SWAP9 POP PUSH2 0xFEF PUSH2 0xFF5 SWAP2 PUSH2 0x1330 JUMP JUMPDEST DUP13 PUSH2 0x12F0 JUMP JUMPDEST DIV DUP1 DUP12 LT PUSH2 0x100F JUMPI PUSH2 0x1007 SWAP1 DUP12 PUSH2 0x1323 JUMP JUMPDEST SWAP7 JUMPDEST CODESIZE PUSH2 0xFD7 JUMP JUMPDEST POP PUSH5 0x22ECB25C00 SWAP7 PUSH2 0x1009 JUMP JUMPDEST SWAP3 SWAP2 DUP1 DUP3 LT DUP1 PUSH2 0x104F JUMPI JUMPDEST PUSH2 0x1033 JUMPI JUMPDEST POP POP PUSH2 0xC16 JUMP JUMPDEST PUSH2 0x2710 SWAP3 SWAP4 POP PUSH2 0x1046 SWAP2 PUSH2 0xC05 SWAP2 PUSH2 0x1323 JUMP JUMPDEST DIV SWAP1 DUP12 CODESIZE PUSH2 0x102C JUMP JUMPDEST POP DUP2 PUSH2 0x105B DUP2 DUP4 PUSH2 0x1323 JUMP JUMPDEST GT ISZERO PUSH2 0x1027 JUMP JUMPDEST POP PUSH2 0x106D DUP4 DUP4 PUSH2 0x1323 JUMP JUMPDEST PUSH1 0xA DUP4 DIV LT ISZERO PUSH2 0xBEC JUMP JUMPDEST POP PUSH4 0x4E487B71 PUSH1 0xE0 SHL DUP16 MSTORE PUSH1 0x11 DUP10 MSTORE PUSH1 0x24 DUP16 REVERT JUMPDEST DUP2 SLOAD SWAP5 POP PUSH2 0xB68 JUMP JUMPDEST PUSH1 0x1 PUSH1 0x1 PUSH1 0xFF SHL SUB LT SWAP1 POP CODESIZE PUSH2 0xB62 JUMP JUMPDEST PUSH1 0x3 SLOAD SWAP7 POP PUSH2 0xB58 JUMP JUMPDEST PUSH1 0x1 PUSH1 0x1 PUSH1 0xFF SHL SUB LT SWAP1 POP CODESIZE PUSH2 0xB52 JUMP JUMPDEST SWAP1 POP DUP4 DUP2 DUP2 RETURNDATASIZE DUP4 GT PUSH2 0x10EB JUMPI JUMPDEST PUSH2 0x10D8 DUP2 DUP4 PUSH2 0x12CE JUMP JUMPDEST DUP2 ADD SUB SLT PUSH2 0x10E7 JUMPI MLOAD CODESIZE PUSH2 0xB45 JUMP JUMPDEST DUP9 DUP1 REVERT JUMPDEST POP RETURNDATASIZE PUSH2 0x10CE JUMP JUMPDEST SWAP1 SWAP5 POP DUP3 DUP2 DUP2 RETURNDATASIZE DUP4 GT PUSH2 0x111E JUMPI JUMPDEST PUSH2 0x110A DUP2 DUP4 PUSH2 0x12CE JUMP JUMPDEST DUP2 ADD SUB SLT PUSH2 0x111A JUMPI MLOAD SWAP4 CODESIZE PUSH2 0xB22 JUMP JUMPDEST DUP8 DUP1 REVERT JUMPDEST POP RETURNDATASIZE PUSH2 0x1100 JUMP JUMPDEST DUP8 MLOAD RETURNDATASIZE DUP11 DUP3 RETURNDATACOPY RETURNDATASIZE SWAP1 REVERT JUMPDEST PUSH1 0x20 PUSH1 0x64 SWAP3 MLOAD SWAP2 PUSH3 0x461BCD PUSH1 0xE5 SHL DUP4 MSTORE DUP3 ADD MSTORE PUSH1 0x14 PUSH1 0x24 DUP3 ADD MSTORE PUSH20 0x546F6F206672657175656E742075706461746573 PUSH1 0x60 SHL PUSH1 0x44 DUP3 ADD MSTORE REVERT JUMPDEST PUSH4 0x4E487B71 PUSH1 0xE0 SHL DUP5 MSTORE PUSH1 0x11 DUP3 MSTORE PUSH1 0x24 DUP5 REVERT JUMPDEST PUSH1 0x20 PUSH1 0x64 SWAP3 MLOAD SWAP2 PUSH3 0x461BCD PUSH1 0xE5 SHL DUP4 MSTORE DUP3 ADD MSTORE PUSH1 0x15 PUSH1 0x24 DUP3 ADD MSTORE PUSH21 0x53696D756C6174696F6E206E6F7420616374697665 PUSH1 0x58 SHL PUSH1 0x44 DUP3 ADD MSTORE REVERT JUMPDEST DUP4 DUP3 CALLVALUE PUSH2 0x1F2 JUMPI DUP2 PUSH1 0x3 NOT CALLDATASIZE ADD SLT PUSH2 0x1F2 JUMPI PUSH1 0x20 SWAP1 MLOAD PUSH5 0x22ECB25C00 DUP2 MSTORE RETURN JUMPDEST DUP4 DUP3 CALLVALUE PUSH2 0x1F2 JUMPI DUP2 PUSH1 0x3 NOT CALLDATASIZE ADD SLT PUSH2 0x1F2 JUMPI PUSH1 0x1 SLOAD SWAP1 MLOAD PUSH1 0x1 PUSH1 0x1 PUSH1 0xA0 SHL SUB SWAP1 SWAP2 AND DUP2 MSTORE PUSH1 0x20 SWAP1 RETURN JUMPDEST DUP4 DUP3 CALLVALUE PUSH2 0x1F2 JUMPI DUP2 PUSH1 0x3 NOT CALLDATASIZE ADD SLT PUSH2 0x1F2 JUMPI PUSH1 0x20 SWAP1 PUSH1 0x5 SLOAD SWAP1 MLOAD SWAP1 DUP2 MSTORE RETURN JUMPDEST DUP5 SWAP1 DUP5 CALLVALUE PUSH2 0x1CD JUMPI DUP3 PUSH1 0x3 NOT CALLDATASIZE ADD SLT PUSH2 0x1CD JUMPI PUSH1 0x20 SWAP3 POP SLOAD DUP2 MSTORE RETURN JUMPDEST PUSH1 0x0 SLOAD PUSH1 0x1 PUSH1 0x1 PUSH1 0xA0 SHL SUB AND CALLER SUB PUSH2 0x124D JUMPI JUMP JUMPDEST PUSH1 0x40 MLOAD PUSH4 0x118CDAA7 PUSH1 0xE0 SHL DUP2 MSTORE CALLER PUSH1 0x4 DUP3 ADD MSTORE PUSH1 0x24 SWAP1 REVERT JUMPDEST SWAP2 SWAP1 DUP3 ADD DUP1 SWAP3 GT PUSH2 0x1272 JUMPI JUMP JUMPDEST PUSH4 0x4E487B71 PUSH1 0xE0 SHL PUSH1 0x0 MSTORE PUSH1 0x11 PUSH1 0x4 MSTORE PUSH1 0x24 PUSH1 0x0 REVERT JUMPDEST PUSH8 0xFFFFFFFFFFFFFFFF DUP2 GT PUSH2 0x129C JUMPI PUSH1 0x40 MSTORE JUMP JUMPDEST PUSH4 0x4E487B71 PUSH1 0xE0 SHL PUSH1 0x0 MSTORE PUSH1 0x41 PUSH1 0x4 MSTORE PUSH1 0x24 PUSH1 0x0 REVERT JUMPDEST PUSH1 0xA0 DUP2 ADD SWAP1 DUP2 LT PUSH8 0xFFFFFFFFFFFFFFFF DUP3 GT OR PUSH2 0x129C JUMPI PUSH1 0x40 MSTORE JUMP JUMPDEST SWAP1 PUSH1 0x1F DUP1 NOT SWAP2 ADD AND DUP2 ADD SWAP1 DUP2 LT PUSH8 0xFFFFFFFFFFFFFFFF DUP3 GT OR PUSH2 0x129C JUMPI PUSH1 0x40 MSTORE JUMP JUMPDEST DUP2 DUP2 MUL SWAP3 SWAP2 DUP2 ISZERO SWAP2 DUP5 DIV EQ OR ISZERO PUSH2 0x1272 JUMPI JUMP JUMPDEST DUP2 ISZERO PUSH2 0x130D JUMPI MOD SWAP1 JUMP JUMPDEST PUSH4 0x4E487B71 PUSH1 0xE0 SHL PUSH1 0x0 MSTORE PUSH1 0x12 PUSH1 0x4 MSTORE PUSH1 0x24 PUSH1 0x0 REVERT JUMPDEST SWAP2 SWAP1 DUP3 SUB SWAP2 DUP3 GT PUSH2 0x1272 JUMPI JUMP JUMPDEST PUSH1 0x1 PUSH1 0xFF SHL DUP2 EQ PUSH2 0x1272 JUMPI PUSH1 0x0 SUB SWAP1 JUMP JUMPDEST PUSH1 0x64 DUP2 DIV SWAP1 DUP1 DUP4 GT ISZERO PUSH2 0x1370 JUMPI DUP2 PUSH2 0x1359 DUP3 DUP6 PUSH2 0x1323 JUMP JUMPDEST GT PUSH2 0x1363 JUMPI POP POP SWAP1 JUMP JUMPDEST PUSH2 0x136D SWAP3 POP PUSH2 0x1265 JUMP JUMPDEST SWAP1 JUMP JUMPDEST DUP2 PUSH2 0x137B DUP5 DUP4 PUSH2 0x1323 JUMP JUMPDEST GT PUSH2 0x1385 JUMPI POP POP SWAP1 JUMP JUMPDEST PUSH2 0x136D SWAP3 POP PUSH2 0x1323 JUMP JUMPDEST ISZERO PUSH2 0x1396 JUMPI JUMP JUMPDEST PUSH1 0x40 MLOAD PUSH3 0x461BCD PUSH1 0xE5 SHL DUP2 MSTORE PUSH1 0x20 PUSH1 0x4 DUP3 ADD MSTORE PUSH1 0x12 PUSH1 0x24 DUP3 ADD MSTORE PUSH18 0x496E76616C6964206D65616E207072696365 PUSH1 0x70 SHL PUSH1 0x44 DUP3 ADD MSTORE PUSH1 0x64 SWAP1 REVERT INVALID 0xD3 SAR 0xC4 ADD 0xCC KECCAK256 0xF9 0xF7 DUP9 MLOAD 0x4C 0x4D 0x2F 0xAD CHAINID DUP9 SWAP9 0x24 0xC2 0x1F RETURN 0xE6 PUSH26 0xC43C9770B3B4B3BD52F852F64739C79113305C1F1DBB665A0196 0xB6 CHAINID 0xC6 PUSH25 0x4356E2F282E6074357EC16A2646970667358221220F78EE0A4 0xEC 0x21 0xE2 0xC6 0xE3 DUP14 0xE7 0xAC 0xDB 0xD3 BYTE 0xB3 PUSH22 0xB82830E6FB6E9B417986251DDFE14B64736F6C634300 ADDMOD ISZERO STOP CALLER "},"methodIdentifiers":{"BVIX_MAX_PRICE()":"f2d18ce5","BVIX_MIN_PRICE()":"3ae2b2f7","EVIX_MAX_PRICE()":"b540f3db","EVIX_MIN_PRICE()":"e4faac22","MAX_MOVEMENT_BPS()":"e3cfcdd0","bvixMeanPrice()":"d432af4d","bvixOracle()":"284a5d23","bvixVolatility()":"1baaab84","emergencyUpdatePrices(uint256,uint256)":"4b9fdeac","evixMeanPrice()":"02a68f93","evixOracle()":"4c96366a","evixVolatility()":"a58b6a0e","getSimulationStatus()":"7d3b9ab9","lastUpdateTime()":"c8f33c91","meanReversionStrength()":"9683ba78","owner()":"8da5cb5b","renounceOwnership()":"715018a6","setBvixMeanPrice(uint256)":"d0577174","setEvixMeanPrice(uint256)":"a53b7fa8","setVolatilityParams(uint256,uint256,uint256)":"e2423411","simulationActive()":"c10a09cf","startSimulation()":"9ef64d07","stopSimulation()":"8af8b8d5","transferOwnership(address)":"f2fde38b","updatePrices()":"49dd1262"}}}}}