{"contracts/MintRedeemV7.sol":{"MintRedeemV7":{"abi":[{"inputs":[{"internalType":"address","name":"_usdc","type":"address"},{"internalType":"address","name":"_bvix","type":"address"},{"internalType":"address","name":"_oracle","type":"address"},{"internalType":"address","name":"initialOwner","type":"address"}],"stateMutability":"nonpayable","type":"constructor"},{"inputs":[{"internalType":"address","name":"owner","type":"address"}],"name":"OwnableInvalidOwner","type":"error"},{"inputs":[{"internalType":"address","name":"account","type":"address"}],"name":"OwnableUnauthorizedAccount","type":"error"},{"anonymous":false,"inputs":[{"indexed":true,"internalType":"address","name":"user","type":"address"},{"indexed":false,"internalType":"uint256","name":"usdcAmount","type":"uint256"},{"indexed":false,"internalType":"uint256","name":"bvixMinted","type":"uint256"},{"indexed":false,"internalType":"uint256","name":"targetCR","type":"uint256"}],"name":"Mint","type":"event"},{"anonymous":false,"inputs":[{"indexed":true,"internalType":"address","name":"previousOwner","type":"address"},{"indexed":true,"internalType":"address","name":"newOwner","type":"address"}],"name":"OwnershipTransferred","type":"event"},{"anonymous":false,"inputs":[{"indexed":true,"internalType":"address","name":"user","type":"address"},{"indexed":false,"internalType":"uint256","name":"bvixAmount","type":"uint256"},{"indexed":false,"internalType":"uint256","name":"usdcRedeemed","type":"uint256"}],"name":"Redeem","type":"event"},{"inputs":[],"name":"bvix","outputs":[{"internalType":"contract BVIXToken","name":"","type":"address"}],"stateMutability":"view","type":"function"},{"inputs":[],"name":"getCollateralRatio","outputs":[{"internalType":"uint256","name":"","type":"uint256"}],"stateMutability":"view","type":"function"},{"inputs":[{"internalType":"address","name":"user","type":"address"}],"name":"getUserCollateralRatio","outputs":[{"internalType":"uint256","name":"","type":"uint256"}],"stateMutability":"view","type":"function"},{"inputs":[],"name":"minCollateralRatio","outputs":[{"internalType":"uint256","name":"","type":"uint256"}],"stateMutability":"view","type":"function"},{"inputs":[],"name":"mintFee","outputs":[{"internalType":"uint256","name":"","type":"uint256"}],"stateMutability":"view","type":"function"},{"inputs":[{"internalType":"uint256","name":"amount","type":"uint256"},{"internalType":"uint256","name":"targetCR","type":"uint256"}],"name":"mintWithCollateralRatio","outputs":[{"internalType":"uint256","name":"","type":"uint256"}],"stateMutability":"nonpayable","type":"function"},{"inputs":[],"name":"oracle","outputs":[{"internalType":"contract MockOracle","name":"","type":"address"}],"stateMutability":"view","type":"function"},{"inputs":[],"name":"owner","outputs":[{"internalType":"address","name":"","type":"address"}],"stateMutability":"view","type":"function"},{"inputs":[{"internalType":"address","name":"","type":"address"}],"name":"positions","outputs":[{"internalType":"uint256","name":"collateral","type":"uint256"},{"internalType":"uint256","name":"debt","type":"uint256"}],"stateMutability":"view","type":"function"},{"inputs":[{"internalType":"uint256","name":"amount","type":"uint256"}],"name":"redeem","outputs":[{"internalType":"uint256","name":"","type":"uint256"}],"stateMutability":"nonpayable","type":"function"},{"inputs":[],"name":"redeemFee","outputs":[{"internalType":"uint256","name":"","type":"uint256"}],"stateMutability":"view","type":"function"},{"inputs":[],"name":"renounceOwnership","outputs":[],"stateMutability":"nonpayable","type":"function"},{"inputs":[{"internalType":"uint256","name":"_mintFee","type":"uint256"},{"internalType":"uint256","name":"_redeemFee","type":"uint256"}],"name":"setFees","outputs":[],"stateMutability":"nonpayable","type":"function"},{"inputs":[],"name":"totalCollateral","outputs":[{"internalType":"uint256","name":"","type":"uint256"}],"stateMutability":"view","type":"function"},{"inputs":[],"name":"totalDebt","outputs":[{"internalType":"uint256","name":"","type":"uint256"}],"stateMutability":"view","type":"function"},{"inputs":[{"internalType":"address","name":"newOwner","type":"address"}],"name":"transferOwnership","outputs":[],"stateMutability":"nonpayable","type":"function"},{"inputs":[],"name":"usdc","outputs":[{"internalType":"contract IERC20","name":"","type":"address"}],"stateMutability":"view","type":"function"}],"evm":{"bytecode":{"linkReferences":{},"object":"60803461011a57601f610f2d38819003918201601f19168301916001600160401b0383118484101761011f5780849260809460405283398101031261011a5761004781610135565b90606061005660208301610135565b9161006360408201610135565b6001600160a01b03929091839161007a9101610135565b1692831561010157600080546001600160a01b03198082168717835560405197909686949385938416907f8be0079c531659141344cd1fd0a4f28419497f9722a3daafe3b4186f6b6457e09080a3601e600455601e6005556078600655168560015416176001551683600254161760025516906003541617600355610de3908161014a8239f35b604051631e4fbdf760e01b815260006004820152602490fd5b600080fd5b634e487b7160e01b600052604160045260246000fd5b51906001600160a01b038216820361011a5756fe6040608081526004908136101561001557600080fd5b600091823560e01c9081630b78f9c0146109c457816310b45de11461099357816313966db5146109755781633e413bee1461094c5781634ac8eb5f1461092d57816355f57510146108e95781636008d28b1461054e578163715018a6146104f15781637dc0d1d0146104c857816384da2666146104a95781638da5cb5b14610481578163965fa21e146104625781639f80fb4e14610439578163cd377c5314610415578163db006a751461019c578163f2fde38b146100ff575063fc7b9c18146100de57600080fd5b346100fb57816003193601126100fb576020906008549051908152f35b5080fd5b91905034610198576020366003190112610198576001600160a01b0382358181169391929084900361019457610133610a52565b831561017e575050600054826bffffffffffffffffffffffff60a01b821617600055167f8be0079c531659141344cd1fd0a4f28419497f9722a3daafe3b4186f6b6457e0600080a380f35b51631e4fbdf760e01b8152908101849052602490fd5b8480fd5b8280fd5b919050346101985760209182600319360112610411578035906101c0821515610a7e565b338552600984528285209460018601918254928484106103da576003548651634c6afee560e11b81526001600160a01b03959189908290869082908a165afa9081156103d05785916103a1575b5091610265876102359a9b9361022661026f9683610b0b565b5061023a8186549d8e85610b0b565b610b34565b9461025e8661025861271061025160055484610b0b565b0482610b54565b9e610b54565b9055610b54565b9055600754610b54565b60075561027e84600854610b54565b6008558260025416803b15610198578551632770a7eb60e21b815233838201908152602081018790529091849183919082908490829060400103925af18015610397579187918993610384575b50600154875163a9059cbb60e01b815233928101928352602083019390935293949193849216908290869082906040015b03925af191821561037957906103179261034c575b50610b86565b815190815282848201527fe5b754fb1abb7f01b499791d0b820ae3b6af3424ac1c59768edb53f4ec31a929823392a251908152f35b61036c9150863d8811610372575b6103648183610ae9565b810190610b6e565b38610311565b503d61035a565b8451903d90823e3d90fd5b936103916102fc95610abf565b936102cb565b86513d85823e3d90fd5b90508881813d83116103c9575b6103b88183610ae9565b81010312610194575161026561020d565b503d6103ae565b88513d87823e3d90fd5b855162461bcd60e51b81528083018890526011602482015270125b9cdd59999a58da595b9d081919589d607a1b6044820152606490fd5b8380fd5b5050346100fb57816003193601126100fb57602090610432610bc4565b9051908152f35b5050346100fb57816003193601126100fb5760025490516001600160a01b039091168152602090f35b5050346100fb57816003193601126100fb576020906005549051908152f35b5050346100fb57816003193601126100fb57905490516001600160a01b039091168152602090f35b5050346100fb57816003193601126100fb576020906006549051908152f35b5050346100fb57816003193601126100fb5760035490516001600160a01b039091168152602090f35b833461054b578060031936011261054b5761050a610a52565b80546001600160a01b03198116825581906001600160a01b03167f8be0079c531659141344cd1fd0a4f28419497f9722a3daafe3b4186f6b6457e08280a380f35b80fd5b919050346101985761055f36610a37565b61056a821515610a7e565b6078811015806108dd575b156108a7576003548351634c6afee560e11b8152602096909590916001600160a01b0390889088908490829085165afa968715610397578397610878575b506105cc6127106105c5845488610b0b565b0486610b54565b60649081810281810483148215171561086557866105e991610b34565b64e8d4a510009081810290808204831481151715610852576c0c9f2c9cd04674edea4000000002670de0b6b3a764000091808204831490151715610852578b61063191610b34565b9a8b1561081d579061065c8c939261065761064e87600754610b61565b95600854610b61565b610b0b565b0404908381029080820485149015171561080a579061067a91610b34565b600654116107d25784916106c28b92338552600984528a852061069e828254610b61565b90553385526009845260018b8620016106b88d8254610b61565b9055600754610b61565b6007556106d18a600854610b61565b6008558360015416908951809481936323b872dd60e01b835233898401523060248401528b60448401525af19081156107c857906107159185916107b15750610b86565b6002541690813b156101985785516340c10f1960e01b815233918101918252602082018890529291829184919082908490829060400103925af19081156107a65750610797575b5082519182528385830152828201527fb4c03061fb5b7fed76389d5af8f2e0ddb09f8c70d1333abbb62582835e10accb60603392a251908152f35b6107a090610abf565b3861075c565b8551903d90823e3d90fd5b61036c91508a3d8c11610372576103648183610ae9565b87513d86823e3d90fd5b50865162461bcd60e51b81528084018a905260146024820152732bb7bab632103b34b7b630ba329036b4b71021a960611b6044820152fd5b634e487b7160e01b875260118652602487fd5b8a5162461bcd60e51b81528088018e9052601060248201526f105b5bdd5b9d081d1bdbc81cdb585b1b60821b60448201528590fd5b634e487b7160e01b885260118752602488fd5b634e487b7160e01b865260118552602486fd5b9096508781813d83116108a0575b6108908183610ae9565b81010312610198575195386105b3565b503d610886565b825162461bcd60e51b8152602081860152601060248201526f496e76616c69642043522072616e676560801b6044820152606490fd5b5061012c811115610575565b90503461019857602036600319011261019857356001600160a01b038116908190036101985791819281526009602052206001815491015482519182526020820152f35b5050346100fb57816003193601126100fb576020906007549051908152f35b5050346100fb57816003193601126100fb5760015490516001600160a01b039091168152602090f35b90503461019857826003193601126101985760209250549051908152f35b9050346101985760203660031901126101985735916001600160a01b038316830361054b5750610432602092610c8f565b91905034610198576109d536610a37565b9290916109e0610a52565b6101f4808411159081610a2c575b50156109fc57505560055580f35b906020606492519162461bcd60e51b8352820152600a6024820152694d61782035252066656560b01b6044820152fd5b9050841115386109ee565b6040906003190112610a4d576004359060243590565b600080fd5b6000546001600160a01b03163303610a6657565b60405163118cdaa760e01b8152336004820152602490fd5b15610a8557565b60405162461bcd60e51b81526020600482015260126024820152710416d6f756e74206d757374206265203e20360741b6044820152606490fd5b67ffffffffffffffff8111610ad357604052565b634e487b7160e01b600052604160045260246000fd5b90601f8019910116810190811067ffffffffffffffff821117610ad357604052565b81810292918115918404141715610b1e57565b634e487b7160e01b600052601160045260246000fd5b8115610b3e570490565b634e487b7160e01b600052601260045260246000fd5b91908203918211610b1e57565b91908201809211610b1e57565b90816020910312610a4d57518015158103610a4d5790565b15610b8d57565b60405162461bcd60e51b815260206004820152600f60248201526e151c985b9cd9995c8819985a5b1959608a1b6044820152606490fd5b6008548015610c8957600354604051634c6afee560e11b815290602090829060049082906001600160a01b03165afa908115610c7d57600091610c3f575b50610c1b906c0c9f2c9cd04674edea4000000092610b0b565b0460075490606482029180830460641490151715610b1e57610c3c91610b34565b90565b906020823d8211610c75575b81610c5860209383610ae9565b8101031261054b5750516c0c9f2c9cd04674edea40000000610c02565b3d9150610c4b565b6040513d6000823e3d90fd5b50600090565b6001600160a01b0390811660009081526009602090815260408083208151939594929084830167ffffffffffffffff811186821017610d995783528054855260010154818501818152939015610d9257908060049260035416845193848092634c6afee560e11b82525afa928315610d8957508692610d59575b5050610d24906c0c9f2c9cd04674edea400000009251610b0b565b049051606481029080820460641490151715610d4557610c3c929350610b34565b634e487b7160e01b84526011600452602484fd5b90809250813d8311610d82575b610d708183610ae9565b81010312610194575181610d24610d09565b503d610d66565b513d88823e3d90fd5b5050505050565b634e487b7160e01b88526041600452602488fdfea2646970667358221220a295b6162f964b3a48f97a93157afaac2ed834970ca4b54b46f58975d1349d5e64736f6c63430008150033","opcodes":"PUSH1 0x80 CALLVALUE PUSH2 0x11A JUMPI PUSH1 0x1F PUSH2 0xF2D CODESIZE DUP2 SWAP1 SUB SWAP2 DUP3 ADD PUSH1 0x1F NOT AND DUP4 ADD SWAP2 PUSH1 0x1 PUSH1 0x1 PUSH1 0x40 SHL SUB DUP4 GT DUP5 DUP5 LT OR PUSH2 0x11F JUMPI DUP1 DUP5 SWAP3 PUSH1 0x80 SWAP5 PUSH1 0x40 MSTORE DUP4 CODECOPY DUP2 ADD SUB SLT PUSH2 0x11A JUMPI PUSH2 0x47 DUP2 PUSH2 0x135 JUMP JUMPDEST SWAP1 PUSH1 0x60 PUSH2 0x56 PUSH1 0x20 DUP4 ADD PUSH2 0x135 JUMP JUMPDEST SWAP2 PUSH2 0x63 PUSH1 0x40 DUP3 ADD PUSH2 0x135 JUMP JUMPDEST PUSH1 0x1 PUSH1 0x1 PUSH1 0xA0 SHL SUB SWAP3 SWAP1 SWAP2 DUP4 SWAP2 PUSH2 0x7A SWAP2 ADD PUSH2 0x135 JUMP JUMPDEST AND SWAP3 DUP4 ISZERO PUSH2 0x101 JUMPI PUSH1 0x0 DUP1 SLOAD PUSH1 0x1 PUSH1 0x1 PUSH1 0xA0 SHL SUB NOT DUP1 DUP3 AND DUP8 OR DUP4 SSTORE PUSH1 0x40 MLOAD SWAP8 SWAP1 SWAP7 DUP7 SWAP5 SWAP4 DUP6 SWAP4 DUP5 AND SWAP1 PUSH32 0x8BE0079C531659141344CD1FD0A4F28419497F9722A3DAAFE3B4186F6B6457E0 SWAP1 DUP1 LOG3 PUSH1 0x1E PUSH1 0x4 SSTORE PUSH1 0x1E PUSH1 0x5 SSTORE PUSH1 0x78 PUSH1 0x6 SSTORE AND DUP6 PUSH1 0x1 SLOAD AND OR PUSH1 0x1 SSTORE AND DUP4 PUSH1 0x2 SLOAD AND OR PUSH1 0x2 SSTORE AND SWAP1 PUSH1 0x3 SLOAD AND OR PUSH1 0x3 SSTORE PUSH2 0xDE3 SWAP1 DUP2 PUSH2 0x14A DUP3 CODECOPY RETURN JUMPDEST PUSH1 0x40 MLOAD PUSH4 0x1E4FBDF7 PUSH1 0xE0 SHL DUP2 MSTORE PUSH1 0x0 PUSH1 0x4 DUP3 ADD MSTORE PUSH1 0x24 SWAP1 REVERT JUMPDEST PUSH1 0x0 DUP1 REVERT JUMPDEST PUSH4 0x4E487B71 PUSH1 0xE0 SHL PUSH1 0x0 MSTORE PUSH1 0x41 PUSH1 0x4 MSTORE PUSH1 0x24 PUSH1 0x0 REVERT JUMPDEST MLOAD SWAP1 PUSH1 0x1 PUSH1 0x1 PUSH1 0xA0 SHL SUB DUP3 AND DUP3 SUB PUSH2 0x11A JUMPI JUMP INVALID PUSH1 0x40 PUSH1 0x80 DUP2 MSTORE PUSH1 0x4 SWAP1 DUP2 CALLDATASIZE LT ISZERO PUSH2 0x15 JUMPI PUSH1 0x0 DUP1 REVERT JUMPDEST PUSH1 0x0 SWAP2 DUP3 CALLDATALOAD PUSH1 0xE0 SHR SWAP1 DUP2 PUSH4 0xB78F9C0 EQ PUSH2 0x9C4 JUMPI DUP2 PUSH4 0x10B45DE1 EQ PUSH2 0x993 JUMPI DUP2 PUSH4 0x13966DB5 EQ PUSH2 0x975 JUMPI DUP2 PUSH4 0x3E413BEE EQ PUSH2 0x94C JUMPI DUP2 PUSH4 0x4AC8EB5F EQ PUSH2 0x92D JUMPI DUP2 PUSH4 0x55F57510 EQ PUSH2 0x8E9 JUMPI DUP2 PUSH4 0x6008D28B EQ PUSH2 0x54E JUMPI DUP2 PUSH4 0x715018A6 EQ PUSH2 0x4F1 JUMPI DUP2 PUSH4 0x7DC0D1D0 EQ PUSH2 0x4C8 JUMPI DUP2 PUSH4 0x84DA2666 EQ PUSH2 0x4A9 JUMPI DUP2 PUSH4 0x8DA5CB5B EQ PUSH2 0x481 JUMPI DUP2 PUSH4 0x965FA21E EQ PUSH2 0x462 JUMPI DUP2 PUSH4 0x9F80FB4E EQ PUSH2 0x439 JUMPI DUP2 PUSH4 0xCD377C53 EQ PUSH2 0x415 JUMPI DUP2 PUSH4 0xDB006A75 EQ PUSH2 0x19C JUMPI DUP2 PUSH4 0xF2FDE38B EQ PUSH2 0xFF JUMPI POP PUSH4 0xFC7B9C18 EQ PUSH2 0xDE JUMPI PUSH1 0x0 DUP1 REVERT JUMPDEST CALLVALUE PUSH2 0xFB JUMPI DUP2 PUSH1 0x3 NOT CALLDATASIZE ADD SLT PUSH2 0xFB JUMPI PUSH1 0x20 SWAP1 PUSH1 0x8 SLOAD SWAP1 MLOAD SWAP1 DUP2 MSTORE RETURN JUMPDEST POP DUP1 REVERT JUMPDEST SWAP2 SWAP1 POP CALLVALUE PUSH2 0x198 JUMPI PUSH1 0x20 CALLDATASIZE PUSH1 0x3 NOT ADD SLT PUSH2 0x198 JUMPI PUSH1 0x1 PUSH1 0x1 PUSH1 0xA0 SHL SUB DUP3 CALLDATALOAD DUP2 DUP2 AND SWAP4 SWAP2 SWAP3 SWAP1 DUP5 SWAP1 SUB PUSH2 0x194 JUMPI PUSH2 0x133 PUSH2 0xA52 JUMP JUMPDEST DUP4 ISZERO PUSH2 0x17E JUMPI POP POP PUSH1 0x0 SLOAD DUP3 PUSH12 0xFFFFFFFFFFFFFFFFFFFFFFFF PUSH1 0xA0 SHL DUP3 AND OR PUSH1 0x0 SSTORE AND PUSH32 0x8BE0079C531659141344CD1FD0A4F28419497F9722A3DAAFE3B4186F6B6457E0 PUSH1 0x0 DUP1 LOG3 DUP1 RETURN JUMPDEST MLOAD PUSH4 0x1E4FBDF7 PUSH1 0xE0 SHL DUP2 MSTORE SWAP1 DUP2 ADD DUP5 SWAP1 MSTORE PUSH1 0x24 SWAP1 REVERT JUMPDEST DUP5 DUP1 REVERT JUMPDEST DUP3 DUP1 REVERT JUMPDEST SWAP2 SWAP1 POP CALLVALUE PUSH2 0x198 JUMPI PUSH1 0x20 SWAP2 DUP3 PUSH1 0x3 NOT CALLDATASIZE ADD SLT PUSH2 0x411 JUMPI DUP1 CALLDATALOAD SWAP1 PUSH2 0x1C0 DUP3 ISZERO ISZERO PUSH2 0xA7E JUMP JUMPDEST CALLER DUP6 MSTORE PUSH1 0x9 DUP5 MSTORE DUP3 DUP6 KECCAK256 SWAP5 PUSH1 0x1 DUP7 ADD SWAP2 DUP3 SLOAD SWAP3 DUP5 DUP5 LT PUSH2 0x3DA JUMPI PUSH1 0x3 SLOAD DUP7 MLOAD PUSH4 0x4C6AFEE5 PUSH1 0xE1 SHL DUP2 MSTORE PUSH1 0x1 PUSH1 0x1 PUSH1 0xA0 SHL SUB SWAP6 SWAP2 DUP10 SWAP1 DUP3 SWAP1 DUP7 SWAP1 DUP3 SWAP1 DUP11 AND GAS STATICCALL SWAP1 DUP2 ISZERO PUSH2 0x3D0 JUMPI DUP6 SWAP2 PUSH2 0x3A1 JUMPI JUMPDEST POP SWAP2 PUSH2 0x265 DUP8 PUSH2 0x235 SWAP11 SWAP12 SWAP4 PUSH2 0x226 PUSH2 0x26F SWAP7 DUP4 PUSH2 0xB0B JUMP JUMPDEST POP PUSH2 0x23A DUP2 DUP7 SLOAD SWAP14 DUP15 DUP6 PUSH2 0xB0B JUMP JUMPDEST PUSH2 0xB34 JUMP JUMPDEST SWAP5 PUSH2 0x25E DUP7 PUSH2 0x258 PUSH2 0x2710 PUSH2 0x251 PUSH1 0x5 SLOAD DUP5 PUSH2 0xB0B JUMP JUMPDEST DIV DUP3 PUSH2 0xB54 JUMP JUMPDEST SWAP15 PUSH2 0xB54 JUMP JUMPDEST SWAP1 SSTORE PUSH2 0xB54 JUMP JUMPDEST SWAP1 SSTORE PUSH1 0x7 SLOAD PUSH2 0xB54 JUMP JUMPDEST PUSH1 0x7 SSTORE PUSH2 0x27E DUP5 PUSH1 0x8 SLOAD PUSH2 0xB54 JUMP JUMPDEST PUSH1 0x8 SSTORE DUP3 PUSH1 0x2 SLOAD AND DUP1 EXTCODESIZE ISZERO PUSH2 0x198 JUMPI DUP6 MLOAD PUSH4 0x2770A7EB PUSH1 0xE2 SHL DUP2 MSTORE CALLER DUP4 DUP3 ADD SWAP1 DUP2 MSTORE PUSH1 0x20 DUP2 ADD DUP8 SWAP1 MSTORE SWAP1 SWAP2 DUP5 SWAP2 DUP4 SWAP2 SWAP1 DUP3 SWAP1 DUP5 SWAP1 DUP3 SWAP1 PUSH1 0x40 ADD SUB SWAP3 GAS CALL DUP1 ISZERO PUSH2 0x397 JUMPI SWAP2 DUP8 SWAP2 DUP10 SWAP4 PUSH2 0x384 JUMPI JUMPDEST POP PUSH1 0x1 SLOAD DUP8 MLOAD PUSH4 0xA9059CBB PUSH1 0xE0 SHL DUP2 MSTORE CALLER SWAP3 DUP2 ADD SWAP3 DUP4 MSTORE PUSH1 0x20 DUP4 ADD SWAP4 SWAP1 SWAP4 MSTORE SWAP4 SWAP5 SWAP2 SWAP4 DUP5 SWAP3 AND SWAP1 DUP3 SWAP1 DUP7 SWAP1 DUP3 SWAP1 PUSH1 0x40 ADD JUMPDEST SUB SWAP3 GAS CALL SWAP2 DUP3 ISZERO PUSH2 0x379 JUMPI SWAP1 PUSH2 0x317 SWAP3 PUSH2 0x34C JUMPI JUMPDEST POP PUSH2 0xB86 JUMP JUMPDEST DUP2 MLOAD SWAP1 DUP2 MSTORE DUP3 DUP5 DUP3 ADD MSTORE PUSH32 0xE5B754FB1ABB7F01B499791D0B820AE3B6AF3424AC1C59768EDB53F4EC31A929 DUP3 CALLER SWAP3 LOG2 MLOAD SWAP1 DUP2 MSTORE RETURN JUMPDEST PUSH2 0x36C SWAP2 POP DUP7 RETURNDATASIZE DUP9 GT PUSH2 0x372 JUMPI JUMPDEST PUSH2 0x364 DUP2 DUP4 PUSH2 0xAE9 JUMP JUMPDEST DUP2 ADD SWAP1 PUSH2 0xB6E JUMP JUMPDEST CODESIZE PUSH2 0x311 JUMP JUMPDEST POP RETURNDATASIZE PUSH2 0x35A JUMP JUMPDEST DUP5 MLOAD SWAP1 RETURNDATASIZE SWAP1 DUP3 RETURNDATACOPY RETURNDATASIZE SWAP1 REVERT JUMPDEST SWAP4 PUSH2 0x391 PUSH2 0x2FC SWAP6 PUSH2 0xABF JUMP JUMPDEST SWAP4 PUSH2 0x2CB JUMP JUMPDEST DUP7 MLOAD RETURNDATASIZE DUP6 DUP3 RETURNDATACOPY RETURNDATASIZE SWAP1 REVERT JUMPDEST SWAP1 POP DUP9 DUP2 DUP2 RETURNDATASIZE DUP4 GT PUSH2 0x3C9 JUMPI JUMPDEST PUSH2 0x3B8 DUP2 DUP4 PUSH2 0xAE9 JUMP JUMPDEST DUP2 ADD SUB SLT PUSH2 0x194 JUMPI MLOAD PUSH2 0x265 PUSH2 0x20D JUMP JUMPDEST POP RETURNDATASIZE PUSH2 0x3AE JUMP JUMPDEST DUP9 MLOAD RETURNDATASIZE DUP8 DUP3 RETURNDATACOPY RETURNDATASIZE SWAP1 REVERT JUMPDEST DUP6 MLOAD PUSH3 0x461BCD PUSH1 0xE5 SHL DUP2 MSTORE DUP1 DUP4 ADD DUP9 SWAP1 MSTORE PUSH1 0x11 PUSH1 0x24 DUP3 ADD MSTORE PUSH17 0x125B9CDD59999A58DA595B9D081919589D PUSH1 0x7A SHL PUSH1 0x44 DUP3 ADD MSTORE PUSH1 0x64 SWAP1 REVERT JUMPDEST DUP4 DUP1 REVERT JUMPDEST POP POP CALLVALUE PUSH2 0xFB JUMPI DUP2 PUSH1 0x3 NOT CALLDATASIZE ADD SLT PUSH2 0xFB JUMPI PUSH1 0x20 SWAP1 PUSH2 0x432 PUSH2 0xBC4 JUMP JUMPDEST SWAP1 MLOAD SWAP1 DUP2 MSTORE RETURN JUMPDEST POP POP CALLVALUE PUSH2 0xFB JUMPI DUP2 PUSH1 0x3 NOT CALLDATASIZE ADD SLT PUSH2 0xFB JUMPI PUSH1 0x2 SLOAD SWAP1 MLOAD PUSH1 0x1 PUSH1 0x1 PUSH1 0xA0 SHL SUB SWAP1 SWAP2 AND DUP2 MSTORE PUSH1 0x20 SWAP1 RETURN JUMPDEST POP POP CALLVALUE PUSH2 0xFB JUMPI DUP2 PUSH1 0x3 NOT CALLDATASIZE ADD SLT PUSH2 0xFB JUMPI PUSH1 0x20 SWAP1 PUSH1 0x5 SLOAD SWAP1 MLOAD SWAP1 DUP2 MSTORE RETURN JUMPDEST POP POP CALLVALUE PUSH2 0xFB JUMPI DUP2 PUSH1 0x3 NOT CALLDATASIZE ADD SLT PUSH2 0xFB JUMPI SWAP1 SLOAD SWAP1 MLOAD PUSH1 0x1 PUSH1 0x1 PUSH1 0xA0 SHL SUB SWAP1 SWAP2 AND DUP2 MSTORE PUSH1 0x20 SWAP1 RETURN JUMPDEST POP POP CALLVALUE PUSH2 0xFB JUMPI DUP2 PUSH1 0x3 NOT CALLDATASIZE ADD SLT PUSH2 0xFB JUMPI PUSH1 0x20 SWAP1 PUSH1 0x6 SLOAD SWAP1 MLOAD SWAP1 DUP2 MSTORE RETURN JUMPDEST POP POP CALLVALUE PUSH2 0xFB JUMPI DUP2 PUSH1 0x3 NOT CALLDATASIZE ADD SLT PUSH2 0xFB JUMPI PUSH1 0x3 SLOAD SWAP1 MLOAD PUSH1 0x1 PUSH1 0x1 PUSH1 0xA0 SHL SUB SWAP1 SWAP2 AND DUP2 MSTORE PUSH1 0x20 SWAP1 RETURN JUMPDEST DUP4 CALLVALUE PUSH2 0x54B JUMPI DUP1 PUSH1 0x3 NOT CALLDATASIZE ADD SLT PUSH2 0x54B JUMPI PUSH2 0x50A PUSH2 0xA52 JUMP JUMPDEST DUP1 SLOAD PUSH1 0x1 PUSH1 0x1 PUSH1 0xA0 SHL SUB NOT DUP2 AND DUP3 SSTORE DUP2 SWAP1 PUSH1 0x1 PUSH1 0x1 PUSH1 0xA0 SHL SUB AND PUSH32 0x8BE0079C531659141344CD1FD0A4F28419497F9722A3DAAFE3B4186F6B6457E0 DUP3 DUP1 LOG3 DUP1 RETURN JUMPDEST DUP1 REVERT JUMPDEST SWAP2 SWAP1 POP CALLVALUE PUSH2 0x198 JUMPI PUSH2 0x55F CALLDATASIZE PUSH2 0xA37 JUMP JUMPDEST PUSH2 0x56A DUP3 ISZERO ISZERO PUSH2 0xA7E JUMP JUMPDEST PUSH1 0x78 DUP2 LT ISZERO DUP1 PUSH2 0x8DD JUMPI JUMPDEST ISZERO PUSH2 0x8A7 JUMPI PUSH1 0x3 SLOAD DUP4 MLOAD PUSH4 0x4C6AFEE5 PUSH1 0xE1 SHL DUP2 MSTORE PUSH1 0x20 SWAP7 SWAP1 SWAP6 SWAP1 SWAP2 PUSH1 0x1 PUSH1 0x1 PUSH1 0xA0 SHL SUB SWAP1 DUP9 SWAP1 DUP9 SWAP1 DUP5 SWAP1 DUP3 SWAP1 DUP6 AND GAS STATICCALL SWAP7 DUP8 ISZERO PUSH2 0x397 JUMPI DUP4 SWAP8 PUSH2 0x878 JUMPI JUMPDEST POP PUSH2 0x5CC PUSH2 0x2710 PUSH2 0x5C5 DUP5 SLOAD DUP9 PUSH2 0xB0B JUMP JUMPDEST DIV DUP7 PUSH2 0xB54 JUMP JUMPDEST PUSH1 0x64 SWAP1 DUP2 DUP2 MUL DUP2 DUP2 DIV DUP4 EQ DUP3 ISZERO OR ISZERO PUSH2 0x865 JUMPI DUP7 PUSH2 0x5E9 SWAP2 PUSH2 0xB34 JUMP JUMPDEST PUSH5 0xE8D4A51000 SWAP1 DUP2 DUP2 MUL SWAP1 DUP1 DUP3 DIV DUP4 EQ DUP2 ISZERO OR ISZERO PUSH2 0x852 JUMPI PUSH13 0xC9F2C9CD04674EDEA40000000 MUL PUSH8 0xDE0B6B3A7640000 SWAP2 DUP1 DUP3 DIV DUP4 EQ SWAP1 ISZERO OR ISZERO PUSH2 0x852 JUMPI DUP12 PUSH2 0x631 SWAP2 PUSH2 0xB34 JUMP JUMPDEST SWAP11 DUP12 ISZERO PUSH2 0x81D JUMPI SWAP1 PUSH2 0x65C DUP13 SWAP4 SWAP3 PUSH2 0x657 PUSH2 0x64E DUP8 PUSH1 0x7 SLOAD PUSH2 0xB61 JUMP JUMPDEST SWAP6 PUSH1 0x8 SLOAD PUSH2 0xB61 JUMP JUMPDEST PUSH2 0xB0B JUMP JUMPDEST DIV DIV SWAP1 DUP4 DUP2 MUL SWAP1 DUP1 DUP3 DIV DUP6 EQ SWAP1 ISZERO OR ISZERO PUSH2 0x80A JUMPI SWAP1 PUSH2 0x67A SWAP2 PUSH2 0xB34 JUMP JUMPDEST PUSH1 0x6 SLOAD GT PUSH2 0x7D2 JUMPI DUP5 SWAP2 PUSH2 0x6C2 DUP12 SWAP3 CALLER DUP6 MSTORE PUSH1 0x9 DUP5 MSTORE DUP11 DUP6 KECCAK256 PUSH2 0x69E DUP3 DUP3 SLOAD PUSH2 0xB61 JUMP JUMPDEST SWAP1 SSTORE CALLER DUP6 MSTORE PUSH1 0x9 DUP5 MSTORE PUSH1 0x1 DUP12 DUP7 KECCAK256 ADD PUSH2 0x6B8 DUP14 DUP3 SLOAD PUSH2 0xB61 JUMP JUMPDEST SWAP1 SSTORE PUSH1 0x7 SLOAD PUSH2 0xB61 JUMP JUMPDEST PUSH1 0x7 SSTORE PUSH2 0x6D1 DUP11 PUSH1 0x8 SLOAD PUSH2 0xB61 JUMP JUMPDEST PUSH1 0x8 SSTORE DUP4 PUSH1 0x1 SLOAD AND SWAP1 DUP10 MLOAD DUP1 SWAP5 DUP2 SWAP4 PUSH4 0x23B872DD PUSH1 0xE0 SHL DUP4 MSTORE CALLER DUP10 DUP5 ADD MSTORE ADDRESS PUSH1 0x24 DUP5 ADD MSTORE DUP12 PUSH1 0x44 DUP5 ADD MSTORE GAS CALL SWAP1 DUP2 ISZERO PUSH2 0x7C8 JUMPI SWAP1 PUSH2 0x715 SWAP2 DUP6 SWAP2 PUSH2 0x7B1 JUMPI POP PUSH2 0xB86 JUMP JUMPDEST PUSH1 0x2 SLOAD AND SWAP1 DUP2 EXTCODESIZE ISZERO PUSH2 0x198 JUMPI DUP6 MLOAD PUSH4 0x40C10F19 PUSH1 0xE0 SHL DUP2 MSTORE CALLER SWAP2 DUP2 ADD SWAP2 DUP3 MSTORE PUSH1 0x20 DUP3 ADD DUP9 SWAP1 MSTORE SWAP3 SWAP2 DUP3 SWAP2 DUP5 SWAP2 SWAP1 DUP3 SWAP1 DUP5 SWAP1 DUP3 SWAP1 PUSH1 0x40 ADD SUB SWAP3 GAS CALL SWAP1 DUP2 ISZERO PUSH2 0x7A6 JUMPI POP PUSH2 0x797 JUMPI JUMPDEST POP DUP3 MLOAD SWAP2 DUP3 MSTORE DUP4 DUP6 DUP4 ADD MSTORE DUP3 DUP3 ADD MSTORE PUSH32 0xB4C03061FB5B7FED76389D5AF8F2E0DDB09F8C70D1333ABBB62582835E10ACCB PUSH1 0x60 CALLER SWAP3 LOG2 MLOAD SWAP1 DUP2 MSTORE RETURN JUMPDEST PUSH2 0x7A0 SWAP1 PUSH2 0xABF JUMP JUMPDEST CODESIZE PUSH2 0x75C JUMP JUMPDEST DUP6 MLOAD SWAP1 RETURNDATASIZE SWAP1 DUP3 RETURNDATACOPY RETURNDATASIZE SWAP1 REVERT JUMPDEST PUSH2 0x36C SWAP2 POP DUP11 RETURNDATASIZE DUP13 GT PUSH2 0x372 JUMPI PUSH2 0x364 DUP2 DUP4 PUSH2 0xAE9 JUMP JUMPDEST DUP8 MLOAD RETURNDATASIZE DUP7 DUP3 RETURNDATACOPY RETURNDATASIZE SWAP1 REVERT JUMPDEST POP DUP7 MLOAD PUSH3 0x461BCD PUSH1 0xE5 SHL DUP2 MSTORE DUP1 DUP5 ADD DUP11 SWAP1 MSTORE PUSH1 0x14 PUSH1 0x24 DUP3 ADD MSTORE PUSH20 0x2BB7BAB632103B34B7B630BA329036B4B71021A9 PUSH1 0x61 SHL PUSH1 0x44 DUP3 ADD MSTORE REVERT JUMPDEST PUSH4 0x4E487B71 PUSH1 0xE0 SHL DUP8 MSTORE PUSH1 0x11 DUP7 MSTORE PUSH1 0x24 DUP8 REVERT JUMPDEST DUP11 MLOAD PUSH3 0x461BCD PUSH1 0xE5 SHL DUP2 MSTORE DUP1 DUP9 ADD DUP15 SWAP1 MSTORE PUSH1 0x10 PUSH1 0x24 DUP3 ADD MSTORE PUSH16 0x105B5BDD5B9D081D1BDBC81CDB585B1B PUSH1 0x82 SHL PUSH1 0x44 DUP3 ADD MSTORE DUP6 SWAP1 REVERT JUMPDEST PUSH4 0x4E487B71 PUSH1 0xE0 SHL DUP9 MSTORE PUSH1 0x11 DUP8 MSTORE PUSH1 0x24 DUP9 REVERT JUMPDEST PUSH4 0x4E487B71 PUSH1 0xE0 SHL DUP7 MSTORE PUSH1 0x11 DUP6 MSTORE PUSH1 0x24 DUP7 REVERT JUMPDEST SWAP1 SWAP7 POP DUP8 DUP2 DUP2 RETURNDATASIZE DUP4 GT PUSH2 0x8A0 JUMPI JUMPDEST PUSH2 0x890 DUP2 DUP4 PUSH2 0xAE9 JUMP JUMPDEST DUP2 ADD SUB SLT PUSH2 0x198 JUMPI MLOAD SWAP6 CODESIZE PUSH2 0x5B3 JUMP JUMPDEST POP RETURNDATASIZE PUSH2 0x886 JUMP JUMPDEST DUP3 MLOAD PUSH3 0x461BCD PUSH1 0xE5 SHL DUP2 MSTORE PUSH1 0x20 DUP2 DUP7 ADD MSTORE PUSH1 0x10 PUSH1 0x24 DUP3 ADD MSTORE PUSH16 0x496E76616C69642043522072616E6765 PUSH1 0x80 SHL PUSH1 0x44 DUP3 ADD MSTORE PUSH1 0x64 SWAP1 REVERT JUMPDEST POP PUSH2 0x12C DUP2 GT ISZERO PUSH2 0x575 JUMP JUMPDEST SWAP1 POP CALLVALUE PUSH2 0x198 JUMPI PUSH1 0x20 CALLDATASIZE PUSH1 0x3 NOT ADD SLT PUSH2 0x198 JUMPI CALLDATALOAD PUSH1 0x1 PUSH1 0x1 PUSH1 0xA0 SHL SUB DUP2 AND SWAP1 DUP2 SWAP1 SUB PUSH2 0x198 JUMPI SWAP2 DUP2 SWAP3 DUP2 MSTORE PUSH1 0x9 PUSH1 0x20 MSTORE KECCAK256 PUSH1 0x1 DUP2 SLOAD SWAP2 ADD SLOAD DUP3 MLOAD SWAP2 DUP3 MSTORE PUSH1 0x20 DUP3 ADD MSTORE RETURN JUMPDEST POP POP CALLVALUE PUSH2 0xFB JUMPI DUP2 PUSH1 0x3 NOT CALLDATASIZE ADD SLT PUSH2 0xFB JUMPI PUSH1 0x20 SWAP1 PUSH1 0x7 SLOAD SWAP1 MLOAD SWAP1 DUP2 MSTORE RETURN JUMPDEST POP POP CALLVALUE PUSH2 0xFB JUMPI DUP2 PUSH1 0x3 NOT CALLDATASIZE ADD SLT PUSH2 0xFB JUMPI PUSH1 0x1 SLOAD SWAP1 MLOAD PUSH1 0x1 PUSH1 0x1 PUSH1 0xA0 SHL SUB SWAP1 SWAP2 AND DUP2 MSTORE PUSH1 0x20 SWAP1 RETURN JUMPDEST SWAP1 POP CALLVALUE PUSH2 0x198 JUMPI DUP3 PUSH1 0x3 NOT CALLDATASIZE ADD SLT PUSH2 0x198 JUMPI PUSH1 0x20 SWAP3 POP SLOAD SWAP1 MLOAD SWAP1 DUP2 MSTORE RETURN JUMPDEST SWAP1 POP CALLVALUE PUSH2 0x198 JUMPI PUSH1 0x20 CALLDATASIZE PUSH1 0x3 NOT ADD SLT PUSH2 0x198 JUMPI CALLDATALOAD SWAP2 PUSH1 0x1 PUSH1 0x1 PUSH1 0xA0 SHL SUB DUP4 AND DUP4 SUB PUSH2 0x54B JUMPI POP PUSH2 0x432 PUSH1 0x20 SWAP3 PUSH2 0xC8F JUMP JUMPDEST SWAP2 SWAP1 POP CALLVALUE PUSH2 0x198 JUMPI PUSH2 0x9D5 CALLDATASIZE PUSH2 0xA37 JUMP JUMPDEST SWAP3 SWAP1 SWAP2 PUSH2 0x9E0 PUSH2 0xA52 JUMP JUMPDEST PUSH2 0x1F4 DUP1 DUP5 GT ISZERO SWAP1 DUP2 PUSH2 0xA2C JUMPI JUMPDEST POP ISZERO PUSH2 0x9FC JUMPI POP SSTORE PUSH1 0x5 SSTORE DUP1 RETURN JUMPDEST SWAP1 PUSH1 0x20 PUSH1 0x64 SWAP3 MLOAD SWAP2 PUSH3 0x461BCD PUSH1 0xE5 SHL DUP4 MSTORE DUP3 ADD MSTORE PUSH1 0xA PUSH1 0x24 DUP3 ADD MSTORE PUSH10 0x4D617820352520666565 PUSH1 0xB0 SHL PUSH1 0x44 DUP3 ADD MSTORE REVERT JUMPDEST SWAP1 POP DUP5 GT ISZERO CODESIZE PUSH2 0x9EE JUMP JUMPDEST PUSH1 0x40 SWAP1 PUSH1 0x3 NOT ADD SLT PUSH2 0xA4D JUMPI PUSH1 0x4 CALLDATALOAD SWAP1 PUSH1 0x24 CALLDATALOAD SWAP1 JUMP JUMPDEST PUSH1 0x0 DUP1 REVERT JUMPDEST PUSH1 0x0 SLOAD PUSH1 0x1 PUSH1 0x1 PUSH1 0xA0 SHL SUB AND CALLER SUB PUSH2 0xA66 JUMPI JUMP JUMPDEST PUSH1 0x40 MLOAD PUSH4 0x118CDAA7 PUSH1 0xE0 SHL DUP2 MSTORE CALLER PUSH1 0x4 DUP3 ADD MSTORE PUSH1 0x24 SWAP1 REVERT JUMPDEST ISZERO PUSH2 0xA85 JUMPI JUMP JUMPDEST PUSH1 0x40 MLOAD PUSH3 0x461BCD PUSH1 0xE5 SHL DUP2 MSTORE PUSH1 0x20 PUSH1 0x4 DUP3 ADD MSTORE PUSH1 0x12 PUSH1 0x24 DUP3 ADD MSTORE PUSH18 0x416D6F756E74206D757374206265203E203 PUSH1 0x74 SHL PUSH1 0x44 DUP3 ADD MSTORE PUSH1 0x64 SWAP1 REVERT JUMPDEST PUSH8 0xFFFFFFFFFFFFFFFF DUP2 GT PUSH2 0xAD3 JUMPI PUSH1 0x40 MSTORE JUMP JUMPDEST PUSH4 0x4E487B71 PUSH1 0xE0 SHL PUSH1 0x0 MSTORE PUSH1 0x41 PUSH1 0x4 MSTORE PUSH1 0x24 PUSH1 0x0 REVERT JUMPDEST SWAP1 PUSH1 0x1F DUP1 NOT SWAP2 ADD AND DUP2 ADD SWAP1 DUP2 LT PUSH8 0xFFFFFFFFFFFFFFFF DUP3 GT OR PUSH2 0xAD3 JUMPI PUSH1 0x40 MSTORE JUMP JUMPDEST DUP2 DUP2 MUL SWAP3 SWAP2 DUP2 ISZERO SWAP2 DUP5 DIV EQ OR ISZERO PUSH2 0xB1E JUMPI JUMP JUMPDEST PUSH4 0x4E487B71 PUSH1 0xE0 SHL PUSH1 0x0 MSTORE PUSH1 0x11 PUSH1 0x4 MSTORE PUSH1 0x24 PUSH1 0x0 REVERT JUMPDEST DUP2 ISZERO PUSH2 0xB3E JUMPI DIV SWAP1 JUMP JUMPDEST PUSH4 0x4E487B71 PUSH1 0xE0 SHL PUSH1 0x0 MSTORE PUSH1 0x12 PUSH1 0x4 MSTORE PUSH1 0x24 PUSH1 0x0 REVERT JUMPDEST SWAP2 SWAP1 DUP3 SUB SWAP2 DUP3 GT PUSH2 0xB1E JUMPI JUMP JUMPDEST SWAP2 SWAP1 DUP3 ADD DUP1 SWAP3 GT PUSH2 0xB1E JUMPI JUMP JUMPDEST SWAP1 DUP2 PUSH1 0x20 SWAP2 SUB SLT PUSH2 0xA4D JUMPI MLOAD DUP1 ISZERO ISZERO DUP2 SUB PUSH2 0xA4D JUMPI SWAP1 JUMP JUMPDEST ISZERO PUSH2 0xB8D JUMPI JUMP JUMPDEST PUSH1 0x40 MLOAD PUSH3 0x461BCD PUSH1 0xE5 SHL DUP2 MSTORE PUSH1 0x20 PUSH1 0x4 DUP3 ADD MSTORE PUSH1 0xF PUSH1 0x24 DUP3 ADD MSTORE PUSH15 0x151C985B9CD9995C8819985A5B1959 PUSH1 0x8A SHL PUSH1 0x44 DUP3 ADD MSTORE PUSH1 0x64 SWAP1 REVERT JUMPDEST PUSH1 0x8 SLOAD DUP1 ISZERO PUSH2 0xC89 JUMPI PUSH1 0x3 SLOAD PUSH1 0x40 MLOAD PUSH4 0x4C6AFEE5 PUSH1 0xE1 SHL DUP2 MSTORE SWAP1 PUSH1 0x20 SWAP1 DUP3 SWAP1 PUSH1 0x4 SWAP1 DUP3 SWAP1 PUSH1 0x1 PUSH1 0x1 PUSH1 0xA0 SHL SUB AND GAS STATICCALL SWAP1 DUP2 ISZERO PUSH2 0xC7D JUMPI PUSH1 0x0 SWAP2 PUSH2 0xC3F JUMPI JUMPDEST POP PUSH2 0xC1B SWAP1 PUSH13 0xC9F2C9CD04674EDEA40000000 SWAP3 PUSH2 0xB0B JUMP JUMPDEST DIV PUSH1 0x7 SLOAD SWAP1 PUSH1 0x64 DUP3 MUL SWAP2 DUP1 DUP4 DIV PUSH1 0x64 EQ SWAP1 ISZERO OR ISZERO PUSH2 0xB1E JUMPI PUSH2 0xC3C SWAP2 PUSH2 0xB34 JUMP JUMPDEST SWAP1 JUMP JUMPDEST SWAP1 PUSH1 0x20 DUP3 RETURNDATASIZE DUP3 GT PUSH2 0xC75 JUMPI JUMPDEST DUP2 PUSH2 0xC58 PUSH1 0x20 SWAP4 DUP4 PUSH2 0xAE9 JUMP JUMPDEST DUP2 ADD SUB SLT PUSH2 0x54B JUMPI POP MLOAD PUSH13 0xC9F2C9CD04674EDEA40000000 PUSH2 0xC02 JUMP JUMPDEST RETURNDATASIZE SWAP2 POP PUSH2 0xC4B JUMP JUMPDEST PUSH1 0x40 MLOAD RETURNDATASIZE PUSH1 0x0 DUP3 RETURNDATACOPY RETURNDATASIZE SWAP1 REVERT JUMPDEST POP PUSH1 0x0 SWAP1 JUMP JUMPDEST PUSH1 0x1 PUSH1 0x1 PUSH1 0xA0 SHL SUB SWAP1 DUP2 AND PUSH1 0x0 SWAP1 DUP2 MSTORE PUSH1 0x9 PUSH1 0x20 SWAP1 DUP2 MSTORE PUSH1 0x40 DUP1 DUP4 KECCAK256 DUP2 MLOAD SWAP4 SWAP6 SWAP5 SWAP3 SWAP1 DUP5 DUP4 ADD PUSH8 0xFFFFFFFFFFFFFFFF DUP2 GT DUP7 DUP3 LT OR PUSH2 0xD99 JUMPI DUP4 MSTORE DUP1 SLOAD DUP6 MSTORE PUSH1 0x1 ADD SLOAD DUP2 DUP6 ADD DUP2 DUP2 MSTORE SWAP4 SWAP1 ISZERO PUSH2 0xD92 JUMPI SWAP1 DUP1 PUSH1 0x4 SWAP3 PUSH1 0x3 SLOAD AND DUP5 MLOAD SWAP4 DUP5 DUP1 SWAP3 PUSH4 0x4C6AFEE5 PUSH1 0xE1 SHL DUP3 MSTORE GAS STATICCALL SWAP3 DUP4 ISZERO PUSH2 0xD89 JUMPI POP DUP7 SWAP3 PUSH2 0xD59 JUMPI JUMPDEST POP POP PUSH2 0xD24 SWAP1 PUSH13 0xC9F2C9CD04674EDEA40000000 SWAP3 MLOAD PUSH2 0xB0B JUMP JUMPDEST DIV SWAP1 MLOAD PUSH1 0x64 DUP2 MUL SWAP1 DUP1 DUP3 DIV PUSH1 0x64 EQ SWAP1 ISZERO OR ISZERO PUSH2 0xD45 JUMPI PUSH2 0xC3C SWAP3 SWAP4 POP PUSH2 0xB34 JUMP JUMPDEST PUSH4 0x4E487B71 PUSH1 0xE0 SHL DUP5 MSTORE PUSH1 0x11 PUSH1 0x4 MSTORE PUSH1 0x24 DUP5 REVERT JUMPDEST SWAP1 DUP1 SWAP3 POP DUP2 RETURNDATASIZE DUP4 GT PUSH2 0xD82 JUMPI JUMPDEST PUSH2 0xD70 DUP2 DUP4 PUSH2 0xAE9 JUMP JUMPDEST DUP2 ADD SUB SLT PUSH2 0x194 JUMPI MLOAD DUP2 PUSH2 0xD24 PUSH2 0xD09 JUMP JUMPDEST POP RETURNDATASIZE PUSH2 0xD66 JUMP JUMPDEST MLOAD RETURNDATASIZE DUP9 DUP3 RETURNDATACOPY RETURNDATASIZE SWAP1 REVERT JUMPDEST POP POP POP POP POP JUMP JUMPDEST PUSH4 0x4E487B71 PUSH1 0xE0 SHL DUP9 MSTORE PUSH1 0x41 PUSH1 0x4 MSTORE PUSH1 0x24 DUP9 REVERT INVALID LOG2 PUSH5 0x6970667358 0x22 SLT KECCAK256 LOG2 SWAP6 0xB6 AND 0x2F SWAP7 0x4B GASPRICE BASEFEE 0xF9 PUSH27 0x93157AFAAC2ED834970CA4B54B46F58975D1349D5E64736F6C6343 STOP ADDMOD ISZERO STOP CALLER "},"methodIdentifiers":{"bvix()":"9f80fb4e","getCollateralRatio()":"cd377c53","getUserCollateralRatio(address)":"10b45de1","minCollateralRatio()":"84da2666","mintFee()":"13966db5","mintWithCollateralRatio(uint256,uint256)":"6008d28b","oracle()":"7dc0d1d0","owner()":"8da5cb5b","positions(address)":"55f57510","redeem(uint256)":"db006a75","redeemFee()":"965fa21e","renounceOwnership()":"715018a6","setFees(uint256,uint256)":"0b78f9c0","totalCollateral()":"4ac8eb5f","totalDebt()":"fc7b9c18","transferOwnership(address)":"f2fde38b","usdc()":"3e413bee"}}}}}