{"contracts/EVIXMintRedeemV8.sol":{"EVIXMintRedeemV8":{"abi":[{"inputs":[{"internalType":"address","name":"_usdc","type":"address"},{"internalType":"address","name":"_evix","type":"address"},{"internalType":"address","name":"_oracle","type":"address"},{"internalType":"address","name":"_governor","type":"address"}],"stateMutability":"nonpayable","type":"constructor"},{"inputs":[],"name":"AccessControlBadConfirmation","type":"error"},{"inputs":[{"internalType":"address","name":"account","type":"address"},{"internalType":"bytes32","name":"neededRole","type":"bytes32"}],"name":"AccessControlUnauthorizedAccount","type":"error"},{"inputs":[],"name":"EnforcedPause","type":"error"},{"inputs":[],"name":"ExpectedPause","type":"error"},{"inputs":[],"name":"GracePeriodActive","type":"error"},{"inputs":[],"name":"InsufficientCollateral","type":"error"},{"inputs":[],"name":"InvalidAmount","type":"error"},{"inputs":[],"name":"InvalidCollateralRatio","type":"error"},{"inputs":[],"name":"LiquidationNotAllowed","type":"error"},{"inputs":[],"name":"NotLiquidator","type":"error"},{"inputs":[],"name":"PositionNotFound","type":"error"},{"inputs":[],"name":"ReentrancyGuardReentrantCall","type":"error"},{"inputs":[],"name":"TransferFailed","type":"error"},{"anonymous":false,"inputs":[{"indexed":false,"internalType":"uint256","name":"oldMinCR","type":"uint256"},{"indexed":false,"internalType":"uint256","name":"newMinCR","type":"uint256"}],"name":"CollateralRatioUpdated","type":"event"},{"anonymous":false,"inputs":[{"indexed":false,"internalType":"uint256","name":"oldMintFee","type":"uint256"},{"indexed":false,"internalType":"uint256","name":"newMintFee","type":"uint256"},{"indexed":false,"internalType":"uint256","name":"oldRedeemFee","type":"uint256"},{"indexed":false,"internalType":"uint256","name":"newRedeemFee","type":"uint256"}],"name":"FeesUpdated","type":"event"},{"anonymous":false,"inputs":[{"indexed":true,"internalType":"address","name":"user","type":"address"},{"indexed":true,"internalType":"address","name":"liquidator","type":"address"},{"indexed":false,"internalType":"uint256","name":"debtRepaid","type":"uint256"},{"indexed":false,"internalType":"uint256","name":"collateralSeized","type":"uint256"},{"indexed":false,"internalType":"uint256","name":"bonus","type":"uint256"},{"indexed":false,"internalType":"bool","name":"isPartial","type":"bool"}],"name":"Liquidation","type":"event"},{"anonymous":false,"inputs":[{"indexed":false,"internalType":"uint256","name":"oldThreshold","type":"uint256"},{"indexed":false,"internalType":"uint256","name":"newThreshold","type":"uint256"},{"indexed":false,"internalType":"uint256","name":"oldBonus","type":"uint256"},{"indexed":false,"internalType":"uint256","name":"newBonus","type":"uint256"}],"name":"LiquidationParamsUpdated","type":"event"},{"anonymous":false,"inputs":[{"indexed":true,"internalType":"uint256","name":"vaultId","type":"uint256"},{"indexed":false,"internalType":"uint256","name":"newPrice","type":"uint256"}],"name":"LiquidationPriceUpdated","type":"event"},{"anonymous":false,"inputs":[{"indexed":true,"internalType":"address","name":"user","type":"address"},{"indexed":false,"internalType":"uint256","name":"usdcAmount","type":"uint256"},{"indexed":false,"internalType":"uint256","name":"evixMinted","type":"uint256"},{"indexed":false,"internalType":"uint256","name":"targetCR","type":"uint256"}],"name":"Mint","type":"event"},{"anonymous":false,"inputs":[{"indexed":false,"internalType":"address","name":"account","type":"address"}],"name":"Paused","type":"event"},{"anonymous":false,"inputs":[{"indexed":false,"internalType":"bool","name":"enabled","type":"bool"}],"name":"PermissionlessLiquidationToggled","type":"event"},{"anonymous":false,"inputs":[{"indexed":true,"internalType":"address","name":"user","type":"address"},{"indexed":false,"internalType":"uint256","name":"evixAmount","type":"uint256"},{"indexed":false,"internalType":"uint256","name":"usdcRedeemed","type":"uint256"}],"name":"Redeem","type":"event"},{"anonymous":false,"inputs":[{"indexed":true,"internalType":"bytes32","name":"role","type":"bytes32"},{"indexed":true,"internalType":"bytes32","name":"previousAdminRole","type":"bytes32"},{"indexed":true,"internalType":"bytes32","name":"newAdminRole","type":"bytes32"}],"name":"RoleAdminChanged","type":"event"},{"anonymous":false,"inputs":[{"indexed":true,"internalType":"bytes32","name":"role","type":"bytes32"},{"indexed":true,"internalType":"address","name":"account","type":"address"},{"indexed":true,"internalType":"address","name":"sender","type":"address"}],"name":"RoleGranted","type":"event"},{"anonymous":false,"inputs":[{"indexed":true,"internalType":"bytes32","name":"role","type":"bytes32"},{"indexed":true,"internalType":"address","name":"account","type":"address"},{"indexed":true,"internalType":"address","name":"sender","type":"address"}],"name":"RoleRevoked","type":"event"},{"anonymous":false,"inputs":[{"indexed":false,"internalType":"address","name":"account","type":"address"}],"name":"Unpaused","type":"event"},{"inputs":[],"name":"DEFAULT_ADMIN_ROLE","outputs":[{"internalType":"bytes32","name":"","type":"bytes32"}],"stateMutability":"view","type":"function"},{"inputs":[],"name":"GOVERNOR_ROLE","outputs":[{"internalType":"bytes32","name":"","type":"bytes32"}],"stateMutability":"view","type":"function"},{"inputs":[],"name":"LIQUIDATOR_ROLE","outputs":[{"internalType":"bytes32","name":"","type":"bytes32"}],"stateMutability":"view","type":"function"},{"inputs":[],"name":"PAUSER_ROLE","outputs":[{"internalType":"bytes32","name":"","type":"bytes32"}],"stateMutability":"view","type":"function"},{"inputs":[],"name":"evix","outputs":[{"internalType":"contract EVIXToken","name":"","type":"address"}],"stateMutability":"view","type":"function"},{"inputs":[],"name":"getCollateralRatio","outputs":[{"internalType":"uint256","name":"","type":"uint256"}],"stateMutability":"view","type":"function"},{"inputs":[{"internalType":"uint256","name":"vaultId","type":"uint256"}],"name":"getLiquidationDetails","outputs":[{"internalType":"address","name":"owner","type":"address"},{"internalType":"uint256","name":"collateral","type":"uint256"},{"internalType":"uint256","name":"debt","type":"uint256"},{"internalType":"uint256","name":"currentCR","type":"uint256"},{"internalType":"uint256","name":"liquidationPrice","type":"uint256"},{"internalType":"uint256","name":"maxBonus","type":"uint256"},{"internalType":"bool","name":"canLiquidate","type":"bool"}],"stateMutability":"view","type":"function"},{"inputs":[{"internalType":"address","name":"user","type":"address"}],"name":"getLiquidationPrice","outputs":[{"internalType":"uint256","name":"","type":"uint256"}],"stateMutability":"view","type":"function"},{"inputs":[{"internalType":"bytes32","name":"role","type":"bytes32"}],"name":"getRoleAdmin","outputs":[{"internalType":"bytes32","name":"","type":"bytes32"}],"stateMutability":"view","type":"function"},{"inputs":[{"internalType":"address","name":"user","type":"address"}],"name":"getUserCollateralRatio","outputs":[{"internalType":"uint256","name":"","type":"uint256"}],"stateMutability":"view","type":"function"},{"inputs":[],"name":"getVaultsBelowThreshold","outputs":[{"internalType":"uint256[]","name":"","type":"uint256[]"}],"stateMutability":"view","type":"function"},{"inputs":[{"internalType":"bytes32","name":"role","type":"bytes32"},{"internalType":"address","name":"account","type":"address"}],"name":"grantRole","outputs":[],"stateMutability":"nonpayable","type":"function"},{"inputs":[{"internalType":"bytes32","name":"role","type":"bytes32"},{"internalType":"address","name":"account","type":"address"}],"name":"hasRole","outputs":[{"internalType":"bool","name":"","type":"bool"}],"stateMutability":"view","type":"function"},{"inputs":[{"internalType":"uint256","name":"","type":"uint256"}],"name":"liquidatableVaults","outputs":[{"internalType":"uint256","name":"","type":"uint256"}],"stateMutability":"view","type":"function"},{"inputs":[{"internalType":"address","name":"user","type":"address"},{"internalType":"uint256","name":"repayAmount","type":"uint256"}],"name":"liquidate","outputs":[],"stateMutability":"nonpayable","type":"function"},{"inputs":[],"name":"liquidationBonus","outputs":[{"internalType":"uint256","name":"","type":"uint256"}],"stateMutability":"view","type":"function"},{"inputs":[],"name":"liquidationGracePeriod","outputs":[{"internalType":"uint256","name":"","type":"uint256"}],"stateMutability":"view","type":"function"},{"inputs":[],"name":"liquidationThreshold","outputs":[{"internalType":"uint256","name":"","type":"uint256"}],"stateMutability":"view","type":"function"},{"inputs":[],"name":"maxLiquidationDiscount","outputs":[{"internalType":"uint256","name":"","type":"uint256"}],"stateMutability":"view","type":"function"},{"inputs":[],"name":"minCollateralRatio","outputs":[{"internalType":"uint256","name":"","type":"uint256"}],"stateMutability":"view","type":"function"},{"inputs":[],"name":"mintFee","outputs":[{"internalType":"uint256","name":"","type":"uint256"}],"stateMutability":"view","type":"function"},{"inputs":[{"internalType":"uint256","name":"amount","type":"uint256"},{"internalType":"uint256","name":"targetCR","type":"uint256"}],"name":"mintWithCollateralRatio","outputs":[{"internalType":"uint256","name":"","type":"uint256"}],"stateMutability":"nonpayable","type":"function"},{"inputs":[],"name":"nextVaultId","outputs":[{"internalType":"uint256","name":"","type":"uint256"}],"stateMutability":"view","type":"function"},{"inputs":[],"name":"oracle","outputs":[{"internalType":"contract PriceOracle","name":"","type":"address"}],"stateMutability":"view","type":"function"},{"inputs":[],"name":"pause","outputs":[],"stateMutability":"nonpayable","type":"function"},{"inputs":[],"name":"paused","outputs":[{"internalType":"bool","name":"","type":"bool"}],"stateMutability":"view","type":"function"},{"inputs":[],"name":"permissionlessLiquidation","outputs":[{"internalType":"bool","name":"","type":"bool"}],"stateMutability":"view","type":"function"},{"inputs":[{"internalType":"address","name":"","type":"address"}],"name":"positions","outputs":[{"internalType":"uint256","name":"collateral","type":"uint256"},{"internalType":"uint256","name":"debt","type":"uint256"},{"internalType":"uint256","name":"lastActivity","type":"uint256"}],"stateMutability":"view","type":"function"},{"inputs":[{"internalType":"uint256","name":"amount","type":"uint256"}],"name":"redeem","outputs":[{"internalType":"uint256","name":"","type":"uint256"}],"stateMutability":"nonpayable","type":"function"},{"inputs":[],"name":"redeemFee","outputs":[{"internalType":"uint256","name":"","type":"uint256"}],"stateMutability":"view","type":"function"},{"inputs":[{"internalType":"bytes32","name":"role","type":"bytes32"},{"internalType":"address","name":"callerConfirmation","type":"address"}],"name":"renounceRole","outputs":[],"stateMutability":"nonpayable","type":"function"},{"inputs":[{"internalType":"bytes32","name":"role","type":"bytes32"},{"internalType":"address","name":"account","type":"address"}],"name":"revokeRole","outputs":[],"stateMutability":"nonpayable","type":"function"},{"inputs":[{"internalType":"uint256","name":"_mintFee","type":"uint256"},{"internalType":"uint256","name":"_redeemFee","type":"uint256"}],"name":"setFees","outputs":[],"stateMutability":"nonpayable","type":"function"},{"inputs":[{"internalType":"uint256","name":"_gracePeriod","type":"uint256"}],"name":"setLiquidationGracePeriod","outputs":[],"stateMutability":"nonpayable","type":"function"},{"inputs":[{"internalType":"uint256","name":"_threshold","type":"uint256"},{"internalType":"uint256","name":"_bonus","type":"uint256"}],"name":"setLiquidationParams","outputs":[],"stateMutability":"nonpayable","type":"function"},{"inputs":[{"internalType":"uint256","name":"_minCR","type":"uint256"}],"name":"setMinCollateralRatio","outputs":[],"stateMutability":"nonpayable","type":"function"},{"inputs":[{"internalType":"bool","name":"enabled","type":"bool"}],"name":"setPermissionlessLiquidation","outputs":[],"stateMutability":"nonpayable","type":"function"},{"inputs":[{"internalType":"bytes4","name":"interfaceId","type":"bytes4"}],"name":"supportsInterface","outputs":[{"internalType":"bool","name":"","type":"bool"}],"stateMutability":"view","type":"function"},{"inputs":[{"internalType":"address","name":"token","type":"address"},{"internalType":"address","name":"to","type":"address"},{"internalType":"uint256","name":"amount","type":"uint256"}],"name":"sweepTokens","outputs":[],"stateMutability":"nonpayable","type":"function"},{"inputs":[],"name":"totalCollateral","outputs":[{"internalType":"uint256","name":"","type":"uint256"}],"stateMutability":"view","type":"function"},{"inputs":[],"name":"totalDebt","outputs":[{"internalType":"uint256","name":"","type":"uint256"}],"stateMutability":"view","type":"function"},{"inputs":[],"name":"unpause","outputs":[],"stateMutability":"nonpayable","type":"function"},{"inputs":[],"name":"usdc","outputs":[{"internalType":"contract IERC20","name":"","type":"address"}],"stateMutability":"view","type":"function"},{"inputs":[{"internalType":"address","name":"","type":"address"}],"name":"userVaultId","outputs":[{"internalType":"uint256","name":"","type":"uint256"}],"stateMutability":"view","type":"function"},{"inputs":[{"internalType":"uint256","name":"","type":"uint256"}],"name":"vaultOwner","outputs":[{"internalType":"address","name":"","type":"address"}],"stateMutability":"view","type":"function"}],"evm":{"bytecode":{"linkReferences":{},"object":"60e0346200018357601f6200250038819003918201601f19168301916001600160401b03831184841017620001885780849260809460405283398101031262000183578062000052620000f7926200019e565b9062000061602082016200019e565b906200007e606062000076604084016200019e565b92016200019e565b9260018055601e600355601e600455607860055560786006556005600755600a600855610e1060095560ff19600a5416600a556001600b5560018060a01b0392838092166080521660a0521660c052620000d881620001b3565b50620000e48162000222565b50620000f081620002c4565b5062000361565b506200010333620003fe565b5060405161204790816200047982396080518181816104f6015281816109990152818161108d0152611463015260a051818181610463015281816108ef015281816110c501526116ad015260c0518181816103b4015281816107c901528181610d2201528181610f1101528181611ac201528181611bab0152611cc30152f35b600080fd5b634e487b7160e01b600052604160045260246000fd5b51906001600160a01b03821682036200018357565b6001600160a01b03166000818152600080516020620024e0833981519152602052604081205490919060ff166200021e57818052816020526040822081835260205260408220600160ff198254161790553391600080516020620024c08339815191528180a4600190565b5090565b6001600160a01b031660008181527f6f3b488caa0dc03e5f3d9fd6a25fa8755afcfd62ccffb6e436c696bfa6b866de60205260408120549091907f7935bd0ae54bc31f548c14dba4d37c5c64b3f8ca900cb468fb8abd54d5894f559060ff16620002bf57808352826020526040832082845260205260408320600160ff19825416179055600080516020620024c0833981519152339380a4600190565b505090565b6001600160a01b031660008181527ff7c9542c591017a21c74b6f3fab6263c7952fc0aaf9db4c22a2a04ddc7f8674f60205260408120549091907f65d7a28e3265b37a6474929f336521b332c1681b933f6cb9f3376673440d862a9060ff16620002bf57808352826020526040832082845260205260408320600160ff19825416179055600080516020620024c0833981519152339380a4600190565b6001600160a01b031660008181527fbcea842b576603bd7a3cd6bbb61cb6c1908ae113af80c7a38f32f896fbaa454460205260408120549091907f5e17fc5225d4a099df75359ce1f405503ca79498a8dc46a7d583235a0ee45c169060ff16620002bf57808352826020526040832082845260205260408320600160ff19825416179055600080516020620024c0833981519152339380a4600190565b6001600160a01b03166000818152600080516020620024e0833981519152602052604081205490919060ff16156200021e5781805281602052604082208183526020526040822060ff19815416905533917ff6391f5c32d9c69d2a47ea670b442974b53935d1edc7fd64eb21e047a839171b8180a460019056fe608060408181526004918236101561001657600080fd5b600092833560e01c91826301ffc9a71461176d575081630b78f9c0146117005781630f852f87146116dc57816310567b8a1461169857816310b45de11461167257816312ac17631461165357816313966db51461163457816316a6c4c51461161557816316d8887a146115da57816317d8de82146115b4578163248a9ca31461158a5781632f2ff15d1461156057816336568abe1461151a57816338536275146114c55781633c2ecfe5146114925781633e413bee1461144e5781633f4ba83a146113e45781634031234c146113c557816345948c31146113625781634ac8eb5f146113435781634f7e43df1461132457816355f57510146112c45781635c975abb146112a05781636008d28b14610ebc5781636b58359e14610e9a578163730e7b4714610d705781637b7c1f4c14610d515781637dc0d1d014610d0d5781638456cb5914610cb257816384da266614610c935781638b6ca32c14610bee57816391d1485414610ba8578163965fa21e14610b8a578163a217fddf14610b6f578163bcbaf4871461074f578163c6e7275d146106d8578163ccc574901461069d578163cd377c5314610679578163d547741f14610632578163db006a7514610350578163e63ab1e914610315578163f31916ab146102be578163f9b1d89b1461026c57508063fa225cb9146102355763fc7b9c181461021457600080fd5b346102315781600319360112610231576020906011549051908152f35b5080fd5b50346102315760203660031901126102315760209181906001600160a01b0361025c6117d6565b168152600c845220549051908152f35b9050346102ba5760203660031901126102ba5735600e548110156102ba57600e602093527fbb7b4a454dc3493923482f07822329ed19e8244eff582cc204f8554c3620c3fd01549051908152f35b8280fd5b82843461031257602036600319011261031257506102de60e09235611a23565b9596909481949294519760018060a01b0316885260208801528601526060850152608084015260a0830152151560c0820152f35b80fd5b505034610231578160031936011261023157602090517f65d7a28e3265b37a6474929f336521b332c1681b933f6cb9f3376673440d862a8152f35b9050346102ba576020918260031936011261062e5781359161037061198c565b61037861196e565b821561062057338552600f84528185209460018601958654858110610610578451634c6afee560e11b8152976001600160a01b039290888a87817f000000000000000000000000000000000000000000000000000000000000000088165afa80156106065798809a899a9998996105d2575b5050815492806103fa858a6118e4565b906104049161190d565b998a94885461041390876118e4565b6127109004610422908761192d565b9b61042c9161192d565b84556104379161192d565b90554290600201556010549061044c9161192d565b601055836011549061045d9161192d565b601155807f000000000000000000000000000000000000000000000000000000000000000016803b156102ba578551632770a7eb60e21b815233858201908152602081018790529091849183919082908490829060400103925af180156105c8579083916105b4575b5050845163a9059cbb60e01b815233848201908152602081018890529091889183919082908690829060400103927f0000000000000000000000000000000000000000000000000000000000000000165af19182156105a9579161057c575b501561056e575061053533611e44565b815190815282848201527fe5b754fb1abb7f01b499791d0b820ae3b6af3424ac1c59768edb53f4ec31a929823392a26001805551908152f35b82516312171d8360e31b8152fd5b61059c9150863d88116105a2575b61059481836118c2565b810190611956565b38610525565b503d61058a565b8551903d90823e3d90fd5b6105bd9061187c565b6102315781386104c6565b86513d85823e3d90fd5b90809298503d83116105ff575b6105e981836118c2565b810103126105fa57879589386103ea565b600080fd5b503d6105df565b87513d87823e3d90fd5b8451633a23d82560e01b81528490fd5b905163162908e360e11b8152fd5b8380fd5b919050346102ba57806003193601126102ba57610675913561067060016106576117ec565b93610660611e9c565b8387528660205286200154611f72565b611802565b5080f35b505034610231578160031936011261023157602090610696611b8d565b9051908152f35b505034610231578160031936011261023157602090517f7935bd0ae54bc31f548c14dba4d37c5c64b3f8ca900cb468fb8abd54d5894f558152f35b505034610231576107497f61c468e821b1662263e339e465b2b8aa3c36b504f804ffac4a19ad8eae3df8139161070d366117c0565b610718939193611e9c565b6006549260075490856006558260075551948594859094939260609260808301968352602083015260408201520152565b0390a180f35b919050346102ba57806003193601126102ba5761076a6117d6565b60243561077561198c565b61077d61196e565b60ff600a54161580610b31575b610b225760018060a01b039182811693848752602095600f87528188209260018401918254968715610b13578451634c6afee560e11b8152968a8884817f000000000000000000000000000000000000000000000000000000000000000086165afa978815610a60578c98610ae0575b50670de0b6b3a764000094856108108a8c6118e4565b04958854966064880288810460641489151715610acc57906108319161190d565b6006541115610abd57600289019261084d84546009549061193a565b4210610aad5780158015610aa3575b15610a99575061086e8b9a5b8b6118e4565b049761088960646108816007548c6118e4565b04809a61193a565b96808811610a91575b8761089c9161192d565b90556108a8898b61192d565b90554290556108b98460105461192d565b6010556108c88760115461192d565b60115584516323b872dd60e01b815233838201908152306020820152604081018990528c917f00000000000000000000000000000000000000000000000000000000000000008416918d9082908190606001038186865af18015610a8757610a6a575b50803b15610231578651632770a7eb60e21b815230858201908152602081018b9052909291839182908490829060400103925af18015610a6057610a4d575b50845163a9059cbb60e01b8152338382019081526020810186905290918b9183919082908f90829060400103927f0000000000000000000000000000000000000000000000000000000000000000165af1908115610a43578b91610a26575b5015610a1857506109d990611e44565b8151968488528701528501521060608301527fb2d7000ba47b75ddd99dd768e6776653c4550f1f34697a69d70c6fb2f046a13a60803393a36001805580f35b83516312171d8360e31b8152fd5b610a3d91508a3d8c116105a25761059481836118c2565b386109c9565b85513d8d823e3d90fd5b610a59909b919b61187c565b993861096a565b86513d8e823e3d90fd5b610a80908d803d106105a25761059481836118c2565b503861092b565b88513d85823e3d90fd5b965086610892565b61086e909a610868565b508b81101561085c565b885163478f84e760e01b81528690fd5b87516229abe760e51b81528590fd5b50634e487b7160e01b8f526011865260248ffd5b9097508a81813d8311610b0c575b610af881836118c2565b81010312610b08575196386107fa565b8b80fd5b503d610aee565b508351636ec9be1160e01b8152fd5b50505163d891a1b760e01b8152fd5b507f5e17fc5225d4a099df75359ce1f405503ca79498a8dc46a7d583235a0ee45c1685528460205282852033865260205260ff83862054161561078a565b50503461023157816003193601126102315751908152602090f35b9050346102ba57826003193601126102ba5760209250549051908152f35b9050346102ba57816003193601126102ba578160209360ff92610bc96117ec565b903582528186528282206001600160a01b039091168252855220549151911615158152f35b919050346102ba5760603660031901126102ba576020610c5692610c106117d6565b610c186117ec565b610c20611e9c565b845163a9059cbb60e01b81526001600160a01b039091169281019283526044356020840152948592839188918391604090910190565b03926001600160a01b03165af1908115610c8a5750610c73575080f35b6106759060203d81116105a25761059481836118c2565b513d84823e3d90fd5b5050346102315781600319360112610231576020906005549051908152f35b50503461023157816003193601126102315760207f62e78cea01bee320cd4e420270b5ea74000d11b0c9f74754ebdbfc544b05a25891610cf0611f16565b610cf861196e565b600160ff19600254161760025551338152a180f35b505034610231578160031936011261023157517f00000000000000000000000000000000000000000000000000000000000000006001600160a01b03168152602090f35b5050346102315781600319360112610231576020906007549051908152f35b8284346103125780600319360112610312579081600b5490610d91826119c7565b93600192835b818110610e1e575050610da9816119c7565b94825b828110610dee5750505082519260208080860192818752875180945286019601925b828110610ddb5785870386f35b8351875295810195928101928401610dce565b80610e02610e1392849997999896986119f9565b51610e0d82886119f9565b52611947565b959395949294610dac565b808452600d602052858420549496939593946001600160a01b031680610e54575b50610e4990611947565b959395949294610d97565b610e5d90611c67565b8015159081610e8e575b50610e73575b87610e3f565b91610e868184610e0d610e4994896119f9565b929050610e6d565b90506006541188610e67565b83903461023157602036600319011261023157610eb5611e9c565b3560095580f35b919050346102ba57610ecd366117c0565b610ed561198c565b610edd61196e565b811561129157607881108015611286575b611277578251634c6afee560e11b815260209590946001600160a01b03878783817f000000000000000000000000000000000000000000000000000000000000000085165afa9687156105c8578397611248575b50610f5c612710610f55600354886118e4565b048661192d565b60648102818104606414821517156112355785610f789161190d565b97670de0b6b3a764000098898102908082048b14901517156112125781610f9e9161190d565b98891561122557610fc6610fb48460105461193a565b92610fc18c60115461193a565b6118e4565b04906064810290808204606414901517156112125790610fe59161190d565b600554116112025761104c90338552600c8a528785208054156111c8575b50338552600f8a5287852061101982825461193a565b9055338552600f8a526001888620016110338a825461193a565b9055338552600f8a52426002898720015560105461193a565b60105561105b8760115461193a565b60115585516323b872dd60e01b81523383820190815230602082015260408101879052899082908190606001038187867f0000000000000000000000000000000000000000000000000000000000000000165af19081156111be5784916111a1575b5015611192577f00000000000000000000000000000000000000000000000000000000000000001690813b156102ba5785516340c10f1960e01b815233918101918252602082018890529291829184919082908490829060400103925af19081156105a9575091611176917fb4c03061fb5b7fed76389d5af8f2e0ddb09f8c70d1333abbb62582835e10accb93611183575b5061115933611e44565b845193845260208401869052604084015233929081906060820190565b0390a26001805551908152f35b61118c9061187c565b3861114f565b5084516312171d8360e31b8152fd5b6111b89150893d8b116105a25761059481836118c2565b386110bd565b87513d86823e3d90fd5b600b548091558552600d8a52878520336bffffffffffffffffffffffff60a01b8254161790556111f9600b54611947565b600b5538611003565b865163a7967db160e01b81528390fd5b634e487b7160e01b865260118552602486fd5b885163162908e360e11b81528590fd5b634e487b7160e01b855260118452602485fd5b9096508781813d8311611270575b61126081836118c2565b810103126102ba57519538610f42565b503d611256565b50505163a7967db160e01b8152fd5b5061012c8111610eee565b50505163162908e360e11b8152fd5b50503461023157816003193601126102315760209060ff6002541690519015158152f35b505034610231576020366003190112610231579081906001600160a01b036112ea6117d6565b168152600f6020522090611320825491600260018501549401549051938493846040919493926060820195825260208201520152565b0390f35b5050346102315781600319360112610231576020906008549051908152f35b5050346102315781600319360112610231576020906010549051908152f35b9050346102ba5760203660031901126102ba5735908115158092036102ba577fc9db1a7151020aeaea591554467fa98c8a6a34c73547711d73cf89d21a00dc60916020916113ae611e9c565b60ff19600a541660ff831617600a5551908152a180f35b5050346102315781600319360112610231576020906006549051908152f35b9050346102ba57826003193601126102ba576113fe611f16565b6002549060ff821615611440575060ff1916600255513381527f5db9ee0a495bf2e6ff9c91a7834c1ba4fdd244a5e8aa4e537bd38aeae4b073aa90602090a180f35b8251638dfc202b60e01b8152fd5b505034610231578160031936011261023157517f00000000000000000000000000000000000000000000000000000000000000006001600160a01b03168152602090f35b9050346102ba5760203660031901126102ba57358252600d6020908152918190205490516001600160a01b039091168152f35b919050346102ba5760203660031901126102ba577fea851fc89ebccda62380b76fc8e8317f0bcd4d75ea908cf501bd2ebc6ac1c8f29135611504611e9c565b600554908060055582519182526020820152a180f35b8383346102315780600319360112610231576115346117ec565b90336001600160a01b038316036115515750610675919235611802565b5163334bd91960e11b81528390fd5b919050346102ba57806003193601126102ba57610675913561158560016106576117ec565b611f98565b9050346102ba5760203660031901126102ba57816020936001923581528085522001549051908152f35b505034610231576020366003190112610231576020906106966115d56117d6565b611d83565b505034610231578160031936011261023157602090517f5e17fc5225d4a099df75359ce1f405503ca79498a8dc46a7d583235a0ee45c168152f35b5050346102315781600319360112610231576020906009549051908152f35b5050346102315781600319360112610231576020906003549051908152f35b505034610231578160031936011261023157602090600b549051908152f35b505034610231576020366003190112610231576020906106966116936117d6565b611c67565b505034610231578160031936011261023157517f00000000000000000000000000000000000000000000000000000000000000006001600160a01b03168152602090f35b50503461023157816003193601126102315760209060ff600a541690519015158152f35b9050346102ba577f16e6f67290546b8dd0e587f4b7f67d4f61932ae17ffd8c60d3509dbc05c175fe91610749611735366117c0565b909361173f611e9c565b6003549382825492876003555551948594859094939260609260808301968352602083015260408201520152565b8491346102ba5760203660031901126102ba573563ffffffff60e01b81168091036102ba5760209250637965db0b60e01b81149081156117af575b5015158152f35b6301ffc9a760e01b149050836117a8565b60409060031901126105fa576004359060243590565b600435906001600160a01b03821682036105fa57565b602435906001600160a01b03821682036105fa57565b9060009180835282602052604083209160018060a01b03169182845260205260ff6040842054166000146118775780835282602052604083208284526020526040832060ff1981541690557ff6391f5c32d9c69d2a47ea670b442974b53935d1edc7fd64eb21e047a839171b339380a4600190565b505090565b67ffffffffffffffff811161189057604052565b634e487b7160e01b600052604160045260246000fd5b6060810190811067ffffffffffffffff82111761189057604052565b90601f8019910116810190811067ffffffffffffffff82111761189057604052565b818102929181159184041417156118f757565b634e487b7160e01b600052601160045260246000fd5b8115611917570490565b634e487b7160e01b600052601260045260246000fd5b919082039182116118f757565b919082018092116118f757565b60001981146118f75760010190565b908160209103126105fa575180151581036105fa5790565b60ff6002541661197a57565b60405163d93c066560e01b8152600490fd5b60026001541461199d576002600155565b604051633ee5aeb560e01b8152600490fd5b67ffffffffffffffff81116118905760051b60200190565b906119d1826119af565b6119de60405191826118c2565b82815280926119ef601f19916119af565b0190602036910137565b8051821015611a0d5760209160051b010190565b634e487b7160e01b600052603260045260246000fd5b60008081928252602090600d825260018060a01b0390604094828686205416968715611b79578388168652600f85528686208751611a60816118a6565b815490818152896002600185015494858b8501520154910152978197611a858b611c67565b97611a8f8c611d83565b9789151580611b6e575b611aa5575b5050505050565b8382939496985060049597505194858092634c6afee560e11b82527f0000000000000000000000000000000000000000000000000000000000000000165afa938415611b6357508193611b27575b505050670de0b6b3a7640000611b0e611b18926064946118e4565b04600754906118e4565b04906001903880808080611a9e565b9091809350813d8311611b5c575b611b3f81836118c2565b81010312610312575051670de0b6b3a7640000611b0e6064611af3565b503d611b35565b51913d9150823e3d90fd5b506006548a10611a99565b965050505050809150918180918180918190565b6011548015611c6157604051634c6afee560e11b81526020816004817f00000000000000000000000000000000000000000000000000000000000000006001600160a01b03165afa908115611c5557600091611c1c575b50611bf890670de0b6b3a7640000926118e4565b04601054906064820291808304606414901517156118f757611c199161190d565b90565b906020823d8211611c4d575b81611c35602093836118c2565b81010312610312575051670de0b6b3a7640000611be4565b3d9150611c28565b6040513d6000823e3d90fd5b50600090565b9060018060a01b03806000931683526020600f8152604084209060405192611c8e846118a6565b8254845260018301546002838601948286520154604086015215611d7d578160049160405192838092634c6afee560e11b82527f0000000000000000000000000000000000000000000000000000000000000000165afa918215611d72578692611d3e575b5050611d0990670de0b6b3a764000092516118e4565b049051606481029080820460641490151715611d2a57611c1992935061190d565b634e487b7160e01b84526011600452602484fd5b90809250813d8311611d6b575b611d5581836118c2565b81010312611d67575181611d09611cf3565b8480fd5b503d611d4b565b6040513d88823e3d90fd5b50505050565b6001600160a01b03166000908152600f6020526040808220905191611da7836118a6565b815492838152600183015490604060026020830195848752015491015215611e3e57606483029280840460641481151715611e2a5768056bc75e2d631000000292808404670de0b6b3a76400001490151715611e16575090611e10611c199251600654906118e4565b9061190d565b634e487b7160e01b81526011600452602490fd5b634e487b7160e01b82526011600452602482fd5b91505090565b6001600160a01b0381166000908152600c60205260409020549081611e67575050565b6020611e937f4bf48f4a07b20309fa7bd58d04c1aa538e17a29099bebb19872d1a54e8e1c4ea92611d83565b604051908152a2565b3360009081527f6f3b488caa0dc03e5f3d9fd6a25fa8755afcfd62ccffb6e436c696bfa6b866de60205260409020547f7935bd0ae54bc31f548c14dba4d37c5c64b3f8ca900cb468fb8abd54d5894f559060ff1615611ef85750565b6044906040519063e2517d3f60e01b82523360048301526024820152fd5b3360009081527ff7c9542c591017a21c74b6f3fab6263c7952fc0aaf9db4c22a2a04ddc7f8674f60205260409020547f65d7a28e3265b37a6474929f336521b332c1681b933f6cb9f3376673440d862a9060ff1615611ef85750565b80600052600060205260406000203360005260205260ff6040600020541615611ef85750565b9060009180835282602052604083209160018060a01b03169182845260205260ff6040842054161560001461187757808352826020526040832082845260205260408320600160ff198254161790557f2f8788117e7eff1d82e926ec794901d17c78024a50270940304540a733656f0d339380a460019056fea26469706673582212206648ecc0282643d6ab991ded8df2f0dfde0a26e3ec74fe8ab1c1a2b651536e4c64736f6c634300081500332f8788117e7eff1d82e926ec794901d17c78024a50270940304540a733656f0dad3228b676f7d3cd4284a5443f17f1962b36e491b30a40b2405849e597ba5fb5","opcodes":"PUSH1 0xE0 CALLVALUE PUSH3 0x183 JUMPI PUSH1 0x1F PUSH3 0x2500 CODESIZE DUP2 SWAP1 SUB SWAP2 DUP3 ADD PUSH1 0x1F NOT AND DUP4 ADD SWAP2 PUSH1 0x1 PUSH1 0x1 PUSH1 0x40 SHL SUB DUP4 GT DUP5 DUP5 LT OR PUSH3 0x188 JUMPI DUP1 DUP5 SWAP3 PUSH1 0x80 SWAP5 PUSH1 0x40 MSTORE DUP4 CODECOPY DUP2 ADD SUB SLT PUSH3 0x183 JUMPI DUP1 PUSH3 0x52 PUSH3 0xF7 SWAP3 PUSH3 0x19E JUMP JUMPDEST SWAP1 PUSH3 0x61 PUSH1 0x20 DUP3 ADD PUSH3 0x19E JUMP JUMPDEST SWAP1 PUSH3 0x7E PUSH1 0x60 PUSH3 0x76 PUSH1 0x40 DUP5 ADD PUSH3 0x19E JUMP JUMPDEST SWAP3 ADD PUSH3 0x19E JUMP JUMPDEST SWAP3 PUSH1 0x1 DUP1 SSTORE PUSH1 0x1E PUSH1 0x3 SSTORE PUSH1 0x1E PUSH1 0x4 SSTORE PUSH1 0x78 PUSH1 0x5 SSTORE PUSH1 0x78 PUSH1 0x6 SSTORE PUSH1 0x5 PUSH1 0x7 SSTORE PUSH1 0xA PUSH1 0x8 SSTORE PUSH2 0xE10 PUSH1 0x9 SSTORE PUSH1 0xFF NOT PUSH1 0xA SLOAD AND PUSH1 0xA SSTORE PUSH1 0x1 PUSH1 0xB SSTORE PUSH1 0x1 DUP1 PUSH1 0xA0 SHL SUB SWAP3 DUP4 DUP1 SWAP3 AND PUSH1 0x80 MSTORE AND PUSH1 0xA0 MSTORE AND PUSH1 0xC0 MSTORE PUSH3 0xD8 DUP2 PUSH3 0x1B3 JUMP JUMPDEST POP PUSH3 0xE4 DUP2 PUSH3 0x222 JUMP JUMPDEST POP PUSH3 0xF0 DUP2 PUSH3 0x2C4 JUMP JUMPDEST POP PUSH3 0x361 JUMP JUMPDEST POP PUSH3 0x103 CALLER PUSH3 0x3FE JUMP JUMPDEST POP PUSH1 0x40 MLOAD PUSH2 0x2047 SWAP1 DUP2 PUSH3 0x479 DUP3 CODECOPY PUSH1 0x80 MLOAD DUP2 DUP2 DUP2 PUSH2 0x4F6 ADD MSTORE DUP2 DUP2 PUSH2 0x999 ADD MSTORE DUP2 DUP2 PUSH2 0x108D ADD MSTORE PUSH2 0x1463 ADD MSTORE PUSH1 0xA0 MLOAD DUP2 DUP2 DUP2 PUSH2 0x463 ADD MSTORE DUP2 DUP2 PUSH2 0x8EF ADD MSTORE DUP2 DUP2 PUSH2 0x10C5 ADD MSTORE PUSH2 0x16AD ADD MSTORE PUSH1 0xC0 MLOAD DUP2 DUP2 DUP2 PUSH2 0x3B4 ADD MSTORE DUP2 DUP2 PUSH2 0x7C9 ADD MSTORE DUP2 DUP2 PUSH2 0xD22 ADD MSTORE DUP2 DUP2 PUSH2 0xF11 ADD MSTORE DUP2 DUP2 PUSH2 0x1AC2 ADD MSTORE DUP2 DUP2 PUSH2 0x1BAB ADD MSTORE PUSH2 0x1CC3 ADD MSTORE RETURN JUMPDEST PUSH1 0x0 DUP1 REVERT JUMPDEST PUSH4 0x4E487B71 PUSH1 0xE0 SHL PUSH1 0x0 MSTORE PUSH1 0x41 PUSH1 0x4 MSTORE PUSH1 0x24 PUSH1 0x0 REVERT JUMPDEST MLOAD SWAP1 PUSH1 0x1 PUSH1 0x1 PUSH1 0xA0 SHL SUB DUP3 AND DUP3 SUB PUSH3 0x183 JUMPI JUMP JUMPDEST PUSH1 0x1 PUSH1 0x1 PUSH1 0xA0 SHL SUB AND PUSH1 0x0 DUP2 DUP2 MSTORE PUSH1 0x0 DUP1 MLOAD PUSH1 0x20 PUSH3 0x24E0 DUP4 CODECOPY DUP2 MLOAD SWAP2 MSTORE PUSH1 0x20 MSTORE PUSH1 0x40 DUP2 KECCAK256 SLOAD SWAP1 SWAP2 SWAP1 PUSH1 0xFF AND PUSH3 0x21E JUMPI DUP2 DUP1 MSTORE DUP2 PUSH1 0x20 MSTORE PUSH1 0x40 DUP3 KECCAK256 DUP2 DUP4 MSTORE PUSH1 0x20 MSTORE PUSH1 0x40 DUP3 KECCAK256 PUSH1 0x1 PUSH1 0xFF NOT DUP3 SLOAD AND OR SWAP1 SSTORE CALLER SWAP2 PUSH1 0x0 DUP1 MLOAD PUSH1 0x20 PUSH3 0x24C0 DUP4 CODECOPY DUP2 MLOAD SWAP2 MSTORE DUP2 DUP1 LOG4 PUSH1 0x1 SWAP1 JUMP JUMPDEST POP SWAP1 JUMP JUMPDEST PUSH1 0x1 PUSH1 0x1 PUSH1 0xA0 SHL SUB AND PUSH1 0x0 DUP2 DUP2 MSTORE PUSH32 0x6F3B488CAA0DC03E5F3D9FD6A25FA8755AFCFD62CCFFB6E436C696BFA6B866DE PUSH1 0x20 MSTORE PUSH1 0x40 DUP2 KECCAK256 SLOAD SWAP1 SWAP2 SWAP1 PUSH32 0x7935BD0AE54BC31F548C14DBA4D37C5C64B3F8CA900CB468FB8ABD54D5894F55 SWAP1 PUSH1 0xFF AND PUSH3 0x2BF JUMPI DUP1 DUP4 MSTORE DUP3 PUSH1 0x20 MSTORE PUSH1 0x40 DUP4 KECCAK256 DUP3 DUP5 MSTORE PUSH1 0x20 MSTORE PUSH1 0x40 DUP4 KECCAK256 PUSH1 0x1 PUSH1 0xFF NOT DUP3 SLOAD AND OR SWAP1 SSTORE PUSH1 0x0 DUP1 MLOAD PUSH1 0x20 PUSH3 0x24C0 DUP4 CODECOPY DUP2 MLOAD SWAP2 MSTORE CALLER SWAP4 DUP1 LOG4 PUSH1 0x1 SWAP1 JUMP JUMPDEST POP POP SWAP1 JUMP JUMPDEST PUSH1 0x1 PUSH1 0x1 PUSH1 0xA0 SHL SUB AND PUSH1 0x0 DUP2 DUP2 MSTORE PUSH32 0xF7C9542C591017A21C74B6F3FAB6263C7952FC0AAF9DB4C22A2A04DDC7F8674F PUSH1 0x20 MSTORE PUSH1 0x40 DUP2 KECCAK256 SLOAD SWAP1 SWAP2 SWAP1 PUSH32 0x65D7A28E3265B37A6474929F336521B332C1681B933F6CB9F3376673440D862A SWAP1 PUSH1 0xFF AND PUSH3 0x2BF JUMPI DUP1 DUP4 MSTORE DUP3 PUSH1 0x20 MSTORE PUSH1 0x40 DUP4 KECCAK256 DUP3 DUP5 MSTORE PUSH1 0x20 MSTORE PUSH1 0x40 DUP4 KECCAK256 PUSH1 0x1 PUSH1 0xFF NOT DUP3 SLOAD AND OR SWAP1 SSTORE PUSH1 0x0 DUP1 MLOAD PUSH1 0x20 PUSH3 0x24C0 DUP4 CODECOPY DUP2 MLOAD SWAP2 MSTORE CALLER SWAP4 DUP1 LOG4 PUSH1 0x1 SWAP1 JUMP JUMPDEST PUSH1 0x1 PUSH1 0x1 PUSH1 0xA0 SHL SUB AND PUSH1 0x0 DUP2 DUP2 MSTORE PUSH32 0xBCEA842B576603BD7A3CD6BBB61CB6C1908AE113AF80C7A38F32F896FBAA4544 PUSH1 0x20 MSTORE PUSH1 0x40 DUP2 KECCAK256 SLOAD SWAP1 SWAP2 SWAP1 PUSH32 0x5E17FC5225D4A099DF75359CE1F405503CA79498A8DC46A7D583235A0EE45C16 SWAP1 PUSH1 0xFF AND PUSH3 0x2BF JUMPI DUP1 DUP4 MSTORE DUP3 PUSH1 0x20 MSTORE PUSH1 0x40 DUP4 KECCAK256 DUP3 DUP5 MSTORE PUSH1 0x20 MSTORE PUSH1 0x40 DUP4 KECCAK256 PUSH1 0x1 PUSH1 0xFF NOT DUP3 SLOAD AND OR SWAP1 SSTORE PUSH1 0x0 DUP1 MLOAD PUSH1 0x20 PUSH3 0x24C0 DUP4 CODECOPY DUP2 MLOAD SWAP2 MSTORE CALLER SWAP4 DUP1 LOG4 PUSH1 0x1 SWAP1 JUMP JUMPDEST PUSH1 0x1 PUSH1 0x1 PUSH1 0xA0 SHL SUB AND PUSH1 0x0 DUP2 DUP2 MSTORE PUSH1 0x0 DUP1 MLOAD PUSH1 0x20 PUSH3 0x24E0 DUP4 CODECOPY DUP2 MLOAD SWAP2 MSTORE PUSH1 0x20 MSTORE PUSH1 0x40 DUP2 KECCAK256 SLOAD SWAP1 SWAP2 SWAP1 PUSH1 0xFF AND ISZERO PUSH3 0x21E JUMPI DUP2 DUP1 MSTORE DUP2 PUSH1 0x20 MSTORE PUSH1 0x40 DUP3 KECCAK256 DUP2 DUP4 MSTORE PUSH1 0x20 MSTORE PUSH1 0x40 DUP3 KECCAK256 PUSH1 0xFF NOT DUP2 SLOAD AND SWAP1 SSTORE CALLER SWAP2 PUSH32 0xF6391F5C32D9C69D2A47EA670B442974B53935D1EDC7FD64EB21E047A839171B DUP2 DUP1 LOG4 PUSH1 0x1 SWAP1 JUMP INVALID PUSH1 0x80 PUSH1 0x40 DUP2 DUP2 MSTORE PUSH1 0x4 SWAP2 DUP3 CALLDATASIZE LT ISZERO PUSH2 0x16 JUMPI PUSH1 0x0 DUP1 REVERT JUMPDEST PUSH1 0x0 SWAP3 DUP4 CALLDATALOAD PUSH1 0xE0 SHR SWAP2 DUP3 PUSH4 0x1FFC9A7 EQ PUSH2 0x176D JUMPI POP DUP2 PUSH4 0xB78F9C0 EQ PUSH2 0x1700 JUMPI DUP2 PUSH4 0xF852F87 EQ PUSH2 0x16DC JUMPI DUP2 PUSH4 0x10567B8A EQ PUSH2 0x1698 JUMPI DUP2 PUSH4 0x10B45DE1 EQ PUSH2 0x1672 JUMPI DUP2 PUSH4 0x12AC1763 EQ PUSH2 0x1653 JUMPI DUP2 PUSH4 0x13966DB5 EQ PUSH2 0x1634 JUMPI DUP2 PUSH4 0x16A6C4C5 EQ PUSH2 0x1615 JUMPI DUP2 PUSH4 0x16D8887A EQ PUSH2 0x15DA JUMPI DUP2 PUSH4 0x17D8DE82 EQ PUSH2 0x15B4 JUMPI DUP2 PUSH4 0x248A9CA3 EQ PUSH2 0x158A JUMPI DUP2 PUSH4 0x2F2FF15D EQ PUSH2 0x1560 JUMPI DUP2 PUSH4 0x36568ABE EQ PUSH2 0x151A JUMPI DUP2 PUSH4 0x38536275 EQ PUSH2 0x14C5 JUMPI DUP2 PUSH4 0x3C2ECFE5 EQ PUSH2 0x1492 JUMPI DUP2 PUSH4 0x3E413BEE EQ PUSH2 0x144E JUMPI DUP2 PUSH4 0x3F4BA83A EQ PUSH2 0x13E4 JUMPI DUP2 PUSH4 0x4031234C EQ PUSH2 0x13C5 JUMPI DUP2 PUSH4 0x45948C31 EQ PUSH2 0x1362 JUMPI DUP2 PUSH4 0x4AC8EB5F EQ PUSH2 0x1343 JUMPI DUP2 PUSH4 0x4F7E43DF EQ PUSH2 0x1324 JUMPI DUP2 PUSH4 0x55F57510 EQ PUSH2 0x12C4 JUMPI DUP2 PUSH4 0x5C975ABB EQ PUSH2 0x12A0 JUMPI DUP2 PUSH4 0x6008D28B EQ PUSH2 0xEBC JUMPI DUP2 PUSH4 0x6B58359E EQ PUSH2 0xE9A JUMPI DUP2 PUSH4 0x730E7B47 EQ PUSH2 0xD70 JUMPI DUP2 PUSH4 0x7B7C1F4C EQ PUSH2 0xD51 JUMPI DUP2 PUSH4 0x7DC0D1D0 EQ PUSH2 0xD0D JUMPI DUP2 PUSH4 0x8456CB59 EQ PUSH2 0xCB2 JUMPI DUP2 PUSH4 0x84DA2666 EQ PUSH2 0xC93 JUMPI DUP2 PUSH4 0x8B6CA32C EQ PUSH2 0xBEE JUMPI DUP2 PUSH4 0x91D14854 EQ PUSH2 0xBA8 JUMPI DUP2 PUSH4 0x965FA21E EQ PUSH2 0xB8A JUMPI DUP2 PUSH4 0xA217FDDF EQ PUSH2 0xB6F JUMPI DUP2 PUSH4 0xBCBAF487 EQ PUSH2 0x74F JUMPI DUP2 PUSH4 0xC6E7275D EQ PUSH2 0x6D8 JUMPI DUP2 PUSH4 0xCCC57490 EQ PUSH2 0x69D JUMPI DUP2 PUSH4 0xCD377C53 EQ PUSH2 0x679 JUMPI DUP2 PUSH4 0xD547741F EQ PUSH2 0x632 JUMPI DUP2 PUSH4 0xDB006A75 EQ PUSH2 0x350 JUMPI DUP2 PUSH4 0xE63AB1E9 EQ PUSH2 0x315 JUMPI DUP2 PUSH4 0xF31916AB EQ PUSH2 0x2BE JUMPI DUP2 PUSH4 0xF9B1D89B EQ PUSH2 0x26C JUMPI POP DUP1 PUSH4 0xFA225CB9 EQ PUSH2 0x235 JUMPI PUSH4 0xFC7B9C18 EQ PUSH2 0x214 JUMPI PUSH1 0x0 DUP1 REVERT JUMPDEST CALLVALUE PUSH2 0x231 JUMPI DUP2 PUSH1 0x3 NOT CALLDATASIZE ADD SLT PUSH2 0x231 JUMPI PUSH1 0x20 SWAP1 PUSH1 0x11 SLOAD SWAP1 MLOAD SWAP1 DUP2 MSTORE RETURN JUMPDEST POP DUP1 REVERT JUMPDEST POP CALLVALUE PUSH2 0x231 JUMPI PUSH1 0x20 CALLDATASIZE PUSH1 0x3 NOT ADD SLT PUSH2 0x231 JUMPI PUSH1 0x20 SWAP2 DUP2 SWAP1 PUSH1 0x1 PUSH1 0x1 PUSH1 0xA0 SHL SUB PUSH2 0x25C PUSH2 0x17D6 JUMP JUMPDEST AND DUP2 MSTORE PUSH1 0xC DUP5 MSTORE KECCAK256 SLOAD SWAP1 MLOAD SWAP1 DUP2 MSTORE RETURN JUMPDEST SWAP1 POP CALLVALUE PUSH2 0x2BA JUMPI PUSH1 0x20 CALLDATASIZE PUSH1 0x3 NOT ADD SLT PUSH2 0x2BA JUMPI CALLDATALOAD PUSH1 0xE SLOAD DUP2 LT ISZERO PUSH2 0x2BA JUMPI PUSH1 0xE PUSH1 0x20 SWAP4 MSTORE PUSH32 0xBB7B4A454DC3493923482F07822329ED19E8244EFF582CC204F8554C3620C3FD ADD SLOAD SWAP1 MLOAD SWAP1 DUP2 MSTORE RETURN JUMPDEST DUP3 DUP1 REVERT JUMPDEST DUP3 DUP5 CALLVALUE PUSH2 0x312 JUMPI PUSH1 0x20 CALLDATASIZE PUSH1 0x3 NOT ADD SLT PUSH2 0x312 JUMPI POP PUSH2 0x2DE PUSH1 0xE0 SWAP3 CALLDATALOAD PUSH2 0x1A23 JUMP JUMPDEST SWAP6 SWAP7 SWAP1 SWAP5 DUP2 SWAP5 SWAP3 SWAP5 MLOAD SWAP8 PUSH1 0x1 DUP1 PUSH1 0xA0 SHL SUB AND DUP9 MSTORE PUSH1 0x20 DUP9 ADD MSTORE DUP7 ADD MSTORE PUSH1 0x60 DUP6 ADD MSTORE PUSH1 0x80 DUP5 ADD MSTORE PUSH1 0xA0 DUP4 ADD MSTORE ISZERO ISZERO PUSH1 0xC0 DUP3 ADD MSTORE RETURN JUMPDEST DUP1 REVERT JUMPDEST POP POP CALLVALUE PUSH2 0x231 JUMPI DUP2 PUSH1 0x3 NOT CALLDATASIZE ADD SLT PUSH2 0x231 JUMPI PUSH1 0x20 SWAP1 MLOAD PUSH32 0x65D7A28E3265B37A6474929F336521B332C1681B933F6CB9F3376673440D862A DUP2 MSTORE RETURN JUMPDEST SWAP1 POP CALLVALUE PUSH2 0x2BA JUMPI PUSH1 0x20 SWAP2 DUP3 PUSH1 0x3 NOT CALLDATASIZE ADD SLT PUSH2 0x62E JUMPI DUP2 CALLDATALOAD SWAP2 PUSH2 0x370 PUSH2 0x198C JUMP JUMPDEST PUSH2 0x378 PUSH2 0x196E JUMP JUMPDEST DUP3 ISZERO PUSH2 0x620 JUMPI CALLER DUP6 MSTORE PUSH1 0xF DUP5 MSTORE DUP2 DUP6 KECCAK256 SWAP5 PUSH1 0x1 DUP7 ADD SWAP6 DUP7 SLOAD DUP6 DUP2 LT PUSH2 0x610 JUMPI DUP5 MLOAD PUSH4 0x4C6AFEE5 PUSH1 0xE1 SHL DUP2 MSTORE SWAP8 PUSH1 0x1 PUSH1 0x1 PUSH1 0xA0 SHL SUB SWAP3 SWAP1 DUP9 DUP11 DUP8 DUP2 PUSH32 0x0 DUP9 AND GAS STATICCALL DUP1 ISZERO PUSH2 0x606 JUMPI SWAP9 DUP1 SWAP11 DUP10 SWAP11 SWAP10 SWAP9 SWAP10 PUSH2 0x5D2 JUMPI JUMPDEST POP POP DUP2 SLOAD SWAP3 DUP1 PUSH2 0x3FA DUP6 DUP11 PUSH2 0x18E4 JUMP JUMPDEST SWAP1 PUSH2 0x404 SWAP2 PUSH2 0x190D JUMP JUMPDEST SWAP10 DUP11 SWAP5 DUP9 SLOAD PUSH2 0x413 SWAP1 DUP8 PUSH2 0x18E4 JUMP JUMPDEST PUSH2 0x2710 SWAP1 DIV PUSH2 0x422 SWAP1 DUP8 PUSH2 0x192D JUMP JUMPDEST SWAP12 PUSH2 0x42C SWAP2 PUSH2 0x192D JUMP JUMPDEST DUP5 SSTORE PUSH2 0x437 SWAP2 PUSH2 0x192D JUMP JUMPDEST SWAP1 SSTORE TIMESTAMP SWAP1 PUSH1 0x2 ADD SSTORE PUSH1 0x10 SLOAD SWAP1 PUSH2 0x44C SWAP2 PUSH2 0x192D JUMP JUMPDEST PUSH1 0x10 SSTORE DUP4 PUSH1 0x11 SLOAD SWAP1 PUSH2 0x45D SWAP2 PUSH2 0x192D JUMP JUMPDEST PUSH1 0x11 SSTORE DUP1 PUSH32 0x0 AND DUP1 EXTCODESIZE ISZERO PUSH2 0x2BA JUMPI DUP6 MLOAD PUSH4 0x2770A7EB PUSH1 0xE2 SHL DUP2 MSTORE CALLER DUP6 DUP3 ADD SWAP1 DUP2 MSTORE PUSH1 0x20 DUP2 ADD DUP8 SWAP1 MSTORE SWAP1 SWAP2 DUP5 SWAP2 DUP4 SWAP2 SWAP1 DUP3 SWAP1 DUP5 SWAP1 DUP3 SWAP1 PUSH1 0x40 ADD SUB SWAP3 GAS CALL DUP1 ISZERO PUSH2 0x5C8 JUMPI SWAP1 DUP4 SWAP2 PUSH2 0x5B4 JUMPI JUMPDEST POP POP DUP5 MLOAD PUSH4 0xA9059CBB PUSH1 0xE0 SHL DUP2 MSTORE CALLER DUP5 DUP3 ADD SWAP1 DUP2 MSTORE PUSH1 0x20 DUP2 ADD DUP9 SWAP1 MSTORE SWAP1 SWAP2 DUP9 SWAP2 DUP4 SWAP2 SWAP1 DUP3 SWAP1 DUP7 SWAP1 DUP3 SWAP1 PUSH1 0x40 ADD SUB SWAP3 PUSH32 0x0 AND GAS CALL SWAP2 DUP3 ISZERO PUSH2 0x5A9 JUMPI SWAP2 PUSH2 0x57C JUMPI JUMPDEST POP ISZERO PUSH2 0x56E JUMPI POP PUSH2 0x535 CALLER PUSH2 0x1E44 JUMP JUMPDEST DUP2 MLOAD SWAP1 DUP2 MSTORE DUP3 DUP5 DUP3 ADD MSTORE PUSH32 0xE5B754FB1ABB7F01B499791D0B820AE3B6AF3424AC1C59768EDB53F4EC31A929 DUP3 CALLER SWAP3 LOG2 PUSH1 0x1 DUP1 SSTORE MLOAD SWAP1 DUP2 MSTORE RETURN JUMPDEST DUP3 MLOAD PUSH4 0x12171D83 PUSH1 0xE3 SHL DUP2 MSTORE REVERT JUMPDEST PUSH2 0x59C SWAP2 POP DUP7 RETURNDATASIZE DUP9 GT PUSH2 0x5A2 JUMPI JUMPDEST PUSH2 0x594 DUP2 DUP4 PUSH2 0x18C2 JUMP JUMPDEST DUP2 ADD SWAP1 PUSH2 0x1956 JUMP JUMPDEST CODESIZE PUSH2 0x525 JUMP JUMPDEST POP RETURNDATASIZE PUSH2 0x58A JUMP JUMPDEST DUP6 MLOAD SWAP1 RETURNDATASIZE SWAP1 DUP3 RETURNDATACOPY RETURNDATASIZE SWAP1 REVERT JUMPDEST PUSH2 0x5BD SWAP1 PUSH2 0x187C JUMP JUMPDEST PUSH2 0x231 JUMPI DUP2 CODESIZE PUSH2 0x4C6 JUMP JUMPDEST DUP7 MLOAD RETURNDATASIZE DUP6 DUP3 RETURNDATACOPY RETURNDATASIZE SWAP1 REVERT JUMPDEST SWAP1 DUP1 SWAP3 SWAP9 POP RETURNDATASIZE DUP4 GT PUSH2 0x5FF JUMPI JUMPDEST PUSH2 0x5E9 DUP2 DUP4 PUSH2 0x18C2 JUMP JUMPDEST DUP2 ADD SUB SLT PUSH2 0x5FA JUMPI DUP8 SWAP6 DUP10 CODESIZE PUSH2 0x3EA JUMP JUMPDEST PUSH1 0x0 DUP1 REVERT JUMPDEST POP RETURNDATASIZE PUSH2 0x5DF JUMP JUMPDEST DUP8 MLOAD RETURNDATASIZE DUP8 DUP3 RETURNDATACOPY RETURNDATASIZE SWAP1 REVERT JUMPDEST DUP5 MLOAD PUSH4 0x3A23D825 PUSH1 0xE0 SHL DUP2 MSTORE DUP5 SWAP1 REVERT JUMPDEST SWAP1 MLOAD PUSH4 0x162908E3 PUSH1 0xE1 SHL DUP2 MSTORE REVERT JUMPDEST DUP4 DUP1 REVERT JUMPDEST SWAP2 SWAP1 POP CALLVALUE PUSH2 0x2BA JUMPI DUP1 PUSH1 0x3 NOT CALLDATASIZE ADD SLT PUSH2 0x2BA JUMPI PUSH2 0x675 SWAP2 CALLDATALOAD PUSH2 0x670 PUSH1 0x1 PUSH2 0x657 PUSH2 0x17EC JUMP JUMPDEST SWAP4 PUSH2 0x660 PUSH2 0x1E9C JUMP JUMPDEST DUP4 DUP8 MSTORE DUP7 PUSH1 0x20 MSTORE DUP7 KECCAK256 ADD SLOAD PUSH2 0x1F72 JUMP JUMPDEST PUSH2 0x1802 JUMP JUMPDEST POP DUP1 RETURN JUMPDEST POP POP CALLVALUE PUSH2 0x231 JUMPI DUP2 PUSH1 0x3 NOT CALLDATASIZE ADD SLT PUSH2 0x231 JUMPI PUSH1 0x20 SWAP1 PUSH2 0x696 PUSH2 0x1B8D JUMP JUMPDEST SWAP1 MLOAD SWAP1 DUP2 MSTORE RETURN JUMPDEST POP POP CALLVALUE PUSH2 0x231 JUMPI DUP2 PUSH1 0x3 NOT CALLDATASIZE ADD SLT PUSH2 0x231 JUMPI PUSH1 0x20 SWAP1 MLOAD PUSH32 0x7935BD0AE54BC31F548C14DBA4D37C5C64B3F8CA900CB468FB8ABD54D5894F55 DUP2 MSTORE RETURN JUMPDEST POP POP CALLVALUE PUSH2 0x231 JUMPI PUSH2 0x749 PUSH32 0x61C468E821B1662263E339E465B2B8AA3C36B504F804FFAC4A19AD8EAE3DF813 SWAP2 PUSH2 0x70D CALLDATASIZE PUSH2 0x17C0 JUMP JUMPDEST PUSH2 0x718 SWAP4 SWAP2 SWAP4 PUSH2 0x1E9C JUMP JUMPDEST PUSH1 0x6 SLOAD SWAP3 PUSH1 0x7 SLOAD SWAP1 DUP6 PUSH1 0x6 SSTORE DUP3 PUSH1 0x7 SSTORE MLOAD SWAP5 DUP6 SWAP5 DUP6 SWAP1 SWAP5 SWAP4 SWAP3 PUSH1 0x60 SWAP3 PUSH1 0x80 DUP4 ADD SWAP7 DUP4 MSTORE PUSH1 0x20 DUP4 ADD MSTORE PUSH1 0x40 DUP3 ADD MSTORE ADD MSTORE JUMP JUMPDEST SUB SWAP1 LOG1 DUP1 RETURN JUMPDEST SWAP2 SWAP1 POP CALLVALUE PUSH2 0x2BA JUMPI DUP1 PUSH1 0x3 NOT CALLDATASIZE ADD SLT PUSH2 0x2BA JUMPI PUSH2 0x76A PUSH2 0x17D6 JUMP JUMPDEST PUSH1 0x24 CALLDATALOAD PUSH2 0x775 PUSH2 0x198C JUMP JUMPDEST PUSH2 0x77D PUSH2 0x196E JUMP JUMPDEST PUSH1 0xFF PUSH1 0xA SLOAD AND ISZERO DUP1 PUSH2 0xB31 JUMPI JUMPDEST PUSH2 0xB22 JUMPI PUSH1 0x1 DUP1 PUSH1 0xA0 SHL SUB SWAP2 DUP3 DUP2 AND SWAP4 DUP5 DUP8 MSTORE PUSH1 0x20 SWAP6 PUSH1 0xF DUP8 MSTORE DUP2 DUP9 KECCAK256 SWAP3 PUSH1 0x1 DUP5 ADD SWAP2 DUP3 SLOAD SWAP7 DUP8 ISZERO PUSH2 0xB13 JUMPI DUP5 MLOAD PUSH4 0x4C6AFEE5 PUSH1 0xE1 SHL DUP2 MSTORE SWAP7 DUP11 DUP9 DUP5 DUP2 PUSH32 0x0 DUP7 AND GAS STATICCALL SWAP8 DUP9 ISZERO PUSH2 0xA60 JUMPI DUP13 SWAP9 PUSH2 0xAE0 JUMPI JUMPDEST POP PUSH8 0xDE0B6B3A7640000 SWAP5 DUP6 PUSH2 0x810 DUP11 DUP13 PUSH2 0x18E4 JUMP JUMPDEST DIV SWAP6 DUP9 SLOAD SWAP7 PUSH1 0x64 DUP9 MUL DUP9 DUP2 DIV PUSH1 0x64 EQ DUP10 ISZERO OR ISZERO PUSH2 0xACC JUMPI SWAP1 PUSH2 0x831 SWAP2 PUSH2 0x190D JUMP JUMPDEST PUSH1 0x6 SLOAD GT ISZERO PUSH2 0xABD JUMPI PUSH1 0x2 DUP10 ADD SWAP3 PUSH2 0x84D DUP5 SLOAD PUSH1 0x9 SLOAD SWAP1 PUSH2 0x193A JUMP JUMPDEST TIMESTAMP LT PUSH2 0xAAD JUMPI DUP1 ISZERO DUP1 ISZERO PUSH2 0xAA3 JUMPI JUMPDEST ISZERO PUSH2 0xA99 JUMPI POP PUSH2 0x86E DUP12 SWAP11 JUMPDEST DUP12 PUSH2 0x18E4 JUMP JUMPDEST DIV SWAP8 PUSH2 0x889 PUSH1 0x64 PUSH2 0x881 PUSH1 0x7 SLOAD DUP13 PUSH2 0x18E4 JUMP JUMPDEST DIV DUP1 SWAP11 PUSH2 0x193A JUMP JUMPDEST SWAP7 DUP1 DUP9 GT PUSH2 0xA91 JUMPI JUMPDEST DUP8 PUSH2 0x89C SWAP2 PUSH2 0x192D JUMP JUMPDEST SWAP1 SSTORE PUSH2 0x8A8 DUP10 DUP12 PUSH2 0x192D JUMP JUMPDEST SWAP1 SSTORE TIMESTAMP SWAP1 SSTORE PUSH2 0x8B9 DUP5 PUSH1 0x10 SLOAD PUSH2 0x192D JUMP JUMPDEST PUSH1 0x10 SSTORE PUSH2 0x8C8 DUP8 PUSH1 0x11 SLOAD PUSH2 0x192D JUMP JUMPDEST PUSH1 0x11 SSTORE DUP5 MLOAD PUSH4 0x23B872DD PUSH1 0xE0 SHL DUP2 MSTORE CALLER DUP4 DUP3 ADD SWAP1 DUP2 MSTORE ADDRESS PUSH1 0x20 DUP3 ADD MSTORE PUSH1 0x40 DUP2 ADD DUP10 SWAP1 MSTORE DUP13 SWAP2 PUSH32 0x0 DUP5 AND SWAP2 DUP14 SWAP1 DUP3 SWAP1 DUP2 SWAP1 PUSH1 0x60 ADD SUB DUP2 DUP7 DUP7 GAS CALL DUP1 ISZERO PUSH2 0xA87 JUMPI PUSH2 0xA6A JUMPI JUMPDEST POP DUP1 EXTCODESIZE ISZERO PUSH2 0x231 JUMPI DUP7 MLOAD PUSH4 0x2770A7EB PUSH1 0xE2 SHL DUP2 MSTORE ADDRESS DUP6 DUP3 ADD SWAP1 DUP2 MSTORE PUSH1 0x20 DUP2 ADD DUP12 SWAP1 MSTORE SWAP1 SWAP3 SWAP2 DUP4 SWAP2 DUP3 SWAP1 DUP5 SWAP1 DUP3 SWAP1 PUSH1 0x40 ADD SUB SWAP3 GAS CALL DUP1 ISZERO PUSH2 0xA60 JUMPI PUSH2 0xA4D JUMPI JUMPDEST POP DUP5 MLOAD PUSH4 0xA9059CBB PUSH1 0xE0 SHL DUP2 MSTORE CALLER DUP4 DUP3 ADD SWAP1 DUP2 MSTORE PUSH1 0x20 DUP2 ADD DUP7 SWAP1 MSTORE SWAP1 SWAP2 DUP12 SWAP2 DUP4 SWAP2 SWAP1 DUP3 SWAP1 DUP16 SWAP1 DUP3 SWAP1 PUSH1 0x40 ADD SUB SWAP3 PUSH32 0x0 AND GAS CALL SWAP1 DUP2 ISZERO PUSH2 0xA43 JUMPI DUP12 SWAP2 PUSH2 0xA26 JUMPI JUMPDEST POP ISZERO PUSH2 0xA18 JUMPI POP PUSH2 0x9D9 SWAP1 PUSH2 0x1E44 JUMP JUMPDEST DUP2 MLOAD SWAP7 DUP5 DUP9 MSTORE DUP8 ADD MSTORE DUP6 ADD MSTORE LT PUSH1 0x60 DUP4 ADD MSTORE PUSH32 0xB2D7000BA47B75DDD99DD768E6776653C4550F1F34697A69D70C6FB2F046A13A PUSH1 0x80 CALLER SWAP4 LOG3 PUSH1 0x1 DUP1 SSTORE DUP1 RETURN JUMPDEST DUP4 MLOAD PUSH4 0x12171D83 PUSH1 0xE3 SHL DUP2 MSTORE REVERT JUMPDEST PUSH2 0xA3D SWAP2 POP DUP11 RETURNDATASIZE DUP13 GT PUSH2 0x5A2 JUMPI PUSH2 0x594 DUP2 DUP4 PUSH2 0x18C2 JUMP JUMPDEST CODESIZE PUSH2 0x9C9 JUMP JUMPDEST DUP6 MLOAD RETURNDATASIZE DUP14 DUP3 RETURNDATACOPY RETURNDATASIZE SWAP1 REVERT JUMPDEST PUSH2 0xA59 SWAP1 SWAP12 SWAP2 SWAP12 PUSH2 0x187C JUMP JUMPDEST SWAP10 CODESIZE PUSH2 0x96A JUMP JUMPDEST DUP7 MLOAD RETURNDATASIZE DUP15 DUP3 RETURNDATACOPY RETURNDATASIZE SWAP1 REVERT JUMPDEST PUSH2 0xA80 SWAP1 DUP14 DUP1 RETURNDATASIZE LT PUSH2 0x5A2 JUMPI PUSH2 0x594 DUP2 DUP4 PUSH2 0x18C2 JUMP JUMPDEST POP CODESIZE PUSH2 0x92B JUMP JUMPDEST DUP9 MLOAD RETURNDATASIZE DUP6 DUP3 RETURNDATACOPY RETURNDATASIZE SWAP1 REVERT JUMPDEST SWAP7 POP DUP7 PUSH2 0x892 JUMP JUMPDEST PUSH2 0x86E SWAP1 SWAP11 PUSH2 0x868 JUMP JUMPDEST POP DUP12 DUP2 LT ISZERO PUSH2 0x85C JUMP JUMPDEST DUP9 MLOAD PUSH4 0x478F84E7 PUSH1 0xE0 SHL DUP2 MSTORE DUP7 SWAP1 REVERT JUMPDEST DUP8 MLOAD PUSH3 0x29ABE7 PUSH1 0xE5 SHL DUP2 MSTORE DUP6 SWAP1 REVERT JUMPDEST POP PUSH4 0x4E487B71 PUSH1 0xE0 SHL DUP16 MSTORE PUSH1 0x11 DUP7 MSTORE PUSH1 0x24 DUP16 REVERT JUMPDEST SWAP1 SWAP8 POP DUP11 DUP2 DUP2 RETURNDATASIZE DUP4 GT PUSH2 0xB0C JUMPI JUMPDEST PUSH2 0xAF8 DUP2 DUP4 PUSH2 0x18C2 JUMP JUMPDEST DUP2 ADD SUB SLT PUSH2 0xB08 JUMPI MLOAD SWAP7 CODESIZE PUSH2 0x7FA JUMP JUMPDEST DUP12 DUP1 REVERT JUMPDEST POP RETURNDATASIZE PUSH2 0xAEE JUMP JUMPDEST POP DUP4 MLOAD PUSH4 0x6EC9BE11 PUSH1 0xE0 SHL DUP2 MSTORE REVERT JUMPDEST POP POP MLOAD PUSH4 0xD891A1B7 PUSH1 0xE0 SHL DUP2 MSTORE REVERT JUMPDEST POP PUSH32 0x5E17FC5225D4A099DF75359CE1F405503CA79498A8DC46A7D583235A0EE45C16 DUP6 MSTORE DUP5 PUSH1 0x20 MSTORE DUP3 DUP6 KECCAK256 CALLER DUP7 MSTORE PUSH1 0x20 MSTORE PUSH1 0xFF DUP4 DUP7 KECCAK256 SLOAD AND ISZERO PUSH2 0x78A JUMP JUMPDEST POP POP CALLVALUE PUSH2 0x231 JUMPI DUP2 PUSH1 0x3 NOT CALLDATASIZE ADD SLT PUSH2 0x231 JUMPI MLOAD SWAP1 DUP2 MSTORE PUSH1 0x20 SWAP1 RETURN JUMPDEST SWAP1 POP CALLVALUE PUSH2 0x2BA JUMPI DUP3 PUSH1 0x3 NOT CALLDATASIZE ADD SLT PUSH2 0x2BA JUMPI PUSH1 0x20 SWAP3 POP SLOAD SWAP1 MLOAD SWAP1 DUP2 MSTORE RETURN JUMPDEST SWAP1 POP CALLVALUE PUSH2 0x2BA JUMPI DUP2 PUSH1 0x3 NOT CALLDATASIZE ADD SLT PUSH2 0x2BA JUMPI DUP2 PUSH1 0x20 SWAP4 PUSH1 0xFF SWAP3 PUSH2 0xBC9 PUSH2 0x17EC JUMP JUMPDEST SWAP1 CALLDATALOAD DUP3 MSTORE DUP2 DUP7 MSTORE DUP3 DUP3 KECCAK256 PUSH1 0x1 PUSH1 0x1 PUSH1 0xA0 SHL SUB SWAP1 SWAP2 AND DUP3 MSTORE DUP6 MSTORE KECCAK256 SLOAD SWAP2 MLOAD SWAP2 AND ISZERO ISZERO DUP2 MSTORE RETURN JUMPDEST SWAP2 SWAP1 POP CALLVALUE PUSH2 0x2BA JUMPI PUSH1 0x60 CALLDATASIZE PUSH1 0x3 NOT ADD SLT PUSH2 0x2BA JUMPI PUSH1 0x20 PUSH2 0xC56 SWAP3 PUSH2 0xC10 PUSH2 0x17D6 JUMP JUMPDEST PUSH2 0xC18 PUSH2 0x17EC JUMP JUMPDEST PUSH2 0xC20 PUSH2 0x1E9C JUMP JUMPDEST DUP5 MLOAD PUSH4 0xA9059CBB PUSH1 0xE0 SHL DUP2 MSTORE PUSH1 0x1 PUSH1 0x1 PUSH1 0xA0 SHL SUB SWAP1 SWAP2 AND SWAP3 DUP2 ADD SWAP3 DUP4 MSTORE PUSH1 0x44 CALLDATALOAD PUSH1 0x20 DUP5 ADD MSTORE SWAP5 DUP6 SWAP3 DUP4 SWAP2 DUP9 SWAP2 DUP4 SWAP2 PUSH1 0x40 SWAP1 SWAP2 ADD SWAP1 JUMP JUMPDEST SUB SWAP3 PUSH1 0x1 PUSH1 0x1 PUSH1 0xA0 SHL SUB AND GAS CALL SWAP1 DUP2 ISZERO PUSH2 0xC8A JUMPI POP PUSH2 0xC73 JUMPI POP DUP1 RETURN JUMPDEST PUSH2 0x675 SWAP1 PUSH1 0x20 RETURNDATASIZE DUP2 GT PUSH2 0x5A2 JUMPI PUSH2 0x594 DUP2 DUP4 PUSH2 0x18C2 JUMP JUMPDEST MLOAD RETURNDATASIZE DUP5 DUP3 RETURNDATACOPY RETURNDATASIZE SWAP1 REVERT JUMPDEST POP POP CALLVALUE PUSH2 0x231 JUMPI DUP2 PUSH1 0x3 NOT CALLDATASIZE ADD SLT PUSH2 0x231 JUMPI PUSH1 0x20 SWAP1 PUSH1 0x5 SLOAD SWAP1 MLOAD SWAP1 DUP2 MSTORE RETURN JUMPDEST POP POP CALLVALUE PUSH2 0x231 JUMPI DUP2 PUSH1 0x3 NOT CALLDATASIZE ADD SLT PUSH2 0x231 JUMPI PUSH1 0x20 PUSH32 0x62E78CEA01BEE320CD4E420270B5EA74000D11B0C9F74754EBDBFC544B05A258 SWAP2 PUSH2 0xCF0 PUSH2 0x1F16 JUMP JUMPDEST PUSH2 0xCF8 PUSH2 0x196E JUMP JUMPDEST PUSH1 0x1 PUSH1 0xFF NOT PUSH1 0x2 SLOAD AND OR PUSH1 0x2 SSTORE MLOAD CALLER DUP2 MSTORE LOG1 DUP1 RETURN JUMPDEST POP POP CALLVALUE PUSH2 0x231 JUMPI DUP2 PUSH1 0x3 NOT CALLDATASIZE ADD SLT PUSH2 0x231 JUMPI MLOAD PUSH32 0x0 PUSH1 0x1 PUSH1 0x1 PUSH1 0xA0 SHL SUB AND DUP2 MSTORE PUSH1 0x20 SWAP1 RETURN JUMPDEST POP POP CALLVALUE PUSH2 0x231 JUMPI DUP2 PUSH1 0x3 NOT CALLDATASIZE ADD SLT PUSH2 0x231 JUMPI PUSH1 0x20 SWAP1 PUSH1 0x7 SLOAD SWAP1 MLOAD SWAP1 DUP2 MSTORE RETURN JUMPDEST DUP3 DUP5 CALLVALUE PUSH2 0x312 JUMPI DUP1 PUSH1 0x3 NOT CALLDATASIZE ADD SLT PUSH2 0x312 JUMPI SWAP1 DUP2 PUSH1 0xB SLOAD SWAP1 PUSH2 0xD91 DUP3 PUSH2 0x19C7 JUMP JUMPDEST SWAP4 PUSH1 0x1 SWAP3 DUP4 JUMPDEST DUP2 DUP2 LT PUSH2 0xE1E JUMPI POP POP PUSH2 0xDA9 DUP2 PUSH2 0x19C7 JUMP JUMPDEST SWAP5 DUP3 JUMPDEST DUP3 DUP2 LT PUSH2 0xDEE JUMPI POP POP POP DUP3 MLOAD SWAP3 PUSH1 0x20 DUP1 DUP1 DUP7 ADD SWAP3 DUP2 DUP8 MSTORE DUP8 MLOAD DUP1 SWAP5 MSTORE DUP7 ADD SWAP7 ADD SWAP3 JUMPDEST DUP3 DUP2 LT PUSH2 0xDDB JUMPI DUP6 DUP8 SUB DUP7 RETURN JUMPDEST DUP4 MLOAD DUP8 MSTORE SWAP6 DUP2 ADD SWAP6 SWAP3 DUP2 ADD SWAP3 DUP5 ADD PUSH2 0xDCE JUMP JUMPDEST DUP1 PUSH2 0xE02 PUSH2 0xE13 SWAP3 DUP5 SWAP10 SWAP8 SWAP10 SWAP9 SWAP7 SWAP9 PUSH2 0x19F9 JUMP JUMPDEST MLOAD PUSH2 0xE0D DUP3 DUP9 PUSH2 0x19F9 JUMP JUMPDEST MSTORE PUSH2 0x1947 JUMP JUMPDEST SWAP6 SWAP4 SWAP6 SWAP5 SWAP3 SWAP5 PUSH2 0xDAC JUMP JUMPDEST DUP1 DUP5 MSTORE PUSH1 0xD PUSH1 0x20 MSTORE DUP6 DUP5 KECCAK256 SLOAD SWAP5 SWAP7 SWAP4 SWAP6 SWAP4 SWAP5 PUSH1 0x1 PUSH1 0x1 PUSH1 0xA0 SHL SUB AND DUP1 PUSH2 0xE54 JUMPI JUMPDEST POP PUSH2 0xE49 SWAP1 PUSH2 0x1947 JUMP JUMPDEST SWAP6 SWAP4 SWAP6 SWAP5 SWAP3 SWAP5 PUSH2 0xD97 JUMP JUMPDEST PUSH2 0xE5D SWAP1 PUSH2 0x1C67 JUMP JUMPDEST DUP1 ISZERO ISZERO SWAP1 DUP2 PUSH2 0xE8E JUMPI JUMPDEST POP PUSH2 0xE73 JUMPI JUMPDEST DUP8 PUSH2 0xE3F JUMP JUMPDEST SWAP2 PUSH2 0xE86 DUP2 DUP5 PUSH2 0xE0D PUSH2 0xE49 SWAP5 DUP10 PUSH2 0x19F9 JUMP JUMPDEST SWAP3 SWAP1 POP PUSH2 0xE6D JUMP JUMPDEST SWAP1 POP PUSH1 0x6 SLOAD GT DUP9 PUSH2 0xE67 JUMP JUMPDEST DUP4 SWAP1 CALLVALUE PUSH2 0x231 JUMPI PUSH1 0x20 CALLDATASIZE PUSH1 0x3 NOT ADD SLT PUSH2 0x231 JUMPI PUSH2 0xEB5 PUSH2 0x1E9C JUMP JUMPDEST CALLDATALOAD PUSH1 0x9 SSTORE DUP1 RETURN JUMPDEST SWAP2 SWAP1 POP CALLVALUE PUSH2 0x2BA JUMPI PUSH2 0xECD CALLDATASIZE PUSH2 0x17C0 JUMP JUMPDEST PUSH2 0xED5 PUSH2 0x198C JUMP JUMPDEST PUSH2 0xEDD PUSH2 0x196E JUMP JUMPDEST DUP2 ISZERO PUSH2 0x1291 JUMPI PUSH1 0x78 DUP2 LT DUP1 ISZERO PUSH2 0x1286 JUMPI JUMPDEST PUSH2 0x1277 JUMPI DUP3 MLOAD PUSH4 0x4C6AFEE5 PUSH1 0xE1 SHL DUP2 MSTORE PUSH1 0x20 SWAP6 SWAP1 SWAP5 PUSH1 0x1 PUSH1 0x1 PUSH1 0xA0 SHL SUB DUP8 DUP8 DUP4 DUP2 PUSH32 0x0 DUP6 AND GAS STATICCALL SWAP7 DUP8 ISZERO PUSH2 0x5C8 JUMPI DUP4 SWAP8 PUSH2 0x1248 JUMPI JUMPDEST POP PUSH2 0xF5C PUSH2 0x2710 PUSH2 0xF55 PUSH1 0x3 SLOAD DUP9 PUSH2 0x18E4 JUMP JUMPDEST DIV DUP7 PUSH2 0x192D JUMP JUMPDEST PUSH1 0x64 DUP2 MUL DUP2 DUP2 DIV PUSH1 0x64 EQ DUP3 ISZERO OR ISZERO PUSH2 0x1235 JUMPI DUP6 PUSH2 0xF78 SWAP2 PUSH2 0x190D JUMP JUMPDEST SWAP8 PUSH8 0xDE0B6B3A7640000 SWAP9 DUP10 DUP2 MUL SWAP1 DUP1 DUP3 DIV DUP12 EQ SWAP1 ISZERO OR ISZERO PUSH2 0x1212 JUMPI DUP2 PUSH2 0xF9E SWAP2 PUSH2 0x190D JUMP JUMPDEST SWAP9 DUP10 ISZERO PUSH2 0x1225 JUMPI PUSH2 0xFC6 PUSH2 0xFB4 DUP5 PUSH1 0x10 SLOAD PUSH2 0x193A JUMP JUMPDEST SWAP3 PUSH2 0xFC1 DUP13 PUSH1 0x11 SLOAD PUSH2 0x193A JUMP JUMPDEST PUSH2 0x18E4 JUMP JUMPDEST DIV SWAP1 PUSH1 0x64 DUP2 MUL SWAP1 DUP1 DUP3 DIV PUSH1 0x64 EQ SWAP1 ISZERO OR ISZERO PUSH2 0x1212 JUMPI SWAP1 PUSH2 0xFE5 SWAP2 PUSH2 0x190D JUMP JUMPDEST PUSH1 0x5 SLOAD GT PUSH2 0x1202 JUMPI PUSH2 0x104C SWAP1 CALLER DUP6 MSTORE PUSH1 0xC DUP11 MSTORE DUP8 DUP6 KECCAK256 DUP1 SLOAD ISZERO PUSH2 0x11C8 JUMPI JUMPDEST POP CALLER DUP6 MSTORE PUSH1 0xF DUP11 MSTORE DUP8 DUP6 KECCAK256 PUSH2 0x1019 DUP3 DUP3 SLOAD PUSH2 0x193A JUMP JUMPDEST SWAP1 SSTORE CALLER DUP6 MSTORE PUSH1 0xF DUP11 MSTORE PUSH1 0x1 DUP9 DUP7 KECCAK256 ADD PUSH2 0x1033 DUP11 DUP3 SLOAD PUSH2 0x193A JUMP JUMPDEST SWAP1 SSTORE CALLER DUP6 MSTORE PUSH1 0xF DUP11 MSTORE TIMESTAMP PUSH1 0x2 DUP10 DUP8 KECCAK256 ADD SSTORE PUSH1 0x10 SLOAD PUSH2 0x193A JUMP JUMPDEST PUSH1 0x10 SSTORE PUSH2 0x105B DUP8 PUSH1 0x11 SLOAD PUSH2 0x193A JUMP JUMPDEST PUSH1 0x11 SSTORE DUP6 MLOAD PUSH4 0x23B872DD PUSH1 0xE0 SHL DUP2 MSTORE CALLER DUP4 DUP3 ADD SWAP1 DUP2 MSTORE ADDRESS PUSH1 0x20 DUP3 ADD MSTORE PUSH1 0x40 DUP2 ADD DUP8 SWAP1 MSTORE DUP10 SWAP1 DUP3 SWAP1 DUP2 SWAP1 PUSH1 0x60 ADD SUB DUP2 DUP8 DUP7 PUSH32 0x0 AND GAS CALL SWAP1 DUP2 ISZERO PUSH2 0x11BE JUMPI DUP5 SWAP2 PUSH2 0x11A1 JUMPI JUMPDEST POP ISZERO PUSH2 0x1192 JUMPI PUSH32 0x0 AND SWAP1 DUP2 EXTCODESIZE ISZERO PUSH2 0x2BA JUMPI DUP6 MLOAD PUSH4 0x40C10F19 PUSH1 0xE0 SHL DUP2 MSTORE CALLER SWAP2 DUP2 ADD SWAP2 DUP3 MSTORE PUSH1 0x20 DUP3 ADD DUP9 SWAP1 MSTORE SWAP3 SWAP2 DUP3 SWAP2 DUP5 SWAP2 SWAP1 DUP3 SWAP1 DUP5 SWAP1 DUP3 SWAP1 PUSH1 0x40 ADD SUB SWAP3 GAS CALL SWAP1 DUP2 ISZERO PUSH2 0x5A9 JUMPI POP SWAP2 PUSH2 0x1176 SWAP2 PUSH32 0xB4C03061FB5B7FED76389D5AF8F2E0DDB09F8C70D1333ABBB62582835E10ACCB SWAP4 PUSH2 0x1183 JUMPI JUMPDEST POP PUSH2 0x1159 CALLER PUSH2 0x1E44 JUMP JUMPDEST DUP5 MLOAD SWAP4 DUP5 MSTORE PUSH1 0x20 DUP5 ADD DUP7 SWAP1 MSTORE PUSH1 0x40 DUP5 ADD MSTORE CALLER SWAP3 SWAP1 DUP2 SWAP1 PUSH1 0x60 DUP3 ADD SWAP1 JUMP JUMPDEST SUB SWAP1 LOG2 PUSH1 0x1 DUP1 SSTORE MLOAD SWAP1 DUP2 MSTORE RETURN JUMPDEST PUSH2 0x118C SWAP1 PUSH2 0x187C JUMP JUMPDEST CODESIZE PUSH2 0x114F JUMP JUMPDEST POP DUP5 MLOAD PUSH4 0x12171D83 PUSH1 0xE3 SHL DUP2 MSTORE REVERT JUMPDEST PUSH2 0x11B8 SWAP2 POP DUP10 RETURNDATASIZE DUP12 GT PUSH2 0x5A2 JUMPI PUSH2 0x594 DUP2 DUP4 PUSH2 0x18C2 JUMP JUMPDEST CODESIZE PUSH2 0x10BD JUMP JUMPDEST DUP8 MLOAD RETURNDATASIZE DUP7 DUP3 RETURNDATACOPY RETURNDATASIZE SWAP1 REVERT JUMPDEST PUSH1 0xB SLOAD DUP1 SWAP2 SSTORE DUP6 MSTORE PUSH1 0xD DUP11 MSTORE DUP8 DUP6 KECCAK256 CALLER PUSH12 0xFFFFFFFFFFFFFFFFFFFFFFFF PUSH1 0xA0 SHL DUP3 SLOAD AND OR SWAP1 SSTORE PUSH2 0x11F9 PUSH1 0xB SLOAD PUSH2 0x1947 JUMP JUMPDEST PUSH1 0xB SSTORE CODESIZE PUSH2 0x1003 JUMP JUMPDEST DUP7 MLOAD PUSH4 0xA7967DB1 PUSH1 0xE0 SHL DUP2 MSTORE DUP4 SWAP1 REVERT JUMPDEST PUSH4 0x4E487B71 PUSH1 0xE0 SHL DUP7 MSTORE PUSH1 0x11 DUP6 MSTORE PUSH1 0x24 DUP7 REVERT JUMPDEST DUP9 MLOAD PUSH4 0x162908E3 PUSH1 0xE1 SHL DUP2 MSTORE DUP6 SWAP1 REVERT JUMPDEST PUSH4 0x4E487B71 PUSH1 0xE0 SHL DUP6 MSTORE PUSH1 0x11 DUP5 MSTORE PUSH1 0x24 DUP6 REVERT JUMPDEST SWAP1 SWAP7 POP DUP8 DUP2 DUP2 RETURNDATASIZE DUP4 GT PUSH2 0x1270 JUMPI JUMPDEST PUSH2 0x1260 DUP2 DUP4 PUSH2 0x18C2 JUMP JUMPDEST DUP2 ADD SUB SLT PUSH2 0x2BA JUMPI MLOAD SWAP6 CODESIZE PUSH2 0xF42 JUMP JUMPDEST POP RETURNDATASIZE PUSH2 0x1256 JUMP JUMPDEST POP POP MLOAD PUSH4 0xA7967DB1 PUSH1 0xE0 SHL DUP2 MSTORE REVERT JUMPDEST POP PUSH2 0x12C DUP2 GT PUSH2 0xEEE JUMP JUMPDEST POP POP MLOAD PUSH4 0x162908E3 PUSH1 0xE1 SHL DUP2 MSTORE REVERT JUMPDEST POP POP CALLVALUE PUSH2 0x231 JUMPI DUP2 PUSH1 0x3 NOT CALLDATASIZE ADD SLT PUSH2 0x231 JUMPI PUSH1 0x20 SWAP1 PUSH1 0xFF PUSH1 0x2 SLOAD AND SWAP1 MLOAD SWAP1 ISZERO ISZERO DUP2 MSTORE RETURN JUMPDEST POP POP CALLVALUE PUSH2 0x231 JUMPI PUSH1 0x20 CALLDATASIZE PUSH1 0x3 NOT ADD SLT PUSH2 0x231 JUMPI SWAP1 DUP2 SWAP1 PUSH1 0x1 PUSH1 0x1 PUSH1 0xA0 SHL SUB PUSH2 0x12EA PUSH2 0x17D6 JUMP JUMPDEST AND DUP2 MSTORE PUSH1 0xF PUSH1 0x20 MSTORE KECCAK256 SWAP1 PUSH2 0x1320 DUP3 SLOAD SWAP2 PUSH1 0x2 PUSH1 0x1 DUP6 ADD SLOAD SWAP5 ADD SLOAD SWAP1 MLOAD SWAP4 DUP5 SWAP4 DUP5 PUSH1 0x40 SWAP2 SWAP5 SWAP4 SWAP3 PUSH1 0x60 DUP3 ADD SWAP6 DUP3 MSTORE PUSH1 0x20 DUP3 ADD MSTORE ADD MSTORE JUMP JUMPDEST SUB SWAP1 RETURN JUMPDEST POP POP CALLVALUE PUSH2 0x231 JUMPI DUP2 PUSH1 0x3 NOT CALLDATASIZE ADD SLT PUSH2 0x231 JUMPI PUSH1 0x20 SWAP1 PUSH1 0x8 SLOAD SWAP1 MLOAD SWAP1 DUP2 MSTORE RETURN JUMPDEST POP POP CALLVALUE PUSH2 0x231 JUMPI DUP2 PUSH1 0x3 NOT CALLDATASIZE ADD SLT PUSH2 0x231 JUMPI PUSH1 0x20 SWAP1 PUSH1 0x10 SLOAD SWAP1 MLOAD SWAP1 DUP2 MSTORE RETURN JUMPDEST SWAP1 POP CALLVALUE PUSH2 0x2BA JUMPI PUSH1 0x20 CALLDATASIZE PUSH1 0x3 NOT ADD SLT PUSH2 0x2BA JUMPI CALLDATALOAD SWAP1 DUP2 ISZERO ISZERO DUP1 SWAP3 SUB PUSH2 0x2BA JUMPI PUSH32 0xC9DB1A7151020AEAEA591554467FA98C8A6A34C73547711D73CF89D21A00DC60 SWAP2 PUSH1 0x20 SWAP2 PUSH2 0x13AE PUSH2 0x1E9C JUMP JUMPDEST PUSH1 0xFF NOT PUSH1 0xA SLOAD AND PUSH1 0xFF DUP4 AND OR PUSH1 0xA SSTORE MLOAD SWAP1 DUP2 MSTORE LOG1 DUP1 RETURN JUMPDEST POP POP CALLVALUE PUSH2 0x231 JUMPI DUP2 PUSH1 0x3 NOT CALLDATASIZE ADD SLT PUSH2 0x231 JUMPI PUSH1 0x20 SWAP1 PUSH1 0x6 SLOAD SWAP1 MLOAD SWAP1 DUP2 MSTORE RETURN JUMPDEST SWAP1 POP CALLVALUE PUSH2 0x2BA JUMPI DUP3 PUSH1 0x3 NOT CALLDATASIZE ADD SLT PUSH2 0x2BA JUMPI PUSH2 0x13FE PUSH2 0x1F16 JUMP JUMPDEST PUSH1 0x2 SLOAD SWAP1 PUSH1 0xFF DUP3 AND ISZERO PUSH2 0x1440 JUMPI POP PUSH1 0xFF NOT AND PUSH1 0x2 SSTORE MLOAD CALLER DUP2 MSTORE PUSH32 0x5DB9EE0A495BF2E6FF9C91A7834C1BA4FDD244A5E8AA4E537BD38AEAE4B073AA SWAP1 PUSH1 0x20 SWAP1 LOG1 DUP1 RETURN JUMPDEST DUP3 MLOAD PUSH4 0x8DFC202B PUSH1 0xE0 SHL DUP2 MSTORE REVERT JUMPDEST POP POP CALLVALUE PUSH2 0x231 JUMPI DUP2 PUSH1 0x3 NOT CALLDATASIZE ADD SLT PUSH2 0x231 JUMPI MLOAD PUSH32 0x0 PUSH1 0x1 PUSH1 0x1 PUSH1 0xA0 SHL SUB AND DUP2 MSTORE PUSH1 0x20 SWAP1 RETURN JUMPDEST SWAP1 POP CALLVALUE PUSH2 0x2BA JUMPI PUSH1 0x20 CALLDATASIZE PUSH1 0x3 NOT ADD SLT PUSH2 0x2BA JUMPI CALLDATALOAD DUP3 MSTORE PUSH1 0xD PUSH1 0x20 SWAP1 DUP2 MSTORE SWAP2 DUP2 SWAP1 KECCAK256 SLOAD SWAP1 MLOAD PUSH1 0x1 PUSH1 0x1 PUSH1 0xA0 SHL SUB SWAP1 SWAP2 AND DUP2 MSTORE RETURN JUMPDEST SWAP2 SWAP1 POP CALLVALUE PUSH2 0x2BA JUMPI PUSH1 0x20 CALLDATASIZE PUSH1 0x3 NOT ADD SLT PUSH2 0x2BA JUMPI PUSH32 0xEA851FC89EBCCDA62380B76FC8E8317F0BCD4D75EA908CF501BD2EBC6AC1C8F2 SWAP2 CALLDATALOAD PUSH2 0x1504 PUSH2 0x1E9C JUMP JUMPDEST PUSH1 0x5 SLOAD SWAP1 DUP1 PUSH1 0x5 SSTORE DUP3 MLOAD SWAP2 DUP3 MSTORE PUSH1 0x20 DUP3 ADD MSTORE LOG1 DUP1 RETURN JUMPDEST DUP4 DUP4 CALLVALUE PUSH2 0x231 JUMPI DUP1 PUSH1 0x3 NOT CALLDATASIZE ADD SLT PUSH2 0x231 JUMPI PUSH2 0x1534 PUSH2 0x17EC JUMP JUMPDEST SWAP1 CALLER PUSH1 0x1 PUSH1 0x1 PUSH1 0xA0 SHL SUB DUP4 AND SUB PUSH2 0x1551 JUMPI POP PUSH2 0x675 SWAP2 SWAP3 CALLDATALOAD PUSH2 0x1802 JUMP JUMPDEST MLOAD PUSH4 0x334BD919 PUSH1 0xE1 SHL DUP2 MSTORE DUP4 SWAP1 REVERT JUMPDEST SWAP2 SWAP1 POP CALLVALUE PUSH2 0x2BA JUMPI DUP1 PUSH1 0x3 NOT CALLDATASIZE ADD SLT PUSH2 0x2BA JUMPI PUSH2 0x675 SWAP2 CALLDATALOAD PUSH2 0x1585 PUSH1 0x1 PUSH2 0x657 PUSH2 0x17EC JUMP JUMPDEST PUSH2 0x1F98 JUMP JUMPDEST SWAP1 POP CALLVALUE PUSH2 0x2BA JUMPI PUSH1 0x20 CALLDATASIZE PUSH1 0x3 NOT ADD SLT PUSH2 0x2BA JUMPI DUP2 PUSH1 0x20 SWAP4 PUSH1 0x1 SWAP3 CALLDATALOAD DUP2 MSTORE DUP1 DUP6 MSTORE KECCAK256 ADD SLOAD SWAP1 MLOAD SWAP1 DUP2 MSTORE RETURN JUMPDEST POP POP CALLVALUE PUSH2 0x231 JUMPI PUSH1 0x20 CALLDATASIZE PUSH1 0x3 NOT ADD SLT PUSH2 0x231 JUMPI PUSH1 0x20 SWAP1 PUSH2 0x696 PUSH2 0x15D5 PUSH2 0x17D6 JUMP JUMPDEST PUSH2 0x1D83 JUMP JUMPDEST POP POP CALLVALUE PUSH2 0x231 JUMPI DUP2 PUSH1 0x3 NOT CALLDATASIZE ADD SLT PUSH2 0x231 JUMPI PUSH1 0x20 SWAP1 MLOAD PUSH32 0x5E17FC5225D4A099DF75359CE1F405503CA79498A8DC46A7D583235A0EE45C16 DUP2 MSTORE RETURN JUMPDEST POP POP CALLVALUE PUSH2 0x231 JUMPI DUP2 PUSH1 0x3 NOT CALLDATASIZE ADD SLT PUSH2 0x231 JUMPI PUSH1 0x20 SWAP1 PUSH1 0x9 SLOAD SWAP1 MLOAD SWAP1 DUP2 MSTORE RETURN JUMPDEST POP POP CALLVALUE PUSH2 0x231 JUMPI DUP2 PUSH1 0x3 NOT CALLDATASIZE ADD SLT PUSH2 0x231 JUMPI PUSH1 0x20 SWAP1 PUSH1 0x3 SLOAD SWAP1 MLOAD SWAP1 DUP2 MSTORE RETURN JUMPDEST POP POP CALLVALUE PUSH2 0x231 JUMPI DUP2 PUSH1 0x3 NOT CALLDATASIZE ADD SLT PUSH2 0x231 JUMPI PUSH1 0x20 SWAP1 PUSH1 0xB SLOAD SWAP1 MLOAD SWAP1 DUP2 MSTORE RETURN JUMPDEST POP POP CALLVALUE PUSH2 0x231 JUMPI PUSH1 0x20 CALLDATASIZE PUSH1 0x3 NOT ADD SLT PUSH2 0x231 JUMPI PUSH1 0x20 SWAP1 PUSH2 0x696 PUSH2 0x1693 PUSH2 0x17D6 JUMP JUMPDEST PUSH2 0x1C67 JUMP JUMPDEST POP POP CALLVALUE PUSH2 0x231 JUMPI DUP2 PUSH1 0x3 NOT CALLDATASIZE ADD SLT PUSH2 0x231 JUMPI MLOAD PUSH32 0x0 PUSH1 0x1 PUSH1 0x1 PUSH1 0xA0 SHL SUB AND DUP2 MSTORE PUSH1 0x20 SWAP1 RETURN JUMPDEST POP POP CALLVALUE PUSH2 0x231 JUMPI DUP2 PUSH1 0x3 NOT CALLDATASIZE ADD SLT PUSH2 0x231 JUMPI PUSH1 0x20 SWAP1 PUSH1 0xFF PUSH1 0xA SLOAD AND SWAP1 MLOAD SWAP1 ISZERO ISZERO DUP2 MSTORE RETURN JUMPDEST SWAP1 POP CALLVALUE PUSH2 0x2BA JUMPI PUSH32 0x16E6F67290546B8DD0E587F4B7F67D4F61932AE17FFD8C60D3509DBC05C175FE SWAP2 PUSH2 0x749 PUSH2 0x1735 CALLDATASIZE PUSH2 0x17C0 JUMP JUMPDEST SWAP1 SWAP4 PUSH2 0x173F PUSH2 0x1E9C JUMP JUMPDEST PUSH1 0x3 SLOAD SWAP4 DUP3 DUP3 SLOAD SWAP3 DUP8 PUSH1 0x3 SSTORE SSTORE MLOAD SWAP5 DUP6 SWAP5 DUP6 SWAP1 SWAP5 SWAP4 SWAP3 PUSH1 0x60 SWAP3 PUSH1 0x80 DUP4 ADD SWAP7 DUP4 MSTORE PUSH1 0x20 DUP4 ADD MSTORE PUSH1 0x40 DUP3 ADD MSTORE ADD MSTORE JUMP JUMPDEST DUP5 SWAP2 CALLVALUE PUSH2 0x2BA JUMPI PUSH1 0x20 CALLDATASIZE PUSH1 0x3 NOT ADD SLT PUSH2 0x2BA JUMPI CALLDATALOAD PUSH4 0xFFFFFFFF PUSH1 0xE0 SHL DUP2 AND DUP1 SWAP2 SUB PUSH2 0x2BA JUMPI PUSH1 0x20 SWAP3 POP PUSH4 0x7965DB0B PUSH1 0xE0 SHL DUP2 EQ SWAP1 DUP2 ISZERO PUSH2 0x17AF JUMPI JUMPDEST POP ISZERO ISZERO DUP2 MSTORE RETURN JUMPDEST PUSH4 0x1FFC9A7 PUSH1 0xE0 SHL EQ SWAP1 POP DUP4 PUSH2 0x17A8 JUMP JUMPDEST PUSH1 0x40 SWAP1 PUSH1 0x3 NOT ADD SLT PUSH2 0x5FA JUMPI PUSH1 0x4 CALLDATALOAD SWAP1 PUSH1 0x24 CALLDATALOAD SWAP1 JUMP JUMPDEST PUSH1 0x4 CALLDATALOAD SWAP1 PUSH1 0x1 PUSH1 0x1 PUSH1 0xA0 SHL SUB DUP3 AND DUP3 SUB PUSH2 0x5FA JUMPI JUMP JUMPDEST PUSH1 0x24 CALLDATALOAD SWAP1 PUSH1 0x1 PUSH1 0x1 PUSH1 0xA0 SHL SUB DUP3 AND DUP3 SUB PUSH2 0x5FA JUMPI JUMP JUMPDEST SWAP1 PUSH1 0x0 SWAP2 DUP1 DUP4 MSTORE DUP3 PUSH1 0x20 MSTORE PUSH1 0x40 DUP4 KECCAK256 SWAP2 PUSH1 0x1 DUP1 PUSH1 0xA0 SHL SUB AND SWAP2 DUP3 DUP5 MSTORE PUSH1 0x20 MSTORE PUSH1 0xFF PUSH1 0x40 DUP5 KECCAK256 SLOAD AND PUSH1 0x0 EQ PUSH2 0x1877 JUMPI DUP1 DUP4 MSTORE DUP3 PUSH1 0x20 MSTORE PUSH1 0x40 DUP4 KECCAK256 DUP3 DUP5 MSTORE PUSH1 0x20 MSTORE PUSH1 0x40 DUP4 KECCAK256 PUSH1 0xFF NOT DUP2 SLOAD AND SWAP1 SSTORE PUSH32 0xF6391F5C32D9C69D2A47EA670B442974B53935D1EDC7FD64EB21E047A839171B CALLER SWAP4 DUP1 LOG4 PUSH1 0x1 SWAP1 JUMP JUMPDEST POP POP SWAP1 JUMP JUMPDEST PUSH8 0xFFFFFFFFFFFFFFFF DUP2 GT PUSH2 0x1890 JUMPI PUSH1 0x40 MSTORE JUMP JUMPDEST PUSH4 0x4E487B71 PUSH1 0xE0 SHL PUSH1 0x0 MSTORE PUSH1 0x41 PUSH1 0x4 MSTORE PUSH1 0x24 PUSH1 0x0 REVERT JUMPDEST PUSH1 0x60 DUP2 ADD SWAP1 DUP2 LT PUSH8 0xFFFFFFFFFFFFFFFF DUP3 GT OR PUSH2 0x1890 JUMPI PUSH1 0x40 MSTORE JUMP JUMPDEST SWAP1 PUSH1 0x1F DUP1 NOT SWAP2 ADD AND DUP2 ADD SWAP1 DUP2 LT PUSH8 0xFFFFFFFFFFFFFFFF DUP3 GT OR PUSH2 0x1890 JUMPI PUSH1 0x40 MSTORE JUMP JUMPDEST DUP2 DUP2 MUL SWAP3 SWAP2 DUP2 ISZERO SWAP2 DUP5 DIV EQ OR ISZERO PUSH2 0x18F7 JUMPI JUMP JUMPDEST PUSH4 0x4E487B71 PUSH1 0xE0 SHL PUSH1 0x0 MSTORE PUSH1 0x11 PUSH1 0x4 MSTORE PUSH1 0x24 PUSH1 0x0 REVERT JUMPDEST DUP2 ISZERO PUSH2 0x1917 JUMPI DIV SWAP1 JUMP JUMPDEST PUSH4 0x4E487B71 PUSH1 0xE0 SHL PUSH1 0x0 MSTORE PUSH1 0x12 PUSH1 0x4 MSTORE PUSH1 0x24 PUSH1 0x0 REVERT JUMPDEST SWAP2 SWAP1 DUP3 SUB SWAP2 DUP3 GT PUSH2 0x18F7 JUMPI JUMP JUMPDEST SWAP2 SWAP1 DUP3 ADD DUP1 SWAP3 GT PUSH2 0x18F7 JUMPI JUMP JUMPDEST PUSH1 0x0 NOT DUP2 EQ PUSH2 0x18F7 JUMPI PUSH1 0x1 ADD SWAP1 JUMP JUMPDEST SWAP1 DUP2 PUSH1 0x20 SWAP2 SUB SLT PUSH2 0x5FA JUMPI MLOAD DUP1 ISZERO ISZERO DUP2 SUB PUSH2 0x5FA JUMPI SWAP1 JUMP JUMPDEST PUSH1 0xFF PUSH1 0x2 SLOAD AND PUSH2 0x197A JUMPI JUMP JUMPDEST PUSH1 0x40 MLOAD PUSH4 0xD93C0665 PUSH1 0xE0 SHL DUP2 MSTORE PUSH1 0x4 SWAP1 REVERT JUMPDEST PUSH1 0x2 PUSH1 0x1 SLOAD EQ PUSH2 0x199D JUMPI PUSH1 0x2 PUSH1 0x1 SSTORE JUMP JUMPDEST PUSH1 0x40 MLOAD PUSH4 0x3EE5AEB5 PUSH1 0xE0 SHL DUP2 MSTORE PUSH1 0x4 SWAP1 REVERT JUMPDEST PUSH8 0xFFFFFFFFFFFFFFFF DUP2 GT PUSH2 0x1890 JUMPI PUSH1 0x5 SHL PUSH1 0x20 ADD SWAP1 JUMP JUMPDEST SWAP1 PUSH2 0x19D1 DUP3 PUSH2 0x19AF JUMP JUMPDEST PUSH2 0x19DE PUSH1 0x40 MLOAD SWAP2 DUP3 PUSH2 0x18C2 JUMP JUMPDEST DUP3 DUP2 MSTORE DUP1 SWAP3 PUSH2 0x19EF PUSH1 0x1F NOT SWAP2 PUSH2 0x19AF JUMP JUMPDEST ADD SWAP1 PUSH1 0x20 CALLDATASIZE SWAP2 ADD CALLDATACOPY JUMP JUMPDEST DUP1 MLOAD DUP3 LT ISZERO PUSH2 0x1A0D JUMPI PUSH1 0x20 SWAP2 PUSH1 0x5 SHL ADD ADD SWAP1 JUMP JUMPDEST PUSH4 0x4E487B71 PUSH1 0xE0 SHL PUSH1 0x0 MSTORE PUSH1 0x32 PUSH1 0x4 MSTORE PUSH1 0x24 PUSH1 0x0 REVERT JUMPDEST PUSH1 0x0 DUP1 DUP2 SWAP3 DUP3 MSTORE PUSH1 0x20 SWAP1 PUSH1 0xD DUP3 MSTORE PUSH1 0x1 DUP1 PUSH1 0xA0 SHL SUB SWAP1 PUSH1 0x40 SWAP5 DUP3 DUP7 DUP7 KECCAK256 SLOAD AND SWAP7 DUP8 ISZERO PUSH2 0x1B79 JUMPI DUP4 DUP9 AND DUP7 MSTORE PUSH1 0xF DUP6 MSTORE DUP7 DUP7 KECCAK256 DUP8 MLOAD PUSH2 0x1A60 DUP2 PUSH2 0x18A6 JUMP JUMPDEST DUP2 SLOAD SWAP1 DUP2 DUP2 MSTORE DUP10 PUSH1 0x2 PUSH1 0x1 DUP6 ADD SLOAD SWAP5 DUP6 DUP12 DUP6 ADD MSTORE ADD SLOAD SWAP2 ADD MSTORE SWAP8 DUP2 SWAP8 PUSH2 0x1A85 DUP12 PUSH2 0x1C67 JUMP JUMPDEST SWAP8 PUSH2 0x1A8F DUP13 PUSH2 0x1D83 JUMP JUMPDEST SWAP8 DUP10 ISZERO ISZERO DUP1 PUSH2 0x1B6E JUMPI JUMPDEST PUSH2 0x1AA5 JUMPI JUMPDEST POP POP POP POP POP JUMP JUMPDEST DUP4 DUP3 SWAP4 SWAP5 SWAP7 SWAP9 POP PUSH1 0x4 SWAP6 SWAP8 POP MLOAD SWAP5 DUP6 DUP1 SWAP3 PUSH4 0x4C6AFEE5 PUSH1 0xE1 SHL DUP3 MSTORE PUSH32 0x0 AND GAS STATICCALL SWAP4 DUP5 ISZERO PUSH2 0x1B63 JUMPI POP DUP2 SWAP4 PUSH2 0x1B27 JUMPI JUMPDEST POP POP POP PUSH8 0xDE0B6B3A7640000 PUSH2 0x1B0E PUSH2 0x1B18 SWAP3 PUSH1 0x64 SWAP5 PUSH2 0x18E4 JUMP JUMPDEST DIV PUSH1 0x7 SLOAD SWAP1 PUSH2 0x18E4 JUMP JUMPDEST DIV SWAP1 PUSH1 0x1 SWAP1 CODESIZE DUP1 DUP1 DUP1 DUP1 PUSH2 0x1A9E JUMP JUMPDEST SWAP1 SWAP2 DUP1 SWAP4 POP DUP2 RETURNDATASIZE DUP4 GT PUSH2 0x1B5C JUMPI JUMPDEST PUSH2 0x1B3F DUP2 DUP4 PUSH2 0x18C2 JUMP JUMPDEST DUP2 ADD SUB SLT PUSH2 0x312 JUMPI POP MLOAD PUSH8 0xDE0B6B3A7640000 PUSH2 0x1B0E PUSH1 0x64 PUSH2 0x1AF3 JUMP JUMPDEST POP RETURNDATASIZE PUSH2 0x1B35 JUMP JUMPDEST MLOAD SWAP2 RETURNDATASIZE SWAP2 POP DUP3 RETURNDATACOPY RETURNDATASIZE SWAP1 REVERT JUMPDEST POP PUSH1 0x6 SLOAD DUP11 LT PUSH2 0x1A99 JUMP JUMPDEST SWAP7 POP POP POP POP POP DUP1 SWAP2 POP SWAP2 DUP2 DUP1 SWAP2 DUP2 DUP1 SWAP2 DUP2 SWAP1 JUMP JUMPDEST PUSH1 0x11 SLOAD DUP1 ISZERO PUSH2 0x1C61 JUMPI PUSH1 0x40 MLOAD PUSH4 0x4C6AFEE5 PUSH1 0xE1 SHL DUP2 MSTORE PUSH1 0x20 DUP2 PUSH1 0x4 DUP2 PUSH32 0x0 PUSH1 0x1 PUSH1 0x1 PUSH1 0xA0 SHL SUB AND GAS STATICCALL SWAP1 DUP2 ISZERO PUSH2 0x1C55 JUMPI PUSH1 0x0 SWAP2 PUSH2 0x1C1C JUMPI JUMPDEST POP PUSH2 0x1BF8 SWAP1 PUSH8 0xDE0B6B3A7640000 SWAP3 PUSH2 0x18E4 JUMP JUMPDEST DIV PUSH1 0x10 SLOAD SWAP1 PUSH1 0x64 DUP3 MUL SWAP2 DUP1 DUP4 DIV PUSH1 0x64 EQ SWAP1 ISZERO OR ISZERO PUSH2 0x18F7 JUMPI PUSH2 0x1C19 SWAP2 PUSH2 0x190D JUMP JUMPDEST SWAP1 JUMP JUMPDEST SWAP1 PUSH1 0x20 DUP3 RETURNDATASIZE DUP3 GT PUSH2 0x1C4D JUMPI JUMPDEST DUP2 PUSH2 0x1C35 PUSH1 0x20 SWAP4 DUP4 PUSH2 0x18C2 JUMP JUMPDEST DUP2 ADD SUB SLT PUSH2 0x312 JUMPI POP MLOAD PUSH8 0xDE0B6B3A7640000 PUSH2 0x1BE4 JUMP JUMPDEST RETURNDATASIZE SWAP2 POP PUSH2 0x1C28 JUMP JUMPDEST PUSH1 0x40 MLOAD RETURNDATASIZE PUSH1 0x0 DUP3 RETURNDATACOPY RETURNDATASIZE SWAP1 REVERT JUMPDEST POP PUSH1 0x0 SWAP1 JUMP JUMPDEST SWAP1 PUSH1 0x1 DUP1 PUSH1 0xA0 SHL SUB DUP1 PUSH1 0x0 SWAP4 AND DUP4 MSTORE PUSH1 0x20 PUSH1 0xF DUP2 MSTORE PUSH1 0x40 DUP5 KECCAK256 SWAP1 PUSH1 0x40 MLOAD SWAP3 PUSH2 0x1C8E DUP5 PUSH2 0x18A6 JUMP JUMPDEST DUP3 SLOAD DUP5 MSTORE PUSH1 0x1 DUP4 ADD SLOAD PUSH1 0x2 DUP4 DUP7 ADD SWAP5 DUP3 DUP7 MSTORE ADD SLOAD PUSH1 0x40 DUP7 ADD MSTORE ISZERO PUSH2 0x1D7D JUMPI DUP2 PUSH1 0x4 SWAP2 PUSH1 0x40 MLOAD SWAP3 DUP4 DUP1 SWAP3 PUSH4 0x4C6AFEE5 PUSH1 0xE1 SHL DUP3 MSTORE PUSH32 0x0 AND GAS STATICCALL SWAP2 DUP3 ISZERO PUSH2 0x1D72 JUMPI DUP7 SWAP3 PUSH2 0x1D3E JUMPI JUMPDEST POP POP PUSH2 0x1D09 SWAP1 PUSH8 0xDE0B6B3A7640000 SWAP3 MLOAD PUSH2 0x18E4 JUMP JUMPDEST DIV SWAP1 MLOAD PUSH1 0x64 DUP2 MUL SWAP1 DUP1 DUP3 DIV PUSH1 0x64 EQ SWAP1 ISZERO OR ISZERO PUSH2 0x1D2A JUMPI PUSH2 0x1C19 SWAP3 SWAP4 POP PUSH2 0x190D JUMP JUMPDEST PUSH4 0x4E487B71 PUSH1 0xE0 SHL DUP5 MSTORE PUSH1 0x11 PUSH1 0x4 MSTORE PUSH1 0x24 DUP5 REVERT JUMPDEST SWAP1 DUP1 SWAP3 POP DUP2 RETURNDATASIZE DUP4 GT PUSH2 0x1D6B JUMPI JUMPDEST PUSH2 0x1D55 DUP2 DUP4 PUSH2 0x18C2 JUMP JUMPDEST DUP2 ADD SUB SLT PUSH2 0x1D67 JUMPI MLOAD DUP2 PUSH2 0x1D09 PUSH2 0x1CF3 JUMP JUMPDEST DUP5 DUP1 REVERT JUMPDEST POP RETURNDATASIZE PUSH2 0x1D4B JUMP JUMPDEST PUSH1 0x40 MLOAD RETURNDATASIZE DUP9 DUP3 RETURNDATACOPY RETURNDATASIZE SWAP1 REVERT JUMPDEST POP POP POP POP JUMP JUMPDEST PUSH1 0x1 PUSH1 0x1 PUSH1 0xA0 SHL SUB AND PUSH1 0x0 SWAP1 DUP2 MSTORE PUSH1 0xF PUSH1 0x20 MSTORE PUSH1 0x40 DUP1 DUP3 KECCAK256 SWAP1 MLOAD SWAP2 PUSH2 0x1DA7 DUP4 PUSH2 0x18A6 JUMP JUMPDEST DUP2 SLOAD SWAP3 DUP4 DUP2 MSTORE PUSH1 0x1 DUP4 ADD SLOAD SWAP1 PUSH1 0x40 PUSH1 0x2 PUSH1 0x20 DUP4 ADD SWAP6 DUP5 DUP8 MSTORE ADD SLOAD SWAP2 ADD MSTORE ISZERO PUSH2 0x1E3E JUMPI PUSH1 0x64 DUP4 MUL SWAP3 DUP1 DUP5 DIV PUSH1 0x64 EQ DUP2 ISZERO OR ISZERO PUSH2 0x1E2A JUMPI PUSH9 0x56BC75E2D63100000 MUL SWAP3 DUP1 DUP5 DIV PUSH8 0xDE0B6B3A7640000 EQ SWAP1 ISZERO OR ISZERO PUSH2 0x1E16 JUMPI POP SWAP1 PUSH2 0x1E10 PUSH2 0x1C19 SWAP3 MLOAD PUSH1 0x6 SLOAD SWAP1 PUSH2 0x18E4 JUMP JUMPDEST SWAP1 PUSH2 0x190D JUMP JUMPDEST PUSH4 0x4E487B71 PUSH1 0xE0 SHL DUP2 MSTORE PUSH1 0x11 PUSH1 0x4 MSTORE PUSH1 0x24 SWAP1 REVERT JUMPDEST PUSH4 0x4E487B71 PUSH1 0xE0 SHL DUP3 MSTORE PUSH1 0x11 PUSH1 0x4 MSTORE PUSH1 0x24 DUP3 REVERT JUMPDEST SWAP2 POP POP SWAP1 JUMP JUMPDEST PUSH1 0x1 PUSH1 0x1 PUSH1 0xA0 SHL SUB DUP2 AND PUSH1 0x0 SWAP1 DUP2 MSTORE PUSH1 0xC PUSH1 0x20 MSTORE PUSH1 0x40 SWAP1 KECCAK256 SLOAD SWAP1 DUP2 PUSH2 0x1E67 JUMPI POP POP JUMP JUMPDEST PUSH1 0x20 PUSH2 0x1E93 PUSH32 0x4BF48F4A07B20309FA7BD58D04C1AA538E17A29099BEBB19872D1A54E8E1C4EA SWAP3 PUSH2 0x1D83 JUMP JUMPDEST PUSH1 0x40 MLOAD SWAP1 DUP2 MSTORE LOG2 JUMP JUMPDEST CALLER PUSH1 0x0 SWAP1 DUP2 MSTORE PUSH32 0x6F3B488CAA0DC03E5F3D9FD6A25FA8755AFCFD62CCFFB6E436C696BFA6B866DE PUSH1 0x20 MSTORE PUSH1 0x40 SWAP1 KECCAK256 SLOAD PUSH32 0x7935BD0AE54BC31F548C14DBA4D37C5C64B3F8CA900CB468FB8ABD54D5894F55 SWAP1 PUSH1 0xFF AND ISZERO PUSH2 0x1EF8 JUMPI POP JUMP JUMPDEST PUSH1 0x44 SWAP1 PUSH1 0x40 MLOAD SWAP1 PUSH4 0xE2517D3F PUSH1 0xE0 SHL DUP3 MSTORE CALLER PUSH1 0x4 DUP4 ADD MSTORE PUSH1 0x24 DUP3 ADD MSTORE REVERT JUMPDEST CALLER PUSH1 0x0 SWAP1 DUP2 MSTORE PUSH32 0xF7C9542C591017A21C74B6F3FAB6263C7952FC0AAF9DB4C22A2A04DDC7F8674F PUSH1 0x20 MSTORE PUSH1 0x40 SWAP1 KECCAK256 SLOAD PUSH32 0x65D7A28E3265B37A6474929F336521B332C1681B933F6CB9F3376673440D862A SWAP1 PUSH1 0xFF AND ISZERO PUSH2 0x1EF8 JUMPI POP JUMP JUMPDEST DUP1 PUSH1 0x0 MSTORE PUSH1 0x0 PUSH1 0x20 MSTORE PUSH1 0x40 PUSH1 0x0 KECCAK256 CALLER PUSH1 0x0 MSTORE PUSH1 0x20 MSTORE PUSH1 0xFF PUSH1 0x40 PUSH1 0x0 KECCAK256 SLOAD AND ISZERO PUSH2 0x1EF8 JUMPI POP JUMP JUMPDEST SWAP1 PUSH1 0x0 SWAP2 DUP1 DUP4 MSTORE DUP3 PUSH1 0x20 MSTORE PUSH1 0x40 DUP4 KECCAK256 SWAP2 PUSH1 0x1 DUP1 PUSH1 0xA0 SHL SUB AND SWAP2 DUP3 DUP5 MSTORE PUSH1 0x20 MSTORE PUSH1 0xFF PUSH1 0x40 DUP5 KECCAK256 SLOAD AND ISZERO PUSH1 0x0 EQ PUSH2 0x1877 JUMPI DUP1 DUP4 MSTORE DUP3 PUSH1 0x20 MSTORE PUSH1 0x40 DUP4 KECCAK256 DUP3 DUP5 MSTORE PUSH1 0x20 MSTORE PUSH1 0x40 DUP4 KECCAK256 PUSH1 0x1 PUSH1 0xFF NOT DUP3 SLOAD AND OR SWAP1 SSTORE PUSH32 0x2F8788117E7EFF1D82E926EC794901D17C78024A50270940304540A733656F0D CALLER SWAP4 DUP1 LOG4 PUSH1 0x1 SWAP1 JUMP INVALID LOG2 PUSH5 0x6970667358 0x22 SLT KECCAK256 PUSH7 0x48ECC0282643D6 0xAB SWAP10 SAR 0xED DUP14 CALLCODE CREATE 0xDF 0xDE EXP 0x26 0xE3 0xEC PUSH21 0xFE8AB1C1A2B651536E4C64736F6C63430008150033 0x2F DUP8 DUP9 GT PUSH31 0x7EFF1D82E926EC794901D17C78024A50270940304540A733656F0DAD3228B6 PUSH23 0xF7D3CD4284A5443F17F1962B36E491B30A40B2405849E5 SWAP8 0xBA PUSH0 0xB5 "},"methodIdentifiers":{"DEFAULT_ADMIN_ROLE()":"a217fddf","GOVERNOR_ROLE()":"ccc57490","LIQUIDATOR_ROLE()":"16d8887a","PAUSER_ROLE()":"e63ab1e9","evix()":"10567b8a","getCollateralRatio()":"cd377c53","getLiquidationDetails(uint256)":"f31916ab","getLiquidationPrice(address)":"17d8de82","getRoleAdmin(bytes32)":"248a9ca3","getUserCollateralRatio(address)":"10b45de1","getVaultsBelowThreshold()":"730e7b47","grantRole(bytes32,address)":"2f2ff15d","hasRole(bytes32,address)":"91d14854","liquidatableVaults(uint256)":"f9b1d89b","liquidate(address,uint256)":"bcbaf487","liquidationBonus()":"7b7c1f4c","liquidationGracePeriod()":"16a6c4c5","liquidationThreshold()":"4031234c","maxLiquidationDiscount()":"4f7e43df","minCollateralRatio()":"84da2666","mintFee()":"13966db5","mintWithCollateralRatio(uint256,uint256)":"6008d28b","nextVaultId()":"12ac1763","oracle()":"7dc0d1d0","pause()":"8456cb59","paused()":"5c975abb","permissionlessLiquidation()":"0f852f87","positions(address)":"55f57510","redeem(uint256)":"db006a75","redeemFee()":"965fa21e","renounceRole(bytes32,address)":"36568abe","revokeRole(bytes32,address)":"d547741f","setFees(uint256,uint256)":"0b78f9c0","setLiquidationGracePeriod(uint256)":"6b58359e","setLiquidationParams(uint256,uint256)":"c6e7275d","setMinCollateralRatio(uint256)":"38536275","setPermissionlessLiquidation(bool)":"45948c31","supportsInterface(bytes4)":"01ffc9a7","sweepTokens(address,address,uint256)":"8b6ca32c","totalCollateral()":"4ac8eb5f","totalDebt()":"fc7b9c18","unpause()":"3f4ba83a","usdc()":"3e413bee","userVaultId(address)":"fa225cb9","vaultOwner(uint256)":"3c2ecfe5"}}}}}