{"contracts/EVIXMintRedeem.sol":{"EVIXMintRedeem":{"abi":[{"inputs":[{"internalType":"address","name":"_usdc","type":"address"},{"internalType":"address","name":"_evix","type":"address"},{"internalType":"address","name":"_oracle","type":"address"},{"internalType":"address","name":"initialOwner","type":"address"}],"stateMutability":"nonpayable","type":"constructor"},{"inputs":[{"internalType":"address","name":"owner","type":"address"}],"name":"OwnableInvalidOwner","type":"error"},{"inputs":[{"internalType":"address","name":"account","type":"address"}],"name":"OwnableUnauthorizedAccount","type":"error"},{"anonymous":false,"inputs":[{"indexed":true,"internalType":"address","name":"user","type":"address"},{"indexed":false,"internalType":"uint256","name":"usdcAmount","type":"uint256"},{"indexed":false,"internalType":"uint256","name":"evixAmount","type":"uint256"}],"name":"Mint","type":"event"},{"anonymous":false,"inputs":[{"indexed":true,"internalType":"address","name":"previousOwner","type":"address"},{"indexed":true,"internalType":"address","name":"newOwner","type":"address"}],"name":"OwnershipTransferred","type":"event"},{"anonymous":false,"inputs":[{"indexed":true,"internalType":"address","name":"user","type":"address"},{"indexed":false,"internalType":"uint256","name":"evixAmount","type":"uint256"},{"indexed":false,"internalType":"uint256","name":"usdcAmount","type":"uint256"}],"name":"Redeem","type":"event"},{"inputs":[],"name":"BASIS_POINTS","outputs":[{"internalType":"uint256","name":"","type":"uint256"}],"stateMutability":"view","type":"function"},{"inputs":[],"name":"REDEEM_FEE_BPS","outputs":[{"internalType":"uint256","name":"","type":"uint256"}],"stateMutability":"view","type":"function"},{"inputs":[],"name":"evix","outputs":[{"internalType":"contract EVIXToken","name":"","type":"address"}],"stateMutability":"view","type":"function"},{"inputs":[{"internalType":"uint256","name":"usdcAmount","type":"uint256"}],"name":"mint","outputs":[],"stateMutability":"nonpayable","type":"function"},{"inputs":[],"name":"oracle","outputs":[{"internalType":"contract IOracle","name":"","type":"address"}],"stateMutability":"view","type":"function"},{"inputs":[],"name":"owner","outputs":[{"internalType":"address","name":"","type":"address"}],"stateMutability":"view","type":"function"},{"inputs":[{"internalType":"uint256","name":"evixAmount","type":"uint256"}],"name":"redeem","outputs":[],"stateMutability":"nonpayable","type":"function"},{"inputs":[],"name":"renounceOwnership","outputs":[],"stateMutability":"nonpayable","type":"function"},{"inputs":[{"internalType":"address","name":"_oracle","type":"address"}],"name":"setOracle","outputs":[],"stateMutability":"nonpayable","type":"function"},{"inputs":[{"internalType":"address","name":"newOwner","type":"address"}],"name":"transferOwnership","outputs":[],"stateMutability":"nonpayable","type":"function"},{"inputs":[],"name":"usdc","outputs":[{"internalType":"contract IERC20","name":"","type":"address"}],"stateMutability":"view","type":"function"},{"inputs":[],"name":"withdrawFees","outputs":[],"stateMutability":"nonpayable","type":"function"}],"evm":{"bytecode":{"linkReferences":{},"object":"60c03461013457601f610bbf38819003918201601f19168301916001600160401b0383118484101761013957808492608094604052833981010312610134576100478161014f565b9060606100566020830161014f565b916100636040820161014f565b6001600160a01b03929091839161007a910161014f565b1692831561011b57600080546001600160a01b03198082168717835560405197909686949385938416907f8be0079c531659141344cd1fd0a4f28419497f9722a3daafe3b4186f6b6457e09080a3166080521660a05216906001541617600155610a5b908161016482396080518181816102960152818161048801528181610741015261084f015260a05181818161020a015281816104c401526108ae0152f35b604051631e4fbdf760e01b815260006004820152602490fd5b600080fd5b634e487b7160e01b600052604160045260246000fd5b51906001600160a01b03821682036101345756fe608060408181526004908136101561001657600080fd5b600092833560e01c90816310567b8a1461089a5750806338fd6bdb1461087e5780633e413bee1461083a578063476343ee14610705578063715018a6146106a85780637adbf9731461065f5780637dc0d1d0146106365780638da5cb5b1461060e578063a0712d68146103d7578063db006a7514610163578063e1f1c4a7146101425763f2fde38b146100a857600080fd5b3461013e57602036600319011261013e576001600160a01b0382358181169391929084900361013a576100d96108dd565b8315610124575050600054826bffffffffffffffffffffffff60a01b821617600055167f8be0079c531659141344cd1fd0a4f28419497f9722a3daafe3b4186f6b6457e0600080a380f35b51631e4fbdf760e01b8152908101849052602490fd5b8480fd5b8280fd5b83823461015f578160031936011261015f57602090516127108152f35b5080fd5b503461013e57602090816003193601126103d3578235918215906101878215610909565b6001548351634c6afee560e11b81526001600160a01b03939091839083908990829088165afa9182156103c9578892610395575b506101c788831361098e565b81860291868304141715610380576c0c9f2c9cd04674edea40000000900491601e8302838104601e148415171561036d576127109004830392831161035a5786817f000000000000000000000000000000000000000000000000000000000000000016803b1561015f578551632770a7eb60e21b815233818a01908152602081018990529091839183919082908490829060400103925af1801561035057610338575b50845163a9059cbb60e01b815233978101978852602088018590529683928892918390036040019183917f0000000000000000000000000000000000000000000000000000000000000000165af194851561032e577fe5b754fb1abb7f01b499791d0b820ae3b6af3424ac1c59768edb53f4ec31a92994956102f3918891610301575b506109e2565b82519485528401523392a280f35b6103219150833d8511610327575b610319818361096c565b8101906109ca565b386102ed565b503d61030f565b83513d88823e3d90fd5b61034190610942565b61034c57863861026a565b8680fd5b86513d84823e3d90fd5b634e487b7160e01b875260118652602487fd5b634e487b7160e01b885260118752602488fd5b601186634e487b7160e01b6000525260246000fd5b9091508281813d83116103c2575b6103ad818361096c565b810103126103bd575190386101bb565b600080fd5b503d6103a3565b85513d8a823e3d90fd5b8380fd5b5091903461015f576020928360031936011261013e578135918215906103fd8215610909565b6001548351634c6afee560e11b81526001600160a01b03939091889083908590829088165afa9182156105af5787926105df575b5061043d87831361098e565b6c0c9f2c9cd04674edea4000000090818702918783041417156105cc5781156105b957049183516323b872dd60e01b8152338382015230602482015285604482015287816064818a867f0000000000000000000000000000000000000000000000000000000000000000165af19081156105af57906104c291889161059857506109e2565b7f00000000000000000000000000000000000000000000000000000000000000001690813b156105945783516340c10f1960e01b8152339181019182526020820184905291869183919082908490829060400103925af1801561058a57610557575b507f4c209b5fc8ad50758f13e2e1088ba56a560dff690a1c6fef26394f4c03821c4f92939482519485528401523392a280f35b936105837f4c209b5fc8ad50758f13e2e1088ba56a560dff690a1c6fef26394f4c03821c4f9495610942565b9392610524565b83513d87823e3d90fd5b8580fd5b6103219150893d8b1161032757610319818361096c565b85513d89823e3d90fd5b634e487b7160e01b875260128352602487fd5b634e487b7160e01b875260118352602487fd5b9091508781813d8311610607575b6105f7818361096c565b8101031261034c57519038610431565b503d6105ed565b83823461015f578160031936011261015f57905490516001600160a01b039091168152602090f35b83823461015f578160031936011261015f5760015490516001600160a01b039091168152602090f35b50503461015f57602036600319011261015f57356001600160a01b0381169081900361015f5761068d6108dd565b6bffffffffffffffffffffffff60a01b600154161760015580f35b83346107025780600319360112610702576106c16108dd565b80546001600160a01b03198116825581906001600160a01b03167f8be0079c531659141344cd1fd0a4f28419497f9722a3daafe3b4186f6b6457e08280a380f35b80fd5b50903461013e578260031936011261013e5761071f6108dd565b81516370a0823160e01b815230828201526020918491906001600160a01b03907f00000000000000000000000000000000000000000000000000000000000000008216908584602481855afa92831561083057869486946107fb575b508554885163a9059cbb60e01b815291166001600160a01b031691810191825260208201939093529193849283919082906040015b03925af19182156107ee576107ce935084926107d1575b50506109e2565b80f35b6107e79250803d1061032757610319818361096c565b38806107c7565b50505051903d90823e3d90fd5b8581969295503d8311610829575b610813818361096c565b8101031261013a579251859390926107b061077b565b503d610809565b87513d87823e3d90fd5b83823461015f578160031936011261015f57517f00000000000000000000000000000000000000000000000000000000000000006001600160a01b03168152602090f35b83823461015f578160031936011261015f5760209051601e8152f35b84903461015f578160031936011261015f577f00000000000000000000000000000000000000000000000000000000000000006001600160a01b03168152602090f35b6000546001600160a01b031633036108f157565b60405163118cdaa760e01b8152336004820152602490fd5b1561091057565b60405162461bcd60e51b815260206004820152600a6024820152690616d6f756e74203d20360b41b6044820152606490fd5b67ffffffffffffffff811161095657604052565b634e487b7160e01b600052604160045260246000fd5b90601f8019910116810190811067ffffffffffffffff82111761095657604052565b1561099557565b60405162461bcd60e51b815260206004820152600d60248201526c696e76616c696420707269636560981b6044820152606490fd5b908160209103126103bd575180151581036103bd5790565b156109e957565b60405162461bcd60e51b81526020600482015260146024820152731554d110c81d1c985b9cd9995c8819985a5b195960621b6044820152606490fdfea2646970667358221220a47856feb6263fc60d0a3166508714e556b3afe6e5a77f0ff2da2a6b8799d67064736f6c63430008150033","opcodes":"PUSH1 0xC0 CALLVALUE PUSH2 0x134 JUMPI PUSH1 0x1F PUSH2 0xBBF CODESIZE DUP2 SWAP1 SUB SWAP2 DUP3 ADD PUSH1 0x1F NOT AND DUP4 ADD SWAP2 PUSH1 0x1 PUSH1 0x1 PUSH1 0x40 SHL SUB DUP4 GT DUP5 DUP5 LT OR PUSH2 0x139 JUMPI DUP1 DUP5 SWAP3 PUSH1 0x80 SWAP5 PUSH1 0x40 MSTORE DUP4 CODECOPY DUP2 ADD SUB SLT PUSH2 0x134 JUMPI PUSH2 0x47 DUP2 PUSH2 0x14F JUMP JUMPDEST SWAP1 PUSH1 0x60 PUSH2 0x56 PUSH1 0x20 DUP4 ADD PUSH2 0x14F JUMP JUMPDEST SWAP2 PUSH2 0x63 PUSH1 0x40 DUP3 ADD PUSH2 0x14F JUMP JUMPDEST PUSH1 0x1 PUSH1 0x1 PUSH1 0xA0 SHL SUB SWAP3 SWAP1 SWAP2 DUP4 SWAP2 PUSH2 0x7A SWAP2 ADD PUSH2 0x14F JUMP JUMPDEST AND SWAP3 DUP4 ISZERO PUSH2 0x11B JUMPI PUSH1 0x0 DUP1 SLOAD PUSH1 0x1 PUSH1 0x1 PUSH1 0xA0 SHL SUB NOT DUP1 DUP3 AND DUP8 OR DUP4 SSTORE PUSH1 0x40 MLOAD SWAP8 SWAP1 SWAP7 DUP7 SWAP5 SWAP4 DUP6 SWAP4 DUP5 AND SWAP1 PUSH32 0x8BE0079C531659141344CD1FD0A4F28419497F9722A3DAAFE3B4186F6B6457E0 SWAP1 DUP1 LOG3 AND PUSH1 0x80 MSTORE AND PUSH1 0xA0 MSTORE AND SWAP1 PUSH1 0x1 SLOAD AND OR PUSH1 0x1 SSTORE PUSH2 0xA5B SWAP1 DUP2 PUSH2 0x164 DUP3 CODECOPY PUSH1 0x80 MLOAD DUP2 DUP2 DUP2 PUSH2 0x296 ADD MSTORE DUP2 DUP2 PUSH2 0x488 ADD MSTORE DUP2 DUP2 PUSH2 0x741 ADD MSTORE PUSH2 0x84F ADD MSTORE PUSH1 0xA0 MLOAD DUP2 DUP2 DUP2 PUSH2 0x20A ADD MSTORE DUP2 DUP2 PUSH2 0x4C4 ADD MSTORE PUSH2 0x8AE ADD MSTORE RETURN JUMPDEST PUSH1 0x40 MLOAD PUSH4 0x1E4FBDF7 PUSH1 0xE0 SHL DUP2 MSTORE PUSH1 0x0 PUSH1 0x4 DUP3 ADD MSTORE PUSH1 0x24 SWAP1 REVERT JUMPDEST PUSH1 0x0 DUP1 REVERT JUMPDEST PUSH4 0x4E487B71 PUSH1 0xE0 SHL PUSH1 0x0 MSTORE PUSH1 0x41 PUSH1 0x4 MSTORE PUSH1 0x24 PUSH1 0x0 REVERT JUMPDEST MLOAD SWAP1 PUSH1 0x1 PUSH1 0x1 PUSH1 0xA0 SHL SUB DUP3 AND DUP3 SUB PUSH2 0x134 JUMPI JUMP INVALID PUSH1 0x80 PUSH1 0x40 DUP2 DUP2 MSTORE PUSH1 0x4 SWAP1 DUP2 CALLDATASIZE LT ISZERO PUSH2 0x16 JUMPI PUSH1 0x0 DUP1 REVERT JUMPDEST PUSH1 0x0 SWAP3 DUP4 CALLDATALOAD PUSH1 0xE0 SHR SWAP1 DUP2 PUSH4 0x10567B8A EQ PUSH2 0x89A JUMPI POP DUP1 PUSH4 0x38FD6BDB EQ PUSH2 0x87E JUMPI DUP1 PUSH4 0x3E413BEE EQ PUSH2 0x83A JUMPI DUP1 PUSH4 0x476343EE EQ PUSH2 0x705 JUMPI DUP1 PUSH4 0x715018A6 EQ PUSH2 0x6A8 JUMPI DUP1 PUSH4 0x7ADBF973 EQ PUSH2 0x65F JUMPI DUP1 PUSH4 0x7DC0D1D0 EQ PUSH2 0x636 JUMPI DUP1 PUSH4 0x8DA5CB5B EQ PUSH2 0x60E JUMPI DUP1 PUSH4 0xA0712D68 EQ PUSH2 0x3D7 JUMPI DUP1 PUSH4 0xDB006A75 EQ PUSH2 0x163 JUMPI DUP1 PUSH4 0xE1F1C4A7 EQ PUSH2 0x142 JUMPI PUSH4 0xF2FDE38B EQ PUSH2 0xA8 JUMPI PUSH1 0x0 DUP1 REVERT JUMPDEST CALLVALUE PUSH2 0x13E JUMPI PUSH1 0x20 CALLDATASIZE PUSH1 0x3 NOT ADD SLT PUSH2 0x13E JUMPI PUSH1 0x1 PUSH1 0x1 PUSH1 0xA0 SHL SUB DUP3 CALLDATALOAD DUP2 DUP2 AND SWAP4 SWAP2 SWAP3 SWAP1 DUP5 SWAP1 SUB PUSH2 0x13A JUMPI PUSH2 0xD9 PUSH2 0x8DD JUMP JUMPDEST DUP4 ISZERO PUSH2 0x124 JUMPI POP POP PUSH1 0x0 SLOAD DUP3 PUSH12 0xFFFFFFFFFFFFFFFFFFFFFFFF PUSH1 0xA0 SHL DUP3 AND OR PUSH1 0x0 SSTORE AND PUSH32 0x8BE0079C531659141344CD1FD0A4F28419497F9722A3DAAFE3B4186F6B6457E0 PUSH1 0x0 DUP1 LOG3 DUP1 RETURN JUMPDEST MLOAD PUSH4 0x1E4FBDF7 PUSH1 0xE0 SHL DUP2 MSTORE SWAP1 DUP2 ADD DUP5 SWAP1 MSTORE PUSH1 0x24 SWAP1 REVERT JUMPDEST DUP5 DUP1 REVERT JUMPDEST DUP3 DUP1 REVERT JUMPDEST DUP4 DUP3 CALLVALUE PUSH2 0x15F JUMPI DUP2 PUSH1 0x3 NOT CALLDATASIZE ADD SLT PUSH2 0x15F JUMPI PUSH1 0x20 SWAP1 MLOAD PUSH2 0x2710 DUP2 MSTORE RETURN JUMPDEST POP DUP1 REVERT JUMPDEST POP CALLVALUE PUSH2 0x13E JUMPI PUSH1 0x20 SWAP1 DUP2 PUSH1 0x3 NOT CALLDATASIZE ADD SLT PUSH2 0x3D3 JUMPI DUP3 CALLDATALOAD SWAP2 DUP3 ISZERO SWAP1 PUSH2 0x187 DUP3 ISZERO PUSH2 0x909 JUMP JUMPDEST PUSH1 0x1 SLOAD DUP4 MLOAD PUSH4 0x4C6AFEE5 PUSH1 0xE1 SHL DUP2 MSTORE PUSH1 0x1 PUSH1 0x1 PUSH1 0xA0 SHL SUB SWAP4 SWAP1 SWAP2 DUP4 SWAP1 DUP4 SWAP1 DUP10 SWAP1 DUP3 SWAP1 DUP9 AND GAS STATICCALL SWAP2 DUP3 ISZERO PUSH2 0x3C9 JUMPI DUP9 SWAP3 PUSH2 0x395 JUMPI JUMPDEST POP PUSH2 0x1C7 DUP9 DUP4 SGT PUSH2 0x98E JUMP JUMPDEST DUP2 DUP7 MUL SWAP2 DUP7 DUP4 DIV EQ OR ISZERO PUSH2 0x380 JUMPI PUSH13 0xC9F2C9CD04674EDEA40000000 SWAP1 DIV SWAP2 PUSH1 0x1E DUP4 MUL DUP4 DUP2 DIV PUSH1 0x1E EQ DUP5 ISZERO OR ISZERO PUSH2 0x36D JUMPI PUSH2 0x2710 SWAP1 DIV DUP4 SUB SWAP3 DUP4 GT PUSH2 0x35A JUMPI DUP7 DUP2 PUSH32 0x0 AND DUP1 EXTCODESIZE ISZERO PUSH2 0x15F JUMPI DUP6 MLOAD PUSH4 0x2770A7EB PUSH1 0xE2 SHL DUP2 MSTORE CALLER DUP2 DUP11 ADD SWAP1 DUP2 MSTORE PUSH1 0x20 DUP2 ADD DUP10 SWAP1 MSTORE SWAP1 SWAP2 DUP4 SWAP2 DUP4 SWAP2 SWAP1 DUP3 SWAP1 DUP5 SWAP1 DUP3 SWAP1 PUSH1 0x40 ADD SUB SWAP3 GAS CALL DUP1 ISZERO PUSH2 0x350 JUMPI PUSH2 0x338 JUMPI JUMPDEST POP DUP5 MLOAD PUSH4 0xA9059CBB PUSH1 0xE0 SHL DUP2 MSTORE CALLER SWAP8 DUP2 ADD SWAP8 DUP9 MSTORE PUSH1 0x20 DUP9 ADD DUP6 SWAP1 MSTORE SWAP7 DUP4 SWAP3 DUP9 SWAP3 SWAP2 DUP4 SWAP1 SUB PUSH1 0x40 ADD SWAP2 DUP4 SWAP2 PUSH32 0x0 AND GAS CALL SWAP5 DUP6 ISZERO PUSH2 0x32E JUMPI PUSH32 0xE5B754FB1ABB7F01B499791D0B820AE3B6AF3424AC1C59768EDB53F4EC31A929 SWAP5 SWAP6 PUSH2 0x2F3 SWAP2 DUP9 SWAP2 PUSH2 0x301 JUMPI JUMPDEST POP PUSH2 0x9E2 JUMP JUMPDEST DUP3 MLOAD SWAP5 DUP6 MSTORE DUP5 ADD MSTORE CALLER SWAP3 LOG2 DUP1 RETURN JUMPDEST PUSH2 0x321 SWAP2 POP DUP4 RETURNDATASIZE DUP6 GT PUSH2 0x327 JUMPI JUMPDEST PUSH2 0x319 DUP2 DUP4 PUSH2 0x96C JUMP JUMPDEST DUP2 ADD SWAP1 PUSH2 0x9CA JUMP JUMPDEST CODESIZE PUSH2 0x2ED JUMP JUMPDEST POP RETURNDATASIZE PUSH2 0x30F JUMP JUMPDEST DUP4 MLOAD RETURNDATASIZE DUP9 DUP3 RETURNDATACOPY RETURNDATASIZE SWAP1 REVERT JUMPDEST PUSH2 0x341 SWAP1 PUSH2 0x942 JUMP JUMPDEST PUSH2 0x34C JUMPI DUP7 CODESIZE PUSH2 0x26A JUMP JUMPDEST DUP7 DUP1 REVERT JUMPDEST DUP7 MLOAD RETURNDATASIZE DUP5 DUP3 RETURNDATACOPY RETURNDATASIZE SWAP1 REVERT JUMPDEST PUSH4 0x4E487B71 PUSH1 0xE0 SHL DUP8 MSTORE PUSH1 0x11 DUP7 MSTORE PUSH1 0x24 DUP8 REVERT JUMPDEST PUSH4 0x4E487B71 PUSH1 0xE0 SHL DUP9 MSTORE PUSH1 0x11 DUP8 MSTORE PUSH1 0x24 DUP9 REVERT JUMPDEST PUSH1 0x11 DUP7 PUSH4 0x4E487B71 PUSH1 0xE0 SHL PUSH1 0x0 MSTORE MSTORE PUSH1 0x24 PUSH1 0x0 REVERT JUMPDEST SWAP1 SWAP2 POP DUP3 DUP2 DUP2 RETURNDATASIZE DUP4 GT PUSH2 0x3C2 JUMPI JUMPDEST PUSH2 0x3AD DUP2 DUP4 PUSH2 0x96C JUMP JUMPDEST DUP2 ADD SUB SLT PUSH2 0x3BD JUMPI MLOAD SWAP1 CODESIZE PUSH2 0x1BB JUMP JUMPDEST PUSH1 0x0 DUP1 REVERT JUMPDEST POP RETURNDATASIZE PUSH2 0x3A3 JUMP JUMPDEST DUP6 MLOAD RETURNDATASIZE DUP11 DUP3 RETURNDATACOPY RETURNDATASIZE SWAP1 REVERT JUMPDEST DUP4 DUP1 REVERT JUMPDEST POP SWAP2 SWAP1 CALLVALUE PUSH2 0x15F JUMPI PUSH1 0x20 SWAP3 DUP4 PUSH1 0x3 NOT CALLDATASIZE ADD SLT PUSH2 0x13E JUMPI DUP2 CALLDATALOAD SWAP2 DUP3 ISZERO SWAP1 PUSH2 0x3FD DUP3 ISZERO PUSH2 0x909 JUMP JUMPDEST PUSH1 0x1 SLOAD DUP4 MLOAD PUSH4 0x4C6AFEE5 PUSH1 0xE1 SHL DUP2 MSTORE PUSH1 0x1 PUSH1 0x1 PUSH1 0xA0 SHL SUB SWAP4 SWAP1 SWAP2 DUP9 SWAP1 DUP4 SWAP1 DUP6 SWAP1 DUP3 SWAP1 DUP9 AND GAS STATICCALL SWAP2 DUP3 ISZERO PUSH2 0x5AF JUMPI DUP8 SWAP3 PUSH2 0x5DF JUMPI JUMPDEST POP PUSH2 0x43D DUP8 DUP4 SGT PUSH2 0x98E JUMP JUMPDEST PUSH13 0xC9F2C9CD04674EDEA40000000 SWAP1 DUP2 DUP8 MUL SWAP2 DUP8 DUP4 DIV EQ OR ISZERO PUSH2 0x5CC JUMPI DUP2 ISZERO PUSH2 0x5B9 JUMPI DIV SWAP2 DUP4 MLOAD PUSH4 0x23B872DD PUSH1 0xE0 SHL DUP2 MSTORE CALLER DUP4 DUP3 ADD MSTORE ADDRESS PUSH1 0x24 DUP3 ADD MSTORE DUP6 PUSH1 0x44 DUP3 ADD MSTORE DUP8 DUP2 PUSH1 0x64 DUP2 DUP11 DUP7 PUSH32 0x0 AND GAS CALL SWAP1 DUP2 ISZERO PUSH2 0x5AF JUMPI SWAP1 PUSH2 0x4C2 SWAP2 DUP9 SWAP2 PUSH2 0x598 JUMPI POP PUSH2 0x9E2 JUMP JUMPDEST PUSH32 0x0 AND SWAP1 DUP2 EXTCODESIZE ISZERO PUSH2 0x594 JUMPI DUP4 MLOAD PUSH4 0x40C10F19 PUSH1 0xE0 SHL DUP2 MSTORE CALLER SWAP2 DUP2 ADD SWAP2 DUP3 MSTORE PUSH1 0x20 DUP3 ADD DUP5 SWAP1 MSTORE SWAP2 DUP7 SWAP2 DUP4 SWAP2 SWAP1 DUP3 SWAP1 DUP5 SWAP1 DUP3 SWAP1 PUSH1 0x40 ADD SUB SWAP3 GAS CALL DUP1 ISZERO PUSH2 0x58A JUMPI PUSH2 0x557 JUMPI JUMPDEST POP PUSH32 0x4C209B5FC8AD50758F13E2E1088BA56A560DFF690A1C6FEF26394F4C03821C4F SWAP3 SWAP4 SWAP5 DUP3 MLOAD SWAP5 DUP6 MSTORE DUP5 ADD MSTORE CALLER SWAP3 LOG2 DUP1 RETURN JUMPDEST SWAP4 PUSH2 0x583 PUSH32 0x4C209B5FC8AD50758F13E2E1088BA56A560DFF690A1C6FEF26394F4C03821C4F SWAP5 SWAP6 PUSH2 0x942 JUMP JUMPDEST SWAP4 SWAP3 PUSH2 0x524 JUMP JUMPDEST DUP4 MLOAD RETURNDATASIZE DUP8 DUP3 RETURNDATACOPY RETURNDATASIZE SWAP1 REVERT JUMPDEST DUP6 DUP1 REVERT JUMPDEST PUSH2 0x321 SWAP2 POP DUP10 RETURNDATASIZE DUP12 GT PUSH2 0x327 JUMPI PUSH2 0x319 DUP2 DUP4 PUSH2 0x96C JUMP JUMPDEST DUP6 MLOAD RETURNDATASIZE DUP10 DUP3 RETURNDATACOPY RETURNDATASIZE SWAP1 REVERT JUMPDEST PUSH4 0x4E487B71 PUSH1 0xE0 SHL DUP8 MSTORE PUSH1 0x12 DUP4 MSTORE PUSH1 0x24 DUP8 REVERT JUMPDEST PUSH4 0x4E487B71 PUSH1 0xE0 SHL DUP8 MSTORE PUSH1 0x11 DUP4 MSTORE PUSH1 0x24 DUP8 REVERT JUMPDEST SWAP1 SWAP2 POP DUP8 DUP2 DUP2 RETURNDATASIZE DUP4 GT PUSH2 0x607 JUMPI JUMPDEST PUSH2 0x5F7 DUP2 DUP4 PUSH2 0x96C JUMP JUMPDEST DUP2 ADD SUB SLT PUSH2 0x34C JUMPI MLOAD SWAP1 CODESIZE PUSH2 0x431 JUMP JUMPDEST POP RETURNDATASIZE PUSH2 0x5ED JUMP JUMPDEST DUP4 DUP3 CALLVALUE PUSH2 0x15F JUMPI DUP2 PUSH1 0x3 NOT CALLDATASIZE ADD SLT PUSH2 0x15F JUMPI SWAP1 SLOAD SWAP1 MLOAD PUSH1 0x1 PUSH1 0x1 PUSH1 0xA0 SHL SUB SWAP1 SWAP2 AND DUP2 MSTORE PUSH1 0x20 SWAP1 RETURN JUMPDEST DUP4 DUP3 CALLVALUE PUSH2 0x15F JUMPI DUP2 PUSH1 0x3 NOT CALLDATASIZE ADD SLT PUSH2 0x15F JUMPI PUSH1 0x1 SLOAD SWAP1 MLOAD PUSH1 0x1 PUSH1 0x1 PUSH1 0xA0 SHL SUB SWAP1 SWAP2 AND DUP2 MSTORE PUSH1 0x20 SWAP1 RETURN JUMPDEST POP POP CALLVALUE PUSH2 0x15F JUMPI PUSH1 0x20 CALLDATASIZE PUSH1 0x3 NOT ADD SLT PUSH2 0x15F JUMPI CALLDATALOAD PUSH1 0x1 PUSH1 0x1 PUSH1 0xA0 SHL SUB DUP2 AND SWAP1 DUP2 SWAP1 SUB PUSH2 0x15F JUMPI PUSH2 0x68D PUSH2 0x8DD JUMP JUMPDEST PUSH12 0xFFFFFFFFFFFFFFFFFFFFFFFF PUSH1 0xA0 SHL PUSH1 0x1 SLOAD AND OR PUSH1 0x1 SSTORE DUP1 RETURN JUMPDEST DUP4 CALLVALUE PUSH2 0x702 JUMPI DUP1 PUSH1 0x3 NOT CALLDATASIZE ADD SLT PUSH2 0x702 JUMPI PUSH2 0x6C1 PUSH2 0x8DD JUMP JUMPDEST DUP1 SLOAD PUSH1 0x1 PUSH1 0x1 PUSH1 0xA0 SHL SUB NOT DUP2 AND DUP3 SSTORE DUP2 SWAP1 PUSH1 0x1 PUSH1 0x1 PUSH1 0xA0 SHL SUB AND PUSH32 0x8BE0079C531659141344CD1FD0A4F28419497F9722A3DAAFE3B4186F6B6457E0 DUP3 DUP1 LOG3 DUP1 RETURN JUMPDEST DUP1 REVERT JUMPDEST POP SWAP1 CALLVALUE PUSH2 0x13E JUMPI DUP3 PUSH1 0x3 NOT CALLDATASIZE ADD SLT PUSH2 0x13E JUMPI PUSH2 0x71F PUSH2 0x8DD JUMP JUMPDEST DUP2 MLOAD PUSH4 0x70A08231 PUSH1 0xE0 SHL DUP2 MSTORE ADDRESS DUP3 DUP3 ADD MSTORE PUSH1 0x20 SWAP2 DUP5 SWAP2 SWAP1 PUSH1 0x1 PUSH1 0x1 PUSH1 0xA0 SHL SUB SWAP1 PUSH32 0x0 DUP3 AND SWAP1 DUP6 DUP5 PUSH1 0x24 DUP2 DUP6 GAS STATICCALL SWAP3 DUP4 ISZERO PUSH2 0x830 JUMPI DUP7 SWAP5 DUP7 SWAP5 PUSH2 0x7FB JUMPI JUMPDEST POP DUP6 SLOAD DUP9 MLOAD PUSH4 0xA9059CBB PUSH1 0xE0 SHL DUP2 MSTORE SWAP2 AND PUSH1 0x1 PUSH1 0x1 PUSH1 0xA0 SHL SUB AND SWAP2 DUP2 ADD SWAP2 DUP3 MSTORE PUSH1 0x20 DUP3 ADD SWAP4 SWAP1 SWAP4 MSTORE SWAP2 SWAP4 DUP5 SWAP3 DUP4 SWAP2 SWAP1 DUP3 SWAP1 PUSH1 0x40 ADD JUMPDEST SUB SWAP3 GAS CALL SWAP2 DUP3 ISZERO PUSH2 0x7EE JUMPI PUSH2 0x7CE SWAP4 POP DUP5 SWAP3 PUSH2 0x7D1 JUMPI JUMPDEST POP POP PUSH2 0x9E2 JUMP JUMPDEST DUP1 RETURN JUMPDEST PUSH2 0x7E7 SWAP3 POP DUP1 RETURNDATASIZE LT PUSH2 0x327 JUMPI PUSH2 0x319 DUP2 DUP4 PUSH2 0x96C JUMP JUMPDEST CODESIZE DUP1 PUSH2 0x7C7 JUMP JUMPDEST POP POP POP MLOAD SWAP1 RETURNDATASIZE SWAP1 DUP3 RETURNDATACOPY RETURNDATASIZE SWAP1 REVERT JUMPDEST DUP6 DUP2 SWAP7 SWAP3 SWAP6 POP RETURNDATASIZE DUP4 GT PUSH2 0x829 JUMPI JUMPDEST PUSH2 0x813 DUP2 DUP4 PUSH2 0x96C JUMP JUMPDEST DUP2 ADD SUB SLT PUSH2 0x13A JUMPI SWAP3 MLOAD DUP6 SWAP4 SWAP1 SWAP3 PUSH2 0x7B0 PUSH2 0x77B JUMP JUMPDEST POP RETURNDATASIZE PUSH2 0x809 JUMP JUMPDEST DUP8 MLOAD RETURNDATASIZE DUP8 DUP3 RETURNDATACOPY RETURNDATASIZE SWAP1 REVERT JUMPDEST DUP4 DUP3 CALLVALUE PUSH2 0x15F JUMPI DUP2 PUSH1 0x3 NOT CALLDATASIZE ADD SLT PUSH2 0x15F JUMPI MLOAD PUSH32 0x0 PUSH1 0x1 PUSH1 0x1 PUSH1 0xA0 SHL SUB AND DUP2 MSTORE PUSH1 0x20 SWAP1 RETURN JUMPDEST DUP4 DUP3 CALLVALUE PUSH2 0x15F JUMPI DUP2 PUSH1 0x3 NOT CALLDATASIZE ADD SLT PUSH2 0x15F JUMPI PUSH1 0x20 SWAP1 MLOAD PUSH1 0x1E DUP2 MSTORE RETURN JUMPDEST DUP5 SWAP1 CALLVALUE PUSH2 0x15F JUMPI DUP2 PUSH1 0x3 NOT CALLDATASIZE ADD SLT PUSH2 0x15F JUMPI PUSH32 0x0 PUSH1 0x1 PUSH1 0x1 PUSH1 0xA0 SHL SUB AND DUP2 MSTORE PUSH1 0x20 SWAP1 RETURN JUMPDEST PUSH1 0x0 SLOAD PUSH1 0x1 PUSH1 0x1 PUSH1 0xA0 SHL SUB AND CALLER SUB PUSH2 0x8F1 JUMPI JUMP JUMPDEST PUSH1 0x40 MLOAD PUSH4 0x118CDAA7 PUSH1 0xE0 SHL DUP2 MSTORE CALLER PUSH1 0x4 DUP3 ADD MSTORE PUSH1 0x24 SWAP1 REVERT JUMPDEST ISZERO PUSH2 0x910 JUMPI JUMP JUMPDEST PUSH1 0x40 MLOAD PUSH3 0x461BCD PUSH1 0xE5 SHL DUP2 MSTORE PUSH1 0x20 PUSH1 0x4 DUP3 ADD MSTORE PUSH1 0xA PUSH1 0x24 DUP3 ADD MSTORE PUSH10 0x616D6F756E74203D203 PUSH1 0xB4 SHL PUSH1 0x44 DUP3 ADD MSTORE PUSH1 0x64 SWAP1 REVERT JUMPDEST PUSH8 0xFFFFFFFFFFFFFFFF DUP2 GT PUSH2 0x956 JUMPI PUSH1 0x40 MSTORE JUMP JUMPDEST PUSH4 0x4E487B71 PUSH1 0xE0 SHL PUSH1 0x0 MSTORE PUSH1 0x41 PUSH1 0x4 MSTORE PUSH1 0x24 PUSH1 0x0 REVERT JUMPDEST SWAP1 PUSH1 0x1F DUP1 NOT SWAP2 ADD AND DUP2 ADD SWAP1 DUP2 LT PUSH8 0xFFFFFFFFFFFFFFFF DUP3 GT OR PUSH2 0x956 JUMPI PUSH1 0x40 MSTORE JUMP JUMPDEST ISZERO PUSH2 0x995 JUMPI JUMP JUMPDEST PUSH1 0x40 MLOAD PUSH3 0x461BCD PUSH1 0xE5 SHL DUP2 MSTORE PUSH1 0x20 PUSH1 0x4 DUP3 ADD MSTORE PUSH1 0xD PUSH1 0x24 DUP3 ADD MSTORE PUSH13 0x696E76616C6964207072696365 PUSH1 0x98 SHL PUSH1 0x44 DUP3 ADD MSTORE PUSH1 0x64 SWAP1 REVERT JUMPDEST SWAP1 DUP2 PUSH1 0x20 SWAP2 SUB SLT PUSH2 0x3BD JUMPI MLOAD DUP1 ISZERO ISZERO DUP2 SUB PUSH2 0x3BD JUMPI SWAP1 JUMP JUMPDEST ISZERO PUSH2 0x9E9 JUMPI JUMP JUMPDEST PUSH1 0x40 MLOAD PUSH3 0x461BCD PUSH1 0xE5 SHL DUP2 MSTORE PUSH1 0x20 PUSH1 0x4 DUP3 ADD MSTORE PUSH1 0x14 PUSH1 0x24 DUP3 ADD MSTORE PUSH20 0x1554D110C81D1C985B9CD9995C8819985A5B1959 PUSH1 0x62 SHL PUSH1 0x44 DUP3 ADD MSTORE PUSH1 0x64 SWAP1 REVERT INVALID LOG2 PUSH5 0x6970667358 0x22 SLT KECCAK256 LOG4 PUSH25 0x56FEB6263FC60D0A3166508714E556B3AFE6E5A77F0FF2DA2A PUSH12 0x8799D67064736F6C63430008 ISZERO STOP CALLER "},"methodIdentifiers":{"BASIS_POINTS()":"e1f1c4a7","REDEEM_FEE_BPS()":"38fd6bdb","evix()":"10567b8a","mint(uint256)":"a0712d68","oracle()":"7dc0d1d0","owner()":"8da5cb5b","redeem(uint256)":"db006a75","renounceOwnership()":"715018a6","setOracle(address)":"7adbf973","transferOwnership(address)":"f2fde38b","usdc()":"3e413bee","withdrawFees()":"476343ee"}}}}}