{
  "_format": "hh-sol-artifact-1",
  "contractName": "EVIXMintRedeemV7",
  "sourceName": "contracts/EVIXMintRedeemV7.sol",
  "abi": [
    {
      "inputs": [
        {
          "internalType": "address",
          "name": "_usdc",
          "type": "address"
        },
        {
          "internalType": "address",
          "name": "_evix",
          "type": "address"
        },
        {
          "internalType": "address",
          "name": "_oracle",
          "type": "address"
        },
        {
          "internalType": "address",
          "name": "_governor",
          "type": "address"
        }
      ],
      "stateMutability": "nonpayable",
      "type": "constructor"
    },
    {
      "inputs": [],
      "name": "AccessControlBadConfirmation",
      "type": "error"
    },
    {
      "inputs": [
        {
          "internalType": "address",
          "name": "account",
          "type": "address"
        },
        {
          "internalType": "bytes32",
          "name": "neededRole",
          "type": "bytes32"
        }
      ],
      "name": "AccessControlUnauthorizedAccount",
      "type": "error"
    },
    {
      "inputs": [],
      "name": "EnforcedPause",
      "type": "error"
    },
    {
      "inputs": [],
      "name": "ExpectedPause",
      "type": "error"
    },
    {
      "inputs": [],
      "name": "InsufficientCollateral",
      "type": "error"
    },
    {
      "inputs": [],
      "name": "InvalidAmount",
      "type": "error"
    },
    {
      "inputs": [],
      "name": "InvalidCollateralRatio",
      "type": "error"
    },
    {
      "inputs": [],
      "name": "LiquidationNotAllowed",
      "type": "error"
    },
    {
      "inputs": [],
      "name": "PositionNotFound",
      "type": "error"
    },
    {
      "inputs": [],
      "name": "ReentrancyGuardReentrantCall",
      "type": "error"
    },
    {
      "inputs": [],
      "name": "TransferFailed",
      "type": "error"
    },
    {
      "anonymous": false,
      "inputs": [
        {
          "indexed": false,
          "internalType": "uint256",
          "name": "oldMinCR",
          "type": "uint256"
        },
        {
          "indexed": false,
          "internalType": "uint256",
          "name": "newMinCR",
          "type": "uint256"
        }
      ],
      "name": "CollateralRatioUpdated",
      "type": "event"
    },
    {
      "anonymous": false,
      "inputs": [
        {
          "indexed": false,
          "internalType": "uint256",
          "name": "oldMintFee",
          "type": "uint256"
        },
        {
          "indexed": false,
          "internalType": "uint256",
          "name": "newMintFee",
          "type": "uint256"
        },
        {
          "indexed": false,
          "internalType": "uint256",
          "name": "oldRedeemFee",
          "type": "uint256"
        },
        {
          "indexed": false,
          "internalType": "uint256",
          "name": "newRedeemFee",
          "type": "uint256"
        }
      ],
      "name": "FeesUpdated",
      "type": "event"
    },
    {
      "anonymous": false,
      "inputs": [
        {
          "indexed": true,
          "internalType": "address",
          "name": "user",
          "type": "address"
        },
        {
          "indexed": true,
          "internalType": "address",
          "name": "liquidator",
          "type": "address"
        },
        {
          "indexed": false,
          "internalType": "uint256",
          "name": "debtRepaid",
          "type": "uint256"
        },
        {
          "indexed": false,
          "internalType": "uint256",
          "name": "collateralSeized",
          "type": "uint256"
        }
      ],
      "name": "Liquidation",
      "type": "event"
    },
    {
      "anonymous": false,
      "inputs": [
        {
          "indexed": false,
          "internalType": "uint256",
          "name": "oldThreshold",
          "type": "uint256"
        },
        {
          "indexed": false,
          "internalType": "uint256",
          "name": "newThreshold",
          "type": "uint256"
        },
        {
          "indexed": false,
          "internalType": "uint256",
          "name": "oldBonus",
          "type": "uint256"
        },
        {
          "indexed": false,
          "internalType": "uint256",
          "name": "newBonus",
          "type": "uint256"
        }
      ],
      "name": "LiquidationParamsUpdated",
      "type": "event"
    },
    {
      "anonymous": false,
      "inputs": [
        {
          "indexed": true,
          "internalType": "address",
          "name": "user",
          "type": "address"
        },
        {
          "indexed": false,
          "internalType": "uint256",
          "name": "usdcAmount",
          "type": "uint256"
        },
        {
          "indexed": false,
          "internalType": "uint256",
          "name": "evixMinted",
          "type": "uint256"
        },
        {
          "indexed": false,
          "internalType": "uint256",
          "name": "targetCR",
          "type": "uint256"
        }
      ],
      "name": "Mint",
      "type": "event"
    },
    {
      "anonymous": false,
      "inputs": [
        {
          "indexed": false,
          "internalType": "address",
          "name": "account",
          "type": "address"
        }
      ],
      "name": "Paused",
      "type": "event"
    },
    {
      "anonymous": false,
      "inputs": [
        {
          "indexed": true,
          "internalType": "address",
          "name": "user",
          "type": "address"
        },
        {
          "indexed": false,
          "internalType": "uint256",
          "name": "evixAmount",
          "type": "uint256"
        },
        {
          "indexed": false,
          "internalType": "uint256",
          "name": "usdcRedeemed",
          "type": "uint256"
        }
      ],
      "name": "Redeem",
      "type": "event"
    },
    {
      "anonymous": false,
      "inputs": [
        {
          "indexed": true,
          "internalType": "bytes32",
          "name": "role",
          "type": "bytes32"
        },
        {
          "indexed": true,
          "internalType": "bytes32",
          "name": "previousAdminRole",
          "type": "bytes32"
        },
        {
          "indexed": true,
          "internalType": "bytes32",
          "name": "newAdminRole",
          "type": "bytes32"
        }
      ],
      "name": "RoleAdminChanged",
      "type": "event"
    },
    {
      "anonymous": false,
      "inputs": [
        {
          "indexed": true,
          "internalType": "bytes32",
          "name": "role",
          "type": "bytes32"
        },
        {
          "indexed": true,
          "internalType": "address",
          "name": "account",
          "type": "address"
        },
        {
          "indexed": true,
          "internalType": "address",
          "name": "sender",
          "type": "address"
        }
      ],
      "name": "RoleGranted",
      "type": "event"
    },
    {
      "anonymous": false,
      "inputs": [
        {
          "indexed": true,
          "internalType": "bytes32",
          "name": "role",
          "type": "bytes32"
        },
        {
          "indexed": true,
          "internalType": "address",
          "name": "account",
          "type": "address"
        },
        {
          "indexed": true,
          "internalType": "address",
          "name": "sender",
          "type": "address"
        }
      ],
      "name": "RoleRevoked",
      "type": "event"
    },
    {
      "anonymous": false,
      "inputs": [
        {
          "indexed": false,
          "internalType": "address",
          "name": "account",
          "type": "address"
        }
      ],
      "name": "Unpaused",
      "type": "event"
    },
    {
      "inputs": [],
      "name": "DEFAULT_ADMIN_ROLE",
      "outputs": [
        {
          "internalType": "bytes32",
          "name": "",
          "type": "bytes32"
        }
      ],
      "stateMutability": "view",
      "type": "function"
    },
    {
      "inputs": [],
      "name": "GOVERNOR_ROLE",
      "outputs": [
        {
          "internalType": "bytes32",
          "name": "",
          "type": "bytes32"
        }
      ],
      "stateMutability": "view",
      "type": "function"
    },
    {
      "inputs": [],
      "name": "LIQUIDATOR_ROLE",
      "outputs": [
        {
          "internalType": "bytes32",
          "name": "",
          "type": "bytes32"
        }
      ],
      "stateMutability": "view",
      "type": "function"
    },
    {
      "inputs": [],
      "name": "PAUSER_ROLE",
      "outputs": [
        {
          "internalType": "bytes32",
          "name": "",
          "type": "bytes32"
        }
      ],
      "stateMutability": "view",
      "type": "function"
    },
    {
      "inputs": [],
      "name": "evix",
      "outputs": [
        {
          "internalType": "contract EVIXToken",
          "name": "",
          "type": "address"
        }
      ],
      "stateMutability": "view",
      "type": "function"
    },
    {
      "inputs": [],
      "name": "getCollateralRatio",
      "outputs": [
        {
          "internalType": "uint256",
          "name": "",
          "type": "uint256"
        }
      ],
      "stateMutability": "view",
      "type": "function"
    },
    {
      "inputs": [
        {
          "internalType": "address",
          "name": "user",
          "type": "address"
        }
      ],
      "name": "getLiquidationPrice",
      "outputs": [
        {
          "internalType": "uint256",
          "name": "",
          "type": "uint256"
        }
      ],
      "stateMutability": "view",
      "type": "function"
    },
    {
      "inputs": [
        {
          "internalType": "bytes32",
          "name": "role",
          "type": "bytes32"
        }
      ],
      "name": "getRoleAdmin",
      "outputs": [
        {
          "internalType": "bytes32",
          "name": "",
          "type": "bytes32"
        }
      ],
      "stateMutability": "view",
      "type": "function"
    },
    {
      "inputs": [
        {
          "internalType": "address",
          "name": "user",
          "type": "address"
        }
      ],
      "name": "getUserCollateralRatio",
      "outputs": [
        {
          "internalType": "uint256",
          "name": "",
          "type": "uint256"
        }
      ],
      "stateMutability": "view",
      "type": "function"
    },
    {
      "inputs": [
        {
          "internalType": "bytes32",
          "name": "role",
          "type": "bytes32"
        },
        {
          "internalType": "address",
          "name": "account",
          "type": "address"
        }
      ],
      "name": "grantRole",
      "outputs": [],
      "stateMutability": "nonpayable",
      "type": "function"
    },
    {
      "inputs": [
        {
          "internalType": "bytes32",
          "name": "role",
          "type": "bytes32"
        },
        {
          "internalType": "address",
          "name": "account",
          "type": "address"
        }
      ],
      "name": "hasRole",
      "outputs": [
        {
          "internalType": "bool",
          "name": "",
          "type": "bool"
        }
      ],
      "stateMutability": "view",
      "type": "function"
    },
    {
      "inputs": [
        {
          "internalType": "address",
          "name": "user",
          "type": "address"
        }
      ],
      "name": "liquidate",
      "outputs": [],
      "stateMutability": "nonpayable",
      "type": "function"
    },
    {
      "inputs": [],
      "name": "liquidationBonus",
      "outputs": [
        {
          "internalType": "uint256",
          "name": "",
          "type": "uint256"
        }
      ],
      "stateMutability": "view",
      "type": "function"
    },
    {
      "inputs": [],
      "name": "liquidationThreshold",
      "outputs": [
        {
          "internalType": "uint256",
          "name": "",
          "type": "uint256"
        }
      ],
      "stateMutability": "view",
      "type": "function"
    },
    {
      "inputs": [],
      "name": "minCollateralRatio",
      "outputs": [
        {
          "internalType": "uint256",
          "name": "",
          "type": "uint256"
        }
      ],
      "stateMutability": "view",
      "type": "function"
    },
    {
      "inputs": [],
      "name": "mintFee",
      "outputs": [
        {
          "internalType": "uint256",
          "name": "",
          "type": "uint256"
        }
      ],
      "stateMutability": "view",
      "type": "function"
    },
    {
      "inputs": [
        {
          "internalType": "uint256",
          "name": "amount",
          "type": "uint256"
        },
        {
          "internalType": "uint256",
          "name": "targetCR",
          "type": "uint256"
        }
      ],
      "name": "mintWithCollateralRatio",
      "outputs": [
        {
          "internalType": "uint256",
          "name": "",
          "type": "uint256"
        }
      ],
      "stateMutability": "nonpayable",
      "type": "function"
    },
    {
      "inputs": [],
      "name": "oracle",
      "outputs": [
        {
          "internalType": "contract PriceOracle",
          "name": "",
          "type": "address"
        }
      ],
      "stateMutability": "view",
      "type": "function"
    },
    {
      "inputs": [],
      "name": "pause",
      "outputs": [],
      "stateMutability": "nonpayable",
      "type": "function"
    },
    {
      "inputs": [],
      "name": "paused",
      "outputs": [
        {
          "internalType": "bool",
          "name": "",
          "type": "bool"
        }
      ],
      "stateMutability": "view",
      "type": "function"
    },
    {
      "inputs": [
        {
          "internalType": "address",
          "name": "",
          "type": "address"
        }
      ],
      "name": "positions",
      "outputs": [
        {
          "internalType": "uint256",
          "name": "collateral",
          "type": "uint256"
        },
        {
          "internalType": "uint256",
          "name": "debt",
          "type": "uint256"
        }
      ],
      "stateMutability": "view",
      "type": "function"
    },
    {
      "inputs": [
        {
          "internalType": "uint256",
          "name": "amount",
          "type": "uint256"
        }
      ],
      "name": "redeem",
      "outputs": [
        {
          "internalType": "uint256",
          "name": "",
          "type": "uint256"
        }
      ],
      "stateMutability": "nonpayable",
      "type": "function"
    },
    {
      "inputs": [],
      "name": "redeemFee",
      "outputs": [
        {
          "internalType": "uint256",
          "name": "",
          "type": "uint256"
        }
      ],
      "stateMutability": "view",
      "type": "function"
    },
    {
      "inputs": [
        {
          "internalType": "bytes32",
          "name": "role",
          "type": "bytes32"
        },
        {
          "internalType": "address",
          "name": "callerConfirmation",
          "type": "address"
        }
      ],
      "name": "renounceRole",
      "outputs": [],
      "stateMutability": "nonpayable",
      "type": "function"
    },
    {
      "inputs": [
        {
          "internalType": "bytes32",
          "name": "role",
          "type": "bytes32"
        },
        {
          "internalType": "address",
          "name": "account",
          "type": "address"
        }
      ],
      "name": "revokeRole",
      "outputs": [],
      "stateMutability": "nonpayable",
      "type": "function"
    },
    {
      "inputs": [
        {
          "internalType": "uint256",
          "name": "_mintFee",
          "type": "uint256"
        },
        {
          "internalType": "uint256",
          "name": "_redeemFee",
          "type": "uint256"
        }
      ],
      "name": "setFees",
      "outputs": [],
      "stateMutability": "nonpayable",
      "type": "function"
    },
    {
      "inputs": [
        {
          "internalType": "uint256",
          "name": "_threshold",
          "type": "uint256"
        },
        {
          "internalType": "uint256",
          "name": "_bonus",
          "type": "uint256"
        }
      ],
      "name": "setLiquidationParams",
      "outputs": [],
      "stateMutability": "nonpayable",
      "type": "function"
    },
    {
      "inputs": [
        {
          "internalType": "uint256",
          "name": "_minCR",
          "type": "uint256"
        }
      ],
      "name": "setMinCollateralRatio",
      "outputs": [],
      "stateMutability": "nonpayable",
      "type": "function"
    },
    {
      "inputs": [
        {
          "internalType": "bytes4",
          "name": "interfaceId",
          "type": "bytes4"
        }
      ],
      "name": "supportsInterface",
      "outputs": [
        {
          "internalType": "bool",
          "name": "",
          "type": "bool"
        }
      ],
      "stateMutability": "view",
      "type": "function"
    },
    {
      "inputs": [
        {
          "internalType": "address",
          "name": "token",
          "type": "address"
        },
        {
          "internalType": "address",
          "name": "to",
          "type": "address"
        },
        {
          "internalType": "uint256",
          "name": "amount",
          "type": "uint256"
        }
      ],
      "name": "sweepTokens",
      "outputs": [],
      "stateMutability": "nonpayable",
      "type": "function"
    },
    {
      "inputs": [],
      "name": "totalCollateral",
      "outputs": [
        {
          "internalType": "uint256",
          "name": "",
          "type": "uint256"
        }
      ],
      "stateMutability": "view",
      "type": "function"
    },
    {
      "inputs": [],
      "name": "totalDebt",
      "outputs": [
        {
          "internalType": "uint256",
          "name": "",
          "type": "uint256"
        }
      ],
      "stateMutability": "view",
      "type": "function"
    },
    {
      "inputs": [],
      "name": "unpause",
      "outputs": [],
      "stateMutability": "nonpayable",
      "type": "function"
    },
    {
      "inputs": [],
      "name": "usdc",
      "outputs": [
        {
          "internalType": "contract IERC20",
          "name": "",
          "type": "address"
        }
      ],
      "stateMutability": "view",
      "type": "function"
    }
  ],
  "bytecode": "0x60e0346200016257601f62001d3638819003918201601f19168301916001600160401b03831184841017620001675780849260809460405283398101031262000162578062000052620000dd926200017d565b9062000061602082016200017d565b906200007e606062000076604084016200017d565b92016200017d565b9260018055601e600355601e60045560786005556078600655600560075560018060a01b0392838092166080521660a0521660c052620000be8162000192565b50620000ca8162000201565b50620000d681620002a3565b5062000340565b50620000e933620003dd565b5060405161189e90816200045882396080518181816103990152818161099b01528181610c8c0152610f4f015260a051818181610306015281816109d401528181610eb801526111ad015260c0518181816102580152818161079b0152818161083e01528181610df70152818161159601526116a60152f35b600080fd5b634e487b7160e01b600052604160045260246000fd5b51906001600160a01b03821682036200016257565b6001600160a01b0316600081815260008051602062001d16833981519152602052604081205490919060ff16620001fd57818052816020526040822081835260205260408220600160ff19825416179055339160008051602062001cf68339815191528180a4600190565b5090565b6001600160a01b031660008181527f6f3b488caa0dc03e5f3d9fd6a25fa8755afcfd62ccffb6e436c696bfa6b866de60205260408120549091907f7935bd0ae54bc31f548c14dba4d37c5c64b3f8ca900cb468fb8abd54d5894f559060ff166200029e57808352826020526040832082845260205260408320600160ff1982541617905560008051602062001cf6833981519152339380a4600190565b505090565b6001600160a01b031660008181527ff7c9542c591017a21c74b6f3fab6263c7952fc0aaf9db4c22a2a04ddc7f8674f60205260408120549091907f65d7a28e3265b37a6474929f336521b332c1681b933f6cb9f3376673440d862a9060ff166200029e57808352826020526040832082845260205260408320600160ff1982541617905560008051602062001cf6833981519152339380a4600190565b6001600160a01b031660008181527fbcea842b576603bd7a3cd6bbb61cb6c1908ae113af80c7a38f32f896fbaa454460205260408120549091907f5e17fc5225d4a099df75359ce1f405503ca79498a8dc46a7d583235a0ee45c169060ff166200029e57808352826020526040832082845260205260408320600160ff1982541617905560008051602062001cf6833981519152339380a4600190565b6001600160a01b0316600081815260008051602062001d16833981519152602052604081205490919060ff1615620001fd5781805281602052604082208183526020526040822060ff19815416905533917ff6391f5c32d9c69d2a47ea670b442974b53935d1edc7fd64eb21e047a839171b8180a460019056fe608060408181526004918236101561001657600080fd5b600092833560e01c91826301ffc9a714611249575081630b78f9c0146111dc57816310567b8a1461119857816310b45de11461117257816313966db51461115357816316d8887a1461111857816317d8de82146110f2578163248a9ca3146110c85781632f2ff15d1461109e5781632f86556814610d5657816336568abe14610d105781633853627514610cbb5781633e413bee14610c775781633f4ba83a14610c0d5781634031234c14610bee5781634ac8eb5f14610bcf57816355f5751014610b8d5781635c975abb14610b695781636008d28b146107e95781637b7c1f4c146107ca5781637dc0d1d0146107865781638456cb591461072b57816384da26661461070c5781638b6ca32c1461066757816391d1485414610622578163965fa21e14610604578163a217fddf146105e9578163c6e7275d14610572578163ccc5749014610537578163cd377c5314610513578163d547741f146104cc578163db006a75146101f657508063e63ab1e9146101bc5763fc7b9c181461019b57600080fd5b346101b857816003193601126101b857602090600a549051908152f35b5080fd5b50346101b857816003193601126101b857602090517f65d7a28e3265b37a6474929f336521b332c1681b933f6cb9f3376673440d862a8152f35b8383346101b8576020928360031936011261046c57803590610216611459565b61021e61143b565b81156104be5733845260088552828420936001850180548481106104ae578551634c6afee560e11b81526001600160a01b039290898187817f000000000000000000000000000000000000000000000000000000000000000088165afa80156104a4578590610470575b6102939150876113c0565b5087549186816102a385836113c0565b906102ad916113e9565b998a9488546102bc90876113c0565b61271090046102cb9087611409565b9b6102d591611409565b90556102e091611409565b9055600954906102ef91611409565b60095583600a549061030091611409565b600a55807f000000000000000000000000000000000000000000000000000000000000000016803b1561046c578551632770a7eb60e21b815233858201908152602081018790529091849183919082908490829060400103925af180156104625790839161044e575b5050845163a9059cbb60e01b815233848201908152602081018890529091889183919082908690829060400103927f0000000000000000000000000000000000000000000000000000000000000000165af19182156104435791610416575b50156104085750815190815282848201527fe5b754fb1abb7f01b499791d0b820ae3b6af3424ac1c59768edb53f4ec31a929823392a26001805551908152f35b82516312171d8360e31b8152fd5b6104369150863d881161043c575b61042e818361139e565b810190611423565b866103c8565b503d610424565b8551903d90823e3d90fd5b61045790611358565b6101b8578188610369565b86513d85823e3d90fd5b8280fd5b508981813d831161049d575b610486818361139e565b81010312610498576102939051610288565b600080fd5b503d61047c565b88513d87823e3d90fd5b8551633a23d82560e01b81528490fd5b825163162908e360e11b8152fd5b9190503461046c578060031936011261046c5761050f913561050a60016104f16112c8565b936104fa61147c565b8387528660205286200154611552565b6112de565b5080f35b5050346101b857816003193601126101b857602090610530611578565b9051908152f35b5050346101b857816003193601126101b857602090517f7935bd0ae54bc31f548c14dba4d37c5c64b3f8ca900cb468fb8abd54d5894f558152f35b5050346101b8576105e37f61c468e821b1662263e339e465b2b8aa3c36b504f804ffac4a19ad8eae3df813916105a73661129c565b6105b293919361147c565b6006549260075490856006558260075551948594859094939260609260808301968352602083015260408201520152565b0390a180f35b5050346101b857816003193601126101b85751908152602090f35b90503461046c578260031936011261046c5760209250549051908152f35b90503461046c578160031936011261046c57816020936106406112c8565b92358152808552209060018060a01b0316600052825260ff81600020541690519015158152f35b9190503461046c57606036600319011261046c5760206106cf926106896112b2565b6106916112c8565b61069961147c565b845163a9059cbb60e01b81526001600160a01b039091169281019283526044356020840152948592839188918391604090910190565b03926001600160a01b03165af190811561070357506106ec575080f35b61050f9060203d811161043c5761042e818361139e565b513d84823e3d90fd5b5050346101b857816003193601126101b8576020906005549051908152f35b5050346101b857816003193601126101b85760207f62e78cea01bee320cd4e420270b5ea74000d11b0c9f74754ebdbfc544b05a258916107696114f6565b61077161143b565b600160ff19600254161760025551338152a180f35b5050346101b857816003193601126101b857517f00000000000000000000000000000000000000000000000000000000000000006001600160a01b03168152602090f35b5050346101b857816003193601126101b8576020906007549051908152f35b9190503461046c576107fa3661129c565b610802611459565b61080a61143b565b8115610b5a57607881108015610b4f575b610b40578251634c6afee560e11b815260209590946001600160a01b03878783817f000000000000000000000000000000000000000000000000000000000000000085165afa968715610462578397610b11575b50610889612710610882600354886113c0565b0486611409565b6064810281810460641482151715610afe57856108a5916113e9565b6c0c9f2c9cd04674edea4000000090818102918183041490151715610afe57886108ce916113e9565b978815610aee57670de0b6b3a76400006108ff6108ed84600954611416565b926108fa8c600a54611416565b6113c0565b0490606481029080820460641490151715610adb579061091e916113e9565b60055411610acb576109639033855260088a5287852061093f828254611416565b905533855260088a526001888620016109598a8254611416565b9055600954611416565b60095561097287600a54611416565b600a5585516323b872dd60e01b81523383820152306024820152604481018690528881606481877f000000000000000000000000000000000000000000000000000000000000000087165af1908115610ac1578491610aa4575b5015610a95577f00000000000000000000000000000000000000000000000000000000000000001690813b1561046c5785516340c10f1960e01b8152339181019182526020820188905291839183919082908490829060400103925af18015610a8b57610a74575b505082519182528385830152828201527fb4c03061fb5b7fed76389d5af8f2e0ddb09f8c70d1333abbb62582835e10accb60603392a26001805551908152f35b610a7e8291611358565b610a885780610a34565b80fd5b85513d84823e3d90fd5b5084516312171d8360e31b8152fd5b610abb9150893d8b1161043c5761042e818361139e565b386109cc565b87513d86823e3d90fd5b865163a7967db160e01b81528390fd5b634e487b7160e01b865260118552602486fd5b875163162908e360e11b81528490fd5b634e487b7160e01b855260118452602485fd5b9096508781813d8311610b39575b610b29818361139e565b810103126104985751953861086f565b503d610b1f565b50505163a7967db160e01b8152fd5b5061012c811161081b565b50505163162908e360e11b8152fd5b5050346101b857816003193601126101b85760209060ff6002541690519015158152f35b5050346101b85760203660031901126101b8579081906001600160a01b03610bb36112b2565b1681526008602052206001815491015482519182526020820152f35b5050346101b857816003193601126101b8576020906009549051908152f35b5050346101b857816003193601126101b8576020906006549051908152f35b90503461046c578260031936011261046c57610c276114f6565b6002549060ff821615610c69575060ff1916600255513381527f5db9ee0a495bf2e6ff9c91a7834c1ba4fdd244a5e8aa4e537bd38aeae4b073aa90602090a180f35b8251638dfc202b60e01b8152fd5b5050346101b857816003193601126101b857517f00000000000000000000000000000000000000000000000000000000000000006001600160a01b03168152602090f35b9190503461046c57602036600319011261046c577fea851fc89ebccda62380b76fc8e8317f0bcd4d75ea908cf501bd2ebc6ac1c8f29135610cfa61147c565b600554908060055582519182526020820152a180f35b8383346101b857806003193601126101b857610d2a6112c8565b90336001600160a01b03831603610d47575061050f9192356112de565b5163334bd91960e11b81528390fd5b90503461046c576020918260031936011261109a57610d736112b2565b92610d7c611459565b610d8461143b565b7f5e17fc5225d4a099df75359ce1f405503ca79498a8dc46a7d583235a0ee45c16808652858252828620338752825260ff83872054161561107c575060018060a01b03908185169384875260088252838720926001840196875497881561106c578651634c6afee560e11b8152858186817f000000000000000000000000000000000000000000000000000000000000000088165afa908115611062578b9161102f575b50610e3c670de0b6b3a7640000918b6113c0565b04865490606482028281046064148315171561101c5790610e5c916113e9565b600654111561100d57908a610e7d8b610e78610ea295826113c0565b6113e9565b9181610e976064610e90600754876113c0565b0485611416565b995555600954611409565b600955610eb188600a54611409565b600a5588827f00000000000000000000000000000000000000000000000000000000000000001691823b156101b8578751632770a7eb60e21b81526001600160a01b03909116858201908152602081018b90529092839182908490829060400103925af1801561100357610ff0575b50845163a9059cbb60e01b815233838201908152602081018690529091849183919082908c90829060400103927f0000000000000000000000000000000000000000000000000000000000000000165af1908115610fe6578891610fc9575b5015610fbb5750825194855284015233927f4ecae3269f800df64b16cb9f6f8b0b507018888521d1cff0841823e44bc0b00d9190a36001805580f35b83516312171d8360e31b8152fd5b610fe09150833d851161043c5761042e818361139e565b38610f7f565b85513d8a823e3d90fd5b610ffc90989198611358565b9638610f20565b86513d8b823e3d90fd5b87516229abe760e51b81528590fd5b634e487b7160e01b8d526011875260248dfd5b90508581813d831161105b575b611046818361139e565b810103126110575751610e3c610e28565b8a80fd5b503d61103c565b88513d8d823e3d90fd5b8651636ec9be1160e01b81528490fd5b825163e2517d3f60e01b815233818601526024810191909152604490fd5b8380fd5b9190503461046c578060031936011261046c5761050f91356110c360016104f16112c8565b6117ef565b90503461046c57602036600319011261046c57816020936001923581528085522001549051908152f35b5050346101b85760203660031901126101b8576020906105306111136112b2565b611766565b5050346101b857816003193601126101b857602090517f5e17fc5225d4a099df75359ce1f405503ca79498a8dc46a7d583235a0ee45c168152f35b5050346101b857816003193601126101b8576020906003549051908152f35b5050346101b85760203660031901126101b8576020906105306111936112b2565b611652565b5050346101b857816003193601126101b857517f00000000000000000000000000000000000000000000000000000000000000006001600160a01b03168152602090f35b90503461046c577f16e6f67290546b8dd0e587f4b7f67d4f61932ae17ffd8c60d3509dbc05c175fe916105e36112113661129c565b909361121b61147c565b6003549382825492876003555551948594859094939260609260808301968352602083015260408201520152565b84913461046c57602036600319011261046c573563ffffffff60e01b811680910361046c5760209250637965db0b60e01b811490811561128b575b5015158152f35b6301ffc9a760e01b14905083611284565b6040906003190112610498576004359060243590565b600435906001600160a01b038216820361049857565b602435906001600160a01b038216820361049857565b9060009180835282602052604083209160018060a01b03169182845260205260ff6040842054166000146113535780835282602052604083208284526020526040832060ff1981541690557ff6391f5c32d9c69d2a47ea670b442974b53935d1edc7fd64eb21e047a839171b339380a4600190565b505090565b67ffffffffffffffff811161136c57604052565b634e487b7160e01b600052604160045260246000fd5b6040810190811067ffffffffffffffff82111761136c57604052565b90601f8019910116810190811067ffffffffffffffff82111761136c57604052565b818102929181159184041417156113d357565b634e487b7160e01b600052601160045260246000fd5b81156113f3570490565b634e487b7160e01b600052601260045260246000fd5b919082039182116113d357565b919082018092116113d357565b90816020910312610498575180151581036104985790565b60ff6002541661144757565b60405163d93c066560e01b8152600490fd5b60026001541461146a576002600155565b604051633ee5aeb560e01b8152600490fd5b3360009081527f6f3b488caa0dc03e5f3d9fd6a25fa8755afcfd62ccffb6e436c696bfa6b866de60205260409020547f7935bd0ae54bc31f548c14dba4d37c5c64b3f8ca900cb468fb8abd54d5894f559060ff16156114d85750565b6044906040519063e2517d3f60e01b82523360048301526024820152fd5b3360009081527ff7c9542c591017a21c74b6f3fab6263c7952fc0aaf9db4c22a2a04ddc7f8674f60205260409020547f65d7a28e3265b37a6474929f336521b332c1681b933f6cb9f3376673440d862a9060ff16156114d85750565b80600052600060205260406000203360005260205260ff60406000205416156114d85750565b600a54801561164c57604051634c6afee560e11b81526020816004817f00000000000000000000000000000000000000000000000000000000000000006001600160a01b03165afa90811561164057600091611607575b506115e390670de0b6b3a7640000926113c0565b04600954906064820291808304606414901517156113d357611604916113e9565b90565b906020823d8211611638575b816116206020938361139e565b81010312610a88575051670de0b6b3a76400006115cf565b3d9150611613565b6040513d6000823e3d90fd5b50600090565b9060018060a01b038060009316835260209060088252604084209160016040519361167c85611382565b805485520154918184019280845215611760578160049160405192838092634c6afee560e11b82527f0000000000000000000000000000000000000000000000000000000000000000165afa918215611755578692611721575b50506116ec90670de0b6b3a764000092516113c0565b04905160648102908082046064149015171561170d576116049293506113e9565b634e487b7160e01b84526011600452602484fd5b90809250813d831161174e575b611738818361139e565b8101031261174a5751816116ec6116d6565b8480fd5b503d61172e565b6040513d88823e3d90fd5b50505050565b6001600160a01b031660009081526008602052604080822090519192919061178d82611382565b602060018254928385520154920191808352156117eb576006546117b0916113c0565b90670de0b6b3a76400009182810292818404149015171561170d57519060648202918083046064149015171561170d576116049293506113e9565b5050565b9060009180835282602052604083209160018060a01b03169182845260205260ff6040842054161560001461135357808352826020526040832082845260205260408320600160ff198254161790557f2f8788117e7eff1d82e926ec794901d17c78024a50270940304540a733656f0d339380a460019056fea26469706673582212206b8324e99607a10449ff586349f10941d25bd07157e5a9946fb842583fc76c9e64736f6c634300081500332f8788117e7eff1d82e926ec794901d17c78024a50270940304540a733656f0dad3228b676f7d3cd4284a5443f17f1962b36e491b30a40b2405849e597ba5fb5",
  "linkReferences": {},
  "deployedLinkReferences": {}
}