{
  "_format": "hh-sol-artifact-1",
  "contractName": "EVIXMintRedeem",
  "sourceName": "contracts/EVIXMintRedeem.sol",
  "abi": [
    {
      "inputs": [
        {
          "internalType": "address",
          "name": "_usdc",
          "type": "address"
        },
        {
          "internalType": "address",
          "name": "_evix",
          "type": "address"
        },
        {
          "internalType": "address",
          "name": "_oracle",
          "type": "address"
        },
        {
          "internalType": "address",
          "name": "initialOwner",
          "type": "address"
        }
      ],
      "stateMutability": "nonpayable",
      "type": "constructor"
    },
    {
      "inputs": [
        {
          "internalType": "address",
          "name": "owner",
          "type": "address"
        }
      ],
      "name": "OwnableInvalidOwner",
      "type": "error"
    },
    {
      "inputs": [
        {
          "internalType": "address",
          "name": "account",
          "type": "address"
        }
      ],
      "name": "OwnableUnauthorizedAccount",
      "type": "error"
    },
    {
      "anonymous": false,
      "inputs": [
        {
          "indexed": true,
          "internalType": "address",
          "name": "user",
          "type": "address"
        },
        {
          "indexed": false,
          "internalType": "uint256",
          "name": "usdcAmount",
          "type": "uint256"
        },
        {
          "indexed": false,
          "internalType": "uint256",
          "name": "evixAmount",
          "type": "uint256"
        }
      ],
      "name": "Mint",
      "type": "event"
    },
    {
      "anonymous": false,
      "inputs": [
        {
          "indexed": true,
          "internalType": "address",
          "name": "previousOwner",
          "type": "address"
        },
        {
          "indexed": true,
          "internalType": "address",
          "name": "newOwner",
          "type": "address"
        }
      ],
      "name": "OwnershipTransferred",
      "type": "event"
    },
    {
      "anonymous": false,
      "inputs": [
        {
          "indexed": true,
          "internalType": "address",
          "name": "user",
          "type": "address"
        },
        {
          "indexed": false,
          "internalType": "uint256",
          "name": "evixAmount",
          "type": "uint256"
        },
        {
          "indexed": false,
          "internalType": "uint256",
          "name": "usdcAmount",
          "type": "uint256"
        }
      ],
      "name": "Redeem",
      "type": "event"
    },
    {
      "inputs": [],
      "name": "BASIS_POINTS",
      "outputs": [
        {
          "internalType": "uint256",
          "name": "",
          "type": "uint256"
        }
      ],
      "stateMutability": "view",
      "type": "function"
    },
    {
      "inputs": [],
      "name": "REDEEM_FEE_BPS",
      "outputs": [
        {
          "internalType": "uint256",
          "name": "",
          "type": "uint256"
        }
      ],
      "stateMutability": "view",
      "type": "function"
    },
    {
      "inputs": [],
      "name": "evix",
      "outputs": [
        {
          "internalType": "contract EVIXToken",
          "name": "",
          "type": "address"
        }
      ],
      "stateMutability": "view",
      "type": "function"
    },
    {
      "inputs": [
        {
          "internalType": "uint256",
          "name": "usdcAmount",
          "type": "uint256"
        }
      ],
      "name": "mint",
      "outputs": [],
      "stateMutability": "nonpayable",
      "type": "function"
    },
    {
      "inputs": [],
      "name": "oracle",
      "outputs": [
        {
          "internalType": "contract IOracle",
          "name": "",
          "type": "address"
        }
      ],
      "stateMutability": "view",
      "type": "function"
    },
    {
      "inputs": [],
      "name": "owner",
      "outputs": [
        {
          "internalType": "address",
          "name": "",
          "type": "address"
        }
      ],
      "stateMutability": "view",
      "type": "function"
    },
    {
      "inputs": [
        {
          "internalType": "uint256",
          "name": "evixAmount",
          "type": "uint256"
        }
      ],
      "name": "redeem",
      "outputs": [],
      "stateMutability": "nonpayable",
      "type": "function"
    },
    {
      "inputs": [],
      "name": "renounceOwnership",
      "outputs": [],
      "stateMutability": "nonpayable",
      "type": "function"
    },
    {
      "inputs": [
        {
          "internalType": "address",
          "name": "_oracle",
          "type": "address"
        }
      ],
      "name": "setOracle",
      "outputs": [],
      "stateMutability": "nonpayable",
      "type": "function"
    },
    {
      "inputs": [
        {
          "internalType": "address",
          "name": "newOwner",
          "type": "address"
        }
      ],
      "name": "transferOwnership",
      "outputs": [],
      "stateMutability": "nonpayable",
      "type": "function"
    },
    {
      "inputs": [],
      "name": "usdc",
      "outputs": [
        {
          "internalType": "contract IERC20",
          "name": "",
          "type": "address"
        }
      ],
      "stateMutability": "view",
      "type": "function"
    },
    {
      "inputs": [],
      "name": "withdrawFees",
      "outputs": [],
      "stateMutability": "nonpayable",
      "type": "function"
    }
  ],
  "bytecode": "0x60c03461013457601f610bbf38819003918201601f19168301916001600160401b0383118484101761013957808492608094604052833981010312610134576100478161014f565b9060606100566020830161014f565b916100636040820161014f565b6001600160a01b03929091839161007a910161014f565b1692831561011b57600080546001600160a01b03198082168717835560405197909686949385938416907f8be0079c531659141344cd1fd0a4f28419497f9722a3daafe3b4186f6b6457e09080a3166080521660a05216906001541617600155610a5b908161016482396080518181816102960152818161048801528181610741015261084f015260a05181818161020a015281816104c401526108ae0152f35b604051631e4fbdf760e01b815260006004820152602490fd5b600080fd5b634e487b7160e01b600052604160045260246000fd5b51906001600160a01b03821682036101345756fe608060408181526004908136101561001657600080fd5b600092833560e01c90816310567b8a1461089a5750806338fd6bdb1461087e5780633e413bee1461083a578063476343ee14610705578063715018a6146106a85780637adbf9731461065f5780637dc0d1d0146106365780638da5cb5b1461060e578063a0712d68146103d7578063db006a7514610163578063e1f1c4a7146101425763f2fde38b146100a857600080fd5b3461013e57602036600319011261013e576001600160a01b0382358181169391929084900361013a576100d96108dd565b8315610124575050600054826bffffffffffffffffffffffff60a01b821617600055167f8be0079c531659141344cd1fd0a4f28419497f9722a3daafe3b4186f6b6457e0600080a380f35b51631e4fbdf760e01b8152908101849052602490fd5b8480fd5b8280fd5b83823461015f578160031936011261015f57602090516127108152f35b5080fd5b503461013e57602090816003193601126103d3578235918215906101878215610909565b6001548351634c6afee560e11b81526001600160a01b03939091839083908990829088165afa9182156103c9578892610395575b506101c788831361098e565b81860291868304141715610380576c0c9f2c9cd04674edea40000000900491601e8302838104601e148415171561036d576127109004830392831161035a5786817f000000000000000000000000000000000000000000000000000000000000000016803b1561015f578551632770a7eb60e21b815233818a01908152602081018990529091839183919082908490829060400103925af1801561035057610338575b50845163a9059cbb60e01b815233978101978852602088018590529683928892918390036040019183917f0000000000000000000000000000000000000000000000000000000000000000165af194851561032e577fe5b754fb1abb7f01b499791d0b820ae3b6af3424ac1c59768edb53f4ec31a92994956102f3918891610301575b506109e2565b82519485528401523392a280f35b6103219150833d8511610327575b610319818361096c565b8101906109ca565b386102ed565b503d61030f565b83513d88823e3d90fd5b61034190610942565b61034c57863861026a565b8680fd5b86513d84823e3d90fd5b634e487b7160e01b875260118652602487fd5b634e487b7160e01b885260118752602488fd5b601186634e487b7160e01b6000525260246000fd5b9091508281813d83116103c2575b6103ad818361096c565b810103126103bd575190386101bb565b600080fd5b503d6103a3565b85513d8a823e3d90fd5b8380fd5b5091903461015f576020928360031936011261013e578135918215906103fd8215610909565b6001548351634c6afee560e11b81526001600160a01b03939091889083908590829088165afa9182156105af5787926105df575b5061043d87831361098e565b6c0c9f2c9cd04674edea4000000090818702918783041417156105cc5781156105b957049183516323b872dd60e01b8152338382015230602482015285604482015287816064818a867f0000000000000000000000000000000000000000000000000000000000000000165af19081156105af57906104c291889161059857506109e2565b7f00000000000000000000000000000000000000000000000000000000000000001690813b156105945783516340c10f1960e01b8152339181019182526020820184905291869183919082908490829060400103925af1801561058a57610557575b507f4c209b5fc8ad50758f13e2e1088ba56a560dff690a1c6fef26394f4c03821c4f92939482519485528401523392a280f35b936105837f4c209b5fc8ad50758f13e2e1088ba56a560dff690a1c6fef26394f4c03821c4f9495610942565b9392610524565b83513d87823e3d90fd5b8580fd5b6103219150893d8b1161032757610319818361096c565b85513d89823e3d90fd5b634e487b7160e01b875260128352602487fd5b634e487b7160e01b875260118352602487fd5b9091508781813d8311610607575b6105f7818361096c565b8101031261034c57519038610431565b503d6105ed565b83823461015f578160031936011261015f57905490516001600160a01b039091168152602090f35b83823461015f578160031936011261015f5760015490516001600160a01b039091168152602090f35b50503461015f57602036600319011261015f57356001600160a01b0381169081900361015f5761068d6108dd565b6bffffffffffffffffffffffff60a01b600154161760015580f35b83346107025780600319360112610702576106c16108dd565b80546001600160a01b03198116825581906001600160a01b03167f8be0079c531659141344cd1fd0a4f28419497f9722a3daafe3b4186f6b6457e08280a380f35b80fd5b50903461013e578260031936011261013e5761071f6108dd565b81516370a0823160e01b815230828201526020918491906001600160a01b03907f00000000000000000000000000000000000000000000000000000000000000008216908584602481855afa92831561083057869486946107fb575b508554885163a9059cbb60e01b815291166001600160a01b031691810191825260208201939093529193849283919082906040015b03925af19182156107ee576107ce935084926107d1575b50506109e2565b80f35b6107e79250803d1061032757610319818361096c565b38806107c7565b50505051903d90823e3d90fd5b8581969295503d8311610829575b610813818361096c565b8101031261013a579251859390926107b061077b565b503d610809565b87513d87823e3d90fd5b83823461015f578160031936011261015f57517f00000000000000000000000000000000000000000000000000000000000000006001600160a01b03168152602090f35b83823461015f578160031936011261015f5760209051601e8152f35b84903461015f578160031936011261015f577f00000000000000000000000000000000000000000000000000000000000000006001600160a01b03168152602090f35b6000546001600160a01b031633036108f157565b60405163118cdaa760e01b8152336004820152602490fd5b1561091057565b60405162461bcd60e51b815260206004820152600a6024820152690616d6f756e74203d20360b41b6044820152606490fd5b67ffffffffffffffff811161095657604052565b634e487b7160e01b600052604160045260246000fd5b90601f8019910116810190811067ffffffffffffffff82111761095657604052565b1561099557565b60405162461bcd60e51b815260206004820152600d60248201526c696e76616c696420707269636560981b6044820152606490fd5b908160209103126103bd575180151581036103bd5790565b156109e957565b60405162461bcd60e51b81526020600482015260146024820152731554d110c81d1c985b9cd9995c8819985a5b195960621b6044820152606490fdfea264697066735822122041852d01028bc1cd4f525178e3f40853b865a7f5be165e918809c45160d1cedc64736f6c63430008150033",
  "linkReferences": {},
  "deployedLinkReferences": {}
}