{
  "_format": "hh-sol-artifact-1",
  "contractName": "MintRedeemV4",
  "sourceName": "contracts/MintRedeemV4.sol",
  "abi": [
    {
      "inputs": [
        {
          "internalType": "address",
          "name": "_usdc",
          "type": "address"
        },
        {
          "internalType": "address",
          "name": "_bvix",
          "type": "address"
        },
        {
          "internalType": "address",
          "name": "_oracle",
          "type": "address"
        },
        {
          "internalType": "address",
          "name": "initialOwner",
          "type": "address"
        }
      ],
      "stateMutability": "nonpayable",
      "type": "constructor"
    },
    {
      "inputs": [
        {
          "internalType": "address",
          "name": "owner",
          "type": "address"
        }
      ],
      "name": "OwnableInvalidOwner",
      "type": "error"
    },
    {
      "inputs": [
        {
          "internalType": "address",
          "name": "account",
          "type": "address"
        }
      ],
      "name": "OwnableUnauthorizedAccount",
      "type": "error"
    },
    {
      "anonymous": false,
      "inputs": [
        {
          "indexed": true,
          "internalType": "address",
          "name": "user",
          "type": "address"
        },
        {
          "indexed": false,
          "internalType": "uint256",
          "name": "usdcAmount",
          "type": "uint256"
        },
        {
          "indexed": false,
          "internalType": "uint256",
          "name": "bvixMinted",
          "type": "uint256"
        }
      ],
      "name": "Mint",
      "type": "event"
    },
    {
      "anonymous": false,
      "inputs": [
        {
          "indexed": true,
          "internalType": "address",
          "name": "previousOwner",
          "type": "address"
        },
        {
          "indexed": true,
          "internalType": "address",
          "name": "newOwner",
          "type": "address"
        }
      ],
      "name": "OwnershipTransferred",
      "type": "event"
    },
    {
      "anonymous": false,
      "inputs": [
        {
          "indexed": true,
          "internalType": "address",
          "name": "user",
          "type": "address"
        },
        {
          "indexed": false,
          "internalType": "uint256",
          "name": "bvixAmount",
          "type": "uint256"
        },
        {
          "indexed": false,
          "internalType": "uint256",
          "name": "usdcRedeemed",
          "type": "uint256"
        }
      ],
      "name": "Redeem",
      "type": "event"
    },
    {
      "inputs": [],
      "name": "bvix",
      "outputs": [
        {
          "internalType": "contract BVIXToken",
          "name": "",
          "type": "address"
        }
      ],
      "stateMutability": "view",
      "type": "function"
    },
    {
      "inputs": [],
      "name": "getCollateralRatio",
      "outputs": [
        {
          "internalType": "uint256",
          "name": "",
          "type": "uint256"
        }
      ],
      "stateMutability": "view",
      "type": "function"
    },
    {
      "inputs": [],
      "name": "minCollateralRatio",
      "outputs": [
        {
          "internalType": "uint256",
          "name": "",
          "type": "uint256"
        }
      ],
      "stateMutability": "view",
      "type": "function"
    },
    {
      "inputs": [
        {
          "internalType": "uint256",
          "name": "amount",
          "type": "uint256"
        }
      ],
      "name": "mint",
      "outputs": [
        {
          "internalType": "uint256",
          "name": "",
          "type": "uint256"
        }
      ],
      "stateMutability": "nonpayable",
      "type": "function"
    },
    {
      "inputs": [],
      "name": "mintFee",
      "outputs": [
        {
          "internalType": "uint256",
          "name": "",
          "type": "uint256"
        }
      ],
      "stateMutability": "view",
      "type": "function"
    },
    {
      "inputs": [],
      "name": "oracle",
      "outputs": [
        {
          "internalType": "contract MockOracle",
          "name": "",
          "type": "address"
        }
      ],
      "stateMutability": "view",
      "type": "function"
    },
    {
      "inputs": [],
      "name": "owner",
      "outputs": [
        {
          "internalType": "address",
          "name": "",
          "type": "address"
        }
      ],
      "stateMutability": "view",
      "type": "function"
    },
    {
      "inputs": [
        {
          "internalType": "uint256",
          "name": "bvixAmount",
          "type": "uint256"
        }
      ],
      "name": "redeem",
      "outputs": [],
      "stateMutability": "nonpayable",
      "type": "function"
    },
    {
      "inputs": [],
      "name": "redeemFee",
      "outputs": [
        {
          "internalType": "uint256",
          "name": "",
          "type": "uint256"
        }
      ],
      "stateMutability": "view",
      "type": "function"
    },
    {
      "inputs": [],
      "name": "renounceOwnership",
      "outputs": [],
      "stateMutability": "nonpayable",
      "type": "function"
    },
    {
      "inputs": [
        {
          "internalType": "address",
          "name": "newOwner",
          "type": "address"
        }
      ],
      "name": "transferOwnership",
      "outputs": [],
      "stateMutability": "nonpayable",
      "type": "function"
    },
    {
      "inputs": [],
      "name": "usdc",
      "outputs": [
        {
          "internalType": "contract IERC20",
          "name": "",
          "type": "address"
        }
      ],
      "stateMutability": "view",
      "type": "function"
    }
  ],
  "bytecode": "0x60803461011a57601f610c1f38819003918201601f19168301916001600160401b0383118484101761011f5780849260809460405283398101031261011a5761004781610135565b90606061005660208301610135565b9161006360408201610135565b6001600160a01b03929091839161007a9101610135565b1692831561010157600080546001600160a01b03198082168717835560405197909686949385938416907f8be0079c531659141344cd1fd0a4f28419497f9722a3daafe3b4186f6b6457e09080a3601e600455601e6005556078600655168560015416176001551683600254161760025516906003541617600355610ad5908161014a8239f35b604051631e4fbdf760e01b815260006004820152602490fd5b600080fd5b634e487b7160e01b600052604160045260246000fd5b51906001600160a01b038216820361011a5756fe608060408181526004908136101561001657600080fd5b600092833560e01c90816313966db5146104bd575080633e413bee14610494578063715018a61461043a5780637dc0d1d01461041157806384da2666146103f25780638da5cb5b146103ca578063965fa21e146103ab5780639f80fb4e14610382578063a0712d681461035f578063cd377c531461033b578063db006a75146101425763f2fde38b146100a857600080fd5b3461013e57602036600319011261013e576001600160a01b0382358181169391929084900361013a576100d96104d9565b8315610124575050600054826bffffffffffffffffffffffff60a01b821617600055167f8be0079c531659141344cd1fd0a4f28419497f9722a3daafe3b4186f6b6457e0600080a380f35b51631e4fbdf760e01b8152908101849052602490fd5b8480fd5b8280fd5b50919034610337576020928360031936011261013e5781359161016683151561074c565b6003548251634c6afee560e11b81526001600160a01b03969182908290859082908b165afa90811561032d5786916102ef575b506c0c9f2c9cd04674edea400000006101b56101cc9287610551565b046127106101c560055483610551565b049061078d565b918660025416803b156102eb578451632770a7eb60e21b815233838201908152602081018890529091889183919082908490829060400103925af180156102e1576102c8575b50600154845163a9059cbb60e01b815233928101928352602083018590529697839288929091169082908a9082906040015b03925af19485156102be577fe5b754fb1abb7f01b499791d0b820ae3b6af3424ac1c59768edb53f4ec31a9299495610283918891610291575b506107b7565b82519485528401523392a280f35b6102b19150833d85116102b7575b6102a9818361052f565b81019061079a565b3861027d565b503d61029f565b83513d88823e3d90fd5b8291610244976102d88693610505565b97509150610212565b85513d89823e3d90fd5b8680fd5b90508181813d8311610326575b610306818361052f565b8101031261032257516c0c9f2c9cd04674edea40000000610199565b8580fd5b503d6102fc565b84513d88823e3d90fd5b5080fd5b83823461033757816003193601126103375760209061035861059a565b9051908152f35b50823461037f57602036600319011261037f5750610358602092356107f5565b80fd5b83823461033757816003193601126103375760025490516001600160a01b039091168152602090f35b8382346103375781600319360112610337576020906005549051908152f35b838234610337578160031936011261033757905490516001600160a01b039091168152602090f35b8382346103375781600319360112610337576020906006549051908152f35b83823461033757816003193601126103375760035490516001600160a01b039091168152602090f35b833461037f578060031936011261037f576104536104d9565b80546001600160a01b03198116825581906001600160a01b03167f8be0079c531659141344cd1fd0a4f28419497f9722a3daafe3b4186f6b6457e08280a380f35b83823461033757816003193601126103375760015490516001600160a01b039091168152602090f35b8490843461013e578260031936011261013e5760209250548152f35b6000546001600160a01b031633036104ed57565b60405163118cdaa760e01b8152336004820152602490fd5b67ffffffffffffffff811161051957604052565b634e487b7160e01b600052604160045260246000fd5b90601f8019910116810190811067ffffffffffffffff82111761051957604052565b8181029291811591840414171561056457565b634e487b7160e01b600052601160045260246000fd5b8115610584570490565b634e487b7160e01b600052601260045260246000fd5b600254604080516318160ddd60e01b8152916001600160a01b03919060209081908590600490829087165afa93841561074157600094610712575b508315610709578281602494600154168451958680926370a0823160e01b82523060048301525afa9384156106fe576000946106cf575b5090806004939260035416835194858092634c6afee560e11b82525afa9182156106c55750600091610699575b50905064e8d4a510009283830293838504148315171561056457670de0b6b3a76400009161066691610551565b0490811561069157655af3107a40000291808304606414901517156105645761068e9161057a565b90565b505050600090565b82813d83116106be575b6106ad818361052f565b8101031261037f5750518038610639565b503d6106a3565b513d6000823e3d90fd5b90938282813d83116106f7575b6106e6818361052f565b8101031261037f575051928161060c565b503d6106dc565b83513d6000823e3d90fd5b50505050600090565b90938482813d831161073a575b610729818361052f565b8101031261037f57505192386105d5565b503d61071f565b82513d6000823e3d90fd5b1561075357565b60405162461bcd60e51b81526020600482015260126024820152710416d6f756e74206d757374206265203e20360741b6044820152606490fd5b9190820391821161056457565b908160209103126107b2575180151581036107b25790565b600080fd5b156107be57565b60405162461bcd60e51b815260206004820152600f60248201526e151c985b9cd9995c8819985a5b1959608a1b6044820152606490fd5b61080081151561074c565b60035460408051634c6afee560e11b81526001600160a01b03939260209160049183908290849082908a165afa908115610a9457600091610a67575b5061085561271061084e845488610551565b048661078d565b6c0c9f2c9cd04674edea4000000090818102918183041490151715610a52579061087e9161057a565b948515610a1857818382600254168651928380926318160ddd60e01b82525afa9081156109a5576000916109eb575b50156109b05760015484516323b872dd60e01b81523384820190815230602082015260408101889052909185918391851690829060009082906060015b03925af19081156109a557906109079160009161098e57506107b7565b60025416803b156107b25783516340c10f1960e01b8152339281019283526020830187905291600091839182908490829060400103925af180156106fe579185917f4c209b5fc8ad50758f13e2e1088ba56a560dff690a1c6fef26394f4c03821c4f949361097f575b5082519485528401523392a290565b61098890610505565b38610970565b6102b19150853d87116102b7576102a9818361052f565b85513d6000823e3d90fd5b60015484516323b872dd60e01b81523384820190815230602082015260408101889052909185918391851690829060009082906060016108ea565b908482813d8311610a11575b610a01818361052f565b8101031261037f575051386108ad565b503d6109f7565b50915162461bcd60e51b8152918201526015602482015274135a5b9d08185b5bdd5b9d081d1bdbc81cdb585b1b605a1b6044820152606490fd5b601183634e487b7160e01b6000525260246000fd5b908382813d8311610a8d575b610a7d818361052f565b8101031261037f5750513861083c565b503d610a73565b84513d6000823e3d90fdfea2646970667358221220338516cbebfb0c90f3423d76bd557123cb340673d2c0a29c91e0dff1e09582fa64736f6c63430008150033",
  "linkReferences": {},
  "deployedLinkReferences": {}
}