{
  "_format": "hh-sol-artifact-1",
  "contractName": "MintRedeemV4",
  "sourceName": "contracts/MintRedeemV4.sol",
  "abi": [
    {
      "inputs": [
        {
          "internalType": "address",
          "name": "_usdc",
          "type": "address"
        },
        {
          "internalType": "address",
          "name": "_bvix",
          "type": "address"
        },
        {
          "internalType": "address",
          "name": "_oracle",
          "type": "address"
        },
        {
          "internalType": "address",
          "name": "initialOwner",
          "type": "address"
        }
      ],
      "stateMutability": "nonpayable",
      "type": "constructor"
    },
    {
      "inputs": [
        {
          "internalType": "address",
          "name": "owner",
          "type": "address"
        }
      ],
      "name": "OwnableInvalidOwner",
      "type": "error"
    },
    {
      "inputs": [
        {
          "internalType": "address",
          "name": "account",
          "type": "address"
        }
      ],
      "name": "OwnableUnauthorizedAccount",
      "type": "error"
    },
    {
      "anonymous": false,
      "inputs": [
        {
          "indexed": true,
          "internalType": "address",
          "name": "user",
          "type": "address"
        },
        {
          "indexed": false,
          "internalType": "uint256",
          "name": "usdcAmount",
          "type": "uint256"
        },
        {
          "indexed": false,
          "internalType": "uint256",
          "name": "bvixMinted",
          "type": "uint256"
        }
      ],
      "name": "Mint",
      "type": "event"
    },
    {
      "anonymous": false,
      "inputs": [
        {
          "indexed": true,
          "internalType": "address",
          "name": "previousOwner",
          "type": "address"
        },
        {
          "indexed": true,
          "internalType": "address",
          "name": "newOwner",
          "type": "address"
        }
      ],
      "name": "OwnershipTransferred",
      "type": "event"
    },
    {
      "anonymous": false,
      "inputs": [
        {
          "indexed": true,
          "internalType": "address",
          "name": "user",
          "type": "address"
        },
        {
          "indexed": false,
          "internalType": "uint256",
          "name": "bvixAmount",
          "type": "uint256"
        },
        {
          "indexed": false,
          "internalType": "uint256",
          "name": "usdcRedeemed",
          "type": "uint256"
        }
      ],
      "name": "Redeem",
      "type": "event"
    },
    {
      "inputs": [],
      "name": "bvix",
      "outputs": [
        {
          "internalType": "contract BVIXToken",
          "name": "",
          "type": "address"
        }
      ],
      "stateMutability": "view",
      "type": "function"
    },
    {
      "inputs": [],
      "name": "getCollateralRatio",
      "outputs": [
        {
          "internalType": "uint256",
          "name": "",
          "type": "uint256"
        }
      ],
      "stateMutability": "view",
      "type": "function"
    },
    {
      "inputs": [],
      "name": "minCollateralRatio",
      "outputs": [
        {
          "internalType": "uint256",
          "name": "",
          "type": "uint256"
        }
      ],
      "stateMutability": "view",
      "type": "function"
    },
    {
      "inputs": [
        {
          "internalType": "uint256",
          "name": "amount",
          "type": "uint256"
        }
      ],
      "name": "mint",
      "outputs": [
        {
          "internalType": "uint256",
          "name": "",
          "type": "uint256"
        }
      ],
      "stateMutability": "nonpayable",
      "type": "function"
    },
    {
      "inputs": [],
      "name": "mintFee",
      "outputs": [
        {
          "internalType": "uint256",
          "name": "",
          "type": "uint256"
        }
      ],
      "stateMutability": "view",
      "type": "function"
    },
    {
      "inputs": [],
      "name": "oracle",
      "outputs": [
        {
          "internalType": "contract MockOracle",
          "name": "",
          "type": "address"
        }
      ],
      "stateMutability": "view",
      "type": "function"
    },
    {
      "inputs": [],
      "name": "owner",
      "outputs": [
        {
          "internalType": "address",
          "name": "",
          "type": "address"
        }
      ],
      "stateMutability": "view",
      "type": "function"
    },
    {
      "inputs": [
        {
          "internalType": "uint256",
          "name": "bvixAmount",
          "type": "uint256"
        }
      ],
      "name": "redeem",
      "outputs": [],
      "stateMutability": "nonpayable",
      "type": "function"
    },
    {
      "inputs": [],
      "name": "redeemFee",
      "outputs": [
        {
          "internalType": "uint256",
          "name": "",
          "type": "uint256"
        }
      ],
      "stateMutability": "view",
      "type": "function"
    },
    {
      "inputs": [],
      "name": "renounceOwnership",
      "outputs": [],
      "stateMutability": "nonpayable",
      "type": "function"
    },
    {
      "inputs": [
        {
          "internalType": "address",
          "name": "newOwner",
          "type": "address"
        }
      ],
      "name": "transferOwnership",
      "outputs": [],
      "stateMutability": "nonpayable",
      "type": "function"
    },
    {
      "inputs": [],
      "name": "usdc",
      "outputs": [
        {
          "internalType": "contract IERC20",
          "name": "",
          "type": "address"
        }
      ],
      "stateMutability": "view",
      "type": "function"
    }
  ],
  "bytecode": "0x6080604052601e600455601e60055560786006553480156200002057600080fd5b5060405162001907380380620019078339818101604052810190620000469190620002c9565b80600073ffffffffffffffffffffffffffffffffffffffff168173ffffffffffffffffffffffffffffffffffffffff1603620000bc5760006040517f1e4fbdf7000000000000000000000000000000000000000000000000000000008152600401620000b391906200034c565b60405180910390fd5b620000cd816200019b60201b60201c565b5083600160006101000a81548173ffffffffffffffffffffffffffffffffffffffff021916908373ffffffffffffffffffffffffffffffffffffffff16021790555082600260006101000a81548173ffffffffffffffffffffffffffffffffffffffff021916908373ffffffffffffffffffffffffffffffffffffffff16021790555081600360006101000a81548173ffffffffffffffffffffffffffffffffffffffff021916908373ffffffffffffffffffffffffffffffffffffffff1602179055505050505062000369565b60008060009054906101000a900473ffffffffffffffffffffffffffffffffffffffff169050816000806101000a81548173ffffffffffffffffffffffffffffffffffffffff021916908373ffffffffffffffffffffffffffffffffffffffff1602179055508173ffffffffffffffffffffffffffffffffffffffff168173ffffffffffffffffffffffffffffffffffffffff167f8be0079c531659141344cd1fd0a4f28419497f9722a3daafe3b4186f6b6457e060405160405180910390a35050565b600080fd5b600073ffffffffffffffffffffffffffffffffffffffff82169050919050565b6000620002918262000264565b9050919050565b620002a38162000284565b8114620002af57600080fd5b50565b600081519050620002c38162000298565b92915050565b60008060008060808587031215620002e657620002e56200025f565b5b6000620002f687828801620002b2565b94505060206200030987828801620002b2565b93505060406200031c87828801620002b2565b92505060606200032f87828801620002b2565b91505092959194509250565b620003468162000284565b82525050565b60006020820190506200036360008301846200033b565b92915050565b61158e80620003796000396000f3fe608060405234801561001057600080fd5b50600436106100b45760003560e01c8063965fa21e11610071578063965fa21e146101595780639f80fb4e14610177578063a0712d6814610195578063cd377c53146101c5578063db006a75146101e3578063f2fde38b146101ff576100b4565b806313966db5146100b95780633e413bee146100d7578063715018a6146100f55780637dc0d1d0146100ff57806384da26661461011d5780638da5cb5b1461013b575b600080fd5b6100c161021b565b6040516100ce9190610fae565b60405180910390f35b6100df610221565b6040516100ec9190611048565b60405180910390f35b6100fd610247565b005b61010761025b565b6040516101149190611084565b60405180910390f35b610125610281565b6040516101329190610fae565b60405180910390f35b610143610287565b60405161015091906110c0565b60405180910390f35b6101616102b0565b60405161016e9190610fae565b60405180910390f35b61017f6102b6565b60405161018c91906110fc565b60405180910390f35b6101af60048036038101906101aa9190611148565b6102dc565b6040516101bc9190610fae565b60405180910390f35b6101cd610880565b6040516101da9190610fae565b60405180910390f35b6101fd60048036038101906101f89190611148565b610ace565b005b610219600480360381019061021491906111a1565b610dbc565b005b60045481565b600160009054906101000a900473ffffffffffffffffffffffffffffffffffffffff1681565b61024f610e42565b6102596000610ec9565b565b600360009054906101000a900473ffffffffffffffffffffffffffffffffffffffff1681565b60065481565b60008060009054906101000a900473ffffffffffffffffffffffffffffffffffffffff16905090565b60055481565b600260009054906101000a900473ffffffffffffffffffffffffffffffffffffffff1681565b6000808211610320576040517f08c379a00000000000000000000000000000000000000000000000000000000081526004016103179061122b565b60405180910390fd5b6000600360009054906101000a900473ffffffffffffffffffffffffffffffffffffffff1673ffffffffffffffffffffffffffffffffffffffff166398d5fdca6040518163ffffffff1660e01b8152600401602060405180830381865afa15801561038f573d6000803e3d6000fd5b505050506040513d601f19601f820116820180604052508101906103b39190611260565b90506000612710600454856103c891906112bc565b6103d2919061132d565b846103dd919061135e565b90506000826c0c9f2c9cd04674edea40000000836103fb91906112bc565b610405919061132d565b90506000811161044a576040517f08c379a0000000000000000000000000000000000000000000000000000000008152600401610441906113de565b60405180910390fd5b6000600260009054906101000a900473ffffffffffffffffffffffffffffffffffffffff1673ffffffffffffffffffffffffffffffffffffffff166318160ddd6040518163ffffffff1660e01b8152600401602060405180830381865afa1580156104b9573d6000803e3d6000fd5b505050506040513d601f19601f820116820180604052508101906104dd9190611260565b9050600081036106b357600160009054906101000a900473ffffffffffffffffffffffffffffffffffffffff1673ffffffffffffffffffffffffffffffffffffffff166323b872dd3330896040518463ffffffff1660e01b8152600401610546939291906113fe565b6020604051808303816000875af1158015610565573d6000803e3d6000fd5b505050506040513d601f19601f82011682018060405250810190610589919061146d565b6105c8576040517f08c379a00000000000000000000000000000000000000000000000000000000081526004016105bf906114e6565b60405180910390fd5b600260009054906101000a900473ffffffffffffffffffffffffffffffffffffffff1673ffffffffffffffffffffffffffffffffffffffff166340c10f1933846040518363ffffffff1660e01b8152600401610625929190611506565b600060405180830381600087803b15801561063f57600080fd5b505af1158015610653573d6000803e3d6000fd5b505050503373ffffffffffffffffffffffffffffffffffffffff167f4c209b5fc8ad50758f13e2e1088ba56a560dff690a1c6fef26394f4c03821c4f878460405161069f92919061152f565b60405180910390a28194505050505061087b565b600160009054906101000a900473ffffffffffffffffffffffffffffffffffffffff1673ffffffffffffffffffffffffffffffffffffffff166323b872dd3330896040518463ffffffff1660e01b8152600401610712939291906113fe565b6020604051808303816000875af1158015610731573d6000803e3d6000fd5b505050506040513d601f19601f82011682018060405250810190610755919061146d565b610794576040517f08c379a000000000000000000000000000000000000000000000000000000000815260040161078b906114e6565b60405180910390fd5b600260009054906101000a900473ffffffffffffffffffffffffffffffffffffffff1673ffffffffffffffffffffffffffffffffffffffff166340c10f1933846040518363ffffffff1660e01b81526004016107f1929190611506565b600060405180830381600087803b15801561080b57600080fd5b505af115801561081f573d6000803e3d6000fd5b505050503373ffffffffffffffffffffffffffffffffffffffff167f4c209b5fc8ad50758f13e2e1088ba56a560dff690a1c6fef26394f4c03821c4f878460405161086b92919061152f565b60405180910390a2819450505050505b919050565b600080600260009054906101000a900473ffffffffffffffffffffffffffffffffffffffff1673ffffffffffffffffffffffffffffffffffffffff166318160ddd6040518163ffffffff1660e01b8152600401602060405180830381865afa1580156108f0573d6000803e3d6000fd5b505050506040513d601f19601f820116820180604052508101906109149190611260565b905060008103610928576000915050610acb565b6000600160009054906101000a900473ffffffffffffffffffffffffffffffffffffffff1673ffffffffffffffffffffffffffffffffffffffff166370a08231306040518263ffffffff1660e01b815260040161098591906110c0565b602060405180830381865afa1580156109a2573d6000803e3d6000fd5b505050506040513d601f19601f820116820180604052508101906109c69190611260565b90506000600360009054906101000a900473ffffffffffffffffffffffffffffffffffffffff1673ffffffffffffffffffffffffffffffffffffffff166398d5fdca6040518163ffffffff1660e01b8152600401602060405180830381865afa158015610a37573d6000803e3d6000fd5b505050506040513d601f19601f82011682018060405250810190610a5b9190611260565b9050600064e8d4a5100083610a7091906112bc565b90506000670de0b6b3a76400008386610a8991906112bc565b610a93919061132d565b905060008103610aab57600095505050505050610acb565b80606483610ab991906112bc565b610ac3919061132d565b955050505050505b90565b60008111610b11576040517f08c379a0000000000000000000000000000000000000000000000000000000008152600401610b089061122b565b60405180910390fd5b6000600360009054906101000a900473ffffffffffffffffffffffffffffffffffffffff1673ffffffffffffffffffffffffffffffffffffffff166398d5fdca6040518163ffffffff1660e01b8152600401602060405180830381865afa158015610b80573d6000803e3d6000fd5b505050506040513d601f19601f82011682018060405250810190610ba49190611260565b905060006c0c9f2c9cd04674edea400000008284610bc291906112bc565b610bcc919061132d565b9050600061271060055483610be191906112bc565b610beb919061132d565b82610bf6919061135e565b9050600260009054906101000a900473ffffffffffffffffffffffffffffffffffffffff1673ffffffffffffffffffffffffffffffffffffffff16639dc29fac33866040518363ffffffff1660e01b8152600401610c55929190611506565b600060405180830381600087803b158015610c6f57600080fd5b505af1158015610c83573d6000803e3d6000fd5b50505050600160009054906101000a900473ffffffffffffffffffffffffffffffffffffffff1673ffffffffffffffffffffffffffffffffffffffff1663a9059cbb33836040518363ffffffff1660e01b8152600401610ce4929190611506565b6020604051808303816000875af1158015610d03573d6000803e3d6000fd5b505050506040513d601f19601f82011682018060405250810190610d27919061146d565b610d66576040517f08c379a0000000000000000000000000000000000000000000000000000000008152600401610d5d906114e6565b60405180910390fd5b3373ffffffffffffffffffffffffffffffffffffffff167fe5b754fb1abb7f01b499791d0b820ae3b6af3424ac1c59768edb53f4ec31a9298583604051610dae92919061152f565b60405180910390a250505050565b610dc4610e42565b600073ffffffffffffffffffffffffffffffffffffffff168173ffffffffffffffffffffffffffffffffffffffff1603610e365760006040517f1e4fbdf7000000000000000000000000000000000000000000000000000000008152600401610e2d91906110c0565b60405180910390fd5b610e3f81610ec9565b50565b610e4a610f8d565b73ffffffffffffffffffffffffffffffffffffffff16610e68610287565b73ffffffffffffffffffffffffffffffffffffffff1614610ec757610e8b610f8d565b6040517f118cdaa7000000000000000000000000000000000000000000000000000000008152600401610ebe91906110c0565b60405180910390fd5b565b60008060009054906101000a900473ffffffffffffffffffffffffffffffffffffffff169050816000806101000a81548173ffffffffffffffffffffffffffffffffffffffff021916908373ffffffffffffffffffffffffffffffffffffffff1602179055508173ffffffffffffffffffffffffffffffffffffffff168173ffffffffffffffffffffffffffffffffffffffff167f8be0079c531659141344cd1fd0a4f28419497f9722a3daafe3b4186f6b6457e060405160405180910390a35050565b600033905090565b6000819050919050565b610fa881610f95565b82525050565b6000602082019050610fc36000830184610f9f565b92915050565b600073ffffffffffffffffffffffffffffffffffffffff82169050919050565b6000819050919050565b600061100e61100961100484610fc9565b610fe9565b610fc9565b9050919050565b600061102082610ff3565b9050919050565b600061103282611015565b9050919050565b61104281611027565b82525050565b600060208201905061105d6000830184611039565b92915050565b600061106e82611015565b9050919050565b61107e81611063565b82525050565b60006020820190506110996000830184611075565b92915050565b60006110aa82610fc9565b9050919050565b6110ba8161109f565b82525050565b60006020820190506110d560008301846110b1565b92915050565b60006110e682611015565b9050919050565b6110f6816110db565b82525050565b600060208201905061111160008301846110ed565b92915050565b600080fd5b61112581610f95565b811461113057600080fd5b50565b6000813590506111428161111c565b92915050565b60006020828403121561115e5761115d611117565b5b600061116c84828501611133565b91505092915050565b61117e8161109f565b811461118957600080fd5b50565b60008135905061119b81611175565b92915050565b6000602082840312156111b7576111b6611117565b5b60006111c58482850161118c565b91505092915050565b600082825260208201905092915050565b7f416d6f756e74206d757374206265203e20300000000000000000000000000000600082015250565b60006112156012836111ce565b9150611220826111df565b602082019050919050565b6000602082019050818103600083015261124481611208565b9050919050565b60008151905061125a8161111c565b92915050565b60006020828403121561127657611275611117565b5b60006112848482850161124b565b91505092915050565b7f4e487b7100000000000000000000000000000000000000000000000000000000600052601160045260246000fd5b60006112c782610f95565b91506112d283610f95565b92508282026112e081610f95565b915082820484148315176112f7576112f661128d565b5b5092915050565b7f4e487b7100000000000000000000000000000000000000000000000000000000600052601260045260246000fd5b600061133882610f95565b915061134383610f95565b925082611353576113526112fe565b5b828204905092915050565b600061136982610f95565b915061137483610f95565b925082820390508181111561138c5761138b61128d565b5b92915050565b7f4d696e7420616d6f756e7420746f6f20736d616c6c0000000000000000000000600082015250565b60006113c86015836111ce565b91506113d382611392565b602082019050919050565b600060208201905081810360008301526113f7816113bb565b9050919050565b600060608201905061141360008301866110b1565b61142060208301856110b1565b61142d6040830184610f9f565b949350505050565b60008115159050919050565b61144a81611435565b811461145557600080fd5b50565b60008151905061146781611441565b92915050565b60006020828403121561148357611482611117565b5b600061149184828501611458565b91505092915050565b7f5472616e73666572206661696c65640000000000000000000000000000000000600082015250565b60006114d0600f836111ce565b91506114db8261149a565b602082019050919050565b600060208201905081810360008301526114ff816114c3565b9050919050565b600060408201905061151b60008301856110b1565b6115286020830184610f9f565b9392505050565b60006040820190506115446000830185610f9f565b6115516020830184610f9f565b939250505056fea26469706673582212206169abfaf78934610b93ba8ef31822ce3f4bc7729ab90cf2172da425b2334ef964736f6c63430008150033",
  "linkReferences": {},
  "deployedLinkReferences": {}
}