{
  "_format": "hh-sol-artifact-1",
  "contractName": "ChainlinkOracle",
  "sourceName": "contracts/ChainlinkOracle.sol",
  "abi": [
    {
      "inputs": [
        {
          "internalType": "address",
          "name": "_priceFeed",
          "type": "address"
        },
        {
          "internalType": "uint256",
          "name": "_fallbackPrice",
          "type": "uint256"
        },
        {
          "internalType": "address",
          "name": "_governor",
          "type": "address"
        }
      ],
      "stateMutability": "nonpayable",
      "type": "constructor"
    },
    {
      "inputs": [],
      "name": "AccessControlBadConfirmation",
      "type": "error"
    },
    {
      "inputs": [
        {
          "internalType": "address",
          "name": "account",
          "type": "address"
        },
        {
          "internalType": "bytes32",
          "name": "neededRole",
          "type": "bytes32"
        }
      ],
      "name": "AccessControlUnauthorizedAccount",
      "type": "error"
    },
    {
      "inputs": [],
      "name": "EnforcedPause",
      "type": "error"
    },
    {
      "inputs": [],
      "name": "ExpectedPause",
      "type": "error"
    },
    {
      "inputs": [],
      "name": "InvalidPrice",
      "type": "error"
    },
    {
      "inputs": [],
      "name": "PriceFeedNotAvailable",
      "type": "error"
    },
    {
      "inputs": [],
      "name": "StalePrice",
      "type": "error"
    },
    {
      "anonymous": false,
      "inputs": [
        {
          "indexed": false,
          "internalType": "bool",
          "name": "useFallback",
          "type": "bool"
        }
      ],
      "name": "FallbackModeToggled",
      "type": "event"
    },
    {
      "anonymous": false,
      "inputs": [
        {
          "indexed": false,
          "internalType": "uint256",
          "name": "oldPrice",
          "type": "uint256"
        },
        {
          "indexed": false,
          "internalType": "uint256",
          "name": "newPrice",
          "type": "uint256"
        }
      ],
      "name": "FallbackPriceUpdated",
      "type": "event"
    },
    {
      "anonymous": false,
      "inputs": [
        {
          "indexed": false,
          "internalType": "address",
          "name": "account",
          "type": "address"
        }
      ],
      "name": "Paused",
      "type": "event"
    },
    {
      "anonymous": false,
      "inputs": [
        {
          "indexed": true,
          "internalType": "bytes32",
          "name": "role",
          "type": "bytes32"
        },
        {
          "indexed": true,
          "internalType": "bytes32",
          "name": "previousAdminRole",
          "type": "bytes32"
        },
        {
          "indexed": true,
          "internalType": "bytes32",
          "name": "newAdminRole",
          "type": "bytes32"
        }
      ],
      "name": "RoleAdminChanged",
      "type": "event"
    },
    {
      "anonymous": false,
      "inputs": [
        {
          "indexed": true,
          "internalType": "bytes32",
          "name": "role",
          "type": "bytes32"
        },
        {
          "indexed": true,
          "internalType": "address",
          "name": "account",
          "type": "address"
        },
        {
          "indexed": true,
          "internalType": "address",
          "name": "sender",
          "type": "address"
        }
      ],
      "name": "RoleGranted",
      "type": "event"
    },
    {
      "anonymous": false,
      "inputs": [
        {
          "indexed": true,
          "internalType": "bytes32",
          "name": "role",
          "type": "bytes32"
        },
        {
          "indexed": true,
          "internalType": "address",
          "name": "account",
          "type": "address"
        },
        {
          "indexed": true,
          "internalType": "address",
          "name": "sender",
          "type": "address"
        }
      ],
      "name": "RoleRevoked",
      "type": "event"
    },
    {
      "anonymous": false,
      "inputs": [
        {
          "indexed": false,
          "internalType": "uint256",
          "name": "oldThreshold",
          "type": "uint256"
        },
        {
          "indexed": false,
          "internalType": "uint256",
          "name": "newThreshold",
          "type": "uint256"
        }
      ],
      "name": "StalenessThresholdUpdated",
      "type": "event"
    },
    {
      "anonymous": false,
      "inputs": [
        {
          "indexed": false,
          "internalType": "address",
          "name": "account",
          "type": "address"
        }
      ],
      "name": "Unpaused",
      "type": "event"
    },
    {
      "inputs": [],
      "name": "DEFAULT_ADMIN_ROLE",
      "outputs": [
        {
          "internalType": "bytes32",
          "name": "",
          "type": "bytes32"
        }
      ],
      "stateMutability": "view",
      "type": "function"
    },
    {
      "inputs": [],
      "name": "GOVERNOR_ROLE",
      "outputs": [
        {
          "internalType": "bytes32",
          "name": "",
          "type": "bytes32"
        }
      ],
      "stateMutability": "view",
      "type": "function"
    },
    {
      "inputs": [],
      "name": "PAUSER_ROLE",
      "outputs": [
        {
          "internalType": "bytes32",
          "name": "",
          "type": "bytes32"
        }
      ],
      "stateMutability": "view",
      "type": "function"
    },
    {
      "inputs": [],
      "name": "fallbackPrice",
      "outputs": [
        {
          "internalType": "uint256",
          "name": "",
          "type": "uint256"
        }
      ],
      "stateMutability": "view",
      "type": "function"
    },
    {
      "inputs": [],
      "name": "getPrice",
      "outputs": [
        {
          "internalType": "uint256",
          "name": "",
          "type": "uint256"
        }
      ],
      "stateMutability": "view",
      "type": "function"
    },
    {
      "inputs": [],
      "name": "getPriceFeedMetadata",
      "outputs": [
        {
          "internalType": "uint8",
          "name": "",
          "type": "uint8"
        },
        {
          "internalType": "string",
          "name": "",
          "type": "string"
        },
        {
          "internalType": "uint256",
          "name": "",
          "type": "uint256"
        }
      ],
      "stateMutability": "view",
      "type": "function"
    },
    {
      "inputs": [],
      "name": "getPriceWithStaleness",
      "outputs": [
        {
          "internalType": "uint256",
          "name": "",
          "type": "uint256"
        },
        {
          "internalType": "bool",
          "name": "",
          "type": "bool"
        }
      ],
      "stateMutability": "view",
      "type": "function"
    },
    {
      "inputs": [
        {
          "internalType": "bytes32",
          "name": "role",
          "type": "bytes32"
        }
      ],
      "name": "getRoleAdmin",
      "outputs": [
        {
          "internalType": "bytes32",
          "name": "",
          "type": "bytes32"
        }
      ],
      "stateMutability": "view",
      "type": "function"
    },
    {
      "inputs": [
        {
          "internalType": "bytes32",
          "name": "role",
          "type": "bytes32"
        },
        {
          "internalType": "address",
          "name": "account",
          "type": "address"
        }
      ],
      "name": "grantRole",
      "outputs": [],
      "stateMutability": "nonpayable",
      "type": "function"
    },
    {
      "inputs": [
        {
          "internalType": "bytes32",
          "name": "role",
          "type": "bytes32"
        },
        {
          "internalType": "address",
          "name": "account",
          "type": "address"
        }
      ],
      "name": "hasRole",
      "outputs": [
        {
          "internalType": "bool",
          "name": "",
          "type": "bool"
        }
      ],
      "stateMutability": "view",
      "type": "function"
    },
    {
      "inputs": [],
      "name": "pause",
      "outputs": [],
      "stateMutability": "nonpayable",
      "type": "function"
    },
    {
      "inputs": [],
      "name": "paused",
      "outputs": [
        {
          "internalType": "bool",
          "name": "",
          "type": "bool"
        }
      ],
      "stateMutability": "view",
      "type": "function"
    },
    {
      "inputs": [],
      "name": "priceFeed",
      "outputs": [
        {
          "internalType": "contract AggregatorV3Interface",
          "name": "",
          "type": "address"
        }
      ],
      "stateMutability": "view",
      "type": "function"
    },
    {
      "inputs": [
        {
          "internalType": "bytes32",
          "name": "role",
          "type": "bytes32"
        },
        {
          "internalType": "address",
          "name": "callerConfirmation",
          "type": "address"
        }
      ],
      "name": "renounceRole",
      "outputs": [],
      "stateMutability": "nonpayable",
      "type": "function"
    },
    {
      "inputs": [
        {
          "internalType": "bytes32",
          "name": "role",
          "type": "bytes32"
        },
        {
          "internalType": "address",
          "name": "account",
          "type": "address"
        }
      ],
      "name": "revokeRole",
      "outputs": [],
      "stateMutability": "nonpayable",
      "type": "function"
    },
    {
      "inputs": [
        {
          "internalType": "bool",
          "name": "_useFallback",
          "type": "bool"
        }
      ],
      "name": "setFallbackMode",
      "outputs": [],
      "stateMutability": "nonpayable",
      "type": "function"
    },
    {
      "inputs": [
        {
          "internalType": "uint256",
          "name": "_newPrice",
          "type": "uint256"
        }
      ],
      "name": "setFallbackPrice",
      "outputs": [],
      "stateMutability": "nonpayable",
      "type": "function"
    },
    {
      "inputs": [
        {
          "internalType": "address",
          "name": "_newPriceFeed",
          "type": "address"
        }
      ],
      "name": "setPriceFeed",
      "outputs": [],
      "stateMutability": "nonpayable",
      "type": "function"
    },
    {
      "inputs": [
        {
          "internalType": "uint256",
          "name": "_newThreshold",
          "type": "uint256"
        }
      ],
      "name": "setStalenessThreshold",
      "outputs": [],
      "stateMutability": "nonpayable",
      "type": "function"
    },
    {
      "inputs": [],
      "name": "stalenessThreshold",
      "outputs": [
        {
          "internalType": "uint256",
          "name": "",
          "type": "uint256"
        }
      ],
      "stateMutability": "view",
      "type": "function"
    },
    {
      "inputs": [
        {
          "internalType": "bytes4",
          "name": "interfaceId",
          "type": "bytes4"
        }
      ],
      "name": "supportsInterface",
      "outputs": [
        {
          "internalType": "bool",
          "name": "",
          "type": "bool"
        }
      ],
      "stateMutability": "view",
      "type": "function"
    },
    {
      "inputs": [],
      "name": "unpause",
      "outputs": [],
      "stateMutability": "nonpayable",
      "type": "function"
    },
    {
      "inputs": [],
      "name": "useFallback",
      "outputs": [
        {
          "internalType": "bool",
          "name": "",
          "type": "bool"
        }
      ],
      "stateMutability": "view",
      "type": "function"
    }
  ],
  "bytecode": "0x608034620000f257601f6200113738819003918201601f19168301916001600160401b03831184841017620000f757808492606094604052833981010312620000f2578062000052620000a9926200010d565b90620000666040602083015192016200010d565b610e106003556004805460ff19169055916001600160a01b038116620000c6575b50600255620000968162000122565b50620000a28162000191565b5062000233565b50620000b533620002d0565b50604051610dac90816200034b8239f35b60018054610100600160a81b03191660089290921b610100600160a81b03169190911790553862000087565b600080fd5b634e487b7160e01b600052604160045260246000fd5b51906001600160a01b0382168203620000f257565b6001600160a01b0316600081815260008051602062001117833981519152602052604081205490919060ff166200018d57818052816020526040822081835260205260408220600160ff198254161790553391600080516020620010f78339815191528180a4600190565b5090565b6001600160a01b031660008181527f6f3b488caa0dc03e5f3d9fd6a25fa8755afcfd62ccffb6e436c696bfa6b866de60205260408120549091907f7935bd0ae54bc31f548c14dba4d37c5c64b3f8ca900cb468fb8abd54d5894f559060ff166200022e57808352826020526040832082845260205260408320600160ff19825416179055600080516020620010f7833981519152339380a4600190565b505090565b6001600160a01b031660008181527ff7c9542c591017a21c74b6f3fab6263c7952fc0aaf9db4c22a2a04ddc7f8674f60205260408120549091907f65d7a28e3265b37a6474929f336521b332c1681b933f6cb9f3376673440d862a9060ff166200022e57808352826020526040832082845260205260408320600160ff19825416179055600080516020620010f7833981519152339380a4600190565b6001600160a01b0316600081815260008051602062001117833981519152602052604081205490919060ff16156200018d5781805281602052604082208183526020526040822060ff19815416905533917ff6391f5c32d9c69d2a47ea670b442974b53935d1edc7fd64eb21e047a839171b8180a460019056fe6080604081815260048036101561001557600080fd5b600092833560e01c90816301ffc9a71461066557508063248a9ca31461063c5780632f2ff15d1461061357806336568abe146105cc5780633f4ba83a146105635780635c975abb1461053f578063724e78da146104eb578063741bef1a146104be5780638456cb591461045357806391d148541461040e57806398d5fdca146103ea578063a217fddf146103cf578063a84f6ebb146103b0578063ccc5749014610375578063ce4391df14610321578063d3a4eb14146102fe578063d547741f146102c0578063e28a1b86146102a1578063e4f53e8514610278578063e63ab1e914610239578063ebfe2593146101db578063fb01e7f2146101875763ff882fbb1461012057600080fd5b3461018357602036600319011261018357803580151580910361017f577f3c6e1d5853de5b39bf9747963b05b9460e59a375d4cd59b3c3daffc201cf7f229260209261016a610771565b60ff1981541660ff841617905551908152a180f35b8380fd5b8280fd5b509034610183576020366003190112610183577f2cfed7ac4be4a0009ef1af32ea2de149e0122938cb9aa4b3f7df3be6da1055e991356101c5610771565b600354908060035582519182526020820152a180f35b82843461023657806003193601126102365760ff6080836101fa610b51565b90919280519586941684526060602085015261022583518094816060880152602088880191016106d4565b830152601f01601f19168101030190f35b80fd5b505034610274578160031936011261027457602090517f65d7a28e3265b37a6474929f336521b332c1681b933f6cb9f3376673440d862a8152f35b5080fd5b82843461023657806003193601126102365750610293610a9e565b825191825215156020820152f35b5050346102745781600319360112610274576020906002549051908152f35b5090346101835780600319360112610183576102fa91356102f560016102e46106b9565b9383875286602052862001546107cd565b610871565b5080f35b5091346102365780600319360112610236575060ff602092541690519015158152f35b509034610183576020366003190112610183577f1c1ae796fc41a2f7b042d5b4b9f7a0f7eee2169bc11e7ba0b3672cfa44f3d0c1913561035f610771565b600254908060025582519182526020820152a180f35b505034610274578160031936011261027457602090517f7935bd0ae54bc31f548c14dba4d37c5c64b3f8ca900cb468fb8abd54d5894f558152f35b5050346102745781600319360112610274576020906003549051908152f35b50503461027457816003193601126102745751908152602090f35b5050346102745781600319360112610274576020906104076109a9565b9051908152f35b50346101835781600319360112610183578160209360ff9261042e6106b9565b903582528186528282206001600160a01b039091168252855220549151911615158152f35b503461018357826003193601126101835761046c6106f7565b6001549060ff82166104b057507f62e78cea01bee320cd4e420270b5ea74000d11b0c9f74754ebdbfc544b05a25891600160209260ff19161760015551338152a180f35b825163d93c066560e01b8152fd5b505034610274578160031936011261027457600154905160089190911c6001600160a01b03168152602090f35b83823461027457602036600319011261027457356001600160a01b038116810361027457610517610771565b60018054610100600160a81b03191660089290921b610100600160a81b031691909117905580f35b50503461027457816003193601126102745760209060ff6001541690519015158152f35b503461018357826003193601126101835761057c6106f7565b6001549060ff8216156105be575060ff1916600155513381527f5db9ee0a495bf2e6ff9c91a7834c1ba4fdd244a5e8aa4e537bd38aeae4b073aa90602090a180f35b8251638dfc202b60e01b8152fd5b509190346102745780600319360112610274576105e76106b9565b90336001600160a01b0383160361060457506102fa919235610871565b5163334bd91960e11b81528390fd5b5090346101835780600319360112610183576102fa913561063760016102e46106b9565b6107f3565b503461018357602036600319011261018357816020936001923581528085522001549051908152f35b92505034610183576020366003190112610183573563ffffffff60e01b81168091036101835760209250637965db0b60e01b81149081156106a8575b5015158152f35b6301ffc9a760e01b149050386106a1565b602435906001600160a01b03821682036106cf57565b600080fd5b60005b8381106106e75750506000910152565b81810151838201526020016106d7565b3360009081527ff7c9542c591017a21c74b6f3fab6263c7952fc0aaf9db4c22a2a04ddc7f8674f60205260409020547f65d7a28e3265b37a6474929f336521b332c1681b933f6cb9f3376673440d862a9060ff16156107535750565b6044906040519063e2517d3f60e01b82523360048301526024820152fd5b3360009081527f6f3b488caa0dc03e5f3d9fd6a25fa8755afcfd62ccffb6e436c696bfa6b866de60205260409020547f7935bd0ae54bc31f548c14dba4d37c5c64b3f8ca900cb468fb8abd54d5894f559060ff16156107535750565b80600052600060205260406000203360005260205260ff60406000205416156107535750565b9060009180835282602052604083209160018060a01b03169182845260205260ff6040842054161560001461086c57808352826020526040832082845260205260408320600160ff198254161790557f2f8788117e7eff1d82e926ec794901d17c78024a50270940304540a733656f0d339380a4600190565b505090565b9060009180835282602052604083209160018060a01b03169182845260205260ff60408420541660001461086c5780835282602052604083208284526020526040832060ff1981541690557ff6391f5c32d9c69d2a47ea670b442974b53935d1edc7fd64eb21e047a839171b339380a4600190565b6040810190811067ffffffffffffffff82111761090257604052565b634e487b7160e01b600052604160045260246000fd5b90601f8019910116810190811067ffffffffffffffff82111761090257604052565b519069ffffffffffffffffffff821682036106cf57565b908160a09103126106cf576109658161093a565b9160208201519160408101519161098360806060840151930161093a565b90565b9190820391821161099357565b634e487b7160e01b600052601160045260246000fd5b60ff600454168015610a88575b610a8257600154604051633fabe5a360e21b81529060a0908290600490829060081c6001600160a01b03165afa806000928392610a4a575b50610a0557604051634d57188360e01b8152600490fd5b610a0f9042610986565b60035410610a38576000811315610a27576064900490565b60405162bfc92160e01b8152600490fd5b604051630cd5fa0760e11b8152600490fd5b909250610a6e915060a03d8111610a7b575b610a668183610918565b810190610951565b50939250509190386109ee565b503d610a5c565b60025490565b5060015460081c6001600160a01b0316156109b6565b60ff600454168015610b3b575b610b3257600154604051633fabe5a360e21b8152919060a0908390600490829060081c6001600160a01b03165afa806000938492610b0a575b50610af457506002549150600190565b610b0060649142610986565b6003541092049190565b909350610b25915060a03d8111610a7b57610a668183610918565b5094925050929038610ae4565b60025490600090565b5060015460081c6001600160a01b031615610aab565b60015460081c6001600160a01b0316908115610d4657604091825163313ce56760e01b81526020918282600481845afa60009281610d0b575b50610bc257505071125b9d985b1a59081c1c9a58d9481999595960721b6000935191610bb5836108e6565b6012835282015290600090565b8451633942720b60e11b815290600082600481845afa60009281610c75575b50610c0d575050662ab735b737bbb760c91b90935191610c00836108e6565b6007835282015290600090565b9260049293819296519384809263054fd4d560e41b82525afa918291600093610c44575b5050610c3f57509190600090565b909291565b8181949293943d8311610c6e575b610c5c8183610918565b81010312610236575051903880610c31565b503d610c52565b9290923d8083833e610c878183610918565b810191868284031261023657815167ffffffffffffffff9283821161018357019083601f83011215610236578151928311610cf757895193610cd2601f8501601f19168a0186610918565b838552888484010111610236575090610cf0918780850191016106d4565b9138610be1565b634e487b7160e01b81526041600452602490fd5b8481819593953d8311610d3f575b610d238183610918565b8101031261027457519060ff8216820361023657509138610b8a565b503d610d19565b60405160009250610d56816108e6565b600d81526c139bc81c1c9a58d94819995959609a1b60208201529060009056fea2646970667358221220423b957306c00eb12a84a4077b412c2152034969c5b0c080b9e935cdfe8c943364736f6c634300081500332f8788117e7eff1d82e926ec794901d17c78024a50270940304540a733656f0dad3228b676f7d3cd4284a5443f17f1962b36e491b30a40b2405849e597ba5fb5",
  "linkReferences": {},
  "deployedLinkReferences": {}
}