{
  "_format": "hh-sol-artifact-1",
  "contractName": "MintRedeemV7",
  "sourceName": "contracts/MintRedeemV7.sol",
  "abi": [
    {
      "inputs": [
        {
          "internalType": "address",
          "name": "_usdc",
          "type": "address"
        },
        {
          "internalType": "address",
          "name": "_bvix",
          "type": "address"
        },
        {
          "internalType": "address",
          "name": "_oracle",
          "type": "address"
        },
        {
          "internalType": "address",
          "name": "initialOwner",
          "type": "address"
        }
      ],
      "stateMutability": "nonpayable",
      "type": "constructor"
    },
    {
      "inputs": [
        {
          "internalType": "address",
          "name": "owner",
          "type": "address"
        }
      ],
      "name": "OwnableInvalidOwner",
      "type": "error"
    },
    {
      "inputs": [
        {
          "internalType": "address",
          "name": "account",
          "type": "address"
        }
      ],
      "name": "OwnableUnauthorizedAccount",
      "type": "error"
    },
    {
      "anonymous": false,
      "inputs": [
        {
          "indexed": true,
          "internalType": "address",
          "name": "user",
          "type": "address"
        },
        {
          "indexed": false,
          "internalType": "uint256",
          "name": "usdcAmount",
          "type": "uint256"
        },
        {
          "indexed": false,
          "internalType": "uint256",
          "name": "bvixMinted",
          "type": "uint256"
        },
        {
          "indexed": false,
          "internalType": "uint256",
          "name": "targetCR",
          "type": "uint256"
        }
      ],
      "name": "Mint",
      "type": "event"
    },
    {
      "anonymous": false,
      "inputs": [
        {
          "indexed": true,
          "internalType": "address",
          "name": "previousOwner",
          "type": "address"
        },
        {
          "indexed": true,
          "internalType": "address",
          "name": "newOwner",
          "type": "address"
        }
      ],
      "name": "OwnershipTransferred",
      "type": "event"
    },
    {
      "anonymous": false,
      "inputs": [
        {
          "indexed": true,
          "internalType": "address",
          "name": "user",
          "type": "address"
        },
        {
          "indexed": false,
          "internalType": "uint256",
          "name": "bvixAmount",
          "type": "uint256"
        },
        {
          "indexed": false,
          "internalType": "uint256",
          "name": "usdcRedeemed",
          "type": "uint256"
        }
      ],
      "name": "Redeem",
      "type": "event"
    },
    {
      "inputs": [],
      "name": "bvix",
      "outputs": [
        {
          "internalType": "contract BVIXToken",
          "name": "",
          "type": "address"
        }
      ],
      "stateMutability": "view",
      "type": "function"
    },
    {
      "inputs": [],
      "name": "getCollateralRatio",
      "outputs": [
        {
          "internalType": "uint256",
          "name": "",
          "type": "uint256"
        }
      ],
      "stateMutability": "view",
      "type": "function"
    },
    {
      "inputs": [
        {
          "internalType": "address",
          "name": "user",
          "type": "address"
        }
      ],
      "name": "getUserCollateralRatio",
      "outputs": [
        {
          "internalType": "uint256",
          "name": "",
          "type": "uint256"
        }
      ],
      "stateMutability": "view",
      "type": "function"
    },
    {
      "inputs": [],
      "name": "minCollateralRatio",
      "outputs": [
        {
          "internalType": "uint256",
          "name": "",
          "type": "uint256"
        }
      ],
      "stateMutability": "view",
      "type": "function"
    },
    {
      "inputs": [],
      "name": "mintFee",
      "outputs": [
        {
          "internalType": "uint256",
          "name": "",
          "type": "uint256"
        }
      ],
      "stateMutability": "view",
      "type": "function"
    },
    {
      "inputs": [
        {
          "internalType": "uint256",
          "name": "amount",
          "type": "uint256"
        },
        {
          "internalType": "uint256",
          "name": "targetCR",
          "type": "uint256"
        }
      ],
      "name": "mintWithCollateralRatio",
      "outputs": [
        {
          "internalType": "uint256",
          "name": "",
          "type": "uint256"
        }
      ],
      "stateMutability": "nonpayable",
      "type": "function"
    },
    {
      "inputs": [],
      "name": "oracle",
      "outputs": [
        {
          "internalType": "contract MockOracle",
          "name": "",
          "type": "address"
        }
      ],
      "stateMutability": "view",
      "type": "function"
    },
    {
      "inputs": [],
      "name": "owner",
      "outputs": [
        {
          "internalType": "address",
          "name": "",
          "type": "address"
        }
      ],
      "stateMutability": "view",
      "type": "function"
    },
    {
      "inputs": [
        {
          "internalType": "address",
          "name": "",
          "type": "address"
        }
      ],
      "name": "positions",
      "outputs": [
        {
          "internalType": "uint256",
          "name": "collateral",
          "type": "uint256"
        },
        {
          "internalType": "uint256",
          "name": "debt",
          "type": "uint256"
        }
      ],
      "stateMutability": "view",
      "type": "function"
    },
    {
      "inputs": [
        {
          "internalType": "uint256",
          "name": "amount",
          "type": "uint256"
        }
      ],
      "name": "redeem",
      "outputs": [
        {
          "internalType": "uint256",
          "name": "",
          "type": "uint256"
        }
      ],
      "stateMutability": "nonpayable",
      "type": "function"
    },
    {
      "inputs": [],
      "name": "redeemFee",
      "outputs": [
        {
          "internalType": "uint256",
          "name": "",
          "type": "uint256"
        }
      ],
      "stateMutability": "view",
      "type": "function"
    },
    {
      "inputs": [],
      "name": "renounceOwnership",
      "outputs": [],
      "stateMutability": "nonpayable",
      "type": "function"
    },
    {
      "inputs": [
        {
          "internalType": "uint256",
          "name": "_mintFee",
          "type": "uint256"
        },
        {
          "internalType": "uint256",
          "name": "_redeemFee",
          "type": "uint256"
        }
      ],
      "name": "setFees",
      "outputs": [],
      "stateMutability": "nonpayable",
      "type": "function"
    },
    {
      "inputs": [],
      "name": "totalCollateral",
      "outputs": [
        {
          "internalType": "uint256",
          "name": "",
          "type": "uint256"
        }
      ],
      "stateMutability": "view",
      "type": "function"
    },
    {
      "inputs": [],
      "name": "totalDebt",
      "outputs": [
        {
          "internalType": "uint256",
          "name": "",
          "type": "uint256"
        }
      ],
      "stateMutability": "view",
      "type": "function"
    },
    {
      "inputs": [
        {
          "internalType": "address",
          "name": "newOwner",
          "type": "address"
        }
      ],
      "name": "transferOwnership",
      "outputs": [],
      "stateMutability": "nonpayable",
      "type": "function"
    },
    {
      "inputs": [],
      "name": "usdc",
      "outputs": [
        {
          "internalType": "contract IERC20",
          "name": "",
          "type": "address"
        }
      ],
      "stateMutability": "view",
      "type": "function"
    }
  ],
  "bytecode": "0x60803461011a57601f610f2d38819003918201601f19168301916001600160401b0383118484101761011f5780849260809460405283398101031261011a5761004781610135565b90606061005660208301610135565b9161006360408201610135565b6001600160a01b03929091839161007a9101610135565b1692831561010157600080546001600160a01b03198082168717835560405197909686949385938416907f8be0079c531659141344cd1fd0a4f28419497f9722a3daafe3b4186f6b6457e09080a3601e600455601e6005556078600655168560015416176001551683600254161760025516906003541617600355610de3908161014a8239f35b604051631e4fbdf760e01b815260006004820152602490fd5b600080fd5b634e487b7160e01b600052604160045260246000fd5b51906001600160a01b038216820361011a5756fe6040608081526004908136101561001557600080fd5b600091823560e01c9081630b78f9c0146109c457816310b45de11461099357816313966db5146109755781633e413bee1461094c5781634ac8eb5f1461092d57816355f57510146108e95781636008d28b1461054e578163715018a6146104f15781637dc0d1d0146104c857816384da2666146104a95781638da5cb5b14610481578163965fa21e146104625781639f80fb4e14610439578163cd377c5314610415578163db006a751461019c578163f2fde38b146100ff575063fc7b9c18146100de57600080fd5b346100fb57816003193601126100fb576020906008549051908152f35b5080fd5b91905034610198576020366003190112610198576001600160a01b0382358181169391929084900361019457610133610a52565b831561017e575050600054826bffffffffffffffffffffffff60a01b821617600055167f8be0079c531659141344cd1fd0a4f28419497f9722a3daafe3b4186f6b6457e0600080a380f35b51631e4fbdf760e01b8152908101849052602490fd5b8480fd5b8280fd5b919050346101985760209182600319360112610411578035906101c0821515610a7e565b338552600984528285209460018601918254928484106103da576003548651634c6afee560e11b81526001600160a01b03959189908290869082908a165afa9081156103d05785916103a1575b5091610265876102359a9b9361022661026f9683610b0b565b5061023a8186549d8e85610b0b565b610b34565b9461025e8661025861271061025160055484610b0b565b0482610b54565b9e610b54565b9055610b54565b9055600754610b54565b60075561027e84600854610b54565b6008558260025416803b15610198578551632770a7eb60e21b815233838201908152602081018790529091849183919082908490829060400103925af18015610397579187918993610384575b50600154875163a9059cbb60e01b815233928101928352602083019390935293949193849216908290869082906040015b03925af191821561037957906103179261034c575b50610b86565b815190815282848201527fe5b754fb1abb7f01b499791d0b820ae3b6af3424ac1c59768edb53f4ec31a929823392a251908152f35b61036c9150863d8811610372575b6103648183610ae9565b810190610b6e565b38610311565b503d61035a565b8451903d90823e3d90fd5b936103916102fc95610abf565b936102cb565b86513d85823e3d90fd5b90508881813d83116103c9575b6103b88183610ae9565b81010312610194575161026561020d565b503d6103ae565b88513d87823e3d90fd5b855162461bcd60e51b81528083018890526011602482015270125b9cdd59999a58da595b9d081919589d607a1b6044820152606490fd5b8380fd5b5050346100fb57816003193601126100fb57602090610432610bc4565b9051908152f35b5050346100fb57816003193601126100fb5760025490516001600160a01b039091168152602090f35b5050346100fb57816003193601126100fb576020906005549051908152f35b5050346100fb57816003193601126100fb57905490516001600160a01b039091168152602090f35b5050346100fb57816003193601126100fb576020906006549051908152f35b5050346100fb57816003193601126100fb5760035490516001600160a01b039091168152602090f35b833461054b578060031936011261054b5761050a610a52565b80546001600160a01b03198116825581906001600160a01b03167f8be0079c531659141344cd1fd0a4f28419497f9722a3daafe3b4186f6b6457e08280a380f35b80fd5b919050346101985761055f36610a37565b61056a821515610a7e565b6078811015806108dd575b156108a7576003548351634c6afee560e11b8152602096909590916001600160a01b0390889088908490829085165afa968715610397578397610878575b506105cc6127106105c5845488610b0b565b0486610b54565b60649081810281810483148215171561086557866105e991610b34565b64e8d4a510009081810290808204831481151715610852576c0c9f2c9cd04674edea4000000002670de0b6b3a764000091808204831490151715610852578b61063191610b34565b9a8b1561081d579061065c8c939261065761064e87600754610b61565b95600854610b61565b610b0b565b0404908381029080820485149015171561080a579061067a91610b34565b600654116107d25784916106c28b92338552600984528a852061069e828254610b61565b90553385526009845260018b8620016106b88d8254610b61565b9055600754610b61565b6007556106d18a600854610b61565b6008558360015416908951809481936323b872dd60e01b835233898401523060248401528b60448401525af19081156107c857906107159185916107b15750610b86565b6002541690813b156101985785516340c10f1960e01b815233918101918252602082018890529291829184919082908490829060400103925af19081156107a65750610797575b5082519182528385830152828201527fb4c03061fb5b7fed76389d5af8f2e0ddb09f8c70d1333abbb62582835e10accb60603392a251908152f35b6107a090610abf565b3861075c565b8551903d90823e3d90fd5b61036c91508a3d8c11610372576103648183610ae9565b87513d86823e3d90fd5b50865162461bcd60e51b81528084018a905260146024820152732bb7bab632103b34b7b630ba329036b4b71021a960611b6044820152fd5b634e487b7160e01b875260118652602487fd5b8a5162461bcd60e51b81528088018e9052601060248201526f105b5bdd5b9d081d1bdbc81cdb585b1b60821b60448201528590fd5b634e487b7160e01b885260118752602488fd5b634e487b7160e01b865260118552602486fd5b9096508781813d83116108a0575b6108908183610ae9565b81010312610198575195386105b3565b503d610886565b825162461bcd60e51b8152602081860152601060248201526f496e76616c69642043522072616e676560801b6044820152606490fd5b5061012c811115610575565b90503461019857602036600319011261019857356001600160a01b038116908190036101985791819281526009602052206001815491015482519182526020820152f35b5050346100fb57816003193601126100fb576020906007549051908152f35b5050346100fb57816003193601126100fb5760015490516001600160a01b039091168152602090f35b90503461019857826003193601126101985760209250549051908152f35b9050346101985760203660031901126101985735916001600160a01b038316830361054b5750610432602092610c8f565b91905034610198576109d536610a37565b9290916109e0610a52565b6101f4808411159081610a2c575b50156109fc57505560055580f35b906020606492519162461bcd60e51b8352820152600a6024820152694d61782035252066656560b01b6044820152fd5b9050841115386109ee565b6040906003190112610a4d576004359060243590565b600080fd5b6000546001600160a01b03163303610a6657565b60405163118cdaa760e01b8152336004820152602490fd5b15610a8557565b60405162461bcd60e51b81526020600482015260126024820152710416d6f756e74206d757374206265203e20360741b6044820152606490fd5b67ffffffffffffffff8111610ad357604052565b634e487b7160e01b600052604160045260246000fd5b90601f8019910116810190811067ffffffffffffffff821117610ad357604052565b81810292918115918404141715610b1e57565b634e487b7160e01b600052601160045260246000fd5b8115610b3e570490565b634e487b7160e01b600052601260045260246000fd5b91908203918211610b1e57565b91908201809211610b1e57565b90816020910312610a4d57518015158103610a4d5790565b15610b8d57565b60405162461bcd60e51b815260206004820152600f60248201526e151c985b9cd9995c8819985a5b1959608a1b6044820152606490fd5b6008548015610c8957600354604051634c6afee560e11b815290602090829060049082906001600160a01b03165afa908115610c7d57600091610c3f575b50610c1b906c0c9f2c9cd04674edea4000000092610b0b565b0460075490606482029180830460641490151715610b1e57610c3c91610b34565b90565b906020823d8211610c75575b81610c5860209383610ae9565b8101031261054b5750516c0c9f2c9cd04674edea40000000610c02565b3d9150610c4b565b6040513d6000823e3d90fd5b50600090565b6001600160a01b0390811660009081526009602090815260408083208151939594929084830167ffffffffffffffff811186821017610d995783528054855260010154818501818152939015610d9257908060049260035416845193848092634c6afee560e11b82525afa928315610d8957508692610d59575b5050610d24906c0c9f2c9cd04674edea400000009251610b0b565b049051606481029080820460641490151715610d4557610c3c929350610b34565b634e487b7160e01b84526011600452602484fd5b90809250813d8311610d82575b610d708183610ae9565b81010312610194575181610d24610d09565b503d610d66565b513d88823e3d90fd5b5050505050565b634e487b7160e01b88526041600452602488fdfea2646970667358221220a295b6162f964b3a48f97a93157afaac2ed834970ca4b54b46f58975d1349d5e64736f6c63430008150033",
  "linkReferences": {},
  "deployedLinkReferences": {}
}