{
  "_format": "hh-sol-artifact-1",
  "contractName": "MintRedeemV7",
  "sourceName": "contracts/MintRedeemV7.sol",
  "abi": [
    {
      "inputs": [
        {
          "internalType": "address",
          "name": "_usdc",
          "type": "address"
        },
        {
          "internalType": "address",
          "name": "_bvix",
          "type": "address"
        },
        {
          "internalType": "address",
          "name": "_oracle",
          "type": "address"
        },
        {
          "internalType": "address",
          "name": "_governor",
          "type": "address"
        }
      ],
      "stateMutability": "nonpayable",
      "type": "constructor"
    },
    {
      "inputs": [],
      "name": "AccessControlBadConfirmation",
      "type": "error"
    },
    {
      "inputs": [
        {
          "internalType": "address",
          "name": "account",
          "type": "address"
        },
        {
          "internalType": "bytes32",
          "name": "neededRole",
          "type": "bytes32"
        }
      ],
      "name": "AccessControlUnauthorizedAccount",
      "type": "error"
    },
    {
      "inputs": [],
      "name": "EnforcedPause",
      "type": "error"
    },
    {
      "inputs": [],
      "name": "ExpectedPause",
      "type": "error"
    },
    {
      "inputs": [],
      "name": "InsufficientCollateral",
      "type": "error"
    },
    {
      "inputs": [],
      "name": "InvalidAmount",
      "type": "error"
    },
    {
      "inputs": [],
      "name": "InvalidCollateralRatio",
      "type": "error"
    },
    {
      "inputs": [],
      "name": "LiquidationNotAllowed",
      "type": "error"
    },
    {
      "inputs": [],
      "name": "PositionNotFound",
      "type": "error"
    },
    {
      "inputs": [],
      "name": "ReentrancyGuardReentrantCall",
      "type": "error"
    },
    {
      "inputs": [],
      "name": "TransferFailed",
      "type": "error"
    },
    {
      "anonymous": false,
      "inputs": [
        {
          "indexed": false,
          "internalType": "uint256",
          "name": "oldMinCR",
          "type": "uint256"
        },
        {
          "indexed": false,
          "internalType": "uint256",
          "name": "newMinCR",
          "type": "uint256"
        }
      ],
      "name": "CollateralRatioUpdated",
      "type": "event"
    },
    {
      "anonymous": false,
      "inputs": [
        {
          "indexed": false,
          "internalType": "uint256",
          "name": "oldMintFee",
          "type": "uint256"
        },
        {
          "indexed": false,
          "internalType": "uint256",
          "name": "newMintFee",
          "type": "uint256"
        },
        {
          "indexed": false,
          "internalType": "uint256",
          "name": "oldRedeemFee",
          "type": "uint256"
        },
        {
          "indexed": false,
          "internalType": "uint256",
          "name": "newRedeemFee",
          "type": "uint256"
        }
      ],
      "name": "FeesUpdated",
      "type": "event"
    },
    {
      "anonymous": false,
      "inputs": [
        {
          "indexed": true,
          "internalType": "address",
          "name": "user",
          "type": "address"
        },
        {
          "indexed": true,
          "internalType": "address",
          "name": "liquidator",
          "type": "address"
        },
        {
          "indexed": false,
          "internalType": "uint256",
          "name": "debtRepaid",
          "type": "uint256"
        },
        {
          "indexed": false,
          "internalType": "uint256",
          "name": "collateralSeized",
          "type": "uint256"
        }
      ],
      "name": "Liquidation",
      "type": "event"
    },
    {
      "anonymous": false,
      "inputs": [
        {
          "indexed": false,
          "internalType": "uint256",
          "name": "oldThreshold",
          "type": "uint256"
        },
        {
          "indexed": false,
          "internalType": "uint256",
          "name": "newThreshold",
          "type": "uint256"
        },
        {
          "indexed": false,
          "internalType": "uint256",
          "name": "oldBonus",
          "type": "uint256"
        },
        {
          "indexed": false,
          "internalType": "uint256",
          "name": "newBonus",
          "type": "uint256"
        }
      ],
      "name": "LiquidationParamsUpdated",
      "type": "event"
    },
    {
      "anonymous": false,
      "inputs": [
        {
          "indexed": true,
          "internalType": "address",
          "name": "user",
          "type": "address"
        },
        {
          "indexed": false,
          "internalType": "uint256",
          "name": "usdcAmount",
          "type": "uint256"
        },
        {
          "indexed": false,
          "internalType": "uint256",
          "name": "bvixMinted",
          "type": "uint256"
        },
        {
          "indexed": false,
          "internalType": "uint256",
          "name": "targetCR",
          "type": "uint256"
        }
      ],
      "name": "Mint",
      "type": "event"
    },
    {
      "anonymous": false,
      "inputs": [
        {
          "indexed": false,
          "internalType": "address",
          "name": "account",
          "type": "address"
        }
      ],
      "name": "Paused",
      "type": "event"
    },
    {
      "anonymous": false,
      "inputs": [
        {
          "indexed": true,
          "internalType": "address",
          "name": "user",
          "type": "address"
        },
        {
          "indexed": false,
          "internalType": "uint256",
          "name": "bvixAmount",
          "type": "uint256"
        },
        {
          "indexed": false,
          "internalType": "uint256",
          "name": "usdcRedeemed",
          "type": "uint256"
        }
      ],
      "name": "Redeem",
      "type": "event"
    },
    {
      "anonymous": false,
      "inputs": [
        {
          "indexed": true,
          "internalType": "bytes32",
          "name": "role",
          "type": "bytes32"
        },
        {
          "indexed": true,
          "internalType": "bytes32",
          "name": "previousAdminRole",
          "type": "bytes32"
        },
        {
          "indexed": true,
          "internalType": "bytes32",
          "name": "newAdminRole",
          "type": "bytes32"
        }
      ],
      "name": "RoleAdminChanged",
      "type": "event"
    },
    {
      "anonymous": false,
      "inputs": [
        {
          "indexed": true,
          "internalType": "bytes32",
          "name": "role",
          "type": "bytes32"
        },
        {
          "indexed": true,
          "internalType": "address",
          "name": "account",
          "type": "address"
        },
        {
          "indexed": true,
          "internalType": "address",
          "name": "sender",
          "type": "address"
        }
      ],
      "name": "RoleGranted",
      "type": "event"
    },
    {
      "anonymous": false,
      "inputs": [
        {
          "indexed": true,
          "internalType": "bytes32",
          "name": "role",
          "type": "bytes32"
        },
        {
          "indexed": true,
          "internalType": "address",
          "name": "account",
          "type": "address"
        },
        {
          "indexed": true,
          "internalType": "address",
          "name": "sender",
          "type": "address"
        }
      ],
      "name": "RoleRevoked",
      "type": "event"
    },
    {
      "anonymous": false,
      "inputs": [
        {
          "indexed": false,
          "internalType": "address",
          "name": "account",
          "type": "address"
        }
      ],
      "name": "Unpaused",
      "type": "event"
    },
    {
      "inputs": [],
      "name": "DEFAULT_ADMIN_ROLE",
      "outputs": [
        {
          "internalType": "bytes32",
          "name": "",
          "type": "bytes32"
        }
      ],
      "stateMutability": "view",
      "type": "function"
    },
    {
      "inputs": [],
      "name": "GOVERNOR_ROLE",
      "outputs": [
        {
          "internalType": "bytes32",
          "name": "",
          "type": "bytes32"
        }
      ],
      "stateMutability": "view",
      "type": "function"
    },
    {
      "inputs": [],
      "name": "LIQUIDATOR_ROLE",
      "outputs": [
        {
          "internalType": "bytes32",
          "name": "",
          "type": "bytes32"
        }
      ],
      "stateMutability": "view",
      "type": "function"
    },
    {
      "inputs": [],
      "name": "PAUSER_ROLE",
      "outputs": [
        {
          "internalType": "bytes32",
          "name": "",
          "type": "bytes32"
        }
      ],
      "stateMutability": "view",
      "type": "function"
    },
    {
      "inputs": [],
      "name": "bvix",
      "outputs": [
        {
          "internalType": "contract BVIXToken",
          "name": "",
          "type": "address"
        }
      ],
      "stateMutability": "view",
      "type": "function"
    },
    {
      "inputs": [],
      "name": "getCollateralRatio",
      "outputs": [
        {
          "internalType": "uint256",
          "name": "",
          "type": "uint256"
        }
      ],
      "stateMutability": "view",
      "type": "function"
    },
    {
      "inputs": [
        {
          "internalType": "address",
          "name": "user",
          "type": "address"
        }
      ],
      "name": "getLiquidationPrice",
      "outputs": [
        {
          "internalType": "uint256",
          "name": "",
          "type": "uint256"
        }
      ],
      "stateMutability": "view",
      "type": "function"
    },
    {
      "inputs": [
        {
          "internalType": "bytes32",
          "name": "role",
          "type": "bytes32"
        }
      ],
      "name": "getRoleAdmin",
      "outputs": [
        {
          "internalType": "bytes32",
          "name": "",
          "type": "bytes32"
        }
      ],
      "stateMutability": "view",
      "type": "function"
    },
    {
      "inputs": [
        {
          "internalType": "address",
          "name": "user",
          "type": "address"
        }
      ],
      "name": "getUserCollateralRatio",
      "outputs": [
        {
          "internalType": "uint256",
          "name": "",
          "type": "uint256"
        }
      ],
      "stateMutability": "view",
      "type": "function"
    },
    {
      "inputs": [
        {
          "internalType": "bytes32",
          "name": "role",
          "type": "bytes32"
        },
        {
          "internalType": "address",
          "name": "account",
          "type": "address"
        }
      ],
      "name": "grantRole",
      "outputs": [],
      "stateMutability": "nonpayable",
      "type": "function"
    },
    {
      "inputs": [
        {
          "internalType": "bytes32",
          "name": "role",
          "type": "bytes32"
        },
        {
          "internalType": "address",
          "name": "account",
          "type": "address"
        }
      ],
      "name": "hasRole",
      "outputs": [
        {
          "internalType": "bool",
          "name": "",
          "type": "bool"
        }
      ],
      "stateMutability": "view",
      "type": "function"
    },
    {
      "inputs": [
        {
          "internalType": "address",
          "name": "user",
          "type": "address"
        }
      ],
      "name": "liquidate",
      "outputs": [],
      "stateMutability": "nonpayable",
      "type": "function"
    },
    {
      "inputs": [],
      "name": "liquidationBonus",
      "outputs": [
        {
          "internalType": "uint256",
          "name": "",
          "type": "uint256"
        }
      ],
      "stateMutability": "view",
      "type": "function"
    },
    {
      "inputs": [],
      "name": "liquidationThreshold",
      "outputs": [
        {
          "internalType": "uint256",
          "name": "",
          "type": "uint256"
        }
      ],
      "stateMutability": "view",
      "type": "function"
    },
    {
      "inputs": [],
      "name": "minCollateralRatio",
      "outputs": [
        {
          "internalType": "uint256",
          "name": "",
          "type": "uint256"
        }
      ],
      "stateMutability": "view",
      "type": "function"
    },
    {
      "inputs": [],
      "name": "mintFee",
      "outputs": [
        {
          "internalType": "uint256",
          "name": "",
          "type": "uint256"
        }
      ],
      "stateMutability": "view",
      "type": "function"
    },
    {
      "inputs": [
        {
          "internalType": "uint256",
          "name": "amount",
          "type": "uint256"
        },
        {
          "internalType": "uint256",
          "name": "targetCR",
          "type": "uint256"
        }
      ],
      "name": "mintWithCollateralRatio",
      "outputs": [
        {
          "internalType": "uint256",
          "name": "",
          "type": "uint256"
        }
      ],
      "stateMutability": "nonpayable",
      "type": "function"
    },
    {
      "inputs": [],
      "name": "oracle",
      "outputs": [
        {
          "internalType": "contract PriceOracle",
          "name": "",
          "type": "address"
        }
      ],
      "stateMutability": "view",
      "type": "function"
    },
    {
      "inputs": [],
      "name": "pause",
      "outputs": [],
      "stateMutability": "nonpayable",
      "type": "function"
    },
    {
      "inputs": [],
      "name": "paused",
      "outputs": [
        {
          "internalType": "bool",
          "name": "",
          "type": "bool"
        }
      ],
      "stateMutability": "view",
      "type": "function"
    },
    {
      "inputs": [
        {
          "internalType": "address",
          "name": "",
          "type": "address"
        }
      ],
      "name": "positions",
      "outputs": [
        {
          "internalType": "uint256",
          "name": "collateral",
          "type": "uint256"
        },
        {
          "internalType": "uint256",
          "name": "debt",
          "type": "uint256"
        }
      ],
      "stateMutability": "view",
      "type": "function"
    },
    {
      "inputs": [
        {
          "internalType": "uint256",
          "name": "amount",
          "type": "uint256"
        }
      ],
      "name": "redeem",
      "outputs": [
        {
          "internalType": "uint256",
          "name": "",
          "type": "uint256"
        }
      ],
      "stateMutability": "nonpayable",
      "type": "function"
    },
    {
      "inputs": [],
      "name": "redeemFee",
      "outputs": [
        {
          "internalType": "uint256",
          "name": "",
          "type": "uint256"
        }
      ],
      "stateMutability": "view",
      "type": "function"
    },
    {
      "inputs": [
        {
          "internalType": "bytes32",
          "name": "role",
          "type": "bytes32"
        },
        {
          "internalType": "address",
          "name": "callerConfirmation",
          "type": "address"
        }
      ],
      "name": "renounceRole",
      "outputs": [],
      "stateMutability": "nonpayable",
      "type": "function"
    },
    {
      "inputs": [
        {
          "internalType": "bytes32",
          "name": "role",
          "type": "bytes32"
        },
        {
          "internalType": "address",
          "name": "account",
          "type": "address"
        }
      ],
      "name": "revokeRole",
      "outputs": [],
      "stateMutability": "nonpayable",
      "type": "function"
    },
    {
      "inputs": [
        {
          "internalType": "uint256",
          "name": "_mintFee",
          "type": "uint256"
        },
        {
          "internalType": "uint256",
          "name": "_redeemFee",
          "type": "uint256"
        }
      ],
      "name": "setFees",
      "outputs": [],
      "stateMutability": "nonpayable",
      "type": "function"
    },
    {
      "inputs": [
        {
          "internalType": "uint256",
          "name": "_threshold",
          "type": "uint256"
        },
        {
          "internalType": "uint256",
          "name": "_bonus",
          "type": "uint256"
        }
      ],
      "name": "setLiquidationParams",
      "outputs": [],
      "stateMutability": "nonpayable",
      "type": "function"
    },
    {
      "inputs": [
        {
          "internalType": "uint256",
          "name": "_minCR",
          "type": "uint256"
        }
      ],
      "name": "setMinCollateralRatio",
      "outputs": [],
      "stateMutability": "nonpayable",
      "type": "function"
    },
    {
      "inputs": [
        {
          "internalType": "bytes4",
          "name": "interfaceId",
          "type": "bytes4"
        }
      ],
      "name": "supportsInterface",
      "outputs": [
        {
          "internalType": "bool",
          "name": "",
          "type": "bool"
        }
      ],
      "stateMutability": "view",
      "type": "function"
    },
    {
      "inputs": [
        {
          "internalType": "address",
          "name": "token",
          "type": "address"
        },
        {
          "internalType": "address",
          "name": "to",
          "type": "address"
        },
        {
          "internalType": "uint256",
          "name": "amount",
          "type": "uint256"
        }
      ],
      "name": "sweepTokens",
      "outputs": [],
      "stateMutability": "nonpayable",
      "type": "function"
    },
    {
      "inputs": [],
      "name": "totalCollateral",
      "outputs": [
        {
          "internalType": "uint256",
          "name": "",
          "type": "uint256"
        }
      ],
      "stateMutability": "view",
      "type": "function"
    },
    {
      "inputs": [],
      "name": "totalDebt",
      "outputs": [
        {
          "internalType": "uint256",
          "name": "",
          "type": "uint256"
        }
      ],
      "stateMutability": "view",
      "type": "function"
    },
    {
      "inputs": [],
      "name": "unpause",
      "outputs": [],
      "stateMutability": "nonpayable",
      "type": "function"
    },
    {
      "inputs": [],
      "name": "usdc",
      "outputs": [
        {
          "internalType": "contract IERC20",
          "name": "",
          "type": "address"
        }
      ],
      "stateMutability": "view",
      "type": "function"
    }
  ],
  "bytecode": "0x60e0346200016257601f62001d8038819003918201601f19168301916001600160401b03831184841017620001675780849260809460405283398101031262000162578062000052620000dd926200017d565b9062000061602082016200017d565b906200007e606062000076604084016200017d565b92016200017d565b9260018055601e600355601e60045560786005556078600655600560075560018060a01b0392838092166080521660a0521660c052620000be8162000192565b50620000ca8162000201565b50620000d681620002a3565b5062000340565b50620000e933620003dd565b506040516118e89081620004588239608051818181610399015281816109e601528181610cd70152610f9f015260a0518181816103060152818161061901528181610a1f0152610f08015260c051818181610258015281816107df0152818161088201528181610e42015281816115a201526116b30152f35b600080fd5b634e487b7160e01b600052604160045260246000fd5b51906001600160a01b03821682036200016257565b6001600160a01b0316600081815260008051602062001d60833981519152602052604081205490919060ff16620001fd57818052816020526040822081835260205260408220600160ff19825416179055339160008051602062001d408339815191528180a4600190565b5090565b6001600160a01b031660008181527f6f3b488caa0dc03e5f3d9fd6a25fa8755afcfd62ccffb6e436c696bfa6b866de60205260408120549091907f7935bd0ae54bc31f548c14dba4d37c5c64b3f8ca900cb468fb8abd54d5894f559060ff166200029e57808352826020526040832082845260205260408320600160ff1982541617905560008051602062001d40833981519152339380a4600190565b505090565b6001600160a01b031660008181527ff7c9542c591017a21c74b6f3fab6263c7952fc0aaf9db4c22a2a04ddc7f8674f60205260408120549091907f65d7a28e3265b37a6474929f336521b332c1681b933f6cb9f3376673440d862a9060ff166200029e57808352826020526040832082845260205260408320600160ff1982541617905560008051602062001d40833981519152339380a4600190565b6001600160a01b031660008181527fbcea842b576603bd7a3cd6bbb61cb6c1908ae113af80c7a38f32f896fbaa454460205260408120549091907f5e17fc5225d4a099df75359ce1f405503ca79498a8dc46a7d583235a0ee45c169060ff166200029e57808352826020526040832082845260205260408320600160ff1982541617905560008051602062001d40833981519152339380a4600190565b6001600160a01b0316600081815260008051602062001d60833981519152602052604081205490919060ff1615620001fd5781805281602052604082208183526020526040822060ff19815416905533917ff6391f5c32d9c69d2a47ea670b442974b53935d1edc7fd64eb21e047a839171b8180a460019056fe608060408181526004918236101561001657600080fd5b600092833560e01c91826301ffc9a714611255575081630b78f9c0146111e857816310b45de1146111c257816313966db5146111a357816316d8887a1461116857816317d8de8214611142578163248a9ca3146111185781632f2ff15d146110ee5781632f86556814610da157816336568abe14610d5b5781633853627514610d065781633e413bee14610cc25781633f4ba83a14610c585781634031234c14610c395781634ac8eb5f14610c1a57816355f5751014610bd85781635c975abb14610bb45781636008d28b1461082d5781637b7c1f4c1461080e5781637dc0d1d0146107ca5781638456cb591461076f57816384da2666146107505781638b6ca32c146106ab57816391d1485414610666578163965fa21e146106485781639f80fb4e14610604578163a217fddf146105e9578163c6e7275d14610572578163ccc5749014610537578163cd377c5314610513578163d547741f146104cc578163db006a75146101f657508063e63ab1e9146101bc5763fc7b9c181461019b57600080fd5b346101b857816003193601126101b857602090600a549051908152f35b5080fd5b50346101b857816003193601126101b857602090517f65d7a28e3265b37a6474929f336521b332c1681b933f6cb9f3376673440d862a8152f35b8383346101b8576020928360031936011261046c57803590610216611465565b61021e611447565b81156104be5733845260088552828420936001850180548481106104ae578551634c6afee560e11b81526001600160a01b039290898187817f000000000000000000000000000000000000000000000000000000000000000088165afa80156104a4578590610470575b6102939150876113cc565b5087549186816102a385836113cc565b906102ad916113f5565b998a9488546102bc90876113cc565b61271090046102cb9087611415565b9b6102d591611415565b90556102e091611415565b9055600954906102ef91611415565b60095583600a549061030091611415565b600a55807f000000000000000000000000000000000000000000000000000000000000000016803b1561046c578551632770a7eb60e21b815233858201908152602081018790529091849183919082908490829060400103925af180156104625790839161044e575b5050845163a9059cbb60e01b815233848201908152602081018890529091889183919082908690829060400103927f0000000000000000000000000000000000000000000000000000000000000000165af19182156104435791610416575b50156104085750815190815282848201527fe5b754fb1abb7f01b499791d0b820ae3b6af3424ac1c59768edb53f4ec31a929823392a26001805551908152f35b82516312171d8360e31b8152fd5b6104369150863d881161043c575b61042e81836113aa565b81019061142f565b866103c8565b503d610424565b8551903d90823e3d90fd5b61045790611364565b6101b8578188610369565b86513d85823e3d90fd5b8280fd5b508981813d831161049d575b61048681836113aa565b81010312610498576102939051610288565b600080fd5b503d61047c565b88513d87823e3d90fd5b8551633a23d82560e01b81528490fd5b825163162908e360e11b8152fd5b9190503461046c578060031936011261046c5761050f913561050a60016104f16112d4565b936104fa611488565b838752866020528620015461155e565b6112ea565b5080f35b5050346101b857816003193601126101b857602090610530611584565b9051908152f35b5050346101b857816003193601126101b857602090517f7935bd0ae54bc31f548c14dba4d37c5c64b3f8ca900cb468fb8abd54d5894f558152f35b5050346101b8576105e37f61c468e821b1662263e339e465b2b8aa3c36b504f804ffac4a19ad8eae3df813916105a7366112a8565b6105b2939193611488565b6006549260075490856006558260075551948594859094939260609260808301968352602083015260408201520152565b0390a180f35b5050346101b857816003193601126101b85751908152602090f35b5050346101b857816003193601126101b857517f00000000000000000000000000000000000000000000000000000000000000006001600160a01b03168152602090f35b90503461046c578260031936011261046c5760209250549051908152f35b90503461046c578160031936011261046c57816020936106846112d4565b92358152808552209060018060a01b0316600052825260ff81600020541690519015158152f35b9190503461046c57606036600319011261046c576020610713926106cd6112be565b6106d56112d4565b6106dd611488565b845163a9059cbb60e01b81526001600160a01b039091169281019283526044356020840152948592839188918391604090910190565b03926001600160a01b03165af19081156107475750610730575080f35b61050f9060203d811161043c5761042e81836113aa565b513d84823e3d90fd5b5050346101b857816003193601126101b8576020906005549051908152f35b5050346101b857816003193601126101b85760207f62e78cea01bee320cd4e420270b5ea74000d11b0c9f74754ebdbfc544b05a258916107ad611502565b6107b5611447565b600160ff19600254161760025551338152a180f35b5050346101b857816003193601126101b857517f00000000000000000000000000000000000000000000000000000000000000006001600160a01b03168152602090f35b5050346101b857816003193601126101b8576020906007549051908152f35b9190503461046c5761083e366112a8565b610846611465565b61084e611447565b8115610ba557607881108015610b9a575b610b8b578251634c6afee560e11b815260209590946001600160a01b03878783817f000000000000000000000000000000000000000000000000000000000000000085165afa968715610462578397610b5c575b506108cd6127106108c6600354886113cc565b0486611415565b6064810281810460641482151715610b4957856108e9916113f5565b6c0c9f2c9cd04674edea4000000090818102918183041490151715610b495788610912916113f5565b978815610b395764e8d4a51000670de0b6b3a764000061094961093785600954611422565b936109448d600a54611422565b6113cc565b040490606481029080820460641490151715610b265790610969916113f5565b60055411610b16576109ae9033855260088a5287852061098a828254611422565b905533855260088a526001888620016109a48a8254611422565b9055600954611422565b6009556109bd87600a54611422565b600a5585516323b872dd60e01b81523383820152306024820152604481018690528881606481877f000000000000000000000000000000000000000000000000000000000000000087165af1908115610b0c578491610aef575b5015610ae0577f00000000000000000000000000000000000000000000000000000000000000001690813b1561046c5785516340c10f1960e01b8152339181019182526020820188905291839183919082908490829060400103925af18015610ad657610abf575b505082519182528385830152828201527fb4c03061fb5b7fed76389d5af8f2e0ddb09f8c70d1333abbb62582835e10accb60603392a26001805551908152f35b610ac98291611364565b610ad35780610a7f565b80fd5b85513d84823e3d90fd5b5084516312171d8360e31b8152fd5b610b069150893d8b1161043c5761042e81836113aa565b38610a17565b87513d86823e3d90fd5b865163a7967db160e01b81528390fd5b634e487b7160e01b865260118552602486fd5b875163162908e360e11b81528490fd5b634e487b7160e01b855260118452602485fd5b9096508781813d8311610b84575b610b7481836113aa565b81010312610498575195386108b3565b503d610b6a565b50505163a7967db160e01b8152fd5b5061012c811161085f565b50505163162908e360e11b8152fd5b5050346101b857816003193601126101b85760209060ff6002541690519015158152f35b5050346101b85760203660031901126101b8579081906001600160a01b03610bfe6112be565b1681526008602052206001815491015482519182526020820152f35b5050346101b857816003193601126101b8576020906009549051908152f35b5050346101b857816003193601126101b8576020906006549051908152f35b90503461046c578260031936011261046c57610c72611502565b6002549060ff821615610cb4575060ff1916600255513381527f5db9ee0a495bf2e6ff9c91a7834c1ba4fdd244a5e8aa4e537bd38aeae4b073aa90602090a180f35b8251638dfc202b60e01b8152fd5b5050346101b857816003193601126101b857517f00000000000000000000000000000000000000000000000000000000000000006001600160a01b03168152602090f35b9190503461046c57602036600319011261046c577fea851fc89ebccda62380b76fc8e8317f0bcd4d75ea908cf501bd2ebc6ac1c8f29135610d45611488565b600554908060055582519182526020820152a180f35b8383346101b857806003193601126101b857610d756112d4565b90336001600160a01b03831603610d92575061050f9192356112ea565b5163334bd91960e11b81528390fd5b90503461046c57602091826003193601126110ea57610dbe6112be565b92610dc7611465565b610dcf611447565b7f5e17fc5225d4a099df75359ce1f405503ca79498a8dc46a7d583235a0ee45c16808652858252828620338752825260ff8387205416156110cc575060018060a01b0390818516938487526008825283872092600184019687549788156110bc578651634c6afee560e11b8152858186817f000000000000000000000000000000000000000000000000000000000000000088165afa9081156110b2578b9161107f575b50610e8c6c0c9f2c9cd04674edea40000000918b6113cc565b04865490606482028281046064148315171561106c5790610eac916113f5565b600654111561105d57908a610ecd8b610ec8610ef295826113cc565b6113f5565b9181610ee76064610ee0600754876113cc565b0485611422565b995555600954611415565b600955610f0188600a54611415565b600a5588827f00000000000000000000000000000000000000000000000000000000000000001691823b156101b8578751632770a7eb60e21b81526001600160a01b03909116858201908152602081018b90529092839182908490829060400103925af1801561105357611040575b50845163a9059cbb60e01b815233838201908152602081018690529091849183919082908c90829060400103927f0000000000000000000000000000000000000000000000000000000000000000165af1908115611036578891611019575b501561100b5750825194855284015233927f4ecae3269f800df64b16cb9f6f8b0b507018888521d1cff0841823e44bc0b00d9190a36001805580f35b83516312171d8360e31b8152fd5b6110309150833d851161043c5761042e81836113aa565b38610fcf565b85513d8a823e3d90fd5b61104c90989198611364565b9638610f70565b86513d8b823e3d90fd5b87516229abe760e51b81528590fd5b634e487b7160e01b8d526011875260248dfd5b90508581813d83116110ab575b61109681836113aa565b810103126110a75751610e8c610e73565b8a80fd5b503d61108c565b88513d8d823e3d90fd5b8651636ec9be1160e01b81528490fd5b825163e2517d3f60e01b815233818601526024810191909152604490fd5b8380fd5b9190503461046c578060031936011261046c5761050f913561111360016104f16112d4565b611839565b90503461046c57602036600319011261046c57816020936001923581528085522001549051908152f35b5050346101b85760203660031901126101b8576020906105306111636112be565b611778565b5050346101b857816003193601126101b857602090517f5e17fc5225d4a099df75359ce1f405503ca79498a8dc46a7d583235a0ee45c168152f35b5050346101b857816003193601126101b8576020906003549051908152f35b5050346101b85760203660031901126101b8576020906105306111e36112be565b61165f565b90503461046c577f16e6f67290546b8dd0e587f4b7f67d4f61932ae17ffd8c60d3509dbc05c175fe916105e361121d366112a8565b9093611227611488565b6003549382825492876003555551948594859094939260609260808301968352602083015260408201520152565b84913461046c57602036600319011261046c573563ffffffff60e01b811680910361046c5760209250637965db0b60e01b8114908115611297575b5015158152f35b6301ffc9a760e01b14905083611290565b6040906003190112610498576004359060243590565b600435906001600160a01b038216820361049857565b602435906001600160a01b038216820361049857565b9060009180835282602052604083209160018060a01b03169182845260205260ff60408420541660001461135f5780835282602052604083208284526020526040832060ff1981541690557ff6391f5c32d9c69d2a47ea670b442974b53935d1edc7fd64eb21e047a839171b339380a4600190565b505090565b67ffffffffffffffff811161137857604052565b634e487b7160e01b600052604160045260246000fd5b6040810190811067ffffffffffffffff82111761137857604052565b90601f8019910116810190811067ffffffffffffffff82111761137857604052565b818102929181159184041417156113df57565b634e487b7160e01b600052601160045260246000fd5b81156113ff570490565b634e487b7160e01b600052601260045260246000fd5b919082039182116113df57565b919082018092116113df57565b90816020910312610498575180151581036104985790565b60ff6002541661145357565b60405163d93c066560e01b8152600490fd5b600260015414611476576002600155565b604051633ee5aeb560e01b8152600490fd5b3360009081527f6f3b488caa0dc03e5f3d9fd6a25fa8755afcfd62ccffb6e436c696bfa6b866de60205260409020547f7935bd0ae54bc31f548c14dba4d37c5c64b3f8ca900cb468fb8abd54d5894f559060ff16156114e45750565b6044906040519063e2517d3f60e01b82523360048301526024820152fd5b3360009081527ff7c9542c591017a21c74b6f3fab6263c7952fc0aaf9db4c22a2a04ddc7f8674f60205260409020547f65d7a28e3265b37a6474929f336521b332c1681b933f6cb9f3376673440d862a9060ff16156114e45750565b80600052600060205260406000203360005260205260ff60406000205416156114e45750565b600a54801561165957604051634c6afee560e11b81526020816004817f00000000000000000000000000000000000000000000000000000000000000006001600160a01b03165afa90811561164d5760009161161a575b506115f5670de0b6b3a76400009164e8d4a51000936113cc565b0404600954906064820291808304606414901517156113df57611617916113f5565b90565b906020823d8211611645575b81611633602093836113aa565b81010312610ad35750516115f56115db565b3d9150611626565b6040513d6000823e3d90fd5b50600090565b9060018060a01b03806000931683526020906008825260408420916001604051936116898561138e565b805485520154918184019280845215611772578160049160405192838092634c6afee560e11b82527f0000000000000000000000000000000000000000000000000000000000000000165afa918215611767578692611733575b50506116fe906c0c9f2c9cd04674edea4000000092516113cc565b04905160648102908082046064149015171561171f576116179293506113f5565b634e487b7160e01b84526011600452602484fd5b90809250813d8311611760575b61174a81836113aa565b8101031261175c5751816116fe6116e3565b8480fd5b503d611740565b6040513d88823e3d90fd5b50505050565b6001600160a01b03166000908152600860205260408082209051909161179d8261138e565b602060018454948585520154920191808352156118335760648302928084046064148115171561181f576d04ee2d6d415b85acef810000000002928084046c0c9f2c9cd04674edea40000000149015171561180b5750906118056116179251600654906113cc565b906113f5565b634e487b7160e01b81526011600452602490fd5b634e487b7160e01b82526011600452602482fd5b91505090565b9060009180835282602052604083209160018060a01b03169182845260205260ff6040842054161560001461135f57808352826020526040832082845260205260408320600160ff198254161790557f2f8788117e7eff1d82e926ec794901d17c78024a50270940304540a733656f0d339380a460019056fea2646970667358221220d668c8b33d02a1ebb21e022ee27797d810a217206319647ef9c98a28716018e064736f6c634300081500332f8788117e7eff1d82e926ec794901d17c78024a50270940304540a733656f0dad3228b676f7d3cd4284a5443f17f1962b36e491b30a40b2405849e597ba5fb5",
  "linkReferences": {},
  "deployedLinkReferences": {}
}