{
  "_format": "hh-sol-artifact-1",
  "contractName": "EVIXMintRedeemV5Simple",
  "sourceName": "contracts/EVIXMintRedeemV5Simple.sol",
  "abi": [
    {
      "inputs": [
        {
          "internalType": "address",
          "name": "_usdc",
          "type": "address"
        },
        {
          "internalType": "address",
          "name": "_evix",
          "type": "address"
        },
        {
          "internalType": "address",
          "name": "_oracle",
          "type": "address"
        },
        {
          "internalType": "address",
          "name": "initialOwner",
          "type": "address"
        }
      ],
      "stateMutability": "nonpayable",
      "type": "constructor"
    },
    {
      "inputs": [
        {
          "internalType": "address",
          "name": "owner",
          "type": "address"
        }
      ],
      "name": "OwnableInvalidOwner",
      "type": "error"
    },
    {
      "inputs": [
        {
          "internalType": "address",
          "name": "account",
          "type": "address"
        }
      ],
      "name": "OwnableUnauthorizedAccount",
      "type": "error"
    },
    {
      "anonymous": false,
      "inputs": [
        {
          "indexed": true,
          "internalType": "address",
          "name": "user",
          "type": "address"
        },
        {
          "indexed": false,
          "internalType": "uint256",
          "name": "usdcAmount",
          "type": "uint256"
        },
        {
          "indexed": false,
          "internalType": "uint256",
          "name": "evixMinted",
          "type": "uint256"
        },
        {
          "indexed": false,
          "internalType": "uint256",
          "name": "targetCR",
          "type": "uint256"
        }
      ],
      "name": "Mint",
      "type": "event"
    },
    {
      "anonymous": false,
      "inputs": [
        {
          "indexed": true,
          "internalType": "address",
          "name": "previousOwner",
          "type": "address"
        },
        {
          "indexed": true,
          "internalType": "address",
          "name": "newOwner",
          "type": "address"
        }
      ],
      "name": "OwnershipTransferred",
      "type": "event"
    },
    {
      "inputs": [],
      "name": "evix",
      "outputs": [
        {
          "internalType": "contract EVIXToken",
          "name": "",
          "type": "address"
        }
      ],
      "stateMutability": "view",
      "type": "function"
    },
    {
      "inputs": [],
      "name": "getCollateralRatio",
      "outputs": [
        {
          "internalType": "uint256",
          "name": "",
          "type": "uint256"
        }
      ],
      "stateMutability": "view",
      "type": "function"
    },
    {
      "inputs": [],
      "name": "minCollateralRatio",
      "outputs": [
        {
          "internalType": "uint256",
          "name": "",
          "type": "uint256"
        }
      ],
      "stateMutability": "view",
      "type": "function"
    },
    {
      "inputs": [
        {
          "internalType": "uint256",
          "name": "amount",
          "type": "uint256"
        }
      ],
      "name": "mint",
      "outputs": [
        {
          "internalType": "uint256",
          "name": "",
          "type": "uint256"
        }
      ],
      "stateMutability": "nonpayable",
      "type": "function"
    },
    {
      "inputs": [],
      "name": "mintFee",
      "outputs": [
        {
          "internalType": "uint256",
          "name": "",
          "type": "uint256"
        }
      ],
      "stateMutability": "view",
      "type": "function"
    },
    {
      "inputs": [
        {
          "internalType": "uint256",
          "name": "amount",
          "type": "uint256"
        },
        {
          "internalType": "uint256",
          "name": "targetCR",
          "type": "uint256"
        }
      ],
      "name": "mintWithCollateralRatio",
      "outputs": [
        {
          "internalType": "uint256",
          "name": "",
          "type": "uint256"
        }
      ],
      "stateMutability": "nonpayable",
      "type": "function"
    },
    {
      "inputs": [],
      "name": "oracle",
      "outputs": [
        {
          "internalType": "contract EVIXOracle",
          "name": "",
          "type": "address"
        }
      ],
      "stateMutability": "view",
      "type": "function"
    },
    {
      "inputs": [],
      "name": "owner",
      "outputs": [
        {
          "internalType": "address",
          "name": "",
          "type": "address"
        }
      ],
      "stateMutability": "view",
      "type": "function"
    },
    {
      "inputs": [
        {
          "internalType": "uint256",
          "name": "amount",
          "type": "uint256"
        }
      ],
      "name": "redeem",
      "outputs": [
        {
          "internalType": "uint256",
          "name": "",
          "type": "uint256"
        }
      ],
      "stateMutability": "nonpayable",
      "type": "function"
    },
    {
      "inputs": [],
      "name": "renounceOwnership",
      "outputs": [],
      "stateMutability": "nonpayable",
      "type": "function"
    },
    {
      "inputs": [
        {
          "internalType": "address",
          "name": "newOwner",
          "type": "address"
        }
      ],
      "name": "transferOwnership",
      "outputs": [],
      "stateMutability": "nonpayable",
      "type": "function"
    },
    {
      "inputs": [],
      "name": "usdc",
      "outputs": [
        {
          "internalType": "contract IERC20",
          "name": "",
          "type": "address"
        }
      ],
      "stateMutability": "view",
      "type": "function"
    }
  ],
  "bytecode": "0x60803461011557601f610d6738819003918201601f19168301916001600160401b0383118484101761011a578084926080946040528339810103126101155761004781610130565b90606061005660208301610130565b9161006360408201610130565b6001600160a01b03929091839161007a9101610130565b169283156100fc57600080546001600160a01b03198082168717835560405197909686949385938416907f8be0079c531659141344cd1fd0a4f28419497f9722a3daafe3b4186f6b6457e09080a3601e6004556078600555168560015416176001551683600254161760025516906003541617600355610c2290816101458239f35b604051631e4fbdf760e01b815260006004820152602490fd5b600080fd5b634e487b7160e01b600052604160045260246000fd5b51906001600160a01b03821682036101155756fe608060408181526004908136101561001657600080fd5b600092833560e01c90816310567b8a146108ab5750806313966db51461088d5780633e413bee146108645780636008d28b146105c5578063715018a61461056b5780637dc0d1d01461054257806384da2666146105235780638da5cb5b146104fb578063a0712d681461046c578063cd377c5314610448578063db006a75146101425763f2fde38b146100a857600080fd5b3461013e57602036600319011261013e576001600160a01b0382358181169391929084900361013a576100d96108d0565b8315610124575050600054826bffffffffffffffffffffffff60a01b821617600055167f8be0079c531659141344cd1fd0a4f28419497f9722a3daafe3b4186f6b6457e0600080a380f35b51631e4fbdf760e01b8152908101849052602490fd5b8480fd5b8280fd5b50829034610444576020928360031936011261013e578035926101668415156108fc565b60025483516370a0823160e01b8082523382860152956001600160a01b0394928516918881602481865afa908115610395579082918691610413575b50106103d95782888660035416885192838092634c6afee560e11b82525afa90811561039557859161039f575b506c0c9f2c9cd04674edea400000006101eb610201928461093d565b046127106101fa86548361093d565b0490610986565b96888660015416916024895180948193825230898301525afa908115610395579088918691610364575b501061032157813b1561031d578551632770a7eb60e21b815233848201908152602081019290925291849183919082908490829060400103925af18015610313579186918893610300575b50600154865163a9059cbb60e01b815233928101928352602083019390935293949193849216908290869082906040015b03925af19182156102f557906102c2926102c8575b506109fc565b51908152f35b6102e89150853d87116102ee575b6102e081836109bd565b8101906109df565b856102bc565b503d6102d6565b8351903d90823e3d90fd5b9361030d6102a795610993565b93610276565b85513d85823e3d90fd5b8380fd5b855162461bcd60e51b8152808401899052601760248201527f496e73756666696369656e74207661756c7420555344430000000000000000006044820152606490fd5b8092508a8092503d831161038e575b61037d81836109bd565b8101031261013a578790518a61022b565b503d610373565b87513d87823e3d90fd5b90508881813d83116103d2575b6103b681836109bd565b8101031261013a57516c0c9f2c9cd04674edea400000006101cf565b503d6103ac565b855162461bcd60e51b81528084018990526014602482015273496e73756666696369656e742062616c616e636560601b6044820152606490fd5b8092508a8092503d831161043d575b61042c81836109bd565b8101031261013a578190518a6101a2565b503d610422565b5080fd5b838234610444578160031936011261044457602090610465610a3a565b9051908152f35b50829034610444576020928360031936011261013e57815190636008d28b60e01b825280359082015260966024820152838160448186305af19283156104f05780936104bb575b505051908152f35b909192508382813d83116104e9575b6104d481836109bd565b810103126104e65750519083806104b3565b80fd5b503d6104ca565b8251903d90823e3d90fd5b838234610444578160031936011261044457905490516001600160a01b039091168152602090f35b8382346104445781600319360112610444576020906005549051908152f35b83823461044457816003193601126104445760035490516001600160a01b039091168152602090f35b83346104e657806003193601126104e6576105846108d0565b80546001600160a01b03198116825581906001600160a01b03167f8be0079c531659141344cd1fd0a4f28419497f9722a3daafe3b4186f6b6457e08280a380f35b50829034610444578060031936011261044457823560249283359082156105ec81156108fc565b607883101580610858575b1561082957606484029084820460641417156108175761061a8361062892610966565b6127106101fa89548361093d565b6003548551634c6afee560e11b8152602098926001600160a01b03928a9083908690829087165afa91821561080d5785926107de575b506c0c9f2c9cd04674edea40000000908181029181830414901517156107cc579061068891610966565b9687156107985788849160648460015416918a5194859384926323b872dd60e01b8452338a85015230908401528b60448401525af190811561078e57906106d591859161077157506109fc565b6002541690813b1561013e5785516340c10f1960e01b815233918101918252602082018890529291829184919082908490829060400103925af19081156107665750610757575b5082519182528385830152828201527fb4c03061fb5b7fed76389d5af8f2e0ddb09f8c70d1333abbb62582835e10accb60603392a251908152f35b61076090610993565b8561071c565b8551903d90823e3d90fd5b61078891508a3d8c116102ee576102e081836109bd565b8a6102bc565b87513d86823e3d90fd5b8260106064928b8a519362461bcd60e51b85528401528201526f105b5bdd5b9d081d1bdbc81cdb585b1b60821b6044820152fd5b634e487b7160e01b8552601184528885fd5b9091508981813d8311610806575b6107f681836109bd565b8101031261013a5751908a61065e565b503d6107ec565b88513d87823e3d90fd5b634e487b7160e01b8252601187528582fd5b845162461bcd60e51b8152602081890152600a818801526924b73b30b634b21021a960b11b6044820152606490fd5b5061012c8311156105f7565b83823461044457816003193601126104445760015490516001600160a01b039091168152602090f35b50903461013e578260031936011261013e5760209250549051908152f35b8490346104445781600319360112610444576002546001600160a01b03168152602090f35b6000546001600160a01b031633036108e457565b60405163118cdaa760e01b8152336004820152602490fd5b1561090357565b60405162461bcd60e51b81526020600482015260126024820152710416d6f756e74206d757374206265203e20360741b6044820152606490fd5b8181029291811591840414171561095057565b634e487b7160e01b600052601160045260246000fd5b8115610970570490565b634e487b7160e01b600052601260045260246000fd5b9190820391821161095057565b67ffffffffffffffff81116109a757604052565b634e487b7160e01b600052604160045260246000fd5b90601f8019910116810190811067ffffffffffffffff8211176109a757604052565b908160209103126109f7575180151581036109f75790565b600080fd5b15610a0357565b60405162461bcd60e51b815260206004820152600f60248201526e151c985b9cd9995c8819985a5b1959608a1b6044820152606490fd5b600254604080516318160ddd60e01b8152916001600160a01b03919060209081908590600490829087165afa938415610be157600094610bb2575b508315610ba9578281602494600154168451958680926370a0823160e01b82523060048301525afa938415610b9e57600094610b6f575b5090806004939260035416835194858092634c6afee560e11b82525afa918215610b655750600091610b39575b50905064e8d4a510009283830293838504148315171561095057670de0b6b3a764000091610b069161093d565b04908115610b3157655af3107a400002918083046064149015171561095057610b2e91610966565b90565b505050600090565b82813d8311610b5e575b610b4d81836109bd565b810103126104e65750518038610ad9565b503d610b43565b513d6000823e3d90fd5b90938282813d8311610b97575b610b8681836109bd565b810103126104e65750519281610aac565b503d610b7c565b83513d6000823e3d90fd5b50505050600090565b90938482813d8311610bda575b610bc981836109bd565b810103126104e65750519238610a75565b503d610bbf565b82513d6000823e3d90fdfea2646970667358221220d40c5ee96bcc3c3a8c93f56f978f4c8e76192855c7901b160a73aaf3964a96e864736f6c63430008150033",
  "linkReferences": {},
  "deployedLinkReferences": {}
}