{
  "_format": "hh-sol-artifact-1",
  "contractName": "EVIXMintRedeemV5Simple",
  "sourceName": "contracts/EVIXMintRedeemV5Simple.sol",
  "abi": [
    {
      "inputs": [
        {
          "internalType": "address",
          "name": "_usdc",
          "type": "address"
        },
        {
          "internalType": "address",
          "name": "_evix",
          "type": "address"
        },
        {
          "internalType": "address",
          "name": "_oracle",
          "type": "address"
        },
        {
          "internalType": "address",
          "name": "initialOwner",
          "type": "address"
        }
      ],
      "stateMutability": "nonpayable",
      "type": "constructor"
    },
    {
      "inputs": [
        {
          "internalType": "address",
          "name": "owner",
          "type": "address"
        }
      ],
      "name": "OwnableInvalidOwner",
      "type": "error"
    },
    {
      "inputs": [
        {
          "internalType": "address",
          "name": "account",
          "type": "address"
        }
      ],
      "name": "OwnableUnauthorizedAccount",
      "type": "error"
    },
    {
      "anonymous": false,
      "inputs": [
        {
          "indexed": true,
          "internalType": "address",
          "name": "user",
          "type": "address"
        },
        {
          "indexed": false,
          "internalType": "uint256",
          "name": "usdcAmount",
          "type": "uint256"
        },
        {
          "indexed": false,
          "internalType": "uint256",
          "name": "evixMinted",
          "type": "uint256"
        },
        {
          "indexed": false,
          "internalType": "uint256",
          "name": "targetCR",
          "type": "uint256"
        }
      ],
      "name": "Mint",
      "type": "event"
    },
    {
      "anonymous": false,
      "inputs": [
        {
          "indexed": true,
          "internalType": "address",
          "name": "previousOwner",
          "type": "address"
        },
        {
          "indexed": true,
          "internalType": "address",
          "name": "newOwner",
          "type": "address"
        }
      ],
      "name": "OwnershipTransferred",
      "type": "event"
    },
    {
      "inputs": [],
      "name": "evix",
      "outputs": [
        {
          "internalType": "contract EVIXToken",
          "name": "",
          "type": "address"
        }
      ],
      "stateMutability": "view",
      "type": "function"
    },
    {
      "inputs": [],
      "name": "getCollateralRatio",
      "outputs": [
        {
          "internalType": "uint256",
          "name": "",
          "type": "uint256"
        }
      ],
      "stateMutability": "view",
      "type": "function"
    },
    {
      "inputs": [],
      "name": "minCollateralRatio",
      "outputs": [
        {
          "internalType": "uint256",
          "name": "",
          "type": "uint256"
        }
      ],
      "stateMutability": "view",
      "type": "function"
    },
    {
      "inputs": [
        {
          "internalType": "uint256",
          "name": "amount",
          "type": "uint256"
        }
      ],
      "name": "mint",
      "outputs": [
        {
          "internalType": "uint256",
          "name": "",
          "type": "uint256"
        }
      ],
      "stateMutability": "nonpayable",
      "type": "function"
    },
    {
      "inputs": [],
      "name": "mintFee",
      "outputs": [
        {
          "internalType": "uint256",
          "name": "",
          "type": "uint256"
        }
      ],
      "stateMutability": "view",
      "type": "function"
    },
    {
      "inputs": [
        {
          "internalType": "uint256",
          "name": "amount",
          "type": "uint256"
        },
        {
          "internalType": "uint256",
          "name": "targetCR",
          "type": "uint256"
        }
      ],
      "name": "mintWithCollateralRatio",
      "outputs": [
        {
          "internalType": "uint256",
          "name": "",
          "type": "uint256"
        }
      ],
      "stateMutability": "nonpayable",
      "type": "function"
    },
    {
      "inputs": [],
      "name": "oracle",
      "outputs": [
        {
          "internalType": "contract EVIXOracle",
          "name": "",
          "type": "address"
        }
      ],
      "stateMutability": "view",
      "type": "function"
    },
    {
      "inputs": [],
      "name": "owner",
      "outputs": [
        {
          "internalType": "address",
          "name": "",
          "type": "address"
        }
      ],
      "stateMutability": "view",
      "type": "function"
    },
    {
      "inputs": [
        {
          "internalType": "uint256",
          "name": "amount",
          "type": "uint256"
        }
      ],
      "name": "redeem",
      "outputs": [
        {
          "internalType": "uint256",
          "name": "",
          "type": "uint256"
        }
      ],
      "stateMutability": "nonpayable",
      "type": "function"
    },
    {
      "inputs": [],
      "name": "renounceOwnership",
      "outputs": [],
      "stateMutability": "nonpayable",
      "type": "function"
    },
    {
      "inputs": [
        {
          "internalType": "address",
          "name": "newOwner",
          "type": "address"
        }
      ],
      "name": "transferOwnership",
      "outputs": [],
      "stateMutability": "nonpayable",
      "type": "function"
    },
    {
      "inputs": [],
      "name": "usdc",
      "outputs": [
        {
          "internalType": "contract IERC20",
          "name": "",
          "type": "address"
        }
      ],
      "stateMutability": "view",
      "type": "function"
    }
  ],
  "bytecode": "0x6080604052601e60045560786005553480156200001b57600080fd5b5060405162001b7238038062001b728339818101604052810190620000419190620002c4565b80600073ffffffffffffffffffffffffffffffffffffffff168173ffffffffffffffffffffffffffffffffffffffff1603620000b75760006040517f1e4fbdf7000000000000000000000000000000000000000000000000000000008152600401620000ae919062000347565b60405180910390fd5b620000c8816200019660201b60201c565b5083600160006101000a81548173ffffffffffffffffffffffffffffffffffffffff021916908373ffffffffffffffffffffffffffffffffffffffff16021790555082600260006101000a81548173ffffffffffffffffffffffffffffffffffffffff021916908373ffffffffffffffffffffffffffffffffffffffff16021790555081600360006101000a81548173ffffffffffffffffffffffffffffffffffffffff021916908373ffffffffffffffffffffffffffffffffffffffff1602179055505050505062000364565b60008060009054906101000a900473ffffffffffffffffffffffffffffffffffffffff169050816000806101000a81548173ffffffffffffffffffffffffffffffffffffffff021916908373ffffffffffffffffffffffffffffffffffffffff1602179055508173ffffffffffffffffffffffffffffffffffffffff168173ffffffffffffffffffffffffffffffffffffffff167f8be0079c531659141344cd1fd0a4f28419497f9722a3daafe3b4186f6b6457e060405160405180910390a35050565b600080fd5b600073ffffffffffffffffffffffffffffffffffffffff82169050919050565b60006200028c826200025f565b9050919050565b6200029e816200027f565b8114620002aa57600080fd5b50565b600081519050620002be8162000293565b92915050565b60008060008060808587031215620002e157620002e06200025a565b5b6000620002f187828801620002ad565b94505060206200030487828801620002ad565b93505060406200031787828801620002ad565b92505060606200032a87828801620002ad565b91505092959194509250565b62000341816200027f565b82525050565b60006020820190506200035e600083018462000336565b92915050565b6117fe80620003746000396000f3fe608060405234801561001057600080fd5b50600436106100b45760003560e01c806384da26661161007157806384da26661461016b5780638da5cb5b14610189578063a0712d68146101a7578063cd377c53146101d7578063db006a75146101f5578063f2fde38b14610225576100b4565b806310567b8a146100b957806313966db5146100d75780633e413bee146100f55780636008d28b14610113578063715018a6146101435780637dc0d1d01461014d575b600080fd5b6100c1610241565b6040516100ce919061102b565b60405180910390f35b6100df610267565b6040516100ec919061105f565b60405180910390f35b6100fd61026d565b60405161010a919061109b565b60405180910390f35b61012d600480360381019061012891906110e7565b610293565b60405161013a919061105f565b60405180910390f35b61014b610639565b005b61015561064d565b6040516101629190611148565b60405180910390f35b610173610673565b604051610180919061105f565b60405180910390f35b610191610679565b60405161019e9190611184565b60405180910390f35b6101c160048036038101906101bc919061119f565b6106a2565b6040516101ce919061105f565b60405180910390f35b6101df61072a565b6040516101ec919061105f565b60405180910390f35b61020f600480360381019061020a919061119f565b610978565b60405161021c919061105f565b60405180910390f35b61023f600480360381019061023a91906111f8565b610dd3565b005b600260009054906101000a900473ffffffffffffffffffffffffffffffffffffffff1681565b60045481565b600160009054906101000a900473ffffffffffffffffffffffffffffffffffffffff1681565b60008083116102d7576040517f08c379a00000000000000000000000000000000000000000000000000000000081526004016102ce90611282565b60405180910390fd5b607882101580156102ea575061012c8211155b610329576040517f08c379a0000000000000000000000000000000000000000000000000000000008152600401610320906112ee565b60405180910390fd5b600082606485610339919061133d565b61034391906113ae565b9050600061271060045483610358919061133d565b61036291906113ae565b8261036d91906113df565b90506000600360009054906101000a900473ffffffffffffffffffffffffffffffffffffffff1673ffffffffffffffffffffffffffffffffffffffff166398d5fdca6040518163ffffffff1660e01b8152600401602060405180830381865afa1580156103de573d6000803e3d6000fd5b505050506040513d601f19601f820116820180604052508101906104029190611449565b9050600081670de0b6b3a76400008461041b919061133d565b61042591906113ae565b90506000811161046a576040517f08c379a0000000000000000000000000000000000000000000000000000000008152600401610461906114c2565b60405180910390fd5b600160009054906101000a900473ffffffffffffffffffffffffffffffffffffffff1673ffffffffffffffffffffffffffffffffffffffff166323b872dd33308a6040518463ffffffff1660e01b81526004016104c9939291906114e2565b6020604051808303816000875af11580156104e8573d6000803e3d6000fd5b505050506040513d601f19601f8201168201806040525081019061050c9190611551565b61054b576040517f08c379a0000000000000000000000000000000000000000000000000000000008152600401610542906115ca565b60405180910390fd5b600260009054906101000a900473ffffffffffffffffffffffffffffffffffffffff1673ffffffffffffffffffffffffffffffffffffffff166340c10f1933836040518363ffffffff1660e01b81526004016105a89291906115ea565b600060405180830381600087803b1580156105c257600080fd5b505af11580156105d6573d6000803e3d6000fd5b505050503373ffffffffffffffffffffffffffffffffffffffff167fb4c03061fb5b7fed76389d5af8f2e0ddb09f8c70d1333abbb62582835e10accb88838960405161062493929190611613565b60405180910390a28094505050505092915050565b610641610e59565b61064b6000610ee0565b565b600360009054906101000a900473ffffffffffffffffffffffffffffffffffffffff1681565b60055481565b60008060009054906101000a900473ffffffffffffffffffffffffffffffffffffffff16905090565b60003073ffffffffffffffffffffffffffffffffffffffff16636008d28b8360966040518363ffffffff1660e01b81526004016106e0929190611685565b6020604051808303816000875af11580156106ff573d6000803e3d6000fd5b505050506040513d601f19601f8201168201806040525081019061072391906116c3565b9050919050565b600080600260009054906101000a900473ffffffffffffffffffffffffffffffffffffffff1673ffffffffffffffffffffffffffffffffffffffff166318160ddd6040518163ffffffff1660e01b8152600401602060405180830381865afa15801561079a573d6000803e3d6000fd5b505050506040513d601f19601f820116820180604052508101906107be91906116c3565b9050600081036107d2576000915050610975565b6000600160009054906101000a900473ffffffffffffffffffffffffffffffffffffffff1673ffffffffffffffffffffffffffffffffffffffff166370a08231306040518263ffffffff1660e01b815260040161082f9190611184565b602060405180830381865afa15801561084c573d6000803e3d6000fd5b505050506040513d601f19601f8201168201806040525081019061087091906116c3565b90506000600360009054906101000a900473ffffffffffffffffffffffffffffffffffffffff1673ffffffffffffffffffffffffffffffffffffffff166398d5fdca6040518163ffffffff1660e01b8152600401602060405180830381865afa1580156108e1573d6000803e3d6000fd5b505050506040513d601f19601f820116820180604052508101906109059190611449565b9050600064e8d4a510008361091a919061133d565b90506000670de0b6b3a76400008386610933919061133d565b61093d91906113ae565b90506000810361095557600095505050505050610975565b80606483610963919061133d565b61096d91906113ae565b955050505050505b90565b60008082116109bc576040517f08c379a00000000000000000000000000000000000000000000000000000000081526004016109b390611282565b60405180910390fd5b81600260009054906101000a900473ffffffffffffffffffffffffffffffffffffffff1673ffffffffffffffffffffffffffffffffffffffff166370a08231336040518263ffffffff1660e01b8152600401610a189190611184565b602060405180830381865afa158015610a35573d6000803e3d6000fd5b505050506040513d601f19601f82011682018060405250810190610a5991906116c3565b1015610a9a576040517f08c379a0000000000000000000000000000000000000000000000000000000008152600401610a919061173c565b60405180910390fd5b6000600360009054906101000a900473ffffffffffffffffffffffffffffffffffffffff1673ffffffffffffffffffffffffffffffffffffffff166398d5fdca6040518163ffffffff1660e01b8152600401602060405180830381865afa158015610b09573d6000803e3d6000fd5b505050506040513d601f19601f82011682018060405250810190610b2d9190611449565b90506000670de0b6b3a76400008285610b46919061133d565b610b5091906113ae565b9050600061271060045483610b65919061133d565b610b6f91906113ae565b82610b7a91906113df565b905080600160009054906101000a900473ffffffffffffffffffffffffffffffffffffffff1673ffffffffffffffffffffffffffffffffffffffff166370a08231306040518263ffffffff1660e01b8152600401610bd89190611184565b602060405180830381865afa158015610bf5573d6000803e3d6000fd5b505050506040513d601f19601f82011682018060405250810190610c1991906116c3565b1015610c5a576040517f08c379a0000000000000000000000000000000000000000000000000000000008152600401610c51906117a8565b60405180910390fd5b600260009054906101000a900473ffffffffffffffffffffffffffffffffffffffff1673ffffffffffffffffffffffffffffffffffffffff16639dc29fac33876040518363ffffffff1660e01b8152600401610cb79291906115ea565b600060405180830381600087803b158015610cd157600080fd5b505af1158015610ce5573d6000803e3d6000fd5b50505050600160009054906101000a900473ffffffffffffffffffffffffffffffffffffffff1673ffffffffffffffffffffffffffffffffffffffff1663a9059cbb33836040518363ffffffff1660e01b8152600401610d469291906115ea565b6020604051808303816000875af1158015610d65573d6000803e3d6000fd5b505050506040513d601f19601f82011682018060405250810190610d899190611551565b610dc8576040517f08c379a0000000000000000000000000000000000000000000000000000000008152600401610dbf906115ca565b60405180910390fd5b809350505050919050565b610ddb610e59565b600073ffffffffffffffffffffffffffffffffffffffff168173ffffffffffffffffffffffffffffffffffffffff1603610e4d5760006040517f1e4fbdf7000000000000000000000000000000000000000000000000000000008152600401610e449190611184565b60405180910390fd5b610e5681610ee0565b50565b610e61610fa4565b73ffffffffffffffffffffffffffffffffffffffff16610e7f610679565b73ffffffffffffffffffffffffffffffffffffffff1614610ede57610ea2610fa4565b6040517f118cdaa7000000000000000000000000000000000000000000000000000000008152600401610ed59190611184565b60405180910390fd5b565b60008060009054906101000a900473ffffffffffffffffffffffffffffffffffffffff169050816000806101000a81548173ffffffffffffffffffffffffffffffffffffffff021916908373ffffffffffffffffffffffffffffffffffffffff1602179055508173ffffffffffffffffffffffffffffffffffffffff168173ffffffffffffffffffffffffffffffffffffffff167f8be0079c531659141344cd1fd0a4f28419497f9722a3daafe3b4186f6b6457e060405160405180910390a35050565b600033905090565b600073ffffffffffffffffffffffffffffffffffffffff82169050919050565b6000819050919050565b6000610ff1610fec610fe784610fac565b610fcc565b610fac565b9050919050565b600061100382610fd6565b9050919050565b600061101582610ff8565b9050919050565b6110258161100a565b82525050565b6000602082019050611040600083018461101c565b92915050565b6000819050919050565b61105981611046565b82525050565b60006020820190506110746000830184611050565b92915050565b600061108582610ff8565b9050919050565b6110958161107a565b82525050565b60006020820190506110b0600083018461108c565b92915050565b600080fd5b6110c481611046565b81146110cf57600080fd5b50565b6000813590506110e1816110bb565b92915050565b600080604083850312156110fe576110fd6110b6565b5b600061110c858286016110d2565b925050602061111d858286016110d2565b9150509250929050565b600061113282610ff8565b9050919050565b61114281611127565b82525050565b600060208201905061115d6000830184611139565b92915050565b600061116e82610fac565b9050919050565b61117e81611163565b82525050565b60006020820190506111996000830184611175565b92915050565b6000602082840312156111b5576111b46110b6565b5b60006111c3848285016110d2565b91505092915050565b6111d581611163565b81146111e057600080fd5b50565b6000813590506111f2816111cc565b92915050565b60006020828403121561120e5761120d6110b6565b5b600061121c848285016111e3565b91505092915050565b600082825260208201905092915050565b7f416d6f756e74206d757374206265203e20300000000000000000000000000000600082015250565b600061126c601283611225565b915061127782611236565b602082019050919050565b6000602082019050818103600083015261129b8161125f565b9050919050565b7f496e76616c696420435200000000000000000000000000000000000000000000600082015250565b60006112d8600a83611225565b91506112e3826112a2565b602082019050919050565b60006020820190508181036000830152611307816112cb565b9050919050565b7f4e487b7100000000000000000000000000000000000000000000000000000000600052601160045260246000fd5b600061134882611046565b915061135383611046565b925082820261136181611046565b915082820484148315176113785761137761130e565b5b5092915050565b7f4e487b7100000000000000000000000000000000000000000000000000000000600052601260045260246000fd5b60006113b982611046565b91506113c483611046565b9250826113d4576113d361137f565b5b828204905092915050565b60006113ea82611046565b91506113f583611046565b925082820390508181111561140d5761140c61130e565b5b92915050565b6000819050919050565b61142681611413565b811461143157600080fd5b50565b6000815190506114438161141d565b92915050565b60006020828403121561145f5761145e6110b6565b5b600061146d84828501611434565b91505092915050565b7f416d6f756e7420746f6f20736d616c6c00000000000000000000000000000000600082015250565b60006114ac601083611225565b91506114b782611476565b602082019050919050565b600060208201905081810360008301526114db8161149f565b9050919050565b60006060820190506114f76000830186611175565b6115046020830185611175565b6115116040830184611050565b949350505050565b60008115159050919050565b61152e81611519565b811461153957600080fd5b50565b60008151905061154b81611525565b92915050565b600060208284031215611567576115666110b6565b5b60006115758482850161153c565b91505092915050565b7f5472616e73666572206661696c65640000000000000000000000000000000000600082015250565b60006115b4600f83611225565b91506115bf8261157e565b602082019050919050565b600060208201905081810360008301526115e3816115a7565b9050919050565b60006040820190506115ff6000830185611175565b61160c6020830184611050565b9392505050565b60006060820190506116286000830186611050565b6116356020830185611050565b6116426040830184611050565b949350505050565b6000819050919050565b600061166f61166a6116658461164a565b610fcc565b611046565b9050919050565b61167f81611654565b82525050565b600060408201905061169a6000830185611050565b6116a76020830184611676565b9392505050565b6000815190506116bd816110bb565b92915050565b6000602082840312156116d9576116d86110b6565b5b60006116e7848285016116ae565b91505092915050565b7f496e73756666696369656e742062616c616e6365000000000000000000000000600082015250565b6000611726601483611225565b9150611731826116f0565b602082019050919050565b6000602082019050818103600083015261175581611719565b9050919050565b7f496e73756666696369656e74207661756c742055534443000000000000000000600082015250565b6000611792601783611225565b915061179d8261175c565b602082019050919050565b600060208201905081810360008301526117c181611785565b905091905056fea2646970667358221220b28caeee65923c721662eb201bf00983619d52982ced86bb32bc7e89cb01d6fd64736f6c63430008150033",
  "linkReferences": {},
  "deployedLinkReferences": {}
}