{
  "_format": "hh-sol-artifact-1",
  "contractName": "MintRedeemV3",
  "sourceName": "contracts/MintRedeemV3.sol",
  "abi": [
    {
      "inputs": [
        {
          "internalType": "address",
          "name": "_usdc",
          "type": "address"
        },
        {
          "internalType": "address",
          "name": "_bvix",
          "type": "address"
        },
        {
          "internalType": "address",
          "name": "_oracle",
          "type": "address"
        },
        {
          "internalType": "address",
          "name": "initialOwner",
          "type": "address"
        }
      ],
      "stateMutability": "nonpayable",
      "type": "constructor"
    },
    {
      "inputs": [
        {
          "internalType": "address",
          "name": "owner",
          "type": "address"
        }
      ],
      "name": "OwnableInvalidOwner",
      "type": "error"
    },
    {
      "inputs": [
        {
          "internalType": "address",
          "name": "account",
          "type": "address"
        }
      ],
      "name": "OwnableUnauthorizedAccount",
      "type": "error"
    },
    {
      "anonymous": false,
      "inputs": [
        {
          "indexed": true,
          "internalType": "address",
          "name": "user",
          "type": "address"
        },
        {
          "indexed": false,
          "internalType": "uint256",
          "name": "collateral",
          "type": "uint256"
        },
        {
          "indexed": false,
          "internalType": "uint256",
          "name": "debt",
          "type": "uint256"
        }
      ],
      "name": "Mint",
      "type": "event"
    },
    {
      "anonymous": false,
      "inputs": [
        {
          "indexed": true,
          "internalType": "address",
          "name": "previousOwner",
          "type": "address"
        },
        {
          "indexed": true,
          "internalType": "address",
          "name": "newOwner",
          "type": "address"
        }
      ],
      "name": "OwnershipTransferred",
      "type": "event"
    },
    {
      "anonymous": false,
      "inputs": [
        {
          "indexed": true,
          "internalType": "address",
          "name": "user",
          "type": "address"
        },
        {
          "indexed": false,
          "internalType": "uint256",
          "name": "newCollateral",
          "type": "uint256"
        },
        {
          "indexed": false,
          "internalType": "uint256",
          "name": "newDebt",
          "type": "uint256"
        }
      ],
      "name": "PositionUpdated",
      "type": "event"
    },
    {
      "anonymous": false,
      "inputs": [
        {
          "indexed": true,
          "internalType": "address",
          "name": "user",
          "type": "address"
        },
        {
          "indexed": false,
          "internalType": "uint256",
          "name": "debt",
          "type": "uint256"
        },
        {
          "indexed": false,
          "internalType": "uint256",
          "name": "refunded",
          "type": "uint256"
        }
      ],
      "name": "Redeem",
      "type": "event"
    },
    {
      "inputs": [],
      "name": "asset",
      "outputs": [
        {
          "internalType": "address",
          "name": "",
          "type": "address"
        }
      ],
      "stateMutability": "view",
      "type": "function"
    },
    {
      "inputs": [],
      "name": "bvix",
      "outputs": [
        {
          "internalType": "contract BVIXToken",
          "name": "",
          "type": "address"
        }
      ],
      "stateMutability": "view",
      "type": "function"
    },
    {
      "inputs": [
        {
          "internalType": "uint256",
          "name": "collateralAmount",
          "type": "uint256"
        },
        {
          "internalType": "uint256",
          "name": "minDebtAmount",
          "type": "uint256"
        }
      ],
      "name": "deposit",
      "outputs": [
        {
          "internalType": "uint256",
          "name": "debtMinted",
          "type": "uint256"
        }
      ],
      "stateMutability": "nonpayable",
      "type": "function"
    },
    {
      "inputs": [
        {
          "internalType": "address",
          "name": "user",
          "type": "address"
        }
      ],
      "name": "getUserCollateralRatio",
      "outputs": [
        {
          "internalType": "uint256",
          "name": "",
          "type": "uint256"
        }
      ],
      "stateMutability": "view",
      "type": "function"
    },
    {
      "inputs": [],
      "name": "minCollateralRatio",
      "outputs": [
        {
          "internalType": "uint256",
          "name": "",
          "type": "uint256"
        }
      ],
      "stateMutability": "view",
      "type": "function"
    },
    {
      "inputs": [],
      "name": "mintFee",
      "outputs": [
        {
          "internalType": "uint256",
          "name": "",
          "type": "uint256"
        }
      ],
      "stateMutability": "view",
      "type": "function"
    },
    {
      "inputs": [],
      "name": "oracle",
      "outputs": [
        {
          "internalType": "contract MockOracle",
          "name": "",
          "type": "address"
        }
      ],
      "stateMutability": "view",
      "type": "function"
    },
    {
      "inputs": [],
      "name": "owner",
      "outputs": [
        {
          "internalType": "address",
          "name": "",
          "type": "address"
        }
      ],
      "stateMutability": "view",
      "type": "function"
    },
    {
      "inputs": [
        {
          "internalType": "address",
          "name": "",
          "type": "address"
        }
      ],
      "name": "positions",
      "outputs": [
        {
          "internalType": "uint256",
          "name": "collateral",
          "type": "uint256"
        },
        {
          "internalType": "uint256",
          "name": "debt",
          "type": "uint256"
        }
      ],
      "stateMutability": "view",
      "type": "function"
    },
    {
      "inputs": [
        {
          "internalType": "uint256",
          "name": "debtAmount",
          "type": "uint256"
        },
        {
          "internalType": "uint256",
          "name": "minRefund",
          "type": "uint256"
        }
      ],
      "name": "redeem",
      "outputs": [
        {
          "internalType": "uint256",
          "name": "refunded",
          "type": "uint256"
        }
      ],
      "stateMutability": "nonpayable",
      "type": "function"
    },
    {
      "inputs": [],
      "name": "redeemFee",
      "outputs": [
        {
          "internalType": "uint256",
          "name": "",
          "type": "uint256"
        }
      ],
      "stateMutability": "view",
      "type": "function"
    },
    {
      "inputs": [],
      "name": "renounceOwnership",
      "outputs": [],
      "stateMutability": "nonpayable",
      "type": "function"
    },
    {
      "inputs": [],
      "name": "totalAssets",
      "outputs": [
        {
          "internalType": "uint256",
          "name": "",
          "type": "uint256"
        }
      ],
      "stateMutability": "view",
      "type": "function"
    },
    {
      "inputs": [
        {
          "internalType": "address",
          "name": "newOwner",
          "type": "address"
        }
      ],
      "name": "transferOwnership",
      "outputs": [],
      "stateMutability": "nonpayable",
      "type": "function"
    },
    {
      "inputs": [],
      "name": "usdc",
      "outputs": [
        {
          "internalType": "contract IERC20",
          "name": "",
          "type": "address"
        }
      ],
      "stateMutability": "view",
      "type": "function"
    }
  ],
  "bytecode": "0x60803461011a57601f610cc138819003918201601f19168301916001600160401b0383118484101761011f5780849260809460405283398101031261011a5761004781610135565b90606061005660208301610135565b9161006360408201610135565b6001600160a01b03929091839161007a9101610135565b1692831561010157600080546001600160a01b03198082168717835560405197909686949385938416907f8be0079c531659141344cd1fd0a4f28419497f9722a3daafe3b4186f6b6457e09080a3601e600455601e6005556078600655168560015416176001551683600254161760025516906003541617600355610b77908161014a8239f35b604051631e4fbdf760e01b815260006004820152602490fd5b600080fd5b634e487b7160e01b600052604160045260246000fd5b51906001600160a01b038216820361011a5756fe608060408181526004908136101561001657600080fd5b600092833560e01c90816301e1d114146107cc5750806310b45de11461079457806313966db51461077657806338d52e0f1461074d5780633e413bee1461074d57806355f5751014610709578063715018a6146106af5780637cbc2373146104eb5780637dc0d1d0146104c257806384da2666146104a35780638da5cb5b1461047b578063965fa21e1461045c5780639f80fb4e14610433578063e2bbb158146101635763f2fde38b146100c957600080fd5b3461015f57602036600319011261015f576001600160a01b0382358181169391929084900361015b576100fa61087c565b8315610145575050600054826bffffffffffffffffffffffff60a01b821617600055167f8be0079c531659141344cd1fd0a4f28419497f9722a3daafe3b4186f6b6457e0600080a380f35b51631e4fbdf760e01b8152908101849052602490fd5b8480fd5b8280fd5b508290346103795761017436610866565b92909384156103fb576003548351634c6afee560e11b81526020969093916001600160a01b039190889086908690829086165afa9485156103aa5783956103c7575b506101cf6127106101c88654846108f4565b0482610a91565b9460648602868104606414871517156103b4576006546101ee9161091d565b6c0c9f2c9cd04674edea40000000908181029181830414901517156103b4579161022661021d8b93879561091d565b998a1015610a9e565b3383526007825287832061023b888254610ade565b9055338352600782526001888420016102558a8254610ade565b90556064846001541691895194859384926323b872dd60e01b8452338b85015230602485015260448401525af19081156103aa579061029b91849161037d575b50610b03565b60025416803b156103795784516340c10f1960e01b815233848201908152602081018890529091839183919082908490829060400103925af1801561036f57610358575b50506102ea3361093d565b600654116103285750815190815282848201527f4c209b5fc8ad50758f13e2e1088ba56a560dff690a1c6fef26394f4c03821c4f823392a251908152f35b825162461bcd60e51b8152908101859052600a602482015269435220746f6f206c6f7760b01b6044820152606490fd5b61036282916108a8565b61036c57806102df565b80fd5b85513d84823e3d90fd5b5080fd5b61039d9150893d8b116103a3575b61039581836108d2565b810190610aeb565b89610295565b503d61038b565b86513d85823e3d90fd5b634e487b7160e01b855260118652602485fd5b9094508781813d83116103f4575b6103df81836108d2565b810103126103ef575193886101b6565b600080fd5b503d6103d5565b606490602084519162461bcd60e51b835282015260126024820152710416d6f756e74206d757374206265203e20360741b6044820152fd5b83823461037957816003193601126103795760025490516001600160a01b039091168152602090f35b8382346103795781600319360112610379576020906005549051908152f35b838234610379578160031936011261037957905490516001600160a01b039091168152602090f35b8382346103795781600319360112610379576020906006549051908152f35b83823461037957816003193601126103795760035490516001600160a01b039091168152602090f35b503461015f576104fa36610866565b923385526020946007865283812060018101908154908582106106785761056791816105608893546105358461053083886108f4565b61091d565b9061055b61055261271061054b600554866108f4565b0484610a91565b9d8e1015610a9e565b610a91565b9055610a91565b90556002546001600160a01b0392908316803b1561015f578551632770a7eb60e21b815233838201908152602081018790529091849183919082908490829060400103925af180156103aa579187918993610665575b50600154875163a9059cbb60e01b815233928101928352602083019390935293949193849216908290869082906040015b03925af191821561065a57906106089261063d5750610b03565b815190815282848201527fe5b754fb1abb7f01b499791d0b820ae3b6af3424ac1c59768edb53f4ec31a929823392a251908152f35b6106549150863d88116103a35761039581836108d2565b38610295565b8451903d90823e3d90fd5b936106726105ee956108a8565b936105bd565b865162461bcd60e51b81528086018a90526011602482015270125b9cdd59999a58da595b9d081919589d607a1b6044820152606490fd5b833461036c578060031936011261036c576106c861087c565b80546001600160a01b03198116825581906001600160a01b03167f8be0079c531659141344cd1fd0a4f28419497f9722a3daafe3b4186f6b6457e08280a380f35b50903461015f57602036600319011261015f57356001600160a01b0381169081900361015f5791819281526007602052206001815491015482519182526020820152f35b83823461037957816003193601126103795760015490516001600160a01b039091168152602090f35b50903461015f578260031936011261015f5760209250549051908152f35b50903461015f57602036600319011261015f5735916001600160a01b038316830361036c57506107c560209261093d565b9051908152f35b929050346108625783600319360112610862576001546370a0823160e01b84523091840191909152602090839060249082906001600160a01b03165afa918215610858578392610821575b6020838351908152f35b9091506020813d8211610850575b8161083c602093836108d2565b8101031261015f5760209250519038610817565b3d915061082f565b81513d85823e3d90fd5b8380fd5b60409060031901126103ef576004359060243590565b6000546001600160a01b0316330361089057565b60405163118cdaa760e01b8152336004820152602490fd5b67ffffffffffffffff81116108bc57604052565b634e487b7160e01b600052604160045260246000fd5b90601f8019910116810190811067ffffffffffffffff8211176108bc57604052565b8181029291811591840414171561090757565b634e487b7160e01b600052601160045260246000fd5b8115610927570490565b634e487b7160e01b600052601260045260246000fd5b6001600160a01b0390811660009081526007602090815260408083208151939594929084830167ffffffffffffffff811186821017610a7d5783528054855260010154818501818152939015610a7157908060049260035416845193848092634c6afee560e11b82525afa928315610a6857508692610a38575b50506109cd90670de0b6b3a764000092516108f4565b0490519064e8d4a510009081830292808404831481151715610a2457655af3107a4000029280840460641490151715610a1057610a0d939450049061091d565b90565b634e487b7160e01b85526011600452602485fd5b634e487b7160e01b86526011600452602486fd5b90809250813d8311610a61575b610a4f81836108d2565b8101031261015b5751816109cd6109b7565b503d610a45565b513d88823e3d90fd5b50600019955050505050565b634e487b7160e01b88526041600452602488fd5b9190820391821161090757565b15610aa557565b60405162461bcd60e51b81526020600482015260116024820152700a6d8d2e0e0c2ceca40e8dede40d0d2ced607b1b6044820152606490fd5b9190820180921161090757565b908160209103126103ef575180151581036103ef5790565b15610b0a57565b60405162461bcd60e51b815260206004820152600f60248201526e151c985b9cd9995c8819985a5b1959608a1b6044820152606490fdfea2646970667358221220d6fa3154b6e94033da8adf718b0adf84ba87984c2fb49d07f1a9c74f4e9c546564736f6c63430008150033",
  "linkReferences": {},
  "deployedLinkReferences": {}
}