{
  "_format": "hh-sol-artifact-1",
  "contractName": "MintRedeemV3",
  "sourceName": "contracts/MintRedeemV3.sol",
  "abi": [
    {
      "inputs": [
        {
          "internalType": "address",
          "name": "_usdc",
          "type": "address"
        },
        {
          "internalType": "address",
          "name": "_bvix",
          "type": "address"
        },
        {
          "internalType": "address",
          "name": "_oracle",
          "type": "address"
        },
        {
          "internalType": "address",
          "name": "initialOwner",
          "type": "address"
        }
      ],
      "stateMutability": "nonpayable",
      "type": "constructor"
    },
    {
      "inputs": [
        {
          "internalType": "address",
          "name": "owner",
          "type": "address"
        }
      ],
      "name": "OwnableInvalidOwner",
      "type": "error"
    },
    {
      "inputs": [
        {
          "internalType": "address",
          "name": "account",
          "type": "address"
        }
      ],
      "name": "OwnableUnauthorizedAccount",
      "type": "error"
    },
    {
      "anonymous": false,
      "inputs": [
        {
          "indexed": true,
          "internalType": "address",
          "name": "user",
          "type": "address"
        },
        {
          "indexed": false,
          "internalType": "uint256",
          "name": "collateral",
          "type": "uint256"
        },
        {
          "indexed": false,
          "internalType": "uint256",
          "name": "debt",
          "type": "uint256"
        }
      ],
      "name": "Mint",
      "type": "event"
    },
    {
      "anonymous": false,
      "inputs": [
        {
          "indexed": true,
          "internalType": "address",
          "name": "previousOwner",
          "type": "address"
        },
        {
          "indexed": true,
          "internalType": "address",
          "name": "newOwner",
          "type": "address"
        }
      ],
      "name": "OwnershipTransferred",
      "type": "event"
    },
    {
      "anonymous": false,
      "inputs": [
        {
          "indexed": true,
          "internalType": "address",
          "name": "user",
          "type": "address"
        },
        {
          "indexed": false,
          "internalType": "uint256",
          "name": "newCollateral",
          "type": "uint256"
        },
        {
          "indexed": false,
          "internalType": "uint256",
          "name": "newDebt",
          "type": "uint256"
        }
      ],
      "name": "PositionUpdated",
      "type": "event"
    },
    {
      "anonymous": false,
      "inputs": [
        {
          "indexed": true,
          "internalType": "address",
          "name": "user",
          "type": "address"
        },
        {
          "indexed": false,
          "internalType": "uint256",
          "name": "debt",
          "type": "uint256"
        },
        {
          "indexed": false,
          "internalType": "uint256",
          "name": "refunded",
          "type": "uint256"
        }
      ],
      "name": "Redeem",
      "type": "event"
    },
    {
      "inputs": [],
      "name": "asset",
      "outputs": [
        {
          "internalType": "address",
          "name": "",
          "type": "address"
        }
      ],
      "stateMutability": "view",
      "type": "function"
    },
    {
      "inputs": [],
      "name": "bvix",
      "outputs": [
        {
          "internalType": "contract BVIXToken",
          "name": "",
          "type": "address"
        }
      ],
      "stateMutability": "view",
      "type": "function"
    },
    {
      "inputs": [
        {
          "internalType": "uint256",
          "name": "collateralAmount",
          "type": "uint256"
        },
        {
          "internalType": "uint256",
          "name": "minDebtAmount",
          "type": "uint256"
        }
      ],
      "name": "deposit",
      "outputs": [
        {
          "internalType": "uint256",
          "name": "debtMinted",
          "type": "uint256"
        }
      ],
      "stateMutability": "nonpayable",
      "type": "function"
    },
    {
      "inputs": [
        {
          "internalType": "address",
          "name": "user",
          "type": "address"
        }
      ],
      "name": "getUserCollateralRatio",
      "outputs": [
        {
          "internalType": "uint256",
          "name": "",
          "type": "uint256"
        }
      ],
      "stateMutability": "view",
      "type": "function"
    },
    {
      "inputs": [],
      "name": "minCollateralRatio",
      "outputs": [
        {
          "internalType": "uint256",
          "name": "",
          "type": "uint256"
        }
      ],
      "stateMutability": "view",
      "type": "function"
    },
    {
      "inputs": [],
      "name": "mintFee",
      "outputs": [
        {
          "internalType": "uint256",
          "name": "",
          "type": "uint256"
        }
      ],
      "stateMutability": "view",
      "type": "function"
    },
    {
      "inputs": [],
      "name": "oracle",
      "outputs": [
        {
          "internalType": "contract MockOracle",
          "name": "",
          "type": "address"
        }
      ],
      "stateMutability": "view",
      "type": "function"
    },
    {
      "inputs": [],
      "name": "owner",
      "outputs": [
        {
          "internalType": "address",
          "name": "",
          "type": "address"
        }
      ],
      "stateMutability": "view",
      "type": "function"
    },
    {
      "inputs": [
        {
          "internalType": "address",
          "name": "",
          "type": "address"
        }
      ],
      "name": "positions",
      "outputs": [
        {
          "internalType": "uint256",
          "name": "collateral",
          "type": "uint256"
        },
        {
          "internalType": "uint256",
          "name": "debt",
          "type": "uint256"
        }
      ],
      "stateMutability": "view",
      "type": "function"
    },
    {
      "inputs": [
        {
          "internalType": "uint256",
          "name": "debtAmount",
          "type": "uint256"
        },
        {
          "internalType": "uint256",
          "name": "minRefund",
          "type": "uint256"
        }
      ],
      "name": "redeem",
      "outputs": [
        {
          "internalType": "uint256",
          "name": "refunded",
          "type": "uint256"
        }
      ],
      "stateMutability": "nonpayable",
      "type": "function"
    },
    {
      "inputs": [],
      "name": "redeemFee",
      "outputs": [
        {
          "internalType": "uint256",
          "name": "",
          "type": "uint256"
        }
      ],
      "stateMutability": "view",
      "type": "function"
    },
    {
      "inputs": [],
      "name": "renounceOwnership",
      "outputs": [],
      "stateMutability": "nonpayable",
      "type": "function"
    },
    {
      "inputs": [],
      "name": "totalAssets",
      "outputs": [
        {
          "internalType": "uint256",
          "name": "",
          "type": "uint256"
        }
      ],
      "stateMutability": "view",
      "type": "function"
    },
    {
      "inputs": [
        {
          "internalType": "address",
          "name": "newOwner",
          "type": "address"
        }
      ],
      "name": "transferOwnership",
      "outputs": [],
      "stateMutability": "nonpayable",
      "type": "function"
    },
    {
      "inputs": [],
      "name": "usdc",
      "outputs": [
        {
          "internalType": "contract IERC20",
          "name": "",
          "type": "address"
        }
      ],
      "stateMutability": "view",
      "type": "function"
    }
  ],
  "bytecode": "0x6080604052601e600455601e60055560786006553480156200002057600080fd5b5060405162001a2538038062001a258339818101604052810190620000469190620002c9565b80600073ffffffffffffffffffffffffffffffffffffffff168173ffffffffffffffffffffffffffffffffffffffff1603620000bc5760006040517f1e4fbdf7000000000000000000000000000000000000000000000000000000008152600401620000b391906200034c565b60405180910390fd5b620000cd816200019b60201b60201c565b5083600160006101000a81548173ffffffffffffffffffffffffffffffffffffffff021916908373ffffffffffffffffffffffffffffffffffffffff16021790555082600260006101000a81548173ffffffffffffffffffffffffffffffffffffffff021916908373ffffffffffffffffffffffffffffffffffffffff16021790555081600360006101000a81548173ffffffffffffffffffffffffffffffffffffffff021916908373ffffffffffffffffffffffffffffffffffffffff1602179055505050505062000369565b60008060009054906101000a900473ffffffffffffffffffffffffffffffffffffffff169050816000806101000a81548173ffffffffffffffffffffffffffffffffffffffff021916908373ffffffffffffffffffffffffffffffffffffffff1602179055508173ffffffffffffffffffffffffffffffffffffffff168173ffffffffffffffffffffffffffffffffffffffff167f8be0079c531659141344cd1fd0a4f28419497f9722a3daafe3b4186f6b6457e060405160405180910390a35050565b600080fd5b600073ffffffffffffffffffffffffffffffffffffffff82169050919050565b6000620002918262000264565b9050919050565b620002a38162000284565b8114620002af57600080fd5b50565b600081519050620002c38162000298565b92915050565b60008060008060808587031215620002e657620002e56200025f565b5b6000620002f687828801620002b2565b94505060206200030987828801620002b2565b93505060406200031c87828801620002b2565b92505060606200032f87828801620002b2565b91505092959194509250565b620003468162000284565b82525050565b60006020820190506200036360008301846200033b565b92915050565b6116ac80620003796000396000f3fe608060405234801561001057600080fd5b50600436106100f55760003560e01c80637cbc237311610097578063965fa21e11610066578063965fa21e146102675780639f80fb4e14610285578063e2bbb158146102a3578063f2fde38b146102d3576100f5565b80637cbc2373146101dd5780637dc0d1d01461020d57806384da26661461022b5780638da5cb5b14610249576100f5565b806338d52e0f116100d357806338d52e0f146101665780633e413bee1461018457806355f57510146101a2578063715018a6146101d3576100f5565b806301e1d114146100fa57806310b45de11461011857806313966db514610148575b600080fd5b6101026102ef565b60405161010f9190610fad565b60405180910390f35b610132600480360381019061012d919061102b565b610392565b60405161013f9190610fad565b60405180910390f35b610150610533565b60405161015d9190610fad565b60405180910390f35b61016e610539565b60405161017b9190611067565b60405180910390f35b61018c610563565b60405161019991906110e1565b60405180910390f35b6101bc60048036038101906101b7919061102b565b610589565b6040516101ca9291906110fc565b60405180910390f35b6101db6105ad565b005b6101f760048036038101906101f29190611151565b6105c1565b6040516102049190610fad565b60405180910390f35b6102156108dc565b60405161022291906111b2565b60405180910390f35b610233610902565b6040516102409190610fad565b60405180910390f35b610251610908565b60405161025e9190611067565b60405180910390f35b61026f610931565b60405161027c9190610fad565b60405180910390f35b61028d610937565b60405161029a91906111ee565b60405180910390f35b6102bd60048036038101906102b89190611151565b61095d565b6040516102ca9190610fad565b60405180910390f35b6102ed60048036038101906102e8919061102b565b610dbb565b005b6000600160009054906101000a900473ffffffffffffffffffffffffffffffffffffffff1673ffffffffffffffffffffffffffffffffffffffff166370a08231306040518263ffffffff1660e01b815260040161034c9190611067565b602060405180830381865afa158015610369573d6000803e3d6000fd5b505050506040513d601f19601f8201168201806040525081019061038d919061121e565b905090565b600080600760008473ffffffffffffffffffffffffffffffffffffffff1673ffffffffffffffffffffffffffffffffffffffff168152602001908152602001600020604051806040016040529081600082015481526020016001820154815250509050600081602001510361042a577fffffffffffffffffffffffffffffffffffffffffffffffffffffffffffffffff91505061052e565b6000600360009054906101000a900473ffffffffffffffffffffffffffffffffffffffff1673ffffffffffffffffffffffffffffffffffffffff166398d5fdca6040518163ffffffff1660e01b8152600401602060405180830381865afa158015610499573d6000803e3d6000fd5b505050506040513d601f19601f820116820180604052508101906104bd919061121e565b90506000670de0b6b3a76400008284602001516104da919061127a565b6104e491906112eb565b9050600064e8d4a5100084600001516104fd919061127a565b905064e8d4a510008261051091906112eb565b60648261051d919061127a565b61052791906112eb565b9450505050505b919050565b60045481565b6000600160009054906101000a900473ffffffffffffffffffffffffffffffffffffffff16905090565b600160009054906101000a900473ffffffffffffffffffffffffffffffffffffffff1681565b60076020528060005260406000206000915090508060000154908060010154905082565b6105b5610e41565b6105bf6000610ec8565b565b600080600760003373ffffffffffffffffffffffffffffffffffffffff1673ffffffffffffffffffffffffffffffffffffffff1681526020019081526020016000209050838160010154101561064c576040517f08c379a000000000000000000000000000000000000000000000000000000000815260040161064390611379565b60405180910390fd5b60008160010154826000015486610663919061127a565b61066d91906112eb565b9050600061271060055483610682919061127a565b61068c91906112eb565b9050808261069a9190611399565b9350848410156106df576040517f08c379a00000000000000000000000000000000000000000000000000000000081526004016106d690611419565b60405180910390fd5b818360000160008282546106f39190611399565b925050819055508583600101600082825461070e9190611399565b92505081905550600260009054906101000a900473ffffffffffffffffffffffffffffffffffffffff1673ffffffffffffffffffffffffffffffffffffffff16639dc29fac33886040518363ffffffff1660e01b8152600401610772929190611439565b600060405180830381600087803b15801561078c57600080fd5b505af11580156107a0573d6000803e3d6000fd5b50505050600160009054906101000a900473ffffffffffffffffffffffffffffffffffffffff1673ffffffffffffffffffffffffffffffffffffffff1663a9059cbb33866040518363ffffffff1660e01b8152600401610801929190611439565b6020604051808303816000875af1158015610820573d6000803e3d6000fd5b505050506040513d601f19601f82011682018060405250810190610844919061149a565b610883576040517f08c379a000000000000000000000000000000000000000000000000000000000815260040161087a90611513565b60405180910390fd5b3373ffffffffffffffffffffffffffffffffffffffff167fe5b754fb1abb7f01b499791d0b820ae3b6af3424ac1c59768edb53f4ec31a92987866040516108cb9291906110fc565b60405180910390a250505092915050565b600360009054906101000a900473ffffffffffffffffffffffffffffffffffffffff1681565b60065481565b60008060009054906101000a900473ffffffffffffffffffffffffffffffffffffffff16905090565b60055481565b600260009054906101000a900473ffffffffffffffffffffffffffffffffffffffff1681565b60008083116109a1576040517f08c379a00000000000000000000000000000000000000000000000000000000081526004016109989061157f565b60405180910390fd5b6000600360009054906101000a900473ffffffffffffffffffffffffffffffffffffffff1673ffffffffffffffffffffffffffffffffffffffff166398d5fdca6040518163ffffffff1660e01b8152600401602060405180830381865afa158015610a10573d6000803e3d6000fd5b505050506040513d601f19601f82011682018060405250810190610a34919061121e565b9050600061271060045486610a49919061127a565b610a5391906112eb565b905060008186610a639190611399565b90506000600654606483610a77919061127a565b610a8191906112eb565b90506000846c0c9f2c9cd04674edea4000000083610a9f919061127a565b610aa991906112eb565b905086811015610aee576040517f08c379a0000000000000000000000000000000000000000000000000000000008152600401610ae590611419565b60405180910390fd5b82600760003373ffffffffffffffffffffffffffffffffffffffff1673ffffffffffffffffffffffffffffffffffffffff1681526020019081526020016000206000016000828254610b40919061159f565b9250508190555080600760003373ffffffffffffffffffffffffffffffffffffffff1673ffffffffffffffffffffffffffffffffffffffff1681526020019081526020016000206001016000828254610b99919061159f565b92505081905550600160009054906101000a900473ffffffffffffffffffffffffffffffffffffffff1673ffffffffffffffffffffffffffffffffffffffff166323b872dd33308b6040518463ffffffff1660e01b8152600401610bff939291906115d3565b6020604051808303816000875af1158015610c1e573d6000803e3d6000fd5b505050506040513d601f19601f82011682018060405250810190610c42919061149a565b610c81576040517f08c379a0000000000000000000000000000000000000000000000000000000008152600401610c7890611513565b60405180910390fd5b600260009054906101000a900473ffffffffffffffffffffffffffffffffffffffff1673ffffffffffffffffffffffffffffffffffffffff166340c10f1933836040518363ffffffff1660e01b8152600401610cde929190611439565b600060405180830381600087803b158015610cf857600080fd5b505af1158015610d0c573d6000803e3d6000fd5b50505050600654610d1c33610392565b1015610d5d576040517f08c379a0000000000000000000000000000000000000000000000000000000008152600401610d5490611656565b60405180910390fd5b3373ffffffffffffffffffffffffffffffffffffffff167f4c209b5fc8ad50758f13e2e1088ba56a560dff690a1c6fef26394f4c03821c4f8483604051610da59291906110fc565b60405180910390a2809550505050505092915050565b610dc3610e41565b600073ffffffffffffffffffffffffffffffffffffffff168173ffffffffffffffffffffffffffffffffffffffff1603610e355760006040517f1e4fbdf7000000000000000000000000000000000000000000000000000000008152600401610e2c9190611067565b60405180910390fd5b610e3e81610ec8565b50565b610e49610f8c565b73ffffffffffffffffffffffffffffffffffffffff16610e67610908565b73ffffffffffffffffffffffffffffffffffffffff1614610ec657610e8a610f8c565b6040517f118cdaa7000000000000000000000000000000000000000000000000000000008152600401610ebd9190611067565b60405180910390fd5b565b60008060009054906101000a900473ffffffffffffffffffffffffffffffffffffffff169050816000806101000a81548173ffffffffffffffffffffffffffffffffffffffff021916908373ffffffffffffffffffffffffffffffffffffffff1602179055508173ffffffffffffffffffffffffffffffffffffffff168173ffffffffffffffffffffffffffffffffffffffff167f8be0079c531659141344cd1fd0a4f28419497f9722a3daafe3b4186f6b6457e060405160405180910390a35050565b600033905090565b6000819050919050565b610fa781610f94565b82525050565b6000602082019050610fc26000830184610f9e565b92915050565b600080fd5b600073ffffffffffffffffffffffffffffffffffffffff82169050919050565b6000610ff882610fcd565b9050919050565b61100881610fed565b811461101357600080fd5b50565b60008135905061102581610fff565b92915050565b60006020828403121561104157611040610fc8565b5b600061104f84828501611016565b91505092915050565b61106181610fed565b82525050565b600060208201905061107c6000830184611058565b92915050565b6000819050919050565b60006110a76110a261109d84610fcd565b611082565b610fcd565b9050919050565b60006110b98261108c565b9050919050565b60006110cb826110ae565b9050919050565b6110db816110c0565b82525050565b60006020820190506110f660008301846110d2565b92915050565b60006040820190506111116000830185610f9e565b61111e6020830184610f9e565b9392505050565b61112e81610f94565b811461113957600080fd5b50565b60008135905061114b81611125565b92915050565b6000806040838503121561116857611167610fc8565b5b60006111768582860161113c565b92505060206111878582860161113c565b9150509250929050565b600061119c826110ae565b9050919050565b6111ac81611191565b82525050565b60006020820190506111c760008301846111a3565b92915050565b60006111d8826110ae565b9050919050565b6111e8816111cd565b82525050565b600060208201905061120360008301846111df565b92915050565b60008151905061121881611125565b92915050565b60006020828403121561123457611233610fc8565b5b600061124284828501611209565b91505092915050565b7f4e487b7100000000000000000000000000000000000000000000000000000000600052601160045260246000fd5b600061128582610f94565b915061129083610f94565b925082820261129e81610f94565b915082820484148315176112b5576112b461124b565b5b5092915050565b7f4e487b7100000000000000000000000000000000000000000000000000000000600052601260045260246000fd5b60006112f682610f94565b915061130183610f94565b925082611311576113106112bc565b5b828204905092915050565b600082825260208201905092915050565b7f496e73756666696369656e742064656274000000000000000000000000000000600082015250565b600061136360118361131c565b915061136e8261132d565b602082019050919050565b6000602082019050818103600083015261139281611356565b9050919050565b60006113a482610f94565b91506113af83610f94565b92508282039050818111156113c7576113c661124b565b5b92915050565b7f536c69707061676520746f6f2068696768000000000000000000000000000000600082015250565b600061140360118361131c565b915061140e826113cd565b602082019050919050565b60006020820190508181036000830152611432816113f6565b9050919050565b600060408201905061144e6000830185611058565b61145b6020830184610f9e565b9392505050565b60008115159050919050565b61147781611462565b811461148257600080fd5b50565b6000815190506114948161146e565b92915050565b6000602082840312156114b0576114af610fc8565b5b60006114be84828501611485565b91505092915050565b7f5472616e73666572206661696c65640000000000000000000000000000000000600082015250565b60006114fd600f8361131c565b9150611508826114c7565b602082019050919050565b6000602082019050818103600083015261152c816114f0565b9050919050565b7f416d6f756e74206d757374206265203e20300000000000000000000000000000600082015250565b600061156960128361131c565b915061157482611533565b602082019050919050565b600060208201905081810360008301526115988161155c565b9050919050565b60006115aa82610f94565b91506115b583610f94565b92508282019050808211156115cd576115cc61124b565b5b92915050565b60006060820190506115e86000830186611058565b6115f56020830185611058565b6116026040830184610f9e565b949350505050565b7f435220746f6f206c6f7700000000000000000000000000000000000000000000600082015250565b6000611640600a8361131c565b915061164b8261160a565b602082019050919050565b6000602082019050818103600083015261166f81611633565b905091905056fea2646970667358221220c0ac914328fc75588bf1ae579a41511abf19c434901b21a08b044674af2a9e0e64736f6c63430008150033",
  "linkReferences": {},
  "deployedLinkReferences": {}
}