{
  "_format": "hh-sol-artifact-1",
  "contractName": "MintRedeemV6",
  "sourceName": "contracts/MintRedeemV6.sol",
  "abi": [
    {
      "inputs": [
        {
          "internalType": "address",
          "name": "_usdc",
          "type": "address"
        },
        {
          "internalType": "address",
          "name": "_bvix",
          "type": "address"
        },
        {
          "internalType": "address",
          "name": "_oracle",
          "type": "address"
        },
        {
          "internalType": "address",
          "name": "initialOwner",
          "type": "address"
        }
      ],
      "stateMutability": "nonpayable",
      "type": "constructor"
    },
    {
      "inputs": [
        {
          "internalType": "address",
          "name": "owner",
          "type": "address"
        }
      ],
      "name": "OwnableInvalidOwner",
      "type": "error"
    },
    {
      "inputs": [
        {
          "internalType": "address",
          "name": "account",
          "type": "address"
        }
      ],
      "name": "OwnableUnauthorizedAccount",
      "type": "error"
    },
    {
      "anonymous": false,
      "inputs": [
        {
          "indexed": true,
          "internalType": "address",
          "name": "user",
          "type": "address"
        },
        {
          "indexed": false,
          "internalType": "uint256",
          "name": "usdcAmount",
          "type": "uint256"
        },
        {
          "indexed": false,
          "internalType": "uint256",
          "name": "bvixMinted",
          "type": "uint256"
        },
        {
          "indexed": false,
          "internalType": "uint256",
          "name": "targetCR",
          "type": "uint256"
        }
      ],
      "name": "Mint",
      "type": "event"
    },
    {
      "anonymous": false,
      "inputs": [
        {
          "indexed": true,
          "internalType": "address",
          "name": "previousOwner",
          "type": "address"
        },
        {
          "indexed": true,
          "internalType": "address",
          "name": "newOwner",
          "type": "address"
        }
      ],
      "name": "OwnershipTransferred",
      "type": "event"
    },
    {
      "anonymous": false,
      "inputs": [
        {
          "indexed": true,
          "internalType": "address",
          "name": "user",
          "type": "address"
        },
        {
          "indexed": false,
          "internalType": "uint256",
          "name": "bvixAmount",
          "type": "uint256"
        },
        {
          "indexed": false,
          "internalType": "uint256",
          "name": "usdcRedeemed",
          "type": "uint256"
        }
      ],
      "name": "Redeem",
      "type": "event"
    },
    {
      "inputs": [],
      "name": "bvix",
      "outputs": [
        {
          "internalType": "contract BVIXToken",
          "name": "",
          "type": "address"
        }
      ],
      "stateMutability": "view",
      "type": "function"
    },
    {
      "inputs": [],
      "name": "getCollateralRatio",
      "outputs": [
        {
          "internalType": "uint256",
          "name": "",
          "type": "uint256"
        }
      ],
      "stateMutability": "view",
      "type": "function"
    },
    {
      "inputs": [
        {
          "internalType": "address",
          "name": "user",
          "type": "address"
        }
      ],
      "name": "getUserCollateralRatio",
      "outputs": [
        {
          "internalType": "uint256",
          "name": "",
          "type": "uint256"
        }
      ],
      "stateMutability": "view",
      "type": "function"
    },
    {
      "inputs": [],
      "name": "minCollateralRatio",
      "outputs": [
        {
          "internalType": "uint256",
          "name": "",
          "type": "uint256"
        }
      ],
      "stateMutability": "view",
      "type": "function"
    },
    {
      "inputs": [],
      "name": "mintFee",
      "outputs": [
        {
          "internalType": "uint256",
          "name": "",
          "type": "uint256"
        }
      ],
      "stateMutability": "view",
      "type": "function"
    },
    {
      "inputs": [
        {
          "internalType": "uint256",
          "name": "amount",
          "type": "uint256"
        },
        {
          "internalType": "uint256",
          "name": "targetCR",
          "type": "uint256"
        }
      ],
      "name": "mintWithCollateralRatio",
      "outputs": [
        {
          "internalType": "uint256",
          "name": "",
          "type": "uint256"
        }
      ],
      "stateMutability": "nonpayable",
      "type": "function"
    },
    {
      "inputs": [],
      "name": "oracle",
      "outputs": [
        {
          "internalType": "contract MockOracle",
          "name": "",
          "type": "address"
        }
      ],
      "stateMutability": "view",
      "type": "function"
    },
    {
      "inputs": [],
      "name": "owner",
      "outputs": [
        {
          "internalType": "address",
          "name": "",
          "type": "address"
        }
      ],
      "stateMutability": "view",
      "type": "function"
    },
    {
      "inputs": [
        {
          "internalType": "address",
          "name": "",
          "type": "address"
        }
      ],
      "name": "positions",
      "outputs": [
        {
          "internalType": "uint256",
          "name": "collateral",
          "type": "uint256"
        },
        {
          "internalType": "uint256",
          "name": "debt",
          "type": "uint256"
        }
      ],
      "stateMutability": "view",
      "type": "function"
    },
    {
      "inputs": [
        {
          "internalType": "uint256",
          "name": "amount",
          "type": "uint256"
        }
      ],
      "name": "redeem",
      "outputs": [
        {
          "internalType": "uint256",
          "name": "",
          "type": "uint256"
        }
      ],
      "stateMutability": "nonpayable",
      "type": "function"
    },
    {
      "inputs": [],
      "name": "redeemFee",
      "outputs": [
        {
          "internalType": "uint256",
          "name": "",
          "type": "uint256"
        }
      ],
      "stateMutability": "view",
      "type": "function"
    },
    {
      "inputs": [],
      "name": "renounceOwnership",
      "outputs": [],
      "stateMutability": "nonpayable",
      "type": "function"
    },
    {
      "inputs": [],
      "name": "totalCollateral",
      "outputs": [
        {
          "internalType": "uint256",
          "name": "",
          "type": "uint256"
        }
      ],
      "stateMutability": "view",
      "type": "function"
    },
    {
      "inputs": [],
      "name": "totalDebt",
      "outputs": [
        {
          "internalType": "uint256",
          "name": "",
          "type": "uint256"
        }
      ],
      "stateMutability": "view",
      "type": "function"
    },
    {
      "inputs": [
        {
          "internalType": "address",
          "name": "newOwner",
          "type": "address"
        }
      ],
      "name": "transferOwnership",
      "outputs": [],
      "stateMutability": "nonpayable",
      "type": "function"
    },
    {
      "inputs": [],
      "name": "usdc",
      "outputs": [
        {
          "internalType": "contract IERC20",
          "name": "",
          "type": "address"
        }
      ],
      "stateMutability": "view",
      "type": "function"
    }
  ],
  "bytecode": "0x60803461011a57601f610e6c38819003918201601f19168301916001600160401b0383118484101761011f5780849260809460405283398101031261011a5761004781610135565b90606061005660208301610135565b9161006360408201610135565b6001600160a01b03929091839161007a9101610135565b1692831561010157600080546001600160a01b03198082168717835560405197909686949385938416907f8be0079c531659141344cd1fd0a4f28419497f9722a3daafe3b4186f6b6457e09080a3601e600455601e6005556078600655168560015416176001551683600254161760025516906003541617600355610d22908161014a8239f35b604051631e4fbdf760e01b815260006004820152602490fd5b600080fd5b634e487b7160e01b600052604160045260246000fd5b51906001600160a01b038216820361011a5756fe6040608081526004908136101561001557600080fd5b600091823560e01c90816310b45de11461096457816313966db5146109465781633e413bee1461091d5781634ac8eb5f146108fe57816355f57510146108ba5781636008d28b14610543578163715018a6146104e65781637dc0d1d0146104bd57816384da26661461049e5781638da5cb5b14610476578163965fa21e146104575781639f80fb4e1461042e578163cd377c531461040a578163db006a7514610191578163f2fde38b146100f4575063fc7b9c18146100d357600080fd5b346100f057816003193601126100f0576020906009549051908152f35b5080fd5b9190503461018d57602036600319011261018d576001600160a01b0382358181169391929084900361018957610128610995565b8315610173575050600054826bffffffffffffffffffffffff60a01b821617600055167f8be0079c531659141344cd1fd0a4f28419497f9722a3daafe3b4186f6b6457e0600080a380f35b51631e4fbdf760e01b8152908101849052602490fd5b8480fd5b8280fd5b9190503461018d5760209182600319360112610406578035906101b58215156109c1565b338552600784528285209460018601918254928484106103cf576003548651634c6afee560e11b81526001600160a01b03959189908290869082908a165afa9081156103c5578591610396575b509161025a8761022a9a9b9361021b6102649683610a4e565b5061022f8186549d8e85610a4e565b610a77565b946102538661024d61271061024660055484610a4e565b0482610a97565b9e610a97565b9055610a97565b9055600854610a97565b60085561027384600954610a97565b6009558260025416803b1561018d578551632770a7eb60e21b815233838201908152602081018790529091849183919082908490829060400103925af1801561038c579187918993610379575b50600154875163a9059cbb60e01b815233928101928352602083019390935293949193849216908290869082906040015b03925af191821561036e579061030c92610341575b50610ace565b815190815282848201527fe5b754fb1abb7f01b499791d0b820ae3b6af3424ac1c59768edb53f4ec31a929823392a251908152f35b6103619150863d8811610367575b6103598183610a2c565b810190610ab1565b38610306565b503d61034f565b8451903d90823e3d90fd5b936103866102f195610a02565b936102c0565b86513d85823e3d90fd5b90508881813d83116103be575b6103ad8183610a2c565b81010312610189575161025a610202565b503d6103a3565b88513d87823e3d90fd5b855162461bcd60e51b81528083018890526011602482015270125b9cdd59999a58da595b9d081919589d607a1b6044820152606490fd5b8380fd5b5050346100f057816003193601126100f057602090610427610b0c565b9051908152f35b5050346100f057816003193601126100f05760025490516001600160a01b039091168152602090f35b5050346100f057816003193601126100f0576020906005549051908152f35b5050346100f057816003193601126100f057905490516001600160a01b039091168152602090f35b5050346100f057816003193601126100f0576020906006549051908152f35b5050346100f057816003193601126100f05760035490516001600160a01b039091168152602090f35b83346105405780600319360112610540576104ff610995565b80546001600160a01b03198116825581906001600160a01b03167f8be0079c531659141344cd1fd0a4f28419497f9722a3daafe3b4186f6b6457e08280a380f35b80fd5b9190503461018d578060031936011261018d5781356024938435906105698315156109c1565b6078821015806108ae575b1561087f576003548451634c6afee560e11b81526020979096916001600160a01b039190899089908590829086165afa9788156107b7578498610850575b506105cb6127106105c4855489610a4e565b0487610a97565b60649081810281810483148215171561083e57876105e891610a77565b6c0c9f2c9cd04674edea400000009081810291818304149015171561083e578a61061191610a77565b998a1561080a5764e8d4a51000670de0b6b3a76400006106498d9361064461063b87600854610aa4565b95600954610aa4565b610a4e565b040490838102908082048514901517156107f8579061066791610a77565b600654116107c157918a916106b187948c6106a760018e338a5260078952808a20610693868254610aa4565b9055338a5260078952892001918254610aa4565b9055600854610aa4565b6008556106c08b600954610aa4565b6009558460015416918a5194859384926323b872dd60e01b8452338a85015230908401528b60448401525af19081156107b757906107049185916107a05750610ace565b6002541690813b1561018d5785516340c10f1960e01b815233918101918252602082018890529291829184919082908490829060400103925af19081156107955750610786575b5082519182528385830152828201527fb4c03061fb5b7fed76389d5af8f2e0ddb09f8c70d1333abbb62582835e10accb60603392a251908152f35b61078f90610a02565b3861074b565b8551903d90823e3d90fd5b61036191508a3d8c11610367576103598183610a2c565b87513d86823e3d90fd5b50875162461bcd60e51b81528085018b9052601481840152732bb7bab632103b34b7b630ba329036b4b71021a960611b6044820152fd5b634e487b7160e01b8852601187528488fd5b895162461bcd60e51b81528087018d90526010818601526f105b5bdd5b9d081d1bdbc81cdb585b1b60821b60448201528390fd5b634e487b7160e01b8752601186528387fd5b9097508881813d8311610878575b6108688183610a2c565b81010312610406575196386105b2565b503d61085e565b835162461bcd60e51b8152602081870152600a818801526924b73b30b634b21021a960b11b6044820152606490fd5b5061012c821115610574565b90503461018d57602036600319011261018d57356001600160a01b0381169081900361018d5791819281526007602052206001815491015482519182526020820152f35b5050346100f057816003193601126100f0576020906008549051908152f35b5050346100f057816003193601126100f05760015490516001600160a01b039091168152602090f35b90503461018d578260031936011261018d5760209250549051908152f35b90503461018d57602036600319011261018d5735916001600160a01b03831683036105405750610427602092610bce565b6000546001600160a01b031633036109a957565b60405163118cdaa760e01b8152336004820152602490fd5b156109c857565b60405162461bcd60e51b81526020600482015260126024820152710416d6f756e74206d757374206265203e20360741b6044820152606490fd5b67ffffffffffffffff8111610a1657604052565b634e487b7160e01b600052604160045260246000fd5b90601f8019910116810190811067ffffffffffffffff821117610a1657604052565b81810292918115918404141715610a6157565b634e487b7160e01b600052601160045260246000fd5b8115610a81570490565b634e487b7160e01b600052601260045260246000fd5b91908203918211610a6157565b91908201809211610a6157565b90816020910312610ac957518015158103610ac95790565b600080fd5b15610ad557565b60405162461bcd60e51b815260206004820152600f60248201526e151c985b9cd9995c8819985a5b1959608a1b6044820152606490fd5b6009548015610bc857600354604051634c6afee560e11b815290602090829060049082906001600160a01b03165afa908115610bbc57600091610b89575b50610b64670de0b6b3a76400009164e8d4a5100093610a4e565b040460085490606482029180830460641490151715610a6157610b8691610a77565b90565b906020823d8211610bb4575b81610ba260209383610a2c565b81010312610540575051610b64610b4a565b3d9150610b95565b6040513d6000823e3d90fd5b50600090565b6001600160a01b0390811660009081526007602090815260408083208151939594929084830167ffffffffffffffff811186821017610cd85783528054855260010154818501818152939015610cd157908060049260035416845193848092634c6afee560e11b82525afa928315610cc857508692610c98575b5050610c63906c0c9f2c9cd04674edea400000009251610a4e565b049051606481029080820460641490151715610c8457610b86929350610a77565b634e487b7160e01b84526011600452602484fd5b90809250813d8311610cc1575b610caf8183610a2c565b81010312610189575181610c63610c48565b503d610ca5565b513d88823e3d90fd5b5050505050565b634e487b7160e01b88526041600452602488fdfea26469706673582212203b3a478ca6ae36d1b46716e862a889e04a4d51bf6b23fabb353394656f81ede664736f6c63430008150033",
  "linkReferences": {},
  "deployedLinkReferences": {}
}