{
  "_format": "hh-sol-artifact-1",
  "contractName": "MintRedeemV6",
  "sourceName": "contracts/MintRedeemV6.sol",
  "abi": [
    {
      "inputs": [
        {
          "internalType": "address",
          "name": "_usdc",
          "type": "address"
        },
        {
          "internalType": "address",
          "name": "_bvix",
          "type": "address"
        },
        {
          "internalType": "address",
          "name": "_oracle",
          "type": "address"
        },
        {
          "internalType": "address",
          "name": "initialOwner",
          "type": "address"
        }
      ],
      "stateMutability": "nonpayable",
      "type": "constructor"
    },
    {
      "inputs": [
        {
          "internalType": "address",
          "name": "owner",
          "type": "address"
        }
      ],
      "name": "OwnableInvalidOwner",
      "type": "error"
    },
    {
      "inputs": [
        {
          "internalType": "address",
          "name": "account",
          "type": "address"
        }
      ],
      "name": "OwnableUnauthorizedAccount",
      "type": "error"
    },
    {
      "anonymous": false,
      "inputs": [
        {
          "indexed": true,
          "internalType": "address",
          "name": "user",
          "type": "address"
        },
        {
          "indexed": false,
          "internalType": "uint256",
          "name": "usdcAmount",
          "type": "uint256"
        },
        {
          "indexed": false,
          "internalType": "uint256",
          "name": "bvixMinted",
          "type": "uint256"
        },
        {
          "indexed": false,
          "internalType": "uint256",
          "name": "targetCR",
          "type": "uint256"
        }
      ],
      "name": "Mint",
      "type": "event"
    },
    {
      "anonymous": false,
      "inputs": [
        {
          "indexed": true,
          "internalType": "address",
          "name": "previousOwner",
          "type": "address"
        },
        {
          "indexed": true,
          "internalType": "address",
          "name": "newOwner",
          "type": "address"
        }
      ],
      "name": "OwnershipTransferred",
      "type": "event"
    },
    {
      "anonymous": false,
      "inputs": [
        {
          "indexed": true,
          "internalType": "address",
          "name": "user",
          "type": "address"
        },
        {
          "indexed": false,
          "internalType": "uint256",
          "name": "bvixAmount",
          "type": "uint256"
        },
        {
          "indexed": false,
          "internalType": "uint256",
          "name": "usdcRedeemed",
          "type": "uint256"
        }
      ],
      "name": "Redeem",
      "type": "event"
    },
    {
      "inputs": [],
      "name": "bvix",
      "outputs": [
        {
          "internalType": "contract BVIXToken",
          "name": "",
          "type": "address"
        }
      ],
      "stateMutability": "view",
      "type": "function"
    },
    {
      "inputs": [],
      "name": "getCollateralRatio",
      "outputs": [
        {
          "internalType": "uint256",
          "name": "",
          "type": "uint256"
        }
      ],
      "stateMutability": "view",
      "type": "function"
    },
    {
      "inputs": [
        {
          "internalType": "address",
          "name": "user",
          "type": "address"
        }
      ],
      "name": "getUserCollateralRatio",
      "outputs": [
        {
          "internalType": "uint256",
          "name": "",
          "type": "uint256"
        }
      ],
      "stateMutability": "view",
      "type": "function"
    },
    {
      "inputs": [],
      "name": "minCollateralRatio",
      "outputs": [
        {
          "internalType": "uint256",
          "name": "",
          "type": "uint256"
        }
      ],
      "stateMutability": "view",
      "type": "function"
    },
    {
      "inputs": [],
      "name": "mintFee",
      "outputs": [
        {
          "internalType": "uint256",
          "name": "",
          "type": "uint256"
        }
      ],
      "stateMutability": "view",
      "type": "function"
    },
    {
      "inputs": [
        {
          "internalType": "uint256",
          "name": "amount",
          "type": "uint256"
        },
        {
          "internalType": "uint256",
          "name": "targetCR",
          "type": "uint256"
        }
      ],
      "name": "mintWithCollateralRatio",
      "outputs": [
        {
          "internalType": "uint256",
          "name": "",
          "type": "uint256"
        }
      ],
      "stateMutability": "nonpayable",
      "type": "function"
    },
    {
      "inputs": [],
      "name": "oracle",
      "outputs": [
        {
          "internalType": "contract MockOracle",
          "name": "",
          "type": "address"
        }
      ],
      "stateMutability": "view",
      "type": "function"
    },
    {
      "inputs": [],
      "name": "owner",
      "outputs": [
        {
          "internalType": "address",
          "name": "",
          "type": "address"
        }
      ],
      "stateMutability": "view",
      "type": "function"
    },
    {
      "inputs": [
        {
          "internalType": "address",
          "name": "",
          "type": "address"
        }
      ],
      "name": "positions",
      "outputs": [
        {
          "internalType": "uint256",
          "name": "collateral",
          "type": "uint256"
        },
        {
          "internalType": "uint256",
          "name": "debt",
          "type": "uint256"
        }
      ],
      "stateMutability": "view",
      "type": "function"
    },
    {
      "inputs": [
        {
          "internalType": "uint256",
          "name": "amount",
          "type": "uint256"
        }
      ],
      "name": "redeem",
      "outputs": [
        {
          "internalType": "uint256",
          "name": "",
          "type": "uint256"
        }
      ],
      "stateMutability": "nonpayable",
      "type": "function"
    },
    {
      "inputs": [],
      "name": "redeemFee",
      "outputs": [
        {
          "internalType": "uint256",
          "name": "",
          "type": "uint256"
        }
      ],
      "stateMutability": "view",
      "type": "function"
    },
    {
      "inputs": [],
      "name": "renounceOwnership",
      "outputs": [],
      "stateMutability": "nonpayable",
      "type": "function"
    },
    {
      "inputs": [],
      "name": "totalCollateral",
      "outputs": [
        {
          "internalType": "uint256",
          "name": "",
          "type": "uint256"
        }
      ],
      "stateMutability": "view",
      "type": "function"
    },
    {
      "inputs": [],
      "name": "totalDebt",
      "outputs": [
        {
          "internalType": "uint256",
          "name": "",
          "type": "uint256"
        }
      ],
      "stateMutability": "view",
      "type": "function"
    },
    {
      "inputs": [
        {
          "internalType": "address",
          "name": "newOwner",
          "type": "address"
        }
      ],
      "name": "transferOwnership",
      "outputs": [],
      "stateMutability": "nonpayable",
      "type": "function"
    },
    {
      "inputs": [],
      "name": "usdc",
      "outputs": [
        {
          "internalType": "contract IERC20",
          "name": "",
          "type": "address"
        }
      ],
      "stateMutability": "view",
      "type": "function"
    }
  ],
  "bytecode": "0x6080604052601e600455601e60055560786006553480156200002057600080fd5b5060405162001d0038038062001d008339818101604052810190620000469190620002c9565b80600073ffffffffffffffffffffffffffffffffffffffff168173ffffffffffffffffffffffffffffffffffffffff1603620000bc5760006040517f1e4fbdf7000000000000000000000000000000000000000000000000000000008152600401620000b391906200034c565b60405180910390fd5b620000cd816200019b60201b60201c565b5083600160006101000a81548173ffffffffffffffffffffffffffffffffffffffff021916908373ffffffffffffffffffffffffffffffffffffffff16021790555082600260006101000a81548173ffffffffffffffffffffffffffffffffffffffff021916908373ffffffffffffffffffffffffffffffffffffffff16021790555081600360006101000a81548173ffffffffffffffffffffffffffffffffffffffff021916908373ffffffffffffffffffffffffffffffffffffffff1602179055505050505062000369565b60008060009054906101000a900473ffffffffffffffffffffffffffffffffffffffff169050816000806101000a81548173ffffffffffffffffffffffffffffffffffffffff021916908373ffffffffffffffffffffffffffffffffffffffff1602179055508173ffffffffffffffffffffffffffffffffffffffff168173ffffffffffffffffffffffffffffffffffffffff167f8be0079c531659141344cd1fd0a4f28419497f9722a3daafe3b4186f6b6457e060405160405180910390a35050565b600080fd5b600073ffffffffffffffffffffffffffffffffffffffff82169050919050565b6000620002918262000264565b9050919050565b620002a38162000284565b8114620002af57600080fd5b50565b600081519050620002c38162000298565b92915050565b60008060008060808587031215620002e657620002e56200025f565b5b6000620002f687828801620002b2565b94505060206200030987828801620002b2565b93505060406200031c87828801620002b2565b92505060606200032f87828801620002b2565b91505092959194509250565b620003468162000284565b82525050565b60006020820190506200036360008301846200033b565b92915050565b61198780620003796000396000f3fe608060405234801561001057600080fd5b50600436106101005760003560e01c806384da266611610097578063cd377c5311610066578063cd377c5314610290578063db006a75146102ae578063f2fde38b146102de578063fc7b9c18146102fa57610100565b806384da2666146102185780638da5cb5b14610236578063965fa21e146102545780639f80fb4e1461027257610100565b806355f57510116100d357806355f575101461018f5780636008d28b146101c0578063715018a6146101f05780637dc0d1d0146101fa57610100565b806310b45de11461010557806313966db5146101355780633e413bee146101535780634ac8eb5f14610171575b600080fd5b61011f600480360381019061011a9190611202565b610318565b60405161012c9190611248565b60405180910390f35b61013d610479565b60405161014a9190611248565b60405180910390f35b61015b61047f565b60405161016891906112c2565b60405180910390f35b6101796104a5565b6040516101869190611248565b60405180910390f35b6101a960048036038101906101a49190611202565b6104ab565b6040516101b79291906112dd565b60405180910390f35b6101da60048036038101906101d59190611332565b6104cf565b6040516101e79190611248565b60405180910390f35b6101f8610a1a565b005b610202610a2e565b60405161020f9190611393565b60405180910390f35b610220610a54565b60405161022d9190611248565b60405180910390f35b61023e610a5a565b60405161024b91906113bd565b60405180910390f35b61025c610a83565b6040516102699190611248565b60405180910390f35b61027a610a89565b60405161028791906113f9565b60405180910390f35b610298610aaf565b6040516102a59190611248565b60405180910390f35b6102c860048036038101906102c39190611414565b610baf565b6040516102d59190611248565b60405180910390f35b6102f860048036038101906102f39190611202565b610fc0565b005b610302611046565b60405161030f9190611248565b60405180910390f35b600080600760008473ffffffffffffffffffffffffffffffffffffffff1673ffffffffffffffffffffffffffffffffffffffff1681526020019081526020016000206040518060400160405290816000820154815260200160018201548152505090506000816020015103610391576000915050610474565b6000600360009054906101000a900473ffffffffffffffffffffffffffffffffffffffff1673ffffffffffffffffffffffffffffffffffffffff166398d5fdca6040518163ffffffff1660e01b8152600401602060405180830381865afa158015610400573d6000803e3d6000fd5b505050506040513d601f19601f820116820180604052508101906104249190611456565b905060006c0c9f2c9cd04674edea4000000082846020015161044691906114b2565b6104509190611523565b9050806064846000015161046491906114b2565b61046e9190611523565b93505050505b919050565b60045481565b600160009054906101000a900473ffffffffffffffffffffffffffffffffffffffff1681565b60085481565b60076020528060005260406000206000915090508060000154908060010154905082565b6000808311610513576040517f08c379a000000000000000000000000000000000000000000000000000000000815260040161050a906115b1565b60405180910390fd5b60788210158015610526575061012c8211155b610565576040517f08c379a000000000000000000000000000000000000000000000000000000000815260040161055c9061161d565b60405180910390fd5b6000600360009054906101000a900473ffffffffffffffffffffffffffffffffffffffff1673ffffffffffffffffffffffffffffffffffffffff166398d5fdca6040518163ffffffff1660e01b8152600401602060405180830381865afa1580156105d4573d6000803e3d6000fd5b505050506040513d601f19601f820116820180604052508101906105f89190611456565b905060006127106004548661060d91906114b2565b6106179190611523565b905060008186610627919061163d565b905060008560648361063991906114b2565b6106439190611523565b90506000846c0c9f2c9cd04674edea400000008361066191906114b2565b61066b9190611523565b9050600081116106b0576040517f08c379a00000000000000000000000000000000000000000000000000000000081526004016106a7906116bd565b60405180910390fd5b6000836008546106c091906116dd565b9050600064e8d4a51000670de0b6b3a764000088856009546106e291906116dd565b6106ec91906114b2565b6106f69190611523565b6107009190611523565b905060008160648461071291906114b2565b61071c9190611523565b9050600654811015610763576040517f08c379a000000000000000000000000000000000000000000000000000000000815260040161075a9061175d565b60405180910390fd5b85600760003373ffffffffffffffffffffffffffffffffffffffff1673ffffffffffffffffffffffffffffffffffffffff16815260200190815260200160002060000160008282546107b591906116dd565b9250508190555083600760003373ffffffffffffffffffffffffffffffffffffffff1673ffffffffffffffffffffffffffffffffffffffff168152602001908152602001600020600101600082825461080e91906116dd565b92505081905550856008600082825461082791906116dd565b92505081905550836009600082825461084091906116dd565b92505081905550600160009054906101000a900473ffffffffffffffffffffffffffffffffffffffff1673ffffffffffffffffffffffffffffffffffffffff166323b872dd33308e6040518463ffffffff1660e01b81526004016108a69392919061177d565b6020604051808303816000875af11580156108c5573d6000803e3d6000fd5b505050506040513d601f19601f820116820180604052508101906108e991906117ec565b610928576040517f08c379a000000000000000000000000000000000000000000000000000000000815260040161091f90611865565b60405180910390fd5b600260009054906101000a900473ffffffffffffffffffffffffffffffffffffffff1673ffffffffffffffffffffffffffffffffffffffff166340c10f1933866040518363ffffffff1660e01b8152600401610985929190611885565b600060405180830381600087803b15801561099f57600080fd5b505af11580156109b3573d6000803e3d6000fd5b505050503373ffffffffffffffffffffffffffffffffffffffff167fb4c03061fb5b7fed76389d5af8f2e0ddb09f8c70d1333abbb62582835e10accb8c868d604051610a01939291906118ae565b60405180910390a2839850505050505050505092915050565b610a2261104c565b610a2c60006110d3565b565b600360009054906101000a900473ffffffffffffffffffffffffffffffffffffffff1681565b60065481565b60008060009054906101000a900473ffffffffffffffffffffffffffffffffffffffff16905090565b60055481565b600260009054906101000a900473ffffffffffffffffffffffffffffffffffffffff1681565b60008060095403610ac35760009050610bac565b6000600360009054906101000a900473ffffffffffffffffffffffffffffffffffffffff1673ffffffffffffffffffffffffffffffffffffffff166398d5fdca6040518163ffffffff1660e01b8152600401602060405180830381865afa158015610b32573d6000803e3d6000fd5b505050506040513d601f19601f82011682018060405250810190610b569190611456565b9050600064e8d4a51000670de0b6b3a764000083600954610b7791906114b2565b610b819190611523565b610b8b9190611523565b9050806064600854610b9d91906114b2565b610ba79190611523565b925050505b90565b6000808211610bf3576040517f08c379a0000000000000000000000000000000000000000000000000000000008152600401610bea906115b1565b60405180910390fd5b6000600760003373ffffffffffffffffffffffffffffffffffffffff1673ffffffffffffffffffffffffffffffffffffffff16815260200190815260200160002090508281600101541015610c7d576040517f08c379a0000000000000000000000000000000000000000000000000000000008152600401610c7490611931565b60405180910390fd5b6000600360009054906101000a900473ffffffffffffffffffffffffffffffffffffffff1673ffffffffffffffffffffffffffffffffffffffff166398d5fdca6040518163ffffffff1660e01b8152600401602060405180830381865afa158015610cec573d6000803e3d6000fd5b505050506040513d601f19601f82011682018060405250810190610d109190611456565b905060006c0c9f2c9cd04674edea400000008286610d2e91906114b2565b610d389190611523565b905060008360010154846000015487610d5191906114b2565b610d5b9190611523565b9050600061271060055483610d7091906114b2565b610d7a9190611523565b905060008183610d8a919061163d565b905082866000016000828254610da0919061163d565b9250508190555087866001016000828254610dbb919061163d565b925050819055508260086000828254610dd4919061163d565b925050819055508760096000828254610ded919061163d565b92505081905550600260009054906101000a900473ffffffffffffffffffffffffffffffffffffffff1673ffffffffffffffffffffffffffffffffffffffff16639dc29fac338a6040518363ffffffff1660e01b8152600401610e51929190611885565b600060405180830381600087803b158015610e6b57600080fd5b505af1158015610e7f573d6000803e3d6000fd5b50505050600160009054906101000a900473ffffffffffffffffffffffffffffffffffffffff1673ffffffffffffffffffffffffffffffffffffffff1663a9059cbb33836040518363ffffffff1660e01b8152600401610ee0929190611885565b6020604051808303816000875af1158015610eff573d6000803e3d6000fd5b505050506040513d601f19601f82011682018060405250810190610f2391906117ec565b610f62576040517f08c379a0000000000000000000000000000000000000000000000000000000008152600401610f5990611865565b60405180910390fd5b3373ffffffffffffffffffffffffffffffffffffffff167fe5b754fb1abb7f01b499791d0b820ae3b6af3424ac1c59768edb53f4ec31a9298983604051610faa9291906112dd565b60405180910390a2809650505050505050919050565b610fc861104c565b600073ffffffffffffffffffffffffffffffffffffffff168173ffffffffffffffffffffffffffffffffffffffff160361103a5760006040517f1e4fbdf700000000000000000000000000000000000000000000000000000000815260040161103191906113bd565b60405180910390fd5b611043816110d3565b50565b60095481565b611054611197565b73ffffffffffffffffffffffffffffffffffffffff16611072610a5a565b73ffffffffffffffffffffffffffffffffffffffff16146110d157611095611197565b6040517f118cdaa70000000000000000000000000000000000000000000000000000000081526004016110c891906113bd565b60405180910390fd5b565b60008060009054906101000a900473ffffffffffffffffffffffffffffffffffffffff169050816000806101000a81548173ffffffffffffffffffffffffffffffffffffffff021916908373ffffffffffffffffffffffffffffffffffffffff1602179055508173ffffffffffffffffffffffffffffffffffffffff168173ffffffffffffffffffffffffffffffffffffffff167f8be0079c531659141344cd1fd0a4f28419497f9722a3daafe3b4186f6b6457e060405160405180910390a35050565b600033905090565b600080fd5b600073ffffffffffffffffffffffffffffffffffffffff82169050919050565b60006111cf826111a4565b9050919050565b6111df816111c4565b81146111ea57600080fd5b50565b6000813590506111fc816111d6565b92915050565b6000602082840312156112185761121761119f565b5b6000611226848285016111ed565b91505092915050565b6000819050919050565b6112428161122f565b82525050565b600060208201905061125d6000830184611239565b92915050565b6000819050919050565b600061128861128361127e846111a4565b611263565b6111a4565b9050919050565b600061129a8261126d565b9050919050565b60006112ac8261128f565b9050919050565b6112bc816112a1565b82525050565b60006020820190506112d760008301846112b3565b92915050565b60006040820190506112f26000830185611239565b6112ff6020830184611239565b9392505050565b61130f8161122f565b811461131a57600080fd5b50565b60008135905061132c81611306565b92915050565b600080604083850312156113495761134861119f565b5b60006113578582860161131d565b92505060206113688582860161131d565b9150509250929050565b600061137d8261128f565b9050919050565b61138d81611372565b82525050565b60006020820190506113a86000830184611384565b92915050565b6113b7816111c4565b82525050565b60006020820190506113d260008301846113ae565b92915050565b60006113e38261128f565b9050919050565b6113f3816113d8565b82525050565b600060208201905061140e60008301846113ea565b92915050565b60006020828403121561142a5761142961119f565b5b60006114388482850161131d565b91505092915050565b60008151905061145081611306565b92915050565b60006020828403121561146c5761146b61119f565b5b600061147a84828501611441565b91505092915050565b7f4e487b7100000000000000000000000000000000000000000000000000000000600052601160045260246000fd5b60006114bd8261122f565b91506114c88361122f565b92508282026114d68161122f565b915082820484148315176114ed576114ec611483565b5b5092915050565b7f4e487b7100000000000000000000000000000000000000000000000000000000600052601260045260246000fd5b600061152e8261122f565b91506115398361122f565b925082611549576115486114f4565b5b828204905092915050565b600082825260208201905092915050565b7f416d6f756e74206d757374206265203e20300000000000000000000000000000600082015250565b600061159b601283611554565b91506115a682611565565b602082019050919050565b600060208201905081810360008301526115ca8161158e565b9050919050565b7f496e76616c696420435200000000000000000000000000000000000000000000600082015250565b6000611607600a83611554565b9150611612826115d1565b602082019050919050565b60006020820190508181036000830152611636816115fa565b9050919050565b60006116488261122f565b91506116538361122f565b925082820390508181111561166b5761166a611483565b5b92915050565b7f416d6f756e7420746f6f20736d616c6c00000000000000000000000000000000600082015250565b60006116a7601083611554565b91506116b282611671565b602082019050919050565b600060208201905081810360008301526116d68161169a565b9050919050565b60006116e88261122f565b91506116f38361122f565b925082820190508082111561170b5761170a611483565b5b92915050565b7f576f756c642076696f6c617465206d696e204352000000000000000000000000600082015250565b6000611747601483611554565b915061175282611711565b602082019050919050565b600060208201905081810360008301526117768161173a565b9050919050565b600060608201905061179260008301866113ae565b61179f60208301856113ae565b6117ac6040830184611239565b949350505050565b60008115159050919050565b6117c9816117b4565b81146117d457600080fd5b50565b6000815190506117e6816117c0565b92915050565b6000602082840312156118025761180161119f565b5b6000611810848285016117d7565b91505092915050565b7f5472616e73666572206661696c65640000000000000000000000000000000000600082015250565b600061184f600f83611554565b915061185a82611819565b602082019050919050565b6000602082019050818103600083015261187e81611842565b9050919050565b600060408201905061189a60008301856113ae565b6118a76020830184611239565b9392505050565b60006060820190506118c36000830186611239565b6118d06020830185611239565b6118dd6040830184611239565b949350505050565b7f496e73756666696369656e742064656274000000000000000000000000000000600082015250565b600061191b601183611554565b9150611926826118e5565b602082019050919050565b6000602082019050818103600083015261194a8161190e565b905091905056fea264697066735822122008c4d98d8ad999e1571291724dde0b1d45fc6fe1a5ee1063b19647a46fa1882b64736f6c63430008150033",
  "linkReferences": {},
  "deployedLinkReferences": {}
}