{
  "_format": "hh-sol-artifact-1",
  "contractName": "EVIXMintRedeemV6",
  "sourceName": "contracts/EVIXMintRedeemV6.sol",
  "abi": [
    {
      "inputs": [
        {
          "internalType": "address",
          "name": "_usdc",
          "type": "address"
        },
        {
          "internalType": "address",
          "name": "_evix",
          "type": "address"
        },
        {
          "internalType": "address",
          "name": "_oracle",
          "type": "address"
        },
        {
          "internalType": "address",
          "name": "initialOwner",
          "type": "address"
        }
      ],
      "stateMutability": "nonpayable",
      "type": "constructor"
    },
    {
      "inputs": [
        {
          "internalType": "address",
          "name": "owner",
          "type": "address"
        }
      ],
      "name": "OwnableInvalidOwner",
      "type": "error"
    },
    {
      "inputs": [
        {
          "internalType": "address",
          "name": "account",
          "type": "address"
        }
      ],
      "name": "OwnableUnauthorizedAccount",
      "type": "error"
    },
    {
      "anonymous": false,
      "inputs": [
        {
          "indexed": true,
          "internalType": "address",
          "name": "user",
          "type": "address"
        },
        {
          "indexed": false,
          "internalType": "uint256",
          "name": "usdcAmount",
          "type": "uint256"
        },
        {
          "indexed": false,
          "internalType": "uint256",
          "name": "evixMinted",
          "type": "uint256"
        },
        {
          "indexed": false,
          "internalType": "uint256",
          "name": "targetCR",
          "type": "uint256"
        }
      ],
      "name": "Mint",
      "type": "event"
    },
    {
      "anonymous": false,
      "inputs": [
        {
          "indexed": true,
          "internalType": "address",
          "name": "previousOwner",
          "type": "address"
        },
        {
          "indexed": true,
          "internalType": "address",
          "name": "newOwner",
          "type": "address"
        }
      ],
      "name": "OwnershipTransferred",
      "type": "event"
    },
    {
      "anonymous": false,
      "inputs": [
        {
          "indexed": true,
          "internalType": "address",
          "name": "user",
          "type": "address"
        },
        {
          "indexed": false,
          "internalType": "uint256",
          "name": "evixAmount",
          "type": "uint256"
        },
        {
          "indexed": false,
          "internalType": "uint256",
          "name": "usdcRedeemed",
          "type": "uint256"
        }
      ],
      "name": "Redeem",
      "type": "event"
    },
    {
      "inputs": [],
      "name": "evix",
      "outputs": [
        {
          "internalType": "contract EVIXToken",
          "name": "",
          "type": "address"
        }
      ],
      "stateMutability": "view",
      "type": "function"
    },
    {
      "inputs": [],
      "name": "getCollateralRatio",
      "outputs": [
        {
          "internalType": "uint256",
          "name": "",
          "type": "uint256"
        }
      ],
      "stateMutability": "view",
      "type": "function"
    },
    {
      "inputs": [
        {
          "internalType": "address",
          "name": "user",
          "type": "address"
        }
      ],
      "name": "getUserCollateralRatio",
      "outputs": [
        {
          "internalType": "uint256",
          "name": "",
          "type": "uint256"
        }
      ],
      "stateMutability": "view",
      "type": "function"
    },
    {
      "inputs": [],
      "name": "minCollateralRatio",
      "outputs": [
        {
          "internalType": "uint256",
          "name": "",
          "type": "uint256"
        }
      ],
      "stateMutability": "view",
      "type": "function"
    },
    {
      "inputs": [],
      "name": "mintFee",
      "outputs": [
        {
          "internalType": "uint256",
          "name": "",
          "type": "uint256"
        }
      ],
      "stateMutability": "view",
      "type": "function"
    },
    {
      "inputs": [
        {
          "internalType": "uint256",
          "name": "amount",
          "type": "uint256"
        },
        {
          "internalType": "uint256",
          "name": "targetCR",
          "type": "uint256"
        }
      ],
      "name": "mintWithCollateralRatio",
      "outputs": [
        {
          "internalType": "uint256",
          "name": "",
          "type": "uint256"
        }
      ],
      "stateMutability": "nonpayable",
      "type": "function"
    },
    {
      "inputs": [],
      "name": "oracle",
      "outputs": [
        {
          "internalType": "contract EVIXOracle",
          "name": "",
          "type": "address"
        }
      ],
      "stateMutability": "view",
      "type": "function"
    },
    {
      "inputs": [],
      "name": "owner",
      "outputs": [
        {
          "internalType": "address",
          "name": "",
          "type": "address"
        }
      ],
      "stateMutability": "view",
      "type": "function"
    },
    {
      "inputs": [
        {
          "internalType": "address",
          "name": "",
          "type": "address"
        }
      ],
      "name": "positions",
      "outputs": [
        {
          "internalType": "uint256",
          "name": "collateral",
          "type": "uint256"
        },
        {
          "internalType": "uint256",
          "name": "debt",
          "type": "uint256"
        }
      ],
      "stateMutability": "view",
      "type": "function"
    },
    {
      "inputs": [
        {
          "internalType": "uint256",
          "name": "amount",
          "type": "uint256"
        }
      ],
      "name": "redeem",
      "outputs": [
        {
          "internalType": "uint256",
          "name": "",
          "type": "uint256"
        }
      ],
      "stateMutability": "nonpayable",
      "type": "function"
    },
    {
      "inputs": [],
      "name": "redeemFee",
      "outputs": [
        {
          "internalType": "uint256",
          "name": "",
          "type": "uint256"
        }
      ],
      "stateMutability": "view",
      "type": "function"
    },
    {
      "inputs": [],
      "name": "renounceOwnership",
      "outputs": [],
      "stateMutability": "nonpayable",
      "type": "function"
    },
    {
      "inputs": [],
      "name": "totalCollateral",
      "outputs": [
        {
          "internalType": "uint256",
          "name": "",
          "type": "uint256"
        }
      ],
      "stateMutability": "view",
      "type": "function"
    },
    {
      "inputs": [],
      "name": "totalDebt",
      "outputs": [
        {
          "internalType": "uint256",
          "name": "",
          "type": "uint256"
        }
      ],
      "stateMutability": "view",
      "type": "function"
    },
    {
      "inputs": [
        {
          "internalType": "address",
          "name": "newOwner",
          "type": "address"
        }
      ],
      "name": "transferOwnership",
      "outputs": [],
      "stateMutability": "nonpayable",
      "type": "function"
    },
    {
      "inputs": [],
      "name": "usdc",
      "outputs": [
        {
          "internalType": "contract IERC20",
          "name": "",
          "type": "address"
        }
      ],
      "stateMutability": "view",
      "type": "function"
    }
  ],
  "bytecode": "0x6080604052601e600455601e60055560786006553480156200002057600080fd5b5060405162001d2138038062001d218339818101604052810190620000469190620002c9565b80600073ffffffffffffffffffffffffffffffffffffffff168173ffffffffffffffffffffffffffffffffffffffff1603620000bc5760006040517f1e4fbdf7000000000000000000000000000000000000000000000000000000008152600401620000b391906200034c565b60405180910390fd5b620000cd816200019b60201b60201c565b5083600160006101000a81548173ffffffffffffffffffffffffffffffffffffffff021916908373ffffffffffffffffffffffffffffffffffffffff16021790555082600260006101000a81548173ffffffffffffffffffffffffffffffffffffffff021916908373ffffffffffffffffffffffffffffffffffffffff16021790555081600360006101000a81548173ffffffffffffffffffffffffffffffffffffffff021916908373ffffffffffffffffffffffffffffffffffffffff1602179055505050505062000369565b60008060009054906101000a900473ffffffffffffffffffffffffffffffffffffffff169050816000806101000a81548173ffffffffffffffffffffffffffffffffffffffff021916908373ffffffffffffffffffffffffffffffffffffffff1602179055508173ffffffffffffffffffffffffffffffffffffffff168173ffffffffffffffffffffffffffffffffffffffff167f8be0079c531659141344cd1fd0a4f28419497f9722a3daafe3b4186f6b6457e060405160405180910390a35050565b600080fd5b600073ffffffffffffffffffffffffffffffffffffffff82169050919050565b6000620002918262000264565b9050919050565b620002a38162000284565b8114620002af57600080fd5b50565b600081519050620002c38162000298565b92915050565b60008060008060808587031215620002e657620002e56200025f565b5b6000620002f687828801620002b2565b94505060206200030987828801620002b2565b93505060406200031c87828801620002b2565b92505060606200032f87828801620002b2565b91505092959194509250565b620003468162000284565b82525050565b60006020820190506200036360008301846200033b565b92915050565b6119a880620003796000396000f3fe608060405234801561001057600080fd5b50600436106101005760003560e01c80637dc0d1d011610097578063cd377c5311610066578063cd377c5314610290578063db006a75146102ae578063f2fde38b146102de578063fc7b9c18146102fa57610100565b80637dc0d1d01461021857806384da2666146102365780638da5cb5b14610254578063965fa21e1461027257610100565b80634ac8eb5f116100d35780634ac8eb5f1461018f57806355f57510146101ad5780636008d28b146101de578063715018a61461020e57610100565b806310567b8a1461010557806310b45de11461012357806313966db5146101535780633e413bee14610171575b600080fd5b61010d610318565b60405161011a919061121e565b60405180910390f35b61013d6004803603810190610138919061127c565b61033e565b60405161014a91906112c2565b60405180910390f35b61015b61049f565b60405161016891906112c2565b60405180910390f35b6101796104a5565b60405161018691906112fe565b60405180910390f35b6101976104cb565b6040516101a491906112c2565b60405180910390f35b6101c760048036038101906101c2919061127c565b6104d1565b6040516101d5929190611319565b60405180910390f35b6101f860048036038101906101f3919061136e565b6104f5565b60405161020591906112c2565b60405180910390f35b610216610a40565b005b610220610a54565b60405161022d91906113cf565b60405180910390f35b61023e610a7a565b60405161024b91906112c2565b60405180910390f35b61025c610a80565b60405161026991906113f9565b60405180910390f35b61027a610aa9565b60405161028791906112c2565b60405180910390f35b610298610aaf565b6040516102a591906112c2565b60405180910390f35b6102c860048036038101906102c39190611414565b610baf565b6040516102d591906112c2565b60405180910390f35b6102f860048036038101906102f3919061127c565b610fc0565b005b610302611046565b60405161030f91906112c2565b60405180910390f35b600260009054906101000a900473ffffffffffffffffffffffffffffffffffffffff1681565b600080600760008473ffffffffffffffffffffffffffffffffffffffff1673ffffffffffffffffffffffffffffffffffffffff16815260200190815260200160002060405180604001604052908160008201548152602001600182015481525050905060008160200151036103b757600091505061049a565b6000600360009054906101000a900473ffffffffffffffffffffffffffffffffffffffff1673ffffffffffffffffffffffffffffffffffffffff166398d5fdca6040518163ffffffff1660e01b8152600401602060405180830381865afa158015610426573d6000803e3d6000fd5b505050506040513d601f19601f8201168201806040525081019061044a9190611477565b905060006c0c9f2c9cd04674edea4000000082846020015161046c91906114d3565b6104769190611544565b9050806064846000015161048a91906114d3565b6104949190611544565b93505050505b919050565b60045481565b600160009054906101000a900473ffffffffffffffffffffffffffffffffffffffff1681565b60085481565b60076020528060005260406000206000915090508060000154908060010154905082565b6000808311610539576040517f08c379a0000000000000000000000000000000000000000000000000000000008152600401610530906115d2565b60405180910390fd5b6078821015801561054c575061012c8211155b61058b576040517f08c379a00000000000000000000000000000000000000000000000000000000081526004016105829061163e565b60405180910390fd5b6000600360009054906101000a900473ffffffffffffffffffffffffffffffffffffffff1673ffffffffffffffffffffffffffffffffffffffff166398d5fdca6040518163ffffffff1660e01b8152600401602060405180830381865afa1580156105fa573d6000803e3d6000fd5b505050506040513d601f19601f8201168201806040525081019061061e9190611477565b905060006127106004548661063391906114d3565b61063d9190611544565b90506000818661064d919061165e565b905060008560648361065f91906114d3565b6106699190611544565b90506000846c0c9f2c9cd04674edea400000008361068791906114d3565b6106919190611544565b9050600081116106d6576040517f08c379a00000000000000000000000000000000000000000000000000000000081526004016106cd906116de565b60405180910390fd5b6000836008546106e691906116fe565b9050600064e8d4a51000670de0b6b3a7640000888560095461070891906116fe565b61071291906114d3565b61071c9190611544565b6107269190611544565b905060008160648461073891906114d3565b6107429190611544565b9050600654811015610789576040517f08c379a00000000000000000000000000000000000000000000000000000000081526004016107809061177e565b60405180910390fd5b85600760003373ffffffffffffffffffffffffffffffffffffffff1673ffffffffffffffffffffffffffffffffffffffff16815260200190815260200160002060000160008282546107db91906116fe565b9250508190555083600760003373ffffffffffffffffffffffffffffffffffffffff1673ffffffffffffffffffffffffffffffffffffffff168152602001908152602001600020600101600082825461083491906116fe565b92505081905550856008600082825461084d91906116fe565b92505081905550836009600082825461086691906116fe565b92505081905550600160009054906101000a900473ffffffffffffffffffffffffffffffffffffffff1673ffffffffffffffffffffffffffffffffffffffff166323b872dd33308e6040518463ffffffff1660e01b81526004016108cc9392919061179e565b6020604051808303816000875af11580156108eb573d6000803e3d6000fd5b505050506040513d601f19601f8201168201806040525081019061090f919061180d565b61094e576040517f08c379a000000000000000000000000000000000000000000000000000000000815260040161094590611886565b60405180910390fd5b600260009054906101000a900473ffffffffffffffffffffffffffffffffffffffff1673ffffffffffffffffffffffffffffffffffffffff166340c10f1933866040518363ffffffff1660e01b81526004016109ab9291906118a6565b600060405180830381600087803b1580156109c557600080fd5b505af11580156109d9573d6000803e3d6000fd5b505050503373ffffffffffffffffffffffffffffffffffffffff167fb4c03061fb5b7fed76389d5af8f2e0ddb09f8c70d1333abbb62582835e10accb8c868d604051610a27939291906118cf565b60405180910390a2839850505050505050505092915050565b610a4861104c565b610a5260006110d3565b565b600360009054906101000a900473ffffffffffffffffffffffffffffffffffffffff1681565b60065481565b60008060009054906101000a900473ffffffffffffffffffffffffffffffffffffffff16905090565b60055481565b60008060095403610ac35760009050610bac565b6000600360009054906101000a900473ffffffffffffffffffffffffffffffffffffffff1673ffffffffffffffffffffffffffffffffffffffff166398d5fdca6040518163ffffffff1660e01b8152600401602060405180830381865afa158015610b32573d6000803e3d6000fd5b505050506040513d601f19601f82011682018060405250810190610b569190611477565b9050600064e8d4a51000670de0b6b3a764000083600954610b7791906114d3565b610b819190611544565b610b8b9190611544565b9050806064600854610b9d91906114d3565b610ba79190611544565b925050505b90565b6000808211610bf3576040517f08c379a0000000000000000000000000000000000000000000000000000000008152600401610bea906115d2565b60405180910390fd5b6000600760003373ffffffffffffffffffffffffffffffffffffffff1673ffffffffffffffffffffffffffffffffffffffff16815260200190815260200160002090508281600101541015610c7d576040517f08c379a0000000000000000000000000000000000000000000000000000000008152600401610c7490611952565b60405180910390fd5b6000600360009054906101000a900473ffffffffffffffffffffffffffffffffffffffff1673ffffffffffffffffffffffffffffffffffffffff166398d5fdca6040518163ffffffff1660e01b8152600401602060405180830381865afa158015610cec573d6000803e3d6000fd5b505050506040513d601f19601f82011682018060405250810190610d109190611477565b905060006c0c9f2c9cd04674edea400000008286610d2e91906114d3565b610d389190611544565b905060008360010154846000015487610d5191906114d3565b610d5b9190611544565b9050600061271060055483610d7091906114d3565b610d7a9190611544565b905060008183610d8a919061165e565b905082866000016000828254610da0919061165e565b9250508190555087866001016000828254610dbb919061165e565b925050819055508260086000828254610dd4919061165e565b925050819055508760096000828254610ded919061165e565b92505081905550600260009054906101000a900473ffffffffffffffffffffffffffffffffffffffff1673ffffffffffffffffffffffffffffffffffffffff16639dc29fac338a6040518363ffffffff1660e01b8152600401610e519291906118a6565b600060405180830381600087803b158015610e6b57600080fd5b505af1158015610e7f573d6000803e3d6000fd5b50505050600160009054906101000a900473ffffffffffffffffffffffffffffffffffffffff1673ffffffffffffffffffffffffffffffffffffffff1663a9059cbb33836040518363ffffffff1660e01b8152600401610ee09291906118a6565b6020604051808303816000875af1158015610eff573d6000803e3d6000fd5b505050506040513d601f19601f82011682018060405250810190610f23919061180d565b610f62576040517f08c379a0000000000000000000000000000000000000000000000000000000008152600401610f5990611886565b60405180910390fd5b3373ffffffffffffffffffffffffffffffffffffffff167fe5b754fb1abb7f01b499791d0b820ae3b6af3424ac1c59768edb53f4ec31a9298983604051610faa929190611319565b60405180910390a2809650505050505050919050565b610fc861104c565b600073ffffffffffffffffffffffffffffffffffffffff168173ffffffffffffffffffffffffffffffffffffffff160361103a5760006040517f1e4fbdf700000000000000000000000000000000000000000000000000000000815260040161103191906113f9565b60405180910390fd5b611043816110d3565b50565b60095481565b611054611197565b73ffffffffffffffffffffffffffffffffffffffff16611072610a80565b73ffffffffffffffffffffffffffffffffffffffff16146110d157611095611197565b6040517f118cdaa70000000000000000000000000000000000000000000000000000000081526004016110c891906113f9565b60405180910390fd5b565b60008060009054906101000a900473ffffffffffffffffffffffffffffffffffffffff169050816000806101000a81548173ffffffffffffffffffffffffffffffffffffffff021916908373ffffffffffffffffffffffffffffffffffffffff1602179055508173ffffffffffffffffffffffffffffffffffffffff168173ffffffffffffffffffffffffffffffffffffffff167f8be0079c531659141344cd1fd0a4f28419497f9722a3daafe3b4186f6b6457e060405160405180910390a35050565b600033905090565b600073ffffffffffffffffffffffffffffffffffffffff82169050919050565b6000819050919050565b60006111e46111df6111da8461119f565b6111bf565b61119f565b9050919050565b60006111f6826111c9565b9050919050565b6000611208826111eb565b9050919050565b611218816111fd565b82525050565b6000602082019050611233600083018461120f565b92915050565b600080fd5b60006112498261119f565b9050919050565b6112598161123e565b811461126457600080fd5b50565b60008135905061127681611250565b92915050565b60006020828403121561129257611291611239565b5b60006112a084828501611267565b91505092915050565b6000819050919050565b6112bc816112a9565b82525050565b60006020820190506112d760008301846112b3565b92915050565b60006112e8826111eb565b9050919050565b6112f8816112dd565b82525050565b600060208201905061131360008301846112ef565b92915050565b600060408201905061132e60008301856112b3565b61133b60208301846112b3565b9392505050565b61134b816112a9565b811461135657600080fd5b50565b60008135905061136881611342565b92915050565b6000806040838503121561138557611384611239565b5b600061139385828601611359565b92505060206113a485828601611359565b9150509250929050565b60006113b9826111eb565b9050919050565b6113c9816113ae565b82525050565b60006020820190506113e460008301846113c0565b92915050565b6113f38161123e565b82525050565b600060208201905061140e60008301846113ea565b92915050565b60006020828403121561142a57611429611239565b5b600061143884828501611359565b91505092915050565b6000819050919050565b61145481611441565b811461145f57600080fd5b50565b6000815190506114718161144b565b92915050565b60006020828403121561148d5761148c611239565b5b600061149b84828501611462565b91505092915050565b7f4e487b7100000000000000000000000000000000000000000000000000000000600052601160045260246000fd5b60006114de826112a9565b91506114e9836112a9565b92508282026114f7816112a9565b9150828204841483151761150e5761150d6114a4565b5b5092915050565b7f4e487b7100000000000000000000000000000000000000000000000000000000600052601260045260246000fd5b600061154f826112a9565b915061155a836112a9565b92508261156a57611569611515565b5b828204905092915050565b600082825260208201905092915050565b7f416d6f756e74206d757374206265203e20300000000000000000000000000000600082015250565b60006115bc601283611575565b91506115c782611586565b602082019050919050565b600060208201905081810360008301526115eb816115af565b9050919050565b7f496e76616c696420435200000000000000000000000000000000000000000000600082015250565b6000611628600a83611575565b9150611633826115f2565b602082019050919050565b600060208201905081810360008301526116578161161b565b9050919050565b6000611669826112a9565b9150611674836112a9565b925082820390508181111561168c5761168b6114a4565b5b92915050565b7f416d6f756e7420746f6f20736d616c6c00000000000000000000000000000000600082015250565b60006116c8601083611575565b91506116d382611692565b602082019050919050565b600060208201905081810360008301526116f7816116bb565b9050919050565b6000611709826112a9565b9150611714836112a9565b925082820190508082111561172c5761172b6114a4565b5b92915050565b7f576f756c642076696f6c617465206d696e204352000000000000000000000000600082015250565b6000611768601483611575565b915061177382611732565b602082019050919050565b600060208201905081810360008301526117978161175b565b9050919050565b60006060820190506117b360008301866113ea565b6117c060208301856113ea565b6117cd60408301846112b3565b949350505050565b60008115159050919050565b6117ea816117d5565b81146117f557600080fd5b50565b600081519050611807816117e1565b92915050565b60006020828403121561182357611822611239565b5b6000611831848285016117f8565b91505092915050565b7f5472616e73666572206661696c65640000000000000000000000000000000000600082015250565b6000611870600f83611575565b915061187b8261183a565b602082019050919050565b6000602082019050818103600083015261189f81611863565b9050919050565b60006040820190506118bb60008301856113ea565b6118c860208301846112b3565b9392505050565b60006060820190506118e460008301866112b3565b6118f160208301856112b3565b6118fe60408301846112b3565b949350505050565b7f496e73756666696369656e742064656274000000000000000000000000000000600082015250565b600061193c601183611575565b915061194782611906565b602082019050919050565b6000602082019050818103600083015261196b8161192f565b905091905056fea2646970667358221220ac47c9ca4722b2bb56045f525fbd71292a0641e71c6631025f1faba7d1c1d0d064736f6c63430008150033",
  "linkReferences": {},
  "deployedLinkReferences": {}
}