{
  "_format": "hh-sol-artifact-1",
  "contractName": "EVIXMintRedeemV6",
  "sourceName": "contracts/EVIXMintRedeemV6.sol",
  "abi": [
    {
      "inputs": [
        {
          "internalType": "address",
          "name": "_usdc",
          "type": "address"
        },
        {
          "internalType": "address",
          "name": "_evix",
          "type": "address"
        },
        {
          "internalType": "address",
          "name": "_oracle",
          "type": "address"
        },
        {
          "internalType": "address",
          "name": "initialOwner",
          "type": "address"
        }
      ],
      "stateMutability": "nonpayable",
      "type": "constructor"
    },
    {
      "inputs": [
        {
          "internalType": "address",
          "name": "owner",
          "type": "address"
        }
      ],
      "name": "OwnableInvalidOwner",
      "type": "error"
    },
    {
      "inputs": [
        {
          "internalType": "address",
          "name": "account",
          "type": "address"
        }
      ],
      "name": "OwnableUnauthorizedAccount",
      "type": "error"
    },
    {
      "anonymous": false,
      "inputs": [
        {
          "indexed": true,
          "internalType": "address",
          "name": "user",
          "type": "address"
        },
        {
          "indexed": false,
          "internalType": "uint256",
          "name": "usdcAmount",
          "type": "uint256"
        },
        {
          "indexed": false,
          "internalType": "uint256",
          "name": "evixMinted",
          "type": "uint256"
        },
        {
          "indexed": false,
          "internalType": "uint256",
          "name": "targetCR",
          "type": "uint256"
        }
      ],
      "name": "Mint",
      "type": "event"
    },
    {
      "anonymous": false,
      "inputs": [
        {
          "indexed": true,
          "internalType": "address",
          "name": "previousOwner",
          "type": "address"
        },
        {
          "indexed": true,
          "internalType": "address",
          "name": "newOwner",
          "type": "address"
        }
      ],
      "name": "OwnershipTransferred",
      "type": "event"
    },
    {
      "anonymous": false,
      "inputs": [
        {
          "indexed": true,
          "internalType": "address",
          "name": "user",
          "type": "address"
        },
        {
          "indexed": false,
          "internalType": "uint256",
          "name": "evixAmount",
          "type": "uint256"
        },
        {
          "indexed": false,
          "internalType": "uint256",
          "name": "usdcRedeemed",
          "type": "uint256"
        }
      ],
      "name": "Redeem",
      "type": "event"
    },
    {
      "inputs": [],
      "name": "evix",
      "outputs": [
        {
          "internalType": "contract EVIXToken",
          "name": "",
          "type": "address"
        }
      ],
      "stateMutability": "view",
      "type": "function"
    },
    {
      "inputs": [],
      "name": "getCollateralRatio",
      "outputs": [
        {
          "internalType": "uint256",
          "name": "",
          "type": "uint256"
        }
      ],
      "stateMutability": "view",
      "type": "function"
    },
    {
      "inputs": [
        {
          "internalType": "address",
          "name": "user",
          "type": "address"
        }
      ],
      "name": "getUserCollateralRatio",
      "outputs": [
        {
          "internalType": "uint256",
          "name": "",
          "type": "uint256"
        }
      ],
      "stateMutability": "view",
      "type": "function"
    },
    {
      "inputs": [],
      "name": "minCollateralRatio",
      "outputs": [
        {
          "internalType": "uint256",
          "name": "",
          "type": "uint256"
        }
      ],
      "stateMutability": "view",
      "type": "function"
    },
    {
      "inputs": [],
      "name": "mintFee",
      "outputs": [
        {
          "internalType": "uint256",
          "name": "",
          "type": "uint256"
        }
      ],
      "stateMutability": "view",
      "type": "function"
    },
    {
      "inputs": [
        {
          "internalType": "uint256",
          "name": "amount",
          "type": "uint256"
        },
        {
          "internalType": "uint256",
          "name": "targetCR",
          "type": "uint256"
        }
      ],
      "name": "mintWithCollateralRatio",
      "outputs": [
        {
          "internalType": "uint256",
          "name": "",
          "type": "uint256"
        }
      ],
      "stateMutability": "nonpayable",
      "type": "function"
    },
    {
      "inputs": [],
      "name": "oracle",
      "outputs": [
        {
          "internalType": "contract EVIXOracle",
          "name": "",
          "type": "address"
        }
      ],
      "stateMutability": "view",
      "type": "function"
    },
    {
      "inputs": [],
      "name": "owner",
      "outputs": [
        {
          "internalType": "address",
          "name": "",
          "type": "address"
        }
      ],
      "stateMutability": "view",
      "type": "function"
    },
    {
      "inputs": [
        {
          "internalType": "address",
          "name": "",
          "type": "address"
        }
      ],
      "name": "positions",
      "outputs": [
        {
          "internalType": "uint256",
          "name": "collateral",
          "type": "uint256"
        },
        {
          "internalType": "uint256",
          "name": "debt",
          "type": "uint256"
        }
      ],
      "stateMutability": "view",
      "type": "function"
    },
    {
      "inputs": [
        {
          "internalType": "uint256",
          "name": "amount",
          "type": "uint256"
        }
      ],
      "name": "redeem",
      "outputs": [
        {
          "internalType": "uint256",
          "name": "",
          "type": "uint256"
        }
      ],
      "stateMutability": "nonpayable",
      "type": "function"
    },
    {
      "inputs": [],
      "name": "redeemFee",
      "outputs": [
        {
          "internalType": "uint256",
          "name": "",
          "type": "uint256"
        }
      ],
      "stateMutability": "view",
      "type": "function"
    },
    {
      "inputs": [],
      "name": "renounceOwnership",
      "outputs": [],
      "stateMutability": "nonpayable",
      "type": "function"
    },
    {
      "inputs": [],
      "name": "totalCollateral",
      "outputs": [
        {
          "internalType": "uint256",
          "name": "",
          "type": "uint256"
        }
      ],
      "stateMutability": "view",
      "type": "function"
    },
    {
      "inputs": [],
      "name": "totalDebt",
      "outputs": [
        {
          "internalType": "uint256",
          "name": "",
          "type": "uint256"
        }
      ],
      "stateMutability": "view",
      "type": "function"
    },
    {
      "inputs": [
        {
          "internalType": "address",
          "name": "newOwner",
          "type": "address"
        }
      ],
      "name": "transferOwnership",
      "outputs": [],
      "stateMutability": "nonpayable",
      "type": "function"
    },
    {
      "inputs": [],
      "name": "usdc",
      "outputs": [
        {
          "internalType": "contract IERC20",
          "name": "",
          "type": "address"
        }
      ],
      "stateMutability": "view",
      "type": "function"
    }
  ],
  "bytecode": "0x60803461011a57601f610e6a38819003918201601f19168301916001600160401b0383118484101761011f5780849260809460405283398101031261011a5761004781610135565b90606061005660208301610135565b9161006360408201610135565b6001600160a01b03929091839161007a9101610135565b1692831561010157600080546001600160a01b03198082168717835560405197909686949385938416907f8be0079c531659141344cd1fd0a4f28419497f9722a3daafe3b4186f6b6457e09080a3601e600455601e6005556078600655168560015416176001551683600254161760025516906003541617600355610d20908161014a8239f35b604051631e4fbdf760e01b815260006004820152602490fd5b600080fd5b634e487b7160e01b600052604160045260246000fd5b51906001600160a01b038216820361011a5756fe608060408181526004918236101561001657600080fd5b600092833560e01c91826310567b8a1461096e5750816310b45de11461093d57816313966db51461091f5781633e413bee146108f65781634ac8eb5f146108d757816355f57510146108935781636008d28b1461051c578163715018a6146104bf5781637dc0d1d01461049657816384da2666146104775781638da5cb5b1461044f578163965fa21e14610430578163cd377c531461040c578163db006a7514610193578163f2fde38b146100f6575063fc7b9c18146100d557600080fd5b346100f257816003193601126100f2576020906009549051908152f35b5080fd5b9190503461018f57602036600319011261018f576001600160a01b0382358181169391929084900361018b5761012a610993565b8315610175575050600054826bffffffffffffffffffffffff60a01b821617600055167f8be0079c531659141344cd1fd0a4f28419497f9722a3daafe3b4186f6b6457e0600080a380f35b51631e4fbdf760e01b8152908101849052602490fd5b8480fd5b8280fd5b9190503461018f5760209182600319360112610408578035906101b78215156109bf565b338552600784528285209460018601918254928484106103d1576003548651634c6afee560e11b81526001600160a01b03959189908290869082908a165afa9081156103c7578591610398575b509161025c8761022c9a9b9361021d6102669683610a4c565b506102318186549d8e85610a4c565b610a75565b946102558661024f61271061024860055484610a4c565b0482610a95565b9e610a95565b9055610a95565b9055600854610a95565b60085561027584600954610a95565b6009558260025416803b1561018f578551632770a7eb60e21b815233838201908152602081018790529091849183919082908490829060400103925af1801561038e57918791899361037b575b50600154875163a9059cbb60e01b815233928101928352602083019390935293949193849216908290869082906040015b03925af1918215610370579061030e92610343575b50610acc565b815190815282848201527fe5b754fb1abb7f01b499791d0b820ae3b6af3424ac1c59768edb53f4ec31a929823392a251908152f35b6103639150863d8811610369575b61035b8183610a2a565b810190610aaf565b38610308565b503d610351565b8451903d90823e3d90fd5b936103886102f395610a00565b936102c2565b86513d85823e3d90fd5b90508881813d83116103c0575b6103af8183610a2a565b8101031261018b575161025c610204565b503d6103a5565b88513d87823e3d90fd5b855162461bcd60e51b81528083018890526011602482015270125b9cdd59999a58da595b9d081919589d607a1b6044820152606490fd5b8380fd5b5050346100f257816003193601126100f257602090610429610b0a565b9051908152f35b5050346100f257816003193601126100f2576020906005549051908152f35b5050346100f257816003193601126100f257905490516001600160a01b039091168152602090f35b5050346100f257816003193601126100f2576020906006549051908152f35b5050346100f257816003193601126100f25760035490516001600160a01b039091168152602090f35b83346105195780600319360112610519576104d8610993565b80546001600160a01b03198116825581906001600160a01b03167f8be0079c531659141344cd1fd0a4f28419497f9722a3daafe3b4186f6b6457e08280a380f35b80fd5b9190503461018f578060031936011261018f5781356024938435906105428315156109bf565b607882101580610887575b15610858576003548451634c6afee560e11b81526020979096916001600160a01b039190899089908590829086165afa978815610790578498610829575b506105a461271061059d855489610a4c565b0487610a95565b60649081810281810483148215171561081757876105c191610a75565b6c0c9f2c9cd04674edea4000000090818102918183041490151715610817578a6105ea91610a75565b998a156107e35764e8d4a51000670de0b6b3a76400006106228d9361061d61061487600854610aa2565b95600954610aa2565b610a4c565b040490838102908082048514901517156107d1579061064091610a75565b6006541161079a57918a9161068a87948c61068060018e338a5260078952808a2061066c868254610aa2565b9055338a5260078952892001918254610aa2565b9055600854610aa2565b6008556106998b600954610aa2565b6009558460015416918a5194859384926323b872dd60e01b8452338a85015230908401528b60448401525af190811561079057906106dd9185916107795750610acc565b6002541690813b1561018f5785516340c10f1960e01b815233918101918252602082018890529291829184919082908490829060400103925af190811561076e575061075f575b5082519182528385830152828201527fb4c03061fb5b7fed76389d5af8f2e0ddb09f8c70d1333abbb62582835e10accb60603392a251908152f35b61076890610a00565b38610724565b8551903d90823e3d90fd5b61036391508a3d8c116103695761035b8183610a2a565b87513d86823e3d90fd5b50875162461bcd60e51b81528085018b9052601481840152732bb7bab632103b34b7b630ba329036b4b71021a960611b6044820152fd5b634e487b7160e01b8852601187528488fd5b895162461bcd60e51b81528087018d90526010818601526f105b5bdd5b9d081d1bdbc81cdb585b1b60821b60448201528390fd5b634e487b7160e01b8752601186528387fd5b9097508881813d8311610851575b6108418183610a2a565b810103126104085751963861058b565b503d610837565b835162461bcd60e51b8152602081870152600a818801526924b73b30b634b21021a960b11b6044820152606490fd5b5061012c82111561054d565b90503461018f57602036600319011261018f57356001600160a01b0381169081900361018f5791819281526007602052206001815491015482519182526020820152f35b5050346100f257816003193601126100f2576020906008549051908152f35b5050346100f257816003193601126100f25760015490516001600160a01b039091168152602090f35b90503461018f578260031936011261018f5760209250549051908152f35b90503461018f57602036600319011261018f5735916001600160a01b03831683036105195750610429602092610bcc565b8490346100f257816003193601126100f2576002546001600160a01b03168152602090f35b6000546001600160a01b031633036109a757565b60405163118cdaa760e01b8152336004820152602490fd5b156109c657565b60405162461bcd60e51b81526020600482015260126024820152710416d6f756e74206d757374206265203e20360741b6044820152606490fd5b67ffffffffffffffff8111610a1457604052565b634e487b7160e01b600052604160045260246000fd5b90601f8019910116810190811067ffffffffffffffff821117610a1457604052565b81810292918115918404141715610a5f57565b634e487b7160e01b600052601160045260246000fd5b8115610a7f570490565b634e487b7160e01b600052601260045260246000fd5b91908203918211610a5f57565b91908201809211610a5f57565b90816020910312610ac757518015158103610ac75790565b600080fd5b15610ad357565b60405162461bcd60e51b815260206004820152600f60248201526e151c985b9cd9995c8819985a5b1959608a1b6044820152606490fd5b6009548015610bc657600354604051634c6afee560e11b815290602090829060049082906001600160a01b03165afa908115610bba57600091610b87575b50610b62670de0b6b3a76400009164e8d4a5100093610a4c565b040460085490606482029180830460641490151715610a5f57610b8491610a75565b90565b906020823d8211610bb2575b81610ba060209383610a2a565b81010312610519575051610b62610b48565b3d9150610b93565b6040513d6000823e3d90fd5b50600090565b6001600160a01b0390811660009081526007602090815260408083208151939594929084830167ffffffffffffffff811186821017610cd65783528054855260010154818501818152939015610ccf57908060049260035416845193848092634c6afee560e11b82525afa928315610cc657508692610c96575b5050610c61906c0c9f2c9cd04674edea400000009251610a4c565b049051606481029080820460641490151715610c8257610b84929350610a75565b634e487b7160e01b84526011600452602484fd5b90809250813d8311610cbf575b610cad8183610a2a565b8101031261018b575181610c61610c46565b503d610ca3565b513d88823e3d90fd5b5050505050565b634e487b7160e01b88526041600452602488fdfea26469706673582212203aaa7923fccea2467584feecd2dfb20338bb7b0abb4df6a39e94f0abf05a8b4064736f6c63430008150033",
  "linkReferences": {},
  "deployedLinkReferences": {}
}