{
  "_format": "hh-sol-artifact-1",
  "contractName": "EVIXMintRedeemSimple",
  "sourceName": "contracts/EVIXMintRedeemSimple.sol",
  "abi": [
    {
      "inputs": [
        {
          "internalType": "address",
          "name": "_usdc",
          "type": "address"
        },
        {
          "internalType": "address",
          "name": "_evix",
          "type": "address"
        },
        {
          "internalType": "address",
          "name": "_oracle",
          "type": "address"
        },
        {
          "internalType": "address",
          "name": "initialOwner",
          "type": "address"
        }
      ],
      "stateMutability": "nonpayable",
      "type": "constructor"
    },
    {
      "inputs": [
        {
          "internalType": "address",
          "name": "owner",
          "type": "address"
        }
      ],
      "name": "OwnableInvalidOwner",
      "type": "error"
    },
    {
      "inputs": [
        {
          "internalType": "address",
          "name": "account",
          "type": "address"
        }
      ],
      "name": "OwnableUnauthorizedAccount",
      "type": "error"
    },
    {
      "anonymous": false,
      "inputs": [
        {
          "indexed": true,
          "internalType": "address",
          "name": "user",
          "type": "address"
        },
        {
          "indexed": false,
          "internalType": "uint256",
          "name": "usdcAmount",
          "type": "uint256"
        },
        {
          "indexed": false,
          "internalType": "uint256",
          "name": "evixMinted",
          "type": "uint256"
        }
      ],
      "name": "Mint",
      "type": "event"
    },
    {
      "anonymous": false,
      "inputs": [
        {
          "indexed": true,
          "internalType": "address",
          "name": "previousOwner",
          "type": "address"
        },
        {
          "indexed": true,
          "internalType": "address",
          "name": "newOwner",
          "type": "address"
        }
      ],
      "name": "OwnershipTransferred",
      "type": "event"
    },
    {
      "anonymous": false,
      "inputs": [
        {
          "indexed": true,
          "internalType": "address",
          "name": "user",
          "type": "address"
        },
        {
          "indexed": false,
          "internalType": "uint256",
          "name": "evixAmount",
          "type": "uint256"
        },
        {
          "indexed": false,
          "internalType": "uint256",
          "name": "usdcRedeemed",
          "type": "uint256"
        }
      ],
      "name": "Redeem",
      "type": "event"
    },
    {
      "inputs": [],
      "name": "evix",
      "outputs": [
        {
          "internalType": "contract EVIXToken",
          "name": "",
          "type": "address"
        }
      ],
      "stateMutability": "view",
      "type": "function"
    },
    {
      "inputs": [
        {
          "internalType": "uint256",
          "name": "usdcAmount",
          "type": "uint256"
        }
      ],
      "name": "mint",
      "outputs": [
        {
          "internalType": "uint256",
          "name": "",
          "type": "uint256"
        }
      ],
      "stateMutability": "nonpayable",
      "type": "function"
    },
    {
      "inputs": [],
      "name": "mintFee",
      "outputs": [
        {
          "internalType": "uint256",
          "name": "",
          "type": "uint256"
        }
      ],
      "stateMutability": "view",
      "type": "function"
    },
    {
      "inputs": [],
      "name": "oracle",
      "outputs": [
        {
          "internalType": "contract PriceOracle",
          "name": "",
          "type": "address"
        }
      ],
      "stateMutability": "view",
      "type": "function"
    },
    {
      "inputs": [],
      "name": "owner",
      "outputs": [
        {
          "internalType": "address",
          "name": "",
          "type": "address"
        }
      ],
      "stateMutability": "view",
      "type": "function"
    },
    {
      "inputs": [
        {
          "internalType": "uint256",
          "name": "evixAmount",
          "type": "uint256"
        }
      ],
      "name": "redeem",
      "outputs": [
        {
          "internalType": "uint256",
          "name": "",
          "type": "uint256"
        }
      ],
      "stateMutability": "nonpayable",
      "type": "function"
    },
    {
      "inputs": [],
      "name": "renounceOwnership",
      "outputs": [],
      "stateMutability": "nonpayable",
      "type": "function"
    },
    {
      "inputs": [
        {
          "internalType": "address",
          "name": "newOwner",
          "type": "address"
        }
      ],
      "name": "transferOwnership",
      "outputs": [],
      "stateMutability": "nonpayable",
      "type": "function"
    },
    {
      "inputs": [],
      "name": "usdc",
      "outputs": [
        {
          "internalType": "contract IERC20",
          "name": "",
          "type": "address"
        }
      ],
      "stateMutability": "view",
      "type": "function"
    },
    {
      "inputs": [],
      "name": "withdrawFees",
      "outputs": [],
      "stateMutability": "nonpayable",
      "type": "function"
    }
  ],
  "bytecode": "0x60803461011057601f610bb538819003918201601f19168301916001600160401b0383118484101761011557808492608094604052833981010312610110576100478161012b565b9060606100566020830161012b565b916100636040820161012b565b6001600160a01b03929091839161007a910161012b565b169283156100f757600080546001600160a01b03198082168717835560405197909686949385938416907f8be0079c531659141344cd1fd0a4f28419497f9722a3daafe3b4186f6b6457e09080a3601e600455168560015416176001551683600254161760025516906003541617600355610a7590816101408239f35b604051631e4fbdf760e01b815260006004820152602490fd5b600080fd5b634e487b7160e01b600052604160045260246000fd5b51906001600160a01b03821682036101105756fe608060408181526004908136101561001657600080fd5b600092833560e01c90816310567b8a146108945750806313966db5146108765780633e413bee1461084d578063476343ee14610736578063715018a6146106dc5780637dc0d1d0146106b35780638da5cb5b14610687578063a0712d6814610462578063db006a751461012c5763f2fde38b1461009257600080fd5b34610128576020366003190112610128576001600160a01b03823581811693919290849003610124576100c36108b9565b831561010e575050600054826bffffffffffffffffffffffff60a01b821617600055167f8be0079c531659141344cd1fd0a4f28419497f9722a3daafe3b4186f6b6457e0600080a380f35b51631e4fbdf760e01b8152908101849052602490fd5b8480fd5b8280fd5b5034610128576020928360031936011261045f5782359061014e8215156108e5565b60025483516370a0823160e01b8082523382880152956001600160a01b0393929091908416908881602481855afa9081156103b557908691859161042e575b50106103f45781888560035416885192838092634c6afee560e11b82525afa9081156103b55784916103bf575b50670de0b6b3a76400006101dc826101d66101f2941515610972565b886109ae565b046127106101eb8554836109ae565b04906109d7565b96888560015416916024895180948193825230888301525afa9081156103b5579088918591610380575b501061033d57803b15610128578551632770a7eb60e21b815233838201908152602081018790529091849183919082908490829060400103925af18015610333579187918993610320575b50600154875163a9059cbb60e01b815233928101928352602083019390935293949193849216908290869082906040015b03925af191821561031557906102b3926102e8575b50610a01565b815190815282848201527fe5b754fb1abb7f01b499791d0b820ae3b6af3424ac1c59768edb53f4ec31a929823392a251908152f35b6103089150863d881161030e575b6103008183610950565b8101906109e4565b386102ad565b503d6102f6565b8451903d90823e3d90fd5b9361032d61029895610926565b93610267565b86513d85823e3d90fd5b855162461bcd60e51b8152808301899052601760248201527f496e73756666696369656e74207661756c7420555344430000000000000000006044820152606490fd5b8092508a8092503d83116103ae575b6103998183610950565b810103126103aa578790513861021c565b8380fd5b503d61038f565b87513d86823e3d90fd5b90508881813d83116103ed575b6103d68183610950565b810103126103aa5751670de0b6b3a76400006101ba565b503d6103cc565b855162461bcd60e51b81528083018990526014602482015273496e73756666696369656e742062616c616e636560601b6044820152606490fd5b8092508a8092503d8311610458575b6104478183610950565b810103126103aa578590513861018d565b503d61043d565b80fd5b5034610128576020928360031936011261045f578235906104848215156108e5565b6003548351634c6afee560e11b81526001600160a01b03959187908290849082908a165afa90811561067d578391610650575b5080156104c48115610972565b6104dc6127106104d58554886109ae565b04866109d7565b90670de0b6b3a76400009182810292818404149015171561063d5761062a57049485156105f4578287826001541660648851809481936323b872dd60e01b835233898401523060248401528a60448401525af19081156105ea57906105479185916105d35750610a01565b6002541690813b156101285784516340c10f1960e01b815233918101918252602082018790529291829184919082908490829060400103925af190811561031557506105c4575b50815190815282848201527f4c209b5fc8ad50758f13e2e1088ba56a560dff690a1c6fef26394f4c03821c4f823392a251908152f35b6105cd90610926565b3861058e565b6103089150893d8b1161030e576103008183610950565b86513d86823e3d90fd5b845162461bcd60e51b8152808301889052601060248201526f105b5bdd5b9d081d1bdbc81cdb585b1b60821b6044820152606490fd5b634e487b7160e01b845260128352602484fd5b634e487b7160e01b855260118452602485fd5b90508681813d8311610676575b6106678183610950565b810103126101285751386104b7565b503d61065d565b85513d85823e3d90fd5b8382346106af57816003193601126106af57905490516001600160a01b039091168152602090f35b5080fd5b8382346106af57816003193601126106af5760035490516001600160a01b039091168152602090f35b833461045f578060031936011261045f576106f56108b9565b80546001600160a01b03198116825581906001600160a01b03167f8be0079c531659141344cd1fd0a4f28419497f9722a3daafe3b4186f6b6457e08280a380f35b5090346101285782600319360112610128576107506108b9565b60015482516370a0823160e01b8152308382015260209285926001600160a01b0391908216908584602481855afa928315610843578694869461080e575b508554885163a9059cbb60e01b815291166001600160a01b031691810191825260208201939093529193849283919082906040015b03925af1918215610801576107e1935084926107e4575b5050610a01565b80f35b6107fa9250803d1061030e576103008183610950565b38806107da565b50505051903d90823e3d90fd5b8581969295503d831161083c575b6108268183610950565b81010312610124579251859390926107c361078e565b503d61081c565b87513d87823e3d90fd5b8382346106af57816003193601126106af5760015490516001600160a01b039091168152602090f35b50903461012857826003193601126101285760209250549051908152f35b8490346106af57816003193601126106af576002546001600160a01b03168152602090f35b6000546001600160a01b031633036108cd57565b60405163118cdaa760e01b8152336004820152602490fd5b156108ec57565b60405162461bcd60e51b81526020600482015260126024820152710416d6f756e74206d757374206265203e20360741b6044820152606490fd5b67ffffffffffffffff811161093a57604052565b634e487b7160e01b600052604160045260246000fd5b90601f8019910116810190811067ffffffffffffffff82111761093a57604052565b1561097957565b60405162461bcd60e51b815260206004820152600d60248201526c496e76616c696420707269636560981b6044820152606490fd5b818102929181159184041417156109c157565b634e487b7160e01b600052601160045260246000fd5b919082039182116109c157565b908160209103126109fc575180151581036109fc5790565b600080fd5b15610a0857565b60405162461bcd60e51b815260206004820152600f60248201526e151c985b9cd9995c8819985a5b1959608a1b6044820152606490fdfea26469706673582212203648c57012df2945459d857116f65ec7c8dcaf8fc805bea4d2e737f06d11c3ff64736f6c63430008150033",
  "linkReferences": {},
  "deployedLinkReferences": {}
}