{
  "_format": "hh-sol-artifact-1",
  "contractName": "MintRedeemWithCollateral",
  "sourceName": "contracts/MintRedeemWithCollateral.sol",
  "abi": [
    {
      "inputs": [
        {
          "internalType": "address",
          "name": "_usdc",
          "type": "address"
        },
        {
          "internalType": "address",
          "name": "_bvix",
          "type": "address"
        },
        {
          "internalType": "address",
          "name": "_oracle",
          "type": "address"
        },
        {
          "internalType": "address",
          "name": "initialOwner",
          "type": "address"
        }
      ],
      "stateMutability": "nonpayable",
      "type": "constructor"
    },
    {
      "inputs": [
        {
          "internalType": "address",
          "name": "owner",
          "type": "address"
        }
      ],
      "name": "OwnableInvalidOwner",
      "type": "error"
    },
    {
      "inputs": [
        {
          "internalType": "address",
          "name": "account",
          "type": "address"
        }
      ],
      "name": "OwnableUnauthorizedAccount",
      "type": "error"
    },
    {
      "anonymous": false,
      "inputs": [
        {
          "indexed": true,
          "internalType": "address",
          "name": "user",
          "type": "address"
        },
        {
          "indexed": false,
          "internalType": "uint256",
          "name": "usdcAmount",
          "type": "uint256"
        },
        {
          "indexed": false,
          "internalType": "uint256",
          "name": "bvixMinted",
          "type": "uint256"
        },
        {
          "indexed": false,
          "internalType": "uint256",
          "name": "newCollateralRatio",
          "type": "uint256"
        }
      ],
      "name": "Mint",
      "type": "event"
    },
    {
      "anonymous": false,
      "inputs": [
        {
          "indexed": true,
          "internalType": "address",
          "name": "previousOwner",
          "type": "address"
        },
        {
          "indexed": true,
          "internalType": "address",
          "name": "newOwner",
          "type": "address"
        }
      ],
      "name": "OwnershipTransferred",
      "type": "event"
    },
    {
      "anonymous": false,
      "inputs": [
        {
          "indexed": true,
          "internalType": "address",
          "name": "user",
          "type": "address"
        },
        {
          "indexed": false,
          "internalType": "uint256",
          "name": "bvixAmount",
          "type": "uint256"
        },
        {
          "indexed": false,
          "internalType": "uint256",
          "name": "usdcRedeemed",
          "type": "uint256"
        },
        {
          "indexed": false,
          "internalType": "uint256",
          "name": "newCollateralRatio",
          "type": "uint256"
        }
      ],
      "name": "Redeem",
      "type": "event"
    },
    {
      "inputs": [
        {
          "internalType": "uint256",
          "name": "amount",
          "type": "uint256"
        }
      ],
      "name": "addCollateral",
      "outputs": [],
      "stateMutability": "nonpayable",
      "type": "function"
    },
    {
      "inputs": [],
      "name": "bvix",
      "outputs": [
        {
          "internalType": "contract BVIXToken",
          "name": "",
          "type": "address"
        }
      ],
      "stateMutability": "view",
      "type": "function"
    },
    {
      "inputs": [],
      "name": "getCollateralRatio",
      "outputs": [
        {
          "internalType": "uint256",
          "name": "ratio",
          "type": "uint256"
        }
      ],
      "stateMutability": "view",
      "type": "function"
    },
    {
      "inputs": [],
      "name": "minCollateralRatio",
      "outputs": [
        {
          "internalType": "uint256",
          "name": "",
          "type": "uint256"
        }
      ],
      "stateMutability": "view",
      "type": "function"
    },
    {
      "inputs": [
        {
          "internalType": "uint256",
          "name": "amount",
          "type": "uint256"
        }
      ],
      "name": "mint",
      "outputs": [],
      "stateMutability": "nonpayable",
      "type": "function"
    },
    {
      "inputs": [],
      "name": "mintFee",
      "outputs": [
        {
          "internalType": "uint256",
          "name": "",
          "type": "uint256"
        }
      ],
      "stateMutability": "view",
      "type": "function"
    },
    {
      "inputs": [],
      "name": "oracle",
      "outputs": [
        {
          "internalType": "contract MockOracle",
          "name": "",
          "type": "address"
        }
      ],
      "stateMutability": "view",
      "type": "function"
    },
    {
      "inputs": [],
      "name": "owner",
      "outputs": [
        {
          "internalType": "address",
          "name": "",
          "type": "address"
        }
      ],
      "stateMutability": "view",
      "type": "function"
    },
    {
      "inputs": [
        {
          "internalType": "uint256",
          "name": "bvixAmount",
          "type": "uint256"
        }
      ],
      "name": "redeem",
      "outputs": [],
      "stateMutability": "nonpayable",
      "type": "function"
    },
    {
      "inputs": [],
      "name": "redeemFee",
      "outputs": [
        {
          "internalType": "uint256",
          "name": "",
          "type": "uint256"
        }
      ],
      "stateMutability": "view",
      "type": "function"
    },
    {
      "inputs": [],
      "name": "renounceOwnership",
      "outputs": [],
      "stateMutability": "nonpayable",
      "type": "function"
    },
    {
      "inputs": [
        {
          "internalType": "uint256",
          "name": "_minRatio",
          "type": "uint256"
        }
      ],
      "name": "setMinCollateralRatio",
      "outputs": [],
      "stateMutability": "nonpayable",
      "type": "function"
    },
    {
      "inputs": [
        {
          "internalType": "address",
          "name": "newOwner",
          "type": "address"
        }
      ],
      "name": "transferOwnership",
      "outputs": [],
      "stateMutability": "nonpayable",
      "type": "function"
    },
    {
      "inputs": [],
      "name": "usdc",
      "outputs": [
        {
          "internalType": "contract IERC20",
          "name": "",
          "type": "address"
        }
      ],
      "stateMutability": "view",
      "type": "function"
    }
  ],
  "bytecode": "0x6080604052601e600455601e60055560786006553480156200002057600080fd5b5060405162001c8538038062001c858339818101604052810190620000469190620002c9565b80600073ffffffffffffffffffffffffffffffffffffffff168173ffffffffffffffffffffffffffffffffffffffff1603620000bc5760006040517f1e4fbdf7000000000000000000000000000000000000000000000000000000008152600401620000b391906200034c565b60405180910390fd5b620000cd816200019b60201b60201c565b5083600160006101000a81548173ffffffffffffffffffffffffffffffffffffffff021916908373ffffffffffffffffffffffffffffffffffffffff16021790555082600260006101000a81548173ffffffffffffffffffffffffffffffffffffffff021916908373ffffffffffffffffffffffffffffffffffffffff16021790555081600360006101000a81548173ffffffffffffffffffffffffffffffffffffffff021916908373ffffffffffffffffffffffffffffffffffffffff1602179055505050505062000369565b60008060009054906101000a900473ffffffffffffffffffffffffffffffffffffffff169050816000806101000a81548173ffffffffffffffffffffffffffffffffffffffff021916908373ffffffffffffffffffffffffffffffffffffffff1602179055508173ffffffffffffffffffffffffffffffffffffffff168173ffffffffffffffffffffffffffffffffffffffff167f8be0079c531659141344cd1fd0a4f28419497f9722a3daafe3b4186f6b6457e060405160405180910390a35050565b600080fd5b600073ffffffffffffffffffffffffffffffffffffffff82169050919050565b6000620002918262000264565b9050919050565b620002a38162000284565b8114620002af57600080fd5b50565b600081519050620002c38162000298565b92915050565b60008060008060808587031215620002e657620002e56200025f565b5b6000620002f687828801620002b2565b94505060206200030987828801620002b2565b93505060406200031c87828801620002b2565b92505060606200032f87828801620002b2565b91505092959194509250565b620003468162000284565b82525050565b60006020820190506200036360008301846200033b565b92915050565b61190c80620003796000396000f3fe608060405234801561001057600080fd5b50600436106100ea5760003560e01c8063965fa21e1161008c578063bcc46e8311610066578063bcc46e8314610203578063cd377c531461021f578063db006a751461023d578063f2fde38b14610259576100ea565b8063965fa21e146101ab5780639f80fb4e146101c9578063a0712d68146101e7576100ea565b8063715018a6116100c8578063715018a6146101475780637dc0d1d01461015157806384da26661461016f5780638da5cb5b1461018d576100ea565b806313966db5146100ef578063385362751461010d5780633e413bee14610129575b600080fd5b6100f7610275565b604051610104919061118e565b60405180910390f35b610127600480360381019061012291906111da565b61027b565b005b6101316102d1565b60405161013e9190611286565b60405180910390f35b61014f6102f7565b005b61015961030b565b60405161016691906112c2565b60405180910390f35b610177610331565b604051610184919061118e565b60405180910390f35b610195610337565b6040516101a291906112fe565b60405180910390f35b6101b3610360565b6040516101c0919061118e565b60405180910390f35b6101d1610366565b6040516101de919061133a565b60405180910390f35b61020160048036038101906101fc91906111da565b61038c565b005b61021d600480360381019061021891906111da565b610913565b005b610227610a3a565b604051610234919061118e565b60405180910390f35b610257600480360381019061025291906111da565b610c88565b005b610273600480360381019061026e9190611381565b610f9c565b005b60045481565b610283611022565b60648110156102c7576040517f08c379a00000000000000000000000000000000000000000000000000000000081526004016102be9061140b565b60405180910390fd5b8060068190555050565b600160009054906101000a900473ffffffffffffffffffffffffffffffffffffffff1681565b6102ff611022565b61030960006110a9565b565b600360009054906101000a900473ffffffffffffffffffffffffffffffffffffffff1681565b60065481565b60008060009054906101000a900473ffffffffffffffffffffffffffffffffffffffff16905090565b60055481565b600260009054906101000a900473ffffffffffffffffffffffffffffffffffffffff1681565b600081116103cf576040517f08c379a00000000000000000000000000000000000000000000000000000000081526004016103c690611477565b60405180910390fd5b600160009054906101000a900473ffffffffffffffffffffffffffffffffffffffff1673ffffffffffffffffffffffffffffffffffffffff166323b872dd3330846040518463ffffffff1660e01b815260040161042e93929190611497565b6020604051808303816000875af115801561044d573d6000803e3d6000fd5b505050506040513d601f19601f820116820180604052508101906104719190611506565b6104b0576040517f08c379a00000000000000000000000000000000000000000000000000000000081526004016104a79061157f565b60405180910390fd5b6000600360009054906101000a900473ffffffffffffffffffffffffffffffffffffffff1673ffffffffffffffffffffffffffffffffffffffff166398d5fdca6040518163ffffffff1660e01b8152600401602060405180830381865afa15801561051f573d6000803e3d6000fd5b505050506040513d601f19601f8201168201806040525081019061054391906115b4565b90506000612710600454846105589190611610565b6105629190611681565b90506000818461057291906116b2565b9050600064e8d4a51000826105879190611610565b90506000600160009054906101000a900473ffffffffffffffffffffffffffffffffffffffff1673ffffffffffffffffffffffffffffffffffffffff166370a08231306040518263ffffffff1660e01b81526004016105e691906112fe565b602060405180830381865afa158015610603573d6000803e3d6000fd5b505050506040513d601f19601f8201168201806040525081019061062791906115b4565b90506000600260009054906101000a900473ffffffffffffffffffffffffffffffffffffffff1673ffffffffffffffffffffffffffffffffffffffff166318160ddd6040518163ffffffff1660e01b8152600401602060405180830381865afa158015610698573d6000803e3d6000fd5b505050506040513d601f19601f820116820180604052508101906106bc91906115b4565b90506000600654876106ce9190611610565b6064670de0b6b3a764000064e8d4a51000866106ea9190611610565b6106f49190611610565b6106fe9190611610565b6107089190611681565b905081811161074c576040517f08c379a000000000000000000000000000000000000000000000000000000000815260040161074390611758565b60405180910390fd5b6000828261075a91906116b2565b9050600088670de0b6b3a7640000876107739190611610565b61077d9190611681565b9050600081905082821115610790578290505b600081116107d3576040517f08c379a00000000000000000000000000000000000000000000000000000000081526004016107ca906117c4565b60405180910390fd5b600260009054906101000a900473ffffffffffffffffffffffffffffffffffffffff1673ffffffffffffffffffffffffffffffffffffffff166340c10f1933836040518363ffffffff1660e01b81526004016108309291906117e4565b600060405180830381600087803b15801561084a57600080fd5b505af115801561085e573d6000803e3d6000fd5b50505050600061086c610a3a565b90506006548110156108b3576040517f08c379a00000000000000000000000000000000000000000000000000000000081526004016108aa9061187f565b60405180910390fd5b3373ffffffffffffffffffffffffffffffffffffffff167fb4c03061fb5b7fed76389d5af8f2e0ddb09f8c70d1333abbb62582835e10accb8d84846040516108fd9392919061189f565b60405180910390a2505050505050505050505050565b60008111610956576040517f08c379a000000000000000000000000000000000000000000000000000000000815260040161094d90611477565b60405180910390fd5b600160009054906101000a900473ffffffffffffffffffffffffffffffffffffffff1673ffffffffffffffffffffffffffffffffffffffff166323b872dd3330846040518463ffffffff1660e01b81526004016109b593929190611497565b6020604051808303816000875af11580156109d4573d6000803e3d6000fd5b505050506040513d601f19601f820116820180604052508101906109f89190611506565b610a37576040517f08c379a0000000000000000000000000000000000000000000000000000000008152600401610a2e9061157f565b60405180910390fd5b50565b600080600260009054906101000a900473ffffffffffffffffffffffffffffffffffffffff1673ffffffffffffffffffffffffffffffffffffffff166318160ddd6040518163ffffffff1660e01b8152600401602060405180830381865afa158015610aaa573d6000803e3d6000fd5b505050506040513d601f19601f82011682018060405250810190610ace91906115b4565b905060008103610ae2576000915050610c85565b6000600160009054906101000a900473ffffffffffffffffffffffffffffffffffffffff1673ffffffffffffffffffffffffffffffffffffffff166370a08231306040518263ffffffff1660e01b8152600401610b3f91906112fe565b602060405180830381865afa158015610b5c573d6000803e3d6000fd5b505050506040513d601f19601f82011682018060405250810190610b8091906115b4565b90506000600360009054906101000a900473ffffffffffffffffffffffffffffffffffffffff1673ffffffffffffffffffffffffffffffffffffffff166398d5fdca6040518163ffffffff1660e01b8152600401602060405180830381865afa158015610bf1573d6000803e3d6000fd5b505050506040513d601f19601f82011682018060405250810190610c1591906115b4565b9050600064e8d4a5100083610c2a9190611610565b90506000670de0b6b3a76400008386610c439190611610565b610c4d9190611681565b905060008103610c6557600095505050505050610c85565b80606483610c739190611610565b610c7d9190611681565b955050505050505b90565b60008111610ccb576040517f08c379a0000000000000000000000000000000000000000000000000000000008152600401610cc290611477565b60405180910390fd5b600260009054906101000a900473ffffffffffffffffffffffffffffffffffffffff1673ffffffffffffffffffffffffffffffffffffffff16639dc29fac33836040518363ffffffff1660e01b8152600401610d289291906117e4565b600060405180830381600087803b158015610d4257600080fd5b505af1158015610d56573d6000803e3d6000fd5b505050506000600360009054906101000a900473ffffffffffffffffffffffffffffffffffffffff1673ffffffffffffffffffffffffffffffffffffffff166398d5fdca6040518163ffffffff1660e01b8152600401602060405180830381865afa158015610dc9573d6000803e3d6000fd5b505050506040513d601f19601f82011682018060405250810190610ded91906115b4565b90506000670de0b6b3a76400008284610e069190611610565b610e109190611681565b9050600064e8d4a5100082610e259190611681565b9050600061271060055483610e3a9190611610565b610e449190611681565b905060008183610e5491906116b2565b9050600160009054906101000a900473ffffffffffffffffffffffffffffffffffffffff1673ffffffffffffffffffffffffffffffffffffffff1663a9059cbb33836040518363ffffffff1660e01b8152600401610eb39291906117e4565b6020604051808303816000875af1158015610ed2573d6000803e3d6000fd5b505050506040513d601f19601f82011682018060405250810190610ef69190611506565b610f35576040517f08c379a0000000000000000000000000000000000000000000000000000000008152600401610f2c9061157f565b60405180910390fd5b6000610f3f610a3a565b90503373ffffffffffffffffffffffffffffffffffffffff167fbd5034ffbd47e4e72a94baa2cdb74c6fad73cb3bcdc13036b72ec8306f5a7646888484604051610f8b9392919061189f565b60405180910390a250505050505050565b610fa4611022565b600073ffffffffffffffffffffffffffffffffffffffff168173ffffffffffffffffffffffffffffffffffffffff16036110165760006040517f1e4fbdf700000000000000000000000000000000000000000000000000000000815260040161100d91906112fe565b60405180910390fd5b61101f816110a9565b50565b61102a61116d565b73ffffffffffffffffffffffffffffffffffffffff16611048610337565b73ffffffffffffffffffffffffffffffffffffffff16146110a75761106b61116d565b6040517f118cdaa700000000000000000000000000000000000000000000000000000000815260040161109e91906112fe565b60405180910390fd5b565b60008060009054906101000a900473ffffffffffffffffffffffffffffffffffffffff169050816000806101000a81548173ffffffffffffffffffffffffffffffffffffffff021916908373ffffffffffffffffffffffffffffffffffffffff1602179055508173ffffffffffffffffffffffffffffffffffffffff168173ffffffffffffffffffffffffffffffffffffffff167f8be0079c531659141344cd1fd0a4f28419497f9722a3daafe3b4186f6b6457e060405160405180910390a35050565b600033905090565b6000819050919050565b61118881611175565b82525050565b60006020820190506111a3600083018461117f565b92915050565b600080fd5b6111b781611175565b81146111c257600080fd5b50565b6000813590506111d4816111ae565b92915050565b6000602082840312156111f0576111ef6111a9565b5b60006111fe848285016111c5565b91505092915050565b600073ffffffffffffffffffffffffffffffffffffffff82169050919050565b6000819050919050565b600061124c61124761124284611207565b611227565b611207565b9050919050565b600061125e82611231565b9050919050565b600061127082611253565b9050919050565b61128081611265565b82525050565b600060208201905061129b6000830184611277565b92915050565b60006112ac82611253565b9050919050565b6112bc816112a1565b82525050565b60006020820190506112d760008301846112b3565b92915050565b60006112e882611207565b9050919050565b6112f8816112dd565b82525050565b600060208201905061131360008301846112ef565b92915050565b600061132482611253565b9050919050565b61133481611319565b82525050565b600060208201905061134f600083018461132b565b92915050565b61135e816112dd565b811461136957600080fd5b50565b60008135905061137b81611355565b92915050565b600060208284031215611397576113966111a9565b5b60006113a58482850161136c565b91505092915050565b600082825260208201905092915050565b7f526174696f206d757374206265206174206c6561737420313030250000000000600082015250565b60006113f5601b836113ae565b9150611400826113bf565b602082019050919050565b60006020820190508181036000830152611424816113e8565b9050919050565b7f416d6f756e74206d7573742062652067726561746572207468616e2030000000600082015250565b6000611461601d836113ae565b915061146c8261142b565b602082019050919050565b6000602082019050818103600083015261149081611454565b9050919050565b60006060820190506114ac60008301866112ef565b6114b960208301856112ef565b6114c6604083018461117f565b949350505050565b60008115159050919050565b6114e3816114ce565b81146114ee57600080fd5b50565b600081519050611500816114da565b92915050565b60006020828403121561151c5761151b6111a9565b5b600061152a848285016114f1565b91505092915050565b7f55534443207472616e73666572206661696c6564000000000000000000000000600082015250565b60006115696014836113ae565b915061157482611533565b602082019050919050565b600060208201905081810360008301526115988161155c565b9050919050565b6000815190506115ae816111ae565b92915050565b6000602082840312156115ca576115c96111a9565b5b60006115d88482850161159f565b91505092915050565b7f4e487b7100000000000000000000000000000000000000000000000000000000600052601160045260246000fd5b600061161b82611175565b915061162683611175565b925082820261163481611175565b9150828204841483151761164b5761164a6115e1565b5b5092915050565b7f4e487b7100000000000000000000000000000000000000000000000000000000600052601260045260246000fd5b600061168c82611175565b915061169783611175565b9250826116a7576116a6611652565b5b828204905092915050565b60006116bd82611175565b91506116c883611175565b92508282039050818111156116e0576116df6115e1565b5b92915050565b7f43616e6e6f74206d696e743a20776f756c642076696f6c61746520636f6c6c6160008201527f746572616c20726174696f000000000000000000000000000000000000000000602082015250565b6000611742602b836113ae565b915061174d826116e6565b604082019050919050565b6000602082019050818103600083015261177181611735565b9050919050565b7f4d696e7420616d6f756e7420746f6f20736d616c6c0000000000000000000000600082015250565b60006117ae6015836113ae565b91506117b982611778565b602082019050919050565b600060208201905081810360008301526117dd816117a1565b9050919050565b60006040820190506117f960008301856112ef565b611806602083018461117f565b9392505050565b7f436f6c6c61746572616c20726174696f20746f6f206c6f77206166746572206d60008201527f696e740000000000000000000000000000000000000000000000000000000000602082015250565b60006118696023836113ae565b91506118748261180d565b604082019050919050565b600060208201905081810360008301526118988161185c565b9050919050565b60006060820190506118b4600083018661117f565b6118c1602083018561117f565b6118ce604083018461117f565b94935050505056fea264697066735822122094740d2164766d057c7a9c6c806935b2147ce0c085d33404b77eb97f04d2999764736f6c63430008150033",
  "linkReferences": {},
  "deployedLinkReferences": {}
}