{
  "_format": "hh-sol-artifact-1",
  "contractName": "OracleSimulator",
  "sourceName": "contracts/OracleSimulator.sol",
  "abi": [
    {
      "inputs": [
        {
          "internalType": "address",
          "name": "_bvixOracle",
          "type": "address"
        },
        {
          "internalType": "address",
          "name": "_evixOracle",
          "type": "address"
        },
        {
          "internalType": "address",
          "name": "initialOwner",
          "type": "address"
        }
      ],
      "stateMutability": "nonpayable",
      "type": "constructor"
    },
    {
      "inputs": [
        {
          "internalType": "address",
          "name": "owner",
          "type": "address"
        }
      ],
      "name": "OwnableInvalidOwner",
      "type": "error"
    },
    {
      "inputs": [
        {
          "internalType": "address",
          "name": "account",
          "type": "address"
        }
      ],
      "name": "OwnableUnauthorizedAccount",
      "type": "error"
    },
    {
      "anonymous": false,
      "inputs": [
        {
          "indexed": true,
          "internalType": "string",
          "name": "token",
          "type": "string"
        },
        {
          "indexed": false,
          "internalType": "uint256",
          "name": "newMeanPrice",
          "type": "uint256"
        }
      ],
      "name": "MeanPriceUpdated",
      "type": "event"
    },
    {
      "anonymous": false,
      "inputs": [
        {
          "indexed": true,
          "internalType": "address",
          "name": "previousOwner",
          "type": "address"
        },
        {
          "indexed": true,
          "internalType": "address",
          "name": "newOwner",
          "type": "address"
        }
      ],
      "name": "OwnershipTransferred",
      "type": "event"
    },
    {
      "anonymous": false,
      "inputs": [
        {
          "indexed": true,
          "internalType": "string",
          "name": "token",
          "type": "string"
        },
        {
          "indexed": false,
          "internalType": "uint256",
          "name": "oldPrice",
          "type": "uint256"
        },
        {
          "indexed": false,
          "internalType": "uint256",
          "name": "newPrice",
          "type": "uint256"
        },
        {
          "indexed": false,
          "internalType": "uint256",
          "name": "timestamp",
          "type": "uint256"
        }
      ],
      "name": "PriceUpdated",
      "type": "event"
    },
    {
      "anonymous": false,
      "inputs": [
        {
          "indexed": false,
          "internalType": "bool",
          "name": "active",
          "type": "bool"
        }
      ],
      "name": "SimulationToggled",
      "type": "event"
    },
    {
      "inputs": [],
      "name": "BVIX_MAX_PRICE",
      "outputs": [
        {
          "internalType": "uint256",
          "name": "",
          "type": "uint256"
        }
      ],
      "stateMutability": "view",
      "type": "function"
    },
    {
      "inputs": [],
      "name": "BVIX_MIN_PRICE",
      "outputs": [
        {
          "internalType": "uint256",
          "name": "",
          "type": "uint256"
        }
      ],
      "stateMutability": "view",
      "type": "function"
    },
    {
      "inputs": [],
      "name": "EVIX_MAX_PRICE",
      "outputs": [
        {
          "internalType": "uint256",
          "name": "",
          "type": "uint256"
        }
      ],
      "stateMutability": "view",
      "type": "function"
    },
    {
      "inputs": [],
      "name": "EVIX_MIN_PRICE",
      "outputs": [
        {
          "internalType": "uint256",
          "name": "",
          "type": "uint256"
        }
      ],
      "stateMutability": "view",
      "type": "function"
    },
    {
      "inputs": [],
      "name": "MAX_MOVEMENT_BPS",
      "outputs": [
        {
          "internalType": "uint256",
          "name": "",
          "type": "uint256"
        }
      ],
      "stateMutability": "view",
      "type": "function"
    },
    {
      "inputs": [],
      "name": "bvixMeanPrice",
      "outputs": [
        {
          "internalType": "uint256",
          "name": "",
          "type": "uint256"
        }
      ],
      "stateMutability": "view",
      "type": "function"
    },
    {
      "inputs": [],
      "name": "bvixOracle",
      "outputs": [
        {
          "internalType": "contract IOracle",
          "name": "",
          "type": "address"
        }
      ],
      "stateMutability": "view",
      "type": "function"
    },
    {
      "inputs": [],
      "name": "bvixVolatility",
      "outputs": [
        {
          "internalType": "uint256",
          "name": "",
          "type": "uint256"
        }
      ],
      "stateMutability": "view",
      "type": "function"
    },
    {
      "inputs": [
        {
          "internalType": "uint256",
          "name": "_bvixPrice",
          "type": "uint256"
        },
        {
          "internalType": "uint256",
          "name": "_evixPrice",
          "type": "uint256"
        }
      ],
      "name": "emergencyUpdatePrices",
      "outputs": [],
      "stateMutability": "nonpayable",
      "type": "function"
    },
    {
      "inputs": [],
      "name": "evixMeanPrice",
      "outputs": [
        {
          "internalType": "uint256",
          "name": "",
          "type": "uint256"
        }
      ],
      "stateMutability": "view",
      "type": "function"
    },
    {
      "inputs": [],
      "name": "evixOracle",
      "outputs": [
        {
          "internalType": "contract IEVIXOracle",
          "name": "",
          "type": "address"
        }
      ],
      "stateMutability": "view",
      "type": "function"
    },
    {
      "inputs": [],
      "name": "evixVolatility",
      "outputs": [
        {
          "internalType": "uint256",
          "name": "",
          "type": "uint256"
        }
      ],
      "stateMutability": "view",
      "type": "function"
    },
    {
      "inputs": [],
      "name": "getSimulationStatus",
      "outputs": [
        {
          "internalType": "bool",
          "name": "active",
          "type": "bool"
        },
        {
          "internalType": "uint256",
          "name": "bvixPrice",
          "type": "uint256"
        },
        {
          "internalType": "uint256",
          "name": "evixPrice",
          "type": "uint256"
        },
        {
          "internalType": "uint256",
          "name": "lastUpdate",
          "type": "uint256"
        },
        {
          "internalType": "uint256",
          "name": "nextUpdateTime",
          "type": "uint256"
        }
      ],
      "stateMutability": "view",
      "type": "function"
    },
    {
      "inputs": [],
      "name": "lastUpdateTime",
      "outputs": [
        {
          "internalType": "uint256",
          "name": "",
          "type": "uint256"
        }
      ],
      "stateMutability": "view",
      "type": "function"
    },
    {
      "inputs": [],
      "name": "meanReversionStrength",
      "outputs": [
        {
          "internalType": "uint256",
          "name": "",
          "type": "uint256"
        }
      ],
      "stateMutability": "view",
      "type": "function"
    },
    {
      "inputs": [],
      "name": "owner",
      "outputs": [
        {
          "internalType": "address",
          "name": "",
          "type": "address"
        }
      ],
      "stateMutability": "view",
      "type": "function"
    },
    {
      "inputs": [],
      "name": "renounceOwnership",
      "outputs": [],
      "stateMutability": "nonpayable",
      "type": "function"
    },
    {
      "inputs": [
        {
          "internalType": "uint256",
          "name": "_meanPrice",
          "type": "uint256"
        }
      ],
      "name": "setBvixMeanPrice",
      "outputs": [],
      "stateMutability": "nonpayable",
      "type": "function"
    },
    {
      "inputs": [
        {
          "internalType": "uint256",
          "name": "_meanPrice",
          "type": "uint256"
        }
      ],
      "name": "setEvixMeanPrice",
      "outputs": [],
      "stateMutability": "nonpayable",
      "type": "function"
    },
    {
      "inputs": [
        {
          "internalType": "uint256",
          "name": "_bvixVolatility",
          "type": "uint256"
        },
        {
          "internalType": "uint256",
          "name": "_evixVolatility",
          "type": "uint256"
        },
        {
          "internalType": "uint256",
          "name": "_meanReversionStrength",
          "type": "uint256"
        }
      ],
      "name": "setVolatilityParams",
      "outputs": [],
      "stateMutability": "nonpayable",
      "type": "function"
    },
    {
      "inputs": [],
      "name": "simulationActive",
      "outputs": [
        {
          "internalType": "bool",
          "name": "",
          "type": "bool"
        }
      ],
      "stateMutability": "view",
      "type": "function"
    },
    {
      "inputs": [],
      "name": "startSimulation",
      "outputs": [],
      "stateMutability": "nonpayable",
      "type": "function"
    },
    {
      "inputs": [],
      "name": "stopSimulation",
      "outputs": [],
      "stateMutability": "nonpayable",
      "type": "function"
    },
    {
      "inputs": [
        {
          "internalType": "address",
          "name": "newOwner",
          "type": "address"
        }
      ],
      "name": "transferOwnership",
      "outputs": [],
      "stateMutability": "nonpayable",
      "type": "function"
    },
    {
      "inputs": [],
      "name": "updatePrices",
      "outputs": [],
      "stateMutability": "nonpayable",
      "type": "function"
    }
  ],
  "bytecode": "0x60803461011b57601f61141738819003918201601f19168301916001600160401b038311848410176101205780849260609460405283398101031261011b5761004781610136565b90604061005660208301610136565b916001600160a01b0391829161006c9101610136565b1691821561010257816000549460018060a01b03199480868816176000558260405197167f8be0079c531659141344cd1fd0a4f28419497f9722a3daafe3b4186f6b6457e0600080a363fa56ea0060035563e27f66006004556032600555603c600655601460075516836001541617600155169060025416176002554260085560ff19600954166009556112cc908161014b8239f35b604051631e4fbdf760e01b815260006004820152602490fd5b600080fd5b634e487b7160e01b600052604160045260246000fd5b51906001600160a01b038216820361011b5756fe608060408181526004908136101561001657600080fd5b600092833560e01c90816302a68f931461109e575080631baaab841461107f578063284a5d23146110565780633ae2b2f71461103757806349dd126214610aac5780634b9fdeac1461079f5780634c96366a14610776578063715018a61461071c5780637d3b9ab9146105ee5780638af8b8d51461059e5780638da5cb5b146105765780639683ba78146105575780639ef64d07146104ff578063a53b7fa814610472578063a58b6a0e14610453578063b540f3db14610433578063c10a09cf1461040f578063c8f33c91146103f0578063d057717414610363578063d432af4d14610344578063e242341114610230578063e3cfcdd014610214578063e4faac22146101f5578063f2d18ce5146101d15763f2fde38b1461013757600080fd5b346101cd5760203660031901126101cd576001600160a01b038235818116939192908490036101c9576101686110ba565b83156101b3575050600054826bffffffffffffffffffffffff60a01b821617600055167f8be0079c531659141344cd1fd0a4f28419497f9722a3daafe3b4186f6b6457e0600080a380f35b51631e4fbdf760e01b8152908101849052602490fd5b8480fd5b8280fd5b8382346101f157816003193601126101f1576020905164037e11d6008152f35b5080fd5b8382346101f157816003193601126101f1576020905163773594008152f35b8382346101f157816003193601126101f1576020905160648152f35b5090346101cd5760603660031901126101cd57803560243591604435936102556110ba565b60c883116103015760c884116102be576064851161027b57505060055560065560075580f35b906020606492519162461bcd60e51b8352820152601960248201527f4d65616e20726576657273696f6e20746f6f207374726f6e67000000000000006044820152fd5b906020606492519162461bcd60e51b8352820152601860248201527f4556495820766f6c6174696c69747920746f6f206869676800000000000000006044820152fd5b906020606492519162461bcd60e51b8352820152601860248201527f4256495820766f6c6174696c69747920746f6f206869676800000000000000006044820152fd5b8382346101f157816003193601126101f1576020906003549051908152f35b50346101cd5760203660031901126101cd5760207f16a73e7b23761a2084db728a9e4fc9b67e5e2438dec2f29e9121bfbd7e8e08b7916000805160206112578339815191529335906103b36110ba565b6359682f00821015806103e1575b6103ca90611215565b8160035563084ac92b60e31b81515251908152a280f35b5064037e11d6008211156103c1565b8382346101f157816003193601126101f1576020906008549051908152f35b8382346101f157816003193601126101f15760209060ff6009541690519015158152f35b8382346101f157816003193601126101f15760209051640430e234008152f35b8382346101f157816003193601126101f1576020906006549051908152f35b5090346101cd5760203660031901126101cd57602081600080516020611277833981519152937f16a73e7b23761a2084db728a9e4fc9b67e5e2438dec2f29e9121bfbd7e8e08b7933580926104c56110ba565b6377359400821015806104f0575b6104dc90611215565b556308aac92b60e31b81515251908152a280f35b50640430e234008211156104d3565b8382346101f157816003193601126101f15760207f48ddfa7495202a0165f1855a9be7cf1577342166c920f162d3a3d90aa9a2d5aa9161053d6110ba565b600160ff196009541617600955426008555160018152a180f35b8382346101f157816003193601126101f1576020906007549051908152f35b8382346101f157816003193601126101f157905490516001600160a01b039091168152602090f35b8382346101f157816003193601126101f15760207f48ddfa7495202a0165f1855a9be7cf1577342166c920f162d3a3d90aa9a2d5aa916105dc6110ba565b60ff196009541660095551838152a180f35b50823461071957806003193601126107195760ff600954169160018060a01b039081600154169080518093634c6afee560e11b93848352828960209788935afa91821561070f5790859187936106de575b5060025416938884518096819382525afa9283156106d45785936106a0575b5060085493603c85019586861161068d575060a097508251961515875286015284015260608301526080820152f35b634e487b7160e01b815260118952602490fd5b9092508381813d83116106cd575b6106b8818361112c565b810103126106c85751918761065e565b600080fd5b503d6106ae565b82513d87823e3d90fd5b8281939294503d8311610708575b6106f6818361112c565b810103126106c857849051918961063f565b503d6106ec565b83513d88823e3d90fd5b80fd5b83346107195780600319360112610719576107356110ba565b600080546001600160a01b0319811682556001600160a01b03167f8be0079c531659141344cd1fd0a4f28419497f9722a3daafe3b4186f6b6457e08280a380f35b8382346101f157816003193601126101f15760025490516001600160a01b039091168152602090f35b5090346101cd57816003193601126101cd5780356024356107be6110ba565b6359682f0082101580610a9d575b15610a5a57637735940081101580610a4b575b15610a08576001546001600160a01b03939086908516803b156101f1578180916024895180948193638d6cc56d60e01b83528a898401525af180156109ea576109f4575b508460025416803b156101f1578180916024895180948193636a60cded60e11b835289898401525af180156109ea576109d2575b505083600154168551948594634c6afee560e11b92838752868560209889935afa9687156109c8578997610985575b50875163084ac92b60e31b9052875196875260208701524260408701527fb9eff63454e8f3e7e3a0591926665ec3da6f4d9d4072630ddac1bb0b9836d5069585929190600080516020611257833981519152908890606090a2600254169287518094819382525afa92831561097b578693610939575b505083516308aac92b60e31b9052925190815260208101929092524260408301526000805160206112778339815191529180606081015b0390a280f35b9080959350813d8311610974575b610951818361112c565b810103126106c857610933600080516020611277833981519152945192946108fc565b503d610947565b85513d88823e3d90fd5b92919096508583813d83116109c1575b61099f818361112c565b810103126106c857915195909190600080516020611257833981519152610886565b503d610995565b88513d8b823e3d90fd5b6109db906110e6565b6109e6578538610857565b8580fd5b87513d84823e3d90fd5b6109fd906110e6565b6109e6578538610823565b835162461bcd60e51b8152602081850152601860248201527f45564958207072696365206f7574206f6620626f756e647300000000000000006044820152606490fd5b50640430e234008111156107df565b835162461bcd60e51b8152602081850152601860248201527f42564958207072696365206f7574206f6620626f756e647300000000000000006044820152606490fd5b5064037e11d6008211156107cc565b5090346101cd57826003193601126101cd5760ff6009541615610ffd57600854603c8101809111610fea574210610fb1576001548251634c6afee560e11b808252909290916001600160a01b039081169160209182868381875afa958615610f78578896610f82575b50828160025416958389518098819382525afa948515610f78578895610f45575b50600354600554600a5494600019929190838714610e9b5760018701928b51928284014281528d44908601528560608601523360601b9485608082015260748152610b8081611110565b5190208160011b9082820460021483151715610f31578115610f1d578f9293610bb38f9395610c0596610be99406611177565b90848482811115610eef57620186a09150610bd4610be393610bdd92611177565b6007549061114e565b04611184565b90611195565b918212610ed15761271091610bfd9161114e565b045b8b611195565b966359682f00808910610ec9575b5064037e11d600808911610ec1575b508654946006549414610eae576002019182600a558b5191820192428452448d8401526060830152608082015260748152610c5c81611110565b5190208160011b9082820460021483151715610e9b578115610e885792610c8c610cc993610cad938e9606611177565b90848a82811115610e5957620186a09150610bd4610be393610bdd92611177565b828112610e3c57610cc1612710918961114e565b045b87611195565b936377359400808610610e34575b50640430e23400808611610e2a575b50610cf4610cfb91896111b1565b94876111b1565b94803b156101f157819060248a5180948193638d6cc56d60e01b835289898401525af180156109c857610e15575b509087916002541690813b156101cd578460248492838b519586948593636a60cded60e11b85528401525af180156109ea57610e01575b505060008051602061127783398151915294600080516020611257833981519152610933924260085563084ac92b60e31b835152825180610dd77fb9eff63454e8f3e7e3a0591926665ec3da6f4d9d4072630ddac1bb0b9836d506998a944291846040919493926060820195825260208201520152565b0390a280516308aac92b60e31b905251928352602083019190915242604083015281906060820190565b610e0a906110e6565b6109e6578538610d60565b610e2290989192986110e6565b969038610d29565b9450610cf4610ce6565b945038610cd7565b612710610bdd610e4e610e5493611184565b8a61114e565b610cc3565b909291808210610e6b575b5050611195565b620186a0929350610e7f91610bd491611177565b04908938610e64565b634e487b7160e01b8c526012865260248cfd5b634e487b7160e01b8c526011865260248cfd5b634e487b7160e01b8d526011875260248dfd5b975038610c22565b975038610c13565b610bdd61271091610ee4610eea94611184565b9061114e565b610bff565b909291808210610f00575050611195565b620186a0929350610f1491610bd491611177565b04908338610e64565b50634e487b7160e01b8f526012895260248ffd5b50634e487b7160e01b8f526011895260248ffd5b9094508281813d8311610f71575b610f5d818361112c565b81010312610f6d57519338610b36565b8780fd5b503d610f53565b87513d8a823e3d90fd5b9095508281813d8311610faa575b610f9a818361112c565b81010312610f6d57519438610b15565b503d610f90565b6020606492519162461bcd60e51b83528201526014602482015273546f6f206672657175656e74207570646174657360601b6044820152fd5b634e487b7160e01b845260118252602484fd5b6020606492519162461bcd60e51b8352820152601560248201527453696d756c6174696f6e206e6f742061637469766560581b6044820152fd5b8382346101f157816003193601126101f157602090516359682f008152f35b8382346101f157816003193601126101f15760015490516001600160a01b039091168152602090f35b8382346101f157816003193601126101f1576020906005549051908152f35b849084346101cd57826003193601126101cd5760209250548152f35b6000546001600160a01b031633036110ce57565b60405163118cdaa760e01b8152336004820152602490fd5b67ffffffffffffffff81116110fa57604052565b634e487b7160e01b600052604160045260246000fd5b60a0810190811067ffffffffffffffff8211176110fa57604052565b90601f8019910116810190811067ffffffffffffffff8211176110fa57604052565b8181029291811591840414171561116157565b634e487b7160e01b600052601160045260246000fd5b9190820391821161116157565b600160ff1b81146111615760000390565b9190916000838201938412911290801582169115161761116157565b6064810281810460641482151715611161576127109004818311156111f257806111db8385611177565b116111e557505090565b8101915081106111615790565b90816111fe8483611177565b1161120857505090565b6112129250611177565b90565b1561121c57565b60405162461bcd60e51b8152602060048201526012602482015271496e76616c6964206d65616e20707269636560701b6044820152606490fdfed31dc401cc20f9f788514c4d2fad46889824c21ff3e679c43c9770b3b4b3bd52f852f64739c79113305c1f1dbb665a0196b646c6784356e2f282e6074357ec16a2646970667358221220948c300632aec4c0a3e93e4c02458db8c19639722083aee9f258209679fa77bd64736f6c63430008150033",
  "linkReferences": {},
  "deployedLinkReferences": {}
}