{
  "_format": "hh-sol-artifact-1",
  "contractName": "OracleSimulatorV2",
  "sourceName": "contracts/OracleSimulatorV2.sol",
  "abi": [
    {
      "inputs": [
        {
          "internalType": "address",
          "name": "_bvixOracle",
          "type": "address"
        },
        {
          "internalType": "address",
          "name": "_evixOracle",
          "type": "address"
        },
        {
          "internalType": "address",
          "name": "initialOwner",
          "type": "address"
        }
      ],
      "stateMutability": "nonpayable",
      "type": "constructor"
    },
    {
      "inputs": [
        {
          "internalType": "address",
          "name": "owner",
          "type": "address"
        }
      ],
      "name": "OwnableInvalidOwner",
      "type": "error"
    },
    {
      "inputs": [
        {
          "internalType": "address",
          "name": "account",
          "type": "address"
        }
      ],
      "name": "OwnableUnauthorizedAccount",
      "type": "error"
    },
    {
      "anonymous": false,
      "inputs": [
        {
          "indexed": true,
          "internalType": "string",
          "name": "token",
          "type": "string"
        },
        {
          "indexed": false,
          "internalType": "uint256",
          "name": "newMeanPrice",
          "type": "uint256"
        }
      ],
      "name": "MeanPriceUpdated",
      "type": "event"
    },
    {
      "anonymous": false,
      "inputs": [
        {
          "indexed": true,
          "internalType": "address",
          "name": "previousOwner",
          "type": "address"
        },
        {
          "indexed": true,
          "internalType": "address",
          "name": "newOwner",
          "type": "address"
        }
      ],
      "name": "OwnershipTransferred",
      "type": "event"
    },
    {
      "anonymous": false,
      "inputs": [
        {
          "indexed": true,
          "internalType": "string",
          "name": "token",
          "type": "string"
        },
        {
          "indexed": false,
          "internalType": "uint256",
          "name": "oldPrice",
          "type": "uint256"
        },
        {
          "indexed": false,
          "internalType": "uint256",
          "name": "newPrice",
          "type": "uint256"
        },
        {
          "indexed": false,
          "internalType": "uint256",
          "name": "timestamp",
          "type": "uint256"
        }
      ],
      "name": "PriceUpdated",
      "type": "event"
    },
    {
      "anonymous": false,
      "inputs": [
        {
          "indexed": false,
          "internalType": "bool",
          "name": "active",
          "type": "bool"
        }
      ],
      "name": "SimulationToggled",
      "type": "event"
    },
    {
      "inputs": [],
      "name": "BVIX_MAX_PRICE",
      "outputs": [
        {
          "internalType": "uint256",
          "name": "",
          "type": "uint256"
        }
      ],
      "stateMutability": "view",
      "type": "function"
    },
    {
      "inputs": [],
      "name": "BVIX_MIN_PRICE",
      "outputs": [
        {
          "internalType": "uint256",
          "name": "",
          "type": "uint256"
        }
      ],
      "stateMutability": "view",
      "type": "function"
    },
    {
      "inputs": [],
      "name": "EVIX_MAX_PRICE",
      "outputs": [
        {
          "internalType": "uint256",
          "name": "",
          "type": "uint256"
        }
      ],
      "stateMutability": "view",
      "type": "function"
    },
    {
      "inputs": [],
      "name": "EVIX_MIN_PRICE",
      "outputs": [
        {
          "internalType": "uint256",
          "name": "",
          "type": "uint256"
        }
      ],
      "stateMutability": "view",
      "type": "function"
    },
    {
      "inputs": [],
      "name": "MAX_MOVEMENT_BPS",
      "outputs": [
        {
          "internalType": "uint256",
          "name": "",
          "type": "uint256"
        }
      ],
      "stateMutability": "view",
      "type": "function"
    },
    {
      "inputs": [],
      "name": "bvixMeanPrice",
      "outputs": [
        {
          "internalType": "uint256",
          "name": "",
          "type": "uint256"
        }
      ],
      "stateMutability": "view",
      "type": "function"
    },
    {
      "inputs": [],
      "name": "bvixOracle",
      "outputs": [
        {
          "internalType": "contract IOracle",
          "name": "",
          "type": "address"
        }
      ],
      "stateMutability": "view",
      "type": "function"
    },
    {
      "inputs": [],
      "name": "bvixVolatility",
      "outputs": [
        {
          "internalType": "uint256",
          "name": "",
          "type": "uint256"
        }
      ],
      "stateMutability": "view",
      "type": "function"
    },
    {
      "inputs": [
        {
          "internalType": "uint256",
          "name": "_bvixPrice",
          "type": "uint256"
        },
        {
          "internalType": "uint256",
          "name": "_evixPrice",
          "type": "uint256"
        }
      ],
      "name": "emergencyUpdatePrices",
      "outputs": [],
      "stateMutability": "nonpayable",
      "type": "function"
    },
    {
      "inputs": [],
      "name": "evixMeanPrice",
      "outputs": [
        {
          "internalType": "uint256",
          "name": "",
          "type": "uint256"
        }
      ],
      "stateMutability": "view",
      "type": "function"
    },
    {
      "inputs": [],
      "name": "evixOracle",
      "outputs": [
        {
          "internalType": "contract IEVIXOracle",
          "name": "",
          "type": "address"
        }
      ],
      "stateMutability": "view",
      "type": "function"
    },
    {
      "inputs": [],
      "name": "evixVolatility",
      "outputs": [
        {
          "internalType": "uint256",
          "name": "",
          "type": "uint256"
        }
      ],
      "stateMutability": "view",
      "type": "function"
    },
    {
      "inputs": [],
      "name": "getSimulationStatus",
      "outputs": [
        {
          "internalType": "bool",
          "name": "active",
          "type": "bool"
        },
        {
          "internalType": "uint256",
          "name": "lastUpdate",
          "type": "uint256"
        },
        {
          "internalType": "uint256",
          "name": "nextUpdateTime",
          "type": "uint256"
        },
        {
          "internalType": "uint256",
          "name": "bvixPrice",
          "type": "uint256"
        },
        {
          "internalType": "uint256",
          "name": "evixPrice",
          "type": "uint256"
        }
      ],
      "stateMutability": "view",
      "type": "function"
    },
    {
      "inputs": [],
      "name": "lastUpdateTime",
      "outputs": [
        {
          "internalType": "uint256",
          "name": "",
          "type": "uint256"
        }
      ],
      "stateMutability": "view",
      "type": "function"
    },
    {
      "inputs": [],
      "name": "meanReversionStrength",
      "outputs": [
        {
          "internalType": "uint256",
          "name": "",
          "type": "uint256"
        }
      ],
      "stateMutability": "view",
      "type": "function"
    },
    {
      "inputs": [],
      "name": "owner",
      "outputs": [
        {
          "internalType": "address",
          "name": "",
          "type": "address"
        }
      ],
      "stateMutability": "view",
      "type": "function"
    },
    {
      "inputs": [],
      "name": "renounceOwnership",
      "outputs": [],
      "stateMutability": "nonpayable",
      "type": "function"
    },
    {
      "inputs": [
        {
          "internalType": "uint256",
          "name": "_meanPrice",
          "type": "uint256"
        }
      ],
      "name": "setBvixMeanPrice",
      "outputs": [],
      "stateMutability": "nonpayable",
      "type": "function"
    },
    {
      "inputs": [
        {
          "internalType": "uint256",
          "name": "_meanPrice",
          "type": "uint256"
        }
      ],
      "name": "setEvixMeanPrice",
      "outputs": [],
      "stateMutability": "nonpayable",
      "type": "function"
    },
    {
      "inputs": [
        {
          "internalType": "uint256",
          "name": "_bvixVolatility",
          "type": "uint256"
        },
        {
          "internalType": "uint256",
          "name": "_evixVolatility",
          "type": "uint256"
        },
        {
          "internalType": "uint256",
          "name": "_meanReversionStrength",
          "type": "uint256"
        }
      ],
      "name": "setVolatilityParams",
      "outputs": [],
      "stateMutability": "nonpayable",
      "type": "function"
    },
    {
      "inputs": [],
      "name": "simulationActive",
      "outputs": [
        {
          "internalType": "bool",
          "name": "",
          "type": "bool"
        }
      ],
      "stateMutability": "view",
      "type": "function"
    },
    {
      "inputs": [],
      "name": "startSimulation",
      "outputs": [],
      "stateMutability": "nonpayable",
      "type": "function"
    },
    {
      "inputs": [],
      "name": "stopSimulation",
      "outputs": [],
      "stateMutability": "nonpayable",
      "type": "function"
    },
    {
      "inputs": [
        {
          "internalType": "address",
          "name": "newOwner",
          "type": "address"
        }
      ],
      "name": "transferOwnership",
      "outputs": [],
      "stateMutability": "nonpayable",
      "type": "function"
    },
    {
      "inputs": [],
      "name": "updatePrices",
      "outputs": [],
      "stateMutability": "nonpayable",
      "type": "function"
    }
  ],
  "bytecode": "0x60803461011f57601f6200159538819003918201601f19168301916001600160401b038311848410176101245780849260609460405283398101031261011f576100488161013a565b9060406100576020830161013a565b916001600160a01b0391829161006d910161013a565b1691821561010657816000549460018060a01b03199480868816176000558260405197167f8be0079c531659141344cd1fd0a4f28419497f9722a3daafe3b4186f6b6457e0600080a36461c9f36800600355645879c3d8006004556032600555603c600655601460075516836001541617600155169060025416176002554260085560ff196009541660095561144690816200014f8239f35b604051631e4fbdf760e01b815260006004820152602490fd5b600080fd5b634e487b7160e01b600052604160045260246000fd5b51906001600160a01b038216820361011f5756fe608060408181526004908136101561001657600080fd5b600092833560e01c90816302a68f931461121d575080631baaab84146111fe578063284a5d23146111d55780633ae2b2f7146111b557806349dd126214610aba5780634b9fdeac146107a95780634c96366a14610780578063715018a6146107265780637d3b9ab9146105f55780638af8b8d5146105a55780638da5cb5b1461057d5780639683ba781461055e5780639ef64d0714610506578063a53b7fa814610477578063a58b6a0e14610458578063b540f3db14610437578063c10a09cf14610413578063c8f33c91146103f4578063d057717414610365578063d432af4d14610346578063e242341114610232578063e3cfcdd014610216578063e4faac22146101f6578063f2d18ce5146101d15763f2fde38b1461013757600080fd5b346101cd5760203660031901126101cd576001600160a01b038235818116939192908490036101c957610168611239565b83156101b3575050600054826bffffffffffffffffffffffff60a01b821617600055167f8be0079c531659141344cd1fd0a4f28419497f9722a3daafe3b4186f6b6457e0600080a380f35b51631e4fbdf760e01b8152908101849052602490fd5b8480fd5b8280fd5b8382346101f257816003193601126101f2576020905165015d3ef798008152f35b5080fd5b8382346101f257816003193601126101f25760209051642e90edd0008152f35b8382346101f257816003193601126101f2576020905160648152f35b5090346101cd5760603660031901126101cd5780356024359160443593610257611239565b60c883116103035760c884116102c0576064851161027d57505060055560065560075580f35b906020606492519162461bcd60e51b8352820152601960248201527f4d65616e20726576657273696f6e20746f6f207374726f6e67000000000000006044820152fd5b906020606492519162461bcd60e51b8352820152601860248201527f4556495820766f6c6174696c69747920746f6f206869676800000000000000006044820152fd5b906020606492519162461bcd60e51b8352820152601860248201527f4256495820766f6c6174696c69747920746f6f206869676800000000000000006044820152fd5b8382346101f257816003193601126101f2576020906003549051908152f35b50346101cd5760203660031901126101cd5760207f16a73e7b23761a2084db728a9e4fc9b67e5e2438dec2f29e9121bfbd7e8e08b7916000805160206113d18339815191529335906103b5611239565b6422ecb25c00821015806103e4575b6103cd9061138f565b8160035563084ac92b60e31b81515251908152a280f35b5065015d3ef798008211156103c4565b8382346101f257816003193601126101f2576020906008549051908152f35b8382346101f257816003193601126101f25760209060ff6009541690519015158152f35b8382346101f257816003193601126101f257602090516501a3185c50008152f35b8382346101f257816003193601126101f2576020906006549051908152f35b5090346101cd5760203660031901126101cd576020816000805160206113f1833981519152937f16a73e7b23761a2084db728a9e4fc9b67e5e2438dec2f29e9121bfbd7e8e08b7933580926104ca611239565b642e90edd000821015806104f6575b6104e29061138f565b556308aac92b60e31b81515251908152a280f35b506501a3185c50008211156104d9565b8382346101f257816003193601126101f25760207f48ddfa7495202a0165f1855a9be7cf1577342166c920f162d3a3d90aa9a2d5aa91610544611239565b600160ff196009541617600955426008555160018152a180f35b8382346101f257816003193601126101f2576020906007549051908152f35b8382346101f257816003193601126101f257905490516001600160a01b039091168152602090f35b8382346101f257816003193601126101f25760207f48ddfa7495202a0165f1855a9be7cf1577342166c920f162d3a3d90aa9a2d5aa916105e3611239565b60ff196009541660095551838152a180f35b50823461072357806003193601126107235760ff600954169160085490603c820190818311610710576001548151634c6afee560e11b808252909491602091906001600160a01b0390839088908c90829085165afa9687156107065788976106d5575b5090829160025416998551809b819382525afa9586156106ca5795610695575b60a097508251961515875286015284015260608301526080820152f35b80955087813d83116106c3575b6106ac81836112ce565b810103126106be5760a0965194610678565b600080fd5b503d6106a2565b8351903d90823e3d90fd5b919096508282813d83116106ff575b6106ee81836112ce565b810103126106be5790519582610658565b503d6106e4565b85513d8a823e3d90fd5b634e487b7160e01b845260118652602484fd5b80fd5b833461072357806003193601126107235761073f611239565b600080546001600160a01b0319811682556001600160a01b03167f8be0079c531659141344cd1fd0a4f28419497f9722a3daafe3b4186f6b6457e08280a380f35b8382346101f257816003193601126101f25760025490516001600160a01b039091168152602090f35b5090346101cd57816003193601126101cd5780356024356107c8611239565b6422ecb25c0082101580610aaa575b15610a6757642e90edd00081101580610a57575b15610a14576001546001600160a01b03939086908516803b156101f2578180916024895180948193638d6cc56d60e01b83528a898401525af180156109f657610a00575b508460025416803b156101f2578180916024895180948193636a60cded60e11b835289898401525af180156109f6576109de575b505083600154168551948594634c6afee560e11b92838752868560209889935afa9687156109d4578997610991575b50875163084ac92b60e31b9052875196875260208701524260408701527fb9eff63454e8f3e7e3a0591926665ec3da6f4d9d4072630ddac1bb0b9836d50695859291906000805160206113d1833981519152908890606090a2600254169287518094819382525afa928315610987578693610945575b505083516308aac92b60e31b9052925190815260208101929092524260408301526000805160206113f18339815191529180606081015b0390a280f35b9080959350813d8311610980575b61095d81836112ce565b810103126106be5761093f6000805160206113f183398151915294519294610908565b503d610953565b85513d88823e3d90fd5b92919096508583813d83116109cd575b6109ab81836112ce565b810103126106be579151959091906000805160206113d1833981519152610892565b503d6109a1565b88513d8b823e3d90fd5b6109e790611288565b6109f2578538610863565b8580fd5b87513d84823e3d90fd5b610a0990611288565b6109f257853861082f565b835162461bcd60e51b8152602081850152601860248201527f45564958207072696365206f7574206f6620626f756e647300000000000000006044820152606490fd5b506501a3185c50008111156107eb565b835162461bcd60e51b8152602081850152601860248201527f42564958207072696365206f7574206f6620626f756e647300000000000000006044820152606490fd5b5065015d3ef798008211156107d7565b5090346101cd57826003193601126101cd5760ff600954161561117b57600854603c810180911161116857421061112f576001548251634c6afee560e11b8082529290916001600160a01b039081169160209182858381875afa9485156111255788956110f2575b50849583826002541691848a518094819382525afa9081156109d45789916110c1575b50809580159081156110b0575b506110a6575b8015908115611095575b5061108c575b600354600554600a5494600019929190838714610f895760018701928b51926103e88d8486019042825244908701528660608701523360601b9586608082015260748152610bb5816112b2565b519020068160011b9082820460021483151715611078578f9392610bdd8f93610be293611303565b611323565b9282821180611062575b1561101c5750610c0e610c05610c149361271093611323565b600754906112f0565b04611330565b905b8d8282019283129112908015821691151617610f9c578a8d821315610fcd5750610c43612710918c6112f0565b0480198b11610fbf57610c56908b611265565b965b6422ecb25c00808910610fb7575b5065015d3ef79800808911610faf575b508654946006549414610f9c579060026103e89392019182600a558c51918201924284528d44908401526060830152608082015260748152610cb7816112b2565b519020068160011b9082820460021483151715610f8957610cdc9291610bdd91611303565b90898782811180610f73575b15610f2c576127109150610c05610d0293610c0e92611323565b905b898282019283129112908015821691151617610f195788908682821315610eca5750610d3361271091886112f0565b0480198711610ebc57610d469087611265565b935b642e90edd000808610610eb4575b506501a3185c5000808611610eaa575b50610d74610d7b9189611341565b9487611341565b94803b156101f257819060248a5180948193638d6cc56d60e01b835289898401525af180156109d457610e95575b509087916002541690813b156101cd578460248492838b519586948593636a60cded60e11b85528401525af180156109f657610e81575b50506000805160206113f1833981519152946000805160206113d183398151915261093f924260085563084ac92b60e31b835152825180610e577fb9eff63454e8f3e7e3a0591926665ec3da6f4d9d4072630ddac1bb0b9836d506998a944291846040919493926060820195825260208201520152565b0390a280516308aac92b60e31b905251928352602083019190915242604083015281906060820190565b610e8a90611288565b6109f2578538610de0565b610ea29098919298611288565b969038610da9565b9450610d74610d66565b945038610d56565b506501a3185c500093610d48565b9490828112610eda575b50610d48565b612710919550610eec610ef291611330565b886112f0565b04808710610f0c57610f049087611323565b935b38610ed4565b50642e90edd00093610f06565b634e487b7160e01b895260118352602489fd5b90929180821080610f60575b610f44575b5050610d04565b612710929350610f5791610c0591611323565b04908638610f3d565b5081610f6c8183611323565b1115610f38565b50610f7e8382611323565b600a82041015610ce8565b634e487b7160e01b8c526011865260248cfd5b634e487b7160e01b8d526011875260248dfd5b975038610c76565b975038610c66565b5065015d3ef7980096610c58565b97908d8112610fdd575b50610c58565b612710919850610fef610ff591611330565b8c6112f0565b04808b1061100f57611007908b611323565b965b38610fd7565b506422ecb25c0096611009565b92918082108061104f575b611033575b5050610c16565b61271092935061104691610c0591611323565b04908b3861102c565b508161105b8183611323565b1115611027565b5061106d8383611323565b600a83041015610bec565b50634e487b7160e01b8f526011895260248ffd5b81549450610b68565b6001600160ff1b0310905038610b62565b6003549650610b58565b6001600160ff1b0310905038610b52565b90508381813d83116110eb575b6110d881836112ce565b810103126110e7575138610b45565b8880fd5b503d6110ce565b9094508281813d831161111e575b61110a81836112ce565b8101031261111a57519338610b22565b8780fd5b503d611100565b87513d8a823e3d90fd5b6020606492519162461bcd60e51b83528201526014602482015273546f6f206672657175656e74207570646174657360601b6044820152fd5b634e487b7160e01b845260118252602484fd5b6020606492519162461bcd60e51b8352820152601560248201527453696d756c6174696f6e206e6f742061637469766560581b6044820152fd5b8382346101f257816003193601126101f257602090516422ecb25c008152f35b8382346101f257816003193601126101f25760015490516001600160a01b039091168152602090f35b8382346101f257816003193601126101f2576020906005549051908152f35b849084346101cd57826003193601126101cd5760209250548152f35b6000546001600160a01b0316330361124d57565b60405163118cdaa760e01b8152336004820152602490fd5b9190820180921161127257565b634e487b7160e01b600052601160045260246000fd5b67ffffffffffffffff811161129c57604052565b634e487b7160e01b600052604160045260246000fd5b60a0810190811067ffffffffffffffff82111761129c57604052565b90601f8019910116810190811067ffffffffffffffff82111761129c57604052565b8181029291811591840414171561127257565b811561130d570690565b634e487b7160e01b600052601260045260246000fd5b9190820391821161127257565b600160ff1b81146112725760000390565b60648104908083111561137057816113598285611323565b1161136357505090565b61136d9250611265565b90565b8161137b8483611323565b1161138557505090565b61136d9250611323565b1561139657565b60405162461bcd60e51b8152602060048201526012602482015271496e76616c6964206d65616e20707269636560701b6044820152606490fdfed31dc401cc20f9f788514c4d2fad46889824c21ff3e679c43c9770b3b4b3bd52f852f64739c79113305c1f1dbb665a0196b646c6784356e2f282e6074357ec16a2646970667358221220f78ee0a4ec21e2c6e38de7acdbd31ab375b82830e6fb6e9b417986251ddfe14b64736f6c63430008150033",
  "linkReferences": {},
  "deployedLinkReferences": {}
}